:020000040800F2
:10800000B01D002065810008C5B800082F82000857
:10801000718100087381000875810008000000006C
:108020000000000000000000000000007781000850
:108030007981000800000000B7810008D1BE000867
:108040007F8100087F8100087F8100087F81000810
:108050007F8100087F8100083D9D00087D9D00080C
:108060007F8100087F8100088D9D00087F810008C6
:10807000BD9900087F810008D5990008099A000879
:10808000699A0008C99A00087F8100087F8100086A
:108090007F8100087F8100087F8100089D9D000886
:1080A0007F8100087F8100087F8100087F810008B0
:1080B0007F81000879C000087F8100087F81000867
:1080C0007F8100087F8100087F8100087F81000890
:1080D0007F8100080DC4000899C4000825C5000868
:1080E0004D9D00087F8100087F8100087F81000886
:1080F0007F8100087F8100087F8100087F81000860
:108100007F8100087F8100087F8100087F8100084F
:108110007F8100087F8100087F8100087F8100083F
:108120007F8100087F8100087F8100087F8100082F
:108130007F8100087F8100087F8100087F8100081F
:108140007F8100087F8100087F8100087F8100080F
:10815000DFF80CD001F0D0F900480047CD720108DB
:10816000B01D00200648804706480047FEE7FEE7AE
:10817000FEE7FEE7FEE7FEE7FEE7FEE7FEE7FEE7D7
:1081800019BF000851810008EFF3108072B67047E4
:1081900080F310887047334A1368012B04D04FF0E6
:1081A00001031360304A1060304A116030484FF0CC
:1081B000805101607047EFF3108272B62948016860
:1081C00091B14FF0000101602748016829B1EFF338
:1081D000098121E9F00F00680160244909680968F4
:1081E000B1E8F00F81F3098882F310884EF0040E95
:1081F00070471E4908601C494FF00000086019498B
:108200004FF0010008601B484FF47F01D0F80020B8
:1082100041EA0201016016484FF0805101601648A2
:108220000068006880F3088861B662B670471EF087
:10823000040F0CBFEFF30880EFF3098020E9F00F83
:1082400040F804ED1EF0040F0CBF80F3088880F3A3
:10825000098800B511F0D6FF5DF804EB4EF0040E6E
:1082600070470000680200206002002064020020C5
:1082700004ED00E020ED00E008ED00E02DE9F05F06
:108280000546002092469B46884606468146402485
:108290001BE0284641464746224600F0FCFE534676
:1082A0005A46C01A914110D311461846224600F092
:1082B000E3FE2D1A67EB01084F46224601200021FC
:1082C00000F0DAFE17EB00094E41201EA4F1010474
:1082D000DFDC484631462A464346BDE8F09F40EA87
:1082E00001039B0703D009E008C9121F08C0042A34
:1082F000FAD203E011F8013B00F8013B521EF9D21B
:108300007047D2B201E000F8012B491EFBD2704742
:108310000022F6E710B513460A4604461946FFF751
:10832000F0FF204610BDCAB2401E10F8011F8A425D
:1083300002D00029F9D100207047421C10F8011B1F
:108340000029FBD1801A704710B5002200E0521CB2
:10835000835C8C5CA34201D1002BF8D1D8B2E1B28E
:10836000401A10BD30B504460020034600E05B1CF7
:10837000934203D2E05CCD5C401BF8D030BD034695
:1083800011F8012B00F8012B002AF9D1184670478B
:1083900030B505460020034600E05B1C934205D241
:1083A000EC5CC85C201A01D1002CF6D130BD30B590
:1083B00003461D783DB10A4612F8014B1CB1AC4290
:1083C000FAD15B1CF5E7181A30BD30B50546002020
:1083D00008E00A4602E0A34207D0521C1378002BA3
:1083E000F9D1401C2C5C002CF3D130BD0FB400B58A
:1083F0008DB010A909900B9000914FF0FF300A90BA
:1084000000200C9005480690054807906A4609A888
:108410000F9900F085FE0DB05DF814FB3D9100084A
:108420005B9100082DE9FF5F1D464FF0FF3BD5E94A
:10843000014691465F464FF00008A9697F1C0198EC
:108440008847296A824688470028F6D1BAF1FF3F5B
:108450000CD024F4C064002E19DD600614D5BAF1E6
:108460002B0F09D0BAF12D0F0ED103E0584604B0FE
:10847000BDE8F09F44F48064A9697F1C0198884797
:10848000761E8246002E02DDBAF1300F03D0B9F11C
:10849000000F26D032E0A969761E44F400747F1CD8
:1084A000019888478246002E05DDBAF1780F06D084
:1084B000BAF1580F03D0B9F1000F10D01EE0B9F196
:1084C000000F02D0B9F1100F18D1A969761E24F45B
:1084D00000747F1C019888478246102002E0082023
:1084E00000E00A20814609E008FB0908A969761E18
:1084F00044F400747F1C019888478246002E05DDF5
:108500004946504600F0F7FD0028EDDAE969019888
:108510008847A00502D46FF00100A8E7E00725D145
:10852000600613D5600502D5C8F1000000E04046A2
:1085300029680A1D2A600968220501D5087015E01E
:10854000220701D5088011E008600FE02868011DAE
:1085500029600068210502D580F8008006E0210727
:1085600002D5A0F8008001E0C0F8008038467EE720
:108570002DE9FF5FD2E901A74FF000089169994604
:108580001446DDF838B0464601988847054659EA52
:108590000B0005D009E0A169761C019888470546C3
:1085A000216A284688470028F5D1681C03D05FEA75
:1085B000CA7005D015E04FF0FF3004B0BDE8F09F61
:1085C0002068011D2160D0F800800AE05FEACA70CF
:1085D00001D108F8015BA169761C7F1E01988847CC
:1085E0000546002F1ADD681C18D0B9F1000F0DD018
:1085F000E81705EBD060421120F01F0059F8221057
:108600002A1A012090400142E0D107E0BBF1000F9F
:10861000DCD1216A284688470028D7D0E169019833
:108620008847BBF1000F07D1002E05DD5FEACA7055
:1086300002D1002188F80010A068B84203DDBBF128
:10864000000F03D017B16FF00100B6E73046B4E772
:108650002DE9FF4F087883B09946FF2805D0491CC3
:108660002D2804D00024002008E000200BE0012485
:10867000F9E700EB800003EB4000491C0B78FF2B6F
:10868000F7D104B1404200230293147819461D46E5
:108690002D2C01D02B2C04D1521C2D2C13D00024B6
:1086A0000294AA461478FF2C0FD00A25A3FB057864
:1086B00001FB05814FF0000C03FB0C11521CE31968
:1086C0004AEB0101EEE70124EAE7814453EA0100A5
:1086D00002D019F5C87F06DA03980021C0E900111D
:1086E00007B0BDE8F08F0025AE4E2F46DFF8B88208
:1086F000184600F0C4FECDE90001B9F1000002DA2D
:10870000C9F1000400E004460023A74A1AEB030B5A
:1087100042EB045A12E0E00707D02A4633463846B7
:10872000414600F0F9FA074688462A463346104685
:10873000194600F0F1FA05460E466410002CEAD105
:10874000DDE90001B9F1000F5A46534606DA00F0A0
:1087500055FB3A46434600F051FB05E000F0DCFAD9
:108760003A46434600F0D8FA029A0AB181F0004135
:10877000039AC2E90001B3E72DE9FF4F1F468DB010
:10878000D7E901464FF0FF382E2045464FF000094B
:108790000B90B9696D1C0E988847396A82468847E4
:1087A0000028F6D1BAF1FF3F0AD024F4D064002E9D
:1087B00011DDBAF12B0F08D0BAF12D0F0BD102E069
:1087C000404611B08DE744F48064B9696D1C0E9881
:1087D00088478246761E6946600501D52D2000E057
:1087E0002B208DF8000001F1010B0DF1200809E0AC
:1087F000B9696D1C0E98884782460F9844F400743E
:10880000761E0560002E02DDBAF1300FF0D00B9914
:108810008A453ED144F0800406E00F99681CA9F116
:10882000010944F400740860B9696D1C761E0E9845
:10883000884782463028F0D02BE00B998A4505D135
:10884000200603D444F08004761E18E0504604F05D
:10885000E7FD08B30DF11301761E44F400748B4557
:1088600008D2AAF130000BF8010B200607D5A9F1B8
:10887000010003E0200602D409F101008146A005B1
:1088800002D50F99681C0860B9696D1C0E9888475D
:108890008246002ED1DC53E0002E51DDBAF1650F87
:1088A00002D0BAF1450F4BD1A00549D5B9696D1C6D
:1088B00024F44074761E0E9888478246002E0CDD04
:1088C0002B2804D0BAF12D0F07D144F48074B96974
:1088D0006D1C0E9888478246761EE00501D52D2135
:1088E00000E02B2108F8011BCDF82C8021E00DF1D0
:1088F0002901761E44F4007488450CD2AAF1300098
:1089000010F0FF0088F8000002D10B99884509D9C2
:1089100008F1010806E0E00501D5244801E042F233
:108920000F708146B9696D1C0E98884782460F9872
:108930000560002E04DD504604F072FD0028D6D1FB
:10894000F9690E988847FF208BF8000088F800002E
:108950000020069007904B466A4608A906A8FFF734
:1089600077FEA00502D46FF001002AE714F0240F6F
:108970000AD0E00714D1DDE906123868031D3B6018
:108980000068C0E900120BE0DDE9060100F02EFBF3
:108990000146E00704D13868021D3A6000680160B2
:1089A00028460EE7000014400000F03FF1D8FFFF1A
:1089B0002DE9F05F93460F4680460446002603F0FB
:1089C00013FED0F80090824614F8015B2DB100F040
:1089D00085FB0068405DC007F6D12B2D02D02D2D00
:1089E0001AD0641E0021CAF800105A4639462046A3
:1089F00000F0C4FB014627B13868A04201D1C7F896
:108A00000080DAF80000022809D0CAF8009070054A
:108A100005D54842BDE8F09F46F48066E2E7084687
:108A2000F8E7F0B480EA0102D40F4200B2EB410F44
:108A300002D20246084611464A0042D0C30DDDB2BA
:108A4000C1F3C752AD1A202D35DAC1F3160141F436
:108A5000000204B15242C5F1200602FA06F12A4191
:108A60001044B3EBD05F23D0C4B1012DA0EBC350B1
:108A700009DCF0BC4FF0004202EAC352DBB200F561
:108A8000000000F0D3BB400000F1807000EBC35049
:108A9000A0F1807040EAD170490009E0490841EA3C
:108AA000C071A0EBC35000F50000400800EBC350BC
:108AB000F0BC00F0B2BB6142012202EB4101001B9D
:108AC000F6E7F0BC704781F00041AAE780F0004073
:108AD000A7E780EA010210B502F00043400022D06F
:108AE0004A001FD0010E01EB1261C0F35600C2F321
:108AF000560240F4000042F40002A0FB02200004F1
:108B00007F39140400D0401C50EA124001D44000C8
:108B1000491EC2B20C0604EBD010401C4008802A4B
:108B200002D003E0002010BD20F00100002900DA8F
:108B30000020184310BD30B480EA010202F0004565
:108B400030F0004221F0004013D090B1C30DD40D9D
:108B5000C2F31601C0F31600E41A41F4000140F418
:108B600000027D34914201D3641C00E04900002CD6
:108B700002DA30BC002070474FF40000002391421D
:108B800001D3891A034340084FEA4101F7D151B19B
:108B9000914202D14FF0004105E002D24FF00101B5
:108BA00001E06FF0010103EBC450284430BC00F039
:108BB00034BB420005D0C0F3C7525242914201DC9F
:108BC0000020704700EBC15070472DE9FE4F8046F2
:108BD00081EA0300C00F0C46009021F0004123F011
:108BE0000045B8EB0200A94105D240462146904617
:108BF0001C460B46024623F00040104347D0270D89
:108C0000C7F30A00C3F30A510290401A01904028AA
:108C10006BDAC3F3130040F4801B0098924620B136
:108C20000023D2EB030A63EB0B0B01985946C0F10A
:108C30004002504600F020FA06460D46504659467E
:108C4000019A00F038FA10EB08006141002487EA2D
:108C5000115284EAE7731A4340D0009A62B3019A32
:108C6000012A4FEA075215DC001B61EB02014FF0AD
:108C7000004202EA0752CDE90042001C41F5801192
:108C800032462B4600F05CFB03B0BDE8F08F404657
:108C90002146F9E7001B61EB0201001C41F580133E
:108CA00000185B412018A2F5001747EB030140EACA
:108CB000D570B6196D4111E06D084FEA360645EAE8
:108CC000C0754FEA0752001B61EB0201001C41F521
:108CD000801149084FEA30000019514132462B46B5
:108CE00003B0BDE8F04F00F01CBB0098012240002B
:108CF0000023D0EB020263EBE073009821464FEAB9
:108D0000E074B8EB000061EB0401E9E783F0004395
:108D10005BE781F0004158E72DE9FE4F81EA03044B
:108D200004F0004421F0004100944FF0000B23F0C8
:108D3000004350EA01045ED052EA03045BD0C3F35F
:108D40000A54C1F30A552C44A4F2F3340194A0FB55
:108D50000254C1F3130141F48011C3F3130343F42C
:108D6000801301FB024400FB034E840A970A44EA85
:108D7000815447EA8357A4FB076802958D0A05FBD7
:108D800007854FEA932C04FB0C542705029D4FEAFC
:108D9000065847EA1637B5EB08056EEB070C870E49
:108DA000920E47EA811742EA8312A7FB0201B6EB53
:108DB0000B0164EB00042B0D43EA0C335E1844EB0B
:108DC0001C50DA465146E7FB0201C5F313044FEA93
:108DD0000B3343EA14534FEA0432019C43EA06037F
:108DE000A4F10C040294009CCDE900B400F0A8FAB0
:108DF00003B0BDE8F08F00200146F9E72DE9F04D02
:108E000081EA030404F0004B21F0004514464FF0C2
:108E1000000A23F0004150EA050220D054EA010282
:108E20001DD0C5F30A570246C5F31303C1F313005F
:108E3000C1F30A5640F4801543F48013A7EB0608EB
:108E4000101BD64608F2FD3873EB050002D308F17B
:108E5000010801E092185B41B8F1000F03DA00202D
:108E60000146BDE8F08D00204FF48011064684468F
:108E70000EE0171B73EB050705D3121B63EB05030D
:108E800006434CEA010C49084FEA300092185B4156
:108E900050EA0107EDD152EA030012D082EA040041
:108EA00083EA0501084305D0101BAB4106D201221D
:108EB000002306E000224FF0004302E06FF00102C1
:108EC00053101AEB06004CEB085110EB0A0041EB73
:108ED0000B01BDE8F04D00F024BA70B521F000435D
:108EE00003430CD0C1F30A550024D5EB040564EB11
:108EF0000403D617AD1AB34102DB0020014670BD52
:108F0000201841EB025170BDC10F80EAE0700844A7
:108F1000CA079623002100F089B996230022114642
:108F200000F084B930B4044696230800214604D0EA
:108F3000B62330BC002200F079B920460021F8E7C2
:108F40000EB5C10F80EAE0700844CA07002140F264
:108F500033438DE80E000A460B4600F0F1F903B0EA
:108F600000BD00F0004220F00040C10DC0F316002B
:108F700040F400007F2901DA00207047962903DCC5
:108F8000C1F19601C84001E096398840002AF4D02A
:108F90004042704700F0004230F000400AD0C10D5E
:108FA00001F56071C0F3160042EA0151C2084007A2
:108FB00011437047002001467047000030B5041E81
:108FC00071F1000404DB4FF00044404264EB010106
:108FD000141E73F1000405DB1C464FF0004352429F
:108FE00063EB04038B4208BF824230BD01F00043B3
:108FF00030B421F0004150EA010206D00A0DA2F57A
:109000006072C1F31301002A02DC30BC00207047FB
:10901000440F44EAC104C100E01830BC00EBC25068
:1090200000F0FBB8002801DBC0F10040002901DBA3
:10903000C1F1004181427047002801DBC0F10040CE
:10904000002901DBC1F100418842704730B50B4671
:10905000014600202022012409E021FA02F59D4268
:1090600005D303FA02F5491B04FA02F52844151E3C
:10907000A2F10102F1DC30BD202A04DB203A00FA23
:1090800002F1002070479140C2F1200320FA03F35F
:10909000194390407047202A04DB203A21FA02F05D
:1090A0000021704721FA02F3D040C2F12002914022
:1090B000084319467047202A06DBCB17203A41FAAD
:1090C00002F043EAE07306E041FA02F3D040C2F155
:1090D000200291400843194670470000004870473D
:1090E000C4EA010810B50446FFF7F8FF0068005D08
:1090F00000F0010010BD3A2800D2303820F02002E4
:10910000412A01D3A2F13700884201D34FF0FF304A
:1091100070470000026811441378016018467047D8
:10912000D160044951610449116200211161114665
:1091300000F0F4B915910008E5900008426842B1CA
:10914000016811F8013B23B1521EC0E90012184614
:1091500070470121C160881E704742685AB1C368D8
:10916000016843B983688B4205D0491E521CC0E98F
:109170000012002070474FF0FF3070472DE9F05F7C
:1091800082460078002715468B460AF10104B9464D
:10919000302801D09DB113E014F8010B0127782885
:1091A00003D0582801D045B10AE00DB1102D07D1E8
:1091B0000027102514F8010B02E0082500E00A251D
:1091C0000026B0460EE005FB080005FB06F101276E
:1091D00001EB10461FFA80F8B6F5803F00D3B94680
:1091E00014F8010B2946FFF786FF0028EBDABBF1E4
:1091F000000F05D00FB1641E00E05446CBF80040CC
:10920000B9F1000F06D003F0EFF902210160C81E8A
:10921000BDE8F09F48EA0640FAE70029A8BF70477A
:10922000401C490008BF20F00100704710B4B0FA9C
:1092300080FC00FA0CF050EA010404BF10BC704737
:1092400049B1CCF1200421FA04F411FA0CF118BF51
:10925000012121430843A3EB0C01CB1D4FEA006120
:109260004FEA102042BF002010BC704700EBC350F3
:1092700010440029A4BF10BC7047401C490008BF1F
:1092800020F0010010BC7047F0B4002802DCF0BCF4
:1092900000207047C0F3C751C0F3160040F400002F
:1092A000CA0701D14000491E3F2202EB610500229E
:1092B00011464FF4000626FA01F31344D4188442F1
:1092C00001D8001B1A464000491C1729F3DD510044
:1092D000814202D24FF0FF3100E0002102EBC55085
:1092E000F0BCFFF79ABF10B541000CD0C0F3C751D6
:1092F000962908DC7E2909DC06DB410204D000F057
:10930000004040F07E5010BD002010BDC1F1960419
:10931000C4F1200100FA01F1E040FFF77EFFA04018
:1093200010BD10B5141E73F1000408DA401C41F1A1
:10933000000192185B411A4301D120F0010010BDD9
:109340002DE9F04D92469B4611B1B1FA81F202E04F
:10935000B0FA80F220329046FFF78EFE04460F46A8
:1093600040EA0A0041EA0B0153465A46084313D02B
:10937000114653EA010019D0C8F140025046FFF7E8
:109380008AFE05460E46504659464246FFF774FE91
:10939000084305D0012004E020463946BDE8F08DA1
:1093A0000020054346EAE0762C4337430A986305DC
:1093B000E40AA0EB08000022FD0A44EA47540A3000
:1093C00002D500200146E9E7010510196941DDE9F0
:1093D000084500196941BDE8F04DA2E72DE9F04DBF
:1093E00000231A461B1A8A4103DB00200146BDE810
:1093F000F08DC1F30A52C1F3130141F480154FF00F
:10940000000BD10702D100186D41521E00270446FF
:1094100040F2FF11384601EB620A3E4680460246A2
:1094200000204FF48011FFF736FEC2197141BB18BE
:1094300046EB0100B4EB030C75EB000C04D3E41A0B
:1094400065EB000517460E46241908F101006D4131
:1094500080463428E3DDF91946EB0600091BA841D4
:1094600003D24FF0FF32134601E0002213461BEBFC
:10947000070046EB0A51BDE8F04DFFF752BF0EB5AD
:1094800040F2334202920022CDE900221346FFF758
:1094900057FF03B000BDC1F30A52C1F3130140F2FC
:1094A000FF3341F480119A4202DA002001467047EE
:1094B00040F233439A42A2F2334202DC5242FFF7B7
:1094C000EABDFFF7D9BD000030B5041E71F10004FC
:1094D00004DB4FF00044404264EB0101141E73F1C1
:1094E000000405DB1C464FF00043524263EB0403CB
:1094F000994208BF904230BD064C074D06E0E06837
:1095000040F0010394E8070098471034AC42F6D3CA
:10951000FEF722FE7CEC01089CEC01082DE9F34FDC
:109520008BB04FF0000801F10C000C464FF0010B1E
:1095300046460DF1080A01906269012101989047A1
:10954000051E2DD0252D2CD0216A8847C0B1626917
:10955000012101989047216A88470028F7D1411ED0
:1095600062690198904700E0761CA1690B988847D2
:10957000216A88470028F7D1E1690B988847DBE723
:10958000A1690B9888470746A84201D1761CD3E70A
:10959000E1690B9888477F1C02D1B8F1000F6FD0AA
:1095A00046E1002762693D463946019890472A28DE
:1095B00004D162690121019890470125DFF8849266
:1095C0006269012101989047A0F130010A290AD26D
:1095D0004F45E5DC07EB870100EB4107303FDFD467
:1095E00045F01005ECE7E90601D46FF000476C2860
:1095F0000AD04C2814D0682815D06A280DD07428B9
:109600001CD07A281AD01DE0626901210198904788
:109610006C2802D045F0040514E045F002050DE089
:1096200045F020050AE06269012101989047682809
:1096300002D045F0080505E045F4006562690121A6
:1096400001989047C4E9015765283DD019DC582896
:109650007AD00CDC452837D004DC252826D04128D8
:1096600031D131E046282FD047282CD12CE05B287F
:1096700077D0612828D063287CD0642823D15AE091
:10968000D0E06F2848D008DC66281DD067281BD0A2
:10969000692821D06E2816D127E0702845D073287C
:1096A00068D0752847D078280DD14DE0A1690B9876
:1096B0008847054625283FF469AFE1690B9888473C
:1096C0006D1C3FF46AAFB3E023466A466FF00100B9
:1096D0000B99FFF751F89EE045F040006060A80745
:1096E00023464FF0000236D43EE0E8077FF447AF50
:1096F0002068011D21600068290501D506701BE75F
:10970000290701D5068017E7A90703D5F117C0E996
:10971000006111E706600FE745F040006060A807B0
:1097200023464FF0080216D41EE040F60E0125EA4B
:109730000100606016E045F040006060A807234625
:109740004FF00A0207D40FE045F040006060A80720
:1097500008D5234610226FF001000B99AFF300806B
:1097600059E007E0234610226FF001000B99FEF745
:1097700059FE50E04FF000094F464B46632802D097
:109780005B2806D040E0E80601D40120A060012754
:109790003AE062690121019890475E2805D14FF0B7
:1097A00001096269494601989047216939B9002148
:1097B0000A46534643F82120491C0829FADBB0B376
:1097C000216969B9C11700EBD16253110AEB83011A
:1097D00022F01F02821A01200B68904003430B60A5
:1097E00062690121019890475D28E8D1B9F1000F25
:1097F00009D00020514651F82020D24341F82020C2
:10980000401C0828F7DB02AB224600976FF00100EE
:109810000B99FEF7ADFE00280CDA401C08D1BBF115
:10982000000F05D04FF0FF300DB0BDE8F08FFFE71F
:109830004046F9E7E90701D108F1010806444FF075
:10984000000B79E6CCCCCC0C70B58C1810F8015B11
:1098500015F0070301D110F8013B2A1106D110F8C9
:10986000012B03E010F8016B01F8016B5B1EF9D1CD
:109870002B0705D40023521E0DD401F8013BFAE753
:1098800010F8013BCB1A921C03E013F8015B01F8BE
:10989000015B521EF9D5A142D8D3002070BD000053
:1098A00010B586B0086804AB6A4618A1FEF79EFDA5
:1098B000022829D117A16846FEF746FD164C68B963
:1098C000049907290AD815A014F062F9049884F8BD
:1098D0000C03012204F5437115A010E016A168469F
:1098E000FEF732FD80B9049907290DD813A014F0B2
:1098F0004FF9049884F80D030122164916A00DF0C3
:10990000EBF9002006B010BD0120FBE73D253273C6
:109910002C25640042570000380400206163632056
:1099200062772073657420746F3A2025640D0A00F5
:109930006163635F627700005247000061636320E8
:1099400072616E67652073657420746F3A202564B8
:109950000D0A0000450700206163635F7267000025
:1099600010B5086800221146401CFFF721F80C4A88
:10997000A0F51661914211D80A4C0021C4E91601E4
:10998000014609A014F004F91C2204F1540109A0B5
:109990000DF0A2F90120E065002010BD012010BDEE
:1099A000A0060E0038040020424155443D25640DB8
:1099B0000A000000735F696E7466000010B511F054
:1099C00003F80349F0204860BDE8104011F014B8D6
:1099D0000000024010B510F0F7FF08494FF4704046
:1099E00048600748018841F0400101800421054892
:1099F00010F06CFDBDE8104010F0FEBF000002400A
:109A00000C3801400C0E002070B510F0DDFF144939
:109A10004FF47020486010F0EFFF124CD4E90801B9
:109A2000451A0020606202460120E16A00F066F8F3
:109A3000D4E90B12012000F0D3F80120226AE16A78
:109A400000F0C0F801221046E16A00F057F8032048
:109A500000EB052104F1C400BDE8704010F036BDF4
:109A600000000240480D002070B510F0ADFF144911
:109A70004FF47000486010F0BFFF124CD4E90F01A2
:109A8000451A0020206402460120A16C00F036F83F
:109A9000D4E91212012000F0A3F80120E26BA16CBE
:109AA00000F090F801221046A16C00F027F8032086
:109AB00000EB052104F58C70BDE8704010F006BD88
:109AC00000000240480D002010B510F07DFF08494D
:109AD0004FF0706048600748018841F04001018004
:109AE0000421054810F0F2FCBDE8104010F084BFDE
:109AF000000002400C440040600E0020012809D004
:109B000002280DD1074850F8210001682AB141F020
:109B1000010104E003484038F5E721F0010101604C
:109B200070470000C8E3010802460020012A06D061
:109B3000022A03D1034850F82100406870470148C9
:109B40004038F8E7C8E301080A494FF0FF3201281E
:109B500008D0022805D1486940F002004861064853
:109B600002607047486940F0010048610348426064
:109B70007047000000100240040402400000024050
:109B800070B515460C4601280ED0022817D10C4896
:109B9000005701F09CFE0A48503050F8240001683C
:109BA00055B141F0020109E00548801D005701F060
:109BB0008EFE03481030F0E721F00201016070BD15
:109BC00078E30108012806D0022803D1034850F8A1
:109BD00021004260704701484038F8E7C8E30108B7
:109BE000012806D0022803D1034850F82100C260A2
:109BF000704701484038F8E7C8E3010801280BD056
:109C0000022808D1064850F82100016821F080019F
:109C100041EAC2110160704701484038F3E7000093
:109C2000C8E3010810B50B46044609780022FFF787
:109C300065FF43F6D071012C28D0022C25D11C7869
:109C400015489A6850F82440A2601C781A6950F8A8
:109C50002440E2601C785A8850F8244062601A78E8
:109C600050F8220002688A4399880C0244EA812154
:109C70001C7B41EAC4119C795B7841EA841141EA7A
:109C80000311114341F48051016010BD02481C785A
:109C900040389A68D6E70000C8E3010802F022B90C
:109CA00010B5086800221146401CFEF781FE0349EA
:109CB00000B10120C865002010BD0000380400205C
:109CC00030B51C484456012004F01F0500FA05F584
:109CD0006409A40004F1E024C4F80051164C25687E
:109CE000884005432560144914390C680BB10443BE
:109CF00000E084430C6010490C394AB10C1D012A64
:109D00000DD0022A0AD10A688BB102430A6007E02B
:109D10000A680BB1024300E082430A6030BD13B110
:109D20002168014301E021688143216030BD824305
:109D30000A60F8E7F0E3010814040140024800213A
:109D400000780DF083BE0000380D00202DE9F041B1
:109D50000A24084E084F0125306805FA04F108422C
:109D600003D0385D21460DF071FE641C102CF3DB2E
:109D7000BDE8F08114040140380D002002480121A3
:109D800040780DF063BE0000380D00200248042129
:109D900000790DF05BBE0000380D00202DE9F04188
:109DA0000524084E084F0125306805FA04F10842E1
:109DB00003D0385D21460DF049FE641C0A2CF3DB0C
:109DC000BDE8F08114040140380D002008B50E48AC
:109DD00000220092016841F4803101604FF4004399
:109DE00006E00099491C0091994201D9012008BD63
:109DF00001688903F5D5009200BF0098401C0090CF
:109E0000FF28F9D9002008BD001002402DE9F043D9
:109E10000F46032187B008460DF0C6FA0646032117
:109E200008460DF0C1FA054639A012F0E9F808B16C
:109E300012F09AF8002E66D0002D64D0364C3046D1
:109E4000D4F8C8120DF0C0F92846D4F8D8120DF095
:109E5000BBF904F5337103228846684613F0EBFF23
:109E600004F537710322894603A813F0E4FF2BA100
:109E70002CA005F087FF20460CF0B0FF0020E06525
:109E800020460FF013F828A1386811F013FF80B3B3
:109E9000D4F8C802314604F532740DF095F929461C
:109EA00020690DF091F903226946404613F0C3FF83
:109EB000032203A9484613F0BEFF20680DF0C4F941
:109EC0008200206841681AA00CF006FF0C2241466F
:109ED00019A00CF001FF20690DF0B6F9820020698D
:109EE000416817A00CF0F8FE0C22494616A00CF0B1
:109EF000F3FE304610F0E2F8284610F0DFF80020BC
:109F000007B0BDE8F08312A013F042FE0520F7E78A
:109F10006D61696E00000000380400206F63666C9C
:109F2000617368006C6673003D414C4C000000009A
:109F30006163635F6D6973006163635F620000006A
:109F40006779725F6D6973006779725F6200000004
:109F50006E6F206D656D6F72790D0A002DE9F04FFF
:109F60000E460024086891B02546FEA111F0A2FE1D
:109F7000DFF8F883002808F5337963D006A805A92F
:109F8000CDE9001004AB10AAF9A13068FEF72EFA53
:109F9000042871D0032106200DF006FA0A9004214E
:109FA00006200DF001FA0990032104200DF0FCF9C0
:109FB0000890042103200DF0F7F94FF4AF7A0790D1
:109FC000032150460DF0F0F94FF07E570B903B46C1
:109FD000022200210A980DF051F9DFF8A4B3022201
:109FE0005E465B4601210A980DF048F93B46012286
:109FF00002210A980DF042F93346012203210A9802
:10A000000DF03CF93B46002204210A980DF036F988
:10A010003346002205210A980DF030F9D9A013F03B
:10A02000B7FD08F51870E04E0F9029460F9A0B986F
:10A0300012F0C6FD6D1C95FBFAF10AFB1155002DBF
:10A0400048D051E108F53274D8F8C80206F042FF52
:10A05000D6A0216806F072F820680DF0F5F88200AD
:10A0600020684168D3A00CF037FE00220321484647
:10A0700013F0D6FF25E0FFE71099032912DA04AAAE
:10A0800008F53274D8F8C80212F09AFDC7A021680A
:10A0900006F054F820680DF0D7F882002068416877
:10A0A000C4A011E012D14FF0030204A9484613F0F6
:10A0B000C2FEC2A013F06CFD032204A9C3A006F0E7
:10A0C00089F80C224946C4A00CF006FE11B000200D
:10A0D000BDE8F08F0CA90B980DF0D9F869460B98E4
:10A0E0000DF094F80023BE4A03210CA8039713F047
:10A0F00002FF0028A5D10098314620F00040FEF76D
:10A1000091FF21D20198314620F00040FEF78AFFEE
:10A110001AD239460298FEF7D6FC20F000403146AC
:10A12000FEF780FF10D2E0070ED144F00104ADA08D
:10A1300013F02EFD6A460021099812F041FD042219
:10A1400069469AA006F046F80098314620F0004093
:10A15000FEF768FF21D20198314620F00040FEF75B
:10A1600061FF1AD259460298FEF7ADFC20F000407C
:10A170003146FEF757FF10D2A0070ED444F0020478
:10A180009CA013F005FD6A460121099812F018FD04
:10A190000422694685A006F01DF80098314620F09B
:10A1A0000040FEF73FFF21D20298314620F00040E8
:10A1B000FEF738FF1AD239460198FEF784FC20F0EA
:10A1C00000403146FEF72EFF10D260070ED444F057
:10A1D00004048CA013F0DCFC6A460221099812F0FA
:10A1E000EFFC0422694671A005F0F4FF00983146A7
:10A1F00020F00040FEF716FF21D20298314620F0F1
:10A200000040FEF70FFF1AD259460198FEF75BFC9B
:10A2100020F000403146FEF705FF10D220070ED493
:10A2200044F008047BA013F0B3FC6A4603210998AC
:10A2300012F0C6FC042269465CA005F0CBFF019831
:10A24000314620F00040FEF7EDFE21D20298314663
:10A2500020F00040FEF7E6FE1AD239460098FEF7DD
:10A2600032FC20F000403146FEF7DCFE10D2E00662
:10A270000ED444F010046BA013F08AFC6A4604214B
:10A28000099812F09DFC0422694648A005F0A2FF3F
:10A290000198314620F00040FEF7C4FE21D202981A
:10A2A000314620F00040FEF7BDFE1AD25946009814
:10A2B000FEF709FC20F000403146FEF7B3FE10D255
:10A2C000A0060ED444F020045AA013F061FC6A46A4
:10A2D0000521099812F074FC0422694633A005F0A8
:10A2E00079FFE043800605D0052012F02DF811F02B
:10A2F00039FE9AE652A013F04BFCDDE90910089AEA
:10A300000CF018FEDDE9071013F048FB6A46002147
:10A31000079807F007FF6A46002108F53274D8F85D
:10A32000C80212F03CFC6A460121079807F0FAFEC9
:10A330006A460121206812F032FC6A460221079821
:10A3400007F0F0FE6A460221206812F028FC4A4617
:10A350000321079807F0E6FE0321484613F0E7FDC6
:10A360003EA087E03D52455345540000380400208C
:10A370003D25642C25662C25662C256600000000F2
:10A38000000080BF666163746F72792063616C69DD
:10A3900062726174696F6E20666F72206163632EF2
:10A3A0002E2E0D0A00000000CDCC4C3E6D61746C69
:10A3B000616200006163635F6D697300626961736C
:10A3C0002073657420746F3A0D0A00006E6F686523
:10A3D00061646572000000006163635F62000000F9
:10A3E0000AD7233C5A2B20706F7374696F6E0D0A65
:10A3F000000000005A2D20706F7374696F6E0D0A93
:10A4000000000000592B20706F7374696F6E0D0A85
:10A4100000000000592D20706F7374696F6E0D0A73
:10A4200000000000582B20706F7374696F6E0D0A66
:10A4300000000000582D20706F730D0A000000000E
:10A44000616C6C20706F73206461746120636F6C49
:10A450006C65637465640D0A00000000616363202D
:10A4600063616C6272696174696F6E206D61743AC8
:10A470000D0A000013F08CFBAFF2B000216805F06C
:10A480005DFE03224946AFF2BC0005F0A3FE0C229C
:10A490004946AFF2BC000CF01FFC20680CF0D4FE63
:10A4A000820020684168AFF2F4000CF015FC0998B6
:10A4B0000FF004FE0B980FF001FE0A980FF0FEFD5E
:10A4C00008980FF0FBFD07980FF0F8FDFEE500007F
:10A4D000FEB51DA013F05CFB00220321684613F0BB
:10A4E0009FFD0A2011F030FF11F03CFD1A4E0024B0
:10A4F0004FF4487503223146684613F066FC0A2083
:10A5000011F022FF11F02EFD641CAC42F2DB124967
:10A51000124B6C31124A0D46684613F055FD03216B
:10A52000284613F028FD0F4C4FF07E51D4F8D4028A
:10A53000FEF7C9FAC4F8D4020C2229460AA00CF08E
:10A54000CBFB0020FEBD0000626567696E204643BC
:10A5500041320D0A00000000980600200000404033
:10A560000AD7A33A380400206163635F62000000E9
:10A5700070B50C460546FFF7F1FC4FF4FA5011F0A8
:10A58000E3FE11F0EFFC2146284600F003F800201E
:10A5900070BD00002DE9F04F00260D46086891B00F
:10A5A0003446B046D9A1FDF7CFFEDA4F07F5377133
:10A5B0000591B0B108A807A9CDE9001006AB0AAA19
:10A5C000D5A12868FDF712FF042823D00BAAD6A135
:10A5D0002868FDF70BFF012848D0012011B0BDE825
:10A5E000F08FD7F8D80207F5367706F073FCCFA0C6
:10A5F000396805F0A3FD38680CF026FE8200386843
:10A600004168CCA00CF068FB00220321059813F0F0
:10A6100007FD24E00A99032912DAD7F8D80206AA1E
:10A6200007F5367712F0CCFAC0A0396805F086FD40
:10A6300038680CF009FE820038684168BDA011E05E
:10A6400012D14FF0030206A9059813F0F4FBBBA04A
:10A6500013F09EFA032206A9BCA005F0BBFD0C2254
:10A66000BDA005990CF038FB0020B7E70321084690
:10A670000CF09AFE0321019008460CF095FE009024
:10A680000022032102A813F0CBFC0020A7F8080346
:10A6900008F038F90E90B24808F07CFAB148DFF8BB
:10A6A000C8B20D9002A803220D9913F08EFB994DAC
:10A6B00008F10108B5F8080370B920077DD4002E11
:10A6C0007BD10126A9A013F063FA0022032102A87E
:10A6D00013F0A6FC4FF00008B5F80803052829D1AF
:10A6E00020072DD4A5A013F053FA4046FEF70CFC2A
:10A6F00001464FF07E50FEF71EFA0246A24B02A81A
:10A70000059913F061FC0021059A009812F047FAB0
:10A710000121059A009812F042FA0221059A009848
:10A7200012F03DFA032299A0059905F053FD012688
:10A7300044F00804B5F8080301283ED920073CD5A9
:10A74000012E01D096B188E00020A5F8080321462B
:10A7500090A013F01DFA0022032102A813F060FC60
:10A760004FF0000811F002FE099076E011F0FEFDB6
:10A770000999081A0990FEF7C7FB8D49FEF7DBF926
:10A780000F908CA013F004FA00254046FEF7BCFBA6
:10A790004FF07E5201461046FEF7CDF90C900B9813
:10A7A000FEF7B2FB0F99FEF7C6F90746764B6E49E6
:10A7B00002A80C9A13F008FC00E054E05BF82500B6
:10A7C00020F00040FEF7E6FB81468A4627F0004075
:10A7D000FEF7E0FB4A465346FEF798FA0022784B14
:10A7E000FEF7ECFB23D25BF825103846FEF76BF939
:10A7F00020F000406449FEF71FFC01D287F00047BB
:10A800005948594A0C38294640F82570019812F0E9
:10A81000C6F9032254496BA005F0DCFC3846FEF76C
:10A82000B9FB02460B466AA013F0B2F902E06D1CB8
:10A83000032DB4DB25B1012D06D0022D0DD107E08B
:10A8400044F0010465A006E044F0020466A002E0C2
:10A8500044F0040467A013F09BF9E043000708D01C
:10A86000002E51D000260A2011F06EFD11F07AFB67
:10A8700018E7032108460CF097FD0546032108461A
:10A880000CF092FD384906460C3905F027FCDDE94D
:10A89000001012F0CAFA2846019908F07FFA1D4C00
:10A8A00029463046D4F8D82204F536740CF090FED0
:10A8B00030460FF003FC28460FF000FC01980FF023
:10A8C000FDFB00980FF0FAFB20A0216805F036FC94
:10A8D00003221EA0059905F07DFC20680CF0B4FC55
:10A8E00082002068416813A00CF0F6F90C221AA02F
:10A8F00005990CF0F1F90022032102A813F090FB56
:10A900000E9808F047F9AFE60126ACE73D524553F3
:10A9100045540000380400203D25642C25662C2574
:10A92000662C2566000000003D2564006D61746C96
:10A93000616200006779725F6D69730062696173BB
:10A940002073657420746F3A0D0A00006E6F68659D
:10A9500061646572000000006779725F6200000048
:10A960000000A040B00600209011002062696173D1
:10A970002073746172740D0A0000000062696173D3
:10A980002073746F700D0A000000404062696173AB
:10A9900020000000617869732C2073746172742C3C
:10A9A00020666C61673A307825580D0A0000000077
:10A9B00000007A44732C2073746F700D0A0000003D
:10A9C0000000084061637475616C0D0A00000000AE
:10A9D000746865726F793A25660D0A005820206602
:10A9E0006F756E64210D0A00592020666F756E64C4
:10A9F000210D0A005A2020666F756E64210D0A0031
:10AA0000FEB500252A460321684613F009FB18A06D
:10AA100013F0BEF81A4F00244FF44876032239464B
:10AA2000684613F0D2F90A206D1C11F08DFC11F06C
:10AA300099FA641CB442F1DB2846FEF765FA014638
:10AA40004FF07E50FEF777F80D49024664310D4B0A
:10AA50000C46684613F0B8FA032221460AA005F016
:10AA6000B9FB0C2221460AA00CF036F90020FEBDED
:10AA7000626567696E20464347320D0A0000000098
:10AA8000B0060020000040406D61746C61620000FF
:10AA90006779725F6200000070B50E46086886B084
:10AAA00035A111F007F9364C04F53B7570B104A8D7
:10AAB00003A9CDE9001002AB05AA32A13068FDF769
:10AAC00095FC04282BD0012006B070BDD4F8E80214
:10AAD00004F53A7406F0FEF92EA0216805F02EFB6D
:10AAE00020680CF0B1FB8200206841682BA00CF0BC
:10AAF000F3F800220321284613F092FA0C2229468B
:10AB000028A00CF0E9F8002084F8C9002749C4F80F
:10AB1000D41084F8CA001022254926A027E0059900
:10AB2000032912DAD4F8E80202AA04F53A7412F002
:10AB300047F818A0216805F001FB20680CF084FBA1
:10AB400082002068416815A011E012D14FF0030285
:10AB500002A9284613F06FF918A013F019F8032280
:10AB600002A91AA005F036FB0C2229460DA00CF014
:10AB7000B3F80020A8E700003D52455345540000BB
:10AB8000380400203D25642C25662C25662C25667E
:10AB9000000000006D61746C616200006D61675FB0
:10ABA0006D6973006D61675F620000000000C6425E
:10ABB000E80700206D61676300000000626961734F
:10ABC0002073657420746F3A0D0A00006E6F68651B
:10ABD0006164657200000000094B00B5196941F01D
:10ABE000020119615861186940F040001861D803EA
:10ABF00007F028FA196921F00201196100BD00006F
:10AC0000002002404FF40060704700000348416993
:10AC100041F01001416100F003B800000010024053
:10AC20000348024941600349416070472301674579
:10AC300000200240AB89EFCD2DE9F04107464FF4EB
:10AC4000704416460D46204607F0FCF9A046002346
:10AC5000094C0DE0206940F001002061E85CF854E7
:10AC6000404607F0EFF9216921F0010121615B1CE9
:10AC7000B342EFD3BDE8F0810020024070B500245C
:10AC800012E009B101290ED16AB904EB440550F86C
:10AC9000256086F0004640F8256000EB85056E686B
:10ACA00086F000466E60641C9C42EAD370BD0000D2
:10ACB00010B50CA00CF049FE040008D10AA012F057
:10ACC00067FF0CE00278011D0DA012F061FF204625
:10ACD0000EF07CF90028F5D1204604F04FFD00204D
:10ACE00010BD00002F0000006F70656E2064697257
:10ACF0006563746F7279206572726F72210D0A003C
:10AD0000252D387320747970653A25640D0A00008A
:10AD100070B52C4B154604000E4606D0012C08D009
:10AD2000022C13D0032C08D114E0986940F00400E1
:10AD300002E0986940F0080098610A2D40D2DFE8EF
:10AD400005F00D1B143F263F3F3F263A986940F01F
:10AD50001000F1E7986940F02000EDE700230122A0
:10AD6000204601F025F800221EE0002302222046A2
:10AD700001F01EF8012205E000230222204601F026
:10AD800017F800223146204600F028F818E0032387
:10AD90000022204601F00CF8042D0AD00022314692
:10ADA000204600F01BF801223146204600F03CF816
:10ADB00006E00122F3E702230122204600F0F8FF1B
:10ADC000204670BD00100240034A52F820008068FF
:10ADD000C84000F001007047E0E3010801238B4008
:10ADE000034951F820000AB103617047436170477D
:10ADF000E0E301080A4A10B5936943F00103936147
:10AE00008A0721F003040749120F21440F238C689D
:10AE100093409C438C608B68904003438B6010BDD3
:10AE2000001002400000014030B512B1002402239E
:10AE300001E0012400230D4A0F2552F820008A006A
:10AE4000082909D34168203A954043EA8403A9437D
:10AE500093400B43436030BD0168954043EA84034F
:10AE6000A94393400B43036030BD0000E0E30108B9
:10AE7000012A00D00022FFF7B1BF000070B50C46D8
:10AE80000868FDF75AFA0D4D88B120680022114676
:10AE9000401CFDF78DFD10280ED8C5F8C0030C220C
:10AEA00005F5707106A00BF017FF002070BD06A01D
:10AEB000D5F8C01312F06CFE012070BD38040020DC
:10AEC00072665F636667000025640D0A000000007B
:10AED00000B585B0086804AB6A4611A1FDF786FA93
:10AEE00002281BD110A1684610F0E4FE90B9049925
:10AEF00007290FD80DA012F04BFE1149049801222A
:10AF000081F80B0301F20B310EA00BF0E5FE0020DF
:10AF100005B000BD0DA1684610F0CCFE0120F7E79A
:10AF20003D2532732C25640052470000677972205A
:10AF300072672073657420746F3A25640D0A0000EF
:10AF4000380400206779725F726700004257000082
:10AF50003EB508686B4601AA1CA1FDF747FA022816
:10AF600032D1009810F1FF4F2ED21A4988422BDCC3
:10AF7000012419A101A810F09DFE184D50B90098A8
:10AF8000FEF708F802460B4615A012F001FE0098E5
:10AF90000024286317A101A810F08CFE08B15CB151
:10AFA00010E00098FDF7F6FF02460B4612A012F0E3
:10AFB000EFFD00980024E86208491422203113A014
:10AFC0000BF08AFE20463EBD01203EBD3D25337379
:10AFD0002C2566000000A0404249530038040020A0
:10AFE0006779722062616973207468723A25660D10
:10AFF0000A0000004C4D4600677972206C6D662097
:10B000007468723A25660D0A00000000755F636679
:10B010006700000010B51E4C012102226368C3F3D3
:10B0200003135BB1082B04D0092B04D00A2B05D1E4
:10B0300003E0022102E0042100E008216368C3F379
:10B04000022333B1042B09D0052B04D0062B05D1E4
:10B0500003E0012202E0042200E008220D4B052853
:10B060001B6812D2DFE800F00B03080D0F00B3FBE2
:10B07000F1F0B0FBF2F010BDB3FBF1F010BD1846DB
:10B0800010BD054810BD054810BD002010BD0000D2
:10B090000010024000000020001BB70000127A00E0
:10B0A0000249486AC00D00224A62704700100240FF
:10B0B00006490B68091D0A68091D09684A400021F4
:10B0C0000360491C42600829FADB7047E8F7FF1F5C
:10B0D00008B5054B6946187801F022F80028F9D127
:10B0E0009DF8000008BD00004800002070B50C4627
:10B0F0000868FDF722F90B4D70B120680022114657
:10B10000401CFDF755FC2862142205F1200106A021
:10B110000BF0E2FD002070BD05A0296A12F038FD99
:10B12000F8E7000038040020755F636667000000E0
:10B1300025640D0A000000002DE9FC41E24D0C469B
:10B14000E24AD5E906010023FDF798F80646904645
:10B15000DFA12068FDF7F8F828B1DEA12068FDF72F
:10B16000F3F800282ED1DCA10220CDE90001002354
:10B170000122E521DBA012F00BFDE1A012F008FD99
:10B18000E8486A6AE8A150F82230E9A012F000FD10
:10B19000EBA1ECA02A6A12F0FBFCEDA1EEA012F0EC
:10B1A000F7FC0027E819017AEDA012F0F1FC7F1CF2
:10B1B000082FF7DBD1A012F0EBFCEBA1ECA06A6D3D
:10B1C00012F0E6FCEDA12068FDF7BEF8002817D1CB
:10B1D000ECA1EFA0D5F8902312F0DAFCB5F9A82382
:10B1E000EFA1F1A012F0D4FCB5F9AA23F1A1EEA0D1
:10B1F00012F0CEFCB5F9AC23F1A1EBA012F0C8FC23
:10B20000F2A12068FDF7A0F84FF47A7700283DD12D
:10B21000B1A2F0A1F2A012F0BBFCF4A2F6A1F0A042
:10B2200012F0B6FCF7A1D2A02A6812F0B1FC4FF0E0
:10B230003C0CB6FBFCF00CFB10614FF46160B6FBFC
:10B24000F0F300FB1363B8FBF7F2B6FBF0F0B3FBCF
:10B25000FCF3CDE900120246EDA1EFA012F098FC3C
:10B26000F3A1B8A02A6912F093FC686808B1F4A2AF
:10B2700000E0F6A2F7A1DAA012F08AFCA948F7A133
:10B28000083843780278F7A012F082FCF9A1206810
:10B29000FDF75AF8002831D1B5F80223F7A1B4A080
:10B2A00005F2023512F074FCAA88F6A1B0A012F0E3
:10B2B0006FFC6A88F5A1AEA012F06AFCD5F81E20DA
:10B2C000F4A1ABA012F064FC6B8A2A7AF3A1F5A07A
:10B2D00012F05EFC2B8A6A7AF6A1F8A012F058FCF4
:10B2E000EB89AA7AFAA1EFA012F052FCAB89EA7AB4
:10B2F000F9A1FBA0A5F2023512F04AFCFCA12068DE
:10B30000FDF722F840B90BF05FFD0BF027FD3A4640
:10B31000F9A197A012F03CFCF9A12068FDF714F800
:10B3200000282ED195F8B223F7A1F9A005F56C7588
:10B3300012F02EFCE868FDF72DFE02460B46F7A141
:10B34000F8A012F025FC2A78F9A1FCA012F020FC4C
:10B350006A78FDA1EEA012F01BFC6868FDF71AFEEA
:10B3600002460B46FBA1EFA012F012FCA868A5F55F
:10B370006C75FDF70FFE02460B46F8A1E9A012F02E
:10B3800007FCFAA12068FCF7DFFF88B9F8A1E0A06C
:10B39000D5F8C02312F0FCFBF7A1DDA0D5F8C4233B
:10B3A00012F0F6FBF8A1DAA0D5F8C82312F0F0FBF2
:10B3B000F7A12068FCF7C8FF002845D160A1D4A000
:10B3C0002A6A12F0E5FB58A1D1A06A6A12F0E0FBEC
:10B3D000E7A1CFA0D5F8C02312F0DAFBEEA1CCA0F4
:10B3E000AA6D12F0D5FBEEA1C9A0AA6A12F0D0FB9B
:10B3F000286FEDA1B0FBF7F2EEA012F0C9FBF0A1AF
:10B40000C3A06A6F12F0C4FBE86AFDF7C3FD0246F1
:10B410000B46EDA1EFA012F0BBFB286BFDF7BAFDC8
:10B4200002460B46EFA1EBA012F0B2FBB5F81623D3
:10B43000EEA1B7A012F0ACFBEFA012F0A9FBF7A0B1
:10B44000D5F8F81204F07AFEF7A12068FCF77CFF2B
:10B4500028B9022300220121F5A012F099FBF7A1DF
:10B460002068FCF771FF00282BD1D5F8C812F5A091
:10B4700005F5327504F062FE0322F449E7A004F0FA
:10B48000A9FEF3A0296904F059FEF0490322103106
:10B49000E2A004F09FFEED4903223039EEA004F053
:10B4A00099FEF0A0296A04F049FEE8490322203100
:10B4B000DAA004F08FFE95F8E920ECA194A012F038
:10B4C00067FB0020BDE8FC813804002040420F00EB
:10B4D000000000003D4C00004D61792032382032E0
:10B4E000303230000D0A484925642025642E256439
:10B4F0002E2564206275696C642025730D0A000096
:10B5000032303037202D203230313920436F70797E
:10B510007269676874206279204869504E55430DFE
:10B520000A0000008C0300204D4F44453A00000003
:10B53000252D3136732564282573290D0A00000056
:10B5400049443A00252D313673307825580D0A00CC
:10B55000555549443A000000252D3136730000004E
:10B5600025303258000000004F44523A00000000DD
:10B57000252D3136732564487A0D0A003D46555312
:10B58000494F4E00465553494F4E5F4652513A007F
:10B59000252D313673202564487A0D0A00000000FD
:10B5A0005941575F54433A00252D313673202564A5
:10B5B0000D0A000050495443485F54433A000000CC
:10B5C000524F4C4C5F54433A000000003D435055ED
:10B5D000000000006275696C64206461746500009D
:10B5E000252D31367325730D0A00000031303A35B0
:10B5F000353A3035000000006275696C642074696A
:10B600006D650000636F726520636C6F636B000093
:10B6100074696D6500000000252D31367325643A8C
:10B6200025643A25642025646D7365630D0A000066
:10B630007265736574206361757365200000000096
:10B6400065787465726E616C00000000696E7465E7
:10B6500072616C006F7363200000000063707520DE
:10B6600000000000252D31367325642E2564252524
:10B670000D0A00003D53454E534F5200677972202A
:10B680006672710061636320667271006D6167208C
:10B690006672710070727320667271006779722031
:10B6A00020627700252D31367325645B2564487A46
:10B6B0005D0D0A006779722020726700252D3136F2
:10B6C0007325645B25644450535D0D0A000000003F
:10B6D00061636320206277006163632020726700EA
:10B6E000252D31367325645B2564475D0D0A000006
:10B6F0003D535953000000006F73207469636B0061
:10B700003D4853490000000076616C69643A0000CE
:10B71000252D31367325640D0A00000066697465B5
:10B7200072723A00252D31367325660D0A0000002D
:10B7300062696E5F7374617475733A00252D3136DA
:10B7400073256425250D0A0063616C5F636E743A8E
:10B7500000000000666C75783A000000696E636C4A
:10B76000696E6174696F6E3A000000003D524600D8
:10B77000475749443A0000004D415820534C562049
:10B78000434E543A000000005458204652513A00AB
:10B790003D55535200000000424155443A0000001C
:10B7A0004F545950453A000043414E5F4241554481
:10B7B0003A000000252D31367325644B0D0A000038
:10B7C00043414E5F49443A00474C4D465F5448520E
:10B7D0003A000000252D31367325302E34660D0ACF
:10B7E0000000000047425F5448523A00494D555FFF
:10B7F000434F4F52443A000055534552205245465C
:10B800004552454E4345204652414D45204F462026
:10B81000524F544154494F4E3A0D0A006E6F6865BD
:10B8200061646572000000003D5645520000000052
:10B8300025642E25642E25640D0A00003D43414CED
:10B84000000000004143430D0A00000004070020EF
:10B850004759520D0A0000005243204759520D0A21
:10B86000000000004D41470D0A00000063616C5F5D
:10B87000636E740010B50868002286B01146401C43
:10B88000FDF796F80446014608A012F081F914224B
:10B8900009496846FCF723FD1422694607A0019474
:10B8A0000BF01AFA06B0002010BD00004D4F4445C1
:10B8B0003D25640D0A00000058040020755F636692
:10B8C0006700000010B500F001F810BD704700F0EF
:10B8D0001F02012191404009800000F1E020C0F8E2
:10B8E0000011704710B5086800221146401CFDF792
:10B8F0005FF8B0F5FA7F08D805491C224865543135
:10B9000004A00BF0E9F9002010BD012010BD0000DB
:10B9100038040020735F696E7466000070B50C46D1
:10B920000868FCF70AFD0C4D80B120680022114622
:10B93000401CFDF73DF803280CD8A862142205F13D
:10B94000200106A00BF0C8F9002070BD05A0A96A6F
:10B9500012F01EF9012070BD38040020755F636687
:10B960006700000025640D0A0000000010B5044ABD
:10B9700004460146107800F033FC204610BD00005C
:10B980004800002010B504A012F002F972B600F0D1
:10B99000C5FA002010BD00004F4B0D0A000000004A
:10B9A000034810B5D0F868030DF0C5F8002010BDAD
:10B9B0003804002070B504460068A2680121904751
:10B9C0002069A8B110F0D2FC05460CE010F0CEFCC6
:10B9D000411BE069814202D96FF0010070BD401C3B
:10B9E000400810F0BFFA2169206888470028EDD090
:10B9F000204606F056FD002070BD00001FB50E4821
:10BA00000DC88DE80D00086803AA0CA1FCF7EEFC38
:10BA10000446012805D10A490398FDF75AF8002485
:10BA2000039008480399D0F86823684603F01CFB8C
:10BA300004B0204610BD00002CE801083D2566003A
:10BA400035FA8E3C38040020F8B508683D21FCF733
:10BA50006AFC1E4E05000CD000241DA012F098F8C0
:10BA60006A4620A1681CFCF7C1FCC0B2012810D0B6
:10BA700018E018A012F08CF80024301990F860102B
:10BA800029B119A012F084F8641C102CF5D3002001
:10BA9000F8BD30199DF8001080F8601012A012F067
:10BAA00077F8641C2C21681CFCF73DFC050001D0D4
:10BAB0000F2CD5D93119002081F8600003491C22D0
:10BAC00054310CA00BF008F9E1E700003804002025
:10BAD0006E6577207061636B6574206974656D7342
:10BAE0003A0D0A00255800005B3078253032585D49
:10BAF0000D0A0000735F696E746600002DE9F04363
:10BB00001C4E0546894656F8250085B09846818822
:10BB100041F003018180002401278DF800208DF879
:10BB20000170ADF80440ADF8024004948DF80C703B
:10BB300056F825008DF806400C30029069464846BC
:10BB4000FEF770F88DF800808DF80140ADF80440E4
:10BB5000ADF8024004948DF80C7056F825008DF86D
:10BB600006400C30029069464846FEF75BF805B087
:10BB7000BDE8F08300E4010870B504461C48012CC0
:10BB800002D0022C19D10CE0C26842F48052C2608B
:10BB9000C26822F48052C260826942F4805282619B
:10BBA0000BE0026942F480420261026922F48042A1
:10BBB0000261C26942F48042C2610E4D002055F814
:10BBC0002420108055F8242007201082204600F001
:10BBD00013F855F82400018841F45171018055F89B
:10BBE0002400818821F004018180002070BD0000C4
:10BBF0000010024000E401082DE9F04786B00D4630
:10BC00000646142225496846FCF769FBDFF88C904C
:10BC10004FF00008A9F10C092F4659F826000188B9
:10BC200021F0400101804446EA460120FFF7F2F985
:10BC30003AF81410B0FBF1F0854206D3291AB94244
:10BC400003D2471B00D50F46A046641C0A2CECD338
:10BC500059F826100A8822F038020A8059F826106E
:10BC60000B8808F0070243EAC2020A8059F826103E
:10BC70008A8822F480728A8059F826108B8808F00E
:10BC8000080243EA42128A8059F82600018841F0EE
:10BC90004001018006B0BDE8F08700000CE4010817
:10BCA00030B50F4D55F820301C8824F040041C801E
:10BCB00055F82040238811B143F0010101E023F041
:10BCC000010112B141F0020101E021F002012180E5
:10BCD00055F82000018841F04001018030BD00008E
:10BCE00000E401082DE9F05F1F4D04468B4655F82E
:10BCF0002400DDE90B760188DDF828809A4691461C
:10BD000021F040010180002241465846FDF7F6FE31
:10BD1000002239465846FDF7F1FE4A46414658464C
:10BD2000FDF75EFF524639465846FDF759FF324649
:10BD300041465846FDF746FF324639465846FDF71C
:10BD400041FF012241465846FDF7D8FE01223946FF
:10BD50005846FDF7D3FE55F82400018841F0400114
:10BD60000180BDE8F09F000000E40108014A516035
:10BD700010607047340000200B4910B54A6822F06B
:10BD8000030202434A604A6802F003028242FAD187
:10BD9000064C30B1012803D10320FFF73BF92060A6
:10BDA00010BD0420F9E70000001002400000002050
:10BDB00030B51C4CA56945F00105A56130B10128DD
:10BDC00008D002281DD0032808D11EE0A56945F03F
:10BDD000040502E0A56945F00805A561124D0F2490
:10BDE00043EA820255F82000082912D343688D00E7
:10BDF000203DAC4089002039A3438A401A43426069
:10BE000030BDA56945F01005E7E7A56945F02005B7
:10BE1000E3E7036889008C40A3438A401A43026029
:10BE200030BD000000100240E0E3010870B5064696
:10BE30000D460020FFF7A0FF204C606843F6F0712C
:10BE400088436060606840F410506060206820F0B3
:10BE50008070206060681A490840606060684FF434
:10BE6000003141EA06410843606026B3FDF7AEFFAA
:10BE700000281FD10320FFF7CDF84008B5FBF0F0F4
:10BE80006168104A52F82000014361600E48854203
:10BE900003D3606840F000406060206840F080702C
:10BEA000206020688001FCD50220FFF765FF07486D
:10BEB0000560002070BD0420DDE700000010024096
:10BEC000FFFFC01FB0E2010800A24A0400000020EA
:10BED00010B50EF079FD10F04FFABDE810400EF0ED
:10BEE0008BBD000000B54FF0E020042101616FF030
:10BEF0007F4141610220FFF78DF8064A0449B0FBFB
:10BF0000F2F04FF47A7208605043486000BD0000C0
:10BF10002000002040420F0070470000BFF34F8F09
:10BF200004480168044A01F4E06111430160BFF371
:10BF30004F8FFEE70CED00E00400FA0570B50446F3
:10BF400035481546062C29D2DFE804F02803101CDA
:10BF50004B57C16841F40061C160C16821F40061C0
:10BF6000C160816941F40061816117E0016941F0BC
:10BF700001010161016921F001010161C16941F023
:10BF800001010AE0016941F002010161016921F04A
:10BF900002010161C16941F00201C1611F4E4FF40C
:10BFA000806056F8241008800120FFF733F8410024
:10BFB0001B48022C2DD0052C2BD01A4A0260B1FB55
:10BFC000F2F056F82410401E088556F82400C56289
:10BFD00056F82410002008822046BDE8704000F08A
:10BFE00041B8016941F004010161016921F00401D6
:10BFF0000161C16941F00401CFE7016941F0080125
:10C000000161016921F008010161C16941F0080184
:10C01000C3E7054AD2E700000010024028E4010807
:10C0200044000020A086010040420F000C4910B5DA
:10C030000956012301F01F04A3404909890001F1B9
:10C04000E021C1F800310649083151F8200081890A
:10C0500012B141F0010101E021F00101818110BD27
:10C0600020E40108034951F82000018841F0010152
:10C070000180704728E4010810B50EF0A5FC0748C0
:10C08000018821F01001018005484FF40071C26958
:10C090009047BDE810400EF0AFBC00001004004017
:10C0A000080F002010B503F0B1FC282010BD0000DF
:10C0B0000C4B10B553F82020948924F4005494813B
:10C0C000002953F820108A8A02D042F0400201E091
:10C0D00022F040028A8253F82000818941F4005105
:10C0E000818110BD44E401080C4B10B553F82020A9
:10C0F000948924F400549481002953F820108A8AEA
:10C1000002D042F0800201E022F080028A8253F8DD
:10C110002000818941F40051818110BD44E401086F
:10C12000054A52F820000288920603D580880870DC
:10C13000002070470120704744E4010870B50400F6
:10C140002CD0214A012C04D0022C0FD0032C25D155
:10C1500018E0D06840F48040D060D06820F480407F
:10C16000D060906940F48040906117E0106940F41D
:10C1700000301061106920F400301061D06940F483
:10C1800000300AE0106940F480201061106920F44A
:10C1900080201061D06940F48020D061204600F0FA
:10C1A0002BF80A4942F20C0051F824108881084DFE
:10C1B000287838B10748084904700848FFF7D6FDC9
:10C1C00000202870002070BD0010024044E40108E7
:10C1D0003C00002048000020D1B000086DB90008E4
:10C1E000044A52F82030998052F82000018849060C
:10C1F000FCD5704744E4010870B505460C460120A3
:10C20000FEF708FF164951F825209189090400EB33
:10C21000C00101EB001001D5610000E0A100B0FBFE
:10C22000F1F06423B0FBF3F109010C096FF018057C
:10C230006C4300EB8400948925044FF0320406D54A
:10C2400004EBC000B0FBF3F000F0070005E004EBE6
:10C250000010B0FBF3F000F00F000843108170BD38
:10C2600044E4010830B5214B01241B5603F01F059F
:10C27000AC405B099B0003F1E023C3F800411B4B7A
:10C280001B1D53F82040A58925F40055A58179B1DF
:10C29000012902D0022921D115E053F82010002AEB
:10C2A0008A8902D042F0200217E022F0200214E036
:10C2B00053F82010002A8A8902D042F040020CE094
:10C2C00022F0400209E053F82010002A8A8902D0A7
:10C2D00042F0100201E022F010028A8153F820009F
:10C2E000818941F400518181002030BD40E4010882
:10C2F00030B50D46086891B036A10FF0DBFC374C25
:10C30000C0B10FA80EA9CDE905100DAA0CABCDE95F
:10C31000033209AA00920BA80AA9CDE9011008ABC3
:10C3200007AA2FA12868FCF761F8092809D0012085
:10C3300011B030BDD4F8F80204F53E7404F0CAFD23
:10C3400038E00022D4F8F802079B114604F53E7449
:10C350000AF094FF089B0122002120680AF08EFF5A
:10C36000099B0222002120680AF088FF0A9B002214
:10C37000012120680AF082FF01220B9B11462068F0
:10C380000AF07CFF0C9B0222012120680AF076FF54
:10C390000D9B0022022120680AF070FF0E9B0122F3
:10C3A000022120680AF06AFF02220F9B11462068D2
:10C3B0000AF064FF11A0216803F0C0FE20680AF0B3
:10C3C00043FF8200206841680EA00AF085FC00202F
:10C3D000AEE700003D5245534554000038040020AC
:10C3E0003D25662C25662C25662C25662C25662C7D
:10C3F00025662C25662C25662C2566006D61746CDF
:10C400006162000075726672000000007CB50EF07B
:10C41000DBFA1E4800888DF800009DF800001C4DD6
:10C42000800603D5012128460EF050F89DF8000043
:10C430000107184802D501888DF804109DF80010F6
:10C44000490605D5134908310A8822F040020A80BE
:10C450009DF80010C90614D500888DF804000C4C16
:10C460000120C43C94F82C10FDF75EFB216A091AE8
:10C47000606A61620A1A032000EB022128460EF06E
:10C4800025F8BDE87C400EF0B7BA00000038014046
:10C490000C0E0020043801407CB50EF095FA1D48C2
:10C4A00000888DF800009DF800001B4D800603D524
:10C4B000012128460EF00AF89DF8000001071748F0
:10C4C00002D501888DF804109DF80010490605D5A5
:10C4D000124908310A8822F040020A809DF80010B3
:10C4E000C90613D500888DF804000D4C012094F87E
:10C4F0004810FDF719FBE16B091A206C21640A1A38
:10C50000032000EB022128460DF0E0FFBDE87C404F
:10C510000EF072BA00440040600E00200444004057
:10C52000480D002010B50EF04FFA0648008880062E
:10C5300003D5012104480DF0C9FFBDE810400EF0FD
:10C540005BBA000000480040B40E00200FB4054B59
:10C5500010B503A9044A029801F0DCF810BC5DF89C
:10C5600014FB00006D200108400000207CB504464B
:10C5700000201D46164600290BD0491ECDE900417A
:10C58000044B6A462946304601F0C4F8009A00215F
:10C5900011707CBD6DE00008490050EAC12018BF51
:10C5A00004204A0D18BF40F0010040F2FF72B2EBC8
:10C5B000515F08BF40F00200012808BF0520704706
:10C5C0004100080218BF04200A0E18BF40F0010005
:10C5D0004FF07F4232EA010108BF40F0020001281B
:10C5E00008BF052070470000004870473004002055
:10C5F0002DE9F0414F1E00EBC7010446D1E90001CF
:10C6000015461E4637F006020DD02A463346FCF783
:10C6100083FB7F1E04EBC703D3E90023FCF7D5FAA5
:10C6200037F00602F1D1022F25D0042F13D0062FA8
:10C6300018BFBDE8F0812A463346FCF76DFBD4E90C
:10C640000A23FCF7C2FA2A463346FCF765FBD4E915
:10C650000823FCF7BAFA2A463346FCF75DFBD4E917
:10C660000623FCF7B2FA2A463346FCF755FBD4E919
:10C670000423FCF7AAFA2A463346FCF74DFBD4E91B
:10C680000223FCF7A2FA2A463346FCF745FBD4E91D
:10C690000023BDE8F041FCF798BA000000221346E1
:10C6A00010460149FCF7AABB0000F03F0122FCF74D
:10C6B00014BCFCF78ABA0022134610461146FCF758
:10C6C0009DBB40F2013200204FF0E041FCF705BC79
:10C6D000024A00201107FCF700BC000001FDFFFF2B
:10C6E0000121FCF766BAFCF79CB900210846FCF76B
:10C6F00022BA6FF05E010807FCF75BBA2DE9F04D36
:10C700000D4614464FF07F41B1EB440F9EBF4FF0F2
:10C71000FF312960BDE8F08D4FF0004040EA042170
:10C72000C4F3C750783810F01F024A4B4FEA601C20
:10C73000C2F120067B44C4F3C750A0F178004FEA51
:10C74000601003EB800053F82C3008BFD0E901C61D
:10C7500012D0D0F804C093402CFA06F73B43876808
:10C760000CFA02FC27FA06F8C06807FA02F2F04059
:10C770004CEA080C42EA0006A3FB0132ACFB01C004
:10C78000A6FB016101EB0C068E4234BF4FF0010C99
:10C790004FF0000CC1186144BCF1000F02D081427F
:10C7A00002D903E0814201D2012000E000201044C0
:10C7B00000F120024FEA92188006CA0C40EA42308B
:10C7C0004F03C5F80080FCF79FFB82463846FCF714
:10C7D000A4FB6FF01201FCF7ECF907463046FCF7BA
:10C7E0009CFB6FF02501FCF7E4F98346394650467F
:10C7F000FCF717F95946FCF714F900F500666FF3DA
:10C800000B0651463046FCF75EF93946FCF75BF9FA
:10C810005946FCF75BF91049FCF75BF907460F49ED
:10C820003046FCF756F93946FCF7FBF807460C4949
:10C830003046FCF74EF93946FCF7F3F814F0004F98
:10C8400008BFBDE8F08DC8F1805180F0004029603C
:10C85000BDE8F08DE8220100DB0FC92F22AAFD29D7
:10C860000000C92F002807D00E4910F0FF0F04D098
:10C8700051FA80F00078401C704710F47F4F04D0CC
:10C88000C0F30720085C0930704710F47F0F04D014
:10C89000C0F30740085C1130704701EB106000786E
:10C8A0001930704754E4010802E008C8121F08C19B
:10C8B000002AFAD170477047002001E001C1121F21
:10C8C000002AFBD170470000014908607047000052
:10C8D000300400202DE9F0410546B0F9FA03454C3B
:10C8E0008AB0072878DD444E3168002974D0716819
:10C8F000884271D00027414837600690B5F8FA2386
:10C9000008A907A88DE8070003AB06A906F11400E3
:10C91000F26805F0F7FA30B104F53B78052806D047
:10C920000D284FD117E028460CF0CEFB4AE0D4F892
:10C93000BC130698FCF776FB44D2032203A94046B9
:10C9400011F079FAD4F8E802F1680AF03DFC05200C
:10C9500084F8B20336E0D4F8BC130698FCF762FB07
:10C9600030D2032203A9404611F065FAD4F8E80258
:10C9700004F56574F1680AF027FC0698A06208982F
:10C980002062079860620D20A077607F401C60776E
:10C99000B068A4F56574A8B11022194919A00AF06D
:10C9A0009BF90C22414619A00AF096F9D4F8E80246
:10C9B0000AF04AFC8200D4F8E802416815A00AF0A7
:10C9C0008BF9B760B5F9FA0370600FF0CFFC4FF444
:10C9D0007A71B0FBF1F0306194F8B203002806D010
:10C9E0000E49D4F8BC03FCF71CF8C4F8BC030AB029
:10C9F000BDE8F08138040020F80300200000C642A2
:10CA0000E80700206D616763000000006D61675FEB
:10CA1000620000006D61675F6D69730053046937E0
:10CA20002DE9FF4F002583B01F46834606882C461C
:10CA300031E06A462146584605F0C6FB03226846A7
:10CA4000059911F00AFB694604980AF076FE3868E9
:10CA50000146FCF73EF8029982460846FCF739F891
:10CA6000019981460846FCF734F80099804608464B
:10CA7000FCF72FF84146FBF7D4FF4946FBF7D1FFFF
:10CA80005146FCF720F80146FCF723F82946FBF74E
:10CA9000C8FF0546641CB442CBDB3046FCF734FAD1
:10CAA00001462846FCF747F8FCF774FA10F070F9D5
:10CAB000044638680D460146FCF70BF80121FCF7E7
:10CAC00078F801464FF07E50FCF735F8FCF762FA33
:10CAD00022462B46FCF720F907B0BDE8F04FFCF7E3
:10CAE00085BA000070B505464FF0FF310D480EF0D5
:10CAF00083FA68882C6A022804F1040120680DD0AA
:10CB000008F072FC054620460DF0D8FA05480EF0F4
:10CB100023FA2846BDE8704000F0DCBC07F0D4F8EA
:10CB2000F0E700006011002010B504464FF0FF311F
:10CB300007480EF061FA216A01C908F076FF044641
:10CB400003480EF009FA2046BDE8104000F0C2BCD0
:10CB5000601100202DE9F04F8B468146C3B014468A
:10CB60004FF0FF3134480EF047FA4FF4827AB4FBAD
:10CB7000FAF000EB80108000D9F820605FEA00082E
:10CB80000FD002A80025429005EB85110BEB810424
:10CB90006A46311D306808F03FFA0746012834D153
:10CBA00007E025480EF0D8F96FF0040043B0BDE867
:10CBB000F08F9DF8080040B320A142980FF07AF85A
:10CBC0000028E1D01EA142980FF074F80028DBD0B5
:10CBD000002020709DF80000012801D0022800D11B
:10CBE000207042980FF084F86070A4F802A0429878
:10CBF0000FF07EF8421C201D42990FF091F86D1C39
:10CC000005EB8511B8EB810FBED875B1D9F81C00C2
:10CC100005EB851100EB81010748C9F81C100EF0E7
:10CC20009BF905EB85108000C0E703480EF094F9EE
:10CC3000384600F04FFCB9E7601100202E000000DC
:10CC40002E2E00006FF02C007047000070B50E46CD
:10CC500005464FF0FF3114480EF0CEF968882C6A73
:10CC600010B102280AD01AE000233246211D2068A4
:10CC700008F0B6FE060008D4A06B0FE03246211D76
:10CC8000206808F01BFA060007D507480EF064F983
:10CC90003046BDE8704000F01DBCE06AE861024823
:10CCA0000EF05AF9E86970BD601100202DE9F047D7
:10CCB00005006FF004040CD0E1103B480EF09CF925
:10CCC000287D032808D038480EF046F937A00DF02B
:10CCD000EBFE2046BDE8F087284600F07BFB0446CB
:10CCE0003B4E401C4FF000090CD0B04656F8246073
:10CCF00030460AF031F8070037D02B480EF02CF9F7
:10CD000038464CE0002000F065FB0746401C18D078
:10CD1000C0200DF037FF04001CD0C02200210DF010
:10CD2000D4FF294604F17800054600F0B3FB2946FC
:10CD3000204608F0B1FF04461B480EF00DF92046CE
:10CD40002DE019480EF008F922A00DF0ADFE6FF0AD
:10CD50002200BFE746F8279013480EF0FDF827A001
:10CD60000DF0A2FE6FF00500B4E748F8249006F13C
:10CD700078018946304608F08FFF0700BDD129466B
:10CD8000484600F087FB4946304609F087FC05001D
:10CD900001D148F8246004480EF0DEF82846BDE8CA
:10CDA000F04700F097BB0000601100205468652038
:10CDB000666C617368206465766963652074797058
:10CDC00065206D757374206265204D5444210A00FE
:10CDD00080030020736F7272792C2074686572650D
:10CDE000206973206E6F20737061636520746F20FB
:10CDF000646F206D6B6673210A0000004552524F2C
:10CE0000523A6E6F206D656D6F7279210A000000D5
:10CE10002DE9F04106460068007D032806D023A0D6
:10CE20000DF042FE6FF00400BDE8F0814FF0FF31DD
:10CE300027480EF0E1F8002000F0CCFA0546401C2F
:10CE40006FF00B071BD0C0200DF09CFE04001AD021
:10CE5000C02200210DF039FF04F1780080463168CE
:10CE600000F018FB4146204609F018FCA0B1184814
:10CE70000EF072F820460DF021F93846D4E7144838
:10CE80000EF06AF8F9E712480EF066F811A00DF0FE
:10CE90000BFE6FF00500C7E71348F46040F825402B
:10CEA0000B480EF059F80020BEE7000054686520DA
:10CEB000666C617368206465766963652074797057
:10CEC00065206D757374206265204D5444210A00FD
:10CED000601100204552524F523A6E6F206D656DC1
:10CEE0006F7279210A000000800300202DE9F041D3
:10CEF00005460024611E40480EF07EF8286A6FF057
:10CF00000508C7686869C0034FF0580028D50DF0C0
:10CF100039FE04000ED0582200210DF0D6FE276005
:10CF2000287D40060BD53846696809F00BFB0600E2
:10CF30000CD104E031A00DF0B7FD464609E06A6867
:10CF4000211D206808F020F8060007D020460DF0CB
:10CF5000B5F829480EF000F830463DE02C6244E078
:10CF60000DF010FE060008D0582200210DF0ADFE95
:10CF700037606869810705D005E020A00DF094FDB9
:10CF8000444625E0012400F00301012901D144F0C9
:10CF90000204022901D144F00304410601D544F4FE
:10CFA0008074010601D544F40074810501D544F470
:10CFB0008064400501D544F400642346311D3846A1
:10CFC0006A6808F0BBFA04000AD030460DF076F823
:10CFD00009480DF0C1FF2046BDE8F04100F07ABAE3
:10CFE0002E62B06BE861306BA86103480DF0B4FFAE
:10CFF0000020BDE8F0810000601100204552524F32
:10D00000523A6E6F206D656D6F7279210A000000D3
:10D010002DE9F0410F46054616464FF0FF31124804
:10D020000DF0EAFF6888022810D02C6A33463A4691
:10D03000211D206808F0BEFB06000ED50A480DF041
:10D040008BFF3046BDE8F04100F044BA06480DF0D1
:10D0500083FF6FF01B00BDE8F081A06BE861024820
:10D060000DF07AFF3046F6E76011002070B50E46ED
:10D07000044615464FF0FF3108480DF0BDFF2A4623
:10D080003146E06809F03AFD044604480DF064FFBB
:10D090002046BDE8704000F01DBA0000601100207D
:10D0A00070B50E460546C2B014464FF0FF31154824
:10D0B0000DF0A2FF6A463146E86809F023FE0546F6
:10D0C00010480DF049FF25B1284600F003FA42B0A0
:10D0D00070BD40212046FBF71BF90020206001981D
:10D0E000606140F2FF10E0809DF80000012804D04C
:10D0F000022805D144F2FF1001E048F2FF10E08061
:10D100000020E4E760110020F8B50D460021044638
:10D110000091491E0F480DF06FFFE4686A460E4902
:10D12000204609F079F8060006D00A480DF014FFF1
:10D13000304600F0CFF9F8BD54F8940F28606068CD
:10D14000686060680099401AA86002480DF004FF0A
:10D150000020F8BD601100205DD100080168491C65
:10D16000016000207047000070B50D4604464FF086
:10D17000FF3108480DF040FF2946E06809F052FCF5
:10D18000044604480DF0E8FE2046BDE8704000F07B
:10D19000A1B900006011002070B504464FF0FF31C6
:10D1A00011480DF029FF206800F014F9411C14D03B
:10D1B0000E4A002142F82010E568E160284609F097
:10D1C000CBFD044608480DF0C7FE28460CF076FF5C
:10D1D0002046BDE8704000F07DB903480DF0BCFE6C
:10D1E0006FF0080070BD0000601100208003002077
:10D1F0002DE9F0410F46054616464FF0FF31134822
:10D200000DF0FAFE6888022810D02C6A33463A46A0
:10D21000211D206808F06EFC06000ED50B480DF0AD
:10D220009BFE3046BDE8F04100F054B907480DF0D0
:10D2300093FE6FF01B00BDE8F081A06BE861206BEE
:10D24000A86102480DF088FE3046F4E76011002026
:10D250002DE9FF5F82B00021DDE90430020DDDF829
:10D2600040B0034318D044F61050A2F2FF324243BC
:10D270001514119801281FD0A5EB0B00401C5FEA84
:10D28000000A4FF000064E4FDFF83891B046504686
:10D2900015D5CAF1000413E0119801244AA301280E
:10D2A00001D16FEA0B010298119AC0E90031C0E97F
:10D2B000024206B0BDE8F09FCBF10000DFE7044674
:10D2C0000021404A491842EB0450CDE9001012E019
:10D2D000E00707D032463B4640464946FBF71CFD77
:10D2E0008046894632463B4610461946FBF714FDF8
:10D2F00006460F466410002CEAD1DDE90401DDE9A1
:10D300000023BAF1000F06DAFBF706FD42464B4652
:10D31000FBF702FD05E0FBF771FD42464B46FBF7CC
:10D320006DFD04460E460022284BFCF7CDF803D8CD
:10D330004FF0FF30014607E00022254B20463146E2
:10D34000FBF743FCFCF7A7F8102409E0002C0ADBEC
:10D350000A220023FAF792FF039B30321A55641E0B
:10D3600050EA0102F2D1641C039AC4F1110314447F
:10D37000119A012A03D0012208430DD10AE0084383
:10D3800004D000204FF0110B119072E7A3EB0B05B6
:10D390006D1E0DE05B4504DD4FF0000205F1010557
:10D3A00004E003DA4FF00002A5F10105002AECD0F9
:10D3B00002981199C0E90231C0E9004579E70000FF
:10D3C000000014400000F03F300000000000F04377
:10D3D0000000E03F03000C4A4FF0000007D152F874
:10D3E000201000290ED0401C0128F8DB08E052F87C
:10D3F000201011B1896F994204D0401C0128F6DB3E
:10D400004FF0FF30704700008003002003480168A0
:10D41000814201D001207047002070472801002080
:10D4200030380A2801D2012070470020704710B51B
:10D430000A46006812210CF016FC002801D06FF09B
:10D44000040010BD70B50468C0691E4601FB0021D0
:10D45000049D32462B4620460CF0DDFCA84202D04B
:10D460006FF0040070BD002070BD70B50468C06925
:10D470001E4601FB0021049D32462B4620460CF03F
:10D4800099FCA84202D06FF0040070BD002070BD6E
:10D490000020704701600821416181610902C1617A
:10D4A000402181624FF0FF31416210210162202151
:10D4B000C16204494160044981600449C160044972
:10D4C000016170476BD4000845D400082FD40008D0
:10D4D00091D4000801460020431F10B5DA1F11F156
:10D4E000110F2DD017DC6FF01B0011F1160F30D08B
:10D4F0000ADC11F1540F31D011F1270F26D08142EF
:10D500001AD16FF0220010BD11F1150FFBD011F1EF
:10D51000140F11D117E06FF0080499420CD006DC0B
:10D52000914218D0A14207D16FF00F0010BD11F148
:10D53000020F03D00029F9D0104610BD204610BDBF
:10D540006FF0170010BD6FF01A0010BD6FF02D00C6
:10D5500010BD184610BD6FF0050010BD6FF0330010
:10D5600010BD00002DE9FC41064628A401462046D6
:10D570000AF052F907460146224626480DF094FA71
:10D5800038460AF065F924A00DF08EFA356838E0C7
:10D5900095F82900A5F10C0400902346082239468D
:10D5A0002DA00DF081FA94F8340000F00F0001284E
:10D5B00005D0022805D030B1042806D008E029A003
:10D5C00004E02BA002E02DA000E02FA00DF06CFAEB
:10D5D000A06A014600E0401C0278232AFBD0E26AE0
:10D5E00064231144081A5843B0FBF2F3D4F830C056
:10D5F000A06CCDE9000CE069091A26A00DF054FAE0
:10D600002D68B542C4D10020BDE8FC817468726504
:10D6100061640000ACEB0108202D2D2D20202D2D64
:10D620002D2D2D2D2D202D2D2D2D2D2D2D2D2D2D37
:10D63000202D2D2D2D2D2D2D2D2D2D20202D2D2D41
:10D640002D2D2D20202D2D2D2D2D2D2D2D2D2D2031
:10D650002D2D2D0A00000000252D2A2E2A732025AD
:10D66000336420002072656164792020000000008E
:10D670002073757370656E640000000020696E6928
:10D68000742020200000000020636C6F7365202050
:10D6900000000000203078253038782030782530A0
:10D6A0003878202020202530326425252020203085
:10D6B000782530387820253033640A0010B53AB127
:10D6C00054881188026C136822469847002010BDC8
:10D6D0004FF0FF3010BD70B51D46140001D0042D71
:10D6E00001D0002070BD026C218892689047608054
:10D6F000284670BD70B51C460AB1042C01D000202C
:10D7000070BD55881188026C53682A469847204698
:10D7100070BD00002DE9FF4F95B09B468946064637
:10D7200000250FE2252877D100242746F84A012159
:10D73000059400E0044316F8013F203B01FA03F092
:10D740001042F7D130782A2811D06FF02F033078AB
:10D75000A0F13002092A16D8059A44F0020402EB1F
:10D76000820203EB42021044761C0590EFE759F861
:10D77000042B0592002A03DA504244F40054059029
:10D7800044F00204761C30782E2816D116F8010FCA
:10D7900044F004042A280DD06FF02F023078A0F155
:10D7A0003003092B09D807EB870302EB4303C718A3
:10D7B000761CF3E759F8047B761C30786C280FD080
:10D7C00006DC4C2817D068280DD06A2814D104E054
:10D7D000742810D07A280FD10DE044F400140AE028
:10D7E00044F4801401E044F440147278824202D17F
:10D7F00004F58014761C761C307866280BD013DC78
:10D80000582877D009DC002875D04528F6D046285E
:10D81000F4D047281AD19DE118E0632835D0642858
:10D8200079D0652812D195E1702873D008DC67287B
:10D83000F1D069286FD06E280DD06F2806D1B5E0E1
:10D8400073282CD0752875D0782874D05A4617992B
:10D8500090476D1C75E1C4F30250022809D00328DB
:10D860000DD0D9F8001004280DD00D6009F104097D
:10D8700067E1D9F80010EA17C1E90052F6E7D9F8D4
:10D8800000100D80F2E70D70F0E719F8041B8DF819
:10D89000001000208DF80100EA46012003E059F84D
:10D8A00004AB4FF0FF3061074FF0000102D40DE0F0
:10D8B00008F101018846B9420FDA8045F8DB1AF811
:10D8C00008100029F4D108E008F1010188468142DE
:10D8D000FADB1AF808100029F6D105985B46A0EB90
:10D8E000080721463846179A00F094FA284400EBBE
:10D8F000080507E04DE029E10DE01AF8010B5A4652
:10D9000017999047B8F10108F7D25B46214638468F
:10D91000179A13E142E00A220092C4F302524FF038
:10D92000000A022A08D059F804CB032A4FEAEC7106
:10D930000AD00DE029E02AE009F1070121F00702F1
:10D94000F2E802C1914609E00FFA8CFC4FEAEC7153
:10D95000042A03D14FFA8CFC4FEAEC71002907DA54
:10D960000A460021DCF1000C61EB02012D2202E0ED
:10D97000220504D52B228DF80420012203E0E207C2
:10D9800001D02022F7E7904659E00A2102E0102258
:10D990000DE010214FF0000A00910BE010224FF033
:10D9A000000A44F004040827009203E008224FF024
:10D9B000000A0092C4F30252022A05D059F804CB9F
:10D9C0000021032A08D009E009F1070121F007022C
:10D9D000F2E802C1914605E01FFA8CFC042A01D14D
:10D9E0000CF0FF0C4FF00008220728D5702806D055
:10D9F000009B83F0100353EA0A0305D00EE0402297
:10DA00008DF80420012208E05CEA010206D03022F1
:10DA10008DF804208DF8050002229046009B83F0CB
:10DA2000080353EA0A030AD15CEA010201D1620742
:10DA300005D530228DF804204FF001087F1E5828AC
:10DA400004D034A003900EA802900DE036A0F9E7B0
:10DA500053466046009AFAF711FC84460398825CAC
:10DA60000298401E029002705CEA0100F0D1029818
:10DA700006A9081A00F1200A600702D524F48034B0
:10DA800000E00127574502DDA7EB0A0000E0002077
:10DA900000EB0A01009005984144401A0590E0030C
:10DAA00006D45B462146179A059800F0B3F9054461
:10DAB000002706E001A85A46C05D179990476D1CE3
:10DAC0007F1C4745F6DBE0030CD55B462146179AE1
:10DAD000059800F09FF9054404E030205A46179954
