:2000000020FFFF1F1D010000F9020000990A000000000000000000000000000000000000E7
:200020000000000000000000000000002901000000000000000000002B010000A9010000C0
:200040002F0100002F0100002F0100002F0100002F0100002F0100002F0100002F01000020
:200060002F0100002F0100002F0100002F0100002F0100002F0100002F0100002F01000000
:200080002F0100002F0100002F0100002F0100002F0100002F0100002F0100002F010000E0
:2000A0002F0100002F0100002F0100002F0100002F0100002F0100002F0100002F010000C0
:2000C0000348854600F076F9004800478301000020FFFF1F0E480021016001200C4A000408
:2000E000C03A50600B4806220270427840231A404270A022C270084B80221A7001714171A9
:200100008179C906FCD581790907890FFBD17047008104400040064000500640044880472C
:2001200004480047FEE7FEE7FEE7FEE7FEE7FEE7D5000000C100000010B5002000F024FA45
:20014000002000F0BDF810BD38B5224C04E02078002801D000F09CFC6946002000F058F9A5
:200160000128F4D06846007838BD70B50D46044604E020781849641C00F0DCFD6D1EF8D23A
:2001800070BD00F074F80A2000F072F8134800F086F8012000F094F8E1214902104800F057
:2001A000BDF900F0F7FBFCE710B50A4C606803280CDD00F0EBFB002808D100F05EFC002884
:2001C00004D0002000F07CF8012020706068401C606010BD04F8FF1F20F8FF1FA0860100EE
:2001E0008082000010B501464548464C0068022900D1626801290AD16168090F491C00F069
:200200008DF861684903490F491C00F087F810BD70B50C233C4D4343EC585B1926685B68DF
:200220003C351E43266084002B598800195807263602B143195029590B585207520D1343B0
:200240000B5070BD10B5314801690422114301612F4941610020FFF7C5FF2E4C2E4900F0BD
:200260005DF87D21C90020604843606010BDE9E708B52849254A496851611169052319435C
:2002800011610021916107E013690093DB0702D0009BDB03F8D5491C8142F5D308BD1D49CE
:2002A0001B4A096848431949904201D94A6100E04861002088610869052210430861704787
:2002C000124902220028086901D0104300E09043086170470F4A083251601060704710B5DF
:2002E0000C49044608310868002802D00968E0B28847204610BD704710B5FFF7FCFF10BD7D
:2003000000F8FF1F408004403C0D000000E000E0FFFFFF000CF8FF1F40420F0030B50B46D4
:20032000014600202022012409E00D46D5409D4205D31D469540491B254695404019154657
:20034000521E002DF1DC30BD0EB5C217C10F5040CA0740180021054B0293019200910A46A7
:200360000B4600F052FC03B000BD0000330400000EB505490291002100910A460B460191BE
:2003800000F043FC03B000BD3304000010B5002904DB0124E40740428C412146002B04DBEA
:2003A0001C460123DB075242A3418B4200D1824210BD0000064C0125064E05E0E36807CC5F
:2003C0002B430C3C98471034B442F7D3FFF77CFED40D0000F40D000010B5202A04DB0146FD
:2003E000203A9140002010BD914020239C1A0346E3401943904010BD7047000000000000FF
:20040000FFFFFFFFFFFFFFFFFFFFFFFFFFFFFFFF704A800010580279920603D5C0790870AE
:20042000002070470179090703D5017908221143017101207047674A800010580279120615
:20044000FCD5C171704710B5002803D00120FFF7C9FE10BD0220FFF7C5FE5F494A6803231C
:200460009B069A434A604A6801239B061A434A605A4A52795A4B52064A6803D51A434A60D9
:20048000400810BD9A434A6010BDF0B50E46514A810085B05558FFF7D6FF0190E878F3212C
:2004A0000840E87005243046FFF762FF4D4A4E4B00F036FB07460391314661430198FFF7CA
:2004C0002DFF2146414300900198FFF727FF024603990291801B00D5B01AFFF735FF3A4665
:2004E000029BFFF753FF02D3641C202CE4D3641EE0063E49C00E8872287840094001287046
:2005000028780099C904C90E0843287000986870E8780C210843E87005B0F0BD73B5009859
:200520000C224607760F3046314C504322580019136840686D460343136000984007400FE5
:20054000FFF7A3FF002409E0C1054A0F8104C90E80060919400FFFF75BFE641C28684103E1
:20056000C90EA142F0DC234C2078002808D019482149001F06702148FFF7ACFE00202070D5
:2005800028784007400F7CBD01B5009811494007C00E08580021017041708170C170817178
:2005A0000172084608BD08B50A4B1B1F69461878FFF72EFF0028F9D16846007808BD054ADB
:2005C00000B503460146121F1078FFF734FF184600BD000028F8FF1F008004400040064051
:2005E00000000100B81E85EB51B89E3F00A00640900D00001CF8FF1FA7050000BF050000A9
:20060000F0B503880026FB4F0CE08C5D2402634000255C001B0400D57C406D1C2346082D44
:20062000F7D3761C9642F0D30380F0BD18B50446002069460880214604226846FFF7E0FF15
:200640002146083162886846FFF7DAFF6946088818BDF1B582B0E8480190E74F0020143F3D
:200660000090387A0025002804D03D720221E348FFF77BFDFFF768FDE14CDF4E22685A21F2
:20068000083E130000F03BFB05040A1B2D3741005A284FD13170012020604BE0A62805D056
:2006A000029A904209D17270022022E0D3480A211430FFF75AFD25603CE021603AE0616810
:2006C0007218491C90706160022933D3032021C4C94820304188801C20292BD9202101805C
:2006E00028E061687218491C10716160022921D3042021C41EE0019A61685054491C6160A4
:200700007088884216D8256002E00098002811D0B9480838FFF78AFFB188884203D1012069
:2007200038720020FEBDB5480221801CFFF71DFD0120FEBD0F20FEBD70B5AF4C0025143C0D
:20074000207A002804D025720221AC48FFF70DFD607A002805D0A94865720221001DFFF780
:2007600004FDA54D5A2020352E463070A4207070E87A8400241D284674800835FFF756FFEE
:20078000B08006213046FFF7F0FC21462846FFF7ECFCFFF7D9FC0446FFF7D6FC5A2C01D1C2
:2007A000A12801D0012070BD002070BD70B5924BA722083B184628300272012100224272D4
:2007C000C172C260DD680C4608302B0000F097FA122C0A0C0E10132C162C2C2C181A0C249C
:2007E00026290E2C874A01E0846020E082601EE001221204FAE701229202F7E70F22F5E73E
:200800002022F3E782607B4A0421223AC260CA0602617D4A42610AE07C4AE7E7012292039F
:20082000E4E77B4A526AE1E77A4A00214260491CC170FFF781FF70BD6F4AA0232032137291
:200840000023537293720223D372D160106173E770B50024704D7020287072B628466849D0
:200860004969884762B62878810601D5672406E0C10601D5682402E0C00700D069242046DC
:2008800070BD0246012003039A4202D35118994200D20020704770B50D460446FFF74CFC1E
:2008A0005748C56084F3088884F309880561846001205A4900038860A84700BF70BDF1B5EB
:2008C0004D4E4D48314648310838CC68408882B0002C54D0844200D82046009046480425EF
:2008E0004830876800208446009CB807800F01D0652007E021463846FFF7C3FF00281FD1CB
:200900004448643884461DE0AC4207D231462046FF2201E00A54401CA842FBD33E484760A3
:2009200002CE81600621C171FFF792FF8446002808D17F19AC4201D9284600E02046241A09
:20094000002CE1D160460122002809D02A49002414394A720C7200F0D3F80298047013E015
:20096000254900984831CB68181AC8608C68009BE3188B60002802D00298027004E0029971
:200980000020087000F0BCF80020FEBD1A48483040787047184D08B500274835684607700C
:2009A0002946164ABC396F703846921D135C0B70401C491C0E28F9D30F48114973380E4C04
:2009C00001264861287800282AD0A520FFF741FE0028F7D16E702878002823D00128F1D117
:2009E0006846FFF76CFF69460978491E0843E9D02F70E7E721100000C0F8FF1FB40D000018
:200A000034F8FF1F0003014BFF0300200000FF1F008004403C2800000000024000ED00E0C6
:200A2000A420D3E72078801E030000F068F90A0A060D0606070617062006C3E7FFF7B6FED7
:200A4000C0E700F033F8BDE76068A860A068E86000210420FFF7F0FE2E70B3E70021092065
:200A6000FFF7EAFE6168E068FFF715FFAAE700210B20FFF7E1FE00F011F8012109034868F4
:200A8000401A2149884201D300207047012070470121090303C9FEE600F000F8BFF34F8FEF
:200AA0001B491A48C860BFF34F8FFEE7F8B519480769C56839462846FFF7E3FE00280CD060
:200AC000AC0AA402291B0126C919B6028919491E0020890A0D02104F0BE010490CE07C607F
:200AE0000920F871FFF7B4FE002804D1A419FF3D013D002DF3D101460220FFF79DFEF8BDE8
:200B00000146042098E6000001F000000400FA0500ED00E0B8F8FF1F00000240D82700001C
:200B2000F0B51FB488B00B990998002448400999C00F490049080991C0070B99009049002B
:200B400049080B9109990898A64608431CD00B990A98084318D0099801244000420D48002D
:200B6000410D099824050003000B204309900B980003000B20430B9050181C49401800225D
:200B800001901446104605E0002001460DB0F0BD032801DA034600E003239C46C11A0AAE94
:200BA0000AE05F0008ADED5B4F00F75B7D430027AA187C41491C5B1E6145F2DD410004ABA5
:200BC0005A522104120C0A43240C401C0828DFDB019802900099704601910090059B049A89
:200BE0000799069800F011F8D0E700000DFCFFFF10B5002B08DA0024401C614192185B41C6
:200C00001A4301D14008400010BDF0B51FB482B005460C0003D0084600F05AF802E000F01A
:200C200057F820300246009021462846FFF7D4FB049B059A04460F4618431143084314D0E8
:200C4000184610431BD0009840210A1A1846059900F02DF805460E46009A05990498FFF761
:200C6000BBFB084305D0012004E02046394607B0F0BD0020C11705430E432C43374300993D
:200C80000E986305401A7905E40A00220C43FD0A0A3002D500200146E9E7010510196941E7
:200CA0000C9C0D9D00196941FFF7A2FFDFE710B5202A04DB0846203AD040002110BD0B46DD
:200CC000D340D0402024A21A91400843194610BD2021020C01D010211046020A01D01046CF
:200CE0000839020901D01046091F820801D01046891E420801D0881E7047081A704730B4CC
:200D00007446641E2578641CAB4200D21D46635D5B00E31830BC184702E008C8121F08C14B
:200D2000002AFAD17047002001E001C1121F002AFBD1704710B5FFF7D2FA10BD3880044016
:200D400000020000000000003880044000040000000000003880044000080000000000008D
:200D60003880044000100000000000003880044000200000000000000090044000A0044093
:200D800000B0044000C0044000D004400C0D0E0034800440000400000A0000003480044022
:200DA000000800000B00000034800440001000000C0000005AA15AA25AA300B58021017051
:200DC00001780906FCD500BD5AA7000201500000AAEA0000F40D000000F8FF1F4C000000B2
:200DE000180D0000400E00004CF8FF1FD4060000260D0000006CDC020000000000000000C7
:200E00000000000000000000000000000000000001000000000000000000000000A00640EB
:200E200000B0064000C00640000000000000000000000000000000000000000000000000B6
:20100000A804002015120000CF280000BB1C0000000000000000000000000000000000000F
:2010200000000000000000000000000021120000000000000000000023120000C71A000067
:201040002712000027120000271200002712000027120000271200002712000027120000C8
:2010600027120000271200002712000027120000CD1B0000271200002712000027120000F9
:201080002712000027120000271200002712000027120000271200007B1C0000271200002A
:2010A000271200002712000027120000271200002712000027120000071C0000271200007E
:2010C0000348854605F00EF800480047FB170000A80400204648002101600120454A0004CE
:2010E0005060454806220270427840231A404270A022C270414B80221A7001714171817926
:20110000C906FCD581790907890FFBD1704710B5394C2078012182093948CB03002A10D022
:2011200022789209012A55D021788909022907D130494968090F491C04F0FDF8314908608A
:2011400010BD627952063AD4227852070CD422789206520F9140C9B204F0EDF8617889068E
:20116000890F02D0400900E01846E17849094901CA06D20EDCD149110829D9D20A007A442E
:201180001279921897440306090C0F1215180521C9010FE0052109020CE00F21C90109E0F4
:2011A0000521490206E0B721890003E0B721C90000E015494843BBE714494843B8E7217967
:2011C000C906C90E491C04F0B6F86179C906C90E1831EFE76078C00707D0207A0007400F5D
:2011E00081400B4804F0A7F8A2E71846A0E7000000810440408004400040064000500640F5
:2012000000127A0000F8FF1F95080000710B000000093D000448804704480047FEE7FEE75D
:20122000FEE7FEE7FEE7FEE7D5100000C110000010B504220021012001F089FB002400217D
:20124000012001F0D7FB052001F045FA641C122CF5DBFD49FD4801F08BFF00221221104616
:2012600001F075FB002003F0ECFC00280CD0000A012300021843FF24002324021B02A04317
:201280002340184302F074FB022003F051FC002003F07AFC002003F09FFC03F02BFC01205B
:2012A00003F01EFCEA4802F0A7FB002003F0A3FE002802D0E7A005F0F3F8002201231221CD
:2012C000104601F0AAFB002010BDF0B5E74C017820460C3091B001260025E54F01900629C1
:2012E00011D20800784400790018874402FE4F6B0EFD0121002001F066FC0121084601F030
:2013000062FCDC48067211B0F0BD019803F006FE616C019803F00FF8B86804F0DAFBA06488
:20132000D549D64803F0ECFED54803F035F97878002813D103F08FF800280FD11821615EE0
:20134000D0A003F0A5FB1A21615ED0A003F0A0FB1C21615ECFA003F09BFB7E70A11DC348E7
:20136000019A03F099F8CD48E16C4607814204DCCB4802F04EFB304603E0304602F049FBA9
:20138000002002F049FBE56411B0F0BD002002F05FF9002810D18822C249C34803F0F5FF26
:2013A000C249002002F04AF9C148C188002002F06AF9002002F090F90321022001F01AFB1F
:2013C00011B0F0BD0FAAA11DA84803F028FDA748616C02F0B0FFA01D616C02F0ACFF00207C
:2013E00078607C68A1486500465F28181221415E701A04F027FB9D49A2005118096B04F033
:2014000080F904F04DFB2946AA4D68521C204443A9483146201803F06DFF79684A00491CA5
:20142000A85279600329DCDB0020A44E8F4D78607868A34C42005119CB88098B591A09B2A0
:20144000A1521C225043801903F054FF79684A00491CA05279600329EADB002078607C68C1
:20146000824E6500A8190C211E22415E825E881A04F0E8FAA1008919496A04F042F904F0F9
:201480000FFB01B21C2044438E4E8F487153201803F030FF79684A00491CB0527960032964
:2014A000DDDBB41F00200221205E615E4043494341180420205E4043401C081804F0C2FA68
:2014C00002F086FA694DE96C04F0C2F8E8640020205E801C042810D80220205E801C0428DF
:2014E0000BD80420205E01E034E147E1801C042803D8002020806080A0800020786003F0FB
:2015000049FC05467C686B486100405E04F09AFA294604F0F6F8A20005A9885003F03DFC78
:2015200005467C6866486600805F04F08BFA294604F0E7F8A50008A948516248805F04F062
:2015400081FA0BA948514B484068002800D14851641C7C60032CD2DB0A4608A905A802F01E
:20156000BCFE504803F084F80020424D7860687C002868DD554E564C56480E907868291830
:20158000487A902809D101224648093103F07EF801223849434803F079F878682918487A2D
:2015A000A02809D101223F48093103F06FF806222E493C4803F06AF878682918487AB02818
:2015C00009D101223748093103F060F806223C49344803F05BF878682918487AC02809D1F6
:2015E00001223048093103F051F806222D48019903F04CF878682918487AD0287BD1012222
:201600002848093103F042F8334802F0F8F902A8009031480FC802F00BFA3146029804F00F
:2016200070F804F03DFA20803146039804F069F804F036FA60802948049904F05AF8284947
:2016400004F05FF84FE080E000350C00888000000000FA43424D5031383020696E697420BE
:201660006661696C65640D0A00000000BCF9FF1F04F8FF1F0CFAFF1F10F8FF1F0CF8FF1F95
:20168000D4F9FF1F475F43414C580000475F43414C590000475F43414C5A00000AD7A33B33
:2016A000CDCC4C3E20FAFF1FA8FAFF1FACFAFF1F28FBFF1F14F8FF1F30FBFF1F84FBFF1FFA
:2016C0001AF8FF1F20F8FF1FD8FBFF1F0000C84226F8FF1F04FAFF1FACF9FF1F0000344317
:2016E0000000204107E004F0DBF9A0800622F649F64802F0CBFF78682818407AD1280ED1A7
:20170000F34802F07CF9786801222918EF48093102F0BCFF1022EE49EC4802F0B7FF7868A0
:201720002918487AF02809D10122E848093102F0ADFF0422E5480E9902F0A8FF7868401CBA
:201740007860697C814200DD18E7E04802F0ABFF11B0F0BDDFA003F0EBF8DF4C2060DFA07C
:2017600003F0E6F8DFA0656003F0E2F8C2B26274DE49DFA003F0BBF811B0F0BDDEA004F011
:201780008FFE11B0F0BD00B5014689B0DF4801F0D1FA0122114601F018FB00206A46107068
:2017A000FF21108104310191907201210390D172D74A069204916A4610756846079101F0FD
:2017C000A9FE00210122084601F038FB09B000BD10B502220321002001F0B9F8012000F056
:2017E0007AFF0321002001F0FDF8C4B207220321002000F0EDFE204610BDE12586B06D02AA
:20180000002001F08DFF00F065FF02220321002001F09DF8012000F05EFF0321002001F046
:20182000E1F8074607220321002000F0D1FEB94EC820377000F04FFF01F086FB0F210903D4
:20184000081A03F051F802F073F800F07FFD03F094F8002862D0B049162003F0BAF8294645
:20186000AEA003F015F900219CA003F011F9C821ACA003F00DF90021ABA003F009F900210F
:20188000ABA003F005F90021ABA003F001F96421ABA003F0FDF86421ABA003F0F9F86421C2
:2018A000ABA003F0F5F86327FF433946AAA003F0EFF83946AAA003F0EBF83946AAA003F033
:2018C000E7F801273F033946A9A003F0E1F83946A9A003F0DDF83946A9A003F0D9F87F424E
:2018E0003946A9A003F0D4F83946A9A003F0D0F83946A9A003F0CCF80021A9A003F0C8F842
:20190000A8A10868496805910490062204A978A003F08EF8062173A003F0BAF8307800281E
:2019200004D07EA003F004F8054603E029467BA003F0AEF82846FFF726FF04220321022080
:2019400001F005F867A002F0F3FFC2B262486749427467A002F0CBFF72A002F0E9FF934D9B
:20196000286471A002F0E4FF288371A002F0E0FF688371A002F0DCFFA8838D4802F004FEAB
:201980006FA002F0D5FF694608806FA002F0D0FF694648806EA002F0CBFF694688806EA065
:2019A00002F0C6FF694608816DA002F0C1FF694648816DA002F0BCFF694688817D4B7E4AFF
:2019C00002A9684602F0F0FD6FA002F0B1FF06B267A002F0ADFF01B27018C20F101840103D
:2019E0006882881B04F02EF8232701467F06384603F0C4FE286366A002F09AFF06B25EA025
:201A000002F096FF01B27018C30F18184010A882881B04F017F80146384603F0AFFE6863B2
:201A20005DA002F085FF06B255A002F081FF01B27018C30F18184010E882881B04F002F88C
:201A40000146384603F09AFEA86355A002F070FF6864FFF7EDFB296C584D284603F06BFC29
:201A60000146002001F05BF82946012001F057F802F08CFC0021084600F0A0F9504F0025B5
:201A80001C202E464643F019082103F031FC4D480821301803F02CFC4B480821301803F0A3
:201AA00027FC6D1C032DEBDB200A22460002114601F05EFF01F041FF0028FBD001F046FFF1
:201AC000FFF703FCF6E7704726F8FF1F20FAFF1FACF9FF1F494400000CFAFF1F4D4F444570
:201AE0000000000050544C4C0000000015FAFF1F50544C54000000004D53475F53454E53BA
:201B00004F525F4552520D0A000000008082000007A0064004F8FF1F747F000042415544AD
:201B2000000000004F445200475F43414C580000475F43414C590000475F43414C5A000053
:201B40004D585F4D415800004D595F4D415800004D5A5F4D415800004D585F4D494E0000DC
:201B60004D595F4D494E00004D5A5F4D494E000041585F4D4158000041595F4D41580000D5
:201B8000415A5F4D4158000041585F4D494E000041595F4D494E0000415A5F4D494E0000CE
:201BA0004449520090A0B0C0D0F00000BCF9FF1FD4F9FF1FE0F9FF1FDAF9FF1F40420F00AF
:201BC00030FBFF1F84FBFF1FD8FBFF1F70B53D4C2079207980060DD5E579002201211046EE
:201BE00001F0F3F8284602F0F9FD01221146002001F0EBF82079000704D5E07920790821B1
:201C00000843207170BD3049086A400334D570B50A6A01239B041A430A62040A0321240207
:201C20000C433A461146204601F0A2FE274D0026A868401CA8602868401C28606968491CCF
:201C40006960192809D1240A0420240204433A461146204601F08CFE2E6068680146FF394C
:201C6000F53908D1200A0521000208433A46114601F07EFE6E6070BD704770B5144CE068FD
:201C8000012500280CD0E3682B43E360000A0223000218430F4B1B7A002B01D001F068FE50
:201CA000E069002808D0E0692843E06107480A4A8168D1630021816070BD72B607A004F034
:201CC000EFFBFEE700A00640809004402CF8FF1F007103400CFAFF1FBCF9FF1F486172648F
:201CE0004661756C745F48616E646C65720D0A0010B500F07CFD0146FAA004F0D1FB0020C5
:201D000010BD10B50C46086803F081FB00280BD0206800221146401C03F05FFC0146F3A078
:201D200002F0B6FE002010BDF0A002F001FEC1B2EFA004F0B5FBF5E7BFF34F8FEF49EE480F
:201D4000C860BFF34F8FFEE70020704710B5086800221146401C03F040FC002802D002F0EA
:201D600001FB29E0E649E74802F058FCE449E64BE64A881F02F018FCE24C0021615EE4A0ED
:201D800002F086FE0221615EE3A002F081FE0421615EE3A002F07CFEA41D0021615EE2A001
:201DA00002F076FE0221615EE1A002F071FE0421615EE1A002F06CFE002010BDF0B585B071
:201DC000DFA00C460090042303220221DFA004F067FBE8A004F064FB00F009FD0246EEA1B6
:201DE000EEA004F05DFBF0A002F0A2FD00287BD0EFA2EDA1F0A004F053FBBCA002F098FDA1
:201E0000C2B2BAA1EFA004F04BFBF1A002F090FD0246EFA1EBA004F043FBEFA1206803F07A
:201E2000D8FA00287CD0002000F0BAFB0246EBA1EDA004F035FBEF4CEFA1EBA0226C04F03A
:201E40002FFBEEA1DFA0E26B04F02AFB02F0A2FF03F053FE02460B46EBA1EDA004F020FB4C
:201E600002F09BFF03F049FE02460B46EBA1E8A004F016FB02F094FF03F03FFE02460B469C
:201E8000E8A1E3A004F00CFBA5A002F051FD0546A1A002F04DFD06469DA002F049FD0246E5
:201EA0003346E2A1E3A0009504F0FAFAA2A002F03FFD05469EA002F03BFD06469AA002F08B
:201EC00037FD02463346DFA1DAA0009504F0E8FA1C20205E00901A231822E35EA25EDBA12A
:201EE000D4A004F0DDFA00E04BE0D9A002F020FD0546D9A002F01CFD0646D9A002F018FD75
:201F000002463346D8A1CBA0009504F0C9FAD8A002F00EFD0546D8A002F00AFD064600E073
:201F20002CE0D7A002F004FD02463346D6A1C1A0009504F0B5FAA06B03F0DFFD07460091A2
:201F4000606B03F0DAFD05460E46206B03F0D5FD0B46009902460391029701960095CCA105
:201F6000CDA004F09DFA1620205E009014231222E35EA25ECCA1AFA004F092FA282005B040
:201F8000F0BDCBA235E710B5086800221146401C03F023FB04467D20C00084420FD8214635
:201FA000C54803F0DEF90146002000F0B8FD91482146046490A002F06BFD002010BD0120FE
:201FC00010BD10B5086800221146401C03F005FB4B225201B94B821A04469A4210D8014682
:201FE000B7A004F05DFA214679A002F051FD2146002000F056FEB54901200872002010BD2E
:20200000012010BD10B5B2A004F04AFA002010BD10B5086800221146401C03F0DEFA044677
:20202000002161A002F034FD2146B0A004F038FA002010BDF8B508683D2103F0DEF9A34E5B
:2020400004463546093500280AD0002070746A46A9A1601C03F0FEF9C0B2012818D021E093
:20206000A6A002F065FCC2B272742946A5A002F03EFC707C0024002808DD3019417AA3A029
:2020800004F00EFA707C641CA042F6DC0020F8BD68460178707C4155A5A004F001FA707C86
:2020A000401C70742C21601C03F0A7F90400CED1727C294693A002F0BBFC717C8FA002F09A
:2020C000E7FC0020F8BD10B5086800221146401C03F083FA7D49002800D001200872002055
:2020E00010BD0000307825580D0A00004944000025640D0A000000000400FA0500ED00E0DA
:202100003EF8FF1F38F8FF1FE0F9FF1FDAF9FF1F4D585F4D415800004D595F4D4158000060
:202120004D5A5F4D415800004D585F4D494E00004D595F4D494E00004D5A5F4D494E0000F8
:202140004170722031392032303137000D0A48693230394D285552414E5553204949292037
:2021600025642E25642E2564206275696C642025730D0A0032303037202D20323031372049
:20218000436F70797269676874206279204869504E55430D0A00000055494400252D3136D2
:2021A00073253038580D0A004D4F4445000000003920414958530000252D31367325730D2C
:2021C0000A000000252D31367325640D0A00000042415544000000003D4C0000436F7265FB
:2021E000436C6F636B000000252D3136732564487A0D0A00BCF9FF1F4F44520053656E7314
:202200006F724F4452000000415343414C450000252D31367325660D0A0000004753434163
:202220004C4500004D5343414C4500004D4D41583A000000252D3136732564202564202548
:20224000640D0A004D4D494E3A000000474F0000415A5F4D4158000041595F4D4158000043
:2022600041585F4D41580000414D41583A000000415A5F4D494E000041595F4D494E000064
:2022800041585F4D494E0000414D494E3A00000041473A2020000000252D3136732566202A
:2022A00025662025660D0A00414F3A2020000000362041495853000040420F00207B1E00F2
:2022C000424155443D25640D0A0000000CFAFF1F6E6F7420737570706F7274656420616E9B
:2022E000796D6F7265210D0A000000004D4F44453D25640D0A0000002558000050544C4CBF
:202300000000000050544C5400000000646174615B3078253032585D20616C72656164799E
:2023200020696E207061636B65740D0A000000005B3078253032585D2061646420696E7404
:202340006F207061636B65740D0A000010B51221684802F03FFA10BD70B567A004F0A0F807
:20236000644D0024E0002A5869A16AA004F098F8641C122CF6D3002070BD10B50868002263
:202380001146401C03F029F96449002800D001204864014662A002F07BFB002010BD000A5B
:2023A00010B502230002184301F0E2FA282010BD10B582B008686B4601AA5AA103F04AF801
:2023C000044668460278017959A004F069F8022C04D168460178007902F06EFB282002B0CB
:2023E00010BD10B501F01BFB002010BD30B58BB001A80090086802AB04AA53A103F02AF82A
:20240000032802D001200BB030BD00231A461221184600F002FB0299049808431AD1002563
:202420002C4608A802F0BFFC052000F054F969462420085E641C4519322CF2DB3221284648
:2024400002F08FFF04460198012808D041A0214602F01EFB01990498084302D01CE03FA097
:20246000F5E700252C4608A802F09DFC052000F032F969462220085E641C4519322CF2DB0E
:202480003221284602F06DFF04460298012808D034A0214602F0FCFA01990298084302D0C4
:2024A0001CE032A0F5E700252C4608A802F07BFC052000F010F969462020085E641C451971
:2024C000322CF2DB3221284602F04BFF0446049801280DD027A0214602F0DAFA009427A099
:2024E000019B029A049903F0DBFF00200BB030BD29A0F0E744F8FF1F417661696C61626C5C
:202500006520436F6D6D616E64733A0D0A00000041540000257325730D0A0000BCF9FF1F04
:20252000444952003D307825582C30782558000057522D393235305B307825585D3A2030FC
:202540007825580D0A0000003D25642C25642C2564000000415A5F4D494E0000415A5F4D1A
:202560004158000041595F4D494E000041595F4D4158000041585F4D494E00004143414C19
:202580003A2025642C25642C25642076616C75653A25640D0A00000041585F4D41580000F9
:2025A00010B5CD49CD4C0A68022800D1616801280CD16068010F1046491C02F0BCFE6168E3
:2025C0004903490F491C02F0B6FE0246104610BD70B40C23C24D4343EC585B1926685B68F0
:2025E000C04D1E43266084002B598800195807263602B143195029590B585207520D134331
:202600000B5070BC7047704710B4B64B8000102489001858002A425801D0224300E0A24394
:20262000425010BC704710B4AE4B8000402489001858002A425801D0224300E0A24342509A
:2026400010BC704770B40C234343A54D1C462B5964191E6864683C3526430224890080006E
:202660001E60002A05D0012A0ED028584258A24312E02A5853582343535028584258520839
:202680005200425070BC70472A585358234353502858425801231A43425070BC70470068C5
:2026A000704703B40098086002B0704710B58E4801690422114301618C49416186488C4C45
:2026C00000688C4902F037FE7D21C90020604843606010BDEAE78649834A81B04968516196
:2026E000116905231943116100219161002809D913690093DB0702D0009BDB03F8D5491CDF
:202700008142F5D301B070477949784A096848437549904201D94A6100E04861002088619F
:20272000086905221043086170476F4902220028086901D0104300E09043086170476E4A6A
:2027400051601060704710B56B4904460868002802D00968E0B28847204610BD10B56648FC
:202760004168002903D040688047C0B210BD002010BDBFF34F8F62496048C860BFF34F8F7E
:20278000FEE760480078704770B504460D460120FFF7A1FF5C48FF210170002141700221DA
:2027A000202C04D0222C04D0242C0AD105E0427801E042780A43427003E0427803231A4353
:2027C0004270A30604224E48002B036901DA134300E0934303610269002D01D00A4300E06A
:2027E0008A430261A006800F00D030BF70BD3B49086ACA698969504048407047C91C002297
:202800008908890006D00020401C521C0428FBDB8A42F8D3704770B400230246002904D9F9
:202820001370521C5B1C8B42FAD300220346002907D91C78D5B2AC423ED1521C5B1C8A4259
:20284000F7D300234D084C080246002D04D91380921C5B1C9C42FAD8002203464D0807D091
:202860001D8896B2B54227D1521C9B1C9442F7D800248D088B080246002D03D910C2641CC3
:20288000A342FBD8002402468D0806D01568A54212D1121D641CA342F8D8002402468D08FD
:2028A00004D0126020CA641CA342FAD80022890809D00168814202D070BC01207047001D06
:2028C000521C9342F5D870BC00207047704710B5FFF7FCFF10BD000000F8FF1F4080044091
:2028E000CC7F00000880000000E000E0FFFFFF00D4F8FF1F40420F00DCF8FF1F0400FA05D8
:2029000000ED00E000F0074000E0074010B40123784C8B4080002058012A416903D0994399
:20292000416110BC70471943FAE710B40123714C8B4080002058002A04D041681943416029
:2029400010BC704781681943816010BC704770B5144606460D46092A37D2100078440079AC
:2029600000188744040E1832223232322200FF223046FFF767FE002229463046FFF7C6FF8A
:2029800023E000223046FFF75DFE002229463046FFF7BCFF19E001223046FFF753FE002298
:2029A00029463046FFF7B2FF0FE0FF223046FFF749FE042C10D0002229463046FFF7B5FF07
:2029C000012229463046FFF7A1FF012229463046FFF7FEFD304670BD012229463046FFF7BF
:2029E000A4FFEDE7434A800010580069C840C007C00F704782003F488058C26801238B4033
:202A00001A43C26070473B498000085800697047384A8000105801607047F0B4364D8400CF
:202A20002E598900775894460F22120497437750002B23D0314A105CC206D20E0120904057
:202A40002F4A10606046002804D0012809D0022814D10DE02859425809231B041A43425098
:202A60000CE02859425805235B041A43425005E0285942580B231B041A434250F0BC0020D1
:202A8000704770B41C4C0F2586002D048900A059002B09D04358AB434350002A0AD0012A37
:202AA0000FD0022A1AD113E04258AA43425070BC00207047A059425801231B041A4342504C
:202AC0000CE0A059425801235B041A43425005E0A059425803231B041A43425070BC00200D
:202AE0007047054A800000211058C943803001627047000024800000388000001C800000F9
:202B000000E100E0020141481018826852085200826001608168012211438160704770B54A
:202B200005463B480C460122C16BD2051143C1630120FFF735FD374902F0FDFB364908603D
:202B400036490A6802239A430A602A062F496043120D51188A68520852008A600860886865
:202B600001221043886070BD010128480818816849084900816070470101244808188168A6
:202B800001221143816070470201204810188268520852008260204A12684A43026081685F
:202BA0000122114381607047184910B50001401840681949096802F0BEFB10BD1349000137
:202BC00040184068704710B4114A0124D36BE4052343D3630D4A030102249A1800290ED0FD
:202BE000D36801210B43D3609368234393600C4A105CC006C00E81400A48016002E09068FF
:202C0000A043906010BC002070470000007103400080044040420F00ECF8FF1F0070034080
:202C20004C80000000E100E0B94A800010580279920603D5C079087000207047017909071F
:202C400003D5017908221143017101207047B04A8000105802791206FCD5C171704710B566
:202C6000002803D00120FFF79BFC10BD0220FFF797FCA8494A6803239B069A434A604A6890
:202C800001239B061A434A60A34A52795306A34A4B6803D513434B60400810BD93434B6048
:202CA00010BDF0B50E469A4A810085B05558FFF7D6FF0190E878F3210840E87005243046F8
:202CC00002F0E0FE964A974B02F054FE0746039131466143019802F02EFB214641430090F3
:202CE000019802F028FB024603990291801B00D5B01A02F0B3FE3A46029B02F013FF02D3DC
:202D0000641C202CE4D3641EE0068749C00E8872287840094001287029780098C004C00EA3
:202D20000143297000986870E8780C210843E87005B0F0BD73B500980C224607760F30467E
:202D40007A4C504322580019136840686D460343136000984007400FFFF7A3FF0098002476
:202D60004003C00E00280FDD2888C1054A0F8104C90E80060919400FFFF72AFC2868641CE0
:202D80004003C00EA042EFDC694C2078002807D06848694906706948FFF7D1FC002020702D
:202DA000287802B04007400F70BD01B4009858494007C00E08580021017041708170C17036
:202DC00081710172084601B0704770B40C234343564D1C462B5964191E68646826431E60C0
:202DE0004B4C8300E358564C205CC406E40E0120A040544C2060002904D001290ED0022953
:202E000009D112E0D878002A02D08021084301E04006400ED87070BC00207047D878002A74
:202E200001D0202105E0DF2106E0D878002A02D010210843EEE7EF210840EBE7F0B50E46F5
:202E40000746334980000C581546002A03D131463846FFF7BAFF80202021DF22002F0CD0DB
:202E6000002E22D0012E2AD0002D04D0012231463846FFF7AAFF0020F0BD2B4B002E06D00A
:202E8000012EF8D1D87A002D0CD008430BE0002D03D0D97A0143D972EDE7D87A4006400E0D
:202EA000D872E8E71040D872E5E7002D03D0217A01432172DAE7207A4006400E06E0207AB2
:202EC000002D02D008432072D0E710402072D2E77047184810B4021D0078810008235058FE
:202EE0000479A40602D5C07910BC704704792407F5D504791C430471F1E70E49044A097857
:202F0000890051580A791206FCD5C87170470000F4F8FF1F008004400040064000000100CE
:202F2000B81E85EB51B89E3F00A0064054800000E4F8FF1FF0F8FF1FD32E0000FB2E000081
:202F40005080000000E100E0012080027047042070478449302008707047012110B5090768
:202F6000884201D3491108437E4C0921E1710102090EA1710104090E6171207172B63020A5
:202F800020707A48784901602046884720783121084000D0012062B610BDF7B50C46012160
:202FA000090782B0884201D34911084305466D490620C871049804260027002837D96A4855
:202FC00000902802010E674881712904090E41710571E178C172A17881726178417221785E
:202FE0000172082E07D1E179C173A17981736179417321790173AD19A41972B6302159487B
:2030000001705A480099016056488847554800783121084000D0012062B6002802D0012063
:2030200005B0F0BDB81987B204988742C9D3002005B0F0BDF3B50E464A498BB0302008700F
:203040000B9C204600F058F801208002201800F053F82046FFF781FF00200121C90222788A
:20306000641CFF2A02D1401C8842F8DB00200890B00A3ED0B00A0A90089881020B98081821
:203080000990FFF76AFF054600246E46FF21204602F051F93155641C202CF7D30024099872
:2030A0006101081820226946FFF777FF451901D0012515E0641C202CF1D30026099871011E
:2030C0000F180024FF21204602F035F9385D814200D06D1C641C202CF4D3761C202EEDD31B
:2030E000002D06D10898401C089008990A988842C2D828460DB0F0BDF1B588B00898FFF745
:203100002CFF054600246E46FF21204602F013F93155641C202CF7D300240898610108187B
:2031200020226946FFF739FF451902D0012009B0F0BD641C202CF0D30026089871010F18CB
:203140000024FF21204602F0F6F8385D814200D06D1C641C202CF4D3761C202EEDD3284693
:2031600009B0F0BD0000024005F9FF1F00F9FF1FF3B589B009A8009009980C464207520FB5
:20318000E1489100405801900C204243DF4883581018196840680143196009984007400F54
:2031A00008900120FFF7FCF97D210790C900204602F0C1F8002104917D21C900484300278D
:2031C0000546FF4300200390064602900120B04000240690A000CE490590401841880698FB
:2031E0004143079802F0A7F8854201D9281A00E0401BB84206D2C64A05990396515C0291A4
:20320000070002D0641C322CE4D3761C022E01D8002FDBD10498002800D007600898029A93
:203220008100B9489206405803998907090E920E114341700198C078022108430199C870E3
:203240000198902181700098002400684003C00E002811DD00980088C1054A0F8104C90E4D
:2032600080060919400FFFF7B3F90098641C00684003C00EA042EDDC009800780BB0400767
:20328000400FF0BDFFB581B00198490684009E480A9D0059090E02910090817803AE890688
:2032A000817803D504221143817002E03022114381700299019800F018F904990746491ED3
:2032C00012D302239048327800590271761CC2789207FCD5C2781A43C270C078C007C00FC9
:2032E000C019C7B2491EEDD2874E305981788906817803D504221143817002E030221143AC
:2033000081700298401CC1B2019800F0EEF8C019C0B2844600988078EF2108400099887056
:203320000B980823F72701283059817818D039408170315930460A79CA789207FCD5CE782F
:2033400002221643CE700B99491E25D41746002908D00259012993780FD0F72633400EE063
:203360001943E5E702599378DF2633409370D3789B06FCD4002912D002E0082633439370F4
:2033800002591379D678B607FCD5D6783E43D6702B706D1C491EDAD5604605B0F0BD009A79
:2033A00012792A70F5E770B54906090E564D84002A5993789B06937803D5042633439370A5
:2033C00002E030263343937000F08FF829598A78DF231A408A70CA789206FCD470BDFFB560
:2033E0004906090E8C46484986008A5981B091780A9D1F4603AC9378890603D504210B43C1
:20340000937002E030210B439370614600F06DF802237F1E11D33C49227889590A71641C87
:20342000CA789207FCD5CA781A43CA70C978C907C90F0818C0B27F1EEDD20B9A521E11D337
:20344000314F2C78B9590C716D1CCC78A407FCD5CC781C43CC70C978C907C90F0818C0B216
:20346000521EEED2284989598A78DF231A408A70CA789206FCD405B0F0BD10B582B0012449
:20348000009301942346FFF7FDFE02B010BD1FB582B0012405AB009301942346FFF79FFF2B
:2034A00006B010BDF8B50124174F0646850060067A59010E90789378800603D5042003435D
:2034C000937002E0302003439370304600F00DF878598178DF2211408170C1788906FCD45E
:2034E000641CE4B27F2CE2D3F8BD074A800010580171C1788907FCD5C17802221143C1707A
:20350000C078C007C00F704714F9FF1F788000009080000030B47B49CA6B02231A43CA6367
:2035200079490A688B151A430A600178774A090189188B680124240623438B6001780901F5
:203540008918CB689405A343CB600179047889066F4B890EE4182170817A002902D001296A
:203560000CD105E00178C9180C78BF252C4004E00178C9180C7840252C430C70047865491F
:203580002401A418E160047801892401A418A1600478C1682401A4182160017809018918F6
:2035A000CC68057CAD07AD0A2C43CC60C17A0124A4050029017804D009018918CD68254389
:2035C00003E009018918CD68A543CD60047881692401A4186160017809018918CC68057C32
:2035E000AD076D0B2C43CC60017D0124E4040029017804D009018918CA68224303E00901D4
:203600008918CA68A243CA600078C018017880221143017030BC704702013C481018C2681C
:203620000907090C0A43C2607047020137481018C2680907090D0A43C2607047334A0001A1
:20364000801801607047314A000180184160704701012E4881B0081881680904090C0091E9
:2036600004D181680122120611438160009801B070472649000140188068C00101D50020B5
:203680007047012070470902204A090A000180188160704710B4204B1B5CDC06E40E012344
:2036A000A3401E4C236000290BD1184900014018C168002A02D0E205114301E049004908A0
:2036C000C16010BC704701011048081881680122120611438160704701010C480818C1681D
:2036E000012292071143C160704701010748081881680122120611438160C1689201914388
:20370000C160704700800440408004400081004000100240800000205881000000E100E0BC
:2037200076490978002901D001207047F0B40021734DC9436960734E734B74490A2826D1B8
:2037400074680122120494437460A0221A700022B2616F4A34245470802414709479A40773
:20376000FCD59479E406FCD420241470D478E406E40ED470D47860273C43D470654C0C60CA
:2037800094792407A40FFBD1052212046A60624A00281CD001281AD074687460A0241C7098
:2037A0000023B3615A4B34245C7080241C709C79A407FCD5801E0A2843D204007C44247902
:2037C0002419A7447A7236475058603F8269736801242404A3437360504B1E680327BF0437
:2037E0003E431E604A4B07261E70DE78F606F60EDE70002809D001280FD1D878A022104367
:20380000D8706C604648086007E0D878E0242043D8700320000468600A609879C006FCD5B7
:203820005879BF210840587198790007800FFBD15DE00E221A714C225A713A480022086016
:20384000042142E018241C7158245C710A60002204213AE00E221A715E225A7132480022A2
:203860000860062131E00B241C7140245C710A600022042129E002241C7140245C710A60B3
:203880000022042121E00B221A7146225A71254800220860042118E004221A7140225A7103
:2038A00020480022086004210FE001241C7140245C710A600022042107E000221A71502268
:2038C0005A711A4800220860072198798006FCD598794006FCD50020187098790007800F2A
:2038E0000328FAD110074907490B08436860034901200870F0BC0020704700001CF9FF1F69
:2039000040800440008004400050064000F8FF1F0040064080A4BF0700D8B805007004407A
:20392000006CDC02000E27070095BA0A00B0710B254800214187018770472348018F408F1D
:20394000814201D0012070470020704770B51E4C0025208F618F884208D00C2141431B4A19
:20396000401C8D180A2101F0E6FC2187284670BDF7B5154C0546678F0E46781C0A2101F0B3
:20398000DAFC208F814202D1002003B0F0BD0C2047430E480A213A1802985660156090604E
:2039A000608F401C01F0C7FC6187012003B0F0BD0548018F408F814201D900207047401A25
:2039C0000A21081AC0B270476CFCFF1F2CFCFF1F10B5FF4A4108541AFE4901F092FE2146B1
:2039E00001F08FFE214601F08CFEFB4901F085FE214601F086FE10BDF84988627047F749E4
:203A00000A6802604A6842608A688260C968C1607047F24908617047F049486170477F210D
:203A2000EE48C9050160002141608160C1607047FFB587B0109F0999079801F062FE0590E5
:203A400004460A99089801F05CFE2146049001F050FE0321890701F054FE0446DF48E04DBF
:203A6000466A0899079801F04CFE03900A99099801F047FE0290AC422FD3D84D0020D94925
:203A800003F052FA02F062F80446686A02F035F8009001910599049801F0DAFD02F02DF825
:203AA000032300229B0701F065FF054604910399029801F01EFE0321890701F022FE02F0ED
:203AC0001CF82A46049B03F077FC019B009A01F043FF02F03BF805468CE0C34884422CDB40
:203AE0000020C24903F020FA02F030F804460599049801F0ADFD012101F07EFE01F0FDFFD9
:203B0000054600910399029801F0F3FD012101F073FE01F0F2FF2A46009B03F04DFC0546BA
:203B2000AE480091406A01F0E8FF2A46009B01F013FF02F00BF805465CE00A99084601F010
:203B4000E0FD09990546084601F0DBFD2946019001F07EFD012101F04FFE7F21C90501F059
:203B6000CCFD01F0CAFF0E4605460A99079801F0C8FD00900999089801F0C3FD009901F01E
:203B800067FD012101F038FE01F0B7FF2A46334603F012FC01F0DAFF0646204601F0ADFFCE
:203BA00003F0C2F901F0D2FF089904460846019D01F0A7FD294601F04BFD012101F01CFE54
:203BC0007F21C90501F099FD01F097FF0D4600900299039801F03CFD012101F00DFE01F017
:203BE0008CFF2B46009A03F0E7FB01F0AFFF05467A48466220460124E407604001F07DFF83
:203C00007B4A7C4B01F0B6FE01F0A0FF65403860284601F072FF764A764B01F0ABFE01F0CA
:203C200095FF7860304601F068FF714A714B01F0A1FE01F08BFFB8600BB0F0BDF0B5674DEF
:203C400083B0A9680446286801F05BFDE9680646686801F056FD314601F04BFD012101F089
:203C6000CBFDE9680646A86801F04BFD69680746286801F046FD394601F0EAFC012101F04B
:203C8000BBFDE9680746E86801F03BFD0290A968A86801F036FD01906968686801F031FD2D
:203CA00000902968286801F02CFD009901F021FD019901F01EFD029901F0CAFC05463146D7
:203CC000206801F016FD20603946606801F011FD60602946A06801F00CFDA06003B0F0BD01
:203CE000FFB53E4C002721688DB03E463D46206801F007FD09906168206801F002FD0190AA
:203D0000A168206801F0FDFC0390E168206801F0F8FC05906168606801F0F3FC0790A16839
:203D2000606801F0EEFC0690E168606801F0E9FC0490A168A06801F0E4FC0890E168A06804
:203D400001F0DFFC0090E168E06801F0DAFC029018984000000E7DD019984000000E79D08A
:203D60001A984000000E75D01A99084601F0C9FC19990546084601F0C4FC18990646084600
:203D800001F0BFFC314601F063FC294601F060FCFFF71EFE05460146189801F0B2FC189059
:203DA0002946199801F0ADFC199029461A9801F0A8FC1A900399049801F04AFC0A901A9984
:203DC00001F09FFC05460599069801F092FC13E012141F5F12D3363FFF51D83F20F9FF1FC2
:203DE000EFFF7FBF0000F0BFEFFF7F3F0000F03FFBEB1516DCA54C400B90199901F081FC34
:203E00003F2706463F063846089901F072FC029901F06FFC0C90189901F073FC314601F021
:203E200017FC294601F014FC012101F0E5FC05460199009801F05DFC1A9901F062FC0646F6
:203E40003846079901F055FC0790029901F051FC199900E09FE001F054FC074605990698B7
:203E600001F0F6FB189901F04CFC394601F0F0FB314601F0EDFB012101F0BEFC014601F0C6
:203E800040FC06462946084601F03BFC314601F0DFFB01F032FE04F049F801F057FE07468A
:203EA0000899079801F025FC07901A9901F029FC06460199009801F0CBFB0690199901F0E2
:203EC00020FC05460399049801F013FC0590189901F017FC294601F0BBFB314601F0B8FBC8
:203EE000012101F089FC06463146059801F009FC054639460C9801F004FC294601F0A8FB72
:203F000005903146069801F0FCFB054639460B9801F0F7FB294601F09BFB0690314607981D
:203F200001F0EFFB054639460A9801F0EAFB294601F08EFB054606991A9801F0E2FB0646C5
:203F40002946199801F0DDFB314601F0D2FB012101F052FC07462946189801F0D2FB05466D
:203F600005991A9801F0CDFB294601F0C2FB012101F042FC06460599199801F0C2FB054636
:203F80000699189801F0BDFB294601F0B2FB012101F032FC054610984000000E70D01698AC
:203FA0004000000E6CD017984000000E68D01799084601F0A6FB16990690084601F0A1FB92
:203FC00010990590084601F09CFB059901F040FB069901F03DFBFFF7FBFC014605901098CA
:203FE00001F08FFB10900599169801F08AFB16900599179801F085FB17900399049801F0B0
:2040000078FB03900099019801F022FB3F2100900906099801F06DFB029901F019FB019030
:204020000099179801F06DFB02900199169801F068FB029901F05DFB394601F009FB07460C
:204040000199109801F05DFB01900399179801F058FB019901F04DFB314601F0F9FA06463B
:204060000399169801F04DFB01900099109801F048FB019901F03DFB294601F0E9FA054666
:204080007800000E69D07000000E66D06800000E63D060690121C905884242DBA16A7F20BA
:2040A000C00501F06BFB00903946606901F029FB009901F026FBA16901F0CAFAA061A16A81
:2040C0007F20C00501F05AFB00903146606901F018FB009901F015FBE16901F0B9FAE06199
:2040E000A16A7F20C00501F049FB00902946606901F007FB009901F004FB216A01F0A8FABA
:204100002062A1690D9801F0A3FA0D90E1690E9801F09EFA0E90216A0F9801F099FA0F90D7
:2041200003E00020A061E06120623946206901F0E8FA0D9901F08CFA0D903146206901F032
:20414000E0FA0E9901F084FA0E902946206901F0D8FA0F9901F07CFA0F90A16A7F25ED05C7
:20416000284601F00BFB0026F643314601F044FB0D9901F0C6FA0D90A16A284601F0FEFA7E
:20418000314601F039FB0E9901F0BBFA0E90A16A284601F0F3FA314601F02EFB0F9901F017
:2041A000B0FA0F9027686568A6680146E06801F0A8FA019030460E9901F0A3FA009001213C
:2041C0002846C90748400D9901F09BFA009901F090FA019901F08DFA216801F039FA20609A
:2041E0000E99E06801F08DFA019030460F9901F088FA009039460D9801F083FA009901F08A
:2042000027FA019901F075FA616801F021FA6060E1680D9801F075FA019028460F9901F008
:2042200070FA009038460E9901F06BFA009901F060FA019901F00CFAA16801F009FAA06097
:2042400031460D9801F05DFA064628460E9901F058FA054638460F9901F053FA294601F047
:20426000F7F9314601F045FAE16801F0F1F9E060E168E06801F045FAA1680746A06801F033
:2042800040FA61680646606801F03BFA21680546206801F036FA294601F0DAF9314601F0C9
:2042A000D7F9394601F0D4F9FFF792FB05460146206801F026FA20602946606801F021FA80
:2042C00060602946A06801F01CFAA0602946E06801F017FAE06011B0F0BDF0B506460D46F5
:2042E000886887B014461D4901F00BFA1C4901F045FA05901949686801F003FA184901F045
:204300003DFA07461549286801F0FBF9144901F035FAA36862682168B4680194049303928E
:2043200002917168009133683946059AFFF7D8FC002007B0F0BD012902D0022906D00AE092
:204340008288418852424280818004E001884288028049424180002070470000DA0F4940E5
:204360000000344330B47D220020D200B84BB94D544241005A52401C6C520328F9DBB648AE
:20438000042201781143017030BC70470020401CC0B20328FBD37047F0B4B04E0024192574
:2043A000345F6D0163196F00BB4251D80223F35E5D19BD424CD80425755F7E10AE19BE428A
:2043C00046D800268E5F341B3F347E2C40D802240C5FE31A3F337E2B3AD80423CB5E591BA9
:2043E0003F317E2934D89E4900230024C35E0C5F1B1B45338A2B2BD802230224C35E0C5FA3
:204400001B1B45338A2B23D80423C35E0420085E181A45308A281BD8924800210023515E53
:20442000C35EC91A1D313A2912D802210223515EC35EC91A1D313A290AD80421515E042255
:20444000825E881A1D303A2802D8F0BC01207047F0BC0020704780480078C00701D0002052
:204460007047012070477C490978490713D570B4784C0022A51D5100665E435E9E4200DAF3
:2044800063526E5E435E9E4200DD6B52521C032AF1DB70BC70477047F8B56F4E0D467168E9
:2044A000714F1446002904D0022922D003293FD153E06B4903880B8043884B8083888B80E3
:2044C00013880C310B8053884B8093888B802B88891F0B806B884B80AB888B802946FFF766
:2044E0005BFF002824D0002038607860B86002201DE02946FFF750FF002814D00021695ED7
:204500003868401838600221695E7868401878600421695EB8684018B860B068401CB06011
:20452000502803D004E00020B06000E0032070603078400710D5474B00219D1D48001E5E44
:20454000225E964200DA1A522E5E225E964200DD2A52491C0329F1DBF8BD5021386800F06D
:2045600000FF424D50212880786800F0FAFE68805021B86800F0F5FEA8800020B06031786F
:20458000012211433170D2E7384902880A8042884A8080888880704734490A8802804A88F7
:2045A0004280898881807047F8B505461E460C46002041006B5E675E401CDB19DF0FFB1882
:2045C0005B1053520328F4DB7F20C005306000200021285E615E401A01F034FA074602206F
:2045E0000221285E615E401A01F02CFA394601F0C5F8706000200021285E615E401A01F014
:2046000021FA074604200421285E615E401A01F019FA394601F0B2F8B060F8BD70B40D4CEA
:204620000022A51D5300E65AC652EE5A521CCE52032AF7DB70BC704710B4084B00214A00B1
:204640009C5A491C84520329F9DB10BC7047000076F9FF1F70F9FF1F4CF9FF1F64F9FF1FB4
:204660005EF9FF1F6AF9FF1FA8FCFF1F58F9FF1F10B50446062020608021201D00F09EFEF4
:204680005A202071A5206071002010BD70B51546044604C810182A4600F077FE2068401918
:2046A0002060002070BD38B5044601882546881F8035A880E980A071000AE07100206946DA
:2046C00008800422211D684600F063F82146AA880A31684600F05DF8694608882072000A53
:2046E0006072002038BD374AD16010617047F8B5344D0024294609692E780A460302803219
:20470000072E44D237007F443F79FF19BF4403070B10171A22005A2839D1012018E0A52897
:2047200035D1022014E028499080887003200FE09188194391802449C870042008E06880B3
:20474000052005E0688803436B800C60AC80062028701CE00B680E1D5F1C0F6098550868F7
:204760009188884213D304221749184800F011F82969164804C900F00CF8A88869888842F5
:2047800004D1E968002901D0286988472C700020F8BDF0B403880026002A0FD90C4F8C5D7D
:2047A0002402634000255C001B0400D57C406D1C2346082DF7D3761C9642F0D30380F0BCB2
:2047C000704700007CF9FF1F82F9FF1F80F9FF1F211000003E4AD16090607047F8B53C4F96
:2047E0003A78002A0DD0012A0FD03946394B4968022A13D0032A0ED10D281CD00A281AD0EA
:2048000045E0412807D1012042E0542804D00020387000207860F8BD0220F9E70D2807D01C
:204820000A2805D0202903D05854491C7960F8BD03203870F8BD002058540446F868002898
:2048400025D93D21234800F0D8FD002806D03D21204800F0D2FD1F49451A00E07D68B8689D
:20486000E600805900F0D3FDA84204D3B868805900F0CDFD0546B8682A468059154900F043
:20488000DAFD002806D0F868641C8442D9D300203870F8BDB968E000085800F0B8FD0D4918
:2048A00040180090B86869463018426801209047002802D0012805D101E007A000E008A04E
:2048C00001F0EEFD2021034800F078FDDFE7000090F9FF1FB4FCFF1F4F4B0D0A000000001F
:2048E0004552520D0A0000006D4908607047F7B501256B4E0F460024009800F088FD326838
:20490000210189180246009800F088FD002805D0641C182CF0D3284603B0F0BD3168200173
:20492000411838460831029A00F02FFD0025F2E7F0B583B0002106466846594D04270C469B
:2049400000910190304600F062FD2A68210189180246304600F062FD002805D0641C182C4D
:20496000F0D3009803B0F0BD2968200141183A460831019800F009FDF3E7F0B5002083B057
:20498000009068460427464D46A600240190304600F03DFD2A68210189180246304600F0D7
:2049A0003DFD002809D0641C182CF0D33E49009888420BD0012003B0F0BD296820014118E5
:2049C0003A460831019800F0E0FCEFE7002003B0F0BDF8B50E460546FF218131334800F0DA
:2049E000EDFC0024002D09D9304FA00031582001C01901F07CFD641CAC42F6D32A4C2C486E
:204A000028A101F074FD2B4821040476090E41762102090E8176210E214CC1762068FEF70A
:204A20009CFAFF22813221492068FEF7B6FAF8BDF7B51B4FFF22012581321C48396800F0BB
:204A4000A4FC1A4E0024009800F0E1FC210102468919009800F0E2FC002805D0641C182C92
:204A6000F1D3002D08D010E0200180190830029A019900F08AFC00253868FEF76EFAFF229C
:204A800081320A493868FEF788FA284603B0F0BD13B5042201A9FFF7CBFF02B010BD000054
:204AA000A0F9FF1F4D474B0045560000D4FCFF1F44FEFF1F34FEFF1F024610B5FE480B4683
:204AC00001784068FEF7E3FC10BD08B50246FA486B4601784068FEF7D0FC6846007808BD4F
:204AE000C3B210B5F448192201784068FEF7CFFC002010BD38B5F04C382221786B466068A2
:204B0000FEF7BBFC6846037801200343382221786068FEF7BCFC002038BD08B5E6483A2295
:204B2000017840686B46FEF7A8FC6846007808BD38B5E14D04461C2229786B466868FEF765
:204B40009CFC68460078E7210840A107CB0E03431C2229786868FEF79AFC002C06D0012C17
:204B600007D0022C08D0032C0CD108E07120C00507E03920000604E07320C00501E01D206E
:204B80004006E861002038BD38B5CB4D04461B2229786B466868FEF770FC68460078E72134
:204BA0000840A107CB0E03431B2229786868FEF76EFC002C06D0012C06D0022C06D0032CA1
:204BC00008D105E0BD4804E0BD4802E0BD4800E0BD482862002038BD38B5B74D04460A2257
:204BE0006B460C216868FEF748FC68460078EF210840E107CB0E03430A220C216868FEF72B
:204C000046FC002C02D0012C05D101E0AF4801E0FF2080056862002038BDAD48007A00287E
:204C200001D0002070470120704710B5A2486B22017880234068FEF72AFC0A20FDF74BFD73
:204C400010BDF1B586B09C4E069870600021A048049001720D469F4F02AB795D752206984A
:204C6000FEF70BFC00282ED16846007A712803D0682801D0AF2826D1795D31706B228023A7
:204C80007068FEF704FC0A20FDF725FD002492496000421853780A5C795D0698FEF7F7FBC2
:204CA000641C082CF3D36846007A71280AD100226B460C217068FEF7E0FB6946087808728D
:204CC000482806D001246D1C022DC4D3204607B0F0BD0B2201230C217068FEF7D8FB05200D
:204CE000FDF7F9FC0A2200230C217068FEF7CFFB0520FDF7F0FC0A220F230C217068FEF75B
:204D0000C6FB0520FDF7E7FC032103A801910090012310220C210020FEF7B4FA6846007B76
:204D2000803800F08FFE0724E443214600F064FD7F27FF05394600F08BFCB0606846407B1B
:204D4000803800F07FFE214600F056FD394600F07FFCF0606846807B803800F073FE214621
:204D600000F04AFD394600F073FC30610A2200230C217068FEF78BFB0A20FDF7ACFC0A22CC
:204D800016230C217068FEF782FB012004990024087298E74848C06970474748006A704768
:204DA0004548406A704710B584B0044602A800900621414801910178406801233B22FEF7AF
:204DC00061FAC1B26846008940BA20806846408940BA60806846808940BAA080084604B010
:204DE00010BD10B584B0044602A800900621324801910178406801234322FEF743FAC1B2E7
:204E00006846008940BA20806846408940BA60806846808940BAA080084604B010BD70B5AB
:204E200086B0054602A80C4600900E212248019116460178406801233B22FEF723FAC1B2B7
:204E40006846008940BA28806846408940BA68806846808940BAA8806846C08940BA3080A6
:204E60006846008A40BA20806846408A40BA60806846808A40BAA080084606B070BD30B526
:204E800085B00021029103914A00835A491C5B4283520329F8DB01886A4609121172017848
:204EA00051724188091291728178D1728188091211730079507311E054FEFF1F0000FA3B92
:204EC00000007A3C0000FA3C00007A3D0000C04074FEFF1F5C8100005E810000022502A812
:204EE0003F4C019500902178012313226068FEF776FA02A8023001950090217801231522EC
:204F00006068FEF76CFA03A8019500902178012317226068FEF763FA05B030BDF0B5304EC8
:204F200085B00446012502226B460C217068FEF7A4FA68460078284039D0072102A8019164
:204F40000090012303220C210020FEF79BF9C5B26846807B00072AD46946088900B22080EB
:204F600049890FB26780694689890DB200F06AFD3146896800F0C5FB00F092FD064638467F
:204F800000F060FD1649C96800F0BBFB00F088FD0746284600F056FD1149096900F0B1FBB3
:204FA00000F07EFD4042A080668027800025284605B0F0BD10B584B0044602A800900221C2
:204FC000074801910178406801234122FEF75AF969460989C0B249BA218004B010BD000028
:204FE00054FEFF1F024610B5B4480B4601784068FEF743FA10BDF0B5B04E83B0B04D0746A7
:2050000000247060295D02ABD0223846FEF735FA002803D16846007A552804D0641CF1D01F
:20502000012003B0F0BD295D31701620A54C009401900123AA227068FEF724F920880102F7
:205040000004000E01432180608801020004000E01436180A08801020004000E0143A18095
:20506000E08840BAE080208940BA2081608940BA6081A08901020004000E0143A181E08959
:2050800001020004000E0143E181E08A01020004000E0143E182208A01020004000E01432C
:2050A0002182608A01020004000E01436182A08A01020004000E0143A182002003B0F0BD01
:2050C000034610B57D48F42201784068FEF7DFF910BD10B500F0B6FC7B4900F04FFB00F0D7
:2050E0000CFD7A4A7A4B02F023FA0022794B00F039FC0022784B00F03DFC00F027FD10BD15
:20510000F3B5764C6D4A2368012502276D4E1178506887B0082B5AD006DC012B09D0022BF0
:2051200017D0042B42D142E0102B08D0202B3DD143E02E23F422FEF7AAF9102035E0F4223B
:205140006B46FEF79AF96846007880062ED42760B1E002AA009201230197F622FEF792F8BF
:20516000C1B26A46107A527A00028018002901D0039815E07189401A31894843C7131420EB
:20518000305EC1191220305EC00200F0EAF8381800B2F082083000110A2100F0E2F803900E
:2051A00000F050FC089908600420206083E0F4231A46FEF76CF92020F7E7F4226B46FEF7F8
:2051C0005CF968460078800675D40820EDE7F425174604AB2A46FEF750F96946087C01235F
:2051E00080090873032102A8019100903978F6227868FEF747F86946097AC0B20A0469467D
:20520000497A090252186946897A531869460A7B0821891A0B41002801D0059844E01620FD
:20522000305E7D214901401A0E2501460227755F4143F75F09134D434743ED12FF12ED1901
:205240000027F75FBF007D1904279540F75FAD1C474378130C27F75FAD104F4339144018CB
:20526000F188801C01268010F60380194143C90B581B1B4BD34058433204904203D24000D4
:2052800000F059F802E000F056F840000112154A49435143144A0914424312148918134AB7
:2052A000891809110818059000F0CCFB07990860012000252060284609B0F0BD80FEFF1F89
:2052C0006E8100008CFEFF1F80E6C54724D1CB28965BC83F0000F03F40A5E540A4F9FF1FF1
:2052E00050C30000DE0B000043E3FFFFCF0E00000170704770B5027E5300521C1B18027678
:205300005980037E017800228B4200D102764261002200290AD9540024180225655F43698A
:20532000521C5B19D2B243619142F4D8406900F018F800B270BD30B50B460146002020225D
:20534000012409E00D46D5409D4205D31D469540491B2546954040191546521E002DF1DC26
:2053600030BD70B500242546002801DA01244042002901DA01254942FFF7DDFFAC4200D09D
:205380004042002C00D0494270BD03460B439B0703D009E008C9121F08C0042AFAD203E03B
:2053A0000B780370401C491C521EF9D27047D2B201E00270401C491EFBD270470022F6E727
:2053C00010B513460A4604461946FFF7F0FF204610BD30B505462A460B4610781C78521C23
:2053E0005B1C002801D0A042F7D0002C03D0002802D06D1CEFE7284630BDCAB2401E41784E
:20540000401C8A4202D00029F9D100207047421C0178401C0029FBD1801A704730B5044620
:205420000020034600E05B1C934203D2E05CCD5C401BF8D030BD30B505460020034600E014
:205440005B1C934205D2EC5CC85C201A01D1002CF6D130BD0FB400B58DB009900B9010A92F
:2054600000200091C0430A9000200C9006480690064807906A4609A80F9900F0F9FB0DB0AF
:2054800008BC04B018470000915C0000B15C0000FFB50027FF4383B000205C6801909E6870
:2054A0001D46A9697F1C049888470090296A88470028F6D10098401C0CD003204002844394
:2054C000002E19DD600614D500982B2809D02D280FD103E00020C04307B0F0BD0120800253
:2054E0000443A9697F1C04988847761E0090002E02DD0098302803D00598002825D035E08A
:20550000012040020443A969761E7F1C049888470090002E03DD782805D0582803D0059832
:20552000002810D022E00598002801D010281DD1012040028443A969761E7F1C04988847CF
:205540000090102002E0082000E00A2005900DE0012149020C43059A0199761E51430818B8
:205560000190A9697F1C049888470090002E05DD0599009800F067FB0028E9DAE969049881
:205580008847A00502D40120C043A5E7E00722D1600611D56005019800D5404229680A1DDE
:2055A0002A600968220501D5087014E0220701D5088010E008600EE02868011D296000681B
:2055C000210502D50199017005E02107019901D5018000E0016038467EE7F7B582B00F466E
:2055E0000026029C00F0AAFF0090006801902578641C002D05D000F019FB0068405DC007D6
:20560000F5D12B2D02D02D2D1CD0641E00980021016039462046049A00F05CFB0146002F78
:2056200004D03868A04201D1029838600098006802280BD00098019A0260700506D548429C
:2056400005B0F0BD012080020643DFE70846F7E7F8B502464A40D40F42004B0052085B085E
:205660009A4202D20246084611464A0023D0C30D4A00DDB2120EAD1A202D35DA49020126F2
:20568000490AF6058A19002C00D0524220214F1B1146B9402A411018C20D9A4221D0002C33
:2056A00017D0012D08DCDA05801AD20F8019D207DBB200F06AFBF8BDDA05801A01234000B1
:2056C0001B06C01880185A428018CA0F1043490007E04908C2071143DA05801A80194008E1
:2056E000801800F04AFBF8BD61000122511A001BF7E70122D2075140AAE70122D207504096
:20570000A6E7024670B54A40D30FDB0740002DD04A002AD0010E140E000212020919400A0D
:20572000520A8418E50104465443000A120A2E045043A4194219200CC543AA18120C01256D
:20574000AD03521C521912047F39240400D0521C104301D44000491EC2B20C06C009201836
:20576000401C4008802A02D003E0002070BD40084000002900DA0020184370BD70B5024639
:205780004A40D50F40004A00ED0740085208002814D0002A12D0C40DD30D41020120C00589
:2057A0005202490A520AE41A091812187D34914201D3641C00E04900002C01DA002070BD48
:2057C0000023914201D3891A0343400849000028F7D100290AD0914202D10121C90705E015
:2057E000914201D2012101E00121C943E005C018401900F0C2FA70BD420005D04200120E6A
:2058000052428A4201DB00207047C90508187047F0B507460846584087B0C00F0490480016
:205820000E46590040084908BC1A884105D2384631461E4617460B4602465800400810436A
:205840004CD0300D039040055900400D490D0590401A0290402872DA18030121000B090590
:205860000843019004980092002805D0019952420020884100920190029840210A1A01992E
:20588000009800F0AFF905460C466B4607CB00F0B9F9C0197141039A0E0D0023D71756402C
:2058A0001A467A40164344D0049A002A2DD0029A012A039A15DC1205C01A91410126360522
:2058C000001C7141D20F059ED2070093019202962A46234600F09FFA07B0F0BD3846314624
:2058E000FAE71605224A0F46B218C01AB74101210905001C4F4100187F411146181879415A
:20590000E20F10436D19644113E0E2076D0815436408C2071443039A01261205C01A91415C
:205920003605001C7141CE07400830434908C01851412A46234600F061FACDE7FFE70498B9
:2059400001224000C117121A00238B4104983146C417381AA141EEE730B40124E407634063
:2059600030BC55E730B40124E407614030BC4FE70000E0FFF0B51FB488B00B990998002450
:2059800048400999C00F490049080991C0070B990090490049080B9109990898A646084330
:2059A0001CD00B990A98084318D0099801244000420D4800410D099824050003000B20435C
:2059C00009900B980003000B20430B9050181C494018002201901446104605E000200146AB
:2059E0000DB0F0BD032801DA034600E003239C46C11A0AAE0AE05F0008ADED5B4F00F75B8C
:205A00007D430027AA187C41491C5B1E6145F2DD410004AB5A522104120C0A43240C401C15
:205A20000828DFDB019802900099704601910090059B049A0799069800F0EDF9D0E70000D7
:205A40000DFCFFFFC217C10F504010B54018CA079623002100F099F910BD00000EB5C21753
:205A6000C10F5040CA0740180021054B0293019200910A460B4600F0CEF903B000BD0000AB
:205A8000330400000EB505490291002100910A460B46019100F0BFF903B000BD33040000F7
:205AA000C20F410040020123400ADB05D207090EC0187F2901DA00207047962903DC9623CB
:205AC000591AC84001E096398840002AF4D040427047410040020122400AD205090E801836
:205AE0007F2901DA00207047962903DC9622511AC8407047963988407047C20FD207400094
:205B000040080BD0C10D0723DB01C91840020905400A1143C208400711437047002001463C
:205B20007047000010B5002904DB0124E40740428C412146002B04DB1C460123DB07524215
:205B4000A3418B4200D1824210BD0000CB0FDB07490010B5490802460A4307D00A0D072469
:205B60000903E401090B121B002A01DC002010BDC900440F0C43C100E018D205801800F07C
:205B8000FCF810BDF0B51FB40646002082B005464024019100901BE0019922460F46304695
:205BA00000F0B2FA049A059B801A994110D310461946224600F016F8361A8F410197224679
:205BC00001200021009F00F00DF838184D4100902046641E0028DFDC019B0098294632469B
:205BE00007B0F0BD10B5202A04DB0146203A9140002010BD914020239C1A0346E340194362
:205C0000904010BD10B5202A06DBCB170846203A1041C1170B4306E00B461341D040202417
:205C2000A21A91400843194610BD0000004870476C83000010B50446FFF7F8FF0068005DB1
:205C4000C007C00F10BD3A2800D23038202302469A43412A01D310463738884201D300201B
:205C6000C043704702681378511801601846704710B5D1600449516104491162002111614E
:205C8000114600F053FA10BD655C0000355C00004268002A08D001680B78491C002B03D056
:205CA000521E06C0184670470121C160881E70474268002A0BD0C3680168002B07D18368C8
:205CC0008B4204D0491E521C06C0002070470020C0437047F7B582B0029C00272078641C1C
:205CE00015460197302802D0002D15D015E020780127641C782804D0582802D0002D09D074
:205D00000BE0002D01D0102D07D1002710252078641C02E0082500E00A250026009610E047
:205D20000099012769430818020C294680B2714300908E183804864201D30120019020781B
:205D4000641C2946FFF77FFF0028E9DA0398002805D0002F01D0641E00E0029C0460019860
:205D6000002806D000F0EAFB02210160C81E05B0F0BD009930040843F9E7002904DA401C29
:205D8000490001D140084000704770B40024050C05D11024000402D1002921D01124050E0D
:205DA00001D100020834050F01D10001241D850F01D18000A41C002801DB4000641C002918
:205DC00008D020252E1B0D46F540A14000D001212943084301061B1B000ADB1D02D5002015
:205DE00070BC7047DB05181880180029F8DA401C4900F5D170BC40084000704710B5002B57
:205E000008DA0024401C614192185B411A4301D14008400010BDF0B51FB482B005460C00B3
:205E200003D0084600F04CFB02E000F049FB20300246009021462846FFF7D4FE049B059AF1
:205E400004460F4618431143084314D0184610431BD0009840210A1A1846059900F054F9D3
:205E600005460E46009A05990498FFF7BBFE084305D0012004E02046394607B0F0BD002072
:205E8000C11705430E432C43374300990E986305401A7905E40A00220C43FD0A0A3002D5B2
:205EA00000200146E9E70105101969410C9C0D9D00196941FFF7A2FFDFE70000F0B50C4669
:205EC0005C4085B0E40FE40703944C000026640859009446490802460296224321D062463C
:205EE0000A431ED06200570D4A000E032303550D012402462C492405781B1B0B360B401861
:205F000023432643614600901C46501AB44103D30098401C009002E0921800985B41002878
:205F200003DA0020014605B0F0BD0020012109050746864611E064461D46141BB54106D356
:205F40006546521BB341744607430C43A646CD0740084908284392185B4105460D43EAD182
:205F60001046184313D06046194650407140084306D06046101AB34106D20122002306E05E
:205F800000220123DB0702E00122D2435310009874460105381C6141029C039D001969410D
:205FA000FFF72CFFBFE70000FD03000070B54B005B0803430BD04B005C0D0026334665422C
:205FC000B341D417AD1AA34102DB0020014670BD12053018514170BDFEB500231A461B1A3D
:205FE0008A4103DB0020014603B0F0BD4A000D0301212D0B0905520D0D43D10702D10018FD
:206000006D41521E5110FF31FF310131002704463E4638460097019102460121002009053B
:2060200000F072F8C3197141F818324684468E464A4161462846611A904104D36046241AAB
:20604000954176461F46241900986D41401C00903428E1DDF91930467041091BA84103D2A5
:206060000022D243134601E00022134601980105381C7141FFF7C2FEB6E700004A000903E6
:206080000123090B1B0519430A4B10B5520D9A4202DA0020014610BD064B34339A4203DC74
:2060A0009A1A00F031F810BD034BD218FFF79AFD10BD0000FF030000CDFBFFFF10B50029FE
:2060C00004DB0124E40740428C412146002B04DB1C460123DB075242A341994200D19042B3
:2060E00010BD0000064C0125064E05E0E36807CC2B430C3C98471034B442F7D3FAF7E4FF97
:2061000098840000B884000010B5202A04DB0846203AD040002110BD0B46D340D0402024DB
:20612000A21A91400843194610BD0000F3B58DB000200A9001200B90002608460C300C46FE
:2061400009906269012109989047051E2ED0252D2DD0216A8847002818D0626901210998D9
:206160009047216A88470028F7D1411E62690998904700E0761CA1690D988847216A884712
:206180000028F7D1E1690D988847DAE7A1690D9888470746A84201D1761CD2E7E1690D98CF
:2061A00088477F1C02D10A98002877D049E1002762693D463946099890472A280CD1626901
:2061C000012109989047012506E00A214F433F18303FEBD4102005436269012109989047FA
:2061E000014630390A2903D29B498F42DEDCECE7E90600D4994F6C280AD04C2810D06828A8
:2062000024D06A282ED074280CD07A280AD00DE062690121099890476C2823D004211CE00C
:20622000202005436269012109989047A760656065284FD026DC582839D01ADC452849D0F2
:2062400012DC252834D04128B0D143E06269012109989047682802D008210D43E6E70120C4
:20626000C002DEE70220DCE7462833D047282CD130E05B2870D061282CD063286CD064282A
:2062800023D161E06F284FD009DC662822D0672820D0692826D06E2817D12EE0CDE07028D7
:2062A0004DD073286FD075284ED078280DD154E0A1690D9888470546252800D16CE7E169F6
:2062C0000D9888476D1C00D16DE7BAE00A224CE00A2252E0012023466A46C0430D99C04663
:2062E000C046A3E02846402108436060A807234601D5002239E000223FE0E80700D020E70B
:206300002068011D21600068290501D5067018E7290701D5068014E7A90703D5F1170660F8
:2063200041600EE706600CE72846402108436060A807234601D5082217E008221DE04849CD
:2063400028460840606016E02846402108436060A8072346BCD5B9E715E02846402108439F
:206360006060A80707D5234610220120C0430D99C046C0465AE0234610220120C0430D99C2
:20638000FFF786F852E000210C910B460091632802D05B2807D043E0E80601D40120A060F9
:2063A000012000903CE062690121099890475E2805D101200C90014662690998904721697E
:2063C000002906D10B4601AA8F00491CD3510829FADB002835D0216900290ED1C117C90E35
:2063E00009184A11930001AA9A1849094901411A012013688840034313606269012109988F
:2064000090475D28E5D10C98002808D0002001AB81005A58401CD2435A500828F8DB01ABFD
:2064200001202246C0430D99C046C04600280ADA401C06D10B98002803D00020C0430FB05F
:20644000F0BD0A98FBE7E90702D10A99491C0A91361800200B9074E6CCCCCC0CFFFFFF7F56
:20646000F1F7FFFF30B58C180278401C13071B0F01D10378401C120906D10278401C03E03F
:2064800005780D70401C491C5B1EF9D101E00B70491C521EFBD1A142E6D3002030BD000058
:2064A0000FB410B503A9044B044A029800F0A0F910BC08BC04B0184747270000E8F8FF1FD9
:2064C0002021020C01D010211046020A01D010460839020901D01046091F820801D0104696
:2064E000891E420801D0881E7047081A70470A7802704B7843708A788270CA78C2700B794E
:2065000003714A7942718A798271CB79C37170474900CA020243100000D004204A0D01D0E6
:2065200001221043044A490D914201D102210843012800D105207047FF0700000048704753
:20654000A8F9FF1FF8B504464F1EC8000838211815461E46086849683A4606239A4310D091
:206560002A463346FFF706FA3A46D200083AA3181A687F1E5B68FFF74BF906223B46934352
:20658000EED1022F23D0042F11D0062F2FD12A463346FFF7EFF9E36AA26AFFF739F92A4617
:2065A0003346FFF7E7F9636A226AFFF731F92A463346FFF7DFF9E369A269FFF729F92A467D
:2065C0003346FFF7D7F963692269FFF721F92A463346FFF7CFF9E368A268FFF719F92A46A1
:2065E0003346FFF7C7F963682268FFF711F9F8BD002210B5134610460149FFF75FFC10BD64
:206600000000F03F10B50122FFF7D0FC10BD10B5FFF7FEF810BD002210B513461046114669
:20662000FFF74CFC10BD000010B50721024A00200907FFF7BBFC10BD01030000034A10B556
:2066400000201107FFF7B2FC10BD000001FDFFFF02E008C8121F08C1002AFAD17047704786
:20666000002001E001C1121F002AFBD1704700000149086070470000A8F9FF1FF0B51FB4D9
:2066800086B00998089A030D0021024314D05148514A1818504305141198012810981AD0B3
:2066A000281A401C00264D4F4D49009601910490002812DA444211E01198012449A30128BA
:2066C00001D11098C1430698119A84600360C26041600BB0F0BD4042E4E7044621050020A4
:2066E0003F4A001C51410391029012E0E00707D032463B4601990098FFF73CF90191009015
:2067000032463B4610461946FFF734F906460F466410002CEAD10498039B0028029A09990C
:20672000089806DAFFF726F9019B009AFFF722F905E0FFF7C3FB019B009AFFF7BFFB0446B4
:206740000E460022284BFFF7B9FC03D80020C043014607E00022254B20463146FFF758F8C4
:20676000FFF78CFC102409E0002C0ADB0A220023FFF708FA079B30321A55641E02460A439C
:20678000F2D11122641C079B121B1C19119B012B03D0012308430ED10AE0084304D011204C
:2067A00010900020119077E71098151A6D1E0BE01098824202DD00236D1C03E0824201DA54
:2067C00000236D1E002BEED0069811998260C16030C07EE701FCFFFF104D000000001440D6
:2067E0000000F03F300000000000F0430000E03FFFB597B00646002518E2252877D10024C9
:206800002746FD49049400E00443761C32780120203A90400842F7D130782A280ED0022271
:20682000307801463039092916D804990A235943303940181443761C0490F1E7189802C8EA
:2068400004911890002904DA0120400304434842049002200443761C30782E2814D1042029
:2068600004437078761C2A2809D11898761C80C8189009E00A214F43303FC719761C3078CA
:20688000014630390929F5D930786C2810D006DC4C281AD068280ED06A2817D104E0742884
:2068A00013D07A2812D110E00120400504430CE00121090501E0032109050C4371788142A9
:2068C00003D1012000052418761C761C3078119066280BD013DC58287DD009DC00287BD098
:2068E0004528F6D04628F4D047281AD1A5E118E0632835D0642870D0652812D19DE1702879
:206900006CD008DC6728F1D069287BD06E280DD06F2806D1BAE073282ED0752871D0782899
:2069200059D01A9A199990476D1C7EE16002400F022809D003280DD00428189801680DD02B
:206940000D60001D189070E11898EA1701680D604A60F6E7189801680D80F2E70D70F0E7D3
:2069600018986A4601781172001D18900020507202A80090012005E0189802C81890002092
:206980000091C04361070DD5002101E00199491C0191B94212DA8142F8DB009A515C002999
:2069A000F4D10BE0002101E00199491C01918142FADB019A0099895C0029F5D101990498BE
:2069C0001A9B471A21463846199A00F097FA0199401945180BE04FE02CE113E04EE0009858
:2069E00000990078491C00911A9A199990470198401E0190401CF2D1214638461A9B199A5F
:206A000010E137E00A200021009001916002410F022907D0189A01CA1892C2179446032947
:206A200008D00AE01898C01DC108C90005C91891944607E000B2C2179446042902D140B2E6
:206A4000C1178C4600226146944506DA0A460021404291418C462D2102E0210504D52B21F8
:206A60006A461173012103E0E10701D02021F7E7029155E00A200AE0102008E01020009051
:206A80000021042004430191082703E008200021019100906002410F022907D0189A01CA2A
:206AA000189200229446032908D008E01898C01DC108C90005C91891944603E080B2042992
:206AC00000D1C0B200210291210729D51199702906D0009A1021019B4A401A4305D00EE06F
:206AE00040216A461173012108E06146014306D030216A4611731199517302210291009AF3
