:020000040000FA
:10800000A01E002049830000A1A00000F78200000C
:1080100055830000578300005983000000000000D2
:108020000000000000000000000000005B83000072
:108030005D830000000000004382000071A6000084
:108040006383000061A1000091AB00006383000026
:108050006383000063830000A99500006383000030
:1080600035AA00004DAA000065AA00006383000045
:108070006383000063830000638300006383000068
:108080006383000063830000638300006383000058
:108090006383000063830000638300006383000048
:1080A0006383000063830000638300006383000038
:1080B00063830000638300000000000000000000F4
:1080C0006383000063830000638300006383000018
:1080D00063830000638300006383000000000000EE
:1080E0000000000000000000000000000000000090
:1080F0000000000000000000000000000000000080
:10810000000000000000000000000000000000006F
:10811000000000000000000000000000000000005F
:10812000000000000000000000000000000000004F
:10813000000000000000000000000000000000003F
:10814000000000000000000000000000000000002F
:10815000000000000000000000000000000000001F
:10816000000000000000000000000000000000000F
:1081700000000000000000000000000000000000FF
:1081800000000000000000000000000000000000EF
:1081900000000000000000000000000000000000DF
:1081A00000000000000000000000000000000000CF
:1081B00000000000000000000000000000000000BF
:1081C00000000000000000000000000000000000AF
:1081D000000000000000000000000000000000009F
:1081E000000000000000000000000000000000008F
:1081F000000000000000000000000000000000007F
:10820000DFF80CD000F0C6FE004800475D0E01000C
:10821000A01E0020EFF3108072B6704780F3108824
:108220007047434A1368012B04D04FF001031360D9
:10823000404A1060404A116040484FF08051016050
:108240007047EFF3108272B63948016851B34FF0AE
:10825000000101603748016891B1EFF309811EF018
:10826000100F08BF21ED108B21E9F00F4FF0000433
:108270001EF0100F08BF012441F8044D0068016092
:108280002D490968096808C9B1E8F00F002B18BF2B
:10829000B1EC108B81F309884EF0100E002B18BF43
:1082A0002EF0100E82F310884EF0040E7047224913
:1082B0000860EFF3148222F0040282F314881D494F
:1082C0004FF0000008601A494FF0010008601C4898
:1082D0004FF47F01D0F8002041EA02010160174805
:1082E0004FF08051016017480068006880F30888EB
:1082F00061B662B670471EF0040F0CBFEFF3088042
:10830000EFF3098020E9F00F40F804ED40F804EDA8
:108310001EF0040F0CBF80F3088880F3098800B5B5
:1083200009F01EFF5DF804EB4EF0040E70470000EC
:10833000E4020020DC020020E002002004ED00E066
:1083400020ED00E008ED00E00648804706480047C1
:10835000FEE7FEE7FEE7FEE7FEE7FEE7FEE7FEE7F5
:10836000FEE7FEE7FDA60000018200002DE9F05FB8
:108370000546002092469B46884606468146402494
:108380001BE0284641464746224600F084FB534600
:108390005A46C01A914110D311461846224600F0A1
:1083A0006BFB2D1A67EB01084F4622460120002186
:1083B00000F062FB17EB00094E41201EA4F10104FE
:1083C000DFDC484631462A464346BDE8F09F40EA96
:1083D00001039B0703D009E008C9121F08C0042A43
:1083E000FAD203E011F8013B00F8013B521EF9D22A
:1083F0007047D2B201E000F8012B491EFBD2704752
:108400000022F6E710B513460A4604461946FFF760
:10841000F0FF204610BDCAB2401E10F8011F8A426C
:1084200002D00029F9D100207047421C10F8011B2E
:108430000029FBD1801A704710B5002200E0521CC1
:10844000835C8C5CA34201D1002BF8D1D8B2E1B29D
:10845000401A10BD30B504460020034600E05B1C06
:10846000934203D2E05CCD5C401BF8D030BD30B508
:1084700005460020034600E05B1C934205D2EC5CFD
:10848000C85C201A01D1002CF6D130BD30B50346AE
:108490001D783DB10A4612F8014B1CB1AC42FAD12D
:1084A0005B1CF5E7181A30BD30B50546002008E022
:1084B0000A4602E0A34207D0521C1378002BF9D1E0
:1084C000401C2C5C002CF3D130BD00000FB400B573
:1084D0008DB010A909900B9000914FF0FF300A90D9
:1084E00000200C9005480690054807906A4609A8A8
:1084F0000F9900F015FB0DB05DF814FB3D8B0000EB
:108500005B8B00002DE9FF5F1D464FF0FF3BD5E977
:10851000014691465F464FF00008A9697F1C01980B
:108520008847296A824688470028F6D1BAF1FF3F7A
:108530000CD024F4C064002E19DD600614D5BAF105
:108540002B0F09D0BAF12D0F0ED103E0584604B01D
:10855000BDE8F09F44F48064A9697F1C01988847B6
:10856000761E8246002E02DDBAF1300F03D0B9F13B
:10857000000F26D032E0A969761E44F400747F1CF7
:10858000019888478246002E05DDBAF1780F06D0A3
:10859000BAF1580F03D0B9F1000F10D01EE0B9F1B5
:1085A000000F02D0B9F1100F18D1A969761E24F47A
:1085B00000747F1C019888478246102002E0082042
:1085C00000E00A20814609E008FB0908A969761E37
:1085D00044F400747F1C019888478246002E05DD14
:1085E0004946504600F087FA0028EDDAE96901981B
:1085F0008847A00502D46FF00100A8E7E00725D165
:10860000600613D5600502D5C8F1000000E04046C1
:1086100029680A1D2A600968220501D5087015E03D
:10862000220701D5088011E008600FE02868011DCD
:1086300029600068210502D580F8008006E0210746
:1086400002D5A0F8008001E0C0F8008038467EE73F
:108650002DE9FF5FD2E901A74FF000089169994623
:108660001446DDF838B0464601988847054659EA71
:108670000B0005D009E0A169761C019888470546E2
:10868000216A284688470028F5D1681C03D05FEA94
:10869000CA7005D015E04FF0FF3004B0BDE8F09F80
:1086A0002068011D2160D0F800800AE05FEACA70EE
:1086B00001D108F8015BA169761C7F1E01988847EB
:1086C0000546002F1ADD681C18D0B9F1000F0DD037
:1086D000E81705EBD060421120F01F0059F8221076
:1086E0002A1A012090400142E0D107E0BBF1000FBF
:1086F000DCD1216A284688470028D7D0E169019853
:108700008847BBF1000F07D1002E05DD5FEACA7074
:1087100002D1002188F80010A068B84203DDBBF147
:10872000000F03D017B16FF00100B6E73046B4E791
:108730002DE9F05F93460F4680460446002602F07E
:1087400069FBD0F80090824614F8015B2DB100F06F
:10875000C5F90068405DC007F6D12B2D02D02D2D44
:108760001AD0641E0021CAF800105A463946204625
:1087700000F004FA014627B13868A04201D1C7F8D9
:108780000080DAF80000022809D0CAF800907005CD
:1087900005D54842BDE8F09F46F48066E2E708460A
:1087A000F8E770B5064602F035FB046805460A2274
:1087B0000021304600F031FA2C6070BD2DE9FE4FEB
:1087C000804681EA0300C00F0C46009021F0004172
:1087D00023F00045B8EB0200A94105D240462146EE
:1087E00090461C460B46024623F00040104347D0FB
:1087F000270DC7F30A00C3F30A510290401A0190F3
:1088000040286BDAC3F3130040F4801B00989246B3
:1088100020B10023D2EB030A63EB0B0B01985946FE
:10882000C0F14002504600F027F906460D4650467A
:108830005946019A00F03FF910EB0800614100240D
:1088400087EA115284EAE7731A4340D0009A62B370
:10885000019A012A4FEA075215DC001B61EB020165
:108860004FF0004202EA0752CDE90042001C41F5F8
:10887000801132462B4600F04EFA03B0BDE8F08F6F
:1088800040462146F9E7001B61EB0201001C41F55F
:10889000801300185B412018A2F5001747EB030175
:1088A00040EAD570B6196D4111E06D084FEA360601
:1088B00045EAC0754FEA0752001B61EB0201001C3C
:1088C00041F5801149084FEA300000195141324604
:1088D0002B4603B0BDE8F04F00F00EBA009801221D
:1088E00040000023D0EB020263EBE07300982146C6
:1088F0004FEAE074B8EB000061EB0401E9E783F0B4
:1089000000435BE781F0004158E72DE9FE4F81EA23
:10891000030404F0004421F0004100944FF0000BE8
:1089200023F0004350EA01045ED052EA03045BD016
:10893000C3F30A54C1F30A552C44A4F2F33401944E
:10894000A0FB0254C1F3130141F48011C3F31303DC
:1089500043F4801301FB024400FB034E840A970A90
:1089600044EA815447EA8357A4FB076802958D0ABD
:1089700005FB07854FEA932C04FB0C542705029D49
:108980004FEA065847EA1637B5EB08056EEB070CB9
:10899000870E920E47EA811742EA8312A7FB020173
:1089A000B6EB0B0164EB00042B0D43EA0C335E18AD
:1089B00044EB1C50DA465146E7FB0201C5F31304B1
:1089C0004FEA0B3343EA14534FEA0432019C43EA63
:1089D0000603A4F10C040294009CCDE900B400F05D
:1089E0009AF903B0BDE8F08F00200146F9E700F0E6
:1089F000004230F000400AD0C10D01F56071C0F3B3
:108A0000160042EA0151C208400711437047002096
:108A10000146704701F0004330B421F0004150EAB4
:108A2000010206D00A0DA2F56072C1F31301002AFB
:108A300002DC30BC00207047440F44EAC104C1008E
:108A4000E01830BC00EBC25000F01FB930B50B4647
:108A5000014600202022012409E021FA02F59D426E
:108A600005D303FA02F5491B04FA02F52844151E42
:108A7000A2F10102F1DC30BD202A04DB203A00FA29
:108A800002F1002070479140C2F1200320FA03F365
:108A9000194390407047202A04DB203A21FA02F063
:108AA0000021704721FA02F3D040C2F12002914028
:108AB000084319467047202A06DBCB17203A41FAB3
:108AC00002F043EAE07306E041FA02F3D040C2F15B
:108AD0002002914008431946704700000048704743
:108AE000F452010010B50446FFF7F8FF0068005D7E
:108AF00000F0010010BD3A2800D2303820F02002EA
:108B0000412A01D3A2F13700884201D34FF0FF3050
:108B100070470000026811441378016018467047DE
:108B2000D16004495161044911620021116111466B
:108B300000F042BA158B0000E58A0000426842B19D
:108B4000016811F8013B23B1521EC0E9001218461A
:108B500070470121C160881E704742685AB1C368DE
:108B6000016843B983688B4205D0491E521CC0E995
:108B70000012002070474FF0FF3070472DE9F05F82
:108B800082460078002715468B460AF10104B94653
:108B9000302801D09DB113E014F8010B012778288B
:108BA00003D0582801D045B10AE00DB1102D07D1EE
:108BB0000027102514F8010B02E0082500E00A2523
:108BC0000026B0460EE005FB080005FB06F1012774
:108BD00001EB10461FFA80F8B6F5803F00D3B94686
:108BE00014F8010B2946FFF786FF0028EBDABBF1EA
:108BF000000F05D00FB1641E00E05446CBF80040D2
:108C0000B9F1000F06D002F005F902210160C81E7B
:108C1000BDE8F09F48EA0640FAE72DE9F0479146A3
:108C20000F4680460446002614F8015B2DB1FFF77D
:108C300055FF0068405DC007F6D12B2D02D02D2DC9
:108C400018D0641E4A4639462046FFF797FF27B1E1
:108C50003968A14201D1C7F8008071054FF00204C4
:108C60000BD54042002803DD02F0D4F80460A007D1
:108C7000BDE8F08746F48066E4E70028F8DA02F001
:108C8000C9F804606FF00040F2E70029A8BF704700
:108C9000401C490008BF20F00100704710B4B0FA32
:108CA00080FC00FA0CF050EA010404BF10BC7047CD
:108CB00049B1CCF1200421FA04F411FA0CF118BFE7
:108CC000012121430843A3EB0C01CB1D4FEA0061B6
:108CD0004FEA102042BF002010BC704700EBC35089
:108CE00010440029A4BF10BC7047401C490008BFB5
:108CF00020F0010010BC704710B5141E73F1000481
:108D000008DA401C41F1000192185B411A4301D17D
:108D100020F0010010BD2DE9F04D92469B4611B1A7
:108D2000B1FA81F202E0B0FA80F220329046FFF709
:108D3000A3FE04460F4640EA0A0041EA0B015346EF
:108D40005A46084313D0114653EA010019D0C8F11E
:108D500040025046FFF79FFE05460E4650465946D4
:108D60004246FFF789FE084305D0012004E0204673
:108D70003946BDE8F08D0020054346EAE0762C43F5
:108D800037430A986305E40AA0EB08000022FD0AB5
:108D900044EA47540A3002D500200146E9E70105BC
:108DA00010196941DDE9084500196941BDE8F04D38
:108DB000A2E72DE9F04D81EA030404F0004B21F015
:108DC000004514464FF0000A23F0004150EA050226
:108DD00020D054EA01021DD0C5F30A570246C5F35C
:108DE0001303C1F31300C1F30A5640F4801543F492
:108DF0008013A7EB0608101BD64608F2FD3873EB6C
:108E0000050002D308F1010801E092185B41B8F1B6
:108E1000000F03DA00200146BDE8F08D00204FF47A
:108E20008011064684460EE0171B73EB050705D339
:108E3000121B63EB050306434CEA010C49084FEA99
:108E4000300092185B4150EA0107EDD152EA03006D
:108E500012D082EA040083EA0501084305D0101B02
:108E6000AB4106D20122002306E000224FF000436E
:108E700002E06FF0010253101AEB06004CEB0851B0
:108E800010EB0A0041EB0B01BDE8F04DFFF734BFDA
:108E90002DE9F04D00231A461B1A8A4103DB0020FE
:108EA0000146BDE8F08DC1F30A52C1F3130141F44C
:108EB00080154FF0000BD10702D100186D41521EF2
:108EC0000027044640F2FF11384601EB620A3E4695
:108ED0008046024600204FF48011FFF7DCFDC219E6
:108EE0007141BB1846EB0100B4EB030C75EB000CB1
:108EF00004D3E41A65EB000517460E46241908F161
:108F000001006D4180463428E3DDF91946EB060087
:108F1000091BA84103D24FF0FF32134601E00022A3
:108F200013461BEB070046EB0A51BDE8F04DFFF777
:108F3000E3BEC1F30A52C1F3130140F2FF3341F41F
:108F400080119A4202DA00200146704740F2334312
:108F50009A42A2F2334202DC5242FFF79CBDFFF775
:108F60008BBD000030B5041E71F1000404DB4FF02E
:108F70000044404264EB0101141E73F1000405DB60
:108F80001C464FF00043524263EB0403994208BF72
:108F9000904230BD064C074D06E0E06840F001030A
:108FA00094E8070098471034AC42F6D3FFF72CF949
:108FB000045C0100245C01002DE9F34F8BB04FF0FD
:108FC000000801F10C000C464FF0010B46460DF174
:108FD000080A01906269012101989047051E2DD071
:108FE000252D2CD0216A8847C0B1626901210198E2
:108FF0009047216A88470028F7D1411E626901988D
:10900000904700E0761CA1690B988847216A884741
:109010000028F7D1E1690B988847DBE7A1690B9835
:1090200088470746A84201D1761CD3E7E1690B982F
:1090300088477F1C02D1B8F1000F6FD046E10027AE
:1090400062693D463946019890472A2804D16269F1
:109050000121019890470125DFF88492626901217E
:1090600001989047A0F130010A290AD24F45E5DC6A
:1090700007EB870100EB4107303FDFD445F01005D7
:10908000ECE7E90601D46FF000476C280AD04C28C1
:1090900014D0682815D06A280DD074281CD07A28DE
:1090A0001AD01DE062690121019890476C2802D016
:1090B00045F0040514E045F002050DE045F02005FB
:1090C0000AE06269012101989047682802D045F0C2
:1090D000080505E045F400656269012101989047A3
:1090E000C4E9015765283DD019DC58287AD00CDC3A
:1090F000452837D004DC252826D0412831D131E05D
:1091000046282FD047282CD12CE05B2877D0612827
:1091100028D063287CD0642823D15AE0D0E06F287F
:1091200048D008DC66281DD067281BD0692821D0CC
:109130006E2816D127E0702845D0732868D075288E
:1091400047D078280DD14DE0A1690B988847054696
:1091500025283FF469AFE1690B9888476D1C3FF4FF
:109160006AAFB3E023466A466FF001000B99AFF394
:1091700000809EE045F040006060A80723464FF065
:10918000000236D43EE0E8077FF447AF2068011DB7
:1091900021600068290501D506701BE7290701D564
:1091A000068017E7A90703D5F117C0E9006111E7A9
:1091B00006600FE745F040006060A80723464FF0C7
:1091C000080216D41EE040F60E0125EA0100606098
:1091D00016E045F040006060A80723464FF00A0201
:1091E00007D40FE045F040006060A80708D523468B
:1091F00010226FF001000B99AFF3008059E007E0F7
:10920000234610226FF001000B99FFF77BF950E025
:109210004FF000094F464B46632802D05B2806D02A
:1092200040E0E80601D40120A06001273AE062692D
:109230000121019890475E2805D14FF0010962692C
:10924000494601989047216939B900210A46534699
:1092500043F82120491C0829FADBB0B3216969B918
:10926000C11700EBD16253110AEB830122F01F02F8
:10927000821A01200B68904003430B606269012150
:10928000019890475D28E8D1B9F1000F09D000207E
:10929000514651F82020D24341F82020401C082894
:1092A000F7DB02AB224600976FF001000B99FFF746
:1092B000CFF900280CDA401C08D1BBF1000F05D013
:1092C0004FF0FF300DB0BDE8F08FFFE74046F9E703
:1092D000E90701D108F1010806444FF0000B79E6D7
:1092E000CCCCCC0C70B58C1810F8015B15F00703D2
:1092F00001D110F8013B2A1106D110F8012B03E02F
:1093000010F8016B01F8016B5B1EF9D12B0705D436
:109310000023521E0DD401F8013BFAE710F8013B7F
:10932000CB1A921C03E013F8015B01F8015B521E9B
:10933000F9D5A142D8D3002070BD000010B508684F
:1093400000221146401CFFF7F3F90C4AA0F5166104
:10935000914211D80A4C0021C4E91601014609A026
:109360000BF084FB1C2204F1540109A007F064FBFC
:109370000120E065002010BD012010BDA0060E00F8
:1093800048030020424155443D25640D0A00000079
:10939000735F696E746600000021012200B59007BA
:1093A00082600260054A00F079FA012804D0491C65
:1093B0009142F8DB012000BD002000BDA086010025
:1093C00001F078B910B5086800221146401CFFF77B
:1093D000AFF9034900B10120C865002010BD0000AD
:1093E000480300202DE9F0430D46032187B00846CD
:1093F00007F088FD07460321084607F083FD3A4C35
:1094000006463846D4F8C81207F0E2FC3046D4F8D5
:10941000D81207F0DDFC04F5337103228846684654
:109420000BF0A8FB04F537710322894603A80BF063
:10943000A1FB2EA128680AF013F90025002847D0C7
:1094400003F0FEFA204607F017FC01212046E565EF
:1094500008F000FA3946D4F8C80207F0B9FC3146E2
:10946000D4F8D80207F0B4FC0322694640460BF05A
:1094700081FB032203A948460BF07CFBD4F8C80209
:1094800007F0E1FC8200D4F8C802416819A007F097
:10949000D3FA0C22414619A007F0CEFAD4F8D8022C
:1094A00007F0D1FC8200D4F8D802416815A007F07B
:1094B000C3FA0C22494615A007F0BEFA384608F058
:1094C000E9FD304608F0E6FD07B00020BDE8F08376
:1094D00003F0B6FA044807F0CFFB01210248E56526
:1094E00008F0B8F9EAE70000480300203D414C4C81
:1094F000000000006163635F6D6973006163635F17
:10950000620000006779725F6D6973006779725F4E
:1095100062000000094B0221196009490A68002A0B
:10952000FCD0064A121D106008680028FCD00020FC
:10953000186008680028FCD00020704704E501404E
:1095400000E40140704700002DE9F0430023DFF8FC
:109550005080DFF850901EE0C41804F00305AC43BF
:10956000ED004FF0FF0CCE5C0CFA05FC2768AE4016
:1095700027EA0C073E4401254F46C9F80050D8F8A9
:109580000050002DFBD02660D8F80040002CFBD006
:1095900000243C605B1C9342DED30020BDE8F083D6
:1095A00000E4014004E501402DE9F04109F0DAF85A
:1095B00000240D4D0D4F264605EB8400D0F8001118
:1095C000012909D1C0F80061385D03F05BFE18B1D4
:1095D000416809B100208847641C082CECDBBDE819
:1095E000F04109F0D7B80000006000409000002072
:1095F00070B50C4605460A2A2CD2DFE802F00511A8
:10960000072B132B2B2B131DFF2200E001222846D2
:1096100001F016F800222146284600F077F819E0FC
:109620000022F4E7042A05D00022284600F01CF8A6
:109630000122F0E70122F8E70122284600F066F84F
:1096400001222146284600F00FF801222146284633
:1096500000F04AF8284670BD02480068C84000F093
:109660000100704710050050012088400AB10349ED
:1096700001E00249091D086070470000080500501C
:1096800030B5184A01244023082824D2DFE800F02E
:10969000040B0D121416181F11B1C2F804431AE07E
:1096A000C2F8084317E0022000E0042089B1C2F8A4
:1096B000040310E00820F9E71020F7E72020F5E781
:1096C00011B1C2F8043306E0C2F8083303E0802089
:1096D000ECE7C2F808034FF0E020C0F800310020AA
:1096E00030BD000000600040880000F1A040D0F8CC
:1096F000001721F4E061C0F80017002A05D0D0F867
:10970000001741F4C061C0F800177047880000F1ED
:10971000A040D0F8003723F00203C0F80037012042
:109720008840012A02D00349086070470149091F97
:10973000FAE700001C05005030B585B0086804AB9E
:109740006A4615A1FEF7C2FE02280CD114A1684694
:10975000FEF772FE134C04F57A7538B112A1684613
:10976000FEF76AFE50B1012005B030BD0FA004998C
:1097700009F068F80498C4F8EC0306E012A0049914
:1097800009F060F80498C4F8F0030C22294613A0ED
:1097900007F052F90020E7E73D2533732C256400DC
:1097A000434E5400480300204652510064657669D8
:1097B0006365206D617820636E7420736574207416
:1097C0006F3A25640D0A000072662066727120737C
:1097D000657420746F3A25640D0A000072665F6339
:1097E0006667000070B50C460868FEF71EFE0D4D5A
:1097F00088B1206800221146401CFEF799FF04281A
:109800000ED8C5F8E8030C2205F57A7106A007F01A
:1098100013F9002070BD06A0D5F8E8130BF026F967
:10982000012070BD4803002072665F636667000018
:1098300025640D0A0000000070B50C460868FEF7AC
:10984000F4FD0D4D88B1206800221146401CFEF742
:109850006FFF10280ED8C5F8E8030C2205F57A71C1
:1098600006A007F0E9F8002070BD06A0D5F8E813BF
:109870000BF0FCF8012070BD4803002072665F63A6
:109880006667000025640D0A0000000008B1002092
:1098900070470148006870473C0300200248006898
:1098A000C00700D0012070470C0400400148006848
:1098B00070470000000400404FF08051086E496E70
:1098C0004840704708B5054B6946187801F088F99B
:1098D0000028F9D19DF8000008BD0000C401002057
:1098E00070B50C460868FEF7A0FD0B4D70B12068FE
:1098F00000221146401CFEF71BFF2862142205F1CE
:10990000200106A007F098F8002070BD05A0296A84
:109910000BF0ACF8F8E7000048030020755F6366C1
:109920006700000025640D0A000000002DE9FC41DD
:10993000DE4D0C46DE4AD5E906010023FEF716FD92
:1099400006461746DBA12068FEF776FD28B1DAA1AE
:109950002068FEF771FD002823D1D8A10620CDE9AB
:10996000000100230122DD21D7A00BF07FF8DCA04D
:109970000BF07CF8E3486A6AE3A150F82230E4A0D7
:109980000BF074F8E6A1E7A02A6A0BF06FF8E8A1E3
:10999000E9A0AA680BF06AF8EAA1ECA06A6D0BF0E6
:1099A00065F8EDA12068FEF747FD002817D1ECA16E
:1099B000EEA0D5F8B4230BF059F8F0A1F1A0D5F83A
:1099C000CC230BF053F8F2A1EEA0D5F8D0230BF086
:1099D0004DF8F2A1EBA0D5F8D4230BF047F8F2A193
:1099E0002068FEF729FD4FF47A78002840D1B3A211
:1099F000EFA1F2A00BF03AF8F3A2F6A1EFA00BF062
:109A000035F8F7A1D1A02A680BF030F8F7A1CAA069
:109A1000AA680BF02BF8B7FBF8F13C23B6FBF3F088
:109A20004FF46167B6FBF7F203FB106007FB1262AD
:109A3000B2FBF3F3B6FBF7F2CDE90001EDA1EFA025
:109A40000BF014F8F3A1B7A0EA680BF00FF8686800
:109A500008B1F4A200E0F6A2F7A1D8A00BF006F836
:109A6000A848F7A1083843780278F7A00AF0FEFF6B
:109A7000F9A12068FEF7E0FC002830D1D5F80823D2
:109A8000F7A1B2A005F542750AF0F0FFF6A1AFA06C
:109A9000AA680AF0EBFFF6A1ACA06A680AF0E6FF3C
:109AA000F5A1AAA0EA6B0AF0E1FFF5A1F6A0EB6A26
:109AB0002A690AF0DBFFF8A1F9A0AB6A6A690AF02B
:109AC000D5FFFCA1F0A06B6AAA690AF0CFFFD5E927
:109AD0000723FAA1FBA0A5F542750AF0C7FFFDA177
:109AE0002068FEF7A9FC40B907F0B3F807F060F86A
:109AF0004246FAA195A00AF0B9FFFAA12068FEF744
:109B00009BFC002834D195F8DA23F8A1F9A005F5DB
:109B100076750AF0ABFFE868FEF769FF41EC100BC1
:109B2000F7A153EC102BF8A00AF0A0FF2A78F9A1B6
:109B3000FBA00AF09BFF6A78FCA1EEA00AF096FF5A
:109B40006868FEF754FF41EC100BFBA153EC102B9F
:109B5000EDA00AF08BFFA868A5F57675FEF747FF24
:109B600041EC100BF6A153EC102BE7A00AF07EFF9E
:109B7000F7A12068FEF760FC88B9F6A1DDA0D5F852
:109B8000E8230AF073FFF5A1DAA0D5F8EC230AF078
:109B90006DFFF6A1D7A0D5F8F0230AF067FFF5A175
:109BA0002068FEF749FC002849D15DA1D1A02A6AAE
:109BB0000AF05CFF54A1CFA06A6A0AF057FFE5A142
:109BC000CCA0D5F8E8230AF051FFECA1C9A0AA6DFA
:109BD0000AF04CFFEBA1C7A0AA6A0AF047FF296F61
:109BE000EDA0B1FBF8F2E9A10AF040FFEDA1C1A0A0
:109BF0006A6F0AF03BFFE86AFEF7F9FE41EC100BD2
:109C0000EAA153EC102BECA00AF030FF286BFEF712
:109C1000EEFE41EC100BECA153EC102BE6A00AF089
:109C200025FFEBA1B3A0D5F838230AF01FFFEBA066
:109C30000AF01CFFF2A0D5F8F81203F0EFF9F3A137
:109C40002068FEF7F9FB28B9062300220121F1A0C4
:109C50000AF00CFFF2A12068FEF7EEFB002824D1E9
:109C6000D5F8C812F0A005F5327503F0D7F9032234
:109C7000EF49E3A003F020FAEEA0296903F0CEF942
:109C8000EB4903221031DEA003F016FAE849032263
:109C90003039EAA003F010FAEBA0296A03F0BEF90C
:109CA000E34903222031D6A0D2E1DAE148030020C3
:109CB00040420F00000000003D4C00004170722047
:109CC00032332032303230000D0A4849256447577C
:109CD0002025642E25642E25642025730D0A00009E
:109CE00032303037202D203230313920436F7079B7
:109CF0007269676874206279204869504E55430D37
:109D00000A000000F00200204D4F44453A000000D8
:109D1000252D3136732564282573290D0A0000008E
:109D200049443A00252D313673307825580D0A0004
:109D3000555549443A000000252D313673253038F9
:109D4000580D0A004F44523A00000000252D3136CC
:109D5000732564487A0D0A003D465553494F4E001D
:109D6000465553494F4E5F4652513A00252D3136E4
:109D700073202564487A0D0A000000005941575F9E
:109D800054433A00252D3136732025640D0A000016
:109D900050495443485F54433A000000524F4C4CE2
:109DA0005F54433A000000003D435055000000005E
:109DB0006275696C6420646174650000252D31361C
:109DC0007325730D0A00000032323A35393A3039C2
:109DD000000000006275696C642074696D650000A4
:109DE000636F726520636C6F636B000075756964E7
:109DF0000000000074696D6500000000252D3136FB
:109E00007325643A25643A25642025646D7365637F
:109E10000D0A0000726573657420636175736520B7
:109E20000000000065787465726E616C00000000CF
:109E3000696E746572616C006F73632000000000CE
:109E40006370752000000000252D31367325642EC7
:109E5000256425250D0A00003D53454E534F520001
:109E600067797220667271006163632066727100A7
:109E70006D61672066727100707273206672710086
:109E80006779722020627700252D31367325645B57
:109E90002564487A5D0D0A00677972202072670098
:109EA000252D31367325645B25644450535D0D0ABE
:109EB000000000006163632020627700616363201B
:109EC00020726700252D31367325645B2564475D5C
:109ED0000D0A00003D535953000000006F732074B9
:109EE00069636B003D4853490000000076616C696E
:109EF000643A0000252D31367325640D0A000000F8
:109F00006669746572723A00252D31367325660DC7
:109F10000A00000062696E5F7374617475733A00C1
:109F2000252D313673256425250D0A0063616C5F8C
:109F3000636E743A00000000666C75783A000000A9
:109F4000696E636C696E6174696F6E3A000000003F
:109F50003D524600475749443A0000004D415820C1
:109F6000534C5620434E543A0000000054582046AB
:109F700052513A003D5553520000000042415544B1
:109F80003A0000004F545950453A000043414E5F9B
:109F9000424155443A000000252D31367325644B6B
:109FA0000D0A000043414E5F49443A00474C4D467C
:109FB0005F5448523A000000252D31367325302E6B
:109FC00034660D0A0000000047425F5448523A00D0
:109FD000494D555F434F4F52443A00005553455247
:109FE000205245464552454E4345204652414D4537
:109FF000204F4620524F544154494F4E3A0D0A00CB
:10A000006E6F686561646572000000003D564552E0
:10A010000000000025642E25642E25640D0A000032
:10A020003D43414C000000004143430D0A00000045
:10A03000140600204759520D0A00000052432047E1
:10A0400059520D0A000000004D41470D0A00000062
:10A0500003F032F895F8112103A1AFF268100AF06D
:10A0600005FD0020BDE8FC8163616C5F636E7400D8
:10A0700010B5086800221146401CFEF759FB07493D
:10A0800030B1012804D0002081F8F403002010BD75
:10A09000012281F8F42381F8F503F7E74803002053
:10A0A00010B500F001F810BD70474907090E0028EF
:10A0B00006DA00F00F0000F1E02080F8141D704770
:10A0C00000F1E02080F800147047000010B5086827
:10A0D00000221146401CFEF72BFBB0F5FA7F08D892
:10A0E00005491C224865543104A006F0A5FC002057
:10A0F00010BD012010BD000048030020735F696E91
:10A100007466000010B5044A04460146107800F059
:10A11000C5FD204610BD0000C4010020044B0122F3
:10A120008240186809B1104300E0904318607047FE
:10A130003015004006490868C00502D540F63810C1
:10A1400001E04FF41660096801F03F0108447047D0
:10A1500008150040014800687047000004150040E1
:10A1600070B5164CD4F83001154E002540B1C4F836
:10A170003051FFF7EFFF01468122B06808F05EFD25
:10A18000D4F8340108B1C4F83451D4F80C0108B142
:10A19000C4F80C510B4800680A280AD107F0C8F827
:10A1A00000F026F9084800F007F90121084600F000
:10A1B000E9F8F068BDE8704008F0E2BF0010004028
:10A1C000800000205015004030120020134900B5D7
:10A1D000114808600820091F0860802000F062F81C
:10A1E0000E4902201C310860091D0D480860091D38
:10A1F0004FF6FF7008600B490020C1F800020A48C2
:10A20000016841F001010160044904200C39086033
:10A2100006490120086000BDFF0004011815004038
:10A22000211001000010004050160040FC1F0040AB
:10A2300001490860704700000815004030B501244E
:10A240004FF0E0220223C2F80031154A072809D254
:10A25000DFE800F00E0C04171A1F1500082015E0A7
:10A26000C2F8040330BDC2F8080330BD04200DE07D
:10A2700011B1C2F8043330BDC2F8083330BD8020BC
:10A2800004E04FF4805001E04FF400500029EAD080
:10A29000E6E711B1C2F8044330BDC2F8084330BD4F
:10A2A0000010004004490A6822F0FF020A600A68B0
:10A2B000C0B202430A60704718150040064930B129
:10A2C000012804D0022804D0032801D1042008600A
:10A2D00070470320FBE700001015004001490860AB
:10A2E0007047000020150040254B10B51A1D0828A6
:10A2F00024D2DFE800F0040B131B242B333B186837
:10A3000020F0FF0018601868084316E0186820F471
:10A310007F401860186840EA01200EE0186820F4B9
:10A320007F001860186840EA014006E0186820F0D5
:10A330007F401860186840EA0160186010BD10681E
:10A3400020F0FF0010601068084316E0106820F449
:10A350007F401060106840EA01200EE0106820F491
:10A360007F001060106840EA014006E0106820F0AD
:10A370007F401060106840EA0160106010BD00006E
:10A38000241500400B4A38B101280FD1D2F8000241
:10A3900069B140F0200007E0D2F8000211B140F0AE
:10A3A000010001E020F00100C2F80002704720F037
:10A3B0002000F9E70010004003490860034901202C
:10A3C000886048617047000004150040001000409C
:10A3D000054A106004482838016004480021C0F88C
:10A3E0000C110121816070472C15004000100040C5
:10A3F0000A48016802290FD0016801290CD00068C1
:10A40000032809D006480021C0F80011012141604D
:10A41000D0F800110029FBD0704700005015004013
:10A4200000100040104801680A291CD00168092961
:10A4300019D001680B2916D0026801230B49022AA2
:10A4400005D00268012A02D00268032A03D1CB603A
:10A450000268022AFCD10020C1F800010B60D1F88B
:10A4600000010028FBD0704750150040001000404C
:10A4700000B589B008686B4608AA09A1FEF726F85E
:10A48000022804D1694608A0089A08F0DBF9089868
:10A490006946C0B207F0A4FB09B0002000BD00006F
:10A4A0003D25642C2573000073656E64202225739E
:10A4B0002220746F206465766963655B25645D0D99
:10A4C0000A00000070B5FFF735FE01460DA008F048
:10A4D000B9F9114D11A0297908F0B4F915A008F0C7
:10A4E000B1F900241A4E07E005EB8400214682688A
:10A4F00018A008F0A7F9641CD6F8EC03A042F3D822
:10A50000282070BD726164696F20667265713A259A
:10A51000644D687A0D0A0000D80700207478207412
:10A52000696D6520746F6B656E20256420487A0D17
:10A530000A000000726164696F20726F7574657241
:10A540002072656376206465763A0D0A000000008B
:10A55000480300205B253032645D20256420487A62
:10A560000D0A000010B504A00AF080FA72B600F0DF
:10A5700051FA002010BD00004F4B0D0A00000000F2
:10A58000F8B508683D21FDF746FF1E4E05000CD0CA
:10A5900000241DA00AF06AFA6A4620A1681CFDF793
:10A5A00095FFC0B2012810D018E018A00AF05EFA9A
:10A5B0000024301990F8601029B119A00AF056FA59
:10A5C000641C102CF5D30020F8BD30199DF8001044
:10A5D00080F8601012A00AF049FA641C2C21681C53
:10A5E000FDF719FF050001D00F2CD5D93119002036
:10A5F00081F8600003491C2254310CA006F01CFABB
:10A60000E1E70000480300206E6577207061636B0E
:10A610006574206974656D733A0D0A002558000051
:10A620005B3078253032585D0D0A0000735F696E2B
:10A6300074660000014A516010607047B401002048
:10A64000880000F1A040D0F8001721F00C01C0F8FC
:10A65000001742B1012A05D1D0F8001741F00C01D2
:10A66000C0F800177047D0F8001741F00401F7E771
:10A6700070B508F077F809F019FB09F011FB0B4BE6
:10A680000B4A4FF47A741968B1FBF2F24FF0E021F3
:10A690004D698969691AB1FBF2F10022E0FB0412ED
:10A6A000C3E90612BDE8704008F074B84803002002
:10A6B00040420F0000B54FF0E020016941F0040175
:10A6C00001616FF07F4141610020FFF7DFF8064A2A
:10A6D0000449B0FBF2F04FF47A72086050434860CE
:10A6E00000BD0000A001002040420F0002490148C7
:10A6F000086070470090D0033C030020F0B5B448D8
:10A70000B34A01250078121D0023111D2E070628CB
:10A710000BD11478240708D10C78C4F30314032C4C
:10A7200006D0042C04D0052C02D0062807D00EE059
:10A73000B6F82443A74FC4F304243C6002E0147825
:10A74000240704D10C78C4F30314032C02D0062888
:10A7500004D00FE0A14FA04C7C670EE014782407D2
:10A7600008D10C78C4F30314032C06D0042C04D0B5
:10A77000052C02D0062807D00EE0D6F84442984FA8
:10A78000C4F342343C6002E01478240704D10C780E
:10A79000C4F30314032C02D0062806D011E0914C18
:10A7A000276827F0807727600EE01478240708D107
:10A7B0000C78C4F30314032C06D0042C04D0052C0D
:10A7C00002D006280AD011E04FF08044C4F80C31C2
:10A7D000C4F81031824C241F236002E0147824074F
:10A7E00004D10C78C4F30314032C02D0062805D03E
:10A7F0000CE07B4F032464373C600AE014782407A4
:10A8000004D10C78C4F30314032C02D006280DD015
:10A8100014E0754F05243C60734C78342560724C0D
:10A82000083423603F243F1D3C6002E01478240775
:10A8300004D10C78C4F30314052C02D0062857D099
:10A8400062E06A4C24686A4F3C60684C241D2468AE
:10A850003F1D3C60654C083424683F1D3C60634CE0
:10A860000C3424683F1D3C60604C103424683F1D4C
:10A870003C605E4C143424683F1D3C605B4C1834D3
:10A8800024685B4F20373C60584C1C3424683F1DC3
:10A890003C60564C203424683F1D3C60534C2434AB
:10A8A00024683F1D3C60514C283424683F1D3C60A7
:10A8B0004E4C2C3424683F1D3C604C4C3034246892
:10A8C0004B4F40373C60494C343424683F1D3C605A
:10A8D000464C383424683F1D3C60444C3C3424686A
:10A8E0003F1D3C60414C403424683F1D3C6002E009
:10A8F0001478240708D10C78C4F30314032C06D071
:10A90000042C04D0052C02D0062807D019E0D6F874
:10A910005802384A00F04F00106002E0107800073B
:10A920000FD10878C0F30310032803D0042801D006
:10A93000052806D130480168C90702D06FF001012F
:10A940000160D6F83001062808D1D6F8340106286F
:10A9500004D12A48016841F48061016021487438BB
:10A96000016841F470010160BFF34F8FBFF36F8F37
:10A970004FF01024D4F80002002803DBD4F80402BE
:10A98000002821DA1E4A15601E4801680029FCD003
:10A990001525C4F8005201680029FCD0C4F80452FF
:10A9A00001680029FCD0136001680029FCD0BFF3C6
:10A9B0004F8F0C48F0380168134A01F4E0611143ED
:10A9C0000160BFF34F8FFEE7114910480860F0BDEA
:10A9D000E00F00F0403501400DF0ADBA00C0074077
:10A9E0003C050040FCED00E010560040040400105F
:10A9F00020C50040E40E0040000400403C17004029
:10AA000004E5014000E401400400FA050090D00391
:10AA10003C030020BFF34F8F04480168044A01F44F
:10AA2000E06111430160BFF34F8FFEE70CED00E0E2
:10AA30000400FA0503490020C1F84001024807F06C
:10AA40000ABA0000008000408C1300200349002057
:10AA5000C1F84001024807F0FEB900000090004034
:10AA6000EC13002003490020C1F84001024807F020
:10AA7000F2B9000000A000404C14002030B50A4A92
:10AA80000123402552F8204005EB8105635152F81F
:10AA900020004FF4A86202EB810140580349096885
:10AAA000B0FBF1F030BD0000884D0100C80100206E
:10AAB000F0B5114D0446032755F824000E46C0F8A2
:10AAC0001075204600F038F855F824100020C1F821
:10AAD000040555F82400C0F8087555F82400D0F88E
:10AAE0000022012303FA06F10A43C0F8002255F8B8
:10AAF00024000360F0BD0000884D010010B5012462
:10AB0000103104FA01F30B4951F8201012B1C1F8C9
:10AB1000043301E0C1F808330649091F085600F064
:10AB20001F018C404009800000F1E020C0F8004186
:10AB300010BD0000884D010030B5084C02234FF4D1
:10AB4000A86523605300064A05EB810152F82040B6
:10AB5000635052F820000121C16030BDC8010020BF
:10AB6000884D0100024A012152F82000016070471F
:10AB7000884D0100024A012152F8200041607047CF
:10AB8000884D010010B502F0F1F9282010BD000039
:10AB900010B5114CD4F8100138B1D4F80403C00634
:10ABA00003D501210D4807F00DFCD4F82001002841
:10ABB00010D0D4F80403C0050CD50020C4F820013F
:10ABC0000246014600F09CF8BDE81040042103480D
:10ABD00007F0F8BB10BD000000200040AC140020BE
:10ABE000074A52F82000D0F810213AB10022C0F8EC
:10ABF00010210448407808701046704701207047C3
:10AC0000384D0100C401002070B5184D04460820DD
:10AC100055F82420C2F80005204600F05BF855F8EE
:10AC20002400D0F8001241F02001C0F8001255F8BD
:10AC300024100120C1F8380555F824200C49C2F829
:10AC4000341555F82410086055F824108860094D13
:10AC5000287840B106480849401E04700748FFF7AD
:10AC6000E9FC00202870002070BD0000384D010074
:10AC7000C5010020BC010020C598000005A100000E
:10AC8000054951F82000D0F8501119B1D0F8200131
:10AC9000002800D001207047384D010013B50C4941
:10ACA000012251F82030C3F8482551F8204001AB6B
:10ACB000C4F8443551F820309A6051F82000D0F89B
:10ACC0001C110029FBD00021C0F81C111CBD000084
:10ACD000384D010070B5094B00221C1F53F832504B
:10ACE0008D4206D103EBC20554F820606D68C6F8AA
:10ACF0002455521C092AF1D370BD00003C4D0100BF
:10AD000030B50F4B01241B5603F01F05AC405B0907
:10AD10009B0003F1E023C3F80041094B1B1D19B14F
:10AD200001290BD1102101E04FF4807153F820006C
:10AD300012B1C0F8041301E0C0F80813002030BDC0
:10AD4000344D010030B5094B002453F82050C5F8AC
:10AD5000204153F82040C4F8482553F82020C2F879
:10AD6000441553F820000121816030BD384D0100A9
:10AD70000FB4054B10B503A9044A029801F052FA2A
:10AD800010BC5DF814FB000095D10000C00100204C
:10AD90000FB4084B10B504A902AA039801F042FAB7
:10ADA000044602A9002001F045FE204610BC5DF8D3
:10ADB00014FB000035CA00007CB5044600201D4687
:10ADC000164600290BD0491ECDE90041044B6A46C6
:10ADD0002946304601F026FA009A002111707CBD08
:10ADE0001FCA000003B401984100009850EAC12036
:10ADF00018BF04204A0D18BF40F0010040F2FF7256
:10AE0000B2EB515F08BF40F00200012808BF0520E7
:10AE100002B0704700487047400300200000000067
:10AE200070B5C1482DED020B2DED0E8B82B0119D3A
:10AE300025F000449FEDBEDB9FEDBFEB84423EDB7F
:10AE4000A4F140511098A1F17F6108430FD0BC4894
:10AE5000844202DC28D1109830B39DED100B02B073
:10AE6000BDEC0E8B02B0BDE8704000F086BC9DEDDD
:10AE7000100B53EC1D2B51EC100BFDF746FD9DED17
:10AE8000100B41EC180B53EC1E2B51EC100BFDF783
:10AE90003CFD53EC182BFDF791FC41EC100B02B07C
:10AEA000BDEC0E8B02B070BD012000F0CFFC02B0F3
:10AEB000BDEC0E8B02B0BDE8704000F075BCA1483F
:10AEC0009FEDA18B844256DA9DED100BB4F1795FB2
:10AED0000ADA51EC100BFFF785FF042808BF00F0D9
:10AEE00073FC9DED100BDAE753EC102B51EC100BBB
:10AEF000FDF70BFD41EC190B95480621B0EE490A10
:10AF0000F0EE690A784400F0BCFB53EC192B51ECCD
:10AF1000100BFDF7FAFC41EC1A0B8E48B0EE490A13
:10AF2000F0EE690A0421784400F0ABFB53EC192BD6
:10AF300051EC100BFDF7E9FC53EC182BFDF73EFC30
:10AF400041EC100B51EC1A0B53EC102BFDF731FFB9
:10AF5000CDE900019DED000B53EC102B9DED100B86
:10AF600051EC100BFDF7D1FC9DED101B53EC112B98
:10AF7000FDF724FCD2E09DED100B51EC100B02F01C
:10AF8000E3F853EC182BFDF7BDFC9FED730BCDE9F7
:10AF9000000153EC102B9DED000B51EC100BFDF755
:10AFA000B4FC41EC190B6E480621B0EE490AF0EEF4
:10AFB000690A784400F065FB53EC192B51EC100B37
:10AFC000FDF7A3FC41EC1B0B6648B0EE490AF0EE1E
:10AFD000690A0421784400F054FB53EC192B51EC1E
:10AFE000100BFDF792FC53EC182BFDF7E7FB41EC3F
:10AFF0001C0B51EC190B09F083F941EC180B5A4862
:10B000009FED5BABA04222DC53EC1C2B51EC1B0BE5
:10B01000FDF7CFFECDE900019DED000B51EC180BC3
:10B0200053EC102BFDF771FC53EC182BFDF7C6FB0E
:10B0300053EC1A2BFDF769FC53EC1D2BFDF75FFC5D
:10B0400053EC1E2BFDF75EFC41EC100B5FE08DED29
:10B05000008B002000909DED000B51EC180B53EC81
:10B06000102BFDF7ABFB9DED000B41EC1E0B53ECE1
:10B07000102B51EC100BFDF748FC53EC192BFDF78E
:10B0800041FC53EC1E2BFDF794FE41EC190B53ECE5
:10B090001C2B51EC1B0BFDF78CFE41EC1B0B53ECF6
:10B0A0001A2B51EC190BFDF730FC53EC1D2BFDF75F
:10B0B00029FC41EC190B53EC1A2B51EC180BFDF742
:10B0C00024FC53EC1B2BFDF720FC53EC192BFDF754
:10B0D00016FC9DED000B41EC180B53EC1A2B51ECB8
:10B0E000100BFDF712FC9FED249B53EC192BFDF781
:10B0F00009FC41EC100B51EC180B53EC102BFDF735
:10B10000FEFB53EC192BFDF7FDFB41EC100B002D62
:10B110003FF7C5AE51EC100B81F0004141EC100B34
:10B12000BDE60000000000000000F03F000000004D
:10B13000075C143326A6913C182D4454FB21F93F9B
:10B140000000F07F0000E03F000000000000F03F42
:10B1500078A2000086A20000000000000000E03F8E
:10B16000CAA10000D8A100003333EF3F0000000067
:10B170000000000000000040182D4454FB21E93F6E
:10B1800070B59B482DED020B2DED068B079D25F02C
:10B190000044A04218DC9748844202DC0AD1069899
:10B1A00040B19DED060BBDEC068B02B0BDE87040D2
:10B1B00000F0E3BA002DCCBF9FED8F0B9FED900BFD
:10B1C000BDEC068B02B070BD8F48A04215DD8F48E4
:10B1D000A042D8BF4FF0FF3458DD9DED060B51EC77
:10B1E000100BFFF7FFFD042808BF00F0EDFA9DEDFE
:10B1F000060BBDEC068B02B070BD9DED060B51EC4D
:10B20000100B01F0A1FFCDE9060181489FED828B73
:10B21000A0423CDD8248A0421FDD00249FED82ABAE
:10B220009DED060B53EC1A2B51EC100BFDF7C6FAF3
:10B230009DED060B41EC190B53EC1A2B51EC100B46
:10B24000FDF763FB53EC182BFDF759FB53EC192B5F
:10B25000FDF7AFFDCDE9060149E09DED060B0124A8
:10B2600053EC182B51EC100BFDF7A8FA9DED060BD3
:10B2700041EC190B53EC182B51EC100BFDF73FFB75
:10B2800053EC192BFDF795FDCDE906012FE0684839
:10B29000A0421FDD02249FED689B9DED060B53EC41
:10B2A000192B51EC100BFDF730FB53EC182BFDF76D
:10B2B00085FA9DED060B41EC180B53EC192B51EC64
:10B2C000100BFDF71CFB53EC182BFDF772FDCDE9BD
:10B2D00006010CE09DED060B032453EC102B9FEDB3
:10B2E000580B51EC100BFDF764FDCDE906019DED07
:10B2F000060B53EC102B51EC100BFDF706FB41EC49
:10B30000180B53EC182BFDF700FB41EC190B4E48C2
:10B310000621B0EE490AF0EE690A784400F0B1F96E
:10B3200053EC182B51EC100BFDF7EFFA41EC180B16
:10B330004648B0EE490AF0EE690A0521784400F06B
:10B34000A0F953EC192B51EC100BFDF7DEFA41EC90
:10B35000100B51EC180B53EC102B002C0EDAFDF7F0
:10B360002DFA9DED061B53EC112BFDF7CEFA9DED4A
:10B37000061B53EC112BFDF7C5FA35E0FDF71EFA5D
:10B380009DED061B53EC112BFDF7BFFA41EC100BA2
:10B390002F48784400EBC40090ED001B51EC100BDB
:10B3A00053EC112BFDF7ABFA9DED061B53EC112B63
:10B3B000FDF7A5FA41EC100B2648784400EBC400D9
:10B3C00090ED001B51EC100B53EC112BFDF79AFA8A
:10B3D00041EC100B002DA2BFBDEC068B02B070BD7E
:10B3E00051EC100B81F0004141EC100B01E7000023
:10B3F000000010440000F07F182D4454FB21F93F59
:10B40000182D4454FB21F9BF0000DC3F0000203E12
:10B410000000F33F00000000000000000000F03FCB
:10B420000000E63F000000000000000000000040B7
:10B430000080034000000000000000000000F83F12
:10B44000000000000000F0BF1A9F0000D09E000026
:10B450005A9E0000129E000070B56B4E2DED040B3D
:10B460002DED028B82B0DDF81CC0DDE905235C42C6
:10B470002CF000411C4341EAD474049D22F00040AA
:10B48000B44205D86C422C4340EAD474B4420BD980
:10B490009DED061B9DED040B02B0BDEC028B04B0CC
:10B4A000BDE8704000F073B9ACF14054A4F17F6482
:10B4B0001C430BD0022404EAAC7444EAD274054362
:10B4C0009FED538B9FED542B07D015E09DED040BA2
:10B4D00051EC100B01F00EFB42E0002C11BF012CCF
:10B4E0009DED040B02B0BDEC028B04BF04B070BD37
:10B4F000022C38D0032C3BD00B439FED491B9FED12
:10B500004A0B0AD0B14218D1B04209D121F0804192
:10B5100020F08040079105900FE0002A15DA10E036
:10B52000434B7B44002C08BF93ED000B0DD0012C46
:10B5300010D0022C17D0032C1AD0B0421DD1002AF3
:10B5400003DAB0EE410AF0EE610A02B0BDEC028B04
:10B5500004B070BD93ED000B51EC100B81F0004175
:10B5600041EC100BF1E7B0EE480AF0EE680AECE7A8
:10B57000B0EE420AF0EE620AE7E7401A00153C28F6
:10B58000C8BF8DED000B19DCBCF1000FBEBF10F180
:10B590003C0F9FED290B8DED000B0FDB9DED060B96
:10B5A00053EC102B9DED040B51EC100BFDF701FC3F
:10B5B00001F0CAFD01F09EFACDE90001002C08BFA0
:10B5C0009DED000BC1D0012C10D0022C9FED1C0B67
:10B5D00053EC102B9DED000B51EC100B0DD0FDF733
:10B5E0008EF953EC182BFDF78AF9B9E7019880F032
:10B5F000004001909DED000BA7E7FDF780F953ECAB
:10B60000182BFDF77FF9ABE70000F07F000000008A
:10B61000182D4454FB210940182D4454FB2109C026
:10B62000182D4454FB21F9BF182D4454FB21F93F38
:10B63000429D00000000000000000000000000002B
:10B64000075C143326A6A13C10B52DED028BB1EE9C
:10B65000C08A18EE100A20F00040C0F1FF40C00F71
:10B660000AD010EE100A20F00040C0F1FF40C00FD9
:10B6700004BF012000F0EAF8B0EE480ABDEC028BEE
:10B6800010BD70B504462DED028B4D1E00EBC500BC
:10B69000B0EE408AF0EE608A90ED000B35F00600C7
:10B6A00017D053EC182B51EC100BFDF72EF941EC91
:10B6B000100B6D1E04EBC50090ED001B51EC100B40
:10B6C00053EC112BFDF77AF841EC100B35F0060026
:10B6D000E7D1022D36D0042D1CD0062D1CBFBDECA9
:10B6E000028B70BD53EC182B51EC100BFDF70DF9CC
:10B6F00094ED0A1B53EC112BFDF760F853EC182B5B
:10B70000FDF703F994ED081B53EC112BFDF756F8E8
:10B7100041EC100B53EC182B51EC100BFDF7F5F826
:10B7200094ED061B53EC112BFDF748F853EC182B46
:10B73000FDF7EBF894ED040B53EC102BFDF73EF8FE
:10B7400041EC100B53EC182B51EC100BFDF7DDF80E
:10B7500094ED021B53EC112BFDF730F853EC182B32
:10B76000FDF7D3F894ED001B53EC112BFDF726F8F1
:10B77000BDEC028B41EC100B70BD10B553EC102BDF
:10B7800051EC100BFDF71AF841EC100B10BD10B581
:10B7900053EC112B51EC100BFDF710F841EC100B92
:10B7A00010BD0000000000009FED050B10B553EC2C
:10B7B000102B51EC100BFDF7FCFA41EC100B10BDF7
:10B7C00000000000000000009FED050B10B553ECD9
:10B7D000102B51EC100BFDF798F841EC100B10BD3D
:10B7E0000000000000000010002807D00E4910F0F3
:10B7F000FF0F04D051FA80F00078401C704710F41D
:10B800007F4F04D0C0F30720085C0930704710F464
:10B810007F0F04D0C0F30740085C1130704701EB84
:10B820001060007819307047984D010002E008C898
:10B83000121F08C1002AFAD170477047002001E0AA
:10B8400001C1121F002AFBD17047000001490860A6
:10B8500070470000400300202DE9FF5F82B0002107
:10B86000DDE90430020DDDF840B0034318D044F6A2
:10B870001050A2F2FF3242431514119801281FD034
:10B88000A5EB0B00401C5FEA000A4FF000064E4F8C
:10B89000DFF83891B046504615D5CAF1000413E0E0
:10B8A000119801244AA3012801D16FEA0B010298E3
:10B8B000119AC0E90031C0E9024206B0BDE8F09F2C
:10B8C000CBF10000DFE704460021404A491842EB73
:10B8D0000450CDE9001012E0E00707D032463B46A5
:10B8E00040464946FDF711F88046894632463B46B8
:10B8F00010461946FDF709F806460F466410002C5D
:10B90000EAD1DDE90401DDE90023BAF1000F06DA2E
:10B91000FCF7FBFF42464B46FCF7F7FF05E0FDF75F
:10B9200048FA42464B46FDF744FA04460E460022CA
:10B93000284BFDF717FB03D84FF0FF30014607E017
:10B940000022254B20463146FCF738FFFDF7F1FA7F
:10B95000102409E0002C0ADB0A220023FCF706FD74
:10B96000039B30321A55641E50EA0102F2D1641C66
:10B97000039AC4F111031444119A012A03D001223D
:10B9800008430DD10AE0084304D000204FF0110B0A
:10B99000119072E7A3EB0B056D1E0DE05B4504DD16
:10B9A0004FF0000205F1010504E003DA4FF0000258
:10B9B000A5F10105002AECD002981199C0E90231E5
:10B9C000C0E9004579E70000000014400000F03FA6
:10B9D000300000000000F0430000E03F0348016831
:10B9E000814201D00120704700207047A80200204A
:10B9F000F0B597B005465022174902A8FCF7E7FCBE
:10BA000016A42946204605F04FFC0746014622466B
:10BA100014A006F017FF384605F062FC1BA006F0E4
:10BA200011FF02AE2C6811E0207AA17BA4F10C0377
:10BA3000132802D856F8200000E01598CDE900013F
:10BA4000082239461AA006F0FDFE2468AC42EBD16C
:10BA500017B00020F0BD00002C4F0100646576692E
:10BA600063650000252D2A2E732020202020202011
:10BA70002020747970652020202020202020207232
:10BA8000656620636F756E740A000000202D2D2DF1
:10BA90002D2D2D2D2D2D2D2D2D2D2D2D2D2D2D2DD6
:10BAA0002D202D2D2D2D2D2D2D2D2D2D0A0000007D
:10BAB000252D2A2E2A7320252D32307320252D384E
:10BAC000640A00002DE9FC4106461EA401462046FA
:10BAD00005F0EAFB0746014622461CA006F0B2FE2E
:10BAE000384605F0FDFB22A006F0ACFE346810E0FD
:10BAF00004F10800A4F10C05804606F0F1FE68B1DF
:10BB0000E86900902B460822394621A006F09AFEEB
:10BB10002468B442ECD10020BDE8FC81404606F028
:10BB2000E6FEE969CDE900102B46082239461DA042
:10BB300006F088FE404608F0B7FB204806F082FE7B
:10BB4000E6E700006576656E74000000252D2A2E5C
:10BB500073202020202020736574202020207375FE
:10BB60007370656E64207468726561640A00000019
:10BB700020202D2D2D2D2D2D2D2D2D2D202D2D2D1C
:10BB80002D2D2D2D2D2D2D2D2D2D2D0A00000000BC
:10BB9000252D2A2E2A732020307825303878203021
:10BBA0000A000000252D2A2E2A7320203078253007
:10BBB000387820253033643A000000002CBF0000A4
:10BBC0002DE9FE43064622A40146204605F06CFB03
:10BBD00007460146224620A006F034FE384605F00E
:10BBE0007FFB26A006F02EFE356817E005F1080061
:10BBF000A5F10C04804606F073FE0028404612D0E2
:10BC000006F075FE218C628CCDE90021029023465E
:10BC10000822394620A006F015FE2D68B542E5D170
:10BC20000020BDE8FE8306F062FE218C628CCDE927
:10BC3000002102902346082239461DA006F002FE8C
:10BC4000404608F031FB19A006F0FCFDE5E70000D6
:10BC50006D61696C626F7800252D2A2E7320656EE8
:10BC60007472792073697A652073757370656E6478
:10BC7000207468726561640A00000000202D2D2D7B
:10BC80002D20202D2D2D2D202D2D2D2D2D2D2D2D0B
:10BC90002D2D2D2D2D2D0A00252D2A2E2A73202500
:10BCA0003034642020253034642025640A000000EC
:10BCB000252D2A2E2A732025303464202025303467
:10BCC000642025643A0000002DE9FC41064620A4CA
:10BCD0000146204605F0E8FA0746014622461FA025
:10BCE00006F0B0FD384605F0FBFA23A006F0AAFDE9
:10BCF000346815E004F10800A4F10C05804606F054
:10BD0000EFFD0028404610D006F0F1FDA98CCDE9EA
:10BD100000102B46082239461DA006F093FD24682A
:10BD2000B442E7D10020BDE8FC8106F0E0FDA98C1B
:10BD3000CDE900102B46082239461AA006F082FDF4
:10BD4000404608F0B1FA1C4806F07CFDE7E7000029
:10BD50006D7367717565756500000000252D2A2ECD
:10BD60007320656E7472792073757370656E6420CC
:10BD70007468726561640A00202D2D2D2D20202D00
:10BD80002D2D2D2D2D2D2D2D2D2D2D2D2D0A000060
:10BD9000252D2A2E2A732025303464202025640A7C
:10BDA00000000000252D2A2E2A732025303464201F
:10BDB0002025643A000000002CBF00002DE9FF415F
:10BDC000064616A40146204605F06EFA8046014656
:10BDD000224614A006F036FD404605F081FA1AA06E
:10BDE00006F030FD0827356812E0A5F10C0405F1D6
:10BDF000080006F07CFDE17F226A03900097CDE900
:10BE0000012123460822414617A006F01BFD2D689C
:10BE1000B542EAD104B00020BDE8F0816D757465CB
:10BE200078000000252D2A2E732020206F776E6564
:10BE3000722020686F6C642073757370656E642067
:10BE40007468726561640A00202D2D2D2D2D2D2D15
:10BE50002D202D2D2D2D202D2D2D2D2D2D2D2D2D2C
:10BE60002D2D2D2D2D0A0000252D2A2E2A7320255B
:10BE70002D382E2A7320253034642025640A0000D2
:10BE80002DE9FC41064620A40146204605F00CFAA7
:10BE90000746014622461FA006F0D4FC384605F0AE
:10BEA0001FFA23A006F0CEFC346815E004F1080068
:10BEB000A4F10C05804606F013FD0028404610D082
:10BEC00006F015FDA98BCDE900102B460822394656
:10BED0001DA006F0B7FC2468B442E7D10020BDE8FD
:10BEE000FC8106F004FDA98BCDE900102B46082249
:10BEF000394619A006F0A6FC404608F0D5F90BA07B
:10BF000006F0A0FCE7E7000073656D6170686F7272
:10BF100065000000252D2A2E7320762020207375C1
:10BF20007370656E64207468726561640A00000055
:10BF3000202D2D2D202D2D2D2D2D2D2D2D2D2D2D4B
:10BF40002D2D2D0A00000000252D2A2E2A732025D4
:10BF50003033642025640A00252D2A2E2A732025DB
:10BF60003033642025643A002DE9FC41064628A4BC
:10BF70000146204605F098F9074601462246264824
:10BF800006F060FC384605F0ABF924A006F05AFC38
:10BF9000356838E095F82900A5F10C040090234697
:10BFA000082239462DA006F04DFC94F8340000F02C
:10BFB0000F00012805D0022805D030B1042806D092
:10BFC00008E029A004E02BA002E02DA000E02FA0B3
:10BFD00006F038FCA06A014600E0401C0278232AE3
:10BFE000FBD0E26A64231144081A5843B0FBF2F311
:10BFF000D4F830C0A06CCDE9000CE069091A26A085
:10C0000006F020FC2D68B542C4D10020BDE8FC81BB
:10C010007468726561640000A4530100202D2D2D09
:10C0200020202D2D2D2D2D2D2D202D2D2D2D2D2D67
:10C030002D2D2D2D202D2D2D2D2D2D2D2D2D2D204A
:10C04000202D2D2D2D2D2D20202D2D2D2D2D2D2D47
:10C050002D2D2D202D2D2D0A00000000252D2A2EFE
:10C060002A732025336420002072656164792020C2
:10C07000000000002073757370656E64000000009E
:10C0800020696E69742020200000000020636C6F1E
:10C09000736520200000000020307825303878209B
:10C0A000307825303878202020202530326425252E
:10C0B00020202030782530387820253033640A005D
:10C0C0002DE9FC41064619A40146204605F0ECF88E
:10C0D00007460146224617A006F0B4FB384605F095
:10C0E000FFF81EA006F0AEFB346814E0A4F10C05C6
:10C0F0002B46D5E90901CDE900010822394620A0E7
:10C1000006F0A0FB687AC00701D023A000E025A0BC
:10C1100006F098FB2468B442E8D107F0C1FD01465F
:10C1200024A006F08FFB0020BDE8FC8174696D65DA
:10C1300072000000252D2A2E732020706572696F11
:10C1400064696320202074696D656F7574202020F8
:10C1500020202020666C61670A000000202D2D2D14
:10C160002D2D2D2D2D2D2D202D2D2D2D2D2D2D2D0C
:10C170002D2D202D2D2D2D2D2D2D2D2D2D2D0A004C
:10C18000252D2A2E2A7320307825303878203078D3
:10C190002530387820000000616374697661746529
:10C1A000640A000064656163746976617465640A99
:10C1B0000000000063757272656E74207469636BB1
:10C1C0003A3078253038780A0000000010B53AB1CE
:10C1D00054881188026C136822469847002010BDCD
:10C1E0004FF0FF3010BD70B51D46140001D0042D76
:10C1F00001D0002070BD026C218892689047608059
:10C20000284670BD70B51C460AB1042C01D0002030
:10C2100070BD55881188026C53682A46984720469D
:10C2200070BD00002DE9FF4F95B09B46894606463C
:10C2300000250FE2252877D100242746F84A01215E
:10C24000059400E0044316F8013F203B01FA03F097
:10C250001042F7D130782A2811D06FF02F033078B0
:10C26000A0F13002092A16D8059A44F0020402EB24
:10C27000820203EB42021044761C0590EFE759F866
:10C28000042B0592002A03DA504244F4005405902E
:10C2900044F00204761C30782E2816D116F8010FCF
:10C2A00044F004042A280DD06FF02F023078A0F15A
:10C2B0003003092B09D807EB870302EB4303C718A8
:10C2C000761CF3E759F8047B761C30786C280FD085
:10C2D00006DC4C2817D068280DD06A2814D104E059
:10C2E000742810D07A280FD10DE044F400140AE02D
:10C2F00044F4801401E044F440147278824202D184
:10C3000004F58014761C761C307866280BD013DC7C
:10C31000582877D009DC002875D04528F6D0462863
:10C32000F4D047281AD19DE118E0632835D064285D
:10C3300079D0652812D195E1702873D008DC672880
:10C34000F1D069286FD06E280DD06F2806D1B5E0E6
:10C3500073282CD0752875D0782874D05A46179930
:10C3600090476D1C75E1C4F30250022809D00328E0
:10C370000DD0D9F8001004280DD00D6009F1040982
:10C3800067E1D9F80010EA17C1E90052F6E7D9F8D9
:10C3900000100D80F2E70D70F0E719F8041B8DF81E
:10C3A000001000208DF80100EA46012003E059F852
:10C3B00004AB4FF0FF3061074FF0000102D40DE0F5
:10C3C00008F101018846B9420FDA8045F8DB1AF816
:10C3D00008100029F4D108E008F1010188468142E3
:10C3E000FADB1AF808100029F6D105985B46A0EB95
:10C3F000080721463846179A00F094FA284400EBC3
:10C40000080507E04DE029E10DE01AF8010B5A4656
:10C4100017999047B8F10108F7D25B462146384694
:10C42000179A13E142E00A220092C4F302524FF03D
:10C43000000A022A08D059F804CB032A4FEAEC710B
:10C440000AD00DE029E02AE009F1070121F00702F6
:10C45000F2E802C1914609E00FFA8CFC4FEAEC7158
:10C46000042A03D14FFA8CFC4FEAEC71002907DA59
:10C470000A460021DCF1000C61EB02012D2202E0F2
:10C48000220504D52B228DF80420012203E0E207C7
:10C4900001D02022F7E7904659E00A2102E010225D
:10C4A0000DE010214FF0000A00910BE010224FF038
:10C4B000000A44F004040827009203E008224FF029
:10C4C000000A0092C4F30252022A05D059F804CBA4
:10C4D0000021032A08D009E009F1070121F0070231
:10C4E000F2E802C1914605E01FFA8CFC042A01D152
:10C4F0000CF0FF0C4FF00008220728D5702806D05A
:10C50000009B83F0100353EA0A0305D00EE040229B
:10C510008DF80420012208E05CEA010206D03022F6
:10C520008DF804208DF8050002229046009B83F0D0
:10C53000080353EA0A030AD15CEA010201D1620747
:10C5400005D530228DF804204FF001087F1E5828B1
:10C5500004D034A003900EA802900DE036A0F9E7B5
:10C5600053466046009AFBF701FF84460398825CBD
:10C570000298401E029002705CEA0100F0D102981D
:10C5800006A9081A00F1200A600702D524F48034B5
:10C5900000E00127574502DDA7EB0A0000E000207C
:10C5A00000EB0A01009005984144401A0590E00311
:10C5B00006D45B462146179A059800F0B3F9054466
:10C5C000002706E001A85A46C05D179990476D1CE8
:10C5D0007F1C4745F6DBE0030CD55B462146179AE6
:10C5E000059800F09FF9054404E030205A46179959
:10C5F00090476D1C0099481E00900029F5DC08E06A
:10C60000029802995A460078491C0291179990475E
:10C610006D1CBAF10001AAF1010AF1DC65E100002C
:10C620000928010030313233343536373839616208
:10C6300063646566000000003031323334353637CC
:10C6400038394142434445460000000000F058F9A3
:10C650000544761C307800287FF4ECAD19B02846EC
:10C66000BDE8F08F620700D4062709F1070222F027
:10C67000070CFCE80223E14603F000485FEA080CDF
:10C6800002D00FF2702C0DE05FEA045C02D50FF2CD
:10C69000682C07E05FEAC47C02D00FF2602C01E056
:10C6A000AFF2700C4FF0FF3823F00043CDF850C0CC
:10C6B00065280CD006DC452809D046281DD047281F
:10C6C0003DD13DE0662818D067287ED138E00021B2
:10C6D000112F01DB112000E0781CCDE9000106A933
:10C6E0000EA8FFF7B9F8DDE90F010E9A03910021BA
:10C6F000009207F1010A04914DE04FF000400097CD
:10C70000CDE9011006A90EA8FFF7A6F8DDE90F0292
:10C7100003920E9B11990022DDF80CA00093049265
:10C7200011B9791C00EB010AB7EB0A0004D4C0F17F
:10C73000FF3007F1010A0490AAEB0700019044E0E2
:10C74000012F00DA01270021112F01DD112000E067
:10C750003846CDE9000106A90EA8FFF77DF8DDE90E
:10C760000F010E9A0391002104910092BA4621070D
:10C770000CD40399514500DA8A46BAF1010F05DD60
:10C78000009AAAF10101515C302908D0B84202DABE
:10C7900010F1040F06DA0121CDE9011015E0AAF12C
:10C7A0000101E9E7002805DC049901440491AAEBA2
:10C7B000000102E0411C514500DD8A460499401AFF
:10C7C000401C01904FF000400290200704D40198D3
:10C7D000504501DBCDF8048000208DF84F00029811
:10C7E0000DF14F07B0F1004F25D02B200E9002988D
:10C7F0004FF0020800280CDA404202902D200E90E3
:10C8000007E00A210298FCF721F93031029007F87D
:10C81000011DB8F10001A8F10108F2DC029800281E
:10C82000EFD1791E0E980870307800F0200040F0AB
:10C83000450007F8020D12A8C01B00F10708149864
:10C84000007800B1012000EB0A01019801EBE071D2
:10C8500005984144401A401E0590E00306D45B460B
:10C860002146179A059800F05DF805441498007861
:10C8700018B15A46179990476D1CE00324D55B46C2
:10C880002146179A059800F04DF805441CE00498DD
:10C89000002807DBDDE90301884203DD0098405CE6
:10C8A000179901E0179930205A469047049805F1EE
:10C8B0000105401C04900198401E019004D12E20D7
:10C8C0005A46179990476D1CBAF10001AAF1010A66
:10C8D000DDDC05E017F8010B5A46179990476D1CEF
:10C8E000B8F10001A8F10108F4DC5B462146179A73
:10C8F0000598ABE62D0000002B0000002000000092
:10C900002DE9F041044600251E461746880404D44C
:10C9100005E039462020B0476D1C641EF9D5284635
:10C92000BDE8F0812DE9F041044600251E46904601
:10C93000C80301D5302700E02027880404D505E08E
:10C9400041463846B0476D1C641EF9D52846BDE8FF
:10C95000F08100002DE9FC41194617460446DDE947
:10C960000832DDE90A651430406000602762E26247
:10C97000C4E90913232118461C3406F076F8D4E9DB
:10C9800003014218D4E90101104B121F05F094FD78
:10C990002060A67666760020A562E061E5626061AF
:10C9A0002076E06520661C3C009023460190084AF2
:10C9B000194604F14C0007F010FA0648816809B1E5
:10C9C000204688470020BDE8FC8100003139010085
:10C9D000C53B0100B002002010B5029C24F0010408
:10C9E0004472C0E907120021C0E9093100EBC1021D
:10C9F0001432491C526012600129F7DB10BD10B5DA
:10CA0000002200EBC201521CF1E90534012A5C60EE
:10CA1000D1E90034236049600960F2DB10BD4A6847
:10CA2000002A06D00A68531C0B6010704868401E2C
:10CA3000486070470A68531C0B6010707047000014
:10CA400010B50549054803F0D9F9BDE81040024981
:10CA5000024803F029BE0000904C0100400700206E
:10CA6000F8B50D4607460024084E0BE001236A4640
:10CA70000021384605F0A8FA01226946306806F020
:10CA8000DDF8641CAC42F1D30020F8BD04000020A6
:10CA900008B500234022012110A006F008F8114C2F
:10CAA0000F212060201D00F02DF80FA005F0AAF93D
:10CAB000054640F2431105F011FA0D49284605F0EC
:10CAC000AEFA4FF0FF352B4601226946206806F08A
:10CAD00033F89DF8000000F01FF8F4E76D625F6125
:10CAE00074000000040000207561727430000000C2
:10CAF00061CA000010B541EC100BFEF741FB51EC90
:10CB0000100B10BD034AC2E9000100209060D06004
:10CB100070470000F01B00202DE9F843414E3178AA
:10CB200069B14FF0000901290DD03F4A022915D003
:10CB300003290ED10D281FD00A281DD04AE0412814
:10CB400007D1012016E0542805D086F80090C6F8D9
:10CB50000490BDE8F88302203070F8E70D2808D073
:10CB60000A2806D07168402903D05054491C7160CE
:10CB7000EFE703203070ECE7904672682A4F0024FC
:10CB800008F80290403722E03D212748FBF743FC9C
:10CB900030B13D212448FBF73EFCA0EB080500E046
:10CBA0007568386850F83400FBF73FFCA84205D39D
:10CBB000386850F83400FBF738FC054638682A46D8
:10CBC000194950F83400FBF752FC30B1641C786806
:10CBD000A042D9D886F80090BBE7386850F83400F6
:10CBE000FBF723FC40440090B96809B10020884756
:10CBF0000421386801EBC40142586946012090477E
:10CC000010B1012805D101E008A000E009A007F05B
:10CC10002DFFF96809B10020884740210248FBF741
:10CC2000EFFBD7E70C030020B01B00204F4B0D0A91
:10CC3000000000004552520D0A00000010B51BA074
:10CC400005F000FE1C4C21781CA005F0FBFD2078AF
:10CC5000C00702D01FA005F0F5FD2078800702D59F
:10CC60001FA005F0EFFD2078400702D51FA005F0BA
:10CC7000E9FD2078000702D520A005F0E3FD20782B
:10CC8000C00602D520A005F0DDFD2078000607D5FE
:10CC900009480F300168BDE810401DA005F0D2BD65
:10CCA000BDE810401EA005F0CDBD000062757320E8
:10CCB0006661756C743A0A0029ED00E05343425FE7
:10CCC000434653525F424653523A307825303258E9
:10CCD00020000000494255534552522000000000F8
:10CCE000505245434953455252200000494D50523D
:10CCF000454349534552522000000000554E5354BD
:10CD00004B4552522000000053544B4552522000D4
:10CD10005343422D3E424641523A253038580A008C
:10CD20000A00000010B503F043FF002010BD10B54D
:10CD300003F08FFF002010BD00207047F8B5214D93
:10CD400000266868A8B905F07FF906F0A9FF044637
:10CD500008E06868401C686000960098401C0090DD
:10CD60006428FAD306F09CFF001B0A28F1D305F0D3
:10CD700079F9002406F094FF074606E0641C00964B
:10CD80000098401C00906428FAD306F089FFC01B6D
:10CD90000A28F3D3686884420FD2011B64225143EE
:10CDA000B1FBF0F22A70B1FBF0F200FB1211642229
:10CDB0005143B1FBF0F06870F8BD6C602E706E707E
:10CDC000F8BD0000E8020020014806F03FBE000068
:10CDD0003DCD0000F0B50388002641F221070CE0AC
:10CDE0008C5D002583EA04235C001B0400D57C4095
:10CDF0006D1C2346082DF7D3761C9642F0D3038092
:10CE0000F0BD00001CB540F6060005F08BFD06469F
:10CE10004FF4006005F086FD0022009011464AA004
:10CE200006F08CF94A4F38604AA004F0EBFF4B4DF6
:10CE300004001BD0032105F051F84949204605F0B4
:10CE4000EEF805F154020121204604F0D5FF02203E
:10CE50008DF8040001AA0421204604F0CDFF686D7E
:10CE600020B900220221204604F0C6FF0120BB4663
:10CE7000AA46E8654FF0FF31DBF8000006F0A6F99E
:10CE8000A521304600F08FFC9AF860100025622939
:10CE900009D03249FF2301F16000009A07F06EFAD1
:10CEA00082B2009928E00024DFF8B890D0462E4FD7
:10CEB00016E009EB8400806888B104EB440000EBC5
:10CEC000041007EB800105EB450000EB051007EBB4
:10CED00080004C2208300831FBF779FA6D1C641C85
:10CEE000D8F8EC03A042E4D8E8B2B8704C2110FBAB
:10CEF00001F008301C4982B2304600F039FC30465F
:10CF000000F066FC002EB5D0B078F17810EB01206F
:10CF1000B0D037460024384600F078FC804610E058
:10CF2000A8EB0405802D00D380250020FDF7A8FE86
:10CF30000028FAD02A4639460020FDF703FF2C448A
:10CF40002F44444596D2EBE76F64725F73656D00C2
:10CF50000000002074696D657231000048030020F4
:10CF600051480100D8070020280D002010B50020EE
:10CF7000FDF786FE002805D003480068BDE8104094
:10CF800006F0FEB810BD00000000002010B5012121
:10CF90002DED028B82B0B7EE008A009103F0E0FF26
:10CFA0000446694600F002F90021628809E001FBAD
:10CFB00002136068491C00EB830090ED000A20EE2C
:10CFC000088A8A42F3DC9DED000A2046B8EEC00ACA
:10CFD00028EE008A05F05EF802B0B0EE480ABDEC1B
:10CFE000028B10BD2DE9FC411D4616460F468046BA
:10CFF000089C05F0C9FB48B1CDE9005433463A46D8
:10D000004146002007F0DEFCBDE8FC812B4632469D
:10D0100039464046009407F009FDF5E770B50D4626
:10D02000044618A1FBF708FA38B119A12046FBF70E
:10D0300003FA20B12046FDF79BFE00261DE06A881A
:10D04000298815A0FDF794FEF7E700240EE006FB03
:10D050000040696851F82000FBF7C9FC41EC100B57
:10D0600012A053EC102BFDF783FE641C6888A042CD
:10D07000EDDC10A0FDF77CFE761C2888B042E4DCD5
:10D0800070BD00006E6F686561646572000000002D
:10D090006D61746C616200006D61747269783A2828
:10D0A0002564782564290D0A0000000025382E34F7
:10D0B000662000000D0A000070B50D4616460446B5
:10D0C00014A1FBF7B9F970B1022215A12046FBF7B4
:10D0D000CEF940B113A12046FBF7AEF928B12146A5
:10D0E00012A0FDF745FE00240DE0314610A0F8E740
:10D0F00001CDFBF77CFC41EC100B11A053EC102B85
:10D10000FDF736FE641CB442F2D3BDE870400BA0BC
:10D11000FDF72EBE6E6F68656164657200000000E9
:10D120002F2B00006D61746C61620000257300009C
:10D13000766563286C656E3A2564293A0D0A00000D
:10D1400025382E346620000082B0CDE9000121F0A0
:10D15000004001909DED000B02B051EC100B7047A8
:10D1600010B504460846C4E9001207F013FDA0609C
:10D1700000209FED070A05E0A16801EB8001401C3B
:10D1800081ED000A21688142F6DC002010BD00001C
:10D190000000000010B504490446086810B1096891
:10D1A000E0B28847204610BDB40100202DE9F041CF
:10D1B000054601200E46002408604DE06A88686834
:10D1C00004FB024100EB810191ED000AB5EEC00ABB
:10D1D000F1EE10FA1BD1611C2B8813E001FB024712
:10D1E00000EB870797ED000AB5EEC00AF1EE10FAE2
:10D1F00007D02246284604F019FD306840423060CE
:10D20000DCE7491C8B42E9DC98B2884223D0671CDA
:10D210001EE06A88696807FB024301EB8303D3EDD4
:10D22000000AF5EEC00AF1EE10FA03D1401EA0424A
:10D2300011D00CE004FB024001EB80003A4690ED77
:10D24000001A2146284680EE810A04F085FC7F1CE6
:10D250002888B842DDDC641C6888A042AEDC00206F
:10D26000BDE8F08110B505F08FFA20B1034805F054
:10D27000E9FA002010BD024810BD0000045501006D
:10D28000701C0020064A002112F83130834202D17E
:10D2900002EBC1007047491C2029F5D300207047DC
:10D2A000980000200021162005F07EFE00211620A7
:10D2B00005F08CFE144D00210846144AD5F8EC33D5
:10D2C00005E002EB8004A46804B1491C401C8342C1
:10D2D000F7D8012000EB81004FF4FA71B1FBF0F4B4
:10D2E0000121162005F072FE600806F0C7FC06F06A
:10D2F000FDFA0021162005F069FE204606F0BEFC6E
:10D3000006F0F4FAD7E7000048030020D807002011
:10D3100010B5124C2068800702D511A005F092FAD2
:10D320002068400011D50D48C01E007808B1FFF7F5
:10D3300085FC0A48001F007808B103F033FE074857
:10D34000801E008808B107F0ADFB2068002804DAD1
:10D35000BDE8104008A005F075BA10BD2CED00E046
:10D360006661696C656420766563746F72206665BA
:10D370007463680A00000000646562756720657662
:10D38000656E740A0000000010B502A005F05AFA9C
:10D39000002010BD48656C6C6F2052542D5468728B
:10D3A000656164210A00000010B50446783000F081
:10D3B00019F9204603F060FC204604F04BFA2046A1
:10D3C00006F0DEFE04F55970C4F88C030C38C4F87E
:10D3D00090030C38C4F8940394ED0C0A00F050F953
:10D3E00094ED0B0A00F052F9606A072801D132204F
:10D3F000606510BDF0B517462DED028B83B00E466B
:10D4000005460024B2EE048AE0E0305DB12815D074
:10D410003CDCA02875D00DDC622870D0902869D043
:10D4200091286DD131194C222846FAF7D0FF4C349F
:10D43000A4B2CBE0A12864D0B02861D131196846EC
:10D44000491C06F094FFBDF9000000EE100AF8EE4A
:10D45000C00A80EE880A10EE100AA861BDF9020029
:10D4600000EE100AF8EEC00A80EE880A10EE100AEC
:10D47000E861BDF9040000EE100AF8EEC00A80EE83
:10D48000880A10EE100A2862E41DD1E7D02861D086
:10D490002ADCC02801D0C12832D131196846491C84
:10D4A00006F065FFBDF9000000EE100AF8EEC00AB4
:10D4B00080EE880A10EE100A6862BDF9020000EEE4
:10D4C000100AF8EEC00A80EE880A10EE100AA86270
:10D4D000BDF9040000EE100AF8EEC00A80EE880ADA
:10D4E00010EE100AE862CFE7D1285CD0F02870D1A6
:10D4F000641D9DE770786870A41C99E701E05BE00B
:10D5000067E031196846491C06F031FFBDF900009B
:10D5100000EE100AB8EEC01A9FED300AC1EE000A04
:10D5200010EE900AE860BDF9020000EE900AB8EE35
:10D53000E01AC1EE000A10EE900A2861BDF904005D
:10D5400000EE900AB8EEE01AC1EE000A10EE900A62
:10D55000686199E731196846491C06F008FFBDF972
:10D56000000000EE100AB8EEC01A9FED1D0AC1EED1
:10D57000000A10EE900A6863BDF9020000EE900AFE
:10D58000B8EEE01AC1EE000A10EE900A2863BDF969
:10D59000040000EE100AF8EEC00A80EE880A10EED1
:10D5A000100AA86370E73119102205F13C00491CEC
:10D5B000FAF70DFF11343BE73019807800EB40019A
:10D5C00001EB001004EB8000083084B2BC42FFF491
:10D5D0001CAF03B0BDEC028BF0BD000000007A442C
:10D5E0000000C84270B504462348B7EE000A002583
:10D5F00080ED030A9FED210A032180ED040A80F8E3
:10D600003C5080F83D50084603F07CFCC4F85002C2
:10D610000321084604F5147403F074FC032120610F
:10D62000084603F06FFC03212062084603F06AFC01
:10D63000E56420632168A4F51474D9B1D4F86012AC
:10D64000C1B1D4F87012A9B1A0B10B4803211830B0
:10D6500003F014FD08480321243003F00FFD0648B1
:10D660000321303003F00AFDD4F8800203F0C9FB37
:10D67000002070BD012070BD701B0020CDCC4C3F40
:10D68000014880ED030A7047701B0020014880EDBF
:10D69000040A7047701B00202DE9FC414FF4E13172
:10D6A0000020FDF7B1FA2549002008602349012038
:10D6B0000831086003F082FD21A004F05DFEFFF751
:10D6C00083FBFBF73FFF2049204802F0EDFF50B1FC
:10D6D0001FA005F0B7F81C491C4802F08FFB1A493F
:10D6E0001A4802F0E1FF1F48FFF75EFE1D48816DFA
:10D6F0001DA004F0FFFE1CA004F052FB07F04CF943
:10D70000114D00241426503D04EB840705EB8700DF
:10D71000017CCDE90016001D90E80E0055F82700A9
:10D7200006F0C0F806F010FA641C042CECD306F0E6
:10D73000E5F9BDE8FC4106F0DBB800000C2500402F
:10D7400074696D6572310000904C01004007002043
:10D750006C6673206D6F756E74206661696C6564AC
:10D760000D0A00004803002075617274300000004B
:10D7700070B5044615468078E27800EB0220B0F5DB
:10D78000006F01D9012070BD20442A46801DFAF7A0
:10D790001EFEA07850FA85F0A070E07800EB15200E
:10D7A000E070002070BD10B55A2200F8012B00F87F
:10D7B000011B002100F8011B00F8031B00F8021CEC
:10D7C00000F8011C4FF40061FAF71AFE002010BDAA
:10D7D00018B504460020ADF8000002222146684634
:10D7E000FFF7F8FA0222A11C6846FFF7F3FAA078C7
:10D7F000E17800EB0122A11D6846FFF7EBFABDF8C6
:10D8000000002071000A6071002018BD8178C07886
:10D81000062202EB002008447047B0FBF1F201FB46
:10D820001201401A70470844401EFFF7F6BF00007F
:10D830002DE9F0410E4604460125A16D1AE0421C77
:10D84000E265226E521E2266626E430952F8232060
:10D8500000F01F0305FA03F31A420BD1616D2B464A
:10D860000844A16E096AB0FBF1F201FB12003060BE
:10D87000A26D29E0E06D8842E1D1206E98B3626D1F
:10D880000A44A16E0B6AB2FBF3F703FB1722626531
:10D89000C96ACA000146104602F002FFA0650020D6
:10D8A000E065A06EC16A606EFAF7AAFD22461449CF
:10D8B000104602F063FD0028BFD0BDE8F081401C97
:10D8C000E065206E401E2066E06D904209D0616EDA
:10D8D000450900F01F0651F8251003FA06F5294204
:10D8E000EDD10020E9E7FFE7616DE06D421840F2FD
:10D8F000D71104A0FDF73CFA6FF01B00DDE7000034
:10D900002DD900006C66735F6572726F723A256480
:10D910003A204E6F206D6F726520667265652073C8
:10D92000706163652025750A0000000010B5426D26
:10D930008A1A816E096A0A44B2FBF1F301FB1321D2
:10D94000826D8A420AD9406E4A0901F01F0450F8DC
:10D9500022300121A1400B4340F82230002010BDAD
:10D960002DE9FF4F85B01E46DDE91457DDE9129819
:10D9700000244FF0010A0DF1100B1EE008EB040229
:10D98000CDE90092CDE902BA0DF1140C331B9CE8ED
:10D99000070000F0BBF8002809D1285D9DF81010A1
:10D9A000884209D00006B0EB016F03D9012009B00D
:10D9B000BDE8F08F0220FAE7641CBC42DED30020F1
:10D9C000F5E710B5806E026A8A4203D9C2689047B3
:10D9D000002801DDAFF3008010BD2DE9FF410546B1
:10D9E00008680C461E469046411C36D0811C34D037
:10D9F000A96E0A6A90420ED28969A068FFF713FFE8
:10DA000000900746A86ED4E90012D0F808C0E36879
:10DA1000E047002801DDAFF3008017D1CEB14FF011
:10DA2000FF31C8F80010D4E90012E068CDE9001217
:10DA3000CDE902073B4642464FF000012846FFF77A
:10DA40008FFF002802DB04D06FF0530004B0BDE864
:10DA5000F0812146284600F0DDF80020F6E72DE9A8
:10DA6000FF5F0746DDE90F50DDF838A08146119EC3
:10DA70009B460C461AF1010038D0B96EA819C96945
:10DA800088423FD932E0216851452DD16068A842D3
:10DA90002AD8BA6E926A8318AB4225D9281A111A6D
:10DAA000304602F0FDFD80466168E068691A08446E
:10DAB00042464946FAF78BFC60684544291AC1443E
:10DAC000A6EB0806A06802F0E7FDA060B96E896ABF
:10DAD000884217D15B4621463846029AFFF77DFF00
