:020000040000FA
:1000000008050010D50000001D030000D10200000B
:1000100000000000000000000000000000000000E0
:10002000939D939B0000000064000000E10000002D
:100030000000000000000000E3000000C904000010
:10004000E7000000E700000000000000E7000000FB
:10005000E7000000E700000000000000E7000000EB
:10006000E7000000E7000000E7000000E7000000F4
:10007000E7000000E7000000E7000000E7000000E4
:10008000E7000000E7000000E7000000E7000000D4
:10009000E7000000E7000000E700000000000000AB
:1000A000E7000000E7000000E7000000E7000000B4
:1000B000E7000000E7000000E7000000E7000000A4
:1000C0000348854600F04EF800480047610C0000E8
:1000D000080500100448804704480047FEE7FEE793
:1000E000FEE7FEE7FEE7FEE78D050000C100000029
:1000F00030B50B46014600202022012409E00D46C0
:10010000D5409D4205D31D469540491B2546954047
:1001100040191546521E002DF1DC30BD03460B433D
:100120009B0703D009E008C9121F08C0042AFAD2AD
:1001300003E00B780370401C491C521EF9D2704733
:10014000D2B201E00270401C491EFBD2704700226F
:10015000F6E710B513460A4604461946FFF7F0FFC6
:10016000204610BD064C0125064E05E0E36807CC8D
:100170002B430C3C98471034B442F7D3FFF7A4FF4D
:100180006C0F00008C0F000010B500F0B5F910BD29
:1001900008B50B490B4A4968516111690523194398
:1001A00011610021916107E013690093DB0702D020
:1001B000009BDB03F8D5491C8142F5D308BD000044
:1001C0000C00001000E000E0F8B5840A104D322069
:1001D00011C52C6072B60E490E4E14310F460C48F4
:1001E000083DB04762B6686900280ED1342011C5B9
:1001F00009482C600068686072B639460448083DBA
:10020000B04762B66869002800D00120F8BD000040
:10021000E4020010F11FFF1F1C0000104020704777
:10022000012080027047000010B5002000F036F871
:100230007D21C900FFF75CFF0149086010BD000087
:100240001C000010F8B50546800A114C0F463221FB
:1002500060602160A06072B60D490E4E14310C48EA
:100260000091B04762B6606900280FD13320A1C465
:100270004020206008480068606072B604480C3C6A
:100280000099B04762B66069002800D00120F8BD2F
:10029000E4020010F11FFF1F1C000010010003D03A
:1002A000012800D000207047014800687047000016
:1002B0000000001010B500F00DF810BD08B569463B
:1002C000002000F071F90028F9D16846007808BDD7
:1002D00000F028F810B5064C3A2021462060054A67
:1002E000143120469047E169A069484010BD0000E4
:1002F000E4020010F11FFF1F704770477073694ED2
:1003000010B506C881F3088881F3098802490838C6
:100310008860904700BF10BD00ED00E010B5FFF70A
:10032000EBFF10BDBFF34F8F03490248C860BFF316
:100330004F8FFEE70400FA0500ED00E00948816BED
:100340002022914381630848826B18218A4382638B
:10035000426B8A43426305480168C02291430160B1
:10036000704700000082044000400440C0C10040CB
:1003700000B50146002000F057F9002000BD000044
:1003800030B5244B1C6880252C431C60FF2494400E
:10039000214D9140030000F07BF908050C131A2150
:1003A000282F360B2868A043286028680843286057
:1003B00030BD6868A043686068680843686030BD05
:1003C000A868A043A860A8680843A86030BDE86892
:1003D000A043E860E8680843E86030BD2869A043AE
:1003E000286128690843286130BD6869A0436861B5
:1003F00068690843686130BDA869A043A861A8691D
:100400000843A86130BDE869A043E861E869084392
:10041000E86130BD8080044000C00040014A516066
:10042000106070471400001010B5044908630020E4
:1004300048630120486300F0A1F810BD40800440EB
:10044000F7B505461B481446816B00238022914373
:100450008163012D01D1FFF771FF17490D60002065
:10046000486001204860154D154E0146019A012053
:100470004A43A24216D1470067437F19B74211D2BF
:1004800040084201491E0C480A434038826001E09E
:100490005B1C00BFC168C907FAD00A48834207D86D
:1004A0000020FEBD40000828E3D9491C2029DDD3E7
:1004B0000120FEBD0082044040800440FFA0B3F64E
:1004C000FF70C609A086010010B5094C20780028ED
:1004D00006D1084800F054FC002801D101206070CA
:1004E000002000F027F86068401C606010BD00002C
:1004F000040000108000001010B50A4801690422B1
:1005000011430161084941610020FFF7C7FE074C14
:100510000749FFF7EDFD7D21C90020604843606079
:1005200010BD000000E000E0FFFFFF000C00001025
:1005300040420F00044902220028086901D01043FC
:1005400000E090430861704700E000E00849094A74
:10055000096848430849904201D94A6100E048616E
:100560000020886108690522104308617047000077
:100570000C000010FFFFFF0000E000E0024901480E
:1005800008607047006CDC020000001004491F2066
:1005900008610348C0380168024A1143016070478E
:1005A0004081044080000400820005488058826831
:1005B000D20703D0406908700020704701207047BF
:1005C000600F000010B5124A0446106807239B0311
:1005D00018431060012050610D4A002040325063E2
:1005E000FF201063204600F029F8FF22013209495C
:1005F000A0000B585A600B58074A9A600858074ADF
:10060000026007490748FFF709FF002010BD0000FE
:1006100080800440600F0000FFFF000005003000F4
:10062000BD02000071030000034A80001058826878
:100630005207FCD5C1617047600F0000F8B5124E3B
:10064000850070590C460168490849000160002086
:10065000FFF724FE21010F46FFF74AFD441E00204C
:10066000FFF71CFE390A621C5143FFF741FD0749A1
:10067000FF380138486370590462705901680122DB
:1006800011430160F8BD0000600F0000C08004400D
:1006900030B47446641E2578641CAB4200D21D46FB
:1006A000635D5B00E31830BC184702E008C8121F06
:1006B00008C1002AFAD17047002001E001C1121FD1
:1006C000002AFBD170470000F0B503880026094FCF
:1006D0000CE08C5D2402634000255C001B0400D507
:1006E0007C406D1C2346082DF7D3761C9642F0D330
:1006F0000380F0BD211000000121014A1160704704
:1007000020000010F0B593B004460D460020029082
:100710000422A91D11A8FFF701FD10A8C0798200CD
:1007200029460A3103A8FFF7F9FC12A800F048F99E
:10073000872080000259022112A8904710A8007952
:100740000300FFF7A5FF0CFEB08BFEC6FEFE07FE02
:10075000FDFEE8FE00200A9003980300FFF798FFD3
:1007600013660B10151C232A2F666666343A6645FD
:100770004C535A5F660089480B900220029056E065
:1007800001200B900220029051E0112040010059FD
:100790000B90022002904AE08920800000590B90C3
:1007A0000220029043E04520C00000590B90022037
:1007B00002903CE001200B900220029037E0784844
:1007C0000B900220029032E0FF2001300B900220BB
:1007D00002902CE000200B900120C0030C90002020
:1007E0000D900E900520029021E08B208000005992
:1007F0000B90022002901AE02320000100590B9078
:100800000220029013E08D20800000590B900220FE
:1008100002900CE000200B900220029007E047209D
:10082000C00000590B900220029000E000BF00BF02
:100830000AAA2046FF301730029900F011F920462D
:10084000FF30173000F001FA009087208000025935
:100850002046FF301730009990479BE0952080009C
:1008600003990151001D0499015103461959031FB1
:10087000185909239B011A5990470222002120464A
:10088000FF30173000F0BDF82046FF30173000F081
:10089000DCF900908720800002592046FF30173095
:1008A0000099904776E0012200212046FF30173062
:1008B00000F0A7F82046FF30173000F0C6F900908E
:1008C0008720800002592046FF301730009990475A
:1008D00060E09520800003990151001D04990151A9
:1008E000001F015997208000015104220021204659
:1008F000FF30173000F085F82046FF30173000F049
:10090000A4F900908720800002592046FF3017305C
:10091000009990473EE00B2200212046FF3017301F
:1009200000F06FF82046FF30173000F08EF900908D
:100930008720800002592046FF301730009901E0DF
:1009400006E026E090474921C9000859804721E088
:10095000092200212046FF30173000F052F82046CF
:10096000FF30173000F071F90090872080000259A5
:100970002046FF30173000999047039E049F05984A
:10098000019093208000035939463046019A9847D8
:1009900000E000BF00BF13B0F0BD00000004014B39
:1009A000FFFF0000012109034868401A03498842FB
:1009B00001D3002070470120704700000180000033
:1009C0005A210170A12141707047F8B50E461546B5
:1009D0000746A42100F00BF904223146384600F006
:1009E000E8F8002406E0A00041190422384600F08F
:1009F000E0F8641CF078A042F5DC384600F007F916
:100A0000F8BD7FB5A0236D462B7000236B700224C8
:100A1000EC70AB700392029102AA6946FFF7D5FF12
:100A2000002004B070BD78B504465A26069D05988E
:100A30002670A7266670A370E27021715021617143
:100A4000A071E571002069460880082221466846A9
:100A5000FFF73AFE694608882072000A607278BD86
:100A600038B5A7236C46237000236370A370E17030
:100A70006946FFF7AAFF002038BDFEB504460026F0
:100A80006846068025680127A81D0190227B062064
:100A90001300FFF7FDFD07050B2B2E393C3E7C00B4
:100AA0005A2975D101202073297071E06970A1392C
:100AB00002220B00FFF7ECFD0712126C0505070E72
:100AC0006C00227364E0A168002901D028468847A1
:100AD00000275CE0AE70EE70666013E02673A168DC
:100AE000002901D0284688470020FEBDA9700320B8
:100AF00008E0E970284600F0AEF8FF210131884295
:100B000045D80420207343E029710520FAE7697174
:100B1000E2E76068019A431C636011546878A42876
:100B200001D0A52825D1284600F095F861688842B3
:100B30001FD869460E80022229466846FFF7C4FD89
:100B40000222A91C6846FFF7BFFD6268684601994A
:100B5000FFF7BAFD697928790902401869460988C2
:100B6000884205D1A168002901D02846884700277E
:100B700026736878A7280BD16068082808D3082056
:100B8000A870EE70A168002901D028468847267316
:100B90003846FEBD10B50021416001730068002891
:100BA00005D0FF210731FFF7D2FA002010BD012048
:100BB00010BD70B515460B46044600F04CF8FF21F9
:100BC0000131884201D9012070BD204600F043F870
:100BD00000192A461946801DFFF7A0FAA078290AB5
:100BE0004019A070E0784018E070002070BD10B58A
:100BF0005A220270417000218170C17001714171EF
:100C0000FF210131801DFFF7A2FA002010BD18B5A9
:100C10000446002069460880022221466846FFF704
:100C200053FD0222A11C6846FFF74EFD204600F04E
:100C300012F80246A11D6846FFF746FD694608887E
:100C40002071000A6071002018BD8178C078000210
:100C5000801D081870478178C07800020818704716
:100C60002F4A08B591100020FFF7EAFB0320FFF799
:100C7000DBFBFFF789FAE12149020020FFF7A2FC24
:100C8000002204211046FFF77BFB002108220846C2
:100C9000FFF776FB244C2348E0612448A0642448F5
:100CA000E06424482065244820642448E063012649
:100CB0003603234826626064F00060624011A0623F
:100CC000C004E06200142063812000026063FFF72B
:100CD000F1FAA0631B4800F03DF8FFF7A5FA1A48A7
:100CE000FFF734FC0120FFF725FC184C002569466E
:100CF0000020FFF759FC002804D101226946114861
:100D000000F0C6F86078012805D10022114630466F
:100D100000F03BF865700B4800F042F8E7E7000090
:100D2000006CDC02B70E000080020010AD0E000067
:100D30008B0D0000510D0000D10E0000FD0E0000D3
:100D4000ED0E000080000010204E00000400001096
:100D50007047000010B50446204610302060064859
:100D6000A0602046FFF716FF00211320400101512B
:100D700000200249086010BDF906000020000010A4
:100D80000146132040014058704710B50246FFF756
:100D900009FE002802D01046FFF7B2FA10BD00008D
:100DA00070B586B004463948006800286BD0607C76
:100DB000A1380300FFF76CFC06606162171D046236
:100DC000012113204001015100200090034602221E
:100DD000019003A8FFF727FE8720800002590A210F
:100DE00003A890474BE0214610312046FFF78AFCCC
:100DF00045E0A17CE07C00020D189721890008598C
:100E00008F2189000B592A46214616319847972091
:100E100080000059411997208000015105A8FFF773
:100E2000CFFD872080000259022105A89047952018
:100E300080000159001D00590918972080000059B1
:100E4000814218D8042200212046FF301730FFF7D6
:100E5000D8FD2046FF301730FFF7F7FE0646872003
:100E60008000025931462046FF3017309047252137
:100E700009010859804702E001E000E000BF00BF1F
:100E800000200249086006B070BD0000200000107C
:100E9000F8B507460D461646002404E0295D38469D
:100EA000FFF7EBFD641CB442F8D3F8BD6420FFF7F4
:100EB0006FF9FFF737FA70B50D46044604E0217864
:100EC0000020641CFFF7B0FB28466D1EF7D270BDF2
:100ED00070B504460D1905E02046FFF775F9FFF7D8
:100EE0009FF90419A542F7D8002070BD0B4610B534
:100EF00001461846FFF712F9002010BDF7B582B081
:100F000006460446FFF78AF9074600253946049845
:100F1000FFF7EEF8009101900DE00398A11B09186E
:100F20003A460E48FFF7FAF80C492046FFF78AF9CF
:100F3000E41901986D1CA842EFD8009900290AD045
:100F40000A460398A11B09180448FFF7E7F803496C
:100F50002046FFF777F9002005B0F0BD40000010F3
:100F6000004006400080064000C006408C0F000094
:100F70000000001024000000AA060000B00F0000CE
:100F800024000010E4040000B806000000366E01E2
:100F90000000000000000000000000000000000051
:100FA0000000000000000000E02E00000000000033
:04000005000000C136
:00000001FF
