:020000040000FA
:10100000881D0010B9100000D9360000C310000080
:1010100000000000000000000000000000000000D0
:101020008F9E939B0000000071000000C51000001F
:101030000000000000000000C7100000C910000000
:10104000CB100000CB10000000000000893B000026
:10105000CB100000CB10000000000000CB100000FF
:10106000CB100000CB100000ED350000CB100000CD
:10107000CB100000CB100000CB100000CB10000004
:10108000CB100000CB100000CB100000CB100000F4
:1010900061260000CB100000CB1000000000000013
:1010A0005D3700000348854601F0F6F80048004728
:1010B000D9680000881D0010044880470448004794
:1010C000FEE7FEE7FEE7FEE7FEE7FEE76D3B00001A
:1010D000A510000030B50B46014600202022012457
:1010E00009E00D46D5409D4205D31D469540491B5C
:1010F0002546954040191546521E002DF1DC30BDA5
:1011000070B500242546002801DA01244042002958
:1011100001DA01254942FFF7DDFFAC4200D0404231
:10112000002C00D0494270BD03460B439B0703D0FF
:1011300009E008C9121F08C0042AFAD203E00B789C
:101140000370401C491C521EF9D27047D2B201E014
:101150000270401C491EFBD270470022F6E710B512
:1011600013460A4604461946FFF7F0FF204610BD15
:10117000CAB2401E4178401C8A4202D00029F9D1EF
:1011800000207047421C0178401C0029FBD1801AC6
:10119000704710B5002200E0521C835C8C5CA342B7
:1011A00001D1002BF8D1D8B2E1B2401A10BD0346EC
:1011B0000A780270401C491C002AF9D11846704771
:1011C00030B505460020034600E05B1C934205D283
:1011D000EC5CC85C201A01D1002CF6D130BD0000B7
:1011E0000FB400B58DB009900B9010A900200091AC
:1011F000C0430A9000200C900648069006480790CD
:101200006A4609A80F9900F061FE0DB008BC04B051
:1012100018470000ED1E00000D1F0000FFB500275D
:10122000FF4383B000205C6801909E681D46A96959
:101230007F1C049888470090296A88470028F6D1C7
:101240000098401C0CD0032040028443002E19DD7E
:10125000600614D500982B2809D02D280FD103E063
:101260000020C04307B0F0BD012080020443A969FB
:101270007F1C04988847761E0090002E02DD00989F
:10128000302803D00598002825D035E00120400201
:101290000443A969761E7F1C049888470090002E9D
:1012A00003DD782805D0582803D00598002810D0F1
:1012B00022E00598002801D010281DD1012040020D
:1012C0008443A969761E7F1C0498884700901020EB
:1012D00002E0082000E00A2005900DE0012149020B
:1012E0000C43059A0199761E514308180190A9698B
:1012F0007F1C049888470090002E05DD0599009812
:1013000000F0CFFD0028E9DAE96904988847A005D4
:1013100002D40120C043A5E7E00722D1600611D521
:101320006005019800D5404229680A1D2A600968B5
:10133000220501D5087014E0220701D5088010E0CD
:1013400008600EE02868011D29600068210502D5AB
:101350000199017005E02107019901D5018000E0A4
:10136000016038467EE70000FFB5087889B0154671
:10137000FF2805D0491C2D2804D00022002407E0B6
:1013800000240BE00122F9E70A235C430419491CFD
:101390000878FF28F8D1002A00D064420020049089
:1013A0002A7801462D2A01D02B2A0FD16D1C2D2A17
:1013B00002D00022049209E00122FBE700260A2263
:1013C00033466D1C00F000FD381871412F78FF2F57
:1013D000F4D10C9AA218069202460A4304D0FF23C5
:1013E000069A9133DA4205DA002109980A4606C0C6
:1013F0000DB0F0BD0024B74AB54D2646079200F067
:101400001DFF029006980391002801DA474200E090
:10141000074639050020AF4A001C51410191009058
:1014200012E0F80707D022462B463046079900F015
:1014300023FB0646079122462B461046194600F02C
:101440001BFB04460D467F10002FEAD10698019B36
:101450000028009A0399029806DA00F075FB3246DC
:10146000079B00F071FB05E000F006FB3246079B8E
:1014700000F002FB049A002A02D00122D207514058
:10148000099A03C2B4E7FFB591B000200990002586
:10149000ED432E209E685C681F460190B9696D1C63
:1014A000129888470090396A88470028F6D100983A
:1014B000401C0AD00D20C0018443002E12DD00988C
:1014C0002B2809D02D280DD103E00020C04315B0F2
:1014D000F0BD012080020443B9696D1C1298884751
:1014E000761E009003A9600501D52D2000E02B2079
:1014F0006A461073491C0CA80F9102900AE0B96962
:101500006D1C1298884700900120400204431398F4
:10151000761E0560002E02DD00983028EFD001997C
:101520000098884246D18020044308E00998401E74
:1015300009900120400204431399681C0860B969AE
:101540006D1C761E1298884700903028EED031E04E
:101550000199884205D1200603D480200443761ED9
:101560001EE0009802F004FE002826D00120400270
:10157000044307A90F980331761E88420BD20098C6
:101580000F99303808700F98401C0F90200607D52F
:101590000998401E03E0200602D40998401C0990D7
:1015A000A00502D51399681C0860B9696D1C1298D2
:1015B00088470090002ECBDC59E0002E57DD0098C4
:1015C000652801D0452852D1A00550D5032000023E
:1015D0008443B9696D1C761E129888470090002ECE
:1015E0000CDD2B2804D02D2808D1FF200130044326
:1015F000B9696D1C12988847761E0090E00501D5E8
:101600002D2100E02B21029801700298401C0290CD
:10161000019025E00120400204430EA90298013107
:10162000761E88420ED20098029930380006000ECD
:10163000087003D10299019881420AD90298401C8E
:10164000029006E0E00501D5234801E0224840422F
:101650000990B9696D1C129888470090139805602D
:10166000002E04DD009802F083FD0028D2D1F96934
:10167000129888470F99FF200870029903AA0870F2
:1016800000200A900B900CA90AA8099BFFF76CFE9A
:10169000A00502D40120C04319E72420044209D048
:1016A000E00713D138680B9A0A99031D3B60006864
:1016B00006C00BE00B990A9800F026FB0146E007F4
:1016C00004D13868021D3A60006801602846FEE6D1
:1016D000000014400000F03FF1D8FFFFF7B582B0E2
:1016E0000F460026029C02F03DFB0090006801902E
:1016F0002578641C002D05D000F0C6FB0068405D15
:10170000C007F5D12B2D02D02D2D1CD0641E0098C2
:101710000021016039462046049A00F009FC014688
:10172000002F04D03868A04201D102983860009898
:10173000006802280BD00098019A0260700506D557
:10174000484205B0F0BD012080020643DFE70846AD
:10175000F7E7F8B502464A40D40F42004B00520862
:101760005B089A4202D20246084611464A0023D03C
:10177000C30D4A00DDB2120EAD1A202D35DA490232
:101780000126490AF6058A19002C00D05242202170
:101790004F1B1146B9402A411018C20D9A4221D060
:1017A000002C17D0012D08DCDA05801AD20F801921
:1017B000D207DBB200F017FCF8BDDA05801A01236E
:1017C00040001B06C01880185A428018CA0F1043E8
:1017D000490007E04908C2071143DA05801A801959
:1017E0004008801800F0F7FBF8BD61000122511A93
:1017F000001BF7E70122D2075140AAE70122D207D6
:101800005040A6E7024670B54A40D30FDB074000C0
:101810002DD04A002AD0010E140E0002120209191E
:10182000400A520A8418E50104465443000A120A89
:101830002E045043A4194219200CC543AA18120CB7
:101840000125AD03521C521912047F39240400D023
:10185000521C104301D44000491EC2B20C06C009FC
:101860002018401C4008802A02D003E0002070BDF0
:1018700040084000002900DA0020184370BD70B510
:1018800002464A40D50F40004A00ED074008520882
:10189000002814D0002A12D0C40DD30D410201201B
:1018A000C0055202490A520AE41A091812187D3476
:1018B000914201D3641C00E04900002C01DA0020B1
:1018C00070BD0023914201D3891A034340084900A7
:1018D0000028F7D100290AD0914202D10121C9077D
:1018E00005E0914201D2012101E00121C943E00557
:1018F000C018401900F06FFB70BD420005D04200D7
:10190000120E52428A4201DB00207047C9050818B6
:1019100070470000F0B507460846584087B0C00F32
:10192000049048000E46590040084908BC1A8841F6
:1019300005D2384631461E4617460B460246580029
:10194000400810434CD0300D039040055900400D25
:10195000490D0590401A0290402872DA18030121BF
:10196000000B09050843019004980092002805D057
:101970000199524200208841009201900298402132
:101980000A1A0199009800F05CFA05460C466B466D
:1019900007CB00F066FAC0197141039A0E0D0023BF
:1019A000D71756401A467A40164344D0049A002A64
:1019B0002DD0029A012A039A15DC1205C01A914112
:1019C00001263605001C7141D20F059ED2070093F7
:1019D000019202962A46234600F077FB07B0F0BD3D
:1019E00038463146FAE71605224A0F46B218C01AA1
:1019F000B74101210905001C4F4100187F411146E4
:101A000018187941E20F10436D19644113E0E207A1
:101A10006D0815436408C2071443039A0126120592
:101A2000C01A91413605001C7141CE074008304371
:101A30004908C01851412A46234600F039FBCDE73A
:101A4000FFE7049801224000C117121A00238B41BE
:101A500004983146C417381AA141EEE730B4012486
:101A6000E407634030BC55E730B40124E40761402B
:101A700030BC4FE70000E0FFF0B51FB488B00B9911
:101A80000998002448400999C00F49004908099164
:101A9000C0070B990090490049080B9109990898D3
:101AA000A64608431CD00B990A98084318D00998F9
:101AB00001244000420D4800410D0998240500030F
:101AC000000B204309900B980003000B20430B9060
:101AD00050181C494018002201901446104605E099
:101AE000002001460DB0F0BD032801DA034600E0F6
:101AF00003239C46C11A0AAE0AE05F0008ADED5B05
:101B00004F00F75B7D430027AA187C41491C5B1EF0
:101B10006145F2DD410004AB5A522104120C0A4324
:101B2000240C401C0828DFDB0198029000997046C5
:101B300001910090059B049A0799069800F0C5FA58
:101B4000D0E700000DFCFFFFF0B50C465C4085B00F
:101B5000E40FE40703944C000026640859009446FF
:101B6000490802460296224321D062460A431ED00B
:101B70006200570D4A000E032303550D012402464F
:101B80002C492405781B1B0B360B40182343264396
:101B9000614600901C46501AB44103D30098401C83
:101BA000009002E0921800985B41002803DA0020C0
:101BB000014605B0F0BD0020012109050746864613
:101BC00011E064461D46141BB54106D36546521B01
:101BD000B341744607430C43A646CD074008490865
:101BE000284392185B4105460D43EAD1104618433D
:101BF00013D06046194650407140084306D06046F5
:101C0000101AB34106D20122002306E0002201236C
:101C1000DB0702E00122D24353100098744601050D
:101C2000381C6141029C039D0019694100F040FA93
:101C3000BFE70000FD030000C217C10F504010B500
:101C40004018CA079623002100F0CDF910BD10B549
:101C500000229623114600F0C6F910BDC20F4100C4
:101C600040020123400ADB05D207090EC0187F2974
:101C700001DA00207047962903DC9623591AC840E0
:101C800001E096398840002AF4D040427047C20FE4
:101C9000D207400040080BD0C10D0723DB01C91853
:101CA00040020905400A1143C2084007114370472A
:101CB000002001467047000010B5002904DB012414
:101CC000E40740428C412146002B04DB1C460123E3
:101CD000DB075242A3418B4200D1824210BD00007B
:101CE00010B5002904DB0124E40740428C41214661
:101CF000002B04DB1C460123DB075242A34199421F
:101D000000D1904210BD0000CB0FDB07490010B599
:101D1000490802460A4307D00A0D07240903E401D3
:101D2000090B121B002A01DC002010BDC900440F62
:101D30000C43C100E018D205801800F04CF910BD2A
:101D40000122D207002800DB101A002900DB511AFB
:101D5000814270470122D207002800DB101A0029B7
:101D600000DB511A88427047F0B51FB406460020C8
:101D700082B005464024019100901BE00199224663
:101D80000F46304600F09AFA049A059B801A994152
:101D900010D310461946224600F053F8361A8F41E8
:101DA0000197224601200021009F00F04AF83818D0
:101DB0004D4100902046641E0028DFDC019B009806
:101DC0002946324607B0F0BDF0B51FB486B00020FA
:101DD0000090019002900698069980B204900798AE
:101DE000090C02040014114307900027089D09986C
:101DF00006913E463C4603900398A9B20204000CAB
:101E0000039004982D0C154348430021224600F00E
:101E100018F8C719714110340E46402CECDB3846D7
:101E2000029A00F00EF8009A019B80180090594128
:101E300002980191103002904028CCDB00980BB042
:101E4000F0BD10B5202A04DB0146203A9140002065
:101E500010BD914020239C1A0346E3401943904053
:101E600010BD10B5202A06DBCB170846203A1041DA
:101E7000C1170B4306E00B461341D0402024A21AA1
:101E800091400843194610BD00487047DC780000B7
:101E900010B50446FFF7F8FF0068005DC007C00FEB
:101EA00010BD3A2800D23038202302469A43412AF6
:101EB00001D310463738884201D30020C043704711
:101EC00002681378511801601846704710B5D16048
:101ED000044951610449116200211161114600F069
:101EE000FFF910BDC11E0000911E00004268002ACB
:101EF00008D001680B78491C002B03D0521E06C085
:101F0000184670470121C160881E70474268002A48
:101F10000BD0C3680168002B07D183688B4204D0C3
:101F2000491E521C06C0002070470020C043704765
:101F3000F7B582B0029C00272078641C15460197F3
:101F4000302802D0002D15D015E020780127641C20
:101F5000782804D0582802D0002D09D00BE0002D9D
:101F600001D0102D07D1002710252078641C02E035
:101F7000082500E00A250026009610E000990127B8
:101F800069430818020C294680B2714300908E18EC
:101F90003804864201D3012001902078641C294630
:101FA000FFF77FFF0028E9DA0398002805D0002F0B
:101FB00001D0641E00E0029C04600198002806D055
:101FC00001F0D0FE02210160C81E05B0F0BD0099ED
:101FD00030040843F9E7002904DA401C490001D124
:101FE00040084000704770B40024050C05D110244F
:101FF000000402D1002921D01124050E01D10002D4
:102000000834050F01D10001241D850F01D1800086
:10201000A41C002801DB4000641C002908D02025F6
:102020002E1B0D46F540A14000D001212943084355
:1020300001061B1B000ADB1D02D5002070BC704787
:10204000DB05181880180029F8DA401C4900F5D182
:1020500070BC40084000704770B5002801DC0020CB
:1020600070BD410040020126400AF605090E8019A4
:10207000CA0701D14000491E4D10002211463F35CC
:102080003346CB409B18D418844201D8001B1A4613
:102090004000491C1729F3DD5100814202D2002182
:1020A000C94300E00021E8058018FFF794FF70BDE8
:1020B00010B5002B08DA0024401C614192185B41E6
:1020C0001A4301D14008400010BDF0B51FB482B0E2
:1020D00005460C0003D0084601F00AFE02E001F0BC
:1020E00007FE20300246009021462846FFF7A9FE51
:1020F000049B059A04460F4618431143084314D025
:10210000184610431BD0009840210A1A184605991A
:1021100000F0D4F805460E46009A05990498FFF79A
:1021200090FE084305D0012004E02046394607B060
:10213000F0BD0020C11705430E432C4337430099DF
:102140000E986305401A7905E40A00220C43FD0A43
:102150000A3002D500200146E9E70105101969415E
:102160000C9C0D9D00196941FFF7A2FFDFE770B5D8
:102170004B005B0803430BD04B005C0D002633463D
:102180006542B341D417AD1AA34102DB00200146DA
:1021900070BD12053018514170BDFEB500231A46BE
:1021A0001B1A8A4103DB0020014603B0F0BD4A0040
:1021B0000D0301212D0B0905520D0D43D10702D14D
:1021C00000186D41521E5110FF31FF3101310027BF
:1021D00004463E4638460097019102460121002000
:1021E000090500F06BF8C3197141F81832468446AE
:1021F0008E464A4161462846611A904104D36046A2
:10220000241A954176461F46241900986D41401CBA
:1022100000903428E1DDF91930467041091BA841CE
:1022200003D20022D243134601E000221346019854
:102230000105381C7141FFF73BFFB6E70EB5054AB3
:1022400002920022009213460192FFF73EFF03B074
:1022500000BD0000330400004A0009030123090BFC
:102260001B0519430A4B10B5520D9A4202DA0020A1
:10227000014610BD064B34339A4203DC9A1A00F033
:102280001DF810BD034BD218FFF7DBFD10BD000099
:10229000FF030000CDFBFFFF064C0125064E05E0C5
:1022A000E36807CC2B430C3C98471034B442F7D377
:1022B000FEF7FCFE187A0000387A000010B5202ADC
:1022C00004DB0846203AD040002110BD0B46D34025
:1022D000D0402024A21A91400843194610BD0000A6
:1022E000F3B58DB000200A9001200B90002608461F
:1022F0000C300C4609906269012109989047051E2F
:102300002ED0252D2DD0216A8847002818D062694B
:10231000012109989047216A88470028F7D1411E7A
:1023200062690998904700E0761CA1690D9888477A
:10233000216A88470028F7D1E1690D988847DAE7D4
:10234000A1690D9888470746A84201D1761CD2E7BB
:10235000E1690D9888477F1C02D10A98002877D040
:1023600049E1002762693D463946099890472A2885
:102370000CD16269012109989047012506E00A21E4
:102380004F433F18303FEBD41020054362690121D1
:1023900009989047014630390A2903D29B498F4258
:1023A000DEDCECE7E90600D4994F6C280AD04C2813
:1023B00010D0682824D06A282ED074280CD07A280F
:1023C0000AD00DE062690121099890476C2823D05A
:1023D00004211CE0202005436269012109989047EF
:1023E000A760656065284FD026DC582839D01ADCF4
:1023F000452849D012DC252834D04128B0D143E00B
:102400006269012109989047682802D008210D438C
:10241000E6E70120C002DEE70220DCE7462833D0F1
:1024200047282CD130E05B2870D061282CD063285D
:102430006CD0642823D161E06F284FD009DC662876
:1024400022D0672820D0692826D06E2817D12EE008
:10245000CDE070284DD073286FD075284ED07828E5
:102460000DD154E0A1690D9888470546252800D173
:102470006CE7E1690D9888476D1C00D16DE7BAE003
:102480000A224CE00A2252E0012023466A46C04359
:102490000D99FEF7F8FFA3E028464021084360604D
:1024A000A807234601D5002239E000223FE0E807D3
:1024B00000D020E72068011D21600068290501D5B2
:1024C000067018E7290701D5068014E7A90703D588
:1024D000F117066041600EE706600CE728464021D0
:1024E00008436060A807234601D5082217E00822A8
:1024F0001DE0484928460840606016E02846402113
:1025000008436060A8072346BCD5B9E715E0284614
:10251000402108436060A80707D523461022012008
:10252000C0430D99C046C0465AE023461022012000
:10253000C0430D99FEF772FE52E000210C910B464C
:102540000091632802D05B2807D043E0E80601D45D
:102550000120A060012000903CE0626901210998FF
:1025600090475E2805D101200C90014662690998C8
:1025700090472169002906D10B4601AA8F00491C0A
:10258000D3510829FADB002835D0216900290ED162
:10259000C117C90E09184A11930001AA9A184909CE
:1025A0004901411A0120136888400343136062699E
:1025B0000121099890475D28E5D10C98002808D0A2
:1025C000002001AB81005A58401CD2435A500828C1
:1025D000F8DB01AB01202246C0430D99C046C0463E
:1025E00000280ADA401C06D10B98002803D00020EE
:1025F000C0430FB0F0BD0A98FBE7E90702D10A9982
:10260000491C0A91361800200B9074E6CCCCCC0CF7
:10261000FFFFFF7FF1F7FFFF30B58C180278401CF9
:1026200013071B0F01D10378401C120906D1027851
:10263000401C03E005780D70401C491C5B1EF9D15D
:1026400001E00B70491C521EFBD1A142E6D30020D1
:1026500030BD00000149FF2008637047008004403E
:102660000149022088617047408000500648016897
:102670008205114301600648044981600168012216
:102680001143016070470000808004400004001086
:10269000008000500101034808188168042211439A
:1026A0008160704700840050012282400548002963
:1026B00001D0826000E0026101200349000508604A
:1026C000704700004080005000E100E0F0B5284F66
:1026D000BD6842880023002A49D08188C6880C46FC
:1026E0007443521E86685443A4198689714351432A
:1026F0000269891802781201521965461560546002
:10270000D3609160C188042900D10321CAB28189B4
:10271000042900D1032144880579641EA4056D08AD
:10272000A409AD07AD0D103492072C43920C890714
:102730001443090C0C4301780A010E4952189460A5
:1027400044780122002C04D003781B0159180A6038
:1027500003E00478240161180B60017813468A4075
:102760003A6200781A468240014840308262F0BDE9
:10277000008000500084005010B501F0D1F910BD68
:1027800008B50B490B4A4968516111690523194382
:1027900011610021916107E013690093DB0702D00A
:1027A000009BDB03F8D5491C8142F5D308BD00002E
:1027B000D000001000E000E010B5086800221146CB
:1027C000401CFEF78BFF0349002800D00120087051
:1027D000002010BDC402001010B5012004F0C8FB99
:1027E00003F0DEF8002010BDF0B5002493B008948B
:1027F0000F4608682646FEA1FEF7CBFCFE4D294693
:10280000903180350E91002869D005A906A8009165
:10281000019004AB12AAF9A13868FEF7E1FC042884
:1028200075D0002004F045FD0321062003F01CFDB7
:102830000D900421062003F017FD0C9003210420C5
:1028400003F012FD0B900421032003F00DFD0A900C
:102850000321322003F008FD7F27FF0509903B4646
:10286000022200210D9803F092FFE84B0222012181
:102870000D9803F08CFF3B46012202210D9803F0D6
:1028800086FFE24B012203210D9803F080FF3B46B7
:10289000002204210D9803F07AFFDC4B0022052171
:1028A0000D9803F074FFDAA001F012FA28467D2794
:1028B0006C38FF05079004F0BFFC079A0899099847
:1028C00003F07FFF08983221401CFEF719FC0891A5
:1028D000701C3221FEF714FC0E0045D053E1E8686D
:1028E00003F0ECFCCDA0E96803F034F9E86803F0EC
:1028F0004AFF8004020CE8684168CAA003F0AAF805
:10290000002203210E9804F06DFE23E0FFE71299E8
:10291000032910DA04AAE86803F053FFBFA0E968AE
:1029200003F018F9E86803F02EFF8004020CE86851
:102930004168BCA011E0032913D1032204A90E9819
:1029400004F082FDB9A001F0C3F9032204A9BBA0E1
:1029500003F04EF90C22BCA00E9903F07BF803F0B3
:102960001FF8002013B0F0BD0FA9099803F039FF3C
:102970006946099803F006FE7F20C00503900023F6
:10298000B34A03210FA804F0A6FD0028A6D10098A1
:10299000394640004008FFF7D3F922D20198394662
:1029A00040004008FFF7CCF91BD27F21C9050298EF
:1029B000FEF720FF400040083946FFF7C1F910D26A
:1029C000E0070ED101200443A2A001F081F96A467C
:1029D00000210C9803F0F5FE042269468FA003F055
:1029E00007F90098394640004008FFF7A9F921D2BD
:1029F0000198394640004008FFF7A2F91AD28349EE
:102A00000298FEF7F7FE400040083946FFF798F9B4
:102A100010D2A0070ED40220044390A001F058F970
:102A20006A4601210C9803F0CCFE042269467BA083
:102A300003F0DEF80098394640004008FFF780F9BF
:102A400022D20298394640004008FFF779F91BD29C
:102A50007F21C9050198FEF7CDFE400040083946A8
:102A6000FFF76EF910D260070ED4042004437DA056
:102A700001F02EF96A4602210C9803F0A2FE04220E
:102A8000694666A003F0B4F8009839464000400853
:102A9000FFF756F921D20298394640004008FFF767
:102AA0004FF91AD259490198FEF7A4FE4000400898
:102AB0003946FFF745F910D220070ED40820044309
:102AC0006AA001F005F96A4603210C9803F079FE2B
:102AD0000422694651A003F08BF801983946400062
:102AE0004008FFF72DF922D20298394640004008ED
:102AF000FFF726F91BD27F21C9050098FEF77AFE61
:102B0000400040083946FFF71BF910D2E0060ED40A
:102B10001020044357A001F0DBF86A4604210C980A
:102B200003F04FFE042269463CA003F061F80198CF
:102B3000394640004008FFF703F921D20298394690
:102B400040004008FFF7FCF81AD230490098FEF721
:102B500051FE400040083946FFF7F2F810D2A006B7
:102B60000ED42020044345A001F0B2F86A460521A6
:102B70000C9803F026FE0422694628A003F038F8DA
:102B8000E043800604D01E20FFF7FAFD079892E686
:102B90003CA001F09DF80B9A0C990D9803F028FBCE
:102BA0000A990B9803F04EFE6A4600210A9803F03A
:102BB000A8FB6A460021E86803F0F2FD6A4601219D
:102BC0000A9803F09EFB6A460121E86803F0E8FDDD
:102BD0006A4602210A9803F094FB6A460221E868DB
:102BE00003F0DEFD03210E9A0A9803F08AFB51E000
:102BF0003D52455345540000C40200103D25642C4D
:102C000025662C25662C256600000000000080BF8C
:102C10004643412E2E2E0D0A000000006D61746C9B
:102C2000616200004143434D495300006269617392
:102C30002073657420746F3A0D0A00006E6F68652A
:102C400061646572000000004143434200000000DF
:102C5000A69BC43B5A2B0D0A000000005A2D0D0AFA
:102C600000000000592B0D0A00000000592D0D0A2C
:102C700000000000582B0D0A00000000582D0D0A1E
:102C800000000000616C6C20706F73206765740D2C
:102C90000A00000003210E9804F036FC18A001F091
:102CA00017F81A48E96802F055FF19A001F010F86A
:102CB000032216480E9902F09BFF14480C220C3098
:102CC0000E9902F0C7FEE86803F05DFD8004020C77
:102CD000E86841680D48183802F0BCFE02F060FE5A
:102CE0000C9803F00AFB099803F007FB0D9803F01A
:102CF00004FB0B9803F001FB0A9803F0FEFA30E6A0
:102D00006D61747269783A0D0A0000003C2C000075
:102D1000626961733A0D0A0070B50C460546FFF70B
:102D200063FD0448FFF72CFD2146284600F004F817
:102D3000002070BD28230000F0B50E46002708686B
:102D40008DB03D46CFA1FEF724FAD04C2146A031EC
:102D500080340091002809D008AACDA13068FEF780
:102D60003FFA012820D001200DB0F0BDE06903F04A
:102D7000A5FAC8A0E16902F0EDFEE06903F003FDE9
:102D80008004020CE0694168C4A002F063FE0022E6
:102D90000321009804F026FC0C22C2A0009902F046
:102DA00059FE02F0FDFD69E10021084600F07EFCBD
:102DB0000321084603F058FABC494860032108463D
:102DC00003F052FA059001F073F800206064FF20D0
:102DD000800503F0B7F9AD480146143109911C3163
:102DE000C83003910190099803F00CF9606D03223B
:102DF000401C60650399019804F0F6FA606C0028A5
:102E000009D128077DD4002F7BD10127A8A000F08D
:102E10005FFF01F04DF8606C052829D128072CD4FC
:102E2000A6A000F055FF606DFEF706FF01467F206B
:102E3000C005FEF724FD0246A34B0099019804F05B
:102E4000ACFB0021009A059803F0AAFC0121009A2E
:102E5000059803F0A5FC0221009A059803F0A0FC58
:102E600003229AA0009902F0C3FE0127082005431F
:102E7000606C002845D0280743D5012F02D0002FD1
:102E800010D0A2E00020606492A000F021FF01F0C9
:102E90000FF89349012000F0E7FB012000F092FBBE
:102EA000049092E0012000F08DFB0499081A049030
:102EB000FEF7C2FE8B49FEF7E2FC0C908AA000F000
:102EC00007FF00260898FEF7B7FE0C99FEF7D7FC1F
:102ED0000290606DFEF7B0FE01467F20C005FEF750
:102EE000CEFC0246784B8349019804F056FB0298C9
:102EF00040004008FEF7CBFE00227F4B0791069072
:102F000000E068E0FEF720FE0A900B917948B100DE
:102F1000405840004008FEF7BAFE079B069AFEF7AD
:102F2000A3FD0B9B0A9AFEF7C7FE37D2029840001A
:102F30004008FEF7ACFE00226F4BFEF705FE07913E
:102F40000690B0006B490A9009580298FEF752FCAF
:102F500040004008FEF79BFE079B069AFEF7C0FE66
:102F6000029803D20121C90748400290614A0A9998
:102F70000C3A50504D480C323146406803F010FC7A
:102F800003225C495DA002F033FE0298FEF77FFE4B
:102F900002460B465CA000F09BFE02E0761C032E6E
:102FA00090DB002E04D0012E06D0022E0DD107E0BA
:102FB0000120054357A006E00220054358A002E087
:102FC0000420054359A000F083FEE843000706D023
:102FD000002F55D000270A20FFF7D2FB03E703217B
:102FE000084603F041F906460321084603F03CF980
:102FF000404907460C3903F04EF92C4D0599686895
:1030000003F00BFC3046696803F08CF93146384612
:10301000E26903F0D3FA384603F06FF9304603F063
:103020006CF9686803F069F9059803F066F919A06E
:10303000E16902F08FFD03223FA0009902F0D8FD64
:10304000E06903F0A0FB8004020CE069416813A072
:1030500002F000FD0C2213A0009902F0FBFC02F02C
:103060009FFC00F025FF3749002000F0FDFA012108
:10307000002000F01BFB344803F064F8002073E6E6
:103080000127A8E73D52455345540000C4020010F3
:103090003D2564006D61746C616200004759524DBA
:1030A0004953000047595242000000002000001020
:1030B000622073746172740D0A00000062207374E0
:1030C0006F700D0A000000000000404062696173EB
:1030D00020000000732C2073746172740D0A0000CC
:1030E00080B14F0100247449732C2073746F700DEC
:1030F0000A0000007C020010000024406163747527
:10310000616C0D0A00000000746865726F793A25E1
:10311000660D0A00582020666F756E64210D0A0046
:10312000592020666F756E64210D0A005A202066B2
:103130006F756E64210D0A006E6F6865616465725B
:103140000000000088130000CDCCCC3EF8B5840A06
:10315000104D322011C52C6072B60E490E4E14313E
:103160000F460C48083DB04762B6686900280ED18A
:10317000342011C509482C600068686072B6394671
:103180000448083DB04762B66869002800D00120B5
:10319000F8BD0000A0040010F11FFF1FE8000010A0
:1031A00040207047012080027047000010B50020C9
:1031B00000F0C0F87D21C900FDF78CFF01490860CF
:1031C00010BD0000E8000010F8B50546800A114C5B
:1031D0000F46322160602160A06072B60D490E4E2C
:1031E00014310C480091B04762B6606900280FD1D5
:1031F0003320A1C44020206008480068606072B697
:1032000004480C3C0099B04762B66069002800D0C1
:103210000120F8BDA0040010F11FFF1FE8000010FE
:1032200030B504461A480D4601681A4B194301602F
:10323000130000F074FD09061A26240D2424240F1F
:10324000240000222946204600F068F8022212E0FD
:10325000012200E000222946204600F01DF801224C
:103260002946204600F05AF809E000222946204667
:1032700000F054F800222946002000F0A1FB0020B5
:1032800030BD00222946204600F048F80122F2E72E
:10329000808004404000100001208840002A01D0B6
:1032A000024901E00149803108607047002200A016
:1032B00070B5184C25680126334683409D43256030
:1032C000002904D001290AD0022910D119E061682F
:1032D000002A01D0194300E09943616007E0002A09
:1032E00002D02169194301E0216999432161FF213D
:1032F00061621830C006C00E864007480660002094
:1033000070BD6168002A02D019436160E9E7994302
:103310006160E9E7004000A000E100E00120884092
:10332000002A01D0024901E001498031086070475C
:10333000802300A0010003D0012800D000207047A6
:103340000148006870470000000000100148006B51
:10335000704700000080044008B56946002000F076
:1033600029FC0028F9D16846007808BD7CB53AA14F
:1033700004200123019100901A46D82139A000F0C1
:10338000A7FC3FA000F0A4FC464D47A149A0EA6B72
:1033900000F09EFC2C468034E27F49A145A000F05D
:1033A00097FC49A143A0A26800F092FC47A141A06C
:1033B000A26900F08DFC627F464990000B5846A13F
:1033C00047A000F085FCA27F4249900020310B58B5
:1033D00047A143A000F07CFC227F3E4990001039B9
:1033E0000B5845A13EA000F073FC627D44A147A0AC
:1033F00000F06EFC48A000F06BFC4BA000F068FCF5
:103400004CA0E96802F0A6FB4DA000F061FC21464B
:103410000322703947A002F0EBFB4BA000F058FCF0
:1034200041A000F055FC43A0E96902F093FB4AA0DB
:1034300000F04EFC2146032260393EA002F0D8FB8A
:1034400049A000F045FC21460322AC3939A002F026
:10345000CFFB00207CBD00004D617220323720324E
:10346000303139000D0A484925642025642E256431
:103470002E2564206275696C642025730D0A000096
:1034800032303037202D203230313920436F70797F
:103490007269676874206279204869504E55430DFF
:1034A0000A0000004403001073616D706C655F6674
:1034B00072710000252D31367325640D0A0000005D
:1034C0006D6F6465000000004F44520074696D65C3
:1034D00000000000380000106779725F627700001A
:1034E000252D31367330782564282573290D0A007F
:1034F0006779725F726700006163635F72670000E3
:1035000072657365745F636175736500252D31366F
:1035100073307825580D0A006163632063616C2065
:10352000696E666F3A0D0A006D61747269783A0DC2
:103530000A0000006E6F686561646572000000003B
:10354000626961733A0D0A006779722063616C20C9
:10355000696E666F3A0D0A006663206779722062B1
:103560006961733A0D0A0000726320677972206204
:103570006961733A0D0A000010B50868002211460F
:10358000401CFEF7ABF80A2801D3012010BDC1B2E0
:10359000064C07A0E17700F09BFBE17F07A002F05B
:1035A00052FA02F0FDF9002010BD0000C403001023
:1035B0004D4F44453D25640D0A0000004D4F4445E4
:1035C0000000000010B500F007F802490968FDF797
:1035D00081FD10BDE400001003490001401840685F
:1035E0004000400870470000004000403EB51A48C7
:1035F000C168C9072ED0C16801221143C1600220F1
:10360000694608706B4607CB03F0FAF9134C14496E
:103610002068C968401CFDF75DFD216000290AD1C2
:1036200010480078012806D10420694608706B46CE
:1036300007CB03F0E5F96068C821401CFDF760FD89
:103640006160002906D10820694608706B4607CBE7
:1036500003F0D6F93EBD000000400040C800001055
:10366000C4030010C402001070B505460B480C4698
:1036700001680215114301600020FFF75BFE084955
:10368000FDF728FD07490023086007492A01521861
:103690009360444348040443146070BD8080044038
:1036A00040420F00E400001000400040084B0001C1
:1036B0000122C0180029816801D0114301E04908A6
:1036C00049008160012003498002086000207047A2
:1036D0000040004000E100E010B500F001F810BD2E
:1036E0007047000010B5086800221146401CFDF725
:1036F000F5FFFF22411EF43291420ED8084C0146DC
:10370000A06008A002F09FF902F04AF9C820A16861
:10371000FDF7E0FCE060002010BD012010BD0000BE
:10372000C40300104F4452000948816B202291438A
:1037300081630848826B18218A438263426B8A4303
:10374000426305480168C022914301607047000050
:103750000082044000400440C0C100400EB50C4946
:10376000FF2048620B480078012810D10A48806881
:1037700000070CD509480178002908D10121017002
:103780000220694608706B4607CB03F039F90EBD7D
:10379000004000A0C4020010004006401C000010C1
:1037A00000B50146002000F045FA002000BD0000F1
:1037B000BFF34F8F03490248C860BFF34F8FFEE746
:1037C0000400FA0500ED00E010B5002203210248D4
:1037D00003F008FF002010BDB8020010F8B508681B
:1037E0003D21FDF7C5FC05460024174F19E06A4648
:1037F00016A1681CFDF7F4FCC0B201280CD1684684
:103800003E190078C036307602F06CFB0146327EFD
:103810000FA000F05DFA641C2C21681CFDF7A8FCC9
:103820000546002D01D00F2CE1D938190021C030F8
:10383000017605491022D83109A002F00BF902F0F7
:10384000AFF80020F8BD0000C402001025580000A9
:1038500025735B3078253032585D0D0A000000007A
:1038600050544C0070B50E460F490A680323DB0222
:103870001A430A6000210D4D840028590160084652
:10388000FFF758FD3146FDF725FC401E00D500200E
:10389000295948620720295900060862295905203C
:1038A0000860002070BD000080800440E8760000C1
:1038B000F8B51C468000114D2F58BD68AE0709D5DC
:1038C000002B07D0002A02D01678521C00E0FF26F9
:1038D000FE615B1EED070CD0002C0AD0074D0029BD
:1038E0002D586D6902D00D70491C01E06E4635708F
:1038F000641E1D462543DED10020F8BDE876000099
:1039000030B5244B1C6880252C431C60FF24944058
:10391000214D9140030000F002FA08050C131A2112
:10392000282F360B2868A0432860286808432860A1
:1039300030BD6868A043686068680843686030BD4F
:10394000A868A043A860A8680843A86030BDE868DC
:10395000A043E860E8680843E86030BD2869A043F8
:10396000286128690843286130BD6869A0436861FF
:1039700068690843686130BDA869A043A861A86967
:103980000843A86130BDE869A043E861E8690843DD
:10399000E86130BD8080044000C00040014A5160B1
:1039A00010607047D800001010B50449086300206B
:1039B00048630120486300F0D1F810BD4080044006
:1039C00010B5334803680124A40423430360002096
:1039D0000B0000F0A4F9180D0F1215181B4D1E2135
:1039E00024272A2D3033364D393C3F4245484B4D34
:1039F00028483DE0274818383AE026482C3837E078
:103A00002448303834E02348343831E0214838380D
:103A10002EE0204808382BE01E480C3828E01D48CE
:103A2000103825E01B48243822E01A4828381FE0C7
:103A300018483C381CE01748403819E01548001D6C
:103A400016E014481C3813E01248443810E01148BE
:103A500034300DE00F4830300AE00E482C3007E0DB
:103A60000C48283004E00B48243001E0094820309D
:103A70000168182399430160002A06D0012A03D166
:103A8000016810221143016010BD01680822F9E7A6
:103A90008080044044400440F7B505461B48144666
:103AA000816B0023802291438163012D01D1FFF7B7
:103AB0003BFE17490D600020486001204860154D0D
:103AC000154E0146019A01204A43A24216D14700F1
:103AD00067437F19B74211D240084201491E0C4882
:103AE0000A434038826001E05B1C00BFC168C9071F
:103AF000FAD00A48834207D80020FEBD40000828BB
:103B0000E3D9491C2029DDD30120FEBD00820440F9
:103B100040800440FFA0B3F6FF70C609A0860100F4
:103B200010B50A4801690422114301610849416145
:103B30000020FFF7FFFB074C0749FDF7CBFA7D217B
:103B4000C90020604843606010BD000000E000E054
:103B5000FFFFFF00D000001040420F000249014863
:103B600008607047006CDC020000001004491F2050
:103B700008610348C0380168024A11430160704778
:103B8000408104408000040010B50849002000F086
:103B900011F8002808D1064801210170034909786D
:103BA000817007C802F02CFF10BD0000200000103B
:103BB000880200108200054880588268D20703D02E
:103BC000406908700020704701207047DC760000D3
:103BD00010B5124A0446106807239B03184310606F
:103BE000012050610D4A002040325063FF201063D5
:103BF000204600F029F8FF2201320949A0000B58A5
:103C00005A600B58074A9A600858074A02600749E9
:103C10000748FFF7C3FE002010BD0000808004406D
:103C2000DC760000FFFF0000050030005933000083
:103C3000A1370000034A8000105882685207FCD563
:103C4000C1617047DC760000F8B5124E85007059EE
:103C50000C4601684908490001600020FFF76AFB33
:103C600021010F46FDF736FA441E0020FFF762FBE4
:103C7000390A621C5143FDF72DFA0749FF38013814
:103C80004863705904627059016801221143016050
:103C9000F8BD0000DC760000C08004400A4B8100C3
:103CA00059580123002A06D0CB600849002804D0C7
:103CB000012806D103E00B6103E0082000E010209A
:103CC0000860002070470000DC76000000E100E0A2
:103CD0000FB410B503A9044B044A029800F050FA3F
:103CE00010BC08BC04B01847755E0000E00000106E
:103CF0002021020C01D010211046020A01D01046EA
:103D00000839020901D01046091F820801D0104667
:103D1000891E420801D0881E7047081A704730B4C7
:103D20007446641E2578641CAB4200D21D46635D58
:103D30005B00E31830BC18474900CA020243100078
:103D400000D004204A0D01D001221043044A490D3D
:103D5000914201D102210843012800D1052070477A
:103D6000FF0700000048704750010010F8B50446F6
:103D70004F1EC8000838211815461E4608684968B5
:103D80003A4606239A4310D02A463346FDF774FE7E
:103D90003A46D200083AA3181A687F1E5B68FDF7FE
:103DA000B9FD06223B469343EED1022F23D0042FC8
:103DB00011D0062F2FD12A463346FDF75DFEE36A68
:103DC000A26AFDF7A7FD2A463346FDF755FE636A52
:103DD000226AFDF79FFD2A463346FDF74DFEE36953
:103DE000A269FDF797FD2A463346FDF745FE636954
:103DF0002269FDF78FFD2A463346FDF73DFEE36855
:103E0000A268FDF787FD2A463346FDF735FE636855
:103E10002268FDF77FFDF8BD10B50122FEF7A7F976
:103E200010BD10B5FDF776FD10BD002210B513468C
:103E300010461146FDF788FE10BD0000034A10B57C
:103E400000201107FEF793F910BD000001FDFFFFF0
:103E500002E008C8121F08C1002AFAD17047704753
:103E6000002001E001C1121F002AFBD170470000B1
:103E700001490860704700005001001010B58178BA
:103E80000446402910D8E07810280DD80818801D65
:103E9000404240084000404281B2A01D891F01F00D
:103EA00029FEA188884201D0012010BD002010BD4C
:103EB00010B500220321044803F094FB02480021BE
:103EC0004838416510BD00008C03001030B50F4923
:103ED00000200F4D0B88CC6808E021180A88521981
:103EE00008D0112A05D0222A04D0801C8342F4DC99
:103EF000084830BD8A78C9785118891D4942490857
:103F00004900494289B20818F0E700000C0500108A
:103F10003400FFFFFFFF0000F1B50024104E114FE9
:103F200016E0F06805192888F84210D1A91D0098FC
:103F3000FDF72FF9002810D0A878E9784018801DE7
:103F4000404240084000404280B2041900E0A41CF6
:103F50003088A042E5DC0448F8BD2046F8BD0000EA
:103F60000C0500101200FFFFFFFF0000F0B51FB4AA
:103F700086B00998089A030D0021024314D05148D5
:103F8000514A1818504305141198012810981AD056
:103F9000281A401C00264D4F4D490096019104906F
:103FA000002812DA444211E01198012449A30128A3
:103FB00001D11098C1430698119A84600360C260D1
:103FC00041600BB0F0BD4042E4E70446210500200B
:103FD0003F4A001C51410391029012E0E00707D0D4
:103FE00032463B4601990098FDF746FD019100904D
:103FF00032463B4610461946FDF73EFD06460F4643
:104000006410002CEAD10498039B0028029A0999B5
:10401000089806DAFDF730FD019B009AFDF72CFDAC
:1040200005E0FDF791FD019B009AFDF78DFD04462B
:104030000E460022284BFDF753FE03D80020C04354
:10404000014607E00022254B20463146FDF762FC81
:10405000FEF702F9102409E0002C0ADB0A220023F3
:10406000FDF782FE079B30321A55641E02460A4352
:10407000F2D11122641C079B121B1C19119B012BEE
:1040800003D0012308430ED10AE0084304D01120D5
:1040900010900020119077E71098151A6D1E0BE014
:1040A0001098824202DD00236D1C03E0824201DA97
:1040B00000236D1E002BEED0069811998260C1601E
:1040C00030C07EE701FCFFFF104D000000001440EF
:1040D0000000F03F300000000000F0430000E03F2F
:1040E000F8B50024204F26462046B8800FE0F86837
:1040F0001E4905192888884204D12846FFF7BEFECC
:1041000000280CD01948F96811380853A41C3988C4
:10411000A142ECDC154B3046113BFA681DE0A87853
:10412000E9784018801D404240084000404282B279
:10413000F86801198019FCF7F7FFA878E9784018AA
:10414000801D404240084000404280B20419861958
:10415000B888401CC9E71352801C8142FBDC881BD5
:1041600078803046F8BD00000C050010EEFF00001E
:1041700030380A2801D20120704700207047000023
:10418000FFB597B00646002518E2252877D1002410
:104190002746FD49049400E00443761C3278012050
:1041A000203A90400842F7D130782A280ED00222D7
:1041B000307801463039092916D804990A23594321
:1041C000303940181443761C0490F1E7189802C85F
:1041D00004911890002904DA012040030443484266
:1041E000049002200443761C30782E2814D1042039
:1041F00004437078761C2A2809D11898761C80C848
:10420000189009E00A214F43303FC719761C3078D7
:10421000014630390929F5D930786C2810D006DCF0
:104220004C281AD068280ED06A2817D104E07428C8
:1042300013D07A2812D110E00120400504430CE08D
:104240000121090501E0032109050C437178814230
:1042500003D1012000052418761C761C30781190BB
:1042600066280BD013DC58287DD009DC00287BD0D1
:104270004528F6D04628F4D047281AD1A5E118E001
:10428000632835D0642870D0652812D19DE170284C
:104290006CD008DC6728F1D069287BD06E280DD05F
:1042A0006F2806D1BAE073282ED0752871D07828EF
:1042B00059D01A9A199990476D1C7EE16002400FFF
:1042C000022809D003280DD00428189801680DD0C1
:1042D0000D60001D189070E11898EA1701680D60D4
:1042E0004A60F6E7189801680D80F2E70D70F0E774
:1042F00018986A4601781172001D189000205072BB
:1043000002A80090012005E0189802C8189000202B
:104310000091C04361070DD5002101E00199491CBE
:104320000191B94212DA8142F8DB009A515C00290E
:10433000F4D10BE0002101E00199491C0191814277
:10434000FADB019A0099895C0029F5D1019904985A
:104350001A9B471A21463846199A00F097FA019994
:10436000401945180BE04FE02CE113E04EE00098B7
:1043700000990078491C00911A9A19999047019860
:10438000401E0190401CF2D1214638461A9B199AD2
:1043900010E137E00A200021009001916002410FF6
:1043A000022907D0189A01CA1892C2179446032905
:1043B00008D00AE01898C01DC108C90005C91891A5
:1043C000944607E000B2C2179446042902D140B2D5
:1043D000C1178C4600226146944506DA0A46002140
:1043E000404291418C462D2102E0210504D52B212C
:1043F0006A461173012103E0E10701D02021F7E7AC
:10440000029155E00A200AE0102008E010200090F8
:104410000021042004430191082703E00820002123
:10442000019100906002410F022907D0189A01CA39
:10443000189200229446032908D008E01898C01D5D
:10444000C108C90005C91891944603E080B2042947
:1044500000D1C0B200210291210729D511997029FC
:1044600006D0009A1021019B4A401A4305D00EE065
:1044700040216A461173012108E06146014306D0DC
:1044800030216A4611731199517302210291009AE9
:104490000821019B4A401A430AD16146014301D1D8
:1044A000610705D530216A46117301217F1E0291F3
:1044B0001199582904D035A10E910DA90D910DE047
:1044C00037A1F9E76146019B009AFDF74DFC0E9B71
:1044D0008C469B5C0D9A521E0D92137061460143EF
:1044E000F0D10D9805A9081A20300190600703D576
:1044F00001200004844300E001270198874201DD88
:10450000381A00E00020019900904118029809181B
:104510000498401A0490E00306D421461A9B199A85
:10452000049800F0B3F94519002706E003A81A9A89
:10453000C05D199990476D1C7F1C02988742F5DB7E
:10454000E0030CD521461A9B199A049800F09EF9B5
:10455000451904E01A9A3020199990476D1C00996A
:10456000481E00900029F5DC08E00D980D990078B0
:10457000491C0D911A9A199990476D1C0199481E72
:1045800001900029F1DC63E1092801003031323368
:10459000343536373839616263646566000000007F
:1045A0003031323334353637383941424344454669
:1045B0000000000000F05AF94519761C30780028F8
:1045C00000D0E2E528461BB0F0BD600700D4062706
:1045D0001898C01DC108C90048680A680831C30F8F
:1045E000DB071891190001D09CA108E0210501D535
:1045F0009BA104E0E10701D09AA100E09AA1430049
:1046000011985B08109165280CD006DC452809D06C
:1046100046281DD0472841D141E0662818D0672898
:104620003CD13CE00021112F01DB112000E0781C7F
:104630000191009008A911A8FFF798FC1399059122
:104640000021119A15927F1C12980197009150E059
:104650000120C00703900120019008A9009711A82C
:10466000FFF784FC139A149905920022119B009283
:1046700012981593059A0192002901D0104602E084
:10468000791C40180190381A01D5019804E0404285
:10469000401E0090781C0190C01B029043E0012F47
:1046A00000DA01270021112F01DD112000E038463A
:1046B0000191009008A911A8FFF758FC13990591E2
:1046C000119A0021129815920091019721070CD49C
:1046D0000599B94201DB019900E00191012904DD4E
:1046E000159A491E515C302906D0B84201DA011DE5
:1046F00005DA0121029115E00199491EEDE7002834
:1047000005DC0099411800910199091A03E0019A0A
:10471000411C914200DD01910099401A401C029019
:104720000120C0070390200706D402990198814216
:1047300002DB0020C043029000206946C87707AF23
:10474000012103980337C907884224D00220119021
:104750002B201290039800280CDA404203902D2061
:10476000129007E00A210398FCF7B4FC30317F1E59
:10477000039039701199481E11900029F2DC0398BA
:104780000028EFD1791E1298087030782021084057
:104790004530BF1E387006A8C01BC01D039010987E
:1047A0000078002800D00120019941180298C01714
:1047B0000918039809180498401A401E0490E00351
:1047C00006D421461A9B199A049800F05FF84519FF
:1047D00010980078002803D01A9A199990476D1CF8
:1047E000E00324D521461A9B199A049800F04EF84C
:1047F00045191CE00098002807DB009905988842BD
:1048000003DD1598405C199901E0199930201A9A36
:10481000904700986D1C401C00900298401E02902A
:10482000002804D11A9A2E20199990476D1C0199DD
:10483000481E01900029DDDC05E038781A9A7F1CBB
:10484000199990476D1C0399481E03900029F4DCC8
:1048500021461A9B199A0498ACE600002D0000002E
:104860002B0000002000000000000000F8B5044606
:1048700000251E461746880404D405E0394620204A
:10488000B0476D1C641EF9D52846F8BDFFB5044637
:10489000002581B01E46C80301D5302700E020273F
:1048A000880404D505E038460399B0476D1C641EA2
:1048B000F9D5284605B0F0BD10B50B21014800F030
:1048C000A9FD10BD68000010F0B589B0A521A84869
:1048D00001F05AFCA7A204A9A74802F05BFA032240
:1048E000A64904A802F06FFE0026A34F3F1FBC1983
:1048F0002546C035287E00287DD090280AD1214643
:10490000D83101229A4801F023FC01229C499848A1
:1049100001F01EFC287E60280BD12146D8310122EF
:10492000934801F015FC964920222C39904801F05B
:104930000FFC287EB02822D19249B86CFCF762FFA8
:10494000FDF78CF9694608808E49F86CFCF75AFF30
:10495000FDF784F9694648808A49386DFCF752FFB3
:10496000FDF77CF9694688802146D83101228048CC
:1049700001F0EEFB062269467D4801F0E9FB287E46
:10498000A02822D18049386AFCF73CFFFDF766F980
:10499000694608807C49786AFCF734FFFDF75EF9C8
:1049A000694648807849B86AFCF72CFFFDF756F94C
:1049B000694688802146D83101226D4801F0C8FB44
:1049C000062269466A4801F0C3FB287EA12824D14B
:1049D0006D49386AFCF716FFFDF740F96946088013
:1049E0006949786AFCF70EFFFDF738F96946488097
:1049F0006549B86A00E0A6E0FCF704FFFDF72EF970
:104A0000694688802146D8310122594801F0A0FB2F
:104A100006226946564801F09BFB287EE0280BD110
:104A20002146D8310122524801F092FB524904221A
:104A300084314F4801F08CFB287EF0280CD10020F7
:104A400021460790D8310122494801F081FB042218
:104A500007A9474801F07CFB287ED1280AD12146CE
:104A6000D8310122424801F073FB1022391D404821
:104A700001F06EFB287EC02813D1444901224888EA
:104A8000401C488069460880002048808880214674
:104A9000D831374801F05CFB06226946344801F002
:104AA00057FB287EB12822D13649B86CFCF7AAFE04
:104AB000FDF7D4F8694608803249F86CFCF7A2FE8D
:104AC000FDF7CCF8694648802E49386DFCF79AFE10
:104AD000FDF7C4F8694688802146D8310122244870
:104AE00001F036FB06226946214801F031FB287EA1
:104AF000D02824D1264D234F68683946FCF782FE22
:104B0000FDF7ACF86946088139462868FCF77AFE5B
:104B1000FDF7A4F8694648813946A868FCF772FE9B
:104B2000FDF79CF8694688812146D831012210485A
:104B300001F00EFB062202A90D4801F009FB761CCC
:104B4000102E00D2D1E60A4801F02EFB084801F0F1
:104B500049FB10494880064888600846FDF7B6FDC5
:104B60000120FDF797FD09490020087009B0F0BD4C
:104B70005401001033323100C8020010E12E6542AA
:104B8000D80300100000204100007A441C000010EF
:104B9000B80200105C02001070B5FDF767FD154803
:104BA0000124047044708480C48013490161002191
:104BB0008181082216210020FEF732FB01221521F7
:104BC0000020FEF72DFB0D491520886300210122EE
:104BD0000846FEF76DFB01210846FDF765FD084D0F
:104BE000C820A968FCF776FAE860E81FF938047075
:104BF00070BD00005C0200101C4006404081044073
:104C0000C403001070B57F26F605304601F02CF97C
:104C1000124801F053F8124801F0B8F8114D002481
:104C2000284601F0EFF90520FDF7AAFD641C0A2CC7
:104C3000F6DB0C4C143C2046211D203001F0ACF872
:104C40000020E060201D01F09BFF002203210648A8
:104C500002F0C8FC304601F075FA70BDCDCCCC3DF9
:104C60009A99993ED8020010B8020010F8B52F4E5C
:104C7000344630468034143001F0C4F930462C4BB1
:104C80002C4A2D49483002F088FC2B480022032191
:104C9000183002F0A7FC606CFCF7D9FFE0677F21B9
:104CA000C905F06AFCF7A6FD400040082349FDF75E
:104CB00047F80BD8F01DF930C07F042806D01E48F5
:104CC000314603222031183002F0BEFB1A4A1C483C
:104CD000194B114600900C331831301D00F0F4FFD1
:104CE000184FB06C3946FCF7CAFD134D24352968BE
:104CF000FCF72FFD28603946F06CFCF7C0FD6968B1
:104D0000FCF727FD68603946306DFCF7B8FDA968EF
:104D1000FCF71FFD0549A860303108460322983092
:104D200002F062FB606D401C6065F8BDC4020010BB
:104D30000000404035FA8E3C940200100AD7233D13
:104D40000AD7A33B0000484310B502F02BFA1C48D9
:104D500001F036F9C82001F0D9F8FF212D311948AA
:104D600000F0DAFD002002F003F9154CEC34207F4E
:104D700002F09FFA607F02F082FAA07F02F0ADFAA3
:104D800001F020FEFFF73EFFFFF796FDFFF704FF5F
:104D900000202169FEF758FF012211460020FEF78E
:104DA0007DFFFEF7D3FA6075FDF754FC064900203D
:104DB000FEF75AFC01210020FEF778FC10BD000030
:104DC000D8020010C0000010881300000E4C01F043
:104DD000EDFD0028FBD001F0FDFD017801290FD089
:104DE000022907D0042908D00829F0D1A069401C65
:104DF000A061ECE7FFF73AFFE9E7FFF765FDE6E7BB
:104E0000807800F00DFBE2E7C4030010F0B5044623
:104E10004F008E488FB07F080D460D91874228DBEA
:104E20004042381820430CD08948874203DC87422F
:104E300018D1002C16D020462946FEF7EDFF0FB002
:104E4000F0BD844A844B20462946FCF715FE0746F0
:104E50000E46824A824B20462946FCF70DFE3A4612
:104E6000334649E00120FFF703F8FEF7DEFF0FB0FD
:104E7000F0BD7C48874243DAF920800587420BDA8F
:104E800020462946FEF758FF042801D1FEF7D6FF39
:104E9000204629460FB0F0BD22462B461046294633
:104EA000FCF7EAFD064602466F480F460B46062110
:104EB0007844FEF75BFF32463B46FCF7DDFD06908B
:104EC0006A48079132463B4604217844FEF74EFF7C
:104ED00032463B46FCF7D0FD00225C4BFCF71AFD46
:104EE00002460B4607990698FCF72EFE22462B46F3
:104EF000FCF7C2FD22462B46FCF70CFD0FB0F0BDBF
:104F00002046524C6900490800222346FCF7ACFDBC
:104F10000022D243FDF72BF90546024654480E46BF
:104F20000B4606217844FEF721FF2A463346FCF75C
:104F3000A3FD06904F4807912A4633460421784442
:104F4000FEF714FF2A463346FCF796FD002223465F
:104F5000FCF7E0FC059104902846314602F0E4F9A4
:104F6000089045480C46874219DB059B049A07992F
:104F70000698FCF7E9FD02460B4621460898FCF727
:104F80007BFD2346089AFCF7C5FC0122FDF7EFF8EC
:104F9000304A314BFCF762FD304A314B4AE0002782
:104FA0003A460B460898FCF7B5FC3A4623460A9168
:104FB0000E9010461946FCF75FFD2A463346FCF773
:104FC00053FD0A9B0E9AFCF7BFFD05460E46059B56
:104FD000049A07990698FCF7B7FD00910490012206
:104FE00028463146FDF7C3F81A4A1B4BFCF73CFD37
:104FF0000E460546012221460898FDF7B8F8009BA9
:10500000049AFCF739FD2A463346FCF727FD05468E
:105010000E46012238462146FDF7A9F80F4C174FDE
:1050200022463B46FCF720FD2A463346FCF71CFD92
:1050300022463B46FCF718FD0D9A002A00DD5DE78D
:105040000122D20751400FB0F0BD00000000F03F38
:105050000000F07F075C143326A6913C182D4454C1
:10506000FB21F93F0000E03FB4280000CA280000FF
:1050700040280000562800003333EF3FFB21E93F72
:10508000F0B589B004460D464800069172494008C3
:10509000884215DB7149884203DC884207D1002C25
:1050A00005D020462946FEF7B7FE09B0F0BD6C4892
:1050B000002D02DD6B4909B0F0BD6B4909B0F0BDB0
:1050C0006A49884211DA6A4988420BDA2046294641
:1050D000FEF732FE042801D1FEF7B0FE2046294635
:1050E00009B0F0BD0026F6435DE06D0061496D0832
:1050F000884232DA6049884219DA002601233246B2
:105100009B0720462946FCF705FC07460191012232
:1051100020462946FDF72BF80022584BFCF79EFC51
:105120003A46019BFCF710FD04460D463BE0012684
:105130000022524B20462946FCF7ECFB0746009123
:1051400000224E4B20462946FCF788FC3A46009B3D
:10515000FCF7FAFC04460D4625E04949884219DA75
:1051600002260022474B20462946FCF785FC0022F8
:10517000424BFCF7CFFB074602910022414B2046F1
:105180002946FCF76BFC3A46029BFCF7DDFC044623
:105190000D4608E0032622462B4600203A49FCF73C
:1051A000D3FC04460D4622462B4610461946FCF712
:1051B00063FC07460B4602460191FCF75DFC024684
:1051C000029032480B46039106217844FEF7CEFD4B
:1051D0003A46019BFCF750FC00902D4801910521B7
:1051E0007844039B029AFEF7C1FD039B029AFCF7E9
:1051F00043FC02460B4601990098002E0BDAFCF79F
:1052000089FB22462B46FCF737FC22462B46FCF74F
:105210002BFC09B0F0BDFCF77DFB22462B46FCF7CA
:105220002BFC1C4AF6007A4493191A685B68FCF759
:1052300015FC22462B46FCF711FC174A7A449319B9
:105240001A685B68FCF710FC069A002AE1DA012272
:10525000D207514009B0F0BD000010440000F07FBB
:10526000182D4454FB21F93FFB21F9BF0000DC3F1E
:105270000000203E0000F33F0000E63F0000F03F4A
:10528000008003400000F83F0000F0BF52260000FD
:1052900014260000AE25000078250000F0B51FB4EC
:1052A000039B54425D00164626439C46F40F6D084E
:1052B0004B004E4E5B082C438E46B44205D8474205
:1052C0000743FC0F1C43B44204D96346FEF7A9FD13
:1052D00005B0F0BD464E6644164309D0CC0F664675
:1052E000B61702273E40264304461C4304D00BE079
:1052F000FFF7C6FE05B0F0BD002EFBD0012EF9D0A1
:10530000022E32D0032E34D014462C430BD0374C0F
:10531000A54216D1A3420AD1012189078D438B43AF
:10532000194603950DE0704600280FDB25E0314F4C
:105330007F44002E0ED0012E10D0022E15D0032E49
:1053400017D0A3421DD17046002816DA2A482B49EF
:1053500005B0F0BD7968386805B0F0BD0122796804
:10536000D2073868514005B0F0BD2348244905B044
:10537000F0BD2148234905B0F0BD1F48224905B0C2
:10538000F0BD5B1B1B153C2B02DD1B481E490FE0CB
:105390006446002C05DA3C24E34202DA0020014690
:1053A00006E0039BFCF7D0FB49004908FFF768FEC5
:1053B000002EE4D0012E0BD0144A154B022E0CD037
:1053C000FCF74CFB0C4A0E4BFCF748FB05B0F0BD5C
:1053D0000122D207514005B0F0BDFCF73FFB064A61
:1053E000074BFCF741FB05B0F0BD00000000F07F6B
:1053F000000010C01C250000182D4454FB21F9BFEB
:10540000FB210940FB2109C0FB21F93F075C143354
:1054100026A6A13C014AD16090607047F4000010BC
:10542000F8B53B4E3278002A0DD0012A0FD0314614
:10543000384B4968022A13D0032A0ED10D281BD0FD
:105440000A2819D043E0412807D1012040E0542820
:1054500004D00020307000207060F8BD0220F9E711
:105460000D2807D00A2805D0402903D05854491CDC
:105470007160F8BD03202BE00020264A04465054FA
:1054800022E03D212348FBF773FE002806D03D2192
:105490002048FBF76DFE1F49451A00E07568B068AB
:1054A000E700C059FBF76EFEA84204D3B068C059AC
:1054B000FBF768FE0546B0682A46C0591549FBF758
:1054C0007FFE002806D0641CF0688442D9D30020F7
:1054D0003070F8BDB168E0000858FBF753FE0D4985
:1054E00040180090B068694638184268012090471B
:1054F000002802D0012805D101E007A000E008A0A3
:10550000FEF7E6FB40210348FBF727FEDFE700003C
:10551000F4000010C00400104F4B0D0A0000000002
:105520004552520D0A00000070B51E4E05467060CF
:105530000024016820468847002001F015FE0F284E
:1055400011D1B621142002F0B3F8E9680A20884787
:10555000022000F073F9002000F09AF900211320D6
:1055600002F0A6F801247068016801208847002035
:1055700001F0FAFDFA280ED1032000F013F90820FB
:1055800000F036F903210F2002F092F800211320D9
:1055900002F08EF8641C022C01D0012070BD0020A6
:1055A00070BD0000EC0000107CB52C4D044668680E
:1055B00001680120884782206946087068680022D7
:1055C000436801216846984768680122836806217C
:1055D000684698476946088800B2FCF72DFB694683
:1055E0002060488800B2FCF727FB69466060888825
:1055F00000B2FCF721FBA0606878032806D00528DC
:1056000007D0082808D00C280BD108E07125ED053B
:1056100007E039252D0604E07325ED0501E01D2581
:105620006D0669460020085EFCF706FB2946FCF77C
:10563000E9F8206069460220085EFCF7FDFA294679
:10564000FCF7E0F8606069460420085EFCF7F4FAB5
:105650002946FCF7D7F8A06000207CBDEC000010C4
:1056600038B5124C054660680168012088477720EC
:10567000C04369460870606800224368012168469B
:1056800098476068012283681146684698476946D2
:1056900000200856FCF7D0FA0021C943FCF72DF989
:1056A0000349FCF756F82860002038BDEC000010D4
:1056B0000000B8417CB51E4D0446686801680020B2
:1056C0008847822069460870686800224368012183
:1056D00068469847686801228368062168469847AB
:1056E000694648780978000209090901084300B2AF
:1056F000FCF7A2FA69462060C87889780002090997
:105700000901084300B2FCF797FA694660604879DE
:105710000979000209090901084300B2FCF78CFA73
:10572000A060E9782246684600F004F800207CBDBD
:10573000EC00001070B5154606460B00FEF7EFFAB8
:10574000050C0A0806040D00114C06E0114C04E09B
:10575000114C02E0114C00E0114C0020305EFCF7CF
:105760006BFA2146FCF74EF828600220305EFCF709
:1057700063FA2146FCF746F868600420305EFCF7C7
:105780005BFA2146FCF73EF8A860002070BD0000DF
:1057900000007A3B0000FA3B00007A3C0000FA3C33
:1057A00000007A3D10B50446104804704068016856
:1057B000012088472300FEF7B2FA080507090B0D00
:1057C0000F11130B08210CE009210AE00A2108E05F
:1057D0000B2106E00C2104E00D2102E00E2100E087
:1057E0000F21102001F064FF002010BDEC0000101C
:1057F00010B504461048447040680168012088478D
:105800000F2001F0B1FC01090901032C06D0052C81
:1058100006D0082C0BD00C2C04D10AE0032000E0A9
:10582000052001430F2001F043FF002010BD082098
:10583000F7E70C20F5E70000EC00001010B5044677
:10584000124884704068016800208847102001F0E9
:105850008BFCC108C9002300FEF761FA080905079F
:105860000E1016121409012000E00220014310203E
:1058700001F01EFF002010BD0320F7E70420F5E72C
:105880000620F3E70720F1E70520EFE7EC00001022
:1058900010B504460F48C47040680168002088476E
:1058A0000F2001F061FCC108C9002300FEF737FAA0
:1058B00005080F0D06040800042000E00320014342
:1058C0000F2001F0F5FE002010BD0220F7E70120B7
:1058D000F5E70000EC00001010B50124FEF71CFBFA
:1058E0000749884209D00749CA6810183322D243B1
:1058F00002808888401E88800024204610BD000059
:10590000FFFF00000C05001010B5FEF7E9FB014891
:10591000408810BD0C05001070B504460E460846C0
:1059200000F0FEFF074D0028E86009D0B1B2AC607E
:10593000298062689047FFF7E7FF6880002070BD0C
:10594000012070BD0C05001010B500F001F810BD6D
:1059500008B56A4600F002F808BD0000F8B5164622
:105960000F460125FEF7D8FA0B49884211D00B49A2
:10597000C9680C182046FEF781FA002809D1E178A1
:10598000A01D0918A2783846FBF7CEFBA07830801E
:1059900000252846F8BD0000FFFF00000C050010A0
:1059A000024A1188D0689268126810470C050010EE
:1059B000FFB5074683B011206E46C04330801C46B9
:1059C0001546B2703846FBF7DDFB401CC0B2694695
:1059D000C870002C2BD089780818801D40424008E0
:1059E0004000404281B22046FBF7B7FB3946A01D7C
:1059F000FBF7DDFB6946C978A01D08182A46049903
:105A0000FBF792FB69468878C9784018801D4042B0
:105A100040084000404281B2A01D891F00F06AF892
:105A200069468880062231462046FBF77DFB6946A1
:105A30008878C97807B04018801D4042400840006F
:105A4000404280B2F0BD13B5042201A900F002F873
:105A50001CBD0000F7B5254E144601250023224643
:105A600001990098FFF7A4FF07460098FEF754FA43
:105A70001F49884219D0F1680F18B978A14207D19F
:105A8000F16822460B1801990098FFF791FF2AE070
:105A9000FEF726FBB878A04203D27188201A814213
:105AA00022DB0098FFF718FFD7E7FEF70FFA10493F
:105AB000884203D03188091AB94203DAFEF710FB95
:105AC000FEF704FA0A4988420ED03188091AB94211
:105AD0000ADBF16822460B1801990098FFF768FF6E
:105AE000B088401CB08000252846FEBD0C05001083
:105AF000FFFF000070B500221546094E0CE0435D23
:105B00001B025A4000245300120400D57340641C49
:105B10001A46082CF7D36D1C8D42F0D390B270BD9D
:105B200021100000F0B503880026094F0CE08C5DC1
:105B30002402634000255C001B0400D57C406D1CE2
:105B40002346082DF7D3761C9642F0D30380F0BD90
:105B50002110000070B50D46044618A1FBF719FB93
:105B6000002808D018A12046FBF713FB002804D01A
:105B70002046FEF7ADF800261BE06A88298814A0AD
:105B8000FEF7A6F8F7E700240CE0704300196968F7
:105B900080000858FCF77BF802460B4611A0FEF780
:105BA00097F8641C6888A042EFDC10A0FEF790F81C
:105BB000761C2888B042E6DC70BD00006E6F686518
:105BC00061646572000000006D61746C61620000C8
:105BD0006D61747269783A282564782564290D0A04
:105BE0000000000025382E34662000000D0A000059
:105BF000F8B50D46074616461146284601F091FCB9
:105C000000901CA13846FBF7C4FA002810D00222ED
:105C10001BA13846FBF7D4FA002809D019A1384651
:105C2000FBF7B7FA002805D0394618A0FEF750F860
:105C300000240BE0314616A0F8E701CDFCF727F869
:105C400002460B4616A0FEF743F8641CB442F4D398
:105C500015A13846FBF79DFA002807D10098FCF7FC
:105C600016F802460B4612A0FEF732F80BA0FEF71C
:105C70002FF8F8BD6E6F6865616465720000000002
:105C80002F2B00006D61746C6162000025730000B1
:105C9000766563286C656E3A2564293A0D0A000022
:105CA00025382E34662000002F2B6E6F726D000099
:105CB0007C6E3A25382E34660000000001490860E9
:105CC0007047000028010010FFB59DB00E4603216B
:105CD000209801F026FC00247F270546FF050F943D
:105CE0000322314609A81197109401F0ADFB03215E
:105CF00009A801F02CFC19AA0FA91D9800F054FF67
:105D000003AA19A909A801F0B6FB1F4E032203A894
:105D1000316801F058FC03230CAA03A91F9801F075
:105D200050FBBD4228DD15A91D9800F08BFE6A4688
:105D300015A8209900F038FF0321684601F007FC00
:105D40000221684601F0EDFB129002981394149022
:105D50006A4612A91D9800F027FF06AA69462098F6
:105D600001F089FB032206A8716801F02CFC0322D4
:105D700006A90CA801F038FB0CA9269A1D9801F081
:105D800099F821B0F0BD0000400100100149086001
:105D90007047000040010010F8B50D46044603218D
:105DA00001F0D5FBFF21C905A06800260F02C842FB
:105DB0002AD27F21C905FBF7CCFC711EFBF79DFDA4
:105DC00001F0D6FA28607F21C905A068FBF7C1FC65
:105DD0000121FBF792FD01F0CBFA01466068FBF769
:105DE0004EFD784068607F21C905A068FBF7B1FCD3
:105DF0000121FBF782FD01F0BBFA01462068FBF7A9
:105E00003EFDEE60A8602BE001467F20C005FBF759
:105E1000F1FC0121FBF771FD01F0AAFA014660686F
:105E2000FBF72DFD784028607F20C005A168FBF7B7
:105E3000E1FC0021C943FBF760FD01F099FAAE6077
:105E400068607F20C005A168FBF7D4FC0121FBF747
:105E500054FD01F08DFA01462068FBF710FDE86063
:105E6000284600F0FDFDF8BD0149086070470000BC
:105E70002C01001010B5054904460868002802D01E
:105E80000968E0B28847204610BD0000D800001025
:105E900010B5002823D0124B0022001F196803E020
:105EA000814203D80A4649680029F9D1002A0AD05C
:105EB0001368841A9C4204D10068181810601046B8
:105EC00002E0506000E01860002907D002680B1A59
:105ED000934203D10B68D21802604968416010BD3B
:105EE00048010010084A00210C234B43D35C834235
:105EF00004D10C204143881840687047491C0A2986
:105F0000F2D3002070470000F076000070B5074C17
:105F1000054632216060FBF7F3F8E0601421284663
:105F2000FBF7EEF82061002070BD000004010010B6
:105F3000F8B5054619482C4640698034142802DD1E
:105F4000216B491C2163266B022E12D9FBF774FECC
:105F5000134F014600903868FBF791FC28640099C4
:105F60007868FBF78CFC68640099B868FBF787FCDD
:105F7000A86400271E2E07D908482763476100221E
:105F80000321074801F02EFB2846743001F072F916
:105F9000E06AE762A0620020F8BD00000401001082
:105FA0000005001070B504461546806F00F09AFB9E
:105FB000214603227C31284601F030FB002070BDD1
:105FC00070B505460321084600F04EF90321A86785
:105FD000084600F049F92C4680340321A0600846A9
:105FE00000F042F900212163A061A96F002906D0C9
:105FF000A168002903D0002801D0002070BD012035
:1060000070BD0000F8B54C4E0446B0697168401C84
:10601000FBF776F8B161F0693169401CFBF770F865
:10602000F161306AF168401CFBF76AF82046316282
:1060300001F002F922460C32214615460846FFF7C8
:10604000B1FF0321284601F06CFAA06120461C3004
:10605000074601F0FFF82546803522462832A86819
:106060003946009200F03EFB214603228C31009815
:1060700001F0D4FA22463432214603231746403138
:10608000009801F0B8FA286B05280DD97F222B4B18
:10609000D2050321384601F01EFA002804D100225F
:1060A0000321384601F09EFAF069002812D1B26847
:1060B0000120C007134643400321009801F00BFA6A
:1060C00000280BD0002028630246706103211C4881
:1060D00001F088FA306A002809D022E070690322B2
:1060E000401C70611648009901F07EF9F2E73078A3
:1060F000002816D020465830009001F0B9F822460A
:1061000064322146032317469C31009801F073FA4C
:106110003946A86900F00DFB0321384601F001FA69
:106120002067B069002802D12046FFF701FFE86A26
:10613000401CE8620020F8BD04010010000080BF90
:10614000000500100149886070470000040100103C
:1061500070B504468378C07815460002FF261A18E9
:106160000136B24201D9012070BD1A19801D1018E4
:106170002A46FAF7D9FFA078290A4019A070E078DA
:106180004018E070002070BD10B55A2202704170B6
:1061900000218170C17001714171FF210131801DA9
:1061A000FAF7DBFF002010BD18B504460020694651
:1061B0000880022221466846FFF7B4FC0222A11C97
:1061C0006846FFF7AFFCE178A07809024218A11DEC
:1061D0006846FFF7A7FC694608882071000A6071CD
:1061E000002018BD8178C0780002801D0818704713
:1061F000F7B50C4682B00988608800F035F805468E
:106200006088014600F030F806466088014600F0DC
:106210002BF800902188608800F026F80746294670
:10622000204600F00FFB32462146284600F0C6F912
:106230003146009800F076F83A462946009800F07A
:10624000BDF93846049A029900F0B8F9284600F0E2
:1062500054F8304600F051F8009800F04EF83846F7
:1062600000F04BF805B0F0BD70B50E460546704322
:106270008000083000F054FB04000AD020460830AB
:106280006060258066800021204600F029F82046C5
:1062900070BD002070BD30B50D46044600F00EFB09
:1062A000002207E0534390009B189B006168285828
:1062B000C850521C63889342F4DC30BD10B50446CC
:1062C00000F0FCFA00217F20C00505E04A43521887
:1062D00092006368491C985062888A42F6DC10BDBF
:1062E00010B5002203E094004368521C1951038842
:1062F000448863439342F6DC10BD10B5FFF7C8FD38
:1063000010BD30B5002308E0448845685C4364183C
:10631000A4002C599D0054515B1C04889C42F3DC62
:10632000002030BDF0B591B04A68089242680692EC
:106330000A880792468800230F9349888A426ED1C3
:106340000088B042FBD18242F9D17F241146E40596
:1063500006980EE0079A521A01E008C0521E002A61
:10636000FBD110C04A1E01E008C0521E002AFBD11A
:10637000491E0029EED100270996FEE038467043F9
:106380000899800044180B94069945180A952068CE
:10639000059000200090B0000E90019738461DE057
:1063A00001212068C905884205DB0099FBF7D2FC72
:1063B0000DD220680CE00121C90748400099FBF785
:1063C000C9FC04D201212068C907484000E00098B8
:1063D00000900E9804190198401C0190079988427A
:1063E000DED300984000000E60D008980390012092
:1063F000029001240598E405A04201DA21024840F8
:106400000099FBF79DFC42D007980399C01B401EE2
:1064100001903046784380004418019835E045E00B
:106420000298012170438000401904902068C9053A
:10643000884201DA090248400099FBF781FC1ED12D
:10644000F01B09E0039A2168126804C4039A1160E2
:106450000399091D401E03910028F3D1304609E03D
:106460000499049A09682B681360049A121D049217
:1064700002C5401E0028F3D101200F900EE00298C3
:10648000401C02900198401E01900028C8D10F982E
:10649000012803D005984000000E07D00B9C0A9DF0
:1064A00020680590F01B039004900AE0012011B0D1
:1064B000F0BD20680599FBF7E2F901C40498401E7D
:1064C00004900028F5D1344605E028680599FBF7CB
:1064D000D6F901C5641E002CF7D10020069D01905D
:1064E0000798089C02903FE00198B84205D10398B4
:1064F000800004190E9845192DE0206805900B982E
:106500000D900A980C90039804900EE0206800907B
:106510000D9802C80D900598FBF774F90099FBF7E8
:106520006DF901C40498401E04900028EED1304655
:1065300004960EE0286800900C9802C80C9005980C
:10654000FBF760F90099FBF759F901C50498401E63
:1065500004900028EED1B80004190298401E029061
:106560000198401C019002980028BDD10898001D98
:1065700008900998401E7F1C09900998002800D0B7
:10658000FCE694E7F8B505460E46008800F066FF85
:10659000074600240BE03A4621462846FFF7B1FEA5
:1065A0002988384600F0F2F9A1007050641C688810
:1065B000A042F0DC384600F08AFFF8BDF7B582B0A3
:1065C0000F4602980B884A880299408809889842A9
:1065D00003D00092024628A00AE0049803888B4268
:1065E00002D14088904208D004984088009031A0A1
:1065F000FDF76EFB012005B0F0BD04980026018078
:1066000004987988418031E000252BE0049900222C
:1066100070434968401980000A5014461DE079888B
:106620007A6801916143491989005158029A70436F
:106630005268001980001058FBF7E4F804994A6882
:106640000199009271434919890001915158FBF752
:1066500080F8019A0099641C885002984088A042F2
:10666000DDDC6D1C7888A842D0DC761C029800889E
:10667000B042C9DC0020BEE76D5F6D756C206572AD
:10668000726F722C206F7574206D75737420626543
:10669000206D2A6E2078206E2A71206E6F77206917
:1066A000732025642A256420782025642A25640D1A
:1066B0000A0000006D5F6D756C206572726F722C40
:1066C000206F7574206D7573742062652025647861
:1066D0002564206E6F772069732025647825640D0A
:1066E0000A000000F7B582B01646074600251BE0F9
:1066F0000021A800009031500C4611E068430019B9
:106700007968800009580398A2008058FBF77AF84E
:1067100000997158FBF71DF801460098641C315030
:106720007888A042EADC6D1C3888A842E0DC05B01D
:10673000F0BDF3B58BB0064600251AE00021AF008E
:106740006846C1510C4610E068430019716880002A
:1067500009580C98A2008058FBF754F86946C959AB
:10676000FAF7F7FF6946C851641C7088A042EBDC59
:106770006D1C3088A842E1DC82B269460C9800F0BA
:1067800063FE0DB0F0BD018840884843704710B5E6
:10679000446840884843801880002350002010BD82
:1067A00070B5002308E09C001559448846685C4396
:1067B0006418A40035515B1C04889C42F3DC002063
:1067C00070BD70B5002307E04C439D00E418A400A1
:1067D0004668555935515B1C44889C42F4DC0020C6
:1067E00070BDF8B505460E46008800F037FE074636
:1067F00000240BE03A4621462846FFF782FD29880F
:10680000384600F0CBFDA1007050641C6888A0429F
:10681000F0DC384600F05BFEF8BDF3B581B005460C
:10682000002409E00298A60040686F688159B859B1
:10683000FAF7E0FFB851641C288869884843A042F1
:10684000F0DCFEBDF8B542880B884C8805889A427A
:1068500001D1A54206D029460FA00094FDF738FAD1
:106860000120F8BD002311E000220BE05C43A418D6
:106870004568A4002D5904884E685443E418A400C8
:106880003551521C44889442F0DC5B1C02889A42C9
:10689000EADC0020F8BD00007472616E73706F73E3
:1068A00065206572726F723A202564782564202A0B
:1068B0002025647825640D0A0000000010B5002131
:1068C0000A4603E08C004368491C1A510388448837
:1068D00063438B42F6DC10BD104A10B591100020C6
:1068E000FDF7DAF80320FDF75FF8FBF745FF00221C
:1068F00004211046FDF704F8002108220846FCF7A1
:10690000FFFFE12149020020FDF762F9FCF74EFC90
:10691000FEF71AFAFEF75AFA002010BD006CDC02EE
:10692000F0B50B30C108C900144F0026144A0FE01F
:1069300003688B420BD38B4205D95C1A4318456818
:1069400030C3083B00E04368136002C004E0021D4E
:1069500010680028ECD13046002803D138680028A0
:1069600001D00020F0BD064A06481060064A121AFF
:10697000D208D20044C001203860D7E74C01001093
:10698000480100108C060010881A001070B50646E9
:106990000D460846FBF75BF904462946304600F0F1
:1069A00003FD2146FAF76BFF70BD00000448018D1E
:1069B000408D814201D001207047002070470000C7
:1069C0005C060010024800214185018570470000E7
:1069D0005C06001070B5084C0025208D618D884242
:1069E00008D00C214143054A401C8D181E21FAF79E
:1069F00071FB2185284670BD5C0600101C05001047
:106A0000F7B50E4C0546608D0E4607461E21401C0C
:106A1000FAF760FB208D814201D10020FEBD0C20E1
:106A2000474307481E213A180298906060C2608D63
:106A3000401CFAF74FFB61850120FEBD5C0600108B
:106A40001C05001002680A6001224368D207534007
:106A50004B60836853408B60C0685040C86070478B
:106A600001214268C9074A40426082684A40826008
:106A7000C2684A40C2607047FEB50C460546C16810
:106A80001646E068FAF7BEFE0190A968A068FAF71A
:106A9000B9FE009069686068FAF7B4FE0746296895
:106AA0002068FAF7AFFE3946FAF7A4FE0099FAF724
:106AB000A1FE0199FAF79EFE3060A968E068FAF736
:106AC000A1FE0190E968A068FAF79CFE07462968D4
:106AD0006068FAF797FE009069682068FAF792FEFE
