:2000000020FFFF1F1D010000F9020000990A000000000000000000000000000000000000E7
:200020000000000000000000000000002901000000000000000000002B010000A9010000C0
:200040002F0100002F0100002F0100002F0100002F0100002F0100002F0100002F01000020
:200060002F0100002F0100002F0100002F0100002F0100002F0100002F0100002F01000000
:200080002F0100002F0100002F0100002F0100002F0100002F0100002F0100002F010000E0
:2000A0002F0100002F0100002F0100002F0100002F0100002F0100002F0100002F010000C0
:2000C0000348854600F076F9004800478301000020FFFF1F0E480021016001200C4A000408
:2000E000C03A50600B4806220270427840231A404270A022C270084B80221A7001714171A9
:200100008179C906FCD581790907890FFBD17047008104400040064000500640044880472C
:2001200004480047FEE7FEE7FEE7FEE7FEE7FEE7D5000000C100000010B5002000F024FA45
:20014000002000F0BDF810BD38B5224C04E02078002801D000F09CFC6946002000F058F9A5
:200160000128F4D06846007838BD70B50D46044604E020781849641C00F0DCFD6D1EF8D23A
:2001800070BD00F074F80A2000F072F8134800F086F8012000F094F8E1214902104800F057
:2001A000BDF900F0F7FBFCE710B50A4C606803280CDD00F0EBFB002808D100F05EFC002884
:2001C00004D0002000F07CF8012020706068401C606010BD04F8FF1F20F8FF1FA0860100EE
:2001E0008082000010B501464548464C0068022900D1626801290AD16168090F491C00F069
:200200008DF861684903490F491C00F087F810BD70B50C233C4D4343EC585B1926685B68DF
:200220003C351E43266084002B598800195807263602B143195029590B585207520D1343B0
:200240000B5070BD10B5314801690422114301612F4941610020FFF7C5FF2E4C2E4900F0BD
:200260005DF87D21C90020604843606010BDE9E708B52849254A496851611169052319435C
:2002800011610021916107E013690093DB0702D0009BDB03F8D5491C8142F5D308BD1D49CE
:2002A0001B4A096848431949904201D94A6100E04861002088610869052210430861704787
:2002C000124902220028086901D0104300E09043086170470F4A083251601060704710B5DF
:2002E0000C49044608310868002802D00968E0B28847204610BD704710B5FFF7FCFF10BD7D
:2003000000F8FF1F408004403C0D000000E000E0FFFFFF000CF8FF1F40420F0030B50B46D4
:20032000014600202022012409E00D46D5409D4205D31D469540491B254695404019154657
:20034000521E002DF1DC30BD0EB5C217C10F5040CA0740180021054B0293019200910A46A7
:200360000B4600F052FC03B000BD0000330400000EB505490291002100910A460B460191BE
:2003800000F043FC03B000BD3304000010B5002904DB0124E40740428C412146002B04DBEA
:2003A0001C460123DB075242A3418B4200D1824210BD0000064C0125064E05E0E36807CC5F
:2003C0002B430C3C98471034B442F7D3FFF77CFED40D0000F40D000010B5202A04DB0146FD
:2003E000203A9140002010BD914020239C1A0346E3401943904010BD7047000000000000FF
:20040000FFFFFFFFFFFFFFFFFFFFFFFFFEFFFFFF704A800010580279920603D5C0790870AF
:20042000002070470179090703D5017908221143017101207047674A800010580279120615
:20044000FCD5C171704710B5002803D00120FFF7C9FE10BD0220FFF7C5FE5F494A6803231C
:200460009B069A434A604A6801239B061A434A605A4A52795A4B52064A6803D51A434A60D9
:20048000400810BD9A434A6010BDF0B50E46514A810085B05558FFF7D6FF0190E878F3212C
:2004A0000840E87005243046FFF762FF4D4A4E4B00F036FB07460391314661430198FFF7CA
:2004C0002DFF2146414300900198FFF727FF024603990291801B00D5B01AFFF735FF3A4665
:2004E000029BFFF753FF02D3641C202CE4D3641EE0063E49C00E8872287840094001287046
:2005000028780099C904C90E0843287000986870E8780C210843E87005B0F0BD73B5009859
:200520000C224607760F3046314C504322580019136840686D460343136000984007400FE5
:20054000FFF7A3FF002409E0C1054A0F8104C90E80060919400FFFF75BFE641C28684103E1
:20056000C90EA142F0DC234C2078002808D019482149001F06702148FFF7ACFE00202070D5
:2005800028784007400F7CBD01B5009811494007C00E08580021017041708170C170817178
:2005A0000172084608BD08B50A4B1B1F69461878FFF72EFF0028F9D16846007808BD054ADB
:2005C00000B503460146121F1078FFF734FF184600BD000028F8FF1F008004400040064051
:2005E00000000100B81E85EB51B89E3F00A00640900D00001CF8FF1FA7050000BF050000A9
:20060000F0B503880026FB4F0CE08C5D2402634000255C001B0400D57C406D1C2346082D44
:20062000F7D3761C9642F0D30380F0BD18B50446002069460880214604226846FFF7E0FF15
:200640002146083162886846FFF7DAFF6946088818BDF1B582B0E8480190E74F0020143F3D
:200660000090387A0025002804D03D720221E348FFF77BFDFFF768FDE14CDF4E22685A21F2
:20068000083E130000F03BFB05040A1B2D3741005A284FD13170012020604BE0A62805D056
:2006A000029A904209D17270022022E0D3480A211430FFF75AFD25603CE021603AE0616810
:2006C0007218491C90706160022933D3032021C4C94820304188801C20292BD9202101805C
:2006E00028E061687218491C10716160022921D3042021C41EE0019A61685054491C6160A4
:200700007088884216D8256002E00098002811D0B9480838FFF78AFFB188884203D1012069
:2007200038720020FEBDB5480221801CFFF71DFD0120FEBD0F20FEBD70B5AF4C0025143C0D
:20074000207A002804D025720221AC48FFF70DFD607A002805D0A94865720221001DFFF780
:2007600004FDA54D5A2020352E463070A4207070E87A8400241D284674800835FFF756FFEE
:20078000B08006213046FFF7F0FC21462846FFF7ECFCFFF7D9FC0446FFF7D6FC5A2C01D1C2
:2007A000A12801D0012070BD002070BD70B5924BA722083B184628300272012100224272D4
:2007C000C172C260DD680C4608302B0000F097FA122C0A0C0E10132C162C2C2C181A0C249C
:2007E00026290E2C874A01E0846020E082601EE001221204FAE701229202F7E70F22F5E73E
:200800002022F3E782607B4A0421223AC260CA0602617D4A42610AE07C4AE7E7012292039F
:20082000E4E77B4A526AE1E77A4A00214260491CC170FFF781FF70BD6F4AA0232032137291
:200840000023537293720223D372D160106173E770B50024704D7020287072B628466849D0
:200860004969884762B62878810601D5672406E0C10601D5682402E0C00700D069242046DC
:2008800070BD0246012003039A4202D35118994200D20020704770B50D460446FFF74CFC1E
:2008A0005748C56084F3088884F309880561846001205A4900038860A84700BF70BDF1B5EB
:2008C0004D4E4D48314648310838CC68408882B0002C54D0844200D82046009046480425EF
:2008E0004830876800208446009CB807800F01D0652007E021463846FFF7C3FF00281FD1CB
:200900004448643884461DE0AC4207D231462046FF2201E00A54401CA842FBD33E484760A3
:2009200002CE81600621C171FFF792FF8446002808D17F19AC4201D9284600E02046241A09
:20094000002CE1D160460122002809D02A49002414394A720C7200F0D3F80298047013E015
:20096000254900984831CB68181AC8608C68009BE3188B60002802D00298027004E0029971
:200980000020087000F0BCF80020FEBD1A48483040787047184D08B500274835684607700C
:2009A0002946164ABC396F703846921D135C0B70401C491C0E28F9D30F48114973380E4C04
:2009C00001264861287800282AD0A520FFF741FE0028F7D16E702878002823D00128F1D117
:2009E0006846FFF76CFF69460978491E0843E9D02F70E7E721100000C0F8FF1FB40D000018
:200A000034F8FF1F0003014BFF0300200000FF1F008004403C2800000000024000ED00E0C6
:200A2000A420D3E72078801E030000F068F90A0A060D0606070617062006C3E7FFF7B6FED7
:200A4000C0E700F033F8BDE76068A860A068E86000210420FFF7F0FE2E70B3E70021092065
:200A6000FFF7EAFE6168E068FFF715FFAAE700210B20FFF7E1FE00F011F8012109034868F4
:200A8000401A2149884201D300207047012070470121090303C9FEE600F000F8BFF34F8FEF
:200AA0001B491A48C860BFF34F8FFEE7F8B519480769C56839462846FFF7E3FE00280CD060
:200AC000AC0AA402291B0126C919B6028919491E0020890A0D02104F0BE010490CE07C607F
:200AE0000920F871FFF7B4FE002804D1A419FF3D013D002DF3D101460220FFF79DFEF8BDE8
:200B00000146042098E6000001F000000400FA0500ED00E0B8F8FF1F00000240D82700001C
:200B2000F0B51FB488B00B990998002448400999C00F490049080991C0070B99009049002B
:200B400049080B9109990898A64608431CD00B990A98084318D0099801244000420D48002D
:200B6000410D099824050003000B204309900B980003000B20430B9050181C49401800225D
:200B800001901446104605E0002001460DB0F0BD032801DA034600E003239C46C11A0AAE94
:200BA0000AE05F0008ADED5B4F00F75B7D430027AA187C41491C5B1E6145F2DD410004ABA5
:200BC0005A522104120C0A43240C401C0828DFDB019802900099704601910090059B049A89
:200BE0000799069800F011F8D0E700000DFCFFFF10B5002B08DA0024401C614192185B41C6
:200C00001A4301D14008400010BDF0B51FB482B005460C0003D0084600F05AF802E000F01A
:200C200057F820300246009021462846FFF7D4FB049B059A04460F4618431143084314D0E8
:200C4000184610431BD0009840210A1A1846059900F02DF805460E46009A05990498FFF761
:200C6000BBFB084305D0012004E02046394607B0F0BD0020C11705430E432C43374300993D
:200C80000E986305401A7905E40A00220C43FD0A0A3002D500200146E9E7010510196941E7
:200CA0000C9C0D9D00196941FFF7A2FFDFE710B5202A04DB0846203AD040002110BD0B46DD
:200CC000D340D0402024A21A91400843194610BD2021020C01D010211046020A01D01046CF
:200CE0000839020901D01046091F820801D01046891E420801D0881E7047081A704730B4CC
:200D00007446641E2578641CAB4200D21D46635D5B00E31830BC184702E008C8121F08C14B
:200D2000002AFAD17047002001E001C1121F002AFBD1704710B5FFF7D2FA10BD3880044016
:200D400000020000000000003880044000040000000000003880044000080000000000008D
:200D60003880044000100000000000003880044000200000000000000090044000A0044093
:200D800000B0044000C0044000D004400C0D0E0034800440000400000A0000003480044022
:200DA000000800000B00000034800440001000000C0000005AA15AA25AA300B58021017051
:200DC00001780906FCD500BD5AA7000201500000AAEA0000F40D000000F8FF1F4C000000B2
:200DE000180D0000400E00004CF8FF1FD4060000260D0000006CDC020000000000000000C7
:200E00000000000000000000000000000000000001000000000000000000000000A00640EB
:200E200000B0064000C00640000000000000000000000000000000000000000000000000B6
:200E4000FFFFFFFFFFFFFFFFFFFFFFFFFFFFFFFFFFFFFFFFFFFFFFFFFFFFFFFFFFFFFFFFB2
:200E6000FFFFFFFFFFFFFFFFFFFFFFFFFFFFFFFFFFFFFFFFFFFFFFFFFFFFFFFFFFFFFFFF92
:200E8000FFFFFFFFFFFFFFFFFFFFFFFFFFFFFFFFFFFFFFFFFFFFFFFFFFFFFFFFFFFFFFFF72
:200EA000FFFFFFFFFFFFFFFFFFFFFFFFFFFFFFFFFFFFFFFFFFFFFFFFFFFFFFFFFFFFFFFF52
:200EC000FFFFFFFFFFFFFFFFFFFFFFFFFFFFFFFFFFFFFFFFFFFFFFFFFFFFFFFFFFFFFFFF32
:200EE000FFFFFFFFFFFFFFFFFFFFFFFFFFFFFFFFFFFFFFFFFFFFFFFFFFFFFFFFFFFFFFFF12
:200F0000FFFFFFFFFFFFFFFFFFFFFFFFFFFFFFFFFFFFFFFFFFFFFFFFFFFFFFFFFFFFFFFFF1
:200F2000FFFFFFFFFFFFFFFFFFFFFFFFFFFFFFFFFFFFFFFFFFFFFFFFFFFFFFFFFFFFFFFFD1
:200F4000FFFFFFFFFFFFFFFFFFFFFFFFFFFFFFFFFFFFFFFFFFFFFFFFFFFFFFFFFFFFFFFFB1
:200F6000FFFFFFFFFFFFFFFFFFFFFFFFFFFFFFFFFFFFFFFFFFFFFFFFFFFFFFFFFFFFFFFF91
:200F8000FFFFFFFFFFFFFFFFFFFFFFFFFFFFFFFFFFFFFFFFFFFFFFFFFFFFFFFFFFFFFFFF71
:200FA000FFFFFFFFFFFFFFFFFFFFFFFFFFFFFFFFFFFFFFFFFFFFFFFFFFFFFFFFFFFFFFFF51
:200FC000FFFFFFFFFFFFFFFFFFFFFFFFFFFFFFFFFFFFFFFFFFFFFFFFFFFFFFFFFFFFFFFF31
:200FE000FFFFFFFFFFFFFFFFFFFFFFFFFFFFFFFFFFFFFFFFFFFFFFFFFFFFFFFFFFFFFFFF11
:20100000C00600200D12000019290000711D000000000000000000000000000000000000FB
:201020000000000000000000000000001912000000000000000000001B120000631C0000D9
:201040001F1200001F1200001F1200001F1200001F1200001F1200001F1200001F12000008
:201060001F1200001F1200001F1200001F1200008D1C00001F1200001F1200001F12000070
:201080001F1200001F1200001F1200001F1200001F1200001F1200002F1D00001F120000AD
:2010A0001F1200001F1200001F1200001F1200001F1200001F120000C71C00001F120000F6
:2010C0000348854604F0DEFE004800473F180000C00600204548002101600120434A00049D
:2010E000C03A5060424806220270427840231A404270A022C2703F4B80221A70017141712B
:201100008179C906FCD581790907890FFBD1704710B5374C2078012183093748CA03002B0B
:2011200011D023789B09012B53D021788909022908D12E49C0394968090F491C03F0CBFFB6
:201140002E49086010BD63795B0637D423785B070CD422789206520F9140C9B203F0BBFF32
:2011600061788906890F02D0400900E01046E17849094901CA06D20EDBD149110B0005F073
:2011800086F808060A0D101316191B05D1E70521C9014843CDE705210902FAE70F21C90147
:2011A000F7E705214902F4E7B7218900F1E7B721C900EEE71249ECE71249EAE72179C90693
:2011C000C90E491C03F087FF6179C906C90E1831DFE76078C00707D0207A0007400F8140A4
:2011E000094803F078FFA4E71046A2E700810440004006400050064000127A0000F8FF1F47
:2012000095080000710B000000093D000448804704480047FEE7FEE7FEE7FEE7FEE7FEE76B
:20122000D5100000C11000003EB504220021012001F0AAFB00240021012001F0DBFB0520B5
:2012400001F07AFA641C122CF5DBFE49FE4801F021FF00221221104601F096FB002003F0BD
:20126000D8FB002808D0012069460870002048706B4607CB02F0A5FA022003F0FDFA032038
:2012800003F01FFB002003F03DFB03F0E5FA012003F0DBFAED4802F0D5FA002003F08AFDAB
:2012A000002802D0EAA004F0CBFF00203EBDF0B50178ED4E8FB030460C3001240025EB4F03
:2012C00001900B0004F0E3FF0604FC587A17FB150121002001F060FC0121084601F05CFC55
:2012E000002201231221104601F097FBDE48503004720FB0F0BD03F07DFC716C019802F040
:2013000035FFB86804F0B5FAD849B0640C31081F03F001FED448183003F04FF87878002895
:2013200013D102F0B4FF00280FD11821715ED0A003F06EFA1A21715ECFA003F069FA1C213D
:20134000715ECFA003F064FA7C70B11DC648019A03F022F8CC48F16C4407814204DCCB481C
:2013600002F07DFA204603E0204602F078FA002002F078FAF564BCE7002002F0A3F800289C
:20138000B7D1B948E430C0880028B2D0B64988226431881803F0C9FEB3490020F03102F0F7
:2013A00087F8BB48C188002002F0A6F8002002F0CBF80321022001F01DFB9AE70EAAB11D87
:2013C000A94803F0ADFBA848716C02F0CFFEB01D716C02F0CBFE0020786045000446A91947
:2013E0001222705F8A5E801A04F0FCF9A1008919096B04F056F804F023FA29469B4D00B26C
:201400001035685204F0EEF901462C204443A0480830201803F024FE04F012FA7C6800B2D5
:201420006100685204F0DEF901462C20444398488C30201803F014FE04F002FA01467868BC
:201440004200401CA95278600328C6DB002078607D68864C69008819C288008B1634101A4D
:2014600000B2605204F0BEF901462C2045438948281803F0F5FD04F0E3F97D6800B269007C
:20148000605204F0AFF901462C20454381488430281803F0E5FD04F0D3F979684A00491C01
:2014A000A05279600329D3DB002078607C680C216500A8191E22415E825E881A01E06BE1CA
:2014C0007FE104F08FF9A1008919496A03F0E9FF04F0B6F92946654D00B21C35685204F0EA
:2014E00081F901462C2044436B48201803F0B8FD04F0A6F97C6800B26100685204F072F922
:2015000001462C20444364488430201803F0A8FD04F096F979684A00491CA852796003296F
:20152000C4DBAC1F00200221205E615E4043494341180420205E4043401C081804F052F979
:2015400002F06CF9F16C03F053FFF0640020205E801C04280DD80220205E801C042808D8AB
:201560000420205E801C042803D8002020806080A0800020786003F093FA05467C683B483C
:2015800061001030405E04F02DF9294603F089FFA20005A9885003F086FA05467C683348C3
:2015A00066001630805F04F01DF9294603F079FFA50008A948512D481C30805F04F012F92E
:2015C000294E0BA9485150367068002800D14851641C7C60032CCEDB0A4608A905A802F083
:2015E0009AFD2148643002F05FFF0020CBE03118487A90280CD11C4801226430093102F055
:2016000061FF1949012250310846143002F05AFF78683118487AA0280CD1134801226430E5
:20162000093102F04FFF11490F4806221031643002F048FF78683118487AB02837D101225B
:2016400009482BE000350C00888000000000FA43424D5031383020696E6974206661696CA0
:2016600065640D0A00000000BCF9FF1F04F8FF1F475F43414C580000475F43414C59000000
:20168000475F43414C5A00000AD7A33BCDCC4C3E28FBFF1F38FCFF1F40FDFF1F64300931DC
:2016A00002F010FF0622FE49FE4802F00BFF78683118487AC02809D10122FA48093102F03A
:2016C00001FF0622F748019902F0FCFE78683118487AD0282FD10122F248093102F0F2FEC1
:2016E000F048743802F0B1F802A80090ED4874380FC802F0C3F8EC4D0298294603F0D1FEC8
:2017000004F09EF8E64C29460C342080039803F0C8FE04F095F86080E448049903F0B9FE96
:20172000E34903F0BEFE04F08BF8A08006222146DC4802F0C7FE78683018407AD12810D111
:20174000D848743802F081F8786801223118D548093102F0B7FED34910227439D14802F002
:20176000B1FE78683118487AF0280AD10122CD48093102F0A7FECB4904221C39C94802F041
:20178000A1FE7868401C7860717C814200DD2EE7C44802F0A4FEACE5C6A002F0C6FFC14C99
:2017A000143C2060C4A002F0C0FF6060C4A002F0BCFFC2B2214662740931C3A002F095FF9F
:2017C00097E5C3A004F03CFD93E500B5014689B0C44801F097FA0122114601F0D8FA002065
:2017E0006A461070FF21108104310191907201210390D172BC4A069204916A461075684631
:20180000079101F0C1FD00210122084601F0F6FA09B000BD10B502220321002001F0B4F8CE
:20182000012000F089FF0321002001F0DBF8C4B207220321002000F0FFFE204610BDE124FF
:20184000AEB06402002001F0A1FE00F074FFFFF7E1FF934916390870C82000F06DFF01F003
:2018600054FB01210904081A02F03CFF01F088FF00F087FC02F062FF002863D09B491620E8
:2018800002F067FF21469AA002F0C2FF00218AA002F0BEFFC82198A002F0BAFF00219748D6
:2018A00002F0B6FF95480021083002F0B1FF93480021103002F0ACFF642191A002F0A8FF81
:2018C000642191A002F0A4FF642191A002F0A0FF6324E443214690A002F09AFF214690A00F
:2018E00002F096FF214690A002F092FF0124240321468FA002F08CFF21468FA002F088FFD9
:2019000021468FA002F084FF644221468EA002F07FFF21468EA002F07BFF21468EA002F089
:2019200077FF00218EA002F073FF8EA003C82C912B9006222BA964A002F03BFF062160A0BA
:2019400002F066FF6AA002F0F0FEFFF73EFF04220321022001F018F859A002F0E6FEC2B263
:201960005048143801464274093157A002F0BDFE61A002F0DAFE4B4C643C20645F4802F089
:20198000D4FE20835D48083002F0CFFE60835B48103002F0CAFEA0832046183002F004FDF2
:2019A00057A002F0C2FE20A9088257A002F0BDFE20A9488256A002F0B8FE20A9888256A08D
:2019C00002F0B3FE20A9088355A002F0AEFE20A9488355A002F0A9FE20A9888323462433C7
:2019E0009A1F26A924A802F0F1FC57A002F09DFE05B24FA002F099FE01B26818C20F1018D5
:201A000040106082481B03F0EDFE232601467606304603F083FD20634DA002F086FE05B2C1
:201A200045A002F082FE01B26818C20F10184010A082481B03F0D6FE0146304603F06EFD6C
:201A4000606345A002F071FE05B23DA002F06DFE01B26818C20F10184010E082481B03F058
:201A6000C1FE0146304603F059FDA0633CA002F05CFE6064FFF7D8FB216C3C4C204603F07B
:201A80002AFB0146002001F03CF82146012001F038F802F095FB0021084600F0ECF967E0DF
:201AA0001AF8FF1F20FAFF1F0000C8420000344300002041494400004D4F4445000000002A
:201AC00050544C4C0000000050544C54000000004D53475F53454E534F525F4552520D0A07
:201AE000000000008082000007A006400C7D000042415544000000004F44520070160000E7
:201B00004D585F4D415800004D595F4D415800004D5A5F4D415800004D585F4D494E00001C
:201B20004D595F4D494E00004D5A5F4D494E000041585F4D4158000041595F4D4158000015
:201B4000415A5F4D4158000041585F4D494E000041595F4D494E0000415A5F4D494E00000E
:201B60004449520090A0B0C0D0F0000040420F003C48014658310EC900910146029301926A
:201B800064310EC9059370300492039107C806AB07C3344801467C314A68C06F89680B914F
:201BA00005C330480CA980300346083338CB38C10346143338CB38C10346203338CB38C1DC
:201BC00003462C3338CB38C13830E0C8E0C1E0C8E0C1E0C8E0C161C861C1234E00253746C0
:201BE00084372C462C204443A01903AB6A461F4903F028FAE01909AB06AA1D4903F022FA7F
:201C00001C480FAB20180CAA1B4903F01BFA194815AB8430201812AA184903F013FA1848C2
:201C20001BAB201818AA174903F00CFA144821AB843020181EAA144903F004FA6D1C032DA8
:201C4000CFDB002028A9087028AB07CB01F0B9FD01F09BFD0028FBD001F0A0FDFFF727FB03
:201C6000F6E770470C7D000030FBFF1F95F4D93DD3551D3F38FCFF1FDD56893D0513EF3E4B
:201C800040FDFF1F605E923D1471D53E70B53B4C2079207980060DD5E57900220121104686
:201CA00001F075F8284602F099FC01221146002001F06DF82079000704D5E079207908214D
:201CC0000843207170BD3EB52D49086A40032DD5086A0122920410430862032069460870A9
:201CE0006B4607CB01F06DFD264C0025A068401CA0602068401C20606168491C6160192877
:201D000007D10420694608706B4607CB01F059FD256060680146FF39F53907D10520694630
:201D200008706B4607CB01F04CFD65603EBD3EB5154CE068012500280DD0E0682843E060F4
:201D40000220694608701148007A002803D06B4607CB01F036FDE069002808D0E0692843C8
:201D6000E06108480A4A8168D163002181603EBD72B608A004F064FAFEE7000000A0064077
:201D8000809004402CF8FF1F007103400CFAFF1FBCF9FF1F486172644661756C745F48617F
:201DA0006E646C65720D0A0010B500F051FD0146F7A004F045FA002010BD10B50C4608686F
:201DC00003F0F5F900280BD0206800221146401C03F0D3FA0146F0A002F01AFD002010BD35
:201DE000EDA002F0A2FCC1B2ECA004F029FAF5E7BFF34F8FEC49EB48C860BFF34F8FFEE73F
:201E00000020704710B5086800221146401C03F0B4FA002802D002F0BFF92AE0E349881FBF
:201E200002F00EFBE24BE1499A1F881F02F0CEFADE4C0021A41F615EDEA002F0E9FC0221F1
:201E4000615EDEA002F0E4FC0421615EDDA002F0DFFCA41D0021615EDCA002F0D9FC02213E
:201E6000615EDCA002F0D4FC0421615EDBA002F0CFFC002010BDF0B585B0DAA00C46009026
:201E8000062303220221DAA004F0DAF9E2A004F0D7F900F0DDFC0246E8A1E9A004F0D0F96A
:201EA000EAA002F042FC00287ED0EAA2E7A1EBA004F0C6F9B8A002F038FCC2B2B6A1EAA0CD
:201EC00004F0BEF9EBA002F030FC0246E9A1E6A004F0B6F9E9A1206803F04BF900287DD0F5
:201EE000002000F093FB0246E5A1E8A004F0A8F9AF4CE9A1243CE5A0226C04F0A1F9E7A14B
:201F0000D9A0E26B04F09CF902F0CAFD03F0C5FC02460B46E4A1E6A004F092F902F0C3FD30
:201F200003F0BBFC02460B46E4A1E1A004F088F902F0BCFD03F0B1FC02460B46E1A1DCA001
:201F400004F07EF99FA002F0F0FB06469BA002F0ECFB054697A002F0E8FB02462B46DBA10E
:201F6000DCA0009604F06CF99CA002F0DEFB064698A002F0DAFB054694A002F0D6FB02461A
:201F80002B46D8A1D3A0009604F05AF9D7A002F0CCFB0646D7A002F0C8FB0546D7A002F0AB
:201FA000C4FB02462B4600E03DE0D6A1C9A0009604F046F9D5A002F0B8FB0646D5A002F036
:201FC000B4FB0546D5A002F0B0FB02462B46D5A1C0A0009604F034F9A06B00E020E003F0D1
:201FE0005CFC07460091606B03F057FC05460E46206B03F052FC02460B4600996846E0C0AF
:202000000391CAA1CBA004F01BF91620205E009014231222E35EA25ECAA1AEA004F010F9A8
:20202000282005B0F0BDC9A240E710B5086800221146401C03F0A1F904467D20C000844260
:2020400010D82146C34803F05CF80146002000F058FD57482146243804648FA002F0D8FB75
:20206000002010BD012010BD10B5086800221146401C03F082F904464B204001B649201ADE
:20208000884210D82146B5A004F0DAF8214679A002F0BEFB2146002000F0EBFDB249012066
:2020A0000872002010BD012010BD10B5AFA004F0C7F8002010BD10B5086800221146401C0D
:2020C00003F05BF90446014660A002F0A1FB2146ADA004F0B5F8002010BDF8B508683D21DD
:2020E00003F05BF8A04D04462E46093600280AD0002068746A46A7A1601C03F07BF8C0B266
:20210000012816D01FE0A4A002F00FFBC2B26A743146A3A002F0E9FA002405E02819417A8B
:20212000A1A004F08DF8641C687CA042F6DC0020F8BD68460178687C8155A4A004F080F867
:20214000687C401C68742C21601C03F026F80400D0D16A7C314692A002F02BFB697C8EA02A
:2021600002F056FBE3E710B5086800221146401C03F003F97C49002800D0012008720020E1
:2021800010BD0A4810B51221801D02F023FA10BD307825580D0A00004944000025640D0A46
:2021A000000000000400FA0500ED00E03EF8FF1FE0F9FF1F4D585F4D415800004D595F4DC8
:2021C000415800004D5A5F4D415800004D585F4D494E00004D595F4D494E00004D5A5F4D56
:2021E000494E00004170722031392032303137000D0A48693230394D285552414E555320DB
:202200004949292025642E25642E2564206275696C642025730D0A0032303037202D203285
:2022200030313720436F70797269676874206279204869504E55430D0A0000005549440032
:20224000252D313673253038580D0A004D4F4445000000003920414958530000252D3136EA
:202260007325730D0A000000252D31367325640D0A00000042415544000000003D4C0000CB
:20228000436F7265436C6F636B000000252D3136732564487A0D0A004F44520053656E73BD
:2022A0006F724F4452000000415343414C450000252D31367325660D0A00000047534341C3
:2022C0004C4500004D5343414C4500004D4D41583A000000252D31367325642025642025A8
:2022E000640D0A004D4D494E3A000000415A5F4D4158000041595F4D4158000041585F4DF4
:2023000041580000414D41583A000000415A5F4D494E000041595F4D494E000041585F4DC3
:20232000494E0000414D494E3A00000041473A2020000000252D31367325662025662025FE
:20234000660D0A00414F3A2020000000362041495853000040420F00207B1E004241554405
:202360003D25640D0A0000000CFAFF1F6E6F7420737570706F7274656420616E796D6F724F
:2023800065210D0A000000004D4F44453D25640D0A0000002558000050544C4C00000000E5
:2023A00050544C5400000000646174615B3078253032585D20616C726561647920696E20E7
:2023C0007061636B65740D0A000000005B3078253032585D2061646420696E746F2070611B
:2023E000636B65740D0A000070B568A003F028FF6C4D0024E0002A586BA16CA003F020FF6F
:20240000641C122CF6D3002070BD10B5086800221146401C02F0B1FF6649002800D0012074
:202420004864014664A002F0F3F90020AFE60EB50220694608706B4607CB01F0C2F928208F
:202440000EBD1CB508686B4601AA5CA102F0D2FE04466846027801795BA003F0F1FE022C5E
:2024600004D168460178007902F0E2F928201CBD10B501F0FAF9002089E630B58BB001A8F8
:202480000090086802AB04AA55A102F0B3FE032802D001200BB030BD00231A46122118466E
:2024A00000F0BBFA0299049808431AD100252C4608A802F0FEFA052000F03EF9694624209A
:2024C000085E641C4519322CF2DB3221284602F018FE04460198012808D04448214602F0FB
:2024E00097F901990498084303D01EE03F482038F4E700252C4608A802F0DBFA052000F01D
:202500001BF969462220085E641C4519322CF2DB3221284602F0F5FD04460298012809D0BC
:2025200032480830214602F073F901990298084303D01EE02D481838F4E700252C4608A8ED
:2025400002F0B7FA052000F0F7F869462020085E641C4519322CF2DB3221284602F0D1FDF5
:202560000446049801280DD020481030214602F04FF900941EA0019B029A049903F060FEAE
:20258000002087E719481038F0E70000417661696C61626C6520436F6D6D616E64733A0D13
:2025A0000A00000044F8FF1F41540000257325730D0A0000BCF9FF1F444952003D3078251F
:2025C000582C30782558000057522D393235305B307825585D3A20307825580D0A00000039
:2025E0003D25642C25642C25640000000C2300004143414C3A2025642C25642C2564207688
:20260000616C75653A25640D0A00000010B50146C348C44C0068022900D1626801290AD1DF
:202620006168090F491C02F056FD61684903490F491C02F050FD10BD70B50C23BA4D434350
:20264000EC585B1926685B683C351E43266084002B598800195807263602B14319502959D4
:202660000B585207520D13430B5070BD704710B5AD4B80003C33102489001858002A42580D
:2026800001D0224300E0A243425010BD10B5A64B80003C33402489001858002A425801D049
:2026A000224300E0A243425010BD70B50C2343439D4D1C462B5964191E6864688900264326
:2026C0002C463C34022580001E60002A05D0012A0CD020584258AA4310E0225853582B436B
:2026E0005350205842585208520007E0225853582B4353502058425801231A43425070BD0A
:202700000068704703B5009808600CBD10B587480169042211430161854941610020FFF7B9
:2027200075FF844C844902F0D6FC7D21C90020604843606010BDE9E708B57E497B4A4968FB
:20274000516111690523194311610021916107E013690093DB0702D0009BDB03F8D5491CEF
:202760008142F5D308BD7349714A096848436F49904201D94A6100E0486100208861086984
:202780000522104308617047684902220028086901D0104300E0904308617047654A083251
:2027A00051601060704710B56249044608310868002802D00968E0B28847204610BD5D483A
:2027C00010B508304168002903D040688047C0B210BD002010BDBFF34F8F59495748C860C3
:2027E000BFF34F8FFEE757480078704770B504460D460120FFF7A0FF5348FF2101700021D1
:2028000041700221202C04D0222C04D0242C05D10CE0427801E042780A434270A30604226D
:202820004748002B036905DA134304E0427803231A43F2E7934303610269002D01D00A4353
:2028400000E08A430261A006800F00D030BF70BD3449086ACA698969504048407047C91C7F
:2028600000228908890004E00020401C521C0428FBDB8A42F8D3704770B50246002302E08C
:202880001370521C5B1C8B42FAD30246002305E01478DDB2AC4236D1521C5B1C8B42F7D35A
:2028A000002302464C0802E01380921C5B1C9C42FAD80346002205E01D8896B2B54222D1E8
:2028C000521C9B1C9442F7D800230246890801E008C25B1C9942FBD80346002204E01C688F
:2028E000944210D1521C1B1D9142F8D80246002302E0126010CA5B1C9942FAD8002206E013
:202900000368834201D0012070BD001D521C9142F6D8002070BD704710B5FFF7FCFF10BDB5
:2029200000F8FF1F40800440F47D000000E000E0FFFFFF00D4F8FF1F40420F000400FA05D1
:2029400000ED00E000F0074000E0074010B50123634C8B4080002058012A416902D099436E
:20296000416110BD1943FBE710B501235C4C8B4080002058002A03D041681943416010BDE6
:2029800081681943816010BD70B514460D460646130003F07CFC0906081710191010101908
:2029A0001000FF2200E00022FFF77FFE002229463046FFF7CBFF012229463046FFF73CFE72
:2029C000304670BD0122EFE7FF22FFF76EFE042C06D0002229463046FFF7C6FF0122E6E720
:2029E0000122F7E73E4A800010580069C840C007C00F704782003A488058C26801238B40B3
:202A00001A43C260704736498000085800697047334A8000105801607047F0B5304D8400DE
:202A200014352E598900775894460F22120497437750002B1BD02A461C3A105CC206D20EBC
:202A400001209040274A10606046002804D0012807D002280BD10CE02859425809231B04AA
:202A600003E02859425805235B041A4342500020F0BD285942580B231B04F6E770B5184C47
:202A80000F25143486002D048900A059002B09D04358AB434350002A07D0012A0AD0022A2F
:202AA0000ED10FE04258AA4309E0A059425801231B0403E0A059425801235B041A4342501A
:202AC000002070BDA059425803231B04F6E7044A8000143200211058C94380300162704781
:202AE0004C7E000000E100E002013C48101882685208520082600160816801221143816082
:202B0000704770B50D46364904460122C86BD2051043C8630120FFF779FD324902F0DBFA43
:202B20003149324A0860116802239943116068430146E0B2FFF7D8FF70BD0101274808183D
:202B4000816849084900816070470101234808188168012211438160704702011F48101843
:202B600082685208520082601F4A12684A43026081680122114381607047184910B50001EC
:202B8000401840681849096802F0A5FA10BD1349000140184068704710B5114A0124D36B6E
:202BA000E4052343D3630D4A030102249A1800290ED0D36801210B43D36093682343936024
:202BC0000B4A105CC006C00E81400A48016002E09068A0439060002010BD000000710340DE
:202BE0000080044040420F00ECF8FF1F00700340747E000000E100E0B04A800010580279BB
:202C0000920603D5C0790870002070470179090703D5017908221143017101207047A74A27
:202C20008000105802791206FCD5C171704710B5002803D00120FFF7E9FC10BD0220FFF7BE
:202C4000E5FC9F494A6803239B069A434A604A6801239B061A434A609A4A52799A4B520641
:202C60004A6803D51A434A60400810BD9A434A6010BDF0B50E46914A810085B05558FFF72D
:202C8000D6FF0190E878F3210840E8700524304602F0C8FD8D4A8E4B02F03CFD07460391A8
:202CA00031466143019802F016FA214641430090019802F010FA024603990291801B00D567
:202CC000B01A02F09BFD3A46029B02F0FBFD02D3641C202CE4D3641EE0067E49C00E88724A
:202CE000287840094001287028780099C904C90E0843287000986870E8780C210843E870B2
:202D000005B0F0BD73B500980C224607760F3046714C504322580019136840686D4603431C
:202D2000136000984007400FFFF7A3FF002409E0C1054A0F8104C90E80060919400FFFF7E5
:202D40007BFC641C28684103C90EA142F0DC634C2078002808D059486149001F0670614852
:202D6000FFF71CFD0020207028784007400F7CBD01B5009851494007C00E08580021017036
:202D800041708170C17081710172084608BD70B50C234343504D1C462B5964191E686468BC
:202DA00026431E60454C8300E3582C1F205CC406E40E0120A0404C4C2060002904D001291A
:202DC0000AD0022918D10FE0D878002A01D0802106E04006400E0EE0D878002A02D0202135
:202DE000084308E0DF2105E0D878002A01D01021F6E7EF210840D870002070BDF0B50E467C
:202E000007462E4980000C581546002A03D131463846FFF7BCFF80202021DF22002F0CD01E
:202E2000002E21D0012E29D0002D04D0012231463846FFF7ACFF0020F0BD264B002E06D04F
:202E4000012EF8D1D87A002D0BD008430AE0002D03D0D97A0143D972EDE7D87A4006400E4F
:202E600000E01040D872E6E7002D03D0217A01432172DBE7207A4006400E06E0207A002DFC
:202E800002D008432072D1E710402072D3E7704708B50A4B1B1F69461878FFF7ADFE002824
:202EA000F9D16846007808BD044A00B503460146121F1078FFF7B3FE184600BDF4F8FF1F45
:202EC000008004400040064000000100B81E85EB51B89E3F00A006407C7E0000E4F8FF1FA1
:202EE000912E0000A92E000000E100E010B5674C302020706649481F0160204688472078DF
:202F00003121084000D0012010BD012080027047042070475D49302008707047012108B520
:202F20000907884201D349110843009057480921C171694689788171694649784171694640
:202F40000978017172B6FFF7D1FF62B608BDF7B50C460121090782B0884201D3491108430E
:202F600000904A4E0620F0710425002729E068468078B07168464078707168460078307174
:202F8000E078F072A078B0726078707220783072082D07D1E079F073A079B0736079707388
:202FA00020793073009840196419009072B6FFF79DFF62B6002802D0012005B0F0BD7819F7
:202FC00087B204988742D2D30020F6E7F1B588B00898FFF7A3FF054600246E46FF212046F2
:202FE00002F079F83155641C202CF7D3002408986101081820226946FFF7A9FF451902D04D
:20300000012009B0F0BD641C202CF0D30026089871010F180024FF21204602F05CF8385DB6
:20302000814200D06D1C641C202CF4D3761C202EEDD32846E5E7F8B50F460546134930200E
:2030400008702C462846FFF7C1FF012080022018FFF7BCFF2046FFF761FF00200122D20203
:203060002178641CFF2902D1401C9042F8DB0024BF0A06E0A0024019FFF7A8FF060003D1F6
:20308000641CA742F6D83046F8BD00000000024005F9FF1F73B508460099B94B4A07520FAB
:2030A00091005C580C21B74E4A43B3589219196852686D46114319607D21C90002F00BF83F
:2030C00006460120FFF7A2FA0146009800234007400F324600F0CCF8E07802210843E07017
:2030E0009020A070002409E0C1054A0F8104C90E80060919400FFFF79FFA641C28684103AE
:20310000C90EA142F0DC28784007400F7CBDFFB581B001989A4A800016584806000E02907C
:2031200003AD0A9C019800F0E7F80299019800F0F0F8074606E029786D1C019800F0E9F8FE
:20314000C019C7B20498401E0490401CF3D1019800F0D2F80298401CC1B2019800F0D9F859
:20316000C019C7B2B078EF210840B0700B980128019806D000F0F3F8019800F0D9F80B9D45
:203180000EE000F0F4F8F7E7002D0ED00198012D10D000F0E4F8019800F0CAF82070641CAE
:2031A0006D1EF1D5384605B0F0BD019800F0CCF83079F3E700F0DBF8EDE770B505464806B9
:2031C000040E284600F098F82146284600F0A1F80446284600F0B8F8204670BDFFB581B0C1
:2031E0004806040E1F4603AD0A9E019800F084F82146019800F08DF8044606E029786D1CDE
:20320000019800F086F80019C4B27F1EF6D206E03178761C019800F07CF80019C4B20B9863
:20322000401E0B90401CF3D1019800F08DF82046B9E71CB50124009301942346FFF767FF7E
:203240001CBD1FB582B0012405AB009301942346FFF7C4FF06B010BD70B5054601242146F1
:203260002846FFF7AAFF641CE4B27F2CF7D370BDFFB57D20C00042430026F643002085B03F
:2032800017460190054600900120A840002403903C49A00018310290401841880398414365
:2032A000069801F018FF874201D9381A00E0C01BB04207D2334A029918320195515C0091B7
:2032C000060002D0641C322CE2D36D1C022D01D8002ED9D10898002800D00660059828490E
:2032E000800008580199009A8907090E9206920E1143417009B0F0BD21498000085881782D
:203300008906817801D5042200E030221143817070471B4A800010580171C1788907FCD5A2
:20332000C17802221143C170C078C007C00F70471349800009580879CA789207FCD5CA787A
:2033400002231A43CA7070470D49800008588178DF2211408170C1788906FCD470470849E8
:20336000800008588178F72211408170704704498000085881780822114381707047000016
:2033800014F9FF1FA07E000030B57A49CA6B02231A43CA63774940310A688B151A430A604E
:2033A0000178754A090189188B680124240623438B60017809018918CB689405A343CB6096
:2033C0000179047889066D4B890EE4182170817A002902D001290CD105E00178C9180C78CC
:2033E000BF252C4004E00178C9180C7840252C430C70047862492401A418E160047801891C
:203400002401A418A1600478C1682401A4182160017809018918CC68057CAD07AD0A2C4310
:20342000CC60C17A0124A4050029017804D009018918CD68254303E009018918CD68A543EE
:20344000CD60047881692401A4186160017809018918CC68057CAD076D0B2C43CC60017D19
:203460000124E4040029017804D009018918CA68224303E009018918CA68A243CA60007840
:20348000C018017880221143017030BD02013A481018C2680907090C0A43C2607047020162
:2034A00035481018C2680907090D0A43C2607047314A00018018016070472F4A00018018B3
:2034C0004160704701012C4808B5081881680904090C009104D18168012212061143816077
:2034E000009808BD2449000140188068C00101D5002070470120704709021F4A090A0001F3
:2035000080188160704710B51E4B1B5CDC06E40E0123A3401C4C236000290BD116490001AB
:203520004018C168002A02D0E205114301E049004908C16010BD01010F48081881680122E5
:20354000120611438160704701010B480818C168012292071143C160704701010648081871
:2035600081680122120611438160C16892019143C1607047008004400081004000100240B3
:2035800080000020807F000000E100E0F0B570490978002901D00120F0BD00226D49D24337
:2035A0004A606C4EA022403E6B4940240A2801D00B2831D1756801231B049D437560674B90
:2035C0001A700023B361664B34255D7080251D709D79AD07FCD59D79ED06FCD420251D70DB
:2035E000DD78ED06ED0EDD700A2802D00B280BD105E0DD7860273D43DD705A4D03E0DD78BB
:203600002543DD70584D0D609D792D07AD0FFBD10525504B2D045D60544D00281BD0012881
:2036200019D0736873604D4B1A700027B7614C4A342353708023137093799B07FCD5801E9F
:203640000B26030002F023FE0B66613A444D52543F6D6D5D6D00736801242404A34373601C
:20366000434B1E680327BF043E431E603C4B07261E70DE78F606F60EDE70002809D001283A
:2036800010D1D8781043D870324844603948086008E0D878E0221043D87003222D481204D2
:2036A00042600D609879C006FCD55879BF210840587198790007800FFBD144E00E23104673
:2036C00013714C2317E018231371582353710BE00E2313715E2353712748002408600621FB
:2036E0001FE01046167113E00D6007E002230DE010461671462343711B4808600024042187
:203700000FE0042313715471F6E70123104613714471E9E71771502353711848002408603F
:20372000072190798006FCD590794006FCD5177090790007800F0328FAD120074907490BFA
:203740000843044948600249012008700020F0BD1CF9FF1F4080044000F8FF1F0050064095
:203760000040064080A4BF07000E270700D8B80500700440006CDC020095BA0A00B0710B85
:20378000254800214187018770472348018F408F814201D0012070470020704770B51E4CF8
:2037A0000025208F618F884209D00C2141432246403A8D180A21401C01F08DFC2187284653
:2037C00070BDF7B5144C0546608F0E4607460A21401C01F080FC208F814201D10020FEBDC2
:2037E0000C2047430C480A2140383A180298906060C2608F401C01F06EFC61870120FEBDB4
:203800000548018F408F814201D900207047401A0A21081AC0B2704788FEFF1F10B5FF4A06
:203820004108541AFE4901F03CFE214601F039FE214601F036FEFB4901F02FFE214601F08A
:2038400030FE10BDF84988627047F7490A6802604A6842608A688260C968C1607047F2490B
:2038600008617047F049486170477F21EE48C9050160002141608160C1607047FFB587B024
:20388000109F0999079801F00CFE059004460A99089801F006FE2146049001F0FAFD03211F
:2038A000890701F0FEFD0446DF48E04D466A0899079801F0F6FD03900A99099801F0F1FD64
:2038C0000290AC422AD3D84D0020D94903F0F8F902F00CF80446686A01F0DFFF009001911D
:2038E0000599049801F084FD01F0D7FF032300229B0701F00FFF054604910399029801F065
:20390000C8FD0321890701F0CCFD01F0C6FF2A46049B03F01DFC019B009A29E0C548844291
:203920002CDB0020C44903F0CBF901F0DFFF04460599049801F05CFD012101F02DFE01F0D0
:20394000ACFF054600910399029801F0A2FD012101F022FE01F0A1FF2A46009B03F0F8FB65
:203960000546B1480091406A01F097FF2A46009B01F0C2FE01F0BAFF05465CE00A99084663
:2039800001F08FFD09990546084601F08AFD2946019001F02DFD012101F0FEFD7F21C90560
:2039A00001F07BFD01F079FF05460E460A99079801F077FD00900999089801F072FD009924
:2039C00001F016FD012101F0E7FD01F066FF2A46334603F0BDFB01F089FF0646204601F0E6
:2039E0005CFF03F06DF901F081FF089904460846019D01F056FD294601F0FAFC012101F01E
:203A0000CBFD7F21C90501F048FD01F046FF0D4600900299039801F0EBFC012101F0BCFD47
:203A200001F03BFF2B46009A03F092FB01F05EFF05467D48466220460124E407604001F0C3
:203A40002CFF7E4A7E4B01F065FE01F04FFF38602846604001F021FF784A794B01F05AFE91
:203A600001F044FF7860304601F017FF734A744B01F050FE01F03AFFB8600BB0F0BDFEB5A5
:203A8000694C0546A168206801F00BFDE1680646606801F006FD314601F0FBFC012101F0D9
:203AA0007BFDE1680646A06801F0FBFC61680746206801F0F6FC394601F09AFC012101F06F
:203AC0006BFDE1680746E06801F0EBFC0290A168A06801F0E6FC01906168606801F0E1FC62
:203AE00000902168206801F0DCFC009901F0D1FC019901F0CEFC029901F07AFC04463146ED
:203B0000286801F0C6FC28603946686801F0C1FC68602146A86801F0BCFCA860FEBDFFB57E
:203B2000414C002721688DB03E463D46206801F0B8FC09906168206801F0B3FC0190A168B3
:203B4000206801F0AEFC0390E168206801F0A9FC05906168606801F0A4FC0790A168606829
:203B600001F09FFC0690E168606801F09AFC0490A168A06801F095FC0890E168A06801F08A
:203B800090FC0090E168E06801F08BFC029018984000000E7DD019984000000EFAD01A98A8
:203BA0004000000EF6D01A99084601F07AFC19990546084601F075FC18990646084601F0A0
:203BC00070FC314601F014FC294601F011FCFFF725FE05460146189801F063FC18902946D2
:203BE000199801F05EFC199029461A9801F059FC1A900399049801F0FBFB0B901A9901F0B1
:203C000050FC07460599069801F043FC0A90199901F047FC3F260546360613E012141F5F9C
:203C200012D3363FFF51D83F20F9FF1FEFFF7FBF0000F0BFEFFF7F3F0000F03FFBEB1516C5
:203C4000DCA54C403046089901F023FC029901F020FC0C90189901F024FC294601F0C8FB07
:203C6000394601F0C5FB012101F096FC05460199009801F00EFC1A9901F013FC0746304681
:203C8000079901F006FC0790029901F002FC199900E09FE001F005FC06460599069801F0F4
:203CA000A7FB189901F0FDFB314601F0A1FB394601F09EFB012101F06FFC014601F0F1FB19
:203CC00006462946084601F0ECFB314601F090FB01F0E3FD03F0F6FF01F008FE0746089972
:203CE000079801F0D6FB07901A9901F0DAFB06460199009801F07CFB0690199901F0D1FB68
:203D000005460399049801F0C4FB0590189901F0C8FB294601F06CFB314601F069FB0121C1
:203D200001F03AFC06463146059801F0BAFB054639460C9801F0B5FB294601F059FB0590FE
:203D40003146069801F0ADFB054639460A9801F0A8FB294601F04CFB05463146079801F0BC
:203D6000A0FB064639460B9801F09BFB314601F03FFB064629461A9801F093FB0746314661
:203D8000199801F08EFB394601F083FB012101F003FC07463146189801F083FB064605992B
:203DA0001A9801F07EFB314601F073FB012101F0F3FB06460599199801F073FB0590294612
:203DC000189801F06EFB059901F063FB012101F0E3FB054610984000000E70D0169840008C
:203DE000000E6CD017984000000E68D01799084601F057FB16990690084601F052FB109989
:203E00000590084601F04DFB059901F0F1FA069901F0EEFAFFF702FD01460590109801F02A
:203E200040FB10900599169801F03BFB16900599179801F036FB17900399049801F029FB2B
:203E400003900099019801F0D3FA3F2100900906099801F01EFB029901F0CAFA01900099BB
:203E6000179801F01EFB02900199169801F019FB029901F00EFB394601F0BAFA074601990A
:203E8000109801F00EFB01900399179801F009FB019901F0FEFA314601F0AAFA0646039938
:203EA000169801F0FEFA01900099109801F0F9FA019901F0EEFA294601F09AFA054678008B
:203EC000000E69D07000000E66D06800000E63D060690121C905884242DBA16A7F20C0052F
:203EE00001F01CFB00903946606901F0DAFA009901F0D7FAA16901F07BFAA061A16A7F20A7
:203F0000C00501F00BFB00903146606901F0C9FA009901F0C6FAE16901F06AFAE061A16A2C
:203F20007F20C00501F0FAFA00902946606901F0B8FA009901F0B5FA216A01F059FA206243
:203F4000A1690D9801F054FA0D90E1690E9801F04FFA0E90216A0F9801F04AFA0F9003E025
:203F60000020A061E06120623946206901F099FA0D9901F03DFA0D903146206901F091FAEA
:203F80000E9901F035FA0E902946206901F089FA0F9901F02DFA0F90A16A7F25ED052846E2
:203FA00001F0BCFA0026F643314601F0F5FA0D9901F077FA0D90A16A284601F0AFFA314675
:203FC00001F0EAFA0E9901F06CFA0E90A16A284601F0A4FA314601F0DFFA0F9901F061FA33
:203FE0000F9027686568A6680146E06801F059FA019030460E9901F054FA00900120C00780
:2040000068400D9901F04DFA009901F042FA019901F03FFA216801F0EBF920600E99E068C3
:2040200001F03FFA019030460F9901F03AFA009039460D9801F035FA009901F0D9F90199B8
:2040400001F027FA616801F0D3F96060E1680D9801F027FA019028460F9901F022FA0090C4
:2040600038460E9901F01DFA009901F012FA019901F0BEF9A16801F0BBF9A06031460D9871
:2040800001F00FFA064628460E9901F00AFA054638460F9901F005FA294601F0A9F93146F6
:2040A00001F0F7F9E16801F0A3F9E060E168E06801F0F7F9A1680746A06801F0F2F9616894
:2040C0000646606801F0EDF921680546206801F0E8F9294601F08CF9314601F089F9394679
:2040E00001F086F9FFF79AFB05460146206801F0D8F920602946606801F0D3F96060294646
:20410000A06801F0CEF9A0602946E06801F0C9F9E06011B0F0BDF0B506460D46886887B05C
:2041200014461B4901F0BDF91A4901F0F7F905901749686801F0B5F9164901F0EFF90746ED
:204140001349286801F0ADF9124901F0E7F90ECCB468019402AC0EC4716800913368394621
:20416000059AFFF7DCFC002007B0F0BD012902D0022906D00AE0828841885242428081803D
:2041800004E00188428802804942418000207047DA0F49400000344330B57D22D200B54B04
:2041A000002054429D1F41005A52401C6C520328F9DBB04804222A3801781143017030BDDC
:2041C0000020401CC0B20328FBD37047F0B5A94E0025123E755FFF272B46C8339137BB4205
:2041E00053D80224345F2346C833BB424DD80423F35E1E46C836BE4247D800268E5F751BB9
:204200003F357E2D41D802254D5F2C1B3F347E2C3BD804240C5FE11A3F317E2935D895498C
:20422000002318390024C35E0C5F1B1B45338A2B2BD802230224C35E0C5F1B1B45338A2BBA
:2042400023D80423C35E0420085E181A45308A281BD8884800210C380023515EC35EC91A3A
:204260001D313A2911D802210223515EC35EC91A1D313A2909D80421515E0422825E881A9B
:204280001D303A2801D80120F0BD0020F0BD79482A380078C00701D0002070470120704719
:2042A00070B574492A390978490711D5714C0022A41FA51D5100665E435E9E4200DA635279
:2042C0006E5E435E9E4200DD6B52521C032AF1DB70BDF8B5674D0C462A3D69680027664E9D
:2042E00000291AD0022938D0032951D15021306800F007FF2C460C3420805021706800F0A0
:2043000000FF60805021B06800F0FBFEA080AF6028780121084328703CE0564903881839E1
:204320000B8043884B8083888B8013880C310B8053884B8093888B802388891F0B8063884E
:204340004B80A3888B802146FFF740FF00281FD0376077600220B76019E02146FFF736FF77
:20436000002816D00021615E3068401830600221615E7068401870600421615EB068401899
:20438000B060A868401CA860502801D103206860F8BDAF606F60F8BD10B51446FFF799FF6F
:2043A0002046FFF77DFF10BD324902881E390A8042884A808088888070472E491E390A88B7
:2043C00002804A884280898881807047F8B505461E460C46002041006B5E675E401CDB1911
:2043E000DF0FFB185B1053520328F4DB7F20C005306000200021285E615E401A01F0F2F902
:20440000074602200221285E615E401A01F0EAF9394601F083F8706000200021285E615E56
:20442000401A01F0DFF9074604200421285E615E401A01F0D7F9394601F070F8B060F8BDC6
:2044400070B50C4C0022A41FA51D5300E65AC652EE5A521CCE52032AF7DB70BD054B10B576
:204460000021123B4A009C5A491C84520329F9DB10BD000076F9FF1FC4FEFF1FF0B50388E9
:204480000026524F0CE08C5D2402634000255C001B0400D57C406D1C2346082DF7D3761C03
:2044A0009642F0D30380F0BD10B50446062020608021201D00F052FE5A202071A5206071BD
:2044C000002010BD70B51546044604C810182A4600F02BFE206840192060002070BD38B50D
:2044E000044601882546881F8035A880E980A071000AE0710020694608800422211D6846BC
:20450000FFF7BCFF2146AA880A316846FFF7B6FF694608882072000A6072002038BD2C4A85
:20452000D16010617047F8B5294D0024294609692F780A46060280323B0001F0A8FE07056B
:20454000090E141C1F2645005A283DD1012002E0A52839D10220287036E01D499080891D34
:2045600088700320F7E79188314391801849891DC8700420EFE768800520ECE76888064352
:204580006E800C60AC800620E5E70B680E1D5F1C0F60985508689188884215D30C49042278
:2045A000891D881EFFF76AFF2969094804C9001DFFF764FFA8886988884204D1E9680029F0
:2045C00001D0286988472C700020F8BD211000007CF9FF1F3D4AD16090607047F8B53B4EE0
:2045E0003278002A0DD0012A0FD03146384B4968022A13D0032A0ED10D281BD00A2819D0FF
:2046000043E0412807D1012040E0542804D00020307000207060F8BD0220F9E70D2807D032
:204620000A2805D0202903D05854491C7160F8BD03202BE00020264A0446505422E03D21B4
:20464000234800F0AAFD002806D03D21204800F0A4FD1F49451A00E07568B068E700C05967
:2046600000F0A5FDA84204D3B068C05900F09FFD0546B0682A46C059154900F0ACFD00281F
:2046800006D0641CF0688442D9D300203070F8BDB168E000085800F08AFD0D494018009077
:2046A000B06869463818426801209047002802D0012805D101E007A000E008A001F0C0FD8A
:2046C0002021034800F04AFDDFE7000090F9FF1FD0FEFF1F4F4B0D0A000000004552520D17
:2046E0000A0000004D4908607047F7B501264B4D0F460024009800F05AFD0246296820013E
:204700004118009800F05AFD002804D0641C182CF0D33046FEBD29682001411838460831EB
:20472000029A00F002FD0026F3E708B50021009104226946FFF7D9FF009808BD10B538A0E2
:20474000FFF7F3FF3749884201D0012010BD002010BDF8B5FF270C4605468137394632485A
:2047600000F0FCFC0020304E009009E08100000161588019082200F0D8FC0098401C0090F4
:20478000A842F3D327480090082225A1274800F0CCFC264804226946083000F0C6FC1F4CBB
:2047A0002068FEF7BBFB3A461F492068FEF7CFFBF8BDF7B5194FFF22012581321A483968D1
:2047C00000F0B3FC184E0024009800F0F0FC024620018119009800F0F1FC002805D0641C47
:2047E000182CF1D3002D08D010E0200180190830029A019900F099FC00253868FEF78EFBCC
:20480000FF22813208493868FEF7A1FB2846FEBD13B5042201A9FFF7CCFF1CBDA0F9FF1F30
:204820004D474B0045560000F0FEFF1F60000020024610B5FE480B4601784068FEF701FDBA
:2048400010BD10B500F051FA10BD10B5C1B21920FFF7EEFF002010BD10B5382000F045FA31
:20486000012101433820FFF7E3FF002010BD10B53A2000F03AFA10BD10B504461C2000F06A
:2048800034FAE7210840A107C90E01431C20FFF7CFFFE748002C06D0012C07D0022C0AD09A
:2048A000032C06D10AE07121C90501E039210906C161002010BD7321C905F9E71D21490680
:2048C000F6E710B504461B2000F00FFAE7210840A107C90E01431B20FFF7AAFFD448002C83
:2048E00006D0012C06D0022C08D0032C04D107E0D04900E0D0490162002010BDCF49FAE793
:20490000CF49F8E710B504460A2000F0E3F9EF210840E107C90E01430A2000F0D2F9C4484F
:20492000002C02D0012C05D101E0C64901E0FF2189054162002010BDFEB501210B2000F077
:20494000C0F90520FDF7F8FE00210A2000F0B9F904460520FDF7F0FE0F210A2000F0B1F95D
:2049600004190520FDF7E8FE032102A801910090012310220C210020FEF7C9FB0519684603
:20498000007A803800F02EFF0726F643314600F003FE7F27FF05394600F02AFDA44CA060CA
:2049A0006846407A803800F01DFF314600F0F4FD394600F01DFDE0606846807A803800F05A
:2049C00011FF314600F0E8FD394600F011FD206100210A2000F075F944190A20FDF7ACFEAF
:2049E00016210A2000F06DF90019C0B2FEBD90482030007A002801D0002070470120704770
:204A000010B580216B20FFF713FF0A20FDF794FE10BDF1B582B0864902984860002184484A
:204A2000894E2030019001720C46315D6B4675220298FEF7FEFB002826D1684600787128BD
:204A400003D0682801D0AF281ED17948315D0170FFF7D6FF7C4F0025BF1C6800C1194B7801
:204A60003A5C315D0298FEF7ECFB6D1C082DF4D368460078712806D1002000F02BF969469E
:204A80000870482805D00125641C022CCDD32846FEBDFFF751FF0121019800250172F3E749
:204AA0006348C06970476248006A70476048406A70471FB5044602A8009006215C480191E2
:204AC0000178406801233B22FEF721FB69460989C0B249BA21806946498949BA61806946B8
:204AE000898949BAA18004B010BD1FB5044602A8009006214E4801910178406801234322AE
:204B0000FEF705FB69460989C0B249BA21806946498949BA61806946898949BAA180E2E736
:204B200070B586B0054602A80C4600900E214048019116460178406801233B22FEF7E7FA26
:204B400069460989C0B249BA29806946498949BA69806946898949BAA9806946C98949BA98
:204B600031806946098A49BA21806946498A49BA61806946898A49BAA18006B070BD7FB53B
:204B80000021029103914A00835A491C5B4283520329F8DB01886A460912117201785172BD
:204BA00041880225091291728178D1728188204C091211730079507302A8019500902178F2
:204BC000012313226068FEF709FB02A80230019500902178012315226068FEF7FFFA03A864
:204BE000019500902178012317226068FEF7F6FA04B070BDF0B5044685B00125022000F0AF
:204C000069F8284047D0072102A801910090012303220C210020FEF77AFAC5B26846807BA1
:204C2000000738D46946088900B2208049890DE0700000200000FA3B00007A3C0000FA3C5F
:204C400000007A3D0000C040847F00000EB26680694689890DB200F0C5FD294FB96800F039
:204C600020FC00F0EDFD0090304600F0BBFDF96800F017FC00F0E4FD0646284600F0B2FD02
:204C8000396900F00EFC00F0DBFD4042A0800099618026800025284605B0F0BD3EB50446BC
:204CA00002A800900221164801910178406801234122FEF72CFA69460989C0B249BA21808D
:204CC0003EBD024610B50E480B4640680C21FEF7B8FA10BD08B5024609486B4640680C2100
:204CE000FEF7A7FA6846007808BD08B5024604486B4601784068FEF79CFA6846007808BD9A
:204D0000700000201CB51620C24C0190204600940C38017840680123AA22FEF7F8F9208880
:204D200001020004000E01432180608801020004000E01436180A08801020004000E0143D6
:204D4000A180E08840BAE080208940BA2081608940BA6081A08901020004000E0143A181C4
:204D6000E08901020004000E0143E181E08A01020004000E0143E182208A01020004000E2A
:204D800001432182608A01020004000E01436182A08A01020004000E0143A18200201CBD67
:204DA00002469C4810B50B460C3801784068FEF740FA10BDF8B5974E974D0C3E074600241F
:204DC0007060295D6B46D0223846FEF732FA002803D168460078552803D0641CF1D0012067
:204DE000F8BD285D3070FFF78DFF0020F8BD0346884810B50C380178F4224068FEF721FA19
:204E000010BDF0B585B0044604A9F420FFF7C8FF6A46107C03218009107302A800907D48B8
:204E200001910C38017840680123F622FEF76FF9C1B26A46107A527A0004120280186A4609
:204E4000927A80186A46137B0822D21A1041002902D0022005B0F0BD6E4916228A5E7D2511
:204E60006D01521B0E26154602278E5F5543CF5F2D136E435743F612FF12F6190027CF5FE4
:204E8000BF00BE199E400427CF5FB61C57437A130C27CF5FC9886F433D145219921C012558
:204EA0009210ED0352195143B610C90B5B4A801BDA4050432A04904203D2400000F00BF9D1
:204EC00002E000F008F940000112554A49435143544A0914424312148918534A891809118E
:204EE000081820600020B5E710B500F07BFC4F4900F014FB00F0D1FC4D4A4E4B02F0E4F9D7
:204F000000224D4B00F0FEFB00224C4B00F002FC00F0ECFC10BDFEB5494C0746206801255F
:204F20000E4608282CD006DC012809D0022812D004282FD118E0102807D020282AD118E093
:204F40002E20FFF754FF102018E000F025F8002820D1022012E001A800F02BF8019800F013
:204F600041FC3060042009E0F420FFF740FF202004E000F011F800280CD10820206009E05B
:204F80006846FFF73EFF009800F02CFC38600120002520602846FEBD08B56946F420FFF783
:204FA000FFFE68460078800601D5012008BD002008BDFEB5064602A800901648022101915B
:204FC0000C38017840680123F622FEF7A0F8C1B26A46107A527A00028018002901D0022074
:204FE000FEBD0C4C6189401A21894843C5131420205E41191220205EC00200F082F8281825
:2050000001B2E182083108110A2100F07AF830600020FEBDA8000020967F000050C3000040
:20502000DE0B000043E3FFFFCF0E000080E6C54724D1CB28965BC83F0000F03F40A5E540FB
:20504000A4F9FF1F016019680161596841619968816111684160516881609168C160704786
:20506000FEB50446006800F01CFA00900025616AE06800F016FA294600F0BAF9A66A054690
:205080003146A06800F00DFA294600F0B1F905466068009900F005FA294600F0A9F9019064
:2050A000256A00272946606900F0FBF9394600F09FF90746E169A06900F0F3F9394600F02C
:2050C00097F90146019800F0E4F966620099E561A1622062FEBD30B50B46014600202022CD
:2050E000012409E00D46D5409D4205D31D469540491B2546954040191546521E002DF1DC89
:2051000030BD70B500242546002801DA01244042002901DA01254942FFF7DDFFAC4200D0FF
:205120004042002C00D0494270BD03460B439B0703D009E008C9121F08C0042AFAD203E09D
:205140000B780370401C491C521EF9D27047D2B201E00270401C491EFBD270470022F6E789
:2051600010B513460A4604461946FFF7F0FF204610BD30B505462A460B4610781C78521C85
:205180005B1C002801D0A042F7D0002C03D0002802D06D1CEFE7284630BDCAB2401E4178B0
:2051A000401C8A4202D00029F9D100207047421C0178401C0029FBD1801A704730B5044683
:2051C0000020034600E05B1C934203D2E05CCD5C401BF8D030BD30B505460020034600E077
:2051E0005B1C934205D2EC5CC85C201A01D1002CF6D130BD0FB400B58DB009900B9010A992
:2052000000200091C0430A9000200C9006480690064807906A4609A80F9900F0F9FB0DB011
:2052200008BC04B018470000315A0000515A0000FFB50027FF4383B000205C6801909E6896
:205240001D46A9697F1C049888470090296A88470028F6D10098401C0CD0032040028443F6
:20526000002E19DD600614D500982B2809D02D280FD103E00020C04307B0F0BD01208002B5
:205280000443A9697F1C04988847761E0090002E02DD0098302803D00598002825D035E0EC
:2052A000012040020443A969761E7F1C049888470090002E03DD782805D0582803D0059895
:2052C000002810D022E00598002801D010281DD1012040028443A969761E7F1C0498884732
:2052E0000090102002E0082000E00A2005900DE0012149020C43059A0199761E514308181B
:205300000190A9697F1C049888470090002E05DD0599009800F067FB0028E9DAE9690498E3
:205320008847A00502D40120C043A5E7E00722D1600611D56005019800D5404229680A1D40
:205340002A600968220501D5087014E0220701D5088010E008600EE02868011D296000687D
:20536000210502D50199017005E02107019901D5018000E0016038467EE7F7B582B00F46D0
:205380000026029C00F0A6FF0090006801902578641C002D05D000F019FB0068405DC0073C
:2053A000F5D12B2D02D02D2D1CD0641E00980021016039462046049A00F05CFB0146002FDB
:2053C00004D03868A04201D1029838600098006802280BD00098019A0260700506D54842FF
:2053E00005B0F0BD012080020643DFE70846F7E7F8B502464A40D40F42004B0052085B08C1
:205400009A4202D20246084611464A0023D0C30D4A00DDB2120EAD1A202D35DA4902012654
:20542000490AF6058A19002C00D0524220214F1B1146B9402A411018C20D9A4221D0002C95
:2054400017D0012D08DCDA05801AD20F8019D207DBB200F06AFBF8BDDA05801A0123400013
:205460001B06C01880185A428018CA0F1043490007E04908C2071143DA05801A8019400843
:20548000801800F04AFBF8BD61000122511A001BF7E70122D2075140AAE70122D2075040F8
:2054A000A6E7024670B54A40D30FDB0740002DD04A002AD0010E140E000212020919400A70
:2054C000520A8418E50104465443000A120A2E045043A4194219200CC543AA18120C0125D0
:2054E000AD03521C521912047F39240400D0521C104301D44000491EC2B20C06C009201899
:20550000401C4008802A02D003E0002070BD40084000002900DA0020184370BD70B502469B
:205520004A40D50F40004A00ED0740085208002814D0002A12D0C40DD30D41020120C005EB
:205540005202490A520AE41A091812187D34914201D3641C00E04900002C01DA002070BDAA
:205560000023914201D3891A0343400849000028F7D100290AD0914202D10121C90705E077
:20558000914201D2012101E00121C943E005C018401900F0C2FA70BD420005D04200120ECC
:2055A00052428A4201DB00207047C90508187047F0B507460846584087B0C00F0490480079
:2055C0000E46590040084908BC1A884105D2384631461E4617460B460246580040081043CD
:2055E0004CD0300D039040055900400D490D0590401A0290402872DA18030121000B0905F3
:205600000843019004980092002805D0019952420020884100920190029840210A1A019990
:20562000009800F0AFF905460C466B4607CB00F0B9F9C0197141039A0E0D0023D71756408E
:205640001A467A40164344D0049A002A2DD0029A012A039A15DC1205C01A91410126360584
:20566000001C7141D20F059ED2070093019202962A46234600F09FFA07B0F0BD3846314686
:20568000FAE71605224A0F46B218C01AB74101210905001C4F4100187F41114618187941BC
:2056A000E20F10436D19644113E0E2076D0815436408C2071443039A01261205C01A9141BF
:2056C0003605001C7141CE07400830434908C01851412A46234600F061FACDE7FFE704981C
:2056E00001224000C117121A00238B4104983146C417381AA141EEE730B40124E4076340C6
:2057000030BC55E730B40124E407614030BC4FE70000E0FFF0B51FB488B00B9909980024B2
:2057200048400999C00F490049080991C0070B990090490049080B9109990898A646084392
:205740001CD00B990A98084318D0099801244000420D4800410D099824050003000B2043BE
:2057600009900B980003000B20430B9050181C494018002201901446104605E0002001460D
:205780000DB0F0BD032801DA034600E003239C46C11A0AAE0AE05F0008ADED5B4F00F75BEE
:2057A0007D430027AA187C41491C5B1E6145F2DD410004AB5A522104120C0A43240C401C78
:2057C0000828DFDB019802900099704601910090059B049A0799069800F0EDF9D0E700003A
:2057E0000DFCFFFFC217C10F504010B54018CA079623002100F099F910BD00000EB5C217B6
:20580000C10F5040CA0740180021054B0293019200910A460B4600F0CEF903B000BD00000D
:20582000330400000EB505490291002100910A460B46019100F0BFF903B000BD3304000059
:20584000C20F410040020123400ADB05D207090EC0187F2901DA00207047962903DC96232D
:20586000591AC84001E096398840002AF4D040427047410040020122400AD205090E801898
:205880007F2901DA00207047962903DC9622511AC8407047963988407047C20FD2074000F6
:2058A00040080BD0C10D0723DB01C91840020905400A1143C208400711437047002001469F
:2058C0007047000010B5002904DB0124E40740428C412146002B04DB1C460123DB07524278
:2058E000A3418B4200D1824210BD0000CB0FDB07490010B5490802460A4307D00A0D0724CC
:205900000903E401090B121B002A01DC002010BDC900440F0C43C100E018D205801800F0DE
:20592000FCF810BDF0B51FB40646002082B005464024019100901BE0019922460F463046F7
:2059400000F0B2FA049A059B801A994110D310461946224600F016F8361A8F4101972246DB
:2059600001200021009F00F00DF838184D4100902046641E0028DFDC019B009829463246FD
:2059800007B0F0BD10B5202A04DB0146203A9140002010BD914020239C1A0346E3401943C4
:2059A000904010BD10B5202A06DBCB170846203A1041C1170B4306E00B461341D04020247A
:2059C000A21A91400843194610BD0000004870479481000010B50446FFF7F8FF0068005DEE
:2059E000C007C00F10BD3A2800D23038202302469A43412A01D310463738884201D300207E
:205A0000C043704702681378511801601846704710B5D160044951610449116200211161B0
:205A2000114600F053FA10BD055A0000D55900004268002A08D001680B78491C002B03D07D
:205A4000521E06C0184670470121C160881E70474268002A0BD0C3680168002B07D183682A
:205A60008B4204D0491E521C06C0002070470020C0437047F7B582B0029C00272078641C7E
:205A800015460197302802D0002D15D015E020780127641C782804D0582802D0002D09D0D6
:205AA0000BE0002D01D0102D07D1002710252078641C02E0082500E00A250026009610E0AA
:205AC0000099012769430818020C294680B2714300908E183804864201D30120019020787E
:205AE000641C2946FFF77FFF0028E9DA0398002805D0002F01D0641E00E0029C04600198C3
:205B0000002806D000F0E6FB02210160C81E05B0F0BD009930040843F9E7002904DA401C8F
:205B2000490001D140084000704770B40024050C05D11024000402D1002921D01124050E6F
:205B400001D100020834050F01D10001241D850F01D18000A41C002801DB4000641C00297A
:205B600008D020252E1B0D46F540A14000D001212943084301061B1B000ADB1D02D5002077
:205B800070BC7047DB05181880180029F8DA401C4900F5D170BC40084000704710B5002BB9
:205BA00008DA0024401C614192185B411A4301D14008400010BDF0B51FB482B005460C0016
:205BC00003D0084600F04CFB02E000F049FB20300246009021462846FFF7D4FE049B059A54
:205BE00004460F4618431143084314D0184610431BD0009840210A1A1846059900F054F936
:205C000005460E46009A05990498FFF7BBFE084305D0012004E02046394607B0F0BD0020D4
:205C2000C11705430E432C43374300990E986305401A7905E40A00220C43FD0A0A3002D514
:205C400000200146E9E70105101969410C9C0D9D00196941FFF7A2FFDFE70000F0B50C46CB
:205C60005C4085B0E40FE40703944C000026640859009446490802460296224321D062469E
:205C80000A431ED06200570D4A000E032303550D012402462C492405781B1B0B360B4018C3
:205CA00023432643614600901C46501AB44103D30098401C009002E0921800985B410028DB
:205CC00003DA0020014605B0F0BD0020012109050746864611E064461D46141BB54106D3B9
:205CE0006546521BB341744607430C43A646CD0740084908284392185B4105460D43EAD1E5
:205D00001046184313D06046194650407140084306D06046101AB34106D20122002306E0C0
:205D200000220123DB0702E00122D2435310009874460105381C6141029C039D001969416F
:205D4000FFF72CFFBFE70000FD03000070B54B005B0803430BD04B005C0D0026334665428E
:205D6000B341D417AD1AA34102DB0020014670BD12053018514170BDFEB500231A461B1A9F
:205D80008A4103DB0020014603B0F0BD4A000D0301212D0B0905520D0D43D10702D100185F
:205DA0006D41521E5110FF31FF310131002704463E4638460097019102460121002009059E
:205DC00000F072F8C3197141F818324684468E464A4161462846611A904104D36046241A0E
:205DE000954176461F46241900986D41401C00903428E1DDF91930467041091BA84103D208
:205E00000022D243134601E00022134601980105381C7141FFF7C2FEB6E700004A00090348
:205E20000123090B1B0519430A4B10B5520D9A4202DA0020014610BD064B34339A4203DCD6
:205E40009A1A00F031F810BD034BD218FFF79AFD10BD0000FF030000CDFBFFFF10B5002960
:205E600004DB0124E40740428C412146002B04DB1C460123DB075242A341994200D1904215
:205E800010BD0000064C0125064E05E0E36807CC2B430C3C98471034B442F7D3FBF714F9CE
:205EA000C0820000E082000010B5202A04DB0846203AD040002110BD0B46D340D0402024F2
:205EC000A21A91400843194610BD0000F3B58DB000200A9001200B90002608460C300C4661
:205EE00009906269012109989047051E2ED0252D2DD0216A8847002818D06269012109983C
:205F00009047216A88470028F7D1411E62690998904700E0761CA1690D988847216A884774
:205F20000028F7D1E1690D988847DAE7A1690D9888470746A84201D1761CD2E7E1690D9831
:205F400088477F1C02D10A98002877D049E1002762693D463946099890472A280CD1626963
:205F6000012109989047012506E00A214F433F18303FEBD41020054362690121099890475C
:205F8000014630390A2903D29B498F42DEDCECE7E90600D4994F6C280AD04C2810D068280A
:205FA00024D06A282ED074280CD07A280AD00DE062690121099890476C2823D004211CE06F
:205FC000202005436269012109989047A760656065284FD026DC582839D01ADC452849D055
:205FE00012DC252834D04128B0D143E06269012109989047682802D008210D43E6E7012027
:20600000C002DEE70220DCE7462833D047282CD130E05B2870D061282CD063286CD064288C
:2060200023D161E06F284FD009DC662822D0672820D0692826D06E2817D12EE0CDE0702839
:206040004DD073286FD075284ED078280DD154E0A1690D9888470546252800D16CE7E16958
:206060000D9888476D1C00D16DE7BAE00A224CE00A2252E0012023466A46C0430D99C046C5
:20608000C046A3E02846402108436060A807234601D5002239E000223FE0E80700D020E76D
:2060A0002068011D21600068290501D5067018E7290701D5068014E7A90703D5F11706605B
:2060C00041600EE706600CE72846402108436060A807234601D5082217E008221DE0484930
:2060E00028460840606016E02846402108436060A8072346BCD5B9E715E028464021084302
:206100006060A80707D5234610220120C0430D99C046C0465AE0234610220120C0430D9924
:20612000FFF786F852E000210C910B460091632802D05B2807D043E0E80601D40120A0605B
:20614000012000903CE062690121099890475E2805D101200C9001466269099890472169E0
:20616000002906D10B4601AA8F00491CD3510829FADB002835D0216900290ED1C117C90E97
:2061800009184A11930001AA9A1849094901411A01201368884003431360626901210998F1
:2061A00090475D28E5D10C98002808D0002001AB81005A58401CD2435A500828F8DB01AB60
:2061C00001202246C0430D99C046C04600280ADA401C06D10B98002803D00020C0430FB0C2
:2061E000F0BD0A98FBE7E90702D10A99491C0A91361800200B9074E6CCCCCC0CFFFFFF7FB9
:20620000F1F7FFFF30B58C180278401C13071B0F01D10378401C120906D10278401C03E0A1
:2062200005780D70401C491C5B1EF9D101E00B70491C521EFBD1A142E6D3002030BD0000BA
:206240000FB410B503A9044B044A029800F09CF910BC08BC04B01847A7270000E8F8FF1FDF
:206260002021020C01D010211046020A01D010460839020901D01046091F820801D01046F8
:20628000891E420801D0881E7047081A704730B47446641E2578641CAB4200D21D46635DE7
:2062A0005B00E31830BC18474900CA020243100000D004204A0D01D001221043044A490D9D
:2062C000914201D102210843012800D105207047FF07000000487047A8F9FF1FF8B504461A
:2062E0004F1EC8000838211815461E46086849683A4606239A4310D02A463346FFF70AFAC7
:206300003A46D200083AA3181A687F1E5B68FFF74FF906223B469343EED1022F23D0042F79
:2063200011D0062F2FD12A463346FFF7F3F9E36AA26AFFF73DF92A463346FFF7EBF9636A67
:20634000226AFFF735F92A463346FFF7E3F9E369A269FFF72DF92A463346FFF7DBF96369E0
:206360002269FFF725F92A463346FFF7D3F9E368A268FFF71DF92A463346FFF7CBF9636804
:206380002268FFF715F9F8BD002210B5134610460149FFF763FC10BD0000F03F10B50122A1
:2063A000FFF7D4FC10BD10B5FFF702F910BD002210B5134610461146FFF750FC10BD0000CB
:2063C00010B50721024A00200907FFF7BFFC10BD01030000034A10B500201107FFF7B6FCE0
:2063E00010BD000001FDFFFF02E008C8121F08C1002AFAD170477047002001E001C1121FD1
:20640000002AFBD1704700000149086070470000A8F9FF1FF0B51FB486B00998089A030DA6
:206420000021024314D05148514A1818504305141198012810981AD0281A401C00264D4F3E
:206440004D49009601910490002812DA444211E01198012449A3012801D11098C143069860
:20646000119A84600360C26041600BB0F0BD4042E4E70446210500203F4A001C5141039157
:20648000029012E0E00707D032463B4601990098FFF740F90191009032463B461046194690
:2064A000FFF738F906460F466410002CEAD10498039B0028029A0999089806DAFFF72AF980
:2064C000019B009AFFF726F905E0FFF7C7FB019B009AFFF7C3FB04460E460022284BFFF7C1
:2064E000BDFC03D80020C043014607E00022254B20463146FFF75CF8FFF790FC102409E05F
:20650000002C0ADB0A220023FFF70CFA079B30321A55641E02460A43F2D11122641C079B7D
:20652000121B1C19119B012B03D0012308430ED10AE0084304D0112010900020119077E707
:206540001098151A6D1E0BE01098824202DD00236D1C03E0824201DA00236D1E002BEED0DE
:20656000069811998260C16030C07EE701FCFFFF104D0000000014400000F03F3000000070
:206580000000F0430000E03FFFB597B00646002518E2252877D100242746FD49049400E05F
:2065A0000443761C32780120203A90400842F7D130782A280ED00222307801463039092975
:2065C00016D804990A235943303940181443761C0490F1E7189802C804911890002904DA93
:2065E0000120400304434842049002200443761C30782E2814D1042004437078761C2A28BD
:2066000009D11898761C80C8189009E00A214F43303FC719761C3078014630390929F5D98F
:2066200030786C2810D006DC4C281AD068280ED06A2817D104E0742813D07A2812D110E03E
:206640000120400504430CE00121090501E0032109050C437178814203D10120000524182D
:20666000761C761C3078119066280BD013DC58287DD009DC00287BD04528F6D04628F4D0CB
:2066800047281AD1A5E118E0632835D0642870D0652812D19DE170286CD008DC6728F1D0D0
:2066A00069287BD06E280DD06F2806D1BAE073282ED0752871D0782859D01A9A1999904706
:2066C0006D1C7EE16002400F022809D003280DD00428189801680DD00D60001D189070E171
:2066E0001898EA1701680D604A60F6E7189801680D80F2E70D70F0E718986A46017811725D
:20670000001D18900020507202A80090012005E0189802C8189000200091C04361070DD572
:20672000002101E00199491C0191B94212DA8142F8DB009A515C0029F4D10BE0002101E027
:206740000199491C01918142FADB019A0099895C0029F5D1019904981A9B471A21463846D7
:20676000199A00F097FA0199401945180BE04FE02CE113E04EE0009800990078491C0091AE
:206780001A9A199990470198401E0190401CF2D1214638461A9B199A10E137E00A20002175
:2067A000009001916002410F022907D0189A01CA1892C2179446032908D00AE01898C01DAE
:2067C000C108C90005C91891944607E000B2C2179446042902D140B2C1178C460022614625
:2067E000944506DA0A460021404291418C462D2102E0210504D52B216A461173012103E095
:20680000E10701D02021F7E7029155E00A200AE0102008E0102000900021042004430191CE
:20682000082703E008200021019100906002410F022907D0189A01CA1892002294460329D8
:2068400008D008E01898C01DC108C90005C91891944603E080B2042900D1C0B200210291CF
:20686000210729D51199702906D0009A1021019B4A401A4305D00EE040216A461173012111
:2068800008E06146014306D030216A4611731199517302210291009A0821019B4A401A4360
:2068A0000AD16146014301D1610705D530216A46117301217F1E02911199582904D035A152
:2068C0000E910DA90D910DE037A1F9E76146019B009AFFF727F80E9B8C469B5C0D9A521EA5
:2068E0000D92137061460143F0D10D9805A9081A20300190600703D501200004844300E069
:2069000001270198874201DD381A00E00020019900904118029809180498401A0490E00312
:2069200006D421461A9B199A049800F0B3F94519002706E003A81A9AC05D199990476D1C7D
