:020000040800F2
:10000000A8040020B5000008590400082D040008C9
:10001000C1000008C3000008C5000008000000007F
:10002000000000000000000000000000C700000801
:10003000C900000800000000CB00000865050008AA
:10004000CF000008CF000008CF000008CF00000854
:10005000CF000008CF000008CF000008CF00000844
:10006000CF000008CF000008CF000008CF00000834
:10007000CF000008CF000008CF000008CF00000824
:10008000CF000008CF000008CF000008CF00000814
:10009000CF000008CF000008CF000008CF00000804
:1000A000DFF80CD000F03CF800480047E90B0008EE
:1000B000A80400200648804706480047FEE7FEE700
:1000C000FEE7FEE7FEE7FEE7FEE7FEE7FEE7FEE708
:1000D00009060008A100000840EA01039B0703D0BD
:1000E00009E008C9121F08C0042AFAD203E011F877
:1000F000013B00F8013B521EF9D27047D2B201E039
:1001000000F8012B491EFBD270470022F6E710B51C
:1001100013460A4604461946FFF7F0FF204610BD75
:10012000064C074D06E0E06840F0010394E8070044
:1001300098471034AC42F6D3FFF7B6FF440F0008DF
:10014000640F000800F026BA0B4908B54FF0E02212
:1001500049685161116941F0050111610021916106
:1001600007E013690093DB0702D0009BDB03F8D59F
:10017000491C8142F5D308BD2000002008B500F0DD
:100180002FFA4FF0E02001690091C90702D00099D1
:10019000C903F8D508BD000000B572B6094B19694E
:1001A00041F0020119615861186940F0400018617E
:1001B000D80300F001FB196921F00201196162B650
:1001C00000BD0000002002404FF480607047000036
:1001D0000348416941F01001416100F003B800009B
:1001E00000100240034802494160034941607047E2
:1001F0002301674500200240AB89EFCD2DE9F04196
:1002000007464FF4704416460D46204600F0D4FAD7
:10021000A04600230A4C0FE072B6206940F00100AE
:100220002061E85CF854404600F0C6FA216921F0EC
:100230000101216162B65B1CB342EDD3BDE8F081E0
:100240000020024070B52C4B154604000E4606D027
:10025000012C08D0022C13D0032C08D114E098698B
:1002600040F0040002E0986940F0080098610A2D0F
:1002700040D2DFE805F00D1B143F263F3F3F263AF2
:10028000986940F01000F1E7986940F02000EDE730
:1002900000230122204600F007F900221EE000237F
:1002A0000222204600F000F9012205E0002302228C
:1002B000204600F0F9F800223146204600F01EF8F2
:1002C00018E003230022204600F0EEF8042D0AD0A7
:1002D00000223146204600F011F801223146204626
:1002E00000F018F806E00122F3E70223012220467D
:1002F00000F0DAF8204670BD0010024001238B4068
:10030000034951F820000AB1036170474361704707
:10031000100F000830B512B10024022301E00124BF
:1003200000230D4A0F2552F820008A00082909D31E
:100330004168203A954043EA8403A94393400B4324
:10034000436030BD0168954043EA8403A94393406C
:100350000B43036030BD0000100F0008012A00D0DD
:100360000022FFF7CBBF000010B51E4C0121022276
:100370006368C3F303135BB1082B04D0092B04D0CB
:100380000A2B05D103E0022102E0042100E008214C
:100390006368C3F3022333B1042B09D0052B04D0C7
:1003A000062B05D103E0012202E0042200E008222E
:1003B0000D4B05281B6812D2DFE800F00B03080D77
:1003C0000F00B3FBF1F0B0FBF2F010BDB3FBF1F0A6
:1003D00010BD184610BD054810BD054810BD0020D1
:1003E00010BD00000010024000000020001BB700FC
:1003F00000127A000549054B0A68091D083309688F
:100400001B685940C0E9002170470000E8F7FF1F52
:1004100008B5054B6946187800F0F8F80028F9D1BE
:100420009DF8000008BD00001C00002000F01AF834
:1004300010B5074B016899604268DA6081F308885B
:1004400081F3098803491A610860904700BF10BD15
:100450002000002008ED00E010B500F001F810BD0C
:1004600070470000BFF34F8F04480168044A01F44D
:10047000E06111430160BFF34F8FFEE70CED00E038
:100480000400FA0510B5044A04460146107800F04D
:100490000FF9204610BD00001C000020014A5160E9
:1004A000106070473400002030B51C4CA56945F041
:1004B0000105A56130B1012808D002281DD003280C
:1004C00008D11EE0A56945F0040502E0A56945F0E4
:1004D0000805A561124D0F2443EA820255F8200059
:1004E000082912D343688D00203DAC408900203993
:1004F000A3438A401A43426030BDA56945F0100508
:10050000E7E7A56945F02005E3E7036889008C402B
:10051000A3438A401A43026030BD0000001002402D
:10052000100F00080C48416841F4681141600168EF
:1005300041F08071016001688901FCD5416841F09A
:1005400002014160416801F003010229FAD1044926
:100550000248086000207047001002400090D0035D
:100560000000002010B5094C60680A280ADD2078D8
:1005700028B9074800F0EAFB08B9012060700020A4
:1005800000F022F86068401C606010BD140000207C
:100590004400002000B54FF0E020042101616FF01D
:1005A0007F4141610220FFF7DFFE064A0449B0FBAC
:1005B000F2F04FF47A7208605043486000BD0000CA
:1005C0002000002040420F004FF0E0210028086981
:1005D00002D040F0020001E020F002000861704704
:1005E0000849096848434FF0E021B0F1807F01D30A
:1005F0006FF07F40486100208861086940F0050085
:10060000086170472000002070470000054A52F83A
:1006100020000288920603D5808808700020704769
:1006200001207047340F000870B504001ED01A4A2C
:10063000012C02D0022C19D10CE0D06840F480408B
:10064000D060D06820F48040D060906940F4804051
:1006500090610BE0106940F400301061106920F4E3
:1006600000301061D06940F40030D061204600F0C5
:100670002BF80A4942F20C0051F824108881084DE9
:10068000287838B10748084904700848FFF706FF82
:1006900000202870002070BD00100240340F0008B8
:1006A0003C0000201C000020110400088504000804
:1006B000044A52F82030998052F8200001884906F7
:1006C000FCD57047340F000870B505460C46012074
:1006D000FFF74AFE164951F825209189090400EBDD
:1006E000C00101EB001001D5610000E0A100B0FBEA
:1006F000F1F06423B0FBF3F109010C096FF0180568
:100700006C4300EB8400948925044FF0320406D535
:1007100004EBC000B0FBF3F000F0070005E004EBD1
:100720000010B0FBF3F000F00F000843108170BD23
:10073000340F000802E008C8121F08C1002AFAD1CD
:1007400070477047002001E001C1121F002AFBD151
:1007500070470000D0E9001200F580339A4208D2B9
:10076000B2F1006F05D3B1F1005F02D3024A9142AA
:1007700000D300207047000000000820F0B5038877
:10078000002641F221070CE08C5D002583EA04235A
:100790005C001B0400D57C406D1C2346082DF7D35C
:1007A000761C9642F0D30380F0BD00000149012081
:1007B00008607047400000200849CA6812F0140F12
:1007C0000AD100E0401ECA68D20702D00028F9D141
:1007D00002E008B10020704701207047002002406D
:1007E00070B5D1F806600446300E90B08200002546
:1007F00007A80A31FFF770FC0EA800F0ABF8D4F898
:100800001C2202210EA89047F0B204F58B760C282A
:1008100077D2DFE800F0765C4D76627676067689F0
:1008200076780020079A01210090132A27D2DFE86A
:1008300002F0260A170E111417192626261C1F2649
:100840003235383A3C0042482DE0022517E0D4F812
:10085000200228E0D4F8240225E0D4F8280222E07F
:100860000191F2E74FF6FF701DE04FF480701AE03F
:100870004FF40041CDE901010390052504906A463B
:100880002946304600F0BBF8304600F0A5F9014695
:10089000D4F81C2233E0D4F82C0204E0D4F830025F
:1008A00001E0D4F834020190CFE7D4F83802FAE737
:1008B0000798C4F854020899C4F85812D4F8402292
:1008C00004F50774904702220021304610E001220F
:1008D0000021304600F061F8D6E70799C4F85412B9
:1008E0000898C4E9960104220021304604F50774F3
:1008F00000F053F8304600F06FF9226801463046A8
:10090000904710B070BD0B220021304600F045F832
:10091000304600F061F90146D4F81C223046904779
:10092000D4F848028047ECE709220021304600F065
:1009300034F8304600F050F90146D4F81C22304615
:10094000904707AB93E80700D4F84C329847D8E7B4
:100950000004014B5A210170A121417070472DE91B
:10096000F0410E4615460746A42100F00DF9042279
:100970003146384600F0EDF8002406E005EB84012E
:100980000422384600F0E5F8641CF078A042F5DC5B
:100990003846BDE8F04100F001B91FB5A0238DF83D
:1009A0000030CDE9021200238DF8013002248DF8C9
:1009B00003408DF8023002AA6946FFF7D0FF04B069
:1009C000002010BD78B50446DDE905055A262670DD
:1009D000A7266670A370E270217150216171A07129
:1009E000E5710020ADF80000082221466846FFF7B7
:1009F000C5FEBDF800002072000A607278BD08B51F
:100A0000A7238DF8003000238DF801308DF80230D7
:100A10008DF803106946FFF7A2FF002008BD2DE9FD
:100A2000F8430026ADF8006004460568007BAF1D62
:100A300006224FF0010807287AD2DFE800F0040A06
:100A40002B2E373A3C005A2973D10120207329708C
:100A50006FE069700220A13907296AD2DFE801F04E
:100A60001212690404060D00207362E0A16809B146
:100A7000284688474FF000085AE0AE70EE70666076
:100A8000227356E02673A16809B1284688470020E2
:100A9000BDE8F883A9700320E6E7E970A87800EBC9
:100AA0000120B0F5807F43D80420DDE729710520BF
:100AB000DAE76971E3E76068421C6260395468787C
:100AC000A42801D0A52826D1A878E97800EB012038
:100AD000616888421FD8ADF8006002222946684646
:100AE000FFF74CFE0222A91C6846FFF747FE394675
:100AF00068466268FFF742FE2879697900EB0120B9
:100B0000BDF80010884205D1A16809B12846884780
:100B10004FF0000826736878A7280AD16068082873
:100B200007D30820A870EE70A16809B1284688474D
:100B300026734046ACE710B50021416001730068A0
:100B400028B14FF48371FFF7E0FA002010BD0120B7
:100B500010BD70B5044615468078E27800EB02209F
:100B6000B0F5807F01D9012070BD20442A46801D48
:100B7000FFF7B2FAA07850FA85F0A070E07800EBA9
:100B80001520E070002070BD5A22027041700021D3
:100B90008170C170017141710846704718B50446F3
:100BA0000020ADF80000022221466846FFF7E6FD6E
:100BB0000222A11C6846FFF7E1FDA078E17800EB76
:100BC0000122A11D6846FFF7D9FDBDF80000207184
:100BD000000A6071002018BD8178C078062202EBFF
:100BE00000200844704700000EB5FFF7F1FA4049B5
:100BF00003200860FFF796FCFFF7A4FA08220E21F5
:100C00000120FFF71FFB0323022206210120FFF72B
:100C10004BFC0023022207210120FFF745FC0122A3
:100C200006211046FFF79AFB012207211046FFF725
:100C300095FB3048416841F0040141604FF4E131D7
:100C40000120FFF7F1FC2D4C2B48334EC4F81C0259
:100C50002B48C4F848022B48C4F84C022A48C4F870
:100C600050022A48C4F840022948C4F83C022948E6
:100C7000C4F844024FF48030C4E988608011C4F89D
:100C80002802C004C4F82C020013C4F83002800209
:100C9000006AC4F83402684604F50774FFF7AAFB3B
:100CA0000198E061154800F03DF8FFF791FA42F233
:100CB0001070FFF795FC0120FFF786FC174C00250C
:100CC00002A90120FFF7A2FC20B9012202A90B48CA
:100CD00000F0BCF86078012805D1002211463046AA
:100CE00000F038F86570054800F04EF8E8E70000BD
:100CF0000020024000000140770E00084400002060
:100D00006D0E0008550D0008210D0008B10E0008F9
:100D1000ED0E0008DD0E0008008000081400002021
:100D20007047000010B50446103020600548A060F0
:100D30002046FFF700FF04490020C4F86002086065
:100D400010BD0000AD07000840000020D0F8600290
:100D5000704700007CB50B4800246D46D0E90010B8
:100D6000CDE9001055F82400FFF7F4FC014655F8D2
:100D70002400814201D1FFF75BFB641C022CF1D3FC
:100D80007CBD0000080F0008F0B52F4F044685B069
:100D90003868002855D0607C0026A13806284FD23C
:100DA000DFE800F04E4E4E141A030120C4F8600232
:100DB000014600960023022202A80196FFF702FED8
:100DC000D4F81C220A2102A8904739E004F110014E
:100DD0002046FFF705FD33E0A07CE17CD4F83C32EF
:100DE00000EB01252A4604F11601D4F85C0298476D
:100DF000D4F85C022844C4F85C02684604F5077421
:100E0000FFF7A8FD2268022168469047D4E90E0149
:100E10000844216CA4F50774884211D804F58B703E
:100E2000042200210546FFF7B8FD2846FFF7D4FE4F
:100E30000146D4F81C2228469047D4F85002804737
:100E40003E6005B0F0BD0000400000202DE9F041FB
:100E500015460E460746002404E0315D3846FFF78C
:100E6000DEFD641CAC42F8D3BDE8F0816420FFF7DE
:100E70006BF9FFF7F7FA70B50D46044601220E2113
:100E80001046FFF73BFA6420FFF778F904E014F806
:100E9000011B0120FFF70CFC6D1EF8D26420FFF748
:100EA0006DF900220E210120FFF728FA002070BD05
:100EB00070B520F078420446B2F5805F09D2012077
:100EC00070BD44F00060FFF767F9FFF77DF9044457
:100ED00000E00D19A542F4D8002070BD0B4610B5F6
:100EE00001461846FFF7F8F8002010BD10B520F0B5
:100EF0007843B3F5805F01D2012010BD40F000605F
:100F0000FFF77CF9002010BD0080000800100008E9
:100F100000080140000C0140001001400014014095
:100F2000060708090A171717171728282828282836
:100F30000025260000000000003801400044004069
:100F400000480040640F000800000020440000003A
:100F500034070008A80F00084400002064040000C3
:100F60004407000800B0710B000000000000000002
:100F70000102030406070809000000000000000049
:100F80000000000000000000000000000000000061
:100F90000000000000000000000000000000000051
:080FA000010000000000000048
:04000005080000A14E
:00000001FF
