:020000040800F2
:10000000F0060020CD000008990500086D050008E5
:10001000D9000008DB000008DD0000080000000037
:1000200000000000B6B6FE0FA0000008DF000008C8
:10003000E100000800000000E3000008A906000835
:10004000E7000008E7000008E7000008E7000008F4
:10005000E7000008E7000008E7000008E7000008E4
:10006000E7000008E7000008E7000008E7000008D4
:10007000E7000008E7000008E7000008E7000008C4
:10008000E7000008E7000008E7000008E7000008B4
:10009000E7000008E7000008E70000081102000878
:1000A000A5A5EDFE0000000000000000DC16000029
:1000B000B3D56AFB01000000DFF80CD000F03CF87B
:1000C00000480047E10E0008F0060020064880477F
:1000D00006480047FEE7FEE7FEE7FEE7FEE7FEE72D
:1000E000FEE7FEE7FEE7FEE74D070008B90000085F
:1000F00040EA01039B0703D009E008C9121F08C0AA
:10010000042AFAD203E011F8013B00F8013B521E29
:10011000F9D27047D2B201E000F8012B491EFBD2A0
:1001200070470022F6E710B513460A460446194602
:10013000FFF7F0FF204610BD064C074D06E0E068D3
:1001400040F0010394E8070098471034AC42F6D31E
:10015000FFF7B6FF501600087016000800F0BCBA92
:100160000B4908B54FF0E02249685161116941F02F
:10017000050111610021916107E013690093DB071C
:1001800002D0009BDB03F8D5491C8142F5D308BDA2
:100190004800002030B51C484456012004F01F05DB
:1001A00000FA05F56409A40004F1E024C4F8005144
:1001B000164C2568884005432560144914390C689D
:1001C0000BB1044300E084430C6010490C394AB180
:1001D0000C1D012A0DD0022A0AD10A688BB10243F4
:1001E0000A6007E00A680BB1024300E082430A603C
:1001F00030BD13B12168014301E0216881432160D2
:1002000030BD82430A60F8E72C1600081404014050
:100210000E4910B5802008604FF0E02082690D493A
:100220000B4B487843F82020401CC0B24870072888
:100230000BD1091D184600F043FB00230721BDE840
:1002400010401A460120FFF7A5BF10BD140401405D
:10025000D00200201C00002000B572B6094B1969BD
:1002600041F0020119615861186940F040001861BD
:10027000D80300F0E5FB196921F00201196162B6AB
:1002800000BD0000002002400148006870470000E7
:10029000400000200C4800B5416941F01001416167
:1002A00000F018F809480A49008880B2A0F580706B
:1002B000C53805D0012803D04FF400620A6000BDA4
:1002C0004FF48060086000BD00100240002004E090
:1002D00040000020034802494160034941607047E3
:1002E0002301674500200240AB89EFCD2DE9F041A5
:1002F00007464FF4704416460D46204600F0A0FB1A
:10030000A04600230A4C0FE072B6206940F00100BD
:100310002061E85CF854404600F092FB216921F02E
:100320000101216162B65B1CB342EDD3BDE8F081EF
:100330000020024070B505462D4B14460E46062D92
:100340000CD2DFE805F0030714180B1C986940F085
:10035000040002E0986940F0080098610A2C44D239
:10036000DFE804F0111F18432A4343432A3E9869EB
:1003700040F01000F1E7986940F02000EDE798693F
:1003800040F08000E9E700230122284600F02CF924
:1003900000221EE000230222284600F025F9012257
:1003A00005E000230222284600F01EF90022314613
:1003B000284600F01FF818E003230022284600F02A
:1003C00013F9042C0AD000223146284600F012F816
:1003D00001223146284600F033F806E00122F3E717
:1003E00002230122284600F0FFF8284670BD0000D5
:1003F0000010024001238B40034951F820000AB14C
:1004000003617047436170471C1600080A4A10B523
:10041000936943F0010393618A0721F003040749BC
:10042000120F21440F238C6893409C438C608B688F
:10043000904003438B6010BD00100240000001405B
:1004400030B512B10024022301E0012400230D4A3B
:100450000F2552F820008A00082909D34168203A64
:10046000954043EA8403A94393400B43436030BD66
:100470000168954043EA8403A94393400B4303601A
:1004800030BD00001C160008012A00D00022FFF732
:10049000B1BF000030B5224C012102226368C3F3D2
:1004A00003135BB1082B04D0092B04D00A2B05D110
:1004B00003E0022102E0042100E008216368C3F3A5
:1004C000022333B1042B09D0052B04D0062B05D110
:1004D00003E0012202E0042200E00822114B05287B
:1004E0001B681AD2DFE800F00B03080D0F00B3FB06
:1004F000F1F0B0FBF2F030BDB3FBF1F030BD1846C7
:1005000030BD094830BD206B800104D5606D800589
:1005100001D5064830BD064830BD002030BD000082
:100520000010024000000020001BB700006CDC023D
:1005300000127A000549054B0A68091D083309684D
:100540001B685940C0E9002170470000E8F7FF1F11
:1005500008B5054B6946187800F0FAF80028F9D17B
:100560009DF8000008BD00004400002000F01AF8CB
:1005700010B5074B016899604268DA6081F308881A
:1005800081F3098803491A610860904700BF10BDD4
:100590004800002008ED00E010B500F001F810BDA3
:1005A00070470000BFF34F8F04480168044A01F40C
:1005B000E06111430160BFF34F8FFEE70CED00E0F7
:1005C0000400FA0510B5044A04460146107800F00C
:1005D00015F9204610BD000044000020014A51607A
:1005E000106070475C00002030B51D4CA56945F0D7
:1005F0000105A56106280CD2DFE800F003071E22E2
:100600000B26A56945F0040502E0A56945F008053B
:10061000A561144D0F2443EA820255F820000829F1
:1006200016D343688D00203DAC4089002039A34398
:100630008A401A43426030BDA56945F01005E7E7DE
:10064000A56945F02005E3E7A56945F08005DFE7EA
:10065000036889008C40A3438A401A43026030BD7E
:10066000001002401C1600080C48416841F4681153
:100670004160016841F08071016001688901FCD529
:10068000416841F002014160416801F00301022923
:10069000FAD1044902480860002070470010024067
:1006A0000090D0030000002010B5094C60680A28B3
:1006B0000ADD207828B9074800F0E2FC08B90120DB
:1006C0006070002000F022F86068401C606010BD7F
:1006D000140000206C00002000B54FF0E020042141
:1006E00001616FF07F4141610220FFF7D3FE064AAE
:1006F0000449B0FBF2F04FF47A720860504348604E
:1007000000BD00004800002040420F004FF0E021F3
:100710000028086902D040F0020001E020F0020049
:10072000086170470849096848434FF0E021B0F17B
:10073000807F01D36FF07F404861002088610869A5
:1007400040F0050008617047480000207047000035
:10075000054A52F820000288920603D58088087066
:1007600000207047012070474016000870B5040053
:100770001ED01C48012C02D0022C19D10CE0C268FA
:1007800042F48042C260C26822F48042C260826940
:1007900042F4804282610BE0026942F4003202615D
:1007A000026922F400320261C26942F40032C2617D
:1007B000204600F02FF80C4842F20C0150F824209B
:1007C000918150F8240001880180084D287838B1C3
:1007D0000748084904700848FFF700FF0020287008
:1007E000002070BD00100240401600086400002088
:1007F0004400002051050008C5050008044A52F8CD
:100800002030998052F8200001884906FCD57047B5
:10081000401600082DE9F04104460D460120FFF77F
:1008200039FE1E4E56F824209189090400EBC001C0
:1008300001EB001001D5690000E0A900B0FBF1F167
:100840006425B1FBF5F0030118096FF01807784330
:1008500001EB800091890F044FF0320106D501EBC6
:10086000C000B0FBF5F000F0070005E001EB001060
:10087000B0FBF5F000F00F009189184393894DF615
:10088000F3752B40938156F82420108156F82400EC
:1008900082890A438281BDE8F08100004016000889
:1008A00002E008C8121F08C1002AFAD17047704739
:1008B000002001E001C1121F002AFBD17047000097
:1008C000F0B5D0E90023D41A82681C4D9B1A1C4451
:1008D000C368D21A144402699B1A1C444369806994
:1008E000D21A181A1044062390FBF3F30A2294FB41
:1008F000F2F2A868B2FBF0F2B3FBF0F0131A00D5E5
:10090000831A0A2B18DA0D4C00200D4E0C34642784
:1009100054F82030B6FBF3F37B4393FBF2F3473BF1
:100920002C2B06D201222A7054F8200008600020E7
:10093000F0BD401C0628EAD30120F0BD1C000020B9
:100940008096980004490A781AB14968016000202D
:1009500070470120704700001C00002010B50222E3
:1009600007210120FFF7E6FC07210120FFF74EFDDC
:100970000123002207211846FFF70CFC0020FFF797
:1009800089FD0349B0FBF1F00249886010BD000009
:10099000809698001C00002010B5044600F5003039
:1009A000D4E9001282420CD2B2F1006F09D3B1F146
:1009B000005F06D30548814203D2204600F00EF9BD
:1009C00008B1002010BD204610BD0000000010201E
:1009D000F0B50388002641F221070CE08C5D00256C
:1009E00083EA04235C001B0400D57C406D1C234675
:1009F000082DF7D3761C9642F0D30380F0BD016832
:100A0000C94301607047000030B5074D036807E037
:100A100011F8014B5C40E4B255F8244084EA1323FA
:100A2000521EF5D2036030BD1C1200084FF0FF319A
:100A3000016070470149012008607047680000208C
:100A40000849CA6812F0140F0AD100E0401ECA68B3
:100A5000D20702D00028F9D102E008B10020704787
:100A6000012070470020024070B5D1F806600446AE
:100A7000300E90B08200002507A80A31FFF738FB3E
:100A80000EA800F0E3F8D4F81C2202210EA890472B
:100A9000F0B204F58B760C2877D2DFE800F0765CB4
:100AA0004D7662767606768976780020079A01215F
:100AB0000090132A27D2DFE802F0260A170E11143D
:100AC00017192626261C1F263235383A3C00424884
:100AD0002DE0022517E0D4F8200228E0D4F8240203
:100AE00025E0D4F8280222E00191F2E74FF6FF70EA
:100AF0001DE04FF480701AE04FF40041CDE9010190
:100B00000390052504906A462946304600F0F3F824
:100B1000304600F0DDF90146D4F81C2233E0D4F869
:100B20002C0204E0D4F8300201E0D4F83402019041
:100B3000CFE7D4F83802FAE70798C4F854020899C6
:100B4000C4F85812D4F8402204F5077490470222E2
:100B50000021304610E001220021304600F099F8D3
:100B6000D6E70799C4F854120898C4E996010422FC
:100B70000021304604F5077400F08BF8304600F091
:100B8000A7F9226801463046904710B070BD0B228D
:100B90000021304600F07DF8304600F099F901461A
:100BA000D4F81C2230469047D4F848028047ECE73E
:100BB00009220021304600F06CF8304600F088F938
:100BC0000146D4F81C223046904707AB93E8070053
:100BD000D4F84C329847D8E70004014BF0B50446EE
:100BE000406A1849012589B0884225D1A76A182290
:100BF000394602A8FFF77CFA1349029888421BD1B4
:100C00000598C8B13E1B01A8FFF710FF06F11002BE
:100C1000214601A8FFF7F8FE059807F11401821B91
:100C200001A8143AFFF7F0FE01A8FFF7E8FE0199CA
:100C30000698884200D10025606A00B9002509B0F5
:100C40002846F0BDB6B6FE0FA5A5EDFE5A210170EF
:100C5000A121417070472DE9F0410E461546074627
:100C6000A42100F00DF904223146384600F0EDF8D9
:100C7000002406E005EB84010422384600F0E5F884
:100C8000641CF078A042F5DC3846BDE8F04100F085
:100C900001B91FB5A0238DF80030CDE90212002361
:100CA0008DF8013002248DF803408DF8023002AA3D
:100CB0006946FFF7D0FF04B0002010BD78B50446A8
:100CC000DDE905055A262670A7266670A370E27036
:100CD000217150216171A071E5710020ADF8000013
:100CE000082221466846FFF773FEBDF80000207217
:100CF000000A607278BD08B5A7238DF80030002384
:100D00008DF801308DF802308DF803106946FFF739
:100D1000A2FF002008BD2DE9F8430026ADF80060D1
:100D200004460568007BAF1D06224FF00108072826
:100D30007AD2DFE800F0040A2B2E373A3C005A2919
:100D400073D10120207329706FE069700220A139EE
:100D500007296AD2DFE801F01212690404060D00C7
:100D6000207362E0A16809B1284688474FF0000867
:100D70005AE0AE70EE706660227356E02673A1688A
:100D800009B1284688470020BDE8F883A9700320F0
:100D9000E6E7E970A87800EB0120B0F5807F43D842
:100DA0000420DDE729710520DAE76971E3E760686F
:100DB000421C626039546878A42801D0A52826D145
:100DC000A878E97800EB0120616888421FD8ADF867
:100DD0000060022229466846FFF7FAFD0222A91C9C
:100DE0006846FFF7F5FD394668466268FFF7F0FD93
:100DF0002879697900EB0120BDF80010884205D1FF
:100E0000A16809B1284688474FF000082673687822
:100E1000A7280AD16068082807D30820A870EE70B8
:100E2000A16809B12846884726734046ACE710B54B
:100E3000002141600173006828B14FF48371FFF70E
:100E400070F9002010BD012010BD70B50446154694
:100E50008078E27800EB0220B0F5807F01D9012094
:100E600070BD20442A46801DFFF742F9A07850FA51
:100E700085F0A070E07800EB1520E070002070BDD8
:100E80005A220270417000218170C170017141715C
:100E90000846704718B504460020ADF8000002224D
:100EA00021466846FFF794FD0222A11C6846FFF721
:100EB0008FFDA078E17800EB0122A11D6846FFF7C5
:100EC00087FDBDF800002071000A6071002018BD88
:100ED0008178C078062202EB0020084470470000A9
:100EE0001FB5FFF7D7F94F4903200860FFF7BCFB98
:100EF000FFF734F90323022206210120FFF774FBD8
:100F00000023022207210120FFF76EFB01220621A8
:100F10001046FFF7B9FA012207211046FFF7B4FA8D
:100F20004148416841F0040141604FF4E131012042
:100F3000FFF71CFC3E4C3D48444DC4F81C023D48A4
:100F4000C4F848023C48C4F84C023C48C4F850027B
:100F50003B48C4F840023B48C4F83C023A484FF4CE
:100F60000036C4F84402C4E9885604F50774FFF754
:100F70008BF9E060A803C4E904068010006AA06150
:100F800001A8FFF7D7FA0298E061294800F064F859
:100F9000FFF780F9FFF7E2FC42F21070FFF7C2FBA7
:100FA0000120FFF7B3FB2A4C69460120FFF7D0FB75
:100FB00020B9012269461E4800F0E2F803A8FFF7B5
:100FC000C1FC00BBA078F0B9002302220721012058
:100FD000FFF70AFB01200399FFF71CFC5A208DF84C
:100FE000000001226946124800F0CAF8A6208DF8D8
:100FF0000000012269460E4800F0C2F80C4800F0DB
:101000005DF80120A0706078012806D10022114609
:10101000284600F039F800206070054800F04EF8CE
:10102000C2E700000020024000000140AB110008B0
:101030006C000020A111000889100008551000085C
:10104000C511000801120008F11100080080000815
:10105000140000207047000010B5044610302060D6
:101060000548A0602046FFF7E2FE04490020C4F8CE
:101070006002086010BD0000350A0008680000200A
:10108000D0F860027047000010B50B4C2046FFF707
:1010900083FCA0420FD100231A4607210120FFF74D
:1010A00079F84FF0E0212002C1F880012046BDE828
:1010B0001040FFF75DBA10BD00800008F0B52F4F5B
:1010C000044685B03868002855D0607C0026A138D9
:1010D00006284FD2DFE800F04E4E4E141A030120CE
:1010E000C4F86002014600960023022202A801967D
:1010F000FFF7E4FDD4F81C220A2102A8904739E04A
:1011000004F110012046FFF7AFFC33E0A07CE17C46
:10111000D4F83C3200EB01252A4604F11601D4F83C
:101120005C029847D4F85C022844C4F85C02684624
:1011300004F50774FFF78AFD22680221684690478C
:10114000D4E90E010844216CA4F50774884211D833
:1011500004F58B70042200210546FFF79AFD28460E
:10116000FFF7B6FE0146D4F81C2228469047D4F873
:10117000500280473E6005B0F0BD000068000020CE
:101180002DE9F04115460E460746002404E0315D86
:101190003846FFF7C0FD641CAC42F8D3BDE8F081CF
:1011A0006420FEF7DDFFFFF7FDF970B50D4604463C
:1011B00004E014F8011B0120FFF720FB28466D1EF8
:1011C000F7D270BD70B520F078420446B2F5004FFA
:1011D00009D2012070BD44F00060FFF73DF8FFF731
:1011E00053F8044400E00D19A542F4D8002070BD66
:1011F0000B4610B501461846FEF77AFF002010BDD9
:1012000010B520F07843B3F5004F01D2012010BD96
:1012100040F00060FFF76AF8002010BD00000000F9
:10122000963007772C610EEEBA51099919C46D07F3
:101230008FF46A7035A563E9A395649E3288DB0E4E
:10124000A4B8DC791EE9D5E088D9D2972B4CB60931
:10125000BD7CB17E072DB8E7911DBF906410B71D0E
:10126000F220B06A4871B9F3DE41BE847DD4DA1A47
:10127000EBE4DD6D51B5D4F4C785D38356986C1378
:10128000C0A86B647AF962FDECC9658A4F5C0114F1
:10129000D96C0663633D0FFAF50D088DC8206E3BCF
:1012A0005E10694CE44160D5727167A2D1E4033CE1
:1012B00047D4044BFD850DD26BB50AA5FAA8B53508
:1012C0006C98B242D6C9BBDB40F9BCACE36CD832F7
:1012D000755CDF45CF0DD6DC593DD1ABAC30D9269E
:1012E0003A00DE518051D7C81661D0BFB5F4B421A1
:1012F00023C4B3569995BACF0FA5BDB89EB802289E
:101300000888055FB2D90CC624E90BB1877C6F2F22
:10131000114C6858AB1D61C13D2D66B69041DC761D
:101320000671DB01BC20D2982A10D5EF8985B171F6
:101330001FB5B606A5E4BF9F33D4B8E8A2C90778A5
:1013400034F9000F8EA8099618980EE1BB0D6A7F3C
:101350002D3D6D08976C6491015C63E6F4516B6BF5
:1013600062616C1CD83065854E0062F2ED95066CAA
:101370007BA5011BC1F4088257C40FF5C6D9B0651F
:1013800050E9B712EAB8BE8B7C88B9FCDF1DDD627C
:10139000492DDA15F37CD38C654CD4FB5861B24DE2
:1013A000CE51B53A7400BCA3E230BBD441A5DF4AAC
:1013B000D795D83D6DC4D1A4FBF4D6D36AE969436F
:1013C000FCD96E34468867ADD0B860DA732D04441A
:1013D000E51D03335F4C0AAAC97C0DDD3C71055045
:1013E000AA41022710100BBE86200CC925B56857EC
:1013F000B3856F2009D466B99FE461CE0EF9DE5E35
:1014000098C9D9292298D0B0B4A8D7C7173DB359E5
:10141000810DB42E3B5CBDB7AD6CBAC02083B8ED76
:10142000B6B3BF9A0CE2B6039AD2B1743947D5EA83
:10143000AF77D29D1526DB048316DC73120B63E3B2
:10144000843B64943E6A6D0DA85A6A7A0BCF0EE411
:101450009DFF099327AE000AB19E077D44930FF0CC
:10146000D2A3088768F2011EFEC206695D5762F7C3
:10147000CB67658071366C19E7066B6E761BD4FE00
:10148000E02BD3895A7ADA10CC4ADD676FDFB9F9DD
:10149000F9EFBE8E43BEB717D58EB060E8A3D6D69F
:1014A0007E93D1A1C4C2D83852F2DF4FF167BBD1CD
:1014B0006757BCA6DD06B53F4B36B248DA2B0DD8D0
:1014C0004C1B0AAFF64A0336607A0441C3EF60DF73
:1014D00055DF67A8EF8E6E3179BE69468CB361CB5C
:1014E0001A8366BCA0D26F2536E2685295770CCC81
:1014F00003470BBBB91602222F260555BE3BBAC5C2
:10150000280BBDB2925AB42B046AB35CA7FFD7C2B2
:1015100031CFD0B58B9ED92C1DAEDE5BB0C2649BA3
:1015200026F263EC9CA36A750A936D02A906099CD6
:101530003F360EEB8567077213570005824ABF9549
:10154000147AB8E2AE2BB17B381BB60C9B8ED292CC
:101550000DBED5E5B7EFDC7C21DFDB0BD4D2D38623
:1015600042E2D4F1F8B3DD686E83DA1FCD16BE8196
:101570005B26B9F6E177B06F7747B718E65A088867
:10158000706A0FFFCA3B06665C0B0111FF9E658FF8
:1015900069AE62F8D3FF6B6145CF6C1678E20AA0A2
:1015A000EED20DD75483044EC2B30339612667A728
:1015B000F71660D04D476949DB776E3E4A6AD1AE77
:1015C000DC5AD6D9660BDF40F03BD83753AEBCA906
:1015D000C59EBBDE7FCFB247E9FFB5301CF2BDBD73
:1015E0008AC2BACA3093B353A6A3B4240536D0BA7C
:1015F0009306D7CD2957DE54BF67D9232E7A66B319
:10160000B84A61C4021B685D942B6F2A37BE0BB4C5
:10161000A18E0CC31BDF055A8DEF022D000801407F
:10162000000C0140001001400014014006070809A9
:101630000A171717171728282828282800252600F2
:101640000000000000380140004400400048004015
:1016500070160008000000206C000000A0080008C0
:10166000DC1600086C00002084060000B0080008AA
:1016700000B0710B00000000000000000102030434
:10168000060708090000000000000000000000003C
:101690000000000000000000C012000080250000D3
:1016A00000C2010000E803000008070000100E005F
:1016B000000000000000000000000000000000002A
:1016C000000000000000000000000000000000001A
:0C16D0000000000001000000000000000D
:00000001FF
