:020000040000FA
:1000000040430020A1020000A5070000790700007E
:10001000AD020000AF020000B102000000000000CD
:10002000000000000000000000000000B30200001B
:10003000B502000000000000B70200002508000023
:10004000BB020000BB020000BB020000BB020000BC
:10005000BB020000BB020000AD050000BB020000B7
:10006000BB020000BB020000BB020000BB0200009C
:10007000BB020000BB020000BB020000BB0200008C
:10008000BB020000BB020000BB020000BB0200007C
:10009000BB020000BB020000BB020000BB0200006C
:1000A000BB020000BB020000BB020000BB0200005C
:1000B000BB020000BB0200000000000000000000C6
:1000C000BB020000BB020000BB020000BB0200003C
:1000D000BB020000BB020000BB02000000000000E9
:1000E0000000000000000000000000000000000010
:1000F0000000000000000000000000000000000000
:1001000000000000000000000000000000000000EF
:1001100000000000000000000000000000000000DF
:1001200000000000000000000000000000000000CF
:1001300000000000000000000000000000000000BF
:1001400000000000000000000000000000000000AF
:10015000000000000000000000000000000000009F
:10016000000000000000000000000000000000008F
:10017000000000000000000000000000000000007F
:10018000000000000000000000000000000000006F
:10019000000000000000000000000000000000005F
:1001A000000000000000000000000000000000004F
:1001B000000000000000000000000000000000003F
:1001C000000000000000000000000000000000002F
:1001D000000000000000000000000000000000001F
:1001E000000000000000000000000000000000000F
:1001F00000000000000000000000000000000000FF
:1002000000F002F800F03CF80AA090E8000C8244EC
:100210008344AAF10107DA4501D100F031F8AFF2C9
:10022000090EBAE80F0013F0010F18BFFB1A43F0D4
:10023000010318474413000064130000103A24BF60
:1002400078C878C1FAD8520724BF30C830C144BF3B
:1002500004680C607047000000230024002500267D
:10026000103A28BF78C1FBD8520728BF30C148BF19
:100270000B6070471FB501F052F91FBD10B510BDDE
:1002800000F0F1F81146FFF7F5FF00F0D9FF00F09C
:100290000FF903B4FFF7F2FF03BC00F017F90000F9
:1002A0000948804709480047FEE7FEE7FEE7FEE70A
:1002B000FEE7FEE7FEE7FEE7FEE7FEE70448054946
:1002C000054A064B70470000DD08000001020000EF
:1002D0004003002040430020402300204023002012
:1002E000032A40F2308010F0030C00F0158011F862
:1002F000013BBCF1020F624498BF11F801CB00F83A
:10030000013B38BF11F8013BA2F1040298BF00F88D
:1003100001CB38BF00F8013B11F0030300F07180FE
:10032000083AC0F0088051F8043B083A51F804CB71
:10033000A0E80810F5E7121D5CBF51F8043B40F837
:10034000043BAFF30080D20724BF11F8013B11F842
:1003500001CB48BF11F8012B24BF00F8013B00F886
:1003600001CB48BF00F8012B70474FF00002042971
:10037000C0F0128010F0030C00F01B80CCF1040CD4
:10038000BCF1020F18BF00F8012BA8BF20F8022B08
:10039000A1EB0C0100F00DB85FEAC17C24BF00F8AE
:1003A000012B00F8012B48BF00F8012B70474FF0DC
:1003B000000200B5134694469646203922BFA0E8B5
:1003C0000C50A0E80C50B1F12001BFF4F7AF0907C1
:1003D00028BFA0E80C5048BF0CC05DF804EB8900B2
:1003E00028BF40F8042B08BF704748BF20F8022BF5
:1003F00011F0804F18BF00F8012B7047704770470D
:10040000704710B5203AC0F00B80B1E81850203A80
:10041000A0E81850B1E81850A0E81850BFF4F5AFA4
:100420005FEA027C24BFB1E81850A0E8185044BF2E
:1004300018C918C0BDE810405FEA827C24BF51F89B
:10044000043B40F8043B08BF7047D20728BF31F88F
:10045000023B48BF11F8012B28BF20F8023B48BFE0
:1004600000F8012B7047754600F02CF8AE460500E9
:100470006946534620F00700854618B020B5FFF7BF
:100480001DFFBDE820404FF000064FF000074FF081
:1004900000084FF0000B21F00701AC46ACE8C009A2
:1004A000ACE8C009ACE8C009ACE8C0098D467047AB
:1004B00010B50446AFF300802046BDE81040FFF7BA
:1004C000E8BE000000487047DC0200200149182007
:1004D000ABBEFEE726000200704700F0BBB900008B
:1004E0000B4908B54FF0E02249685161116941F0AC
:1004F000050111610021916107E013690093DB0799
:1005000002D0009BDB03F8D5491C8142F5D308BD1E
:1005100034000020094B0221196009490A68002AA9
:10052000FCD0064A121D106008680028FCD000208C
:10053000186008680028FCD00020704704E50140DE
:1005400000E401404FF48050704700002DE9F04373
:100550000023DFF85080DFF850901EE0C41804F04C
:100560000305AC43ED004FF0FF0CCE5C0CFA05FC2C
:100570002768AE4027EA0C073E4401254F46C9F8DC
:100580000050D8F80050002DFBD02660D8F800406D
:10059000002CFBD000243C605B1C9342DED3002087
:1005A000BDE8F08300E4014004E501400E4910B5C8
:1005B0000E4B48780022C3F800214FF0E0229269E8
:1005C0000B4B43F82020401CC0B24870072809D1CB
:1005D000091D184600F092FB0021BDE810400846B6
:1005E00000F048B810BD0000080000200060004086
:1005F000C002002070B50C4605460A2A2CD2DFE85E
:1006000002F00511072B132B2B2B131DFF2200E0EB
:100610000122284600F0EEF800222146284600F08C
:100620006FF819E00022F4E7042A05D000222846DA
:1006300000F014F80122F0E70122F8E70122284631
:1006400000F05EF801222146284600F007F801225A
:100650002146284600F042F8284670BD0120884017
:100660000AB1034901E00249091D08607047000012
:100670000805005030B5184A01244023082824D228
:10068000DFE800F0040B0D121416181F11B1C2F8A8
:1006900004431AE0C2F8084317E0022000E00420F7
:1006A00089B1C2F8040310E00820F9E71020F7E749
:1006B0002020F5E711B1C2F8043306E0C2F8083390
:1006C00003E08020ECE7C2F808034FF0E020C0F818
:1006D0000031002030BD000000600040880000F1C3
:1006E000A040D0F8001721F4E061C0F80017002AFC
:1006F00005D0D0F8001741F4C061C0F8001770476A
:10070000880000F1A040D0F8003723F00203C0F8C1
:10071000003701208840012A09D007490860091DD7
:100720000860081D016821F001010160704702495D
:10073000091F0860704700001C05005008B1002028
:100740007047014800687047580000204FF0805102
:100750000A6E0260496E41607047000008B5054BA3
:100760006946187800F040FA0028F9D19DF8000099
:1007700008BD00005100002000F01AF810B5074B2A
:10078000016899604268DA6081F3088881F309881A
:1007900003491A610860904700BF10BD3400002073
:1007A00008ED00E010B500F001F810BD7047000042
:1007B000BFF34F8F04480168044A01F4E06111431C
:1007C0000160BFF34F8FFEE70CED00E00400FA0577
:1007D00010B5044A04460146107800F055FA204648
:1007E00010BD000051000020014A516010607047A8
:1007F00048000020880000F1A040D0F8001721F048
:100800000C01C0F8001742B1012A05D1D0F8001739
:1008100041F00C01C0F800177047D0F8001741F004
:100820000401F7E710B5094C606803280ADD207859
:1008300028B9074800F0BAFD08B90120607000200F
:1008400000F024F86068401C606010BD00000020CB
:100850005C00002000B54FF0E020016941F0040188
:1008600001616FF07F4141610020FFF767FF064A99
:100870000449B0FBF2F04FF47A72086050434860CC
:1008800000BD00003400002040420F004FF0E02186
:100890000028086902D040F0020001E020F00200C8
:1008A000086170470849096848434FF0E021B0F1FA
:1008B000807F01D36FF07F40486100208861086924
:1008C00040F00500086170473400002002490148EB
:1008D000086070470090D00358000020F0B5B14880
:1008E000B04A01260078121D0023111D3507062885
:1008F0000BD11478240708D10C78C4F30314032C0B
:1009000006D0042C04D0052C02D0062807D00EE017
:10091000B5F82443A44FC4F304243C6002E01478E7
:10092000240704D10C78C4F30314032C02D0062846
:1009300004D00FE09E4F9D4C7C670EE01478240796
:1009400008D10C78C4F30314032C06D0042C04D073
:10095000052C02D0062807D00EE0D5F84442954F6A
:10096000C4F342343C6002E01478240704D10C78CC
:10097000C4F30314032C02D0062806D011E08E4CD9
:10098000276827F0807727600EE01478240708D1C5
:100990000C78C4F30314032C06D0042C04D0052CCB
:1009A00002D006280AD011E04FF08044C4F80C3180
:1009B000C4F810317F4C241F236002E01478240710
:1009C00004D10C78C4F30314032C02D0062805D0FC
:1009D0000CE0784F032464373C600AE01478240765
:1009E00004D10C78C4F30314032C02D006280DD0D4
:1009F00014E0724F05243C60704C783426606F4CD4
:100A0000083423603F243F1D3C6002E01478240733
:100A100004D10C78C4F30314052C02D0062857D057
:100A200062E0674C2468674F3C60654C241D246875
:100A30003F1D3C60624C083424683F1D3C60604CA4
:100A40000C3424683F1D3C605D4C103424683F1D0D
:100A50003C605B4C143424683F1D3C60584C183497
:100A60002468584F20373C60554C1C3424683F1D87
:100A70003C60534C203424683F1D3C60504C24346F
:100A800024683F1D3C604E4C283424683F1D3C6068
:100A90004B4C2C3424683F1D3C60494C3034246856
:100AA000484F40373C60464C343424683F1D3C601E
:100AB000434C383424683F1D3C60414C3C3424682E
:100AC0003F1D3C603E4C403424683F1D3C6002E0CA
:100AD0001478240708D10C78C4F30314032C06D02F
:100AE000042C04D0052C02D0062807D019E0D5F834
:100AF0005802354A00F04F00106002E010780007FD
:100B00000FD10878C0F30310032803D0042801D0C4
:100B1000052806D12D480168C90702D06FF00101F0
:100B20000160D5F83001062808D1D5F8340106282F
:100B300004D12748016841F4806101601E4874387F
:100B4000016841F470010160BFF34F8FBFF36F8FF5
:100B50004FF01022D2F80C02C0071FD01D4C2660A7
:100B60001D4801680029FCD0D2F80C1221F00101C7
:100B7000C2F80C1201680029FCD02360016800292A
:100B8000FCD0BFF34F8F0C48F0380168134A01F4D2
:100B9000E06111430160BFF34F8FFEE71149104838
:100BA0000860F0BDE00F00F0403501400DF0ADBA37
:100BB00000C007403C050040FCED00E0105600403E
:100BC0000404001020C50040E40E00400004004072
:100BD0003C17004004E5014000E401400400FA0530
:100BE0000090D00358000020074A52F82000D0F8A7
:100BF00010213AB10022C0F8102104484078087052
:100C000010467047012070472C150000510000204D
:100C100070B5184D0446082055F82420C2F8000588
:100C2000204600F04DF855F82400D0F8001241F0AD
:100C30002001C0F8001255F824100120C1F8380531
:100C400055F824200C49C2F8341555F824100860D2
:100C500055F824108860094D287840B106480849A5
:100C6000401E04700748FFF7BFFD002028700020D9
:100C700070BD00002C150000520000205000002024
:100C80005D070000D107000013B50C49012251F89F
:100C90002030C3F8482551F8204001ABC4F8443552
:100CA00051F820309A6051F82000D0F81C1100292A
:100CB000FBD00021C0F81C111CBD00002C15000049
:100CC00070B5094B00221C1F53F832508D4206D1DB
:100CD00003EBC20554F820606D68C6F82455521C19
:100CE000092AF1D370BD0000301500000249014807
:100CF000086070473546526E00060140F0B5D0E9F5
:100D000000329C1A83681E4DD21A1444C2689B1A82
:100D10001C440369D21A1444426980699B1A101A50
:100D20000A22184494FBF2F2062390FBF3F3A5F198
:100D30000C04A068B2FBF0F2B3FBF0F0C5E90020B0
:100D4000131A00D5831A0A2B18DA0D4D00200D4E08
:100D50000835642755F82030B6FBF3F37B4393FB4B
:100D6000F2F3513B222B06D20122227055F82000CB
:100D700008600020F0BD401C0628EAD30120F0BD29
:100D8000140000208096980004490A781AB1496836
:100D9000016000207047012070470000080000201B
:100DA00010B5022201210020FFF724FC0A484FF071
:100DB00001110160016841F480710160012100208E
:100DC000FFF758FC0020FFF7B9FC0449B0FBF1F035
:100DD0000349886010BD00001065004080969800AF
:100DE00008000020F0B50388002641F221070CE03E
:100DF0008C5D002583EA04235C001B0400D57C4045
:100E00006D1C2346082DF7D3761C9642F0D3038041
:100E1000F0BD000001490120086070475400002027
:100E200070B5D1F806600446300E90B082000025FF
:100E300007A80A31FFF754FA0EA800F0B7F8D4F863
:100E40001C2202210EA89047F0B204F58B760C28E4
:100E500077D2DFE800F0765C4D76627676067689AA
:100E600076780020079A01210090132A27D2DFE824
:100E700002F0260A170E111417192626261C1F2603
:100E80003235383A3C0042482DE0022517E0D4F8CC
:100E9000200228E0D4F8240225E0D4F8280222E039
:100EA0000191F2E74FF6FF701DE04FF480701AE0F9
:100EB0004FF40041CDE901010390052504906A46F5
:100EC0002946304600F0C7F8304600F0B1F9014637
:100ED000D4F81C2233E0D4F82C0204E0D4F8300219
:100EE00001E0D4F834020190CFE7D4F83802FAE7F1
:100EF0000798C4F854020899C4F85812D4F840224C
:100F000004F50774904702220021304610E00122C8
:100F10000021304600F06DF8D6E70799C4F8541266
:100F20000898C4E9960104220021304604F50774AC
:100F300000F05FF8304600F07BF922680146304649
:100F4000904710B070BD0B220021304600F051F8E0
:100F5000304600F06DF90146D4F81C223046904727
:100F6000D4F848028047ECE709220021304600F01F
:100F700040F8304600F05CF90146D4F81C223046B7
:100F8000904707AB93E80700D4F84C329847D8E76E
:100F90000004014B4FF400404068A0F50040B0F55C
:100FA000E02F01D900207047012070475A210170BD
:100FB000A121417070472DE9F0410E4615460746C4
:100FC000A42100F00DF904223146384600F0EDF876
:100FD000002406E005EB84010422384600F0E5F821
:100FE000641CF078A042F5DC3846BDE8F04100F022
:100FF00001B91FB5A0238DF80030CDE902120023FE
:101000008DF8013002248DF803408DF8023002AAD9
:101010006946FFF7D0FF04B0002010BD78B5044644
:10102000DDE905055A262670A7266670A370E270D2
:10103000217150216171A071E5710020ADF80000AF
:10104000082221466846FFF7CDFEBDF80000207259
:10105000000A607278BD08B5A7238DF80030002320
:101060008DF801308DF802308DF803106946FFF7D6
:10107000A2FF002008BD2DE9F8430026ADF800606E
:1010800004460568007BAF1D06224FF001080728C3
:101090007AD2DFE800F0040A2B2E373A3C005A29B6
:1010A00073D10120207329706FE069700220A1398B
:1010B00007296AD2DFE801F01212690404060D0064
:1010C000207362E0A16809B1284688474FF0000804
:1010D0005AE0AE70EE706660227356E02673A16827
:1010E00009B1284688470020BDE8F883A97003208D
:1010F000E6E7E970A87800EB0120B0F5807F43D8DF
:101100000420DDE729710520DAE76971E3E760680B
:10111000421C626039546878A42801D0A52826D1E1
:10112000A878E97800EB0120616888421FD8ADF803
:101130000060022229466846FFF754FE0222A91CDD
:101140006846FFF74FFE394668466268FFF74AFE79
:101150002879697900EB0120BDF80010884205D19B
:10116000A16809B1284688474FF0000826736878BF
:10117000A7280AD16068082807D30820A870EE7055
:10118000A16809B12846884726734046ACE710B5E8
:10119000002141600173006828B14FF48371FFF7AB
:1011A000E4F8002010BD012010BD70B504461546BE
:1011B0008078E27800EB0220B0F5807F01D9012031
:1011C00070BD20442A46801DFFF78AF8A07850FAA7
:1011D00085F0A070E07800EB1520E070002070BD75
:1011E0005A220270417000218170C17001714171F9
:1011F0000846704718B504460020ADF800000222EA
:1012000021466846FFF7EEFD0222A11C6846FFF763
:10121000E9FDA078E17800EB0122A11D6846FFF707
:10122000E1FDBDF800002071000A6071002018BDCA
:101230008178C078062202EB002008447047000045
:101240001FB50125A8070560FFF740FBFFF745F92B
:101250004FF4E1310020FFF7DBFC3D480027076039
:101260003B4808300560042207213846FFF7C2F9E1
:10127000394C3848EE03C4F81C023848C4F8480218
:101280003748C4F84C023748C4F850023648C4F80E
:1012900040023648C4F83C023548C4F844024FF4D2
:1012A000F020C4E988606807C4E98A604013C4F884
:1012B00030023048C4F8340201A804F50774FFF77F
:1012C00045FA0298E061244800F05CF8FFF768FDF9
:1012D0002948FFF7E7FA0120FFF7D8FAB146274E71
:1012E0005A244FF0A60869460020FFF77DFC20B97C
:1012F00001226946184800F0CBF803A8FFF744FD27
:10130000B8B9B078A8B900200399FFF7D9FC8DF8D7
:10131000004001226946104800F0BAF88DF80080BC
:10132000012269460C4800F0B3F80B4800F04EF873
:10133000B5707078012805D100221146484600F0AA
:1013400038F87770044800F041F8FFF7CFFCCAE79F
:101350000C250040BB1400005C000020B11400000C
:10136000B313000081130000D51400000B1500001A
:10137000FB14000032280500A086010000000020B8
:101380007047000010B50446103020600548A0608A
:101390002046FFF7FCFE04490020C4F86002086004
:1013A00010BD0000150E000054000020D0F86002AF
:1013B000704710B50146FFF7EDFD002804D0BDE8E9
:1013C00010400846FFF7DAB910BD0000F0B52F4F06
:1013D000044685B03868002855D0607C0026A138C6
:1013E00006284FD2DFE800F04E4E4E141A030120BB
:1013F000C4F86002014600960023022202A801966A
:10140000FFF70CFED4F81C220A2102A8904739E00D
:1014100004F110012046FFF703FD33E0A07CE17CDE
:10142000D4F83C3200EB01252A4604F11601D4F829
:101430005C029847D4F85C022844C4F85C02684611
:1014400004F50774FFF7B2FD226802216846904751
:10145000D4E90E010844216CA4F50774884211D820
:1014600004F58B70042200210546FFF7C2FD2846D3
:10147000FFF7DEFE0146D4F81C2228469047D4F838
:10148000500280473E6005B0F0BD000054000020CF
:101490002DE9F04115460E460746002404E0315D73
:1014A0003846FFF7E8FD641CAC42F8D3BDE8F08194
:1014B0006420FFF715F8FFF77BF970B50D46044679
:1014C00004E014F8011B0020FFF7DEFB28466D1E28
:1014D000F7D270BD70B50446B0F5004F08D20120B8
:1014E00070BD2046FFF716F8FFF72CF8044400E023
:1014F0000D19A542F5D8002070BD0B4610B5014668
:101500001846FEF7EDFE002010BD10B5B0F5004FF7
:1015100001D2012010BDFFF719F8002010BD4FF0D7
:101520004070E1EE100A7047020000000020004009
:101530006009000000D00900C012000000B01300D4
:101540008025000000502700004B000000A04E0046
:1015500000C201000000D601008403000000B003B7
:10156000000807000000400700100E000000000FF8
:1015700040420F00000000109815000000000020FD
:101580005C0000003C020000F41500005C0000203C
:10159000E4420000580200000000000000000000CB
:1015A000000000000000000000000000000000003B
:1015B00000000000C01200008025000000C20100F1
:1015C00000E803000008070000100E000000000003
:1015D000000000000000000000000000000000000B
:1015E00000000000000000000100000000000000FA
:0415F0000090D00394
:0400000500000201F4
:00000001FF
