:020000040800F2
:10000000F00500206501000829080008D90700084C
:10001000710100087301000875010008000000006C
:100020000000000000000000000000007701000850
:1000300079010008000000007B0100084D0A00085B
:100040007F0100087F0100087F0100087F01000890
:100050007F0100087F0100087F0100087F01000880
:100060007F0100087F0100087F0100087F01000870
:100070007F0100087F0100087F0100087F01000860
:100080007F0100087F0100087F0100087F01000850
:100090007F0100087F0100087F010008810300083C
:1000A0007F0100087F0100087F0100087F01000830
:1000B0007F0100087F0100087F0100087F01000820
:1000C0007F0100087F0100087F0100087F01000810
:1000D0007F0100087F0100087F0100087F01000800
:1000E0007F0100087F0100087F0100087F010008F0
:1000F0007F0100087F0100087F0100087F010008E0
:100100007F0100087F0100087F0100087F010008CF
:100110007F0100087F0100087F0100087F010008BF
:100120007F0100087F0100087F0100087F010008AF
:100130007F0100087F0100087F0100087F0100089F
:100140007F0100087F0100087F0100087F0100088F
:10015000DFF80CD000F03CF8004800474D140008D0
:10016000F00500200648804706480047FEE7FEE706
:10017000FEE7FEE7FEE7FEE7FEE7FEE7FEE7FEE757
:10018000350B00085101000840EA01039B0703D02A
:1001900009E008C9121F08C0042AFAD203E011F8C6
:1001A000013B00F8013B521EF9D27047D2B201E088
:1001B00000F8012B491EFBD270470022F6E710B56C
:1001C00013460A4604461946FFF7F0FF204610BDC5
:1001D000064C074D06E0E06840F0010394E8070094
:1001E00098471034AC42F6D3FFF7B6FFFC1800086E
:1001F0001C19000800B500F049FC00BD08B5104A04
:1002000012684FF0E0235A611A46126942F0050263
:100210001A6100229A6100210EE000BF4FF0E02237
:1002200012690092009A02F0010222B1009A02F4CF
:100230008032002AF2D0491C8142EED308BD000072
:100240004400002008B50346184600F055FC00BFE6
:100250004FF0E02000690090009800F0010020B10C
:10026000009800F480300028F2D008BD70B5044634
:10027000414D685600F01F060125B5404609B600FD
:1002800006F1E026C6F8005100BF3C480068012591
:100290008D402843394D28604BB1384814380568E3
:1002A00001208840054335481438056008E033488C
:1002B0001438006801258D40A843304D143D286056
:1002C00022B1012A17D0022A53D129E04BB12B4881
:1002D0000C38056801208840054328480C38056023
:1002E00008E026480C3805680120884085432348EB
:1002F0000C3805603DE04BB1204808380068012506
:100300008D4028431D4D083D286008E01B480838F3
:10031000056801208840854318480838056028E0B2
:100320004BB116480C380568012088400543134836
:100330000C38056008E011480C38006801258D4034
:10034000A8430E4D0C3D28604BB10C48083800689E
:1003500001258D402843094D083D286008E00748E5
:10036000083805680120884085430448083805603E
:1003700000BF00BF70BD0000101800081404014049
:1003800010B580200E4908604FF0E02080690D49CB
:100390000D4A127841F822000B480078401C0A49A7
:1003A000087008460078072809D10849054800F078
:1003B000AFFC00231A4607210120FFF757FF10BDAD
:1003C00014040140D00200203D000020380000202D
:1003D0000CB5002000901148006840F480300F49AF
:1003E000086008E00098401C00900098B0F5004FAD
:1003F00001D901200CBD0948006800F40030002834
:10040000F0D00020019003E000BF0198401C019053
:100410000198FF28F8D90020ECE700000010024006
:1004200000B502460B48006940F002000949086126
:1004300008464261006940F040000861C80300F0CE
:100440001DFD03460348006920F0020001490861D0
:10045000184600BD002002404FF4006070470000C5
:1004600000B50448406940F010000249486100F0BE
:1004700003F800BD001002400248034948600348E9
:10048000486070472301674500200240AB89EFCDEB
:10049000F0B503460C4615464FF4704000F0EEFCF4
:1004A00006462746002213E00B48006940F0010091
:1004B00009490861B85C98544FF4704000F0DEFCC4
:1004C00006460548006920F0010003490861521CF6
:1004D000AA42E9D33046F0BD0020024070B505467F
:1004E0000E46144635B1012D0BD0022D10D0032D30
:1004F0001CD114E03748806940F004003549886118
:1005000014E03448806940F00800324988610DE009
:100510003048806940F010002E49886106E02D487F
:10052000806940F020002B49886100BF00BF0A2C81
:100530004BD2DFE804F0051D114A294A4A4A2A43F2
:10054000002301223146284600F0C0F9002231463E
:10055000284600F07BF839E0002302223146284685
:1005600000F0B4F901223146284600F035F82DE0BC
:10057000002302223146284600F0A8F90022314625
:10058000284600F029F821E000BF0323002231466D
:10059000284600F09BF9042C05D10122314628465B
:1005A00000F01AF804E000223146284600F014F862
:1005B00001223146284600F049F807E002230122D3
:1005C0003146284600F082F900E000BF00BF28460F
:1005D00070BD00000010024010B532B101238B4005
:1005E000054C54F82040236105E001238B40024C68
:1005F00054F82040636110BD0018000830B5114B5D
:100600009B6943F001030F4CA36100228B071C0F71
:100610000F2303FA04F20C4B8C0853F82430934355
:10062000094C8D0844F8253023468C0853F82440A3
:100630008B071B0F00FA03F31C43034B8D0843F891
:10064000254030BD0010024008000140F0B50346CF
:10065000154615B10022022401E0012200240829D8
:1006600015D3144E56F823607068A1F10806B70040
:100670000F26BE40B04344EA8206A1F10807BF003E
:10068000BE4030430B4E56F82360706010E0094EB8
:1006900056F8236030688F000F26BE40B04344EA0E
:1006A00082068F00BE403043024E56F82360306011
:1006B000F0BD00000018000870B505460E4614464F
:1006C000012C04D131462846FFF786FF04E00022C2
:1006D00031462846FFF780FF70BD000010B5014687
:1006E00001220223234C6468C4F3031434B1082CA0
:1006F00006D0092C06D00A2C08D105E0012205E01D
:10070000022203E0042201E0082200BF00BF194CCE
:100710006468C4F3022434B1042C06D0052C06D03E
:10072000062C08D105E0012305E0022303E00423A1
:1007300001E0082300BF00BF052917D2DFE801F060
:100740000F030A1214000C4C2468B4FBF2F4B4FB3F
:10075000F3F00DE0084C2468B4FBF2F008E0064C1E
:10076000206805E0054803E0054801E0002000BFDF
:1007700000BF10BD0010024000000020001BB700A9
:1007800000127A000EB50C4A126800920A4A121D35
:1007900012680192084A083212680292DDE90123C8
:1007A0005A400192002104E0009A0260019A4260DE
:1007B000491C0829F8DB0EBDE8F7FF1F08B500BF8C
:1007C00069460448007800F0BFF90028F8D19DF888
:1007D000000008BD3E00002000F02CF870B5044673
:1007E00025460D49286808600C4968680860084675
:1007F00000680B4908600849086880F3088800BF52
:10080000086880F3098800BF06480460044800684F
:10081000804700BF70BD00005C0000206000002029
:100820006400002008ED00E010B500F001F810BDF4
:1008300070470000BFF34F8F0648006800F4E06087
:1008400005490843001D03490860BFF34F8F00BFEF
:10085000FEE700000CED00E00000FA0500B50346DD
:1008600019460348007800F0E7F9184600BD00007B
:100870003E000020014A516010607047480000208F
:1008800030B504460F48456825F00305254345600B
:1008900000BF0C48406800F00300A042F9D114B139
:1008A000012C0CD105E00420FFF718FF0649086071
:1008B00005E00320FFF712FF0349086000BF00BFF7
:1008C00030BD0000001002400000002070B514464A
:1008D000284DAD6945F00105264EB56130B10128BE
:1008E0000BD0022810D003281CD114E0214DAD6993
:1008F00045F004051F4EB56114E01E4DAD6945F08D
:1009000008051C4EB5610DE01A4DAD6945F01005A6
:10091000184EB56106E0174DAD6945F02005154E3E
:10092000B56100BF00BF082912D30839124D55F830
:1009300020506A688E000F25B540AA4343EA84051B
:100940008E00B5402A430C4D55F820506A6010E0E7
:10095000094D55F820502A688E000F25B540AA434E
:1009600043EA84058E00B5402A43034D55F82050D4
:100970002A6070BD00100240001800082DE9F04107
:1009800005460C460020FFF77BFF2B48406843F6E6
:10099000F0718843284948600846406840F4105088
:1009A00048600846006820F080700860084640688B
:1009B0002249084020494860084640684FF4003109
:1009C00041EA054108431C49486025B90420FFF766
:1009D00085FE46080AE0FFF7FBFC074617B13846DC
:1009E000BDE8F0810320FFF779FE4608B4FBF6F876
:1009F00011484068124951F8281008430E494860D0
:100A00001048844204D30846406840F000404860E3
:100A10000948006840F080700749086000BF064838
:100A2000006800F000700028F9D00220FFF728FFCE
:100A3000054804600020D3E700100240FFFFC01FFC
:100A40003418000800A24A040000002010B50B482A
:100A5000006803280CDD0A48007830B9094800F026
:100A6000DDFD10B9012008490870002000F030F8C1
:100A700002480068401C0149086010BD18000020B1
:100A8000140000206C0000201500002000B5042098
:100A90004FF0E02108616FF07F4048610220FFF7CE
:100AA0001DFE08490860084600680749B0FBF1F0E0
:100AB00004490860084600684FF47A7148430349C6
:100AC000086000BD4000002040420F0044000020AC
:100AD000012808D14FF0E021096941F002014FF0EF
:100AE000E022116107E04FF0E021096921F00201E5
:100AF0004FF0E022116170470D4909684143B1F19F
:100B0000807F05D36FF07F414FF0E022516105E017
:100B10000749096841434FF0E022516100214FF03D
:100B2000E02291611146096941F0050111617047A8
:100B3000400000200348006840F47000014908604C
:100B40007047000088ED00E00246084850F8220097
:100B5000008800F0200030B1044850F8220080885E
:100B60000870002070470120FCE7000020180008F2
:100B700070B504460D4634B1012C05D0022C14D0BA
:100B8000032C34D122E032E02548C06840F4804094
:100B90002349C8600846C06820F48040C860084601
:100BA000806940F48040886121E01D48006940F47C
:100BB00000301B4908610846006920F400300861D4
:100BC0000846C06940F40030C86110E0144800696C
:100BD00040F48020124908610846006920F4802012
:100BE00008610846C06940F48020C86100BF00BFAA
:100BF0002946204600F030F842F20C00094951F82D
:100C0000241088810848007840B108490C700849D0
:100C10000848FFF72FFE002003490870002070BD30
:100C20000010024020180008500000203E00002064
:100C3000BD0700085D080008064A52F82020918090
:100C400000BF044A52F82020128802F04002002A15
:100C5000F7D07047201800082DE9F0470446884671
:100C6000002500BF00270120FFF738FD81461F48FF
:100C700050F82400808900F4004040B109EBC9001D
:100C800000EB09104FEA4801B0FBF1F607E009EB71
:100C9000C90000EB09104FEA8801B0FBF1F66420AF
:100CA000B6FBF0F005012809642101FB10670F482D
:100CB00050F82400808900F4004040B1322000EB5D
:100CC000C700B0FBF1F000F00700054308E0322058
:100CD00000EB07106421B0FBF1F000F00F000543BA
:100CE000024951F824100D81BDE8F0872018000852
:100CF00002E008C8121F08C1002AFAD170477047E5
:100D0000002001E001C1121F002AFBD17047000042
:100D1000FCB502460C46D2E90006801B9768F61B1C
:100D200030443E46D768F61B30443E461769F61BF2
:100D300030440090D2E90406801B9769F61B3044CA
:100D400001900A26009890FBF6F000900626019884
:100D500090FBF6F001901C4E00983668B0FBF6F060
:100D60000090194E01983668B0FBF6F00190DDE96D
:100D70000006801B03D5DDE90060801B02E0DDE991
:100D80000006801B0A281CDA002118E00F4850F8E2
:100D900021000F4EB6FBF0F564206843009E90FBE7
:100DA000F6F3462B0ADD732B08DA0120094E30706A
:100DB000064850F8210020600020FCBD491C06298F
:100DC000E4D30120F9E70000340000201C000020DB
:100DD000809698003C00002001460548007820B12C
:100DE000044800680860002070470120FCE700000C
:100DF0003C0000203800002010B50222072101200D
:100E0000FFF76CFB07210120FFF7F8FB012300220D
:100E100007211846FFF72AFA0020FFF75FFC034975
:100E2000B0FBF1F00249086010BD00008096980008
:100E300034000020F0B503460C461888002113E06A
:100E4000675C80EA072000250BE0460000F4004CB8
:100E5000BCF1000F03D041F2210C86EA0C063046AB
:100E60006D1C082DF1D3491C9142E9D31880F0BDC7
:100E70000121014A116070476800002001460A48BC
:100E8000C06800F0140008B10120704700E0491E5E
:100E90000548C06800F0010008B10029F7D109B980
:100EA0000120F2E70020F0E7002002402DE9F047A2
:100EB00090B004460D464FF00009D5F806000E909C
:100EC0009DF83B00820005F10A016846FFF75CF9D6
:100ED0000FA800F021F902210FA8D4F81C22904796
:100EE0009DF838000C287CD2DFE800F0FFA082FFDC
:100EF000B2FFFF06FFE3FFCE002007900098132803
:100F000060D2DFE800F05F0A0F141A20262B5F5F23
:100F10005F31375F42484E545900764808904FF091
:100F2000020950E0012008904FF002094BE0D4F88C
:100F3000200208904FF0020945E0D4F824020890FE
:100F40004FF002093FE0D4F8280208904FF0020960
:100F500039E0012008904FF0020934E04FF6FF70AD
:100F600008904FF002092EE04FF4807008904FF087
:100F7000020928E0002008904FF40040099000206A
:100F80000A900B904FF005091DE0D4F82C02089050
:100F90004FF0020917E0D4F8300208904FF0020930
:100FA00011E0D4F8340208904FF002090BE0002061
:100FB00008904FF0020906E0D4F8380208904FF08C
:100FC000020900E000BF00BF07AA494604F58B7084
:100FD00000F004F904F58B7000F02AFA82465146BD
:100FE00000E082E004F58B70D4F81C2290477DE08D
:100FF00004F51074009860610198A0612268D4E93A
:101000000501A4F5107490470222002104F58B70AD
:1010100000F0A6F804F58B7000F00AFA82465146FB
:1010200004F58B70D4F81C2290475FE00122002168
:1010300004F58B7000F094F804F58B7000F0F8F96B
:101040008246514604F58B70D4F81C2290474DE03F
:101050000098C4F854020198C4F85802D4F8540215
:10106000C4F85C020422002104F58B7000F078F8CB
:1010700004F58B7000F0DCF98246514604F58B7064
:10108000D4F81C22904731E00B22002104F58B702C
:1010900000F066F804F58B7000F0CAF982465146FC
:1010A00004F58B70D4F81C229047D4F8480280478E
:1010B0001CE00922002104F58B7000F051F804F5C2
:1010C0008B7000F0B5F98246514604F58B70D4F868
:1010D0001C229047009E019FDDF808804246394659
:1010E0003046D4F84C32984700E000BF00BF10B043
:1010F000BDE8F0870004014B054A51681046814263
:1011000002D30448814201D9002070470120FCE746
:1011100000800008008004085A210170A12141705C
:1011200070472DE9F04107460D461646A421384682
:1011300000F04BF904222946384600F025F9002436
:1011400006E006EB84010422384600F01DF9641C19
:10115000E878A042F5DC384600F04AF9BDE8F081B5
:10116000FEB506460C461546A0208DF8000000206E
:101170008DF8010002208DF8030000208DF8020098
:101180000194029501AA69463046FFF7CAFF002084
:10119000FEBD2DE9F84304460D4616461F46DDE91F
:1011A00008895A202070A7206070A770E67025710A
:1011B0005020607184F8068084F807900020009029
:1011C000082221466846FFF735FEBDF80000207270
:1011D000BDF80000010A6172BDE8F883F8B5054664
:1011E0000C461646A7208DF8000000208DF801005F
:1011F0008DF802008DF80340324669462846FFF715
:1012000090FF0020F8BD2DE9F84304460E464FF04C
:1012100001080020009025682068871D207B072892
:101220007CD2DFE800F0040A3A3E4B4F55005A2EBC
:1012300002D1012020732E7093E06E70A6F1A10000
:10124000072828D2DFE800F01C1D2704070A140035
:10125000022020731FE0022020731CE0A06810B160
:101260002846A16888474FF000080020207312E04C
:101270000020A8700021E9706060062020730AE059
:1012800000BF00202073A06810B12846A1688847DD
:101290000020BDE8F88300BF63E0AE700320207338
:1012A0005FE0EE70284600F0CAF8B0F5807F02D803
:1012B0000420207301E00020207352E02E710520ED
:1012C00020734EE06E71002060600620207348E0BD
:1012D0006168481C60607E546878A42802D06878F1
:1012E000A52829D1284600F0AAF86168884223D8A9
:1012F00000200090022229466846FFF79BFD02224B
:10130000A91C6846FFF796FD394668466268FFF7F4
:1013100091FD2979687901EB002000E01EE0BDF81D
:101320000010884206D1A06810B12846A1688847FD
:101330004FF00008002020736878A7280DD160685E
:1013400008280AD30820A8700021E970A06810B10D
:101350002846A16888470020207302E000202073FF
:1013600000BF00BF404694E710B50446002060600F
:101370002073206808B9012010BD4FF483712068E4
:10138000FEF71BFF0020F7E72DE9F04104460E466B
:101390001546204600F053F8B0F5807F02D90120B1
:1013A000BDE8F081204600F04AF8A11D47182A4602
:1013B00031463846FEF7E8FEA0782844A070E07871
:1013C00000EB1520E0700020EAE770B504460D46FA
:1013D0005A20207065700020A0700021E1702071FB
:1013E00061714FF48071A01DFEF7E7FE002070BD13
:1013F00038B5044600200090022221466846FFF7D7
:1014000019FD0222A11C6846FFF714FD204600F0DA
:1014100016F805462A46A11D6846FFF70BFDBDF8E4
:1014200000002071BDF80000010A6171002038BD84
:1014300001468A78C87802EB0020801D704701467B
:101440008A78C87802EB0020704700001FB5FFF7CC
:1014500007F85848006840F00200564908605649AD
:101460000020FFF78BFAFEF7C5FE08220E210120AF
:10147000FFF734F80323022206210120FFF726FAA2
:101480000023022207210120FFF720FA0122062172
:101490001046FFF711F9012207211046FFF70CF95A
:1014A0004648406840F00400444948604FF4E13148
:1014B0000120FFF75DFB42484249C1F81C02424847
:1014C000C1F848024148C1F84C024148C1F85002F5
:1014D0004048C1F840024048C1F83C023F48C1F8CA
:1014E00044023F48C1F820024FF48020C1F8240292
:1014F0000012C1F82802C004C1F82C020013C1F880
:1015000030024FF40140C1F834026846FFF73AF95F
:101510002C490098C1F83802084600F06BF8FEF735
:101520009FFFFFF769FC2F48FFF7E6FA0120FFF75E
:10153000CFFA3DE003A90120FFF706FB20B9012205
:1015400003A9204800F0F2F802A8FFF745FC00BB11
:1015500025480078E8B90023022207210120FFF77F
:10156000B5F901200299FFF777FB5A200390012279
:1015700003A9144800F0DAF8A6200390012203A979
:10158000104800F0D3F80F4800F068F80120164921
:10159000087016480078012807D10022114610482B
:1015A00000F040F8002011490870064800F056F895
:1015B000C0E700000020024000D8B805000001404C
:1015C000571700086C0000204D170008251600086A
:1015D000F115000895170008DB170008C51700086B
:1015E00000800008A08601001600002015000020E1
:1015F0007047000010B5044604F110002060054853
:10160000A0602046FFF7B0FE0020C4F86002024947
:10161000086010BD710E0008680000200146D1F876
:101620006002704770B504460D461646FFF764FD2C
:1016300080B100231A4607210120FEF717FE17206C
:1016400001218140044A430942F8231000BF20468B
:10165000FFF7C4F870BD000080E100E070B586B00F
:1016600004463148006800285CD0607CA138062818
:1016700053D2DFE800F0505152151B030120C4F88B
:10168000600200200090034602220121019003A87D
:10169000FFF77FFD0A2103A8D4F81C2290473DE004
:1016A00004F110012046FFF701FC37E0A17CE07C4B
:1016B00001EB00252A4604F11601D4F83C32D4F897
:1016C0005C02984704F50774206C2844206405A840
:1016D000FFF722FD022105A822689047D4E90E01F8
:1016E0000844216CA4F50774884213D80422002111
:1016F00004F58B70FFF734FD04F58B70FFF798FE4F
:101700000646314604F58B70D4F81C229047D4F875
:101710005002804702E001E000E000BF00BF00206F
:101720000149086006B070BD680000202DE9F04155
:1017300007460D461646002404E0295D3846FFF7AB
:1017400062FD641CB442F8D3BDE8F0816420FEF76A
:1017500055FDFFF76FF870B504460D4601220E21C6
:101760001046FEF739FF6420FEF76CFD04E014F824
:10177000011B0120FFF760FA281EA5F10105F6D133
:101780006420FEF75FFD00220E210120FEF724FFFA
:10179000002070BD70B504460E46254624F0784002
:1017A000B0F5004F01D2012070BD06E045F00060A9
:1017B000FEF736FEFEF750FE05443019A842F5D874
:1017C0000020F1E770B504460D4616463246214624
:1017D0002846FEF7D9FC002070BD70B504460D46C2
:1017E000164624F07840B0F5004F01D2012070BDBC
:1017F00044F0006032462946FEF74AFE0020F6E734
:1018000000080140000C014000100140001401409C
:10181000060708090A17171717172828282828283D
:101820000000000000380140004400400048004033
:101830000025262700000000000000000000000036
:10184000000004000000080000000C000000100070
:10185000000014000000180000001C000000200020
:10186000000024000000280000002C0000003000D0
:1018700000003400000038000000002000000420B8
:101880000000082000000C200000102000001420A0
:101890000000182000001C20000020200000242050
:1018A0000000282000002C20000030200000342000
:1018B0000000382000003C200000004000000440F0
:1018C0000000084000000C400000104000001440E0
:1018D0000000184000001C40000020400000244090
:1018E0000000284000002C40000030400000344040
:1018F0000000384000003C40000000601C19000857
:10190000000000206C000000F00C0008881900089E
:101910006C00002084050000000D000800B0710B71
:10192000000000000000000001020304060708098F
:101930000000000000000000C01200008025000030
:1019400000C2010000E803000008070000100E00BC
:101950000000000000000000000000000000000087
:101960000000000000000000000000000100000076
:101970000000000000000000000000000000000067
:0819800000000000000000005F
:04000005080001519D
:00000001FF
