:020000040800F2
:10800000602C00206581000811BA00086B8200080E
:10801000718100087381000875810008000000006C
:108020000000000000000000000000007781000850
:108030007981000800000000B781000875C40008BD
:108040007F8100087F8100087F8100087F81000810
:108050007F81000865BD00089D9F0008DD9F000826
:108060007F8100087F810008ED9F00087F81000864
:10807000C19B00087F810008D99B00080D9C000867
:108080006D9C0008CD9C00087F8100082DCC000865
:108090007F810008319700087F810008FD9F00085C
:1080A0007F8100087F8100087F8100087F810008B0
:1080B0007F8100087F8100087F8100087F810008A0
:1080C0007F8100087F8100087F8100087F81000890
:1080D0007F810008EDCA000879CB000805CC0008B4
:1080E000AD9F00087F8100087F8100087F81000824
:1080F0007F8100087F8100087F8100087F81000860
:108100007F8100087F8100087F8100087F8100084F
:108110007F8100087F8100087F8100087F8100083F
:108120007F8100087F8100087F8100087F8100082F
:108130007F8100087F8100087F8100087F8100081F
:108140007F8100087F8100087F8100087F8100080F
:10815000DFF80CD001F076F8004800479D8A01084E
:10816000602C00200648804706480047FEE7FEE7EF
:10817000FEE7FEE7FEE7FEE7FEE7FEE7FEE7FEE7D7
:10818000BDC4000851810008EFF3108072B670473B
:1081900080F310887047434A1368012B04D04FF0D6
:1081A00001031360404A1060404A116040484FF09C
:1081B000805101607047EFF3108272B63948016850
:1081C00051B34FF0000101603748016891B1EFF3FE
:1081D00009811EF0100F08BF21ED108B21E9F00F6F
:1081E0004FF000041EF0100F08BF012441F8044DA9
:1081F000006801602D490968096808C9B1E8F00FF5
:10820000002B18BFB1EC108B81F309884EF0100ED3
:10821000002B18BF2EF0100E82F310884EF0040EC3
:10822000704722490860EFF3148222F0040282F3BF
:1082300014881D494FF0000008601A494FF00100F2
:1082400008601C484FF47F01D0F8002041EA020189
:10825000016017484FF080510160174800680068BE
:1082600080F3088861B662B670471EF0040F0CBF39
:10827000EFF30880EFF3098020E9F00F40F804EDF8
:1082800040F804ED1EF0040F0CBF80F3088880F363
:10829000098800B514F080F85DF804EB4EF0040E88
:1082A000704700005C0200205402002058020020A9
:1082B00004ED00E020ED00E008ED00E040EA0103FD
:1082C0009B0703D009E008C9121F08C0042AFAD28C
:1082D00003E011F8013B00F8013B521EF9D2704750
:1082E000D2B201E000F8012B491EFBD270470022F8
:1082F000F6E710B513460A4604461946FFF7F0FFA5
:10830000204610BDCAB2401E10F8011F8A4202D09A
:108310000029F9D100207047421C10F8011B0029E8
:10832000FBD1801A704710B5002200E0521C835C1C
:108330008C5CA34201D1002BF8D1D8B2E1B2401A33
:1083400010BD30B504460020034600E05B1C93429C
:1083500003D2E05CCD5C401BF8D030BD034611F881
:10836000012B00F8012B002AF9D11846704730B5CF
:1083700005460020034600E05B1C934205D2EC5CFE
:10838000C85C201A01D1002CF6D130BD30B50346AF
:108390001D783DB10A4612F8014B1CB1AC42FAD12E
:1083A0005B1CF5E7181A30BD30B50546002008E023
:1083B0000A4602E0A34207D0521C1378002BF9D1E1
:1083C000401C2C5C002CF3D130BD00000FB400B574
:1083D0008DB010A909900B9000914FF0FF300A90DA
:1083E00000200C9005480690054807906A4609A8A9
:1083F0000F9900F071FD0DB05DF814FBF58E0008CB
:10840000138F00082DE9FF5F1D464FF0FF3BD5E9B4
:10841000014691465F464FF00008A9697F1C01980C
:108420008847296A824688470028F6D1BAF1FF3F7B
:108430000CD024F4C064002E19DD600614D5BAF106
:108440002B0F09D0BAF12D0F0ED103E0584604B01E
:10845000BDE8F09F44F48064A9697F1C01988847B7
:10846000761E8246002E02DDBAF1300F03D0B9F13C
:10847000000F26D032E0A969761E44F400747F1CF8
:10848000019888478246002E05DDBAF1780F06D0A4
:10849000BAF1580F03D0B9F1000F10D01EE0B9F1B6
:1084A000000F02D0B9F1100F18D1A969761E24F47B
:1084B00000747F1C019888478246102002E0082043
:1084C00000E00A20814609E008FB0908A969761E38
:1084D00044F400747F1C019888478246002E05DD15
:1084E0004946504600F0E3FC0028EDDAE9690198BE
:1084F0008847A00502D46FF00100A8E7E00725D166
:10850000600613D5600502D5C8F1000000E04046C2
:1085100029680A1D2A600968220501D5087015E03E
:10852000220701D5088011E008600FE02868011DCE
:1085300029600068210502D580F8008006E0210747
:1085400002D5A0F8008001E0C0F8008038467EE740
:108550002DE9FF5FD2E901A74FF000089169994624
:108560001446DDF838B0464601988847054659EA72
:108570000B0005D009E0A169761C019888470546E3
:10858000216A284688470028F5D1681C03D05FEA95
:10859000CA7005D015E04FF0FF3004B0BDE8F09F81
:1085A0002068011D2160D0F800800AE05FEACA70EF
:1085B00001D108F8015BA169761C7F1E01988847EC
:1085C0000546002F1ADD681C18D0B9F1000F0DD038
:1085D000E81705EBD060421120F01F0059F8221077
:1085E0002A1A012090400142E0D107E0BBF1000FC0
:1085F000DCD1216A284688470028D7D0E169019854
:108600008847BBF1000F07D1002E05DD5FEACA7075
:1086100002D1002188F80010A068B84203DDBBF148
:10862000000F03D017B16FF00100B6E73046B4E792
:108630002DE9FF4F087883B09946FF2805D0491CE3
:108640002D2804D00024002008E000200BE00124A5
:10865000F9E700EB800003EB4000491C0B78FF2B8F
:10866000F7D104B1404200230293147819461D4605
:108670002D2C01D02B2C04D1521C2D2C13D00024D6
:108680000294AA461478FF2C0FD00A25A3FB057884
:1086900001FB05814FF0000C03FB0C11521CE31988
:1086A0004AEB0101EEE70124EAE7814453EA0100C5
:1086B00002D019F5C87F06DA03980021C0E900113D
:1086C00007B0BDE8F08F0025AE4E2F46DFF8B88228
:1086D000184600F07AFDCDE90001B9F1000002DA98
:1086E000C9F1000400E004460023A74A1AEB030B7B
:1086F00042EB045A12E0E00707D02A4633463846D8
:10870000414600F025FA074688462A463346104679
:10871000194600F01DFA05460E466410002CEAD1F9
:10872000DDE90001B9F1000F5A46534606DA00F0C0
:1087300081FA3A46434600F07DFA05E000F008FA77
:108740003A46434600F004FA029A0AB181F0004129
:10875000039AC2E90001B3E72DE9FF4F1F468DB030
:10876000D7E901464FF0FF382E2045464FF000096B
:108770000B90B9696D1C0E988847396A8246884704
:108780000028F6D1BAF1FF3F0AD024F4D064002EBD
:1087900011DDBAF12B0F08D0BAF12D0F0BD102E089
:1087A000404611B08DE744F48064B9696D1C0E98A1
:1087B00088478246761E6946600501D52D2000E077
:1087C0002B208DF8000001F1010B0DF1200809E0CC
:1087D000B9696D1C0E98884782460F9844F400745E
:1087E000761E0560002E02DDBAF1300FF0D00B9935
:1087F0008A453ED144F0800406E00F99681CA9F137
:10880000010944F400740860B9696D1C761E0E9865
:10881000884782463028F0D02BE00B998A4505D155
:10882000200603D444F08004761E18E0504606F07B
:10883000C7FD08B30DF11301761E44F400748B4597
:1088400008D2AAF130000BF8010B200607D5A9F1D8
:10885000010003E0200602D409F101008146A005D1
:1088600002D50F99681C0860B9696D1C0E9888477D
:108870008246002ED1DC53E0002E51DDBAF1650FA7
:1088800002D0BAF1450F4BD1A00549D5B9696D1C8D
:1088900024F44074761E0E9888478246002E0CDD24
:1088A0002B2804D0BAF12D0F07D144F48074B96994
:1088B0006D1C0E9888478246761EE00501D52D2155
:1088C00000E02B2108F8011BCDF82C8021E00DF1F0
:1088D0002901761E44F4007488450CD2AAF13000B8
:1088E00010F0FF0088F8000002D10B99884509D9E3
:1088F00008F1010806E0E00501D5244801E042F254
:108900000F708146B9696D1C0E98884782460F9892
:108910000560002E04DD504606F052FD0028D6D139
:10892000F9690E988847FF208BF8000088F800004E
:108930000020069007904B466A4608A906A8FFF754
:1089400077FEA00502D46FF001002AE714F0240F8F
:108950000AD0E00714D1DDE906123868031D3B6038
:108960000068C0E900120BE0DDE9060100F00EFA34
:108970000146E00704D13868021D3A6000680160D2
:1089800028460EE7000014400000F03FF1D8FFFF3A
:108990002DE9F05F93460F4680460446002604F01A
:1089A000B3F9D0F80090824614F8015B2DB100F0C5
:1089B00071FA0068405DC007F6D12B2D02D02D2D35
:1089C0001AD0641E0021CAF800105A4639462046C3
:1089D00000F0B0FA014627B13868A04201D1C7F8CB
:1089E0000080DAF80000022809D0CAF8009070056B
:1089F00005D54842BDE8F09F46F48066E2E70846A8
:108A0000F8E72DE9FE4F804681EA0300C00F0C46CF
:108A1000009021F0004123F00045B8EB0200A9418D
:108A200005D24046214690461C460B46024623F09E
:108A30000040104347D0270DC7F30A00C3F30A5183
:108A40000290401A019040286BDAC3F3130040F4FF
:108A5000801B0098924620B10023D2EB030A63EBFF
:108A60000B0B01985946C0F14002504600F0F1F955
:108A700006460D4650465946019A00F0F9F910EBAA
:108A800008006141002487EA115284EAE7731A431F
:108A900040D0009A62B3019A012A4FEA075215DCCE
:108AA000001B61EB02014FF0004202EA0752CDE9E0
:108AB0000042001C41F5801132462B4600F0CFFAEF
:108AC00003B0BDE8F08F40462146F9E7001B61EB9B
:108AD0000201001C41F5801300185B412018A2F52B
:108AE000001747EB030140EAD570B6196D4111E05C
:108AF0006D084FEA360645EAC0754FEA0752001B7B
:108B000061EB0201001C41F5801149084FEA300079
:108B10000019514132462B4603B0BDE8F04F00F03A
:108B20008FBA0098012240000023D0EB020263EBD1
:108B3000E073009821464FEAE074B8EB000061EB67
:108B40000401E9E783F000435BE781F0004158E767
:108B50002DE9FE4F81EA030404F0004421F00041B6
:108B600000944FF0000B23F0004350EA01045ED064
:108B700052EA03045BD0C3F30A54C1F30A552C44F0
:108B8000A4F2F3340194A0FB0254C1F3130141F4A5
:108B90008011C3F3130343F4801301FB024400FB71
:108BA000034E840A970A44EA815447EA8357A4FB98
:108BB000076802958D0A05FB07854FEA932C04FB95
:108BC0000C542705029D4FEA065847EA1637B5EBC5
:108BD00008056EEB070C870E920E47EA811742EAF2
:108BE0008312A7FB0201B6EB0B0164EB00042B0D13
:108BF00043EA0C335E1844EB1C50DA465146E7FB5F
:108C00000201C5F313044FEA0B3343EA14534FEA4E
:108C10000432019C43EA0603A4F10C040294009C74
:108C2000CDE900B400F01BFA03B0BDE8F08F0020DE
:108C30000146F9E72DE9F04D81EA030404F0004B09
:108C400021F0004514464FF0000A23F0004150EA9D
:108C5000050220D054EA01021DD0C5F30A5702468E
:108C6000C5F31303C1F31300C1F30A5640F4801592
:108C700043F48013A7EB0608101BD64608F2FD3814
:108C800073EB050002D308F1010801E092185B4183
:108C9000B8F1000F03DA00200146BDE8F08D002096
:108CA0004FF48011064684460EE0171B73EB050750
:108CB00005D3121B63EB050306434CEA010C49087C
:108CC0004FEA300092185B4150EA0107EDD152EAB9
:108CD000030012D082EA040083EA0501084305D0AC
:108CE000101BAB4106D20122002306E000224FF008
:108CF000004302E06FF0010253101AEB06004CEB48
:108D0000085110EB0A0041EB0B01BDE8F04D00F0FB
:108D100097B90EB5C10F80EAE0700844CA07002178
:108D200040F233438DE80E000A460B4600F097F9F7
:108D300003B000BD00F0004230F000400AD0C10D89
:108D400001F56071C0F3160042EA0151C208400704
:108D500011437047002001467047000030B5041EE3
:108D600071F1000404DB4FF00044404264EB010168
:108D7000141E73F1000405DB1C464FF00043524201
:108D800063EB04038B4208BF824230BD01F0004315
:108D900030B421F0004150EA010206D00A0DA2F5DC
:108DA0006072C1F31301002A02DC30BC002070475E
:108DB000440F44EAC104C100E01830BC00EBC250CB
:108DC00000F007B930B50B460146002020220124EF
:108DD00009E021FA02F59D4205D303FA02F5491B89
:108DE00004FA02F52844151EA2F10102F1DC30BD9F
:108DF0002DE9F05F0546002092469B4688460646D0
:108E0000814640241BE0284641464746224600F062
:108E10002BFA53465A46C01A914110D311461846B0
:108E2000224600F016F82D1A67EB01084F4622463D
:108E30000120002100F00DF817EB00094E41201E23
:108E4000A4F10104DFDC484631462A464346BDE82A
:108E5000F09F202A04DB203A00FA02F1002070473C
:108E60009140C2F1200320FA03F319439040704768
:108E7000202A06DBCB17203A41FA02F043EAE073DE
:108E800006E041FA02F3D040C2F1200291400843CB
:108E900019467047004870477411020810B504461F
:108EA000FFF7F8FF0068005D00F0010010BD3A28F0
:108EB00000D2303820F02002412A01D3A2F137003D
:108EC000884201D34FF0FF30704700000268114420
:108ED0001378016018467047D16004495161044914
:108EE000116200211161114600F0CEB9CD8E00084B
:108EF0009D8E0008426842B1016811F8013B23B120
:108F0000521EC0E90012184670470121C160881E38
:108F1000704742685AB1C368016843B983688B429D
:108F200005D0491E521CC0E90012002070474FF0C6
:108F3000FF3070472DE9F05F824600780027154624
:108F40008B460AF10104B946302801D09DB113E0E7
:108F500014F8010B0127782803D0582801D045B117
:108F60000AE00DB1102D07D10027102514F8010BD0
:108F700002E0082500E00A250026B0460EE005FBC9
:108F8000080005FB06F1012701EB10461FFA80F8E7
:108F9000B6F5803F00D3B94614F8010B2946FFF718
:108FA00086FF0028EBDABBF1000F05D00FB1641E7D
:108FB00000E05446CBF80040B9F1000F06D003F0B2
:108FC000A3FE02210160C81EBDE8F09F48EA0640EA
:108FD000FAE70029A8BF7047401C490008BF20F0ED
:108FE0000100704710B4B0FA80FC00FA0CF050EAAF
:108FF000010404BF10BC704749B1CCF1200421FA30
:1090000004F411FA0CF118BF012121430843A3EB2A
:109010000C01CB1D4FEA00614FEA102042BF002037
:1090200010BC704700EBC35010440029A4BF10BC13
:109030007047401C490008BF20F0010010BC704779
:1090400010B5141E73F1000408DA401C41F1000150
:1090500092185B411A4301D120F0010010BD2DE9A7
:10906000F04D92469B4611B1B1FA81F202E0B0FA9E
:1090700080F220329046FFF7ECFE04460F4640EAAD
:109080000A0041EA0B0153465A46084313D01146E1
:1090900053EA010019D0C8F14002504600F0E4F84C
:1090A00005460E46504659464246FFF7D2FE084353
:1090B00005D0012004E020463946BDE8F08D0020AF
:1090C000054346EAE0762C4337430A986305E40AF1
:1090D000A0EB08000022FD0A44EA47540A3002D5FA
:1090E00000200146E9E7010510196941DDE908455D
:1090F00000196941BDE8F04DA2E770B521F00043C9
:1091000003430CD0C1F30A550024D5EB040564EBEE
:109110000403D617AD1AB34102DB0020014670BD2F
:10912000201841EB025170BD2DE9F04D00231A4685
:109130001B1A8A4103DB00200146BDE8F08DC1F314
:109140000A52C1F3130141F480154FF0000BD1070F
:1091500002D100186D41521E0027044640F2FF1153
:10916000384601EB620A3E468046024600204FF434
:10917000801100F079F8C2197141BB1846EB01006B
:10918000B4EB030C75EB000C04D3E41A65EB00059B
:1091900017460E46241908F101006D418046342817
:1091A000E3DDF91946EB0600091BA84103D24FF095
:1091B000FF32134601E0002213461BEB070046EB8B
:1091C0000A51BDE8F04DFFF73BBF0EB540F2334208
:1091D00002920022CDE900221346FFF740FF03B0C0
:1091E00000BDC1F30A52C1F3130140F2FF3341F451
:1091F00080119A4202DA00200146704740F2334360
:109200009A42A2F2334202DC524200F02DB8FFF73C
:1092100020BE000030B5041E71F1000404DB4FF0E5
:109220000044404264EB0101141E73F1000405DBAD
:109230001C464FF00043524263EB0403994208BFBF
:10924000904230BD064C074D06E0E06840F0010357
:1092500094E8070098471034AC42F6D3FEF77CFF41
:109260003013020850130208202A04DB203A21FAA6
:1092700002F00021704721FA02F3D040C2F120022F
:1092800091400843194670472DE9F34F8BB04FF0DA
:10929000000801F10C000C464FF0010B46460DF1A1
:1092A000080A01906269012101989047051E2DD09E
:1092B000252D2CD0216A8847C0B16269012101980F
:1092C0009047216A88470028F7D1411E62690198BA
:1092D000904700E0761CA1690B988847216A88476F
:1092E0000028F7D1E1690B988847DBE7A1690B9863
:1092F00088470746A84201D1761CD3E7E1690B985D
:1093000088477F1C02D1B8F1000F6FD046E10027DB
:1093100062693D463946019890472A2804D162691E
:109320000121019890470125DFF8849262690121AB
:1093300001989047A0F130010A290AD24F45E5DC97
:1093400007EB870100EB4107303FDFD445F0100504
:10935000ECE7E90601D46FF000476C280AD04C28EE
:1093600014D0682815D06A280DD074281CD07A280B
:109370001AD01DE062690121019890476C2802D043
:1093800045F0040514E045F002050DE045F0200528
:109390000AE06269012101989047682802D045F0EF
:1093A000080505E045F400656269012101989047D0
:1093B000C4E9015765283DD019DC58287AD00CDC67
:1093C000452837D004DC252826D0412831D131E08A
:1093D00046282FD047282CD12CE05B2877D0612855
:1093E00028D063287CD0642823D15AE0D0E06F28AD
:1093F00048D008DC66281DD067281BD0692821D0FA
:109400006E2816D127E0702845D0732868D07528BB
:1094100047D078280DD14DE0A1690B9888470546C3
:1094200025283FF469AFE1690B9888476D1C3FF42C
:109430006AAFB3E023466A466FF001000B99FFF76D
:109440008BF99EE045F040006060A80723464FF08E
:10945000000236D43EE0E8077FF447AF2068011DE4
:1094600021600068290501D506701BE7290701D591
:10947000068017E7A90703D5F117C0E9006111E7D6
:1094800006600FE745F040006060A80723464FF0F4
:10949000080216D41EE040F60E0125EA01006060C5
:1094A00016E045F040006060A80723464FF00A022E
:1094B00007D40FE045F040006060A80708D52346B8
:1094C00010226FF001000B99AFF3008059E007E024
:1094D000234610226FF001000B99FEF793FF50E036
:1094E0004FF000094F464B46632802D05B2806D058
:1094F00040E0E80601D40120A06001273AE062695B
:109500000121019890475E2805D14FF00109626959
:10951000494601989047216939B900210A465346C6
:1095200043F82120491C0829FADBB0B3216969B945
:10953000C11700EBD16253110AEB830122F01F0225
:10954000821A01200B68904003430B60626901217D
:10955000019890475D28E8D1B9F1000F09D00020AB
:10956000514651F82020D24341F82020401C0828C1
:10957000F7DB02AB224600976FF001000B99FEF774
:10958000E7FF00280CDA401C08D1BBF1000F05D022
:109590004FF0FF300DB0BDE8F08FFFE74046F9E730
:1095A000E90701D108F1010806444FF0000B79E604
:1095B000CCCCCC0C70B58C1810F8015B15F00703FF
:1095C00001D110F8013B2A1106D110F8012B03E05C
:1095D00010F8016B01F8016B5B1EF9D12B0705D464
:1095E0000023521E0DD401F8013BFAE710F8013BAD
:1095F000CB1A921C03E013F8015B01F8015B521EC9
:10960000F9D5A142D8D3002070BD000010B586B0B6
:10961000086804AB6A4618A1FEF7D8FE022829D1D3
:1096200017A16846FEF77FFE164C68B90499072912
:109630000AD815A016F0EAFD049884F896020122D3
:1096400004F2962115A010E016A16846FEF76BFE05
:1096500080B9049907290DD813A016F0D7FD0498F6
:1096600084F897020122164916A016F0D6FF0020B2
:1096700006B010BD0120FBE73D2532732C256400A8
:10968000425700004014002061636320627720731A
:10969000657420746F3A2025640D0A006163635F6E
:1096A00062770000524700006163632072616E6759
:1096B000652073657420746F3A2025640D0A0000DC
:1096C000D71600206163635F7267000010B50868F9
:1096D00000221146401CFFF75BF904460D49A0F536
:1096E0001660884213D821460BA016F08FFD0D4856
:1096F000D0F83C13A14208D000F54671C0F83C43B5
:109700004FF4F07208A016F088FF002010BD012071
:1097100010BD0000A0060E00424155443D25640DD9
:109720000A0000004014002072656773000000000A
:109730001FB513F029FA12480168C90601D5102196
:1097400001600168090701D50821016000688007F0
:1097500012D00C4803A9C41ECDE900010121231D2C
:1097600002AA084600F036F80298208006480C222B
:109770002146006813F09EFD13F01EFA1FBD000085
:10978000106400408B280020F003002030B4012832
:109790000CD10E4A136943F000731361136923F06F
:1097A00000731361D36943F00073D361084B53F81E
:1097B0002020146824F00204146053F82020136859
:1097C00043F04003136030BC00F0B6B80010024014
:1097D000FC080208F0B52F4E4FF4D87505EB0115C3
:1097E00056F82040DDE905C754F805E064591EF03D
:1097F000040F48D0E408146056F8202052594FF462
:10980000DA7402F002023A7056F8202004EB0114D8
:10981000125902F00F028CF8002056F820404FF445
:10982000DC7202EB0112A4581C7056F82040A458B8
:10983000240A5C7056F82040A458240C9C7056F8FA
:109840002040A258120EDA7056F820404FF4DE7213
:1098500002EB0112A4581C7156F82040A458240AA7
:109860005C7156F82040A458240C9C7156F8204096
:10987000A258120EDA7156F8200031B1016941F098
:1098800020010161F0BD640DB5E7C16841F0200120
:10989000C160F0BDFC080208F0B5264E00273C462A
:1098A00056F82050D5F808C05FEA4C1C08D4AC68C4
:1098B000240101D5012403E0AC68E40038D502247A
:1098C0004FF4C07C0CEB041C55F80CE00EF0010EBC
:1098D00045F80CE056F82050490545F80C1056F8AC
:1098E00020104FF4C27505EB04154B511178D2F8D6
:1098F00001304FF4C47541EA032156F8203005EBDE
:10990000041559511179D2F805204FF4C67341EA74
:10991000022156F8202003EB0413D15056F8200002
:1099200050F80C1041F0010140F80C103846F0BD21
:109930000820F0BDFC0802082DE9F05F83460C46C4
:10994000012001F063FCDFF878C00127002307F154
:10995000010800229918C91C01FB08F1B0FBF1F6BF
:10996000A64201D3311B00E0A11B8C4503DD8C46D0
:10997000994692463D46521C082AEBDB5B1C102B95
:10998000E7DB7F1CFF2FE1DD584609F0C1F80D49E8
:1099900051F82B00C2690C4B1A40C26151F82B00E0
:1099A000C26942EA094145EA0A52114341F0007195
:1099B000C161584609F078FB0120BDE8F09F000026
:1099C00080969800FC08020800FC80FFF0B52A4D44
:1099D0000124059F55F820608C40D6F800C24CF059
:1099E000010CC6F800C255F82060D6F81CC22CEA5B
:1099F000040CC6F81CC255F82060D6F80CC24CEA1C
:109A0000040CC6F80CC255F820604FF4107C0CEB27
:109A1000C10C520546F80C205A0555F820304FF479
:109A2000117606EBC1015A5055F82010D1F80422E6
:109A3000A243C1F8042217B1012F06D00CE055F85B
:109A40002010D1F81422A24304E055F82010D1F8D8
:109A500014222243C1F8142255F82010D1F81C22F8
:109A60002243C1F81C2255F82000D0F8001221F042
:109A70000101C0F80012F0BDFC08020870B5184DD5
:109A80001646044669B1012919D0022916D11320BE
:109A900001F0D4FF55F824004169EEB141F0010115
:109AA0000BE0142001F0CAFF55F82400416916B1FB
:109AB00041F0020101E021F00201416170BD152079
:109AC00001F0BCFF55F82400416916B141F01001C6
:109AD000F3E721F01001F0E721F00101EDE70000CC
:109AE000FC08020830B40A46D0F89C11D0F8A04116
:109AF0004FF0FF3351F8221024F81230C1F3074120
:109B00000122431883F8B021D0F8AC2130BC1047B3
:109B10002DE9F04F9946DDE9094C4FF0FF3BDDF8A8
:109B20002CA048E0ACEB02035BB20D78002B02DD09
:109B300005FA03F503E0C3F1000325FA03F5EEB2DD
:109B400002DDCCF1080301E0C2F10803DBB283427D
:109B500000D903460CEB03074FF0FF0808FA07F59E
:109B6000CCF1080C28FA0CF845EA080594F800C076
:109B7000AE430CEA050C1A444CEA060CD2B284F847
:109B800000C0072A07D90022B9F1000F01D05D46B5
:109B900000E00125294407F0FF0CBCF1070F08D9AC
:109BA0004FF0000CBAF1000F01D05D4600E0012536
:109BB0002C44C01AC0B20028B4D1BDE8F08F000018
:109BC00010B512F0E1FF0349F0204860BDE81040F5
:109BD00012F0F2BF0000024010B512F0D5FF0849A4
:109BE0004FF4704048600748018841F0400101800F
:109BF0000421054812F034FDBDE8104012F0DCBF2E
:109C0000000002400C3801405C1F002070B512F0CB
:109C1000BBFF14494FF47020486012F0CDFF124C86
:109C2000D4E90801451A0020606202460120E16A79
:109C300000F066F8D4E90B12012000F0D3F80120FF
:109C4000226AE16A00F0C0F801221046E16A00F0E1
:109C500057F8032000EB052104F1C400BDE8704073
:109C600012F0FEBC00000240981E002070B512F0F9
:109C70008BFF14494FF47000486012F09DFF124CA6
:109C8000D4E90F01451A0020206402460120A16C8E
:109C900000F036F8D4E91212012000F0A3F80120F8
:109CA000E26BA16C00F090F801221046A16C00F06C
:109CB00027F8032000EB052104F58C70BDE8704007
:109CC00012F0CEBC00000240981E002010B512F029
:109CD0005BFF08494FF0706048600748018841F019
:109CE000400101800421054812F0BAFCBDE8104093
:109CF00012F062BF000002400C440040B01F002080
:109D0000012809D002280DD1074850F82100016828
:109D10002AB141F0010104E003484038F5E721F0A1
:109D2000010101607047000054090208024600204A
:109D3000012A06D0022A03D1034850F821004068C6
:109D4000704701484038F8E7540902080A494FF0C3
:109D5000FF32012808D0022805D1486940F00200EE
:109D60004861064802607047486940F00100486158
:109D700003484260704700000010024004040240A3
:109D80000000024070B515460C4601280ED002288E
:109D900017D10C48005701F05CFE0A48503050F8CB
:109DA0002400016855B141F0020109E00548801D19
:109DB000005701F04EFE03481030F0E721F0020199
:109DC000016070BD04090208012806D0022803D1F1
:109DD000034850F821004260704701484038F8E7D6
:109DE00054090208012806D0022803D1034850F87C
:109DF0002100C260704701484038F8E75409020862
:109E000001280BD0022808D1064850F8210001682B
:109E100021F0800141EAC2110160704701484038D9
:109E2000F3E700005409020810B50B460446097810
:109E30000022FFF765FF43F6D071012C28D0022CD9
:109E400025D11C7815489A6850F82440A2601C78E7
:109E50001A6950F82440E2601C785A8850F824406F
:109E600062601A7850F8220002688A4399880C02CE
:109E700044EA81211C7B41EAC4119C795B7841EA68
:109E8000841141EA0311114341F48051016010BD76
:109E900002481C7840389A68D6E700005409020846
:109EA0000548016841F0807101600448016841F093
:109EB0000101016070470000FCED00E0001000E0CF
:109EC000411C0CD0074AB2F90010884201D1491E4A
:109ED0001180054A00EB4000002102F830104FF0DD
:109EE000FF307047E8030020C827002002F0CCBAFA
:109EF00010B5086800221146401CFEF749FD0749CD
:109F00000028D1F8380305D040F00100C1F838032B
:109F1000002010BD20F00100F8E7000040140020F0
:109F200030B51C484456012004F01F0500FA05F521
:109F30006409A40004F1E024C4F80051164C25681B
:109F4000884005432560144914390C680BB104435B
:109F500000E084430C6010490C394AB10C1D012A01
:109F60000DD0022A0AD10A688BB102430A6007E0C9
:109F70000A680BB1024300E082430A6030BD13B1AE
:109F80002168014301E021688143216030BD8243A3
:109F90000A60F8E77C090208140401400248002125
:109FA00000780FF0DDB90000881E00202DE9F04197
:109FB0000A24084E084F0125306805FA04F10842CA
:109FC00003D0385D21460FF0CBF9641C102CF3DB75
:109FD000BDE8F08114040140881E002002480121E0
:109FE00040780FF0BDB90000881E0020024804210F
:109FF00000790FF0B5B90000881E00202DE9F0416E
:10A000000524084E084F0125306805FA04F108427E
:10A0100003D0385D21460FF0A3F9641C0A2CF3DB52
:10A02000BDE8F08114040140881E002008B50E48E8
:10A0300000220092016841F4803101604FF4004336
:10A0400006E00099491C0091994201D9012008BD00
:10A0500001688903F5D5009200BF0098401C00906C
:10A06000FF28F9D9002008BD0010024010B506A055
:10A0700014F0FEF908B114F0AFF905A106A007F03D
:10A080000FFE002010BD00006D61696E0000000031
:10A090006F63666C617368006C6673002DE9F04F46
:10A0A0002DED048B0F460024086891B02546FEA1D3
:10A0B00014F038F8FE4E4FF4F07A06F546789FED2E
:10A0C000FD9A002868D006A805A9CDE9001004ABC8
:10A0D0000FAAF9A13868FEF779F904286DD0032199
:10A0E00006200EF05FFD0A90042106200EF05AFDB6
:10A0F0000990032104200EF055FD0890042103204F
:10A100000EF050FD4FF4AF770790032138460EF064
:10A1100049FD0B90B7EE000A022200210A980EF0CA
:10A1200092FCBFEE000A022201210A980EF08BFC7D
:10A13000B7EE000A012202210A980EF084FCBFEE5D
:10A14000000A012203210A980EF07DFCB7EE000AF6
:10A15000002204210A980EF076FCBFEE000A0022CD
:10A1600005210A980EF06FFCD7A016F04FF8B946FB
:10A17000DE4F06F5027BB7EE008AFFEE008A5A46F4
:10A1800029460B9815F0C1F86D1C95FBF9F109FBF8
:10A190001155002D35D04DE1D6F86C0206F51B7631
:10A1A00008F09AFFD2A0316807F068FFB0EE490AC4
:10A1B0000321706816F0DFF91DE00F9903290ADA10
:10A1C00004AAD6F86C0215F0A0F8C9A0D6F86C1253
:10A1D00007F054FF0FE00ED14FF0030204A9D6F8A8
:10A1E000700216F0DDF8C4A016F010F8032204A9DE
:10A1F000C5A007F091FF52464146C6A016F00DFAE1
:10A20000EFE10CA90B980EF028FC69460B980EF0B4
:10A21000E8FB8DED038AF0EE490A9FEDC00A0321A9
:10A220000CA816F021F90028B5D19DED000AB0EE7A
:10A23000C01A11EE100AB84222DA9DED010AB0EE02
:10A24000C01A11EE100AB8421ADA9DED020A30EE79
:10A25000480AB0EEC01A11EE100AB84210DAE00750
:10A260000ED144F00104AEA015F0D0FF6A460021E3
:10A27000099815F04AF8042269469DA007F04CFFA2
:10A280009DED000AB0EEC01A11EE100AB84222DAB3
:10A290009DED010AB0EEC01A11EE100AB8421ADAAA
:10A2A0009DED020A30EE680AB0EEC01A11EE100AF7
:10A2B000B84210DAA0070ED444F002049CA015F0B6
:10A2C000A5FF6A460121099815F01FF80422694686
:10A2D00087A007F021FF9DED000AB0EEC01A11EE35
:10A2E000100AB84222DA9DED020AB0EEC01A11EE51
:10A2F000100AB8421ADA9DED010A30EE480AB0EEB3
:10A30000C01A11EE100AB84210DA60070ED444F0F9
:10A3100004048BA015F07AFF6A460221099814F014
:10A32000F4FF0422694672A007F0F6FE9DED000AD4
:10A33000B0EEC01A11EE100AB84222DA9DED020A00
:10A34000B0EEC01A11EE100AB8421ADA9DED010AF9
:10A3500030EE680AB0EEC01A11EE100AB84210DAF8
:10A3600020070ED444F0080479A015F04FFF6A4688
:10A370000321099814F0C9FF042269465CA007F084
:10A38000CBFE9DED010AB0EEC00A10EE100AB842F5
:10A3900022DA9DED020AB0EEC00A10EE100AB842B1
:10A3A0001ADA9DED000A30EE480AB0EEC00A10EE4F
:10A3B000100AB84210DAE0060ED444F0100468A087
:10A3C00015F024FF6A460421099814F09EFF042228
:10A3D000694647A007F0A0FE9DED010AB0EEC00A55
:10A3E00010EE100AB84222DA9DED020AB0EEC00A61
:10A3F00010EE100AB8421ADA9DED000A30EE680A33
:10A40000B0EEC00A10EE100AB84210DAA0060ED460
:10A4100044F0200456A015F0F9FE6A46052109987B
:10A4200014F073FF0422694631A007F075FEE04383
:10A43000800603D0052014F0D9F8A0E64FA015F04F
:10A44000E5FEDDE90910089A0EF067F9DDE907106D
:10A4500015F018FE6A460021079809F03AF9D6F877
:10A460006C026A46002106F51B7614F039FF6A4635
:10A470000121079809F02DF96A460121306814F08E
:10A480002FFF6A460221079809F023F96A46022144
:10A49000306814F025FF03217268079809F019F954
:10A4A0000321706878E000003D5245534554000098
:10A4B00040140020000000003D25642C25662C255A
:10A4C000662C256600000000666163746F72792057
:10A4D00063616C6962726174696F6E20666F72206D
:10A4E0006163632E2E2E0D0A00000000CDCC4C3E81
:10A4F0006D61746C616200006269617320736574E0
:10A5000020746F3A0D0A00006E6F686561646572B1
:10A510000000000072656773000000000AD7233C4A
:10A520005A2B20706F7374696F6E0D0A0000000063
:10A530005A2D20706F7374696F6E0D0A0000000051
:10A54000592B20706F7374696F6E0D0A0000000044
:10A55000592D20706F7374696F6E0D0A0000000032
:10A56000582B20706F7374696F6E0D0A0000000025
:10A57000582D20706F730D0A00000000616C6C2074
:10A58000706F73206461746120636F6C6C656374B9
:10A5900065640D0A0000000015F07DFF14A015F0A1
:10A5A00035FEAFF29C00316807F068FD0322AFF280
:10A5B000A800716807F0B0FD52464146AFF2AC000A
:10A5C00016F02BF8099811F043FE0B9811F040FE9D
:10A5D0000A9811F03DFE089811F03AFE079811F024
:10A5E00037FE11B00020BDEC048BBDE8F08F0000F9
:10A5F0006163632063616C6272696174696F6E206C
:10A600006D61743A0D0A0000FEB51EA015F0FEFD46
:10A610009FED200A0321684615F0ADFF0A2013F0D4
:10A62000E5FF1D4E00244FF448750322314668466D
:10A6300015F085FE0A2013F0D9FF641CAC42F4DB50
:10A64000164CF0EE080A9FED160AD4F87012684610
:10A6500004F51C7415F06AFF0321206815F03CFF17
:10A660002068F7EE000A4FF4F07290ED020A0D49EF
:10A6700030EE600A80ED020A0BA015F0CEFF00203C
:10A68000FEBD0000626567696E20464341320D0AD7
:10A6900000000000000000004816002040140020C8
:10A6A0000AD7A33A581700207265677300000000AC
:10A6B00070B50C460546FFF7F1FC4FF4FA5013F065
:10A6C00095FF2146284600F003F8002070BD0000E9
:10A6D0002DE9F04F2DED0A8B002688468BB03446CD
:10A6E00037460868D9A1FDF71EFEDA4D05F5467B11
:10A6F0009FEDD9CAD0B107A806A9CDE9001005ABD6
:10A7000008AAD6A1D8F80000FDF760FE04281ED0E4
:10A7100009AAD6A1D8F80000FDF758FE01283BD0C1
:10A7200001200BB0BDEC0A8BBDE8F08FD5F87402A8
:10A7300005F51D7508F0D0FCCDA0296807F09EFC3A
:10A74000B0EE4C0A0321686815F015FF1DE008996A
:10A7500003290ADA05AAD5F8740214F0D6FDC4A0BC
:10A76000D5F8741207F08AFC0FE00ED14FF0030207
:10A7700005A9D5F8780215F013FEBFA015F046FD27
:10A78000032205A9C0A007F0C7FC4FF4F072594698
:10A79000C0A015F042FF55E1032108460EF002FA71
:10A7A0000321019008460EF0FDF90090B0EE4C0A2E
:10A7B000032102A815F0DFFE09F0F4FBF0EE40BA29
:10A7C000B1EE040A09F048FD05F50870DFF8CC92F7
:10A7D000AA46B7EE00BA0A9002A803220A9915F019
:10A7E000AEFDBAF8A20255467F1C70B920077CD492
:10A7F000002E7AD10126AAA015F008FDB0EE4C0A71
:10A80000032102A815F0B7FE0027B5F8A20205281B
:10A810002CD1200730D4A6A015F0F8FC00EE107A59
:10A82000D5F8781202A8F8EEC00A05F51E758BEE71
:10A83000200AF0EE080A15F079FE00212A68009837
:10A8400014F04EFD01212A68009814F049FD022100
:10A850002A68009814F044FD2968032297A0A5F502
:10A860001E7507F059FC012644F00804B5F8A20251
:10A8700001283AD9200738D5012E01D096B193E0AE
:10A880000020A5F8A20221468EA015F0BFFCB0EE74
:10A890004C0A032102A815F06EFE002713F0A6FF54
:10A8A000804681E013F0A2FFA8EB000800EE108ABA
:10A8B000B8EEC00ADFED8A0A8AA0C0EE208A15F041
:10A8C000A5FC00259FED8AAB9DED090A734902A8FE
:10A8D000B8EEC00A80EE288A00EE107AF8EEC00AC0
:10A8E0008BEE200AF0EE080A00E062E015F01EFE92
:10A8F00009EB850090ED000AB0EEC00A10EE100AD8
:10A90000FEF718FA41EC190BB0EEC80A10EE100A67
:10A91000FEF710FA53EC192BFEF714F953EC1A2B2F
:10A92000FEF71CFA2AD209EB8500734990ED000A64
:10A9300038EE400AB0EEC00A10EE100A884201DD7F
:10A94000B1EE488A5548554A0C3800EB8500294637
:10A9500080ED008A019814F0C3FC03224F4967A0E0
:10A9600007F0DAFB18EE100AFEF7E4F941EC100BE1
:10A9700065A053EC102B15F049FC02E06D1C032D73
:10A98000A2DB25B1012D06D0022D0DD107E044F048
:10A99000010460A006E044F0020461A002E044F07B
:10A9A000040462A015F032FCE043000705D0E6B3D2
:10A9B00000260A2013F01AFE0EE7032108460EF0C7
:10A9C000F1F80546032108460EF0ECF83349064637
:10A9D0000C3907F011FBDDE9001014F084FD284666
:10A9E000019909F0FDFD294630460AF51D74DAF893
:10A9F00074220EF0E9F9304611F02AFC284611F0D5
:10AA000027FC019811F024FC009811F021FC1EA0F5
:10AA1000216807F033FB03221BA0616807F07CFB71
:10AA20004FF4F07259461BA000E00DE015F0F5FD63
:10AA3000B0EE4C0A032102A815F09DFDB0EE6B0AA2
:10AA400009F00AFC00206CE60126B2E73D524553AE
:10AA50004554000040140020000000003D25642CF7
:10AA600025662C25662C2566000000003D25640027
:10AA70006D61746C6162000062696173207365745A
:10AA800020746F3A0D0A00006E6F6865616465722C
:10AA9000000000007265677300000000B022002013
:10AAA000626961732073746172740D0A00000000A2
:10AAB000626961732073746F700D0A00626961735B
:10AAC00020000000617869732C2073746172742C0B
:10AAD00020666C61673A307825580D0A0000000046
:10AAE00000004843732C2073746F700D0A0000003F
:10AAF00000000000000008400000404061637475E1
:10AB0000616C0D0A00000000746865726F793A2567
:10AB1000660D0A00582020666F756E64210D0A00CC
:10AB2000592020666F756E64210D0A005A20206638
:10AB30006F756E64210D0A00FEB500259FED1B0A9E
:10AB40000321684615F017FD19A015F05FFB1C4F97
:10AB500000244FF4487603223946684615F0EFFB8F
:10AB60000A206D1C13F042FD641CB442F3DB00EEBE
:10AB7000105AB7EE001A134CF8EEC00A6846D4F823
:10AB8000781281EE200AF0EE080A15F0CFFC0322BD
:10AB90000DA0D4F8781207F0BFFA4FF4F07204F564
:10ABA00046710BA015F039FD0020FEBD000000002D
:10ABB000626567696E20464347320D0A0000000057
:10ABC00060160020401400206D61746C616200000A
:10ABD0007265677300000000F0B50F46086887B023
:10ABE0002AA113F09FFA2B4C4FF4F07604F546752A
:10ABF00070B104A803A9CDE9001002AB05AA26A1F3
:10AC00003868FDF7E3FB04281AD0012007B0F0BD37
:10AC1000D4F87C0204F51F7408F05EFA22A02168C3
:10AC200007F02CFA9FED220A0321606815F0A3FCBF
:10AC30009FED200A002084ED490AC4F820011DE0A0
:10AC4000059903290ADA02AAD4F87C0214F05DFB04
:10AC500015A0D4F87C1207F011FA0FE00ED14FF0D6
:10AC6000030202A9D4F8800215F09AFB12A015F095
:10AC7000CDFA032202A914A007F04EFA3246294663
:10AC800014A015F0CAFC0020C0E700003D52455357
:10AC900045540000401400203D25642C25662C25D9
:10ACA000662C2566000000006D61746C6162000016
:10ACB000000000000000C642626961732073657481
:10ACC00020746F3A0D0A00006E6F686561646572EA
:10ACD00000000000726567730000000000B572B6E6
:10ACE000094B196941F0020119615861186940F076
:10ACF00040001861D80308F01BFC196921F002011B
:10AD0000196162B600BD0000002002404FF40060EF
:10AD1000704700000348416941F01001416100F0B3
:10AD200003B8000000100240034802494160034993
:10AD3000416070472301674500200240AB89EFCD99
:10AD40002DE9F04107464FF4704416460D46204663
:10AD500008F0EEFBA04600230A4C0FE072B6206913
:10AD600040F001002061E85CF854404608F0E0FB48
:10AD7000216921F00101216162B65B1CB342EDD370
:10AD8000BDE8F0810020024010B500220EE002294B
:10AD90000BD102EB420400EB840494EC020AF1EEC6
:10ADA000600AC4ED000A84ED010A521C9A42EED3F7
:10ADB00010BD000010B50CA00EF051FA040008D12F
:10ADC0000AA015F023FA0CE00278011D0DA015F081
:10ADD0001DFA204610F08EFA0028F5D1204606F024
:10ADE000B5FC002010BD00002F0000006F70656EE4
:10ADF000206469726563746F7279206572726F7214
:10AE0000210D0A00252D387320747970653A256468
:10AE10000D0A000070B52C4B154604000E4606D0F6
:10AE2000012C08D0022C13D0032C08D114E098690F
:10AE300040F0040002E0986940F0080098610A2D93
:10AE400040D2DFE805F00D1B143F263F3F3F263A76
:10AE5000986940F01000F1E7986940F02000EDE7B4
:10AE600000230122204601F073FA00221EE0002395
:10AE70000222204601F06CFA012205E000230222A2
:10AE8000204601F065FA00223146204600F028F8FD
:10AE900018E003230022204601F05AFA042D0AD0BC
:10AEA00000223146204600F01BF8012231462046A0
:10AEB00000F03CF806E00122F3E7022301222046DD
:10AEC00001F046FA204670BD00100240034A52F8D5
:10AED00020008068C84000F0010070476C0902083B
:10AEE00001238B40034951F820000AB103617047E8
:10AEF000436170476C0902080A4A10B5936943F030
:10AF0000010393618A0721F003040749120F2144CA
:10AF10000F238C6893409C438C608B689040034364
:10AF20008B6010BD001002400000014030B512B12E
:10AF30000024022301E0012400230D4A0F2552F8CA
:10AF400020008A00082909D34168203A954043EA45
:10AF50008403A94393400B43436030BD016895408F
:10AF600043EA8403A94393400B43036030BD0000D0
:10AF70006C090208012A00D00022FFF7B1BF0000CF
:10AF800070B586B0086804AB6A461BA1FDF71EFACF
:10AF900002280ED11AA16846FDF7C5F9194C4FF4E5
:10AFA000F07604F5467538B117A16846FDF7BBF990
:10AFB00070B1012006B070BD14A0049911F054FEC8
:10AFC000D4F8C803049920F47F4040EA01200AE045
:10AFD00015A0049911F048FED4F8C803049920F490
:10AFE0007F0040EA0140C4F8C8033246294613A056
:10AFF00015F013FB0020DDE73D2533732C2564009D
:10B00000434E540040140020465251006465766956
:10B010006365206D617820636E742073657420749D
:10B020006F3A25640D0A0000726620667271207303
:10B03000657420746F3A25640D0A000072656773A9
:10B040000000000070B50C460868FDF765F9114D69
:10B05000C0B1206800221146401CFDF799FC102861
:10B0600015D8D5F8C813C0B221F0FF010143C5F8C7
:10B07000C8134FF4F07205F5467107A015F0CDFA2C
:10B08000002070BD95F8C81305A015F0BFF8012089
:10B0900070BD00004014002072656773000000005E
:10B0A00025640D0A0000000000B585B0086804ABF7
:10B0B0006A4611A1FDF78AF902281BD110A1684642
:10B0C00013F030F890B9049907290FD80DA015F0A6
:10B0D0009DF811490498012281F8950201F2952109
:10B0E0000EA015F09AFA002005B000BD0DA168462B
:10B0F00013F018F80120F7E73D2532732C25640082
:10B10000524700006779722072672073657420745B
:10B110006F3A25640D0A0000401400206779725FC1
:10B1200072670000425700003EB508686B4601AAEE
:10B1300023A1FDF74BF902283FD19DED000AB5EEA2
:10B14000C00AF1EE10FA38DB10EE100A1E498842F0
:10B1500033DC01241DA101A812F0E4FF1C4D70B9DD
:10B160000098FDF7E7FD41EC100B1AA053EC102BF3
:10B1700015F04CF89DED000A002485EDE00A1AA1B7
:10B1800001A812F0CFFF08B17CB114E00098FDF7E0
:10B19000D1FD41EC100B15A053EC102B15F036F837
:10B1A0009DED000A002485EDDF0A4FF4F07214498A
:10B1B00014A015F032FA20463EBD01203EBD00002D
:10B1C0003D2533732C2566000000A0404249530002
:10B1D000401400206779722062616973207468727C
:10B1E0003A25660D0A0000004C4D46006779722032
:10B1F0006C6D66207468723A25660D0A00000000C6
:10B2000058170020726567730000000010B51E4CCF
:10B21000012102226368C3F303135BB1082B04D03E
:10B22000092B04D00A2B05D103E0022102E00421FE
:10B2300000E008216368C3F3022333B1042B09D073
:10B24000052B04D0062B05D103E0012202E00422E5
:10B2500000E008220D4B05281B6812D2DFE800F041
:10B260000B03080D0F00B3FBF1F0B0FBF2F010BDC3
:10B27000B3FBF1F010BD184610BD054810BD0548E0
:10B2800010BD002010BD0000001002400000002092
:10B29000001BB70000127A000249486A00224A6285
:10B2A00070470000001002400549054B0A68091D5F
:10B2B000083309681B685940C0E900217047000045
:10B2C000E8F7FF1F08B5054B6946187801F08CFABE
:10B2D0000028F9D19DF8000008BD00003C000020C6
:10B2E00070B50646D0F83802008818B30024351926
:10B2F00095F8B0010F2818D030680078A04214D01B
:10B3000095F8400240B9D6F8342212B121463046B1
:10B310009047012085F8B00195F840022146401E73
:10B3200085F8400230460DF019FC641CE4B2802C14
:10B33000DDD370BDB6F93002FEF7C2FDA6F83002CB
:10B3400070BD000070B50C460868FCF7E5FF0E4DB7
:10B35000A0B1206800221146401CFDF719FBD5F86A
:10B360002813814208D0C5F828034FF4F07205F580
:10B37000467106A015F051F9002070BD05A0D5F862
:10B38000281314F043FFF7E7401400207265677339
:10B390000000000025640D0A000000007CB50C468A
:10B3A0000868BEA1FCF7BFFFBD4D28B1BDA1206854
:10B3B000FCF7B9FF00282AD1BBA10320CDE9000189
:10B3C000002301226421BBA014F020FFC0A014F0D0
:10B3D0001DFFC848D5F86023C7A105F5487550F88A
:10B3E0002230C7A014F012FFC9A1CAA0AA6814F0A5
:10B3F0000DFFD5E90023CAA1CBA014F007FF286AEE
:10B40000CCA1020CCDA0A5F5487514F0FFFECEA18D
:10B410002068FCF788FF00281FD1A3A2CCA1CFA0F1
:10B4200014F0F4FED0A2D3A1CCA014F0EFFED4A16E
:10B43000B8A0D5F82C2314F0E9FE13F0D7F900EBEF
:10B440008002D2A1D3A014F0E1FEAA48D5A1083809
:10B4500043780278D5A014F0D9FED8A12068FCF773
:10B4600062FF002847D1D5F82823A9A1D5A005F56A
:10B470004A7514F0CBFEA0A1D2A0AA6B14F0C6FEB0
:10B4800095F8A020D2A1CFA014F0C0FED2A1CDA0EB
:10B490006A6914F0BBFED2A1D4A0AA6A14F0B6FE69
:10B4A000D5A1D7A06A6A14F0B1FE686DFDF742FC21
:10B4B00041EC100BD5A153EC102BD7A014F0A6FE35
:10B4C000A86DFDF737FC41EC100BD7A153EC102B06
:10B4D000D1A014F09BFE35F8882CD5A1B9A014F0AA
:10B4E00095FED6A014F092FE55F8A41CDCA0A5F59C
:10B4F0004A7506F0C3FDDDA12068FCF714FF0028A3
:10B500002BD1B5F88E22DBA18CA005F28E2514F08C
:10B510007DFEAA88D9A189A014F078FE6A88D9A1F5
:10B5200086A014F073FE2B8AAA79D8A1D9A014F0B2
:10B530006DFEEB89EA79DBA1DCA014F067FEAB8934
:10B540002A7ADFA1D3A014F061FE6B896A7ADEA1AA
:10B55000DFA0A5F28E2514F059FEE1A12068FCF7CA
:10B56000E2FE28B9E0A1E3A0D5F8002314F04EFED6
:10B57000E4A12068FCF7D7FE40B90DF095F80DF076
:10B580005DF8C822E1A16DA014F040FEE1A12068A1
:10B59000FCF7C9FE002831D1B5F89C03DFA1C0F348
:10B5A000072288A005F5677514F030FE6868FDF77E
:10B5B000C1FB41EC100BDBA153EC102BDBA014F012
:10B5C00025FE2A78DCA1DFA014F020FEA868FDF794
:10B5D000B1FB41EC100BDEA153EC102BD3A014F007
:10B5E00015FEE868A5F56775FDF7A4FB41EC100BA7
:10B5F000D9A153EC102BCDA014F008FEDAA12068DD
:10B60000FCF791FEA8B995F8C82371A16DA014F0BC
:10B61000FDFDB5F8C803D5A1C0F3072269A014F059
:10B62000F5FDD5F8C803D5A1C0F3074265A014F015
:10B63000EDFDD4A12068FCF776FE28B90323002293
:10B640000121D2A014F0E2FDD3A12068FCF76BFE2B
:10B6500010BBD5F86C12D2A005F51B7506F00EFDD7
:10B6600003227FA0696806F057FDCFA0A96806F005
:10B6700005FD03227AA0E96806F04EFD0322CC49BD
:10B68000CCA006F049FDCEA0296906F0F7FC032204
:10B6900073A0696906F040FD00207CBD0000000039
:10B6A000401400203D4C00004A756C20313020329F
:10B6B000303230000D0A434825642025642E25646D
:10B6C0002E2564206275696C642025730D0A0000C4
:10B6D00032303130202D203230323020436F7079BB
:10B6E0007269676874206279204869504E55430D2D
:10B6F0000A000000800300204D4F44453A0000003E
:10B70000252D3136732564282573290D0A00000084
:10B7100049443A00252D313673307825580D0A00FA
:10B72000555549443A000000252D313673255825DA
:10B73000580D0A004F44523A00000000252D3136C2
:10B74000732564487A0D0A003D43505500000000FF
:10B750006275696C6420646174650000252D313662
:10B760007325730D0A00000031323A32343A353411
:10B77000000000006275696C642074696D650000EA
:10B7800063707520696E666F0000000074696D65F6
:10B7900000000000252D3136732564206D7365632C
:10B7A0000D0A00006370752000000000252D313661
:10B7B0007325642E256425250D0A00003D5553523E
:10B7C00000000000252D31367325640D0A000000AD
:10B7D000475749443A000000424155443A000000AE
:10B7E00043414E5F424155443A000000252D313619
:10B7F0007325644B0D0A000043414E5F49443A00F3
:10B80000252D31367325580D0A000000474C4D4652
:10B810005F5448523A000000252D31367325302EF2
:10B8200034660D0A0000000047425F5448523A0057
:10B83000494D555F434F4F52443A000055534552CE
:10B84000205245464552454E4345204652414D45BE
:10B85000204F4620524F544154494F4E3A0D0A0052
:10B860006E6F686561646572000000003D53454E6F
:10B87000534F5200677972206672710061636320D2
:10B88000667271006D61672066727100677972205F
:10B8900020627700252D31367325645B2564487A54
:10B8A0005D0D0A006779722020726700252D313600
:10B8B0007325645B25644450535D0D0A000000004D
:10B8C00061636320206277006163632020726700F8
:10B8D000252D31367325645B2564475D0D0A000014
:10B8E0003D465553494F4E006E61765F6672713A20
:10B8F00000000000252D313673202564487A0D0A9A
:10B90000000000003D535953000000006F73207485
:10B9100069636B003D4853490000000076616C6923
:10B92000643A00006669746572723A00252D3136FA
:10B930007325660D0A00000062696E5F737461749E
:10B9400075733A00252D313673256425250D0A00BF
:10B95000666C75783A000000696E636C696E61749C
:10B96000696F6E3A000000003D5246004D4158207C
:10B97000534C5620434E543A000000005458204681
:10B9800052513A003D5645520000000025642E25D4
:10B99000642E25640D0A00003D43414C0000000068
:10B9A0004143430D0A0000004759520D0A000000B0
:10B9B000841600205243204759520D0A000000000F
:10B9C0004D41470D0A00000010B5086800221146DD
:10B9D000401CFCF7DDFF0446014607A014F016FCEE
:10B9E00008484FF4F07200F54671C0F8604306A0B5
:10B9F00014F013FE002010BD4D4F44453D25640D4D
:10BA00000A00000040140020726567730000000007
:10BA100010B500F001F810BD06488168090607D589
:10BA2000816841F4000181600349002000F0CEBC30
:10BA30007047000000100240000E270700F01F02B0
:10BA4000012191404009800000F1E020C0F8001180
:10BA5000704700F01F02012191404009800000F171
:10BA6000E020C0F80011704710B5086800221146A8
:10BA7000401CFCF78DFFB0F5C87F12D80A4AD2F8F7
:10BA80004013B0EB114F0AD089B241EA0040C2F82E
:10BA900040034FF4F072054905A014F0BEFD0020EC
:10BAA00010BD012010BD00004014002058170020D8
:10BAB000726567730000000010B513F0B9FC002038
:10BAC00010BD000038B50446B0F9A801FEF7F8F93A
:10BAD000A4F8A801D4F8A401008850B16421484317
:10BAE00000230090044A1946204600F0C9FBA4F840
:10BAF000A801002038BD000005BD000810B50446AF
:10BB00000DF0ECFA20460DF0ADFA002010BDD0F893
:10BB10000813097861B900210A4605E0D0F80C3312
:10BB200043F82120491CC9B290F805338B42F5D85F
:10BB30000020704730B401EBC102846802254FF049
:10BB4000FF3305EB4205635300238468062505EBAC
:10BB50004202A35230BCC9B213F092B930B401EB27
:10BB6000C102846804254FF0FF3305EB420563539F
:10BB70008368C9B213F8124024F0010403F812409C
:10BB800030BC13F07DB900002DE9F843064640694A
:10BB90004FF4C0550489B0690789CCB1DFF83C8007
:10BBA000BC4215D8D6F8E4326A4629463046984752
:10BBB000009941B90268C2F82C800268C2F83C8042
:10BBC0000068C0F85C806D1C641CADB2A4B2E7E7ED
:10BBD0003046BDE8F843002104F0A2BAEDC40008E5
:10BBE0002DE9F0470446406900270589A069B0F8AF
:10BBF000089035BBBDE8F087A16807EBC7060220B7
:10BC000000EB460831F90800FEF75AF9A26822F85D
:10BC10000800A168042000EB460831F90800FEF78F
:10BC20004FF9A2687F1CFFB222F80800A16800202B
:10BC3000062201F81600A16802EB46026D1C88522C
:10BC4000ADB24D45D8D9D5E770B5044600202B4B91
:10BC50009FED2B0A0BE06288616800FB020201EB9A
:10BC600082010A689A4201DA81ED000A401C2188AB
:10BC70008142F0DC00253DE06188606805FB0151F0
:10BC800000EB810090ED000A10EE100AB0F1804F39
:10BC90002FDDB0EE001AC1EE000A10EE900AFDF79B
:10BCA00049F841EC100B02F05BFC51EC100BFDF776
:10BCB0006DF800EE100A002018E06288616805FB4C
:10BCC000020201EB8201D1ED000A60EE800AC1EDB3
:10BCD000000A6288616800FB025201EB8201401C8D
:10BCE000D1ED000A60EE800AC1ED000A2188814290
:10BCF000E3DC6D1C2088A842BEDC70BD6F12833A65
:10BD00006F12833A3EB50446D0F8A4010088A8B16A
:10BD100020686946007800F5E060ADF80000012079
:10BD20008DF8030000208DF8020094F878018DF85A
:10BD30000400D4F8E00205F0B5F83EBDB4F9A8015E
:10BD4000FEF7BEF8A4F8A8013EBD000010B5044AF5
:10BD500004460146107800F0A7FD204610BD000003
:10BD60003C0000207047000010B504A014F04EFA0B
:10BD700072B600F0ABFB002010BD00004F4B0D0A67
:10BD800000000000F8B51446D0F8E4521E466A469A
:10BD9000A847009939B90179A14204D900680C215A
:10BDA00001EB041146500098F8BD70B504460068D8
:10BDB000A268012190472069A8B112F017FD05463D
:10BDC0000CE012F013FD411BE069814202D96FF0D3
:10BDD000010070BD401C400812F0FCFA2169206887
:10BDE00088470028EDD0204607F077FF002070BD7F
:10BDF0002DE9FC41054640690E464088002833D0B5
:10BE0000C6EBC60101EB410105EB8104A96994F879
:10BE1000282049881044884226D86968134F51F871
:10BE20003000806B90F800804FF0FF30A4F8740071
:10BE3000852084F82A0094F83200CDE90007238E8B
:10BE400094F82910284613F0EDF8E762A26F2AB1A2
:10BE5000414628469047E06AB84205D1F1B22846EB
:10BE6000BDE8FC410FF0CEBABDE8FC81000004053E
:10BE70001FB5C1EBC10101EB410100EB8104616B16
:10BE800009B9A16B61630391012103AACDE90021E6
:10BE9000029104F13C0394F83220218E04F038FA28
:10BEA00004B010BD70B5C1EBC10101EB410100EB65
:10BEB00081018C6BA018202801D9FF2070BD0020C3
:10BEC00006E026181D5C0E44401C86F83C50C0B2AB
:10BED0009042F6D3886B10448863002070BD000048
:10BEE0002DE9F047086886B03D21FCF70BFA050004
:10BEF0002FA0DFF8CCA00FC88DE80F00E9464FF067
:10BF0000010813D068780D2810D00A280ED068B127
:10BF100000273E462BA014F079F904AA2EA1681C34
:10BF2000FCF754FAC0B2012815D025E026A014F081
:10BF30006DF900244E464546574605FA04F1D7F8F8
:10BF40004003084203D0315D24A014F05FF9641C63
:10BF5000102CF2DB28E000249DF8100019F80410E2
:10BF6000814205D108FA04F006431CA014F04EF9F2
:10BF7000641C102CF0D37F1C2C21681CFCF7C2F928
:10BF8000050001D0102FC8DBDAF8400382B2B242BC
:10BF90000AD06FF30F003043CAF840034FF4F07239
:10BFA000114912A014F039FB06B00020BDE8F0875B
:10BFB0009190A0B0C0D0D1F06200000000D960B173
:10BFC000401400206E6577207061636B6574206992
:10BFD00074656D733A0D0A00255800005B307825B2
:10BFE0003032585D0D0A00005817002072656773E3
:10BFF000000000002DE9F0431C4E0546894656F826
:10C00000250085B09846818841F003018180002495
:10C0100001278DF800208DF80170ADF80440ADF8CF
:10C02000024004948DF80C7056F825008DF80640F7
:10C030000C30029069464846FDF7F6FE8DF8008008
:10C040008DF80140ADF80440ADF8024004948DF83D
:10C050000C7056F825008DF806400C3002906946A9
:10C060004846FDF7E1FE05B0BDE8F0838C09020803
:10C0700070B504462348012C04D0022C0FD0032CA9
:10C0800025D118E0C26842F48052C260C26822F42E
:10C090008052C260826942F48052826117E0026974
:10C0A00042F480420261026922F480420261C26964
:10C0B00042F48042C261026942F4004202610269B4
:10C0C00022F400420261C26942F40042C2610E4D94
:10C0D000002055F82420108055F8242007201082D5
:10C0E000204600F013F855F82400018841F45171FE
:10C0F000018055F82400818821F00401818000200E
:10C1000070BD0000001002408C0902082DE9F047C4
:10C1100086B00D460646142225496846FCF7CEF83F
:10C12000DFF88C904FF00008A9F110092F4659F85C
:10C130002600018821F0400101804446EA460120A2
:10C14000FFF764F83AF81410B0FBF1F0854206D31B
:10C15000291AB94203D2471B00D50F46A046641CDA
:10C160000A2CECD359F826100A8822F038020A80EB
:10C1700059F826100B8808F0070243EAC2020A8029
:10C1800059F826108A8822F480728A8059F826107D
:10C190008B8808F0080243EA42128A8059F8260088
:10C1A000018841F04001018006B0BDE8F087000041
:10C1B0009C09020830B50F4D55F820301C8824F03A
:10C1C00040041C8055F82040238811B143F0010140
:10C1D00001E023F0010112B141F0020101E021F080
:10C1E0000201218055F82000018841F040010180C2
:10C1F00030BD00008C0902082DE9F05F1F4D044698
:10C200008B4655F82400DDE90B760188DDF828809F
:10C210009A46914621F0400101800022414658464D
:10C22000FDF76EFD002239465846FDF769FD4A4686
:10C2300041465846FDF7D6FD524639465846FDF769
:10C24000D1FD324641465846FDF7BEFD32463946DD
:10C250005846FDF7B9FD012241465846FDF750FD0D
:10C26000012239465846FDF74BFD55F82400018858
:10C2700041F040010180BDE8F09F00008C090208F8
:10C280002DE9F05F8B46204982460025B1F9000078
:10C29000984616461B4C401C05E00EB1227852B160
:10C2A0006D1C2DB21834854201DC082DF5DB4FF0F2
:10C2B000FF30BDE8F09F8946854201D1A9F8000012
:10C2C00007F0B2F907464FF6FF714046884500D3A4
:10C2D0000846D9F80410B94207D9C91B814204D9CC
:10C2E0003918C9F8041012F0F1FF08EB0700C4E98F
:10C2F00003B0C4E901A60A986061012020702846B5
:10C30000D7E70000C8270020E8030020014A516059
:10C31000106070472C0000200B4910B54A6822F0CD
:10C32000030202434A604A6802F003028242FAD1E1
:10C33000064C30B1012803D10320FEF767FF2060CF
:10C3400010BD0420F9E700000010024000000020AA
:10C3500030B51C4CA56945F00105A56130B1012837
:10C3600008D002281DD0032808D11EE0A56945F099
:10C37000040502E0A56945F00805A561124D0F24EA
:10C3800043EA820255F82000082912D343688D0041
:10C39000203DAC4089002039A3438A401A434260C3
:10C3A00030BDA56945F01005E7E7A56945F0200512
:10C3B000E3E7036889008C40A3438A401A43026084
:10C3C00030BD0000001002406C09020870B506463E
:10C3D0000D460020FFF7A0FF204C606843F6F07187
:10C3E00088436060606840F410506060206820F00E
:10C3F0008070206060681A490840606060684FF48F
:10C40000003141EA06410843606026B3FDF70EFEA5
:10C4100000281FD10320FEF7F9FE4008B5FBF0F01D
:10C420006168104A52F82000014361600E4885425D
:10C4300003D3606840F000406060206840F0807086
:10C44000206020688001FCD50220FFF765FF0748C7
:10C450000560002070BD0420DDE7000000100240F0
:10C46000FFFFC01F3408020800A24A040000002099
:10C4700012F0F4BD10B510F087FB12F0BDF9BDE865
:10C48000104010F099BB000000B54FF0E0200421EF
:10C4900001616FF07F4141610220FEF7B7FE064A5D
:10C4A0000449B0FBF2F04FF47A72086050434860E0
:10C4B00000BD00001800002040420F000248016843
:10C4C00041F470010160704788ED00E0BFF34F8FC9
:10C4D00004480168044A01F4E06111430160BFF3BC
:10C4E0004F8FFEE70CED00E00400FA052DE9F04166
:10C4F000044690F87E0148B3022A03D0032A01D0F3
:10C50000052A23D16269A088127A00EBC200081ABA
:10C51000C0F3C705A16805EBC506022000EB46077E
:10C52000C85FFDF7CDFCA168C853A168042000EBEB
:10C530004607C85FFDF7C4FCA168C853A168002086
:10C5400001F8160029462046FFF7F4FA0020BDE85E
:10C55000F08110B505F0E4F9002010BD41F203634D
:10C56000C81A994270D034DCB1F5905F74D017DCF2
:10C5700041F20503A1EB0300994263D009DCB1F558
:10C58000805F59D06FF48050081857D001284FD1E0
:10C5900056E011285AD012285AD0132848D159E011
:10C5A00041F20343C81A99425ED009DCB1F5A05F9D
:10C5B00054D06FF4A050081852D0012838D151E05F
:10C5C000A0F58070FD3851D0012851D002282FD11C
:10C5D00050E0B0F5806F5FD015DCB0F5007F53D030
:10C5E00008DCA0F58070FD3848D0012848D002282A
:10C5F0001ED147E0A0F54070FD3847D0012847D054
:10C60000022815D146E0B0F5206F4DD008DCA0F52A
:10C610001060FD3842D0012842D0022808D141E004
:10C62000A0F52060013841D0FC2841D0FD2841D040
:10C63000244810600020704700203CE001203AE0D0
:10C64000022038E0032036E016E005E0042032E066
:10C65000052030E006202EE007202CE008202AE00C
:10C66000092028E00A2026E00B2024E00C2022E00C
:10C670000D2020E00E201EE00F201CE010201AE00C
:10C68000112018E0122016E0132014E0142012E00C
:10C69000152010E016200EE017200CE018200AE00C
:10C6A000192008E01A2006E01B2004E01C2002E00C
:10C6B0001D2000E01E2000211160034901EBC00095
:10C6C0007047000000000206400E02089F2803D1B8
:10C6D000087808B10148704700207047300009060B
:10C6E0002DE9F0414FF6FF7406F09EFF204D0646FF
:10C6F000204968688319002215E00878C0070FD028
:10C70000086998421DD84869C0B1B6FBF0F700FB34
:10C710001767C01B032708610F70A04200D20446B0
:10C72000521C12B21831B5F900008242E5DD2046F4
:10C730006C6012F0CBFD00260E4C13E00220087056
:10C74000EEE7C01A0861E8E72078810707D520F0F6
:10C7500002002070A26812B1E16860689047761C00
:10C7600036B21834B5F900008642EDDDBDE8F0813F
:10C77000E8030020C82700200C4B10B553F82020F8
:10C78000948924F400549481002953F820108A8A53
:10C7900002D042F0400201E022F040028A8253F8C7
:10C7A0002000818941F40051818110BDB409020843
:10C7B0000C4B10B553F82020948924F40054948134
:10C7C000002953F820108A8A02D042F0800201E04A
:10C7D00022F080028A8253F82000818941F40051BE
:10C7E000818110BDB4090208054A52F82000028870
:10C7F000920603D58088087000207047012070479A
:10C80000B409020870B504002CD0214A012C04D0D0
:10C81000022C0FD0032C25D118E0D06840F48040C2
:10C82000D060D06820F48040D060906940F48040AF
:10C83000906117E0106940F400301061106920F435
:10C8400000301061D06940F400300AE0106940F413
:10C8500080201061106920F480201061D06940F4BC
:10C860008020D061204600F02BF80A4942F20C00EB
:10C8700051F824108881084D287838B107480849B4
:10C8800004700848FFF742FD00202870002070BDAA
:10C8900000100240B4090208340000203C000020CF
:10C8A000C5B200084DBD0008044A52F820309980F6
:10C8B00052F8200001884906FCD57047B4090208E7
:10C8C00070B505460C460120FEF7A0FC164951F84C
:10C8D00025209189090400EBC00101EB001001D56E
:10C8E000610000E0A100B0FBF1F06423B0FBF3F1C4
:10C8F00009010C096FF018056C4300EB8400948962
:10C9000025044FF0320406D504EBC000B0FBF3F071
:10C9100000F0070005E004EB0010B0FBF3F000F0BE
:10C920000F000843108170BDB409020830B5214BD7
:10C9300001241B5603F01F05AC405B099B0003F16B
:10C94000E023C3F800411B4B1B1D53F82040A58971
:10C9500025F40055A58179B1012902D0022921D100
:10C9600015E053F82010002A8A8902D042F02002F4
:10C9700017E022F0200214E053F82010002A8A89E0
:10C9800002D042F040020CE022F0400209E053F8ED
:10C990002010002A8A8902D042F0100201E022F021
:10C9A00010028A8153F82000818941F4005181816D
:10C9B000002030BDB0090208F0B50C46086887B009
:10C9C0003BA111F0AFFB3C4D4FF4F07705F54676F7
:10C9D000C8B105F58B60011FCDE905100A1F131FB3
:10C9E000CDE903321038011F0A1F0092CDE9011072
:10C9F000131F083A31A12068FBF7E8FC092809D089
:10CA0000012007B0F0BDD5F8840206F065FBD5F82B
:10CA1000841243E0304C0022D5F8840294ED0E0AD3
:10CA2000114605F521750CF00EF894ED0F0A012260
:10CA3000002128680CF007F894ED100A022200216A
:10CA400028680CF000F894ED110A002201212868F2
:10CA50000BF0F9FF012294ED120A114628680BF041
:10CA6000F2FF94ED130A0222012128680BF0EBFF7C
:10CA700094ED140A0022022128680BF0E4FF94EDE3
:10CA8000150A0122022128680BF0DDFF022294ED35
:10CA9000160A114628680BF0D6FF29680FA005F08A
:10CAA000EDFA3A4631460FA013F0B7FD0020A8E793
:10CAB0003D52455345540000401400203D25662C4E
:10CAC00025662C25662C25662C25662C25662C25AE
:10CAD000662C25662C256600401800206D61746C5C
:10CAE0006162000072656773000000007CB510F0A1
:10CAF0004BF81E4800888DF800009DF800001C4D82
:10CB0000800603D5012128460FF0AAFD9DF80000FC
:10CB10000107184802D501888DF804109DF800100F
:10CB2000490605D5134908310A8822F040020A80D7
:10CB30009DF80010C90614D500888DF804000C4C2F
:10CB40000120C43C94F82C10FDF7F0F8216A091A72
:10CB5000606A61620A1A032000EB022128460FF086
:10CB60007FFDBDE87C4010F027B800000038014090
:10CB70005C1F0020043801407CB510F005F81D480A
:10CB800000888DF800009DF800001B4D800603D53D
:10CB9000012128460FF064FD9DF8000001071748A9
:10CBA00002D501888DF804109DF80010490605D5BE
:10CBB000124908310A8822F040020A809DF80010CC
:10CBC000C90613D500888DF804000D4C012094F897
:10CBD0004810FDF7ABF8E16B091A206C21640A1AC2
:10CBE000032000EB022128460FF03AFDBDE87C400F
:10CBF0000FF0E2BF00440040B01F0020044400409A
:10CC0000981E002010B50FF0BFFF06480088800670
:10CC100003D5012104480FF023FDBDE810400FF0BB
:10CC2000CBBF000000480040042000200A480168F3
:10CC3000C90701D0012101600168C90502D54FF47F
:10CC4000807101600168C90302D54FF48031016031
:10CC50000248C06810F0C0BE08640040F003002025
:10CC6000704700000FB4054B10B503A9044A0298A1
:10CC700002F07EFD10BC5DF814FB00005935010880
:10CC8000380000207CB5044600201D4616460029C9
:10CC90000BD0491ECDE90041044B6A462946304677
:10CCA00002F066FD009A002111707CBDFD030108B1
:10CCB00003B401984100009850EAC12018BF042035
:10CCC0004A0D18BF40F0010040F2FF72B2EB515F15
:10CCD00008BF40F00200012808BF052002B07047DD
:10CCE0004100080218BF04200A0E18BF40F00100DE
:10CCF0004FF07F4232EA010108BF40F002000128F4
:10CD000008BF052070470000004870473C14002011
:10CD100010B510EE104A4FF01A402DED028B00EBCB
:10CD20004400B0F1C85F4AD84FF0FC40B0EB440F6C
:10CD300022D2B0EEC00AF7EE000A30EEC00AF6EEDC
:10CD4000000A20EE208A18EE100A12F052FB00EEC4
:10CD5000100A14F0004F1DBF9FED281ADFED280ABE
:10CD6000B1EE400A9FED271A08BFF0EE410AF8EE37
:10CD7000001A20EE210A05E020EE008A9FED221A1B
:10CD8000DFED220ADFED221A9FED222A70EEC00AA3
:10CD900020EE080A08EE212ADFED1F1A48EE021ADB
:10CDA0009FED1E2A08EE212ADFED1D1A48EE021A19
:10CDB000BDEC028B40EE610A30EE810A10BD4FF0EF
:10CDC000CC40B0EB440F82BF9FED160ABDEC028B46
:10CDD00010BD4FF07F40B0EB440F05D2BDEC028B8D
:10CDE000BDE8104001F0F0BC012001F0DDFDBDEC1C
:10CDF000028BBDE8104001F0EBBC00000000494090
:10CE000022AA7D3A000000000000C93F22AAFD3995
:10CE100024FE1C3DC78AD83C1E67383D1B93993DB4
:10CE2000AFAA2A3EDB0FC93F70B5C1482DED020BFA
:10CE30002DED0E8B82B0119D25F000449FEDBEDBE1
:10CE40009FEDBFEB84423EDBA4F140511098A1F16D
:10CE50007F6108430FD0BC48844202DC28D110987F
:10CE600030B39DED100B02B0BDEC0E8B02B0BDE8EF
:10CE7000704001F065BC9DED100B53EC1D2B51EC87
:10CE8000100BFBF765FE9DED100B41EC180B53ECFE
:10CE90001E2B51EC100BFBF75BFE53EC182BFBF732
:10CEA000B0FD41EC100B02B0BDEC0E8B02B070BDBA
:10CEB000012001F079FD02B0BDEC0E8B02B0BDE89F
:10CEC000704001F051BCA1489FEDA18B844256DA1D
:10CED0009DED100BB4F1795F0ADA51EC100BFFF7FE
:10CEE000E7FE042808BF01F05FFC9DED100BDAE7B8
:10CEF00053EC102B51EC100BFBF72AFE41EC190BF5
:10CF000095480621B0EE490AF0EE690A784401F02E
:10CF100081FB53EC192B51EC100BFBF719FE41EC84
:10CF20001A0B8E48B0EE490AF0EE690A04217844E3
:10CF300001F070FB53EC192B51EC100BFBF708FEC2
:10CF400053EC182BFBF75DFD41EC100B51EC1A0B69
:10CF500053EC102BFBF76EFECDE900019DED000BAD
:10CF600053EC102B9DED100B51EC100BFBF7F0FD6B
:10CF70009DED101B53EC112BFBF743FDD2E09DED13
:10CF8000100B51EC100B06F0BBF853EC182BFBF711
:10CF9000DCFD9FED730BCDE9000153EC102B9DEDF3
:10CFA000000B51EC100BFBF7D3FD41EC190B6E4855
:10CFB0000621B0EE490AF0EE690A784401F02AFB36
:10CFC00053EC192B51EC100BFBF7C2FD41EC1B0B82
:10CFD0006648B0EE490AF0EE690A0421784401F08F
:10CFE00019FB53EC192B51EC100BFBF7B1FD53EC73
:10CFF000182BFBF706FD41EC1C0B51EC190B12F042
:10D00000C1F941EC180B5A489FED5BABA04222DC02
:10D0100053EC1C2B51EC1B0BFBF70CFECDE9000174
:10D020009DED000B51EC180B53EC102BFBF790FD12
:10D0300053EC182BFBF7E5FC53EC1A2BFBF788FDA0
:10D0400053EC1D2BFBF77EFD53EC1E2BFBF77DFDF8
:10D0500041EC100B5FE08DED008B002000909DED0A
:10D06000000B51EC180B53EC102BFBF7CAFC9DED99
:10D07000000B41EC1E0B53EC102B51EC100BFBF78B
:10D0800067FD53EC192BFBF760FD53EC1E2BFBF7F0
:10D09000D1FD41EC190B53EC1C2B51EC1B0BFBF796
:10D0A000C9FD41EC1B0B53EC1A2B51EC190BFBF790
:10D0B0004FFD53EC1D2BFBF748FD41EC190B53ECD6
:10D0C0001A2B51EC180BFBF743FD53EC1B2BFBF712
:10D0D0003FFD53EC192BFBF735FD9DED000B41ECAB
:10D0E000180B53EC1A2B51EC100BFBF731FD9FED95
:10D0F000249B53EC192BFBF728FD41EC100B51EC52
:10D10000180B53EC102BFBF71DFD53EC192BFBF701
:10D110001CFD41EC100B002D3FF7C5AE51EC100B80
:10D1200081F0004141EC100BBDE600000000000062
:10D130000000F03F00000000075C143326A6913C7D
:10D14000182D4454FB21F93F0000F07F0000E03F20
:10D15000000000000000F03F484001005640010080
:10D16000000000000000E03F9A3F0100A83F0100DE
:10D170003333EF3F000000000000000000000040DB
:10D18000182D4454FB21E93F10B54FF00E402DED12
:10D19000028BB0EE408A18EE104A00EB4400B0F16A
:10D1A000506F4AD84FF0FC40B0EB440F22D2B0EEA3
:10D1B000C80AF7EE000A30EEC00AF6EE000A60EE8A
:10D1C000208A18EE900A12F014F901EE100A14F0F9
:10D1D000004F1DBFDFED2D0A9FED2D0AB1EE411A64
:10D1E000DFED2C0A08BF9FED2C0AF8EE001A21EEA5
:10D1F000218A05E0DFED290A68EE088AB0EE600AB0
:10D200009FED271ADFED271A30EE080A48EE811A43
:10D210009FED251A08EEA11ADFED241A48EE811AB7
:10D220009FED231A08EEA11A68EE281ABDEC028BB6
:10D2300001EE810A30EE200A10BD4FF0E440B0EB61
:10D24000440F0CD918EE100AFFF74AFD042808BF56
:10D2500001F0C6FAB0EE480ABDEC028B10BD4FF0EB
:10D260007F40B0EB440F07D2B0EE480ABDEC028B12
:10D27000BDE8104001F0A8BA012001F095FBBDEC1B
:10D28000028BBDE8104001F0A3BA00000000C9BF46
:10D2900022AAFDB90000C93F22AAFD390000000002
:10D2A00024FE1C3DC78AD83C1E67383D1B93993D20
:10D2B000AFAA2A3E0000000070B59B482DED020B7E
:10D2C0002DED068B079D25F00044A04218DC974801
:10D2D000844202DC0AD1069840B19DED060BBDECFC
:10D2E000068B02B0BDE8704001F02ABA002DCCBF19
:10D2F0009FED8F0B9FED900BBDEC068B02B070BDC8
:10D300008F48A04215DD8F48A042D8BF4FF0FF34B0
:10D3100058DD9DED060B51EC100BFFF7C9FC0428FE
:10D3200008BF01F041FA9DED060BBDEC068B02B083
:10D3300070BD9DED060B51EC100B05F0E1FECDE943
:10D34000060181489FED828BA0423CDD8248A042CD
:10D350001FDD00249FED82AB9DED060B53EC1A2BD5
:10D3600051EC100BFBF74DFB9DED060B41EC190B3F
:10D3700053EC1A2B51EC100BFBF7EAFB53EC182B78
:10D38000FBF7E0FB53EC192BFBF754FCCDE906014E
:10D3900049E09DED060B012453EC182B51EC100BCA
:10D3A000FBF72FFB9DED060B41EC190B53EC182BF3
:10D3B00051EC100BFBF7C6FB53EC192BFBF73AFCB7
:10D3C000CDE906012FE06848A0421FDD02249FED51
:10D3D000689B9DED060B53EC192B51EC100BFBF7E2
:10D3E000B7FB53EC182BFBF70CFB9DED060B41EC48
:10D3F000180B53EC192B51EC100BFBF7A3FB53EC60
:10D40000182BFBF717FCCDE906010CE09DED060B90
:10D41000032453EC102B9FED580B51EC100BFBF732
:10D4200009FCCDE906019DED060B53EC102B51ECE8
:10D43000100BFBF78DFB41EC180B53EC182BFBF793
:10D4400087FB41EC190B4E480621B0EE490AF0EE7D
:10D45000690A784401F0DEF853EC182B51EC100BFC
:10D46000FBF776FB41EC180B4648B0EE490AF0EEAC
:10D47000690A0521784401F0CDF853EC192B51ECE1
:10D48000100BFBF765FB41EC100B51EC180B53EC48
:10D49000102B002C0EDAFBF7B4FA9DED061B53ECB3
:10D4A000112BFBF755FB9DED061B53EC112BFBF7E6
:10D4B0004CFB35E0FBF7A5FA9DED061B53EC112B59
:10D4C000FBF746FB41EC100B2F48784400EBC400FF
:10D4D00090ED001B51EC100B53EC112BFBF732FBC2
:10D4E0009DED061B53EC112BFBF72CFB41EC100BB5
:10D4F0002648784400EBC40090ED001B51EC100B63
:10D5000053EC112BFBF721FB41EC100B002DA2BFBC
:10D51000BDEC068B02B070BD51EC100B81F00041E8
:10D5200041EC100B01E70000000010440000F07F08
:10D53000182D4454FB21F93F182D4454FB21F9BF09
:10D540000000DC3F0000203E0000F33F0000000030
:10D55000000000000000F03F0000E63F0000000077
:10D5600000000000000000400080034000000000B8
:10D57000000000000000F83F000000000000F0BFC5
:10D58000BA3B0100703B0100FA3A0100B23A0100D7
:10D5900070B56B4E2DED040B2DED028B82B0DDF8D6
:10D5A0001CC0DDE905235C422CF000411C4341EA2C
:10D5B000D474049D22F00040B44205D86C422C4340
:10D5C00040EAD474B4420BD99DED061B9DED040BCB
:10D5D00002B0BDEC028B04B0BDE8704001F0BAB8F7
:10D5E000ACF14054A4F17F641C430BD0022404EA44
:10D5F000AC7444EAD27405439FED538B9FED542BDA
:10D6000007D015E09DED040B51EC100B03F0D8F89A
:10D6100042E0002C11BF012C9DED040B02B0BDECCB
:10D62000028B04BF04B070BD022C38D0032C3BD059
:10D630000B439FED491B9FED4A0B0AD0B14218D115
:10D64000B04209D121F0804120F08040079105903F
:10D650000FE0002A15DA10E0434B7B44002C08BF92
:10D6600093ED000B0DD0012C10D0022C17D0032C01
:10D670001AD0B0421DD1002A03DAB0EE410AF0EE12
:10D68000610A02B0BDEC028B04B070BD93ED000BDB
:10D6900051EC100B81F0004141EC100BF1E7B0EEC2
:10D6A000480AF0EE680AECE7B0EE420AF0EE620AD1
:10D6B000E7E7401A00153C28C8BF8DED000B19DCC8
:10D6C000BCF1000FBEBF10F13C0F9FED290B8DED9B
:10D6D000000B0FDB9DED060B53EC102B9DED040BA7
:10D6E00051EC100BFBF7A6FA05F00AFD03F068F801
:10D6F000CDE90001002C08BF9DED000BC1D0012C2D
:10D7000010D0022C9FED1C0B53EC102B9DED000B49
:10D7100051EC100B0DD0FBF715FA53EC182BFBF75F
:10D7200011FAB9E7019880F0004001909DED000BDF
:10D73000A7E7FBF707FA53EC182BFBF706FAABE762
:10D740000000F07F00000000182D4454FB21094028
:10D75000182D4454FB2109C0182D4454FB21F9BF56
:10D76000182D4454FB21F93F6A3A010000000000E3
:10D770000000000000000000075C143326A6A13C56
:10D780002DE9F04D2DED040B2DED0E8B96B0DDE95E
:10D790002550279CDDF890A025F0004624F0004895
:10D7A000BAF1000F14BF0121002101EB4502FC4931
:10D7B00053184A1093422AD3002814BF0123002390
:10D7C00003EB44030B44F7498B4220D358EA000192
:10D7D0009FEDF59B76D0DFF8D8B35D4503D1BAF164
:10D7E000000F05D188E0BAF1000F08BF002100D07A
:10D7F000012101EB450111F5001F08D8002814BFD5
:10D800000121002101EB440111F5001F0BD99DED11
:10D81000261B9DED240B16B0BDEC0E8B04B0BDE8AD
:10D82000F04D00F097BF0027002DBCBFE1498845AF
:10D8300021DAE1498845A8BF02271CDAC3451ADC72
:10D84000DE4901EB2851142908DDC1F1340220FA28
:10D8500002F101FA02F282420DD108E058B9C1F199
:10D86000140228FA02F101FA02F2424503D101F052
:10D870000101C1F1020756EA0A0124D1002C22DA83
:10D88000002D18BF022F01D0012F0AD0022001F075
:10D890008BF816B0BDEC0E8B04B0BDE8F04D00F077
:10D8A00037BF022001F080F800F032FF51EC100B7E
:10D8B00081F0004141EC100B16B0BDEC0E8B04B0B2
:10D8C000BDE8F08D18E09FEDBEAB9FEDBF8B00284B
:10D8D00071D1B848804522D105F1804010F5801003
:10D8E00008BFBAF1000F07D0B3450ADC002CA8BF6F
:10D8F0009DED260BE0DA0DE0B0EE490AF0EE690A84
:10D90000DAE7002C06DA9DED260B51EC100B81F0C6
:10D9100000416FE0AE48784490ED000BCCE7D8456D
:10D920004DD1002C48DA2EB186423AD1BAF1000F1F
:10D9300042D126E0BAF1000F13D0022001F034F8F2
:10D9400000F022FF8DED020B9DED240B8DED000B01
:10D9500010EE900A039961F31E0003909DED020BF7
:10D96000AAE78DED02AB9DED240B1AEE901A10EE96
:10D97000900A8DED000B61F31E0003909DED020BEC
:10D980009AE78DED028B9DED240B18EE901A10EEA8
:10D99000900A8DED000B61F31E0003909DED020BCC
:10D9A0008AE709DA9DED240B51EC190B53EC102B8F
:10D9B000FBF740F91EE020E09DED240B7CE786425A
:10D9C0001BDAB4F1804F0DD0A4F10050B0F1FF503C
:10D9D00013D1002D11DB9DED240B51EC100B11F038
:10D9E000D1FC07E09DED240B53EC102B51EC100BF8
:10D9F00000F0C2BC41EC100B5EE79DED240B51EC36
:10DA0000100B05F07DFBBAF1000FCDE90E0142D1FC
:10DA10009FED710B46B3A6F1E040B0F17F600CD0F2
:10DA20005E4538D1002D00DAA7B3022F0CBF0120CC
:10DA30004FF0FF30FBF76DF9DCE7002D01DD002C26
:10DA40000DDA002D01DD002C1FDB002D16DA002C75
:10DA500014DB012F08BF9FED620B3FF42DAFB0EE3A
:10DA60004A0AF0EE6A0A27E7022F18BF002D0CD0F1
:10DA7000012F0AD1002DFFF61FAF06E0002DB8BF21
:10DA8000002C08DA012F3FF417AFB0EE480AF0EE91
:10DA9000680A11E71BE0012000EBE57050EA07017E
:10DAA00015D0791EB0EE498AF0EE698A084308BFA6
:10DAB0009FED4D8B4E480025804570DD4D494E4809
:10DAC000884514DDB0420DDB002C19DB2FE001206E
:10DAD00000F06AFF16B0BDEC0E8B04B0BDE8F04D4F
