:2000000060050010D50000001D030000DF0000000000000000000000000000000000000097
:20002000939D939B0000000064000000E10000000000000000000000E3000000FD0300003A
:20004000E7000000E700000000000000E7000000E7000000E700000000000000E700000036
:20006000E7000000E7000000E7000000E7000000E7000000E7000000E7000000E700000048
:20008000E7000000E7000000E7000000E7000000E7000000E7000000E7000000000000000F
:2000A000E7000000E7000000E7000000E7000000E7000000E7000000E7000000E700000008
:2000C0000348854600F04EF8004800471D090000600500100448804704480047FEE7FEE73A
:2000E000FEE7FEE7FEE7FEE785040000C100000030B50B46014600202022012409E00D46E2
:20010000D5409D4205D31D469540491B2546954040191546521E002DF1DC30BD03460B4395
:200120009B0703D009E008C9121F08C0042AFAD203E00B780370401C491C521EF9D2704711
:20014000D2B201E00270401C491EFBD270470022F6E710B513460A4604461946FFF7F0FF86
:20016000204610BD064C0125064E05E0E36807CC2B430C3C98471034B442F7D3FFF7A4FF4B
:20018000E40C0000040D000010B509480169042211430161074941610748084C00680849B4
:2001A000FFF7A6FF7D21C90020604843606010BD00E000E0FFFFFF00000000100C000010BC
:2001C00040420F00F8B5840A0F4D32206C60AC60286072B60D490E4E0F460B48B04762B6B4
:2001E000686900280ED16C603420AC60286009480068E86072B639460348B04762B66869A0
:20020000002800D00120F8BDC4020010D8020010F11FFF1F1C00001040207047012080023C
:200220007047000010B5002000F038F87D21C900FFF75EFF0149086010BD00001C0000109D
:20024000F8B50446800A114D0F46322168602960A86072B60E490F4E0C480091B04762B6EE
:200260006869002810D1AF6033206C6028604020E86009480068286172B604480099B04700
:2002800062B66869002800D00120F8BDC4020010D8020010F11FFF1F1C000010002804D091
:2002A000012800D000210846704701480168FAE700000010064881B001688968C907FBD008
:2002C000006840696946C0B2087001B070470000D80C000010B5054C3A202060054A04499C
:2002E00020469047E169A069484010BDC4020010D8020010F11FFF1F70477047FFFFFFFFC1
:2003000010B5016881F3088881F30988024942688860904700BF10BD00ED00E010B5FFF7DE
:20032000EBFF10BD0021044A890051588A685207FCD5C86100207047D80C000030B42A4B0C
:200340001C6880252C431C60FF239340274C914008280ED202007A44127992189744030B62
:20036000131B232B333B20689843206020680843206030BC70476068984360606068084344
:20038000606030BC7047A0689843A060A0680843A06030BC7047E0689843E060E06808432B
:2003A000E06030BC704720699843206120690843206130BC70476069984360616069084304
:2003C000606130BC7047A0699843A061A0690843A06130BC7047E0699843E061E0690843E3
:2003E000E06130BC704700008080044000C00040014A5160106070471400001010B50C4C71
:20040000606803280FDD0B49087800280BD1012212035068801A084A904204D20120087404
:20042000002000F00BF86068401C606010BD0000040000108C000010017000000449022266
:200440000028086901D0104300E090430861704700E000E00849094A096848430849904289
:2004600001D94A6100E04861002088610869052210430861704700000C000010FFFFFF0041
:2004800000E000E070B417480168174A114301601648002404604460012343604168C907D0
:2004A00003D100BF4168C907FBD0114941228A60104EB26B8025AA43B263CA68D20703D1BD
:2004C00000BFCA68D207FBD00321016344634363416BC90703D100BF416BC907FBD0836376
:2004E00070BC70478080044080000400408004400080044000820440820005488058826832
:20050000D20703D0406908700020704701207047D80C000010B5114A0446106807239B03D1
:2005200018431060012050610D4800224263FF220263204600F028F8FF2201320949A000C0
:200540000B585A600B58084A9A6008580522026006490748FFF74CFF002010BD80800440D6
:20056000C0800440D80C0000FFFF0000B502000025030000034A8000105882685207FCD5ED
:20058000C1617047D80C0000F8B5124E850070590C4601684908490001600020FFF77EFEFB
:2005A00021010F46FFF7A4FD441E0020FFF776FE390A621C5143FFF79BFD0749FF3801389E
:2005C00048637059046270590168012211430160F8BD0000D80C0000C08004400A4B810044
:2005E00059580123002A06D0CB600849002804D0012806D103E00B6103E0082000E0102044
:200600000860002070470000D80C000000E100E002E008C8121F08C1002AFAD1704700207E
:2006200001E001C1121F002AFBD1704770B504464D1E681C06D021780020641CFFF79AFF3D
:200640006D1EF8D2002070BDF0B403880026002A0FD9094F8C5D2402634000255C001B04E7
:2006600000D57C406D1C2346082DF7D3761C9642F0D30380F0BC7047211000005A210170C8
:20068000A12141707047F8B515460E465A22A4210270417000218170C17001714171FF27E3
:2006A000044605373946801DFFF751FD04223146204600F010F97560F0780025002819DDD8
:2006C0007068A90040188446E078A178000204220B18BB420AD80919801D08186146FFF760
:2006E0001DFDA078001DA070E078E070F0786D1CA842E5DC002069460880022221466846C7
:20070000FFF7A2FF0222A11C6846FFF79DFFE178A07809024218A11D6846FFF795FF6946A6
:2007200008882071000A6071F8BD30B585B0A0236D462B7000236B700224EC70AB700392AD
:20074000029102AA6946FFF79EFF002005B030BD78B50D4604465A26069905982670A7266D
:200760006670A370E270257150226271A071E171002069460880082221466846FFF764FF11
:20078000694608882072000A607278BD10B582B0A7236C46237000236370A370E170694668
:2007A000FFF771FF002002B010BDF8B504460026684606802568227BAF1D0620072A78D24C
:2007C00013007B441B79DB189F4403092A2D303438005A296ED10120207329706AE06970AC
:2007E0000222A139072965D20B007B441B79DB189F440F0F600303050B0022735AE0A168F4
:20080000002956D02846884753E0AE70EE7066600EE02673A16800294CD02846884749E09C
:20082000A970032004E0E970042001E02971052020733FE06971666020733BE06068421C55
:20084000626039546878A42801D0A52825D1E978A87809024018616888421ED869460E805F
:20086000022229466846FFF7EFFE0222A91C6846FFF7EAFE394668466268FFF7E5FE69792D
:2008800028790902401869460988884204D1A168002901D02846884726736878A72809D113
:2008A0006068082806D30820A870EE70A1680029A8D126730020F8BD10B5002141600173B5
:2008C0000068002805D0FF210B31FFF740FC002010BD012010BD70B504468378C07815464D
:2008E0000002FF261A180536B24201D9012070BD1A19801D10182A46FFF710FCA078290A93
:200900004019A070E0784018E070002070BD8178C0780002801D081870470000B44894B03A
:2009200000240460446001264660FFF72DFCE12149020020FFF7EEFD002204211046FFF7BE
:20094000FDFC002108220846FFF7F8FC00F07CF9A84DAA482C702C74A7490160A849816070
:20096000FFF7AAFF0094002302220121A5480194FFF7EEFEA448FFF781FEFFF753FCA348E6
:20098000FFF768FD0120FFF759FD00F051F9002866D000F061F9974D012129708168487865
:2009A000A4280DD0A52878D0A62859D1954C092521780020641CFFF7DDFD6D1EF8D2FDE037
:2009C000487A8E79820000240CA80A31FFF7A6FB8F48FFF753FE02218D48FFF727FE022EC1
:2009E0003FD0042E5AD0072E02D00B2E38D167E0002004900C980B2810D006DC012809D0AD
:200A000004280FD005281FD116E010280FD040281AD116E07F480224059015E0802002241B
:200A2000059011E00120C003022405900CE0FFF751FC0224059007E0FFF7F0FB0224059024
:200A400002E075480224059004AA21467348FFF79DFE7248FFF75BFF01467048FFF7E6FDF9
:200A6000ACE00C9C6C600D98A8600519A54207D92046FFF7A7FBFFF7D1FB0419A542F7D851
:200A8000022200216548FFF750FE6448FFF73FFF01466248FFF7CAFD90E034E00C996960A0
:200AA0000D98E960A860042200215C48FFF73DFE5A48FFF72CFF01465848FFF7B7FD7DE073
:200AC0000B2200215548FFF730FE5448FFF71FFF01465248FFF7AAFD142200235048009355
:200AE00001930199491C01918142FADB0099491C00919142F4D3BFF34F8F4B494948C86033
:200B0000BFF34F8FFEE7CA78887812028018059038488F1DC668059834460190FFF77CFB6E
:200B20000146009000250198FFF7E2FA0391049000280FD9A01BC1193C48009AFFF7EEFA85
:200B40003A492046FFF77CFB00986D1C24180498A842EFD80399002909D00A46A01BC11912
:200B60003248FFF7DBFA31492046FFF769FB214E0598F168244C08180125F06021780020D2
:200B8000641CFFF7F7FC6D1EF8D2B16870684018F168884212D8042200212048FFF7C5FDDA
:200BA0001E4C2046FFF7B3FE451E681C06D021780020641CFFF7DEFC6D1EF8D20D48007CD2
:200BC000012808D1002201211046FFF707FD01200003FFF795FB02A90020FFF78DFC002863
:200BE00000D0D2E66846017A0448FFF7DEFDCCE6408004408C000010B0000010A000001065
:200C0000CD0C00008000001006000010A0860100040000100004014B16020000BA010010E7
:200C2000102700000400FA0500ED00E0400000100448018F408F814201D001207047002026
:200C400070470000240300100248002141870187704700002403001070B5084C0025208FB0
:200C6000618F884208D00C214143054A401C8D180A21FFF73DFA2187284670BD240300100F
:200C8000E4020010F7B50F4C0546678F0E46781C0A21FFF72DFA208F814202D1002003B0CE
:200CA000F0BD0C20474308480A213A180298566015609060608F401CFFF71AFA61870120F1
:200CC00003B0F0BD24030010E402001010B50246FFF7D8FF10BD0000004006400080064094
:200CE00000C00640040D0000000000102000000010060000240D00002000001040050000F1
:200D00001E06000000366E010000000000000000000000000000000000000000000000000A
:040D2000E02E0000C1
:20100000300F0010B9100000112400008511000000000000000000000000000000000000ED
:201020008F9E939B000000006B000000C51000000000000000000000FF1000004D27000092
:20104000CB100000CB10000000000000ED280000CB100000CB10000000000000CB10000034
:20106000CB100000CB10000065230000CB100000CB100000CB100000CB100000CB100000EB
:20108000CB100000CB100000CB100000CB1000000D1D0000CB100000CB1000000000000004
:2010A0001D2400000348854600F0BEFD00480047894E0000300F00100448804704480047D3
:2010C000FEE7FEE7FEE7FEE7FEE7FEE781280000A5100000EFF3108072B6704780F31088F8
:2010E00070472B4A1368012B03D001231360294A1060294A11602948294901607047EFF30F
:20110000108272B62248016800291DD0002101602048016800290AD0EFF3098120390068A9
:201120000160F0C144464D4656465F46F0C11A4909680968F0C9F0B4F0C9A046A946B24666
:20114000BB46F0BC81F3098882F31088042040420047114908600F49002008600C490120CB
:201160000860104810490268114301600B480C49016000BF0D480068006800BF80F3088888
:2011800062B67047EFF3098000B504F04BFD00BD340100102C0100103001001004ED00E0D3
:2011A0000000001020ED00E00000FF0008ED00E030B50B46014600202022012409E00D461E
:2011C000D5409D4205D31D469540491B2546954040191546521E002DF1DC30BD70B5002413
:2011E0002546002801DA01244042002901DA01254942FFF7DDFFAC4200D04042002C00D017
:20120000494270BD03460B439B0703D009E008C9121F08C0042AFAD203E00B780370401C28
:20122000491C521EF9D27047D2B201E00270401C491EFBD270470022F6E710B513460A46CC
:2012400004461946FFF7F0FF204610BDCAB2401E4178401C8A4202D00029F9D10020704776
:20126000421C0178401C0029FBD1801A704710B5002200E0521C835C8C5CA34201D1002B17
:20128000F8D1D8B2E1B2401A10BD03460A780270401C491C002AF9D11846704730B505460A
:2012A0000020034600E05B1C934205D2EC5CC85C201A01D1002CF6D130BDF7B582B00F4637
:2012C0000026029C01F010FC0090006801902578641C002D05D000F06FFA0068405DC00780
:2012E000F5D12B2D02D02D2D1CD0641E00980021016039462046049A00F071FA0146002FC8
:2013000004D03868A04201D1029838600098006802280BD00098019A0260700506D54842FF
:2013200005B0F0BD012080020643DFE70846F7E7F8B502464A40D40F42004B0052085B08C1
:201340009A4202D20246084611464A0023D0C30D4A00DDB2120EAD1A202D35DA4902012655
:20136000490AF6058A19002C00D0524220214F1B1146B9402A411018C20D9A4221D0002C96
:2013800017D0012D08DCDA05801AD20F8019D207DBB200F07FFAF8BDDA05801A0123400000
:2013A0001B06C01880185A428018CA0F1043490007E04908C2071143DA05801A8019400844
:2013C000801800F05FFAF8BD61000122511A001BF7E70122D2075140AAE70122D2075040E5
:2013E000A6E7024670B54A40D30FDB0740002DD04A002AD0010E140E000212020919400A71
:20140000520A8418E50104465443000A120A2E045043A4194219200CC543AA18120C0125D0
:20142000AD03521C521912047F39240400D0521C104301D44000491EC2B20C06C009201899
:20144000401C4008802A02D003E0002070BD40084000002900DA0020184370BD70B502469C
:201460004A40D50F40004A00ED0740085208002814D0002A12D0C40DD30D41020120C005EC
:201480005202490A520AE41A091812187D34914201D3641C00E04900002C01DA002070BDAB
:2014A0000023914201D3891A0343400849000028F7D100290AD0914202D10121C90705E078
:2014C000914201D2012101E00121C943E005C018401900F0D7F970BD420005D04200120EB9
:2014E00052428A4201DB00207047C90508187047F0B51FB488B00B990998002448400999F1
:20150000C00F490049080991C0070B990090490049080B9109990898A64608431CD00B998E
:201520000A98084318D0099801244000420D4800410D099824050003000B204309900B9874
:201540000003000B20430B9050181C494018002201901446104605E0002001460DB0F0BD41
:20156000032801DA034600E003239C46C11A0AAE0AE05F0008ADED5B4F00F75B7D430027D3
:20158000AA187C41491C5B1E6145F2DD410004AB5A522104120C0A43240C401C0828DFDBD7
:2015A000019802900099704601910090059B049A0799069800F0FFF9D0E700000DFCFFFF6D
:2015C000F0B50C465C4085B0E40FE40703944C000026640859009446490802460296224327
:2015E00021D062460A431ED06200570D4A000E032303550D012402462C492405781B1B0BAA
:20160000360B401823432643614600901C46501AB44103D30098401C009002E092180098EC
:201620005B41002803DA0020014605B0F0BD0020012109050746864611E064461D46141BAA
:20164000B54106D36546521BB341744607430C43A646CD0740084908284392185B41054607
:201660000D43EAD11046184313D06046194650407140084306D06046101AB34106D20122A5
:20168000002306E000220123DB0702E00122D2435310009874460105381C6141029C039D10
:2016A0000019694100F07AF9BFE70000FD030000C217C10F504010B54018CA07962300215D
:2016C00000F0E8F810BD10B500229623114600F0E1F810BDC20F410040020123400ADB053E
:2016E000D207090EC0187F2901DA00207047962903DC9623591AC84001E096398840002A54
:20170000F4D040427047C20FD207400040080BD0C10D0723DB01C91840020905400A11431C
:20172000C20840071143704700200146704700000122D207002800DB101A002900DB511AD7
:20174000814270470122D207002800DB101A002900DB511A88427047F0B51FB40646002012
:2017600082B005464024019100901BE0019922460F46304600F07AFA049A059B801A994188
:2017800010D310461946224600F060FA361A8F410197224601200021009F00F057FA38186D
:2017A0004D4100902046641E0028DFDC019B00982946324607B0F0BD00487047E47100006D
:2017C0003A2800D23038202302469A43412A01D310463738884201D30020C0437047F7B5DD
:2017E00082B0029C00272078641C15460197302802D0002D15D015E020780127641C7828D6
:2018000004D0582802D0002D09D00BE0002D01D0102D07D1002710252078641C02E008251B
:2018200000E00A250026009610E00099012769430818020C294680B2714300908E1838048B
:20184000864201D3012001902078641C2946FFF7B7FF0028E9DA0398002805D0002F01D084
:20186000641E00E0029C04600198002806D001F03BF902210160C81E05B0F0BD00993004AF
:201880000843F9E7002904DA401C490001D140084000704770B40024050C05D110240004F9
:2018A00002D1002921D01124050E01D100020834050F01D10001241D850F01D18000A41C15
:2018C000002801DB4000641C002908D020252E1B0D46F540A14000D001212943084301069C
:2018E0001B1B000ADB1D02D5002070BC7047DB05181880180029F8DA401C4900F5D170BC9C
:2019000040084000704770B5002801DC002070BD410040020126400AF605090E8019CA07A1
:2019200001D14000491E4D10002211463F353346CB409B18D418844201D8001B1A46400067
:20194000491C1729F3DD5100814202D20021C94300E00021E8058018FFF794FF70BD10B5FC
:2019600041000DD04100090E962909DC7E290ADC07DB410205D0C00F7F21C007C90540186A
:2019800010BD002010BD9622541A20210A1B01469140E040FFF776FFA04010BD10B5002BC1
:2019A00008DA0024401C614192185B411A4301D14008400010BDF0B51FB482B005460C0058
:2019C00003D0084601F042F802E001F03FF82030024600902146284600F038F9049B059A55
:2019E00004460F4618431143084314D0184610431BD0009840210A1A1846059900F036F996
:201A000005460E46009A0599049800F01FF9084305D0012004E02046394607B0F0BD0020BD
:201A2000C11705430E432C43374300990E986305401A7905E40A00220C43FD0A0A3002D556
:201A400000200146E9E70105101969410C9C0D9D00196941FFF7A2FFDFE70000F0B5074612
:201A60000846584087B0C00F049048000E46590040084908BC1A884105D2384631461E4689
:201A800017460B4602465800400810434CD0300D039040055900400D490D0590401A0290AF
:201AA000402872DA18030121000B09050843019004980092002805D00199524200208841FE
:201AC00000920190029840210A1A0199009800F0BDF805460C466B4607CB00F0D8F8C01934
:201AE0007141039A0E0D0023D71756401A467A40164344D0049A002A2DD0029A012A039A25
:201B000015DC1205C01A914101263605001C7141D20F059ED2070093019202962A462346ED
:201B2000FFF749FF07B0F0BD38463146FAE71605224A0F46B218C01AB74101210905001C69
:201B40004F4100187F41114618187941E20F10436D19644113E0E2076D0815436408C2078F
:201B60001443039A01261205C01A91413605001C7141CE07400830434908C01851412A46C3
:201B80002346FFF70BFFCDE7FFE7049801224000C117121A00238B4104983146C417381A10
:201BA000A141EEE730B40124E407634030BC55E730B40124E407614030BC4FE70000E0FF19
:201BC0004A0009030123090B1B0519430A4B10B5520D9A4202DA0020014610BD064B3433DE
:201BE0009A4203DC9A1A00F041F810BD034BD21800F02CF810BD0000FF030000CDFBFFFF9F
:201C000010B5002904DB0124E40740428C412146002B04DB1C460123DB075242A34199426C
:201C200000D1904210BD0000064C0125064E05E0E36807CC2B430C3C98471034B442F7D3CC
:201C4000FFF734FA147200003472000010B5202A04DB0146203A9140002010BD91402023D3
:201C60009C1A0346E3401943904010BD10B5202A04DB0846203AD040002110BD0B46D34051
:201C8000D0402024A21A91400843194610BD10B5202A06DBCB170846203A1041C1170B43FB
:201CA00006E00B461341D0402024A21A91400843194610BD70B58C180578401C6B075B0FC3
:201CC00001D10378401C2A1106D10278401C03E006780E70401C491C5B1EF9D12B0705D485
:201CE0000023521E0DD40B70491CFAE70378401CCB1A921C03E01D780D70491C5B1C521E04
:201D0000F9D5A142D8D3002070BD000010B5084902208861074881680907FCD5142000F0BC
:201D200097F800221621104600F0D2F910BD000040800050004006400648016882051143B5
:201D4000016006480449816001680122114301607047000080800440000A00100080005080
:201D60000101034808188168042211438160704700840050012282400548002901D0826019
:201D800000E002610120034900050860704700004080005000E100E0F0B5284FBD68428893
:201DA0000023002A49D08188C6880C467443521E86685443A4198689714351430269891848
:201DC000027812015219654615605460D3609160C188042900D10321CAB28189042900D124
:201DE000032144880579641EA4056D08A409AD07AD0D103492072C43920C89071443090CD4
:201E00000C4301780A010E495218946044780122002C04D003781B0159180A6003E004788A
:201E2000240161180B60017813468A403A6200781A468240014840308262F0BD00800050AD
:201E40000084005010B504F01BFD04F09BFB10BD08B500210091814209D200BF00BF00BF3C
:201E600000BF00BF00BF00BF00BF491CF2E708BD10B5086800221146401CFFF71EFA034940
:201E8000002800D001200870002010BDE405001010B5012003F0CCFC02F02AF9002010BD28
:201EA00070B515A000F0C2FD002002F023F87D20C00004F0E5FC04F065FB12490322084618
:201EC0006438054604F086FF0321284604F0CCFF0C4C7F21C43CC905A06EFFF77AFAA0660D
:201EE0000C22294608A002F05DF902F001F9032002F000F8002070BD626567696E20464361
:201F0000410D0A00A8060010414343420000000010B5052002F03AF812A000F087FD154811
:201F200000220321044604F0EAFF7D20000104F0A7FC04F027FB0F4903220C31204604F0D5
:201F400049FF0C2221460CA002F02CF9032221460BA002F0C1FB02F0CBF8062002F016F821
:201F6000002010BD626567696E20464347320D0A0000000054060010475952420000000098
:201F80006D61746C61620000F8B5840A104D322011C52C6072B60E490E4E14310F460C48BB
:201FA000083DB04762B6686900280ED1342011C509482C600068686072B639460448083D86
:201FC000B04762B66869002800D00120F8BD0000A00A0010F11FFF1F8800001040207047BC
:201FE000012080027047000010B5002000F0BEF87D21C900FFF7DCF80149086010BD00004C
:2020000088000010F8B50546800A114C0F46322160602160A06072B60D490E4E14310C48ED
:202020000091B04762B6606900280FD13320A1C44020206008480068606072B604480C3C63
:202040000099B04762B66069002800D00120F8BDA00A0010F11FFF1F8800001030B5044692
:202060001A480D460168402319430160130000F01DFD09061A26240D2424240F24000022C4
:202080002946204600F066F8022212E0012200E000222946204600F01BF801222946204612
:2020A00000F058F809E000222946204600F052F800222946002000F091FA002030BD00226B
:2020C0002946204600F046F80122F2E78080044001208840002A01D0024901E001498031B2
:2020E00008607047002200A070B5184C25680126334683409D432560002904D001290AD020
:20210000022910D119E06168002A01D0194300E09943616007E0002A02D02169194301E073
:20212000216999432161FF2161621830C006C00E864007480660002070BD6168002A02D06B
:2021400019436160E9E799436160E9E7004000A000E100E001208840002A01D0024901E074
:202160000149803108607047802300A0010003D0012800D0002070470148006870470000F6
:202180000000001008B56946002000F0C1FB0028F9D16846007808BD1CB530A107200191BF
:2021A000009000230122D8212FA000F03FFC35A000F03CFC3C4C3DA13FA0626D00F036FC23
:2021C00040A13DA0A26D00F031FC20468030026D3FA139A000F02AFC04F05EFB6421FEF7FA
:2021E000FDFF02463BA134A000F020FC2046C030427E3BA130A000F019FC3BA000F016FC3B
:202200003FA000F013FC41A0E16D02F01DFA42A000F00CFC2146032260313CA002F05CFA8D
:202220003FA000F003FC36A000F000FC42A0E16E02F00AFA43A000F0F9FB214603227031F3
:2022400032A002F049FA43A000F0F0FB214603227C312EA002F040FA00201CBD4175672050
:2022600020342032303138000D0A484925642025642E25642E2564206275696C64202573EF
:202280000D0A000032303037202D203230313820436F707972696768742062792048695031
:2022A0004E55430D0A000000E405001073616D706C655F6672710000252D31367325640D3C
:2022C0000A000000667573696F6E5F66727100004F44520074696D652873293A0000000026
:2022E00072635F636E7400006163632063616C6272696174696F6E20696E666F3A0D0A0079
:202300006D61747269783A0D0A0000006E6F68656164657200000000626961733A0D0A00A1
:202320006779722063616C6272696174696F6E20696E666F3A0D0A006E6F68656164655260
:202340007200000066632067797220626961733A0D0A000073626520677972206269617355
:202360003A0D0A0070B50C4CE0680125C007002809D0E0682843E06008480221006803F098
:20238000C5FB04F0DDFCE069C00704D0E0692843E06101F087FF70BD004000400C00001097
:2023A00070B505460B480C4601680215114301600020FFF7DBFE0849FEF7FAFE0749002333
:2023C000086007492A0152189360444348040443146070BD8080044040420F008400001099
:2023E00000400040084B00010122C0180029816801D0114301E0490849008160012003490E
:2024000080020860002070470040004000E100E010B500F001F810BD7047000010B50A4970
:20242000FF2048620948007801280BD108488068000707D507480178002903D10121017092
:2024400001F030FF10BD0000004000A0E4050010004006406800001000B50146002000F0AC
:2024600097FA002000BD0000BFF34F8F03490248C860BFF34F8FFEE70400FA0500ED00E05B
:2024800070B50E460F490A680323DB021A430A6000210D4D8400285901600846FFF766FEA6
:2024A0003146FEF785FE401E00D50020295948620720295900060862295905200860002066
:2024C00070BD00008080044004700000F8B51C468000114D2F58BD68AE0709D5002B07D0E9
:2024E000002A02D01678521C00E0FF26FE615B1EED070CD0002C0AD0074D00292D586D6959
:2025000002D00D70491C01E06E463570641E1D462543DED10020F8BD0470000030B5244B34
:202520001C6880252C431C60FF249440214D9140030000F0BBFA08050C131A21282F360BAA
:202540002868A043286028680843286030BD6868A043686068680843686030BDA868A043F2
:20256000A860A8680843A86030BDE868A043E860E8680843E86030BD2869A043286128692A
:202580000843286130BD6869A043686168690843686130BDA869A043A861A8690843A861C9
:2025A00030BDE869A043E861E8690843E86130BD8080044000C00040014A51601060704778
:2025C0007800001010B504490863002048630120486300F0C3F810BD4080044010B53348A3
:2025E00003680124A4042343036000200B0000F05DFA180D0F1215181B4D1E2124272A2DAC
:202600003033364D393C3F4245484B4D28483DE0274818383AE026482C3837E02448303896
:2026200034E02348343831E0214838382EE0204808382BE01E480C3828E01D48103825E0A0
:202640001B48243822E01A4828381FE018483C381CE01748403819E01548001D16E014488C
:202660001C3813E01248443810E0114834300DE00F4830300AE00E482C3007E00C482830BD
:2026800004E00B48243001E0094820300168182399430160002A06D0012A03D101681022B2
:2026A0001143016010BD01680822F9E78080044044400440F0B51F4B9C6B8025AC439C6370
:2026C000012810D19C6B2025AC439C631A4B9C6B1825AC439C635C6BAC435C63174B1C68C4
:2026E000C025AC431C60164B18600020586001205860144D144E034601201C464C4394420C
:2027000010D1470057437F19B7420BD2400841015B1E0B48194340388160C168C907FCD0B9
:202720000020F0BD40000828E9D95B1C202BE3D30120F0BD0082044000400440C0C1004049
:2027400040800440FFA0B3F6FF70C60910B503F087FA04F0A7F803F08FFA10BD70B5364D32
:202760000020696AC905090F0B0000F09FF91026090B0D0F11131517191B1D1F2123252638
:202780002E481AE02E4818E02E4816E02E4814E02E4812E02E4810E02E480EE02E480CE0F1
:2027A0002E480AE02E4808E02E4806E02E4804E02E4802E02E4800E02E48696AC906C90E08
:2027C000491C4900FEF7F4FC1B4A4032116B2A4E89072A4C890F11D00023012904D00229D0
:2027E0000ED003291AD10DE010688007800F05D0012803D0022810D003280FD126600DE010
:2028000020600BE010688007800F0DD001280BD0022802D0032801D106E02360916B2068F8
:20282000FEF7C6FC206070BDA8681349C006C00E401C4843E4E7000000800440C0270900CE
:2028400090051000C05C1500F0B31A00200B2000009F2400E0322900C0C62D0050973100D1
:20286000E06735007038390000093D004016400080234300C0304600001BB7000000001021
:2028800070B517491F2008611548C0380168154A11430160144800240460446001234360EA
:2028A00000E000BF4168C907FBD00F49412240398A600B4DC035AA6B8026B243AA6300E02D
:2028C00000BFCA68D207FBD0032101634463436300E000BF416BC907FBD0836370BD000095
:2028E00040810440800004004080044008B56946002000F00DF8002807D1044800680028EE
:2029000003D06946097803F036FB08BD280000108200054880588268D20703D04069087035
:202920000020704701207047F86F000010B5124A0446106807239B03184310600120506139
:202940000D4A002040325063FF201063204600F029F8FF2201320949A0000B585A600B580C
:20296000074A9A600858074A026007490748FFF723FE002010BD000080800440F86F0000AB
:20298000FFFF0000050030008521000059240000034A8000105882685207FCD5C1617047BF
:2029A000F86F0000F8B5124E850070590C4601684908490001600020FFF7D8FB21010F463F
:2029C000FEF7F6FB441E0020FFF7D0FB390A621C5143FEF7EDFB0749FF3801384863705968
:2029E000046270590168012211430160F8BD0000F86F0000C08004400A4B8100595801231C
:202A0000002A06D0CB600849002804D0012806D103E00B6103E0082000E01020086000204C
:202A200070470000F86F000000E100E00FB410B503A9044B044A029800F0CEFA10BC08BC04
:202A400004B018473D490000800000102021020C01D010211046020A01D010460839020927
:202A600001D01046091F820801D01046891E420801D0881E7047081A7047F0B4040C8BB26D
:202A8000264682B25E430D0C1046370C5843360480190021794116466E43370C36048019D7
:202AA000794126466E438919F0BC704730B47446641E2578641CAB4200D21D46635D5B00C0
:202AC000E31830BC18474100080200D004200A0E01D001221043090EFF2901D10221084393
:202AE000012800D105207047004870475C01001010B50121FEF7F0FC10BD10B5FEF718FC31
:202B000010BD10B500210846FEF7A8FC10BD5E2110B5C9430807FEF7DFFC10BDF0B50E4659
:202B200014465100FF22120687B0914203D31116316007B0F0BD01202502C0070543E00D71
:202B40007838C206D20E2020871A6000000E7838401181004D4878440B189C464358002A31
:202B600014D06046406893400146F84003436046806891408646F8400143039160467146F3
:202B8000C0689140F84001430F4603E0604641680391876818462946FFF76FFF029104905E
:202BA00029460398FFF769FF0391069038462946FFF763FF0F460698029B3D18049A03991F
:202BC000BD4201D2012700E000278818C019002F02D0884202D903E0884201D2012100E053
:202BE000002159180A4620329709C20C8906520340033760114301900846FEF759FD029065
:202C00000198FEF760FD1221C943FEF765FC01902846FEF758FD2521C943FEF75DFC0090BB
:202C200001990298FEF784FB0099FEF781FB0121C9024018050B2D0328460299FEF7C9FB9B
:202C40000199FEF7C6FB0099FEF7C7FB1049FEF7C8FB00900F492846FEF7C3FB0099FEF72C
:202C600067FB00900C492846FEF7BBFB0099FEF75FFB002C00DB5CE701210907C91B31601B
:202C80000121C907484007B0F0BD0000E6450000DB0FC92F22AAFD290000C92F002806D061
:202CA00002060D49120E03D0C0B2085C401C70470204120E04D00004000E085C093070477A
:202CC0000202120E04D00002000E085C11307047000E085C193070470C70000002E008C8F0
:202CE000121F08C1002AFAD170477047002001E001C1121F002AFBD1704700000149086024
:202D0000704700005C01001010B581780446402910D8E07810280DD80818801D404240083A
:202D20004000404281B2A01D891F01F08BFAA188884201D0012010BD002010BD30B50F49E7
:202D400000200F4D0B88CC6808E021180A88521908D0112A05D0222A04D0801C8342F4DCD9
:202D6000084830BD8A78C9785118891D494249084900494289B20818F0E70000200E0010A4
:202D80003400FFFFFFFF0000F1B50024104E114F16E0F06805192888F84210D1A91D0098E6
:202DA000FEF765FA002810D0A878E9784018801D404240084000404280B2041900E0A41CC6
:202DC0003088A042E5DC0448F8BD2046F8BD0000200E00101200FFFFFFFF0000F0B51FB4B8
:202DE00084B007980699020D014314D04A484B491018484305140F9801280E981CD0281A94
:202E0000401C0024464E4749009401910290002814DA474227E00F98012443A3012808D0FD
:202E2000002104980F9A84600360C260416009B0F0BD0E98C143F4E74042E2E7074612E0AD
:202E4000F80707D02246334601990098FEF750FB019100902246334610461946FEF748FB59
:202E600004460E467F10002FEAD10298019B0028009A0799069802DAFEF73AFB01E0FEF729
:202E80009FFB04460E460022284BFEF7B9FE03D80020C043014607E00022254B204631461E
:202EA000FEF7DCFDFEF78CFE102409E0002C0ADB0A220023FEF750FC059B30321A55641E14
:202EC00002460A43F2D11122641C059B121B1C190F9B012B03D0012308430ED10AE00843B9
:202EE00004D011200E9000200F9084E70E98151A6D1E0BE00E98824202DD00236D1C03E0E2
:202F0000824201DA00236D1E002BEED004980F998260C16030C08AE701FCFFFF104D00007B
:202F2000000024400000F03F300000000000F0430000E03FF8B50024204F26462046B88032
:202F40000FE0F8681E4905192888884204D12846FFF7DAFE00280CD02220F968C04308530D
:202F6000A41C3988A142ECDC154B3046113BFA681DE0A878E9784018801D40424008400024
:202F8000404282B2F86801198019FEF73BF9A878E9784018801D404240084000404280B20B
:202FA00004198619B888401CC9E71352801C8142FBDC881B78803046F8BD0000200E00106A
:202FC000EEFF000003480168814201D0012070470020704710010010FFB597B00646002580
:202FE00018E2252877D100242746FD49049400E00443761C32780120203A90400842F7D113
:2030000030782A280ED00222307801463039092916D804990A235943303940181443761C2C
:203020000490F1E7189802C804911890002904DA0120400304434842049002200443761CA2
:2030400030782E2814D1042004437078761C2A2809D11898761C80C8189009E00A214F43A4
:20306000303FC719761C3078014630390929F5D930786C2810D006DC4C281AD068280ED04D
:203080006A2817D104E0742813D07A2812D110E00120400504430CE00121090501E0032110
:2030A00009050C437178814203D1012000052418761C761C3078119066280BD013DC58288C
:2030C0007DD009DC00287BD04528F6D04628F4D047281AD1A5E118E0632835D0642870D0B2
:2030E000652812D19DE170286CD008DC6728F1D069287BD06E280DD06F2806D1BAE07328E8
:203100002ED0752871D0782859D01A9A199990476D1C7EE16002400F022809D003280DD029
:203120000428189801680DD00D60001D189070E11898EA1701680D604A60F6E718980168C3
:203140000D80F2E70D70F0E718986A4601781172001D18900020507202A80090012005E072
:20316000189802C8189000200091C04361070DD5002101E00199491C0191B94212DA8142F2
:20318000F8DB009A515C0029F4D10BE0002101E00199491C01918142FADB019A0099895CF8
:2031A0000029F5D1019904981A9B471A21463846199A00F097FA0199401945180BE04FE051
:2031C0002CE113E04EE0009800990078491C00911A9A199990470198401E0190401CF2D13E
:2031E000214638461A9B199A10E137E00A200021009001916002410F022907D0189A01CADC
:203200001892C2179446032908D00AE01898C01DC108C90005C91891944607E000B2C21781
:203220009446042902D140B2C1178C4600226146944506DA0A460021404291418C462D21B1
:2032400002E0210504D52B216A461173012103E0E10701D02021F7E7029155E00A200AE054
:20326000102008E0102000900021042004430191082703E008200021019100906002410F29
:20328000022907D0189A01CA189200229446032908D008E01898C01DC108C90005C9189187
:2032A000944603E080B2042900D1C0B200210291210729D51199702906D0009A1021019B55
:2032C0004A401A4305D00EE040216A461173012108E06146014306D030216A4611731199B5
:2032E000517302210291009A0821019B4A401A430AD16146014301D1610705D530216A4633
:20330000117301217F1E02911199582904D035A10E910DA90D910DE037A1F9E76146019B27
:20332000009AFEF719FA0E9B8C469B5C0D9A521E0D92137061460143F0D10D9805A9081A1F
:2033400020300190600703D501200004844300E001270198874201DD381A00E0002001992D
:2033600000904118029809180498401A0490E00306D421461A9B199A049800F0B3F94519FD
:20338000002706E003A81A9AC05D199990476D1C7F1C02988742F5DBE0030CD521461A9BE4
:2033A000199A049800F09EF9451904E01A9A3020199990476D1C0099481E00900029F5DC56
:2033C00008E00D980D990078491C0D911A9A199990476D1C0199481E01900029F1DC63E1AE
:2033E00009280100303132333435363738396162636465660000000030313233343536379D
:2034000038394142434445460000000000F05AF94519761C3078002800D0E2E528461BB0D3
:20342000F0BD600700D406271898C01DC108C90048680A680831C30FDB071891190001D0B6
:203440009CA108E0210501D59BA104E0E10701D09AA100E09AA1430011985B08109165289F
:203460000CD006DC452809D046281DD0472841D141E0662818D067283CD13CE00021112FBC
:2034800001DB112000E0781C0191009008A911A8FFF7A4FC139905910021119A15927F1C39
:2034A00012980197009150E00120C00703900120019008A9009711A8FFF790FC139A1499FF
:2034C00005920022119B009212981593059A0192002901D0104602E0791C40180190381A6F
:2034E00001D5019804E04042401E0090781C0190C01B029043E0012F00DA01270021112FC1
:2035000001DD112000E038460191009008A911A8FFF764FC13990591119A002112981592FD
:203520000091019721070CD40599B94201DB019900E00191012904DD159A491E515C3029B2
:2035400006D0B84201DA011D05DA0121029115E00199491EEDE7002805DC009941180091B8
:203560000199091A03E0019A411C914200DD01910099401A401C02900120C00703902007EE
:2035800006D402990198814202DB0020C043029000206946C87707AF012103980337C9073D
:2035A000884224D0022011902B201290039800280CDA404203902D20129007E00A21039843
:2035C000FDF7F6FD30317F1E039039701199481E11900029F2DC03980028EFD1791E12985E
:2035E00008703078202108404530BF1E387006A8C01BC01D039010980078002800D00120F6
:20360000019941180298C0170918039809180498401A401E0490E00306D421461A9B199AF5
:20362000049800F05FF8451910980078002803D01A9A199990476D1CE00324D521461A9B70
:20364000199A049800F04EF845191CE00098002807DB00990598884203DD1598405C19990E
:2036600001E0199930201A9A904700986D1C401C00900298401E0290002804D11A9A2E2046
:20368000199990476D1C0199481E01900029DDDC05E038781A9A7F1C199990476D1C039913
:2036A000481E03900029F4DC21461A9B199A0498ACE600002D0000002B00000020000000A3
:2036C00000000000F8B5044600251E461746880404D405E039462020B0476D1C641EF9D535
:2036E0002846F8BDFFB50446002581B01E46C80301D5302700E02027880404D505E0384608
:203700000399B0476D1C641EF9D5284605B0F0BDFEB5044609A8E0C8194620461430089B6B
:20372000A061A362226261626061AAB2A2851846232102F0BBFCA18DA06A0F4B4218121F90
:20374000616A206A02F070FA2146E06120318E754E7567640020A76420630875A067E067B5
:203760000090019023462046044A19464C3003F022F90020FEBD0000C1650000CF670000EB
:2037800010B5029C6408640044720262C161002143628162CA00121814325260491C12604E
:2037A0000129F7DB10BD10B50022D1000918143118C908395C6018C9083923604960521C88
:2037C0000960012AF1DB10BDF8B504464721400049060D2241181206914253D83F21490681
:2037E00088421BD960007F214008C905FDF7F5FD0021C943FDF770FE074603F077FA002CA3
:2038000004DA2F4D2D4EA907484001E02D4E2E4D03218907FDF7E5FD044606E0002621467D
:2038200035460846FDF7DDFD074628493846FDF7D8FD2749FDF77CFD3946FDF7D2FD25495F
:20384000FDF776FD3946FDF7CCFD2349FDF770FD3946FDF7C6FD2149FDF76AFD00903946EE
:203860002046FDF7BEFD0099FDF7BBFD074629462046FDF75DFD3946FDF75AFD3146FDF749
:2038800057FDF8BD39214906884208D22046FFF71AF9042801D1FFF73AF92046F8BDFF2101
:2038A0000906884203D92046FFF722F9F8BD0120FFF724FAFFF725F9F8BD00000000C9BFA1
:2038C00022AAFDB90000C93F22AAFD3924FE1C3DC78AD83C1E67383D1B93993DAFAA2A3E3D
:2038E00008B5002208210DA002F0AAFA0D4C0122206011460020FFF77FF80621201D00F049
:2039000041F90025ED432A466946206802F0BDFA0098C0B200F03CF9F5E700006D625F612E
:203920007400000028000010F0B50C4601461D224B00D2069F18E52605463606620087B059
:203940002046B7427DD21D27FF06D719B74278D24F0043003E0E1A0EB21A1B2A07DD002919
:2039600002DA754807B0F0BD744807B0F0BD1A26F24217DA002807DA002902DA704807B048
:20398000F0BD704807B0F0BD21462846FDF766FD0446FFF798F8042801D1FFF7B8F8204658
:2039A00007B0F0BD9F4211D9002902DA664F674E01E0674F674E23462C461D460122034673
:2039C000D20708465440504019460BE0002807DA002902DA604F614E04E0614F614E01E0C2
:2039E00000263746421A012352001B069A4230D248405D490BD5BF20000603903846FDF75B
:203A0000E8FC074659493046FDF7E3FC0AE03F20000603903846FDF78BFC07465349304650
:203A2000FDF786FC064628460399FDF7DAFC2146FDF77EFC009021460398FDF7D2FC294658
:203A400000E03AE0FDF7C9FC0099FDF707FD044604E021462846FDF701FD04460146FDF7A8
:203A6000C0FC43490090FDF7BCFC4249FDF760FC0099FDF7B6FC4049FDF75AFC0099FDF748
:203A8000B0FC3E49FDF754FC0099FDF7AAFC3C49FDF74EFC054620460099FDF7A2FC29466E
:203AA000FDF79FFC3146FDF743FC2146FDF740FC3946FDF73DFC07B0F0BDFF263606B342D0
:203AC00001D8B24205D901462846FFF716F807B0F0BD2F4607437F000AD0B3420CD1B24240
:203AE0000AD101229207904391430D4604462FE7FF22D2051043F9E7B34208D0460006D0C1
:203B00005340F4D4002A08DB9F26F60507E0FF22D2051143E00FC0071AE75F26F60531469C
:203B20002846FDF75EFC054631462046FDF759FC044629460CE70000DB0FC9BFDB0FC93F48
:203B4000DB0F49C0DB0F49400000C9BF22AAFDB90000C93F22AAFD39000049C022AA7DBADF
:203B60000000494022AA7D3A0060ED3EC30ACE372DAD65BD8FB8D53D0FB511BE61C84C3E41
:203B8000A8AAAABE014AD1609060704738010010F8B53B4E3278002A0DD0012A0FD0314697
:203BA000384B4968022A13D0032A0ED10D281BD00A2819D043E0412807D1012040E054285A
:203BC00004D00020307000207060F8BD0220F9E70D2807D00A2805D0402903D05854491C4A
:203BE0007160F8BD03202BE00020264A0446505422E03D212348FDF729FB002806D03D2154
:203C00002048FDF723FB1F49451A00E07568B068E700C059FDF724FBA84204D3B068C05989
:203C2000FDF71EFB0546B0682A46C0591549FDF735FB002806D0641CF0688442D9D30020A1
:203C40003070F8BDB168E0000858FDF709FB0D4940180090B06869463818426801209047C7
:203C6000002802D0012805D101E007A000E008A0FEF7DCFE40210348FDF7DDFADFE700002F
:203C800038010010E00D00104F4B0D0A000000004552520D0A00000070B51E4E0546706081
:203CA0000024016820468847002001F07DFE0F2811D1B621142003F08DF9E9680A208847CF
:203CC000022000F063F9002000F08AF90021132003F080F9012470680168012088470020AD
:203CE00001F062FEFA280ED1032000F003F9082000F026F903210F2003F06CF9002113202D
:203D000003F068F9641C022C01D0012070BD002070BD00008C0000107CB52C4D04466868D5
:203D2000016801208847822069460870686800224368012168469847686801228368062110
:203D4000684698476946088800B2FDF7B1FC69462060488800B2FDF7ABFC69466060888879
:203D600000B2FDF7A5FCA0606878032806D0052807D0082808D00C280BD108E07125ED058F
:203D800007E039252D0604E07325ED0501E01D256D0669460020085EFDF78AFC2946FDF795
:203DA00020FB206069460220085EFDF781FC2946FDF717FB606069460420085EFDF778FCEA
:203DC0002946FDF70EFBA06000207CBD8C00001038B5114C05466068016801208847882024
:203DE00069460870606800224368012168469847606801228368114668469847694608786F
:203E0000FDF761FC0021C943FDF766FB0349FDF78FFA2860002038BD8C0000100000B841D4
:203E20007CB5174D0446686801680020884782206946087068680022436801216846984766
:203E40006868012283680621684698476946088800B2FDF72DFC69462060488800B2FDF71D
:203E600027FC69466060888800B2FDF721FCA060E9782246684600F005F800207CBD000020
:203E80008C00001070B5154606460B00FEF70EFE050C0A0806040D00114C06E0114C04E0F0
:203EA000114C02E0114C00E0114C0020305EFDF7FFFB2146FDF795FA28600220305EFDF777
:203EC000F7FB2146FDF78DFA68600420305EFDF7EFFB2146FDF785FAA860002070BD000087
:203EE00000007A3B0000FA3B00007A3C0000FA3C00007A3D10B50446104804704068016849
:203F0000012088472300FEF7D1FD080507090B0D0F11130B08210CE009210AE00A2108E01C
:203F20000B2106E00C2104E00D2102E00E2100E00F21102003F04EF8002010BD8C0000101D
:203F400010B504461048447040680168012088470F2001F029FD01090901032C06D0052CB5
:203F600006D0082C0BD00C2C04D10AE0032000E0052001430F2003F02DF8002010BD08209D
:203F8000F7E70C20F5E700008C00001010B50446124884704068016800208847102001F021
:203FA00003FDC108C9002300FEF780FD080905070E1016121409012000E0022001431020C3
:203FC00003F008F8002010BD0320F7E70420F5E70620F3E70720F1E70520EFE78C0000106A
:203FE00010B504460F48C47040680168002088470F2001F0D9FCC108C9002300FEF756FD35
:2040000005080F0D06040800042000E0032001430F2002F0DFFF002010BD0220F7E70120ED
:20402000F5E700008C00001010B50124FEF7ACFE0749884209D00749CA6810183322D24378
:2040400002808888401E88800024204610BD0000FFFF0000200E001010B5FEF76BFF014868
:20406000408810BD200E001070B504460E46084601F072FE074D0028E86009D0B1B2AC60EF
:20408000298062689047FFF7E7FF6880002070BD012070BD200E001010B500F001F810BDBE
:2040A00008B56A4600F002F808BD0000F8B516460F460125FEF768FE0B49884211D00B49B2
:2040C000C9680C182046FEF71FFE002809D1E178A01D0918A2783846FDF794F8A0783080FA
:2040E00000252846F8BD0000FFFF0000200E0010024A1188D068926812681047200E001016
:20410000FFB5074683B011206E46C04330801C461546B2703846FDF7A3F8401CC0B269466A
:20412000C870002C2BD089780818801D404240084000404281B22046FDF77DF83946A01D98
:20414000FDF7A3F86946C978A01D08182A460499FDF758F869468878C9784018801D40424B
:2041600040084000404281B2A01D891F00F06AF869468880062231462046FDF743F86946B1
:204180008878C97807B04018801D404240084000404280B2F0BD13B5042201A900F002F845
:2041A0001CBD0000F7B5254E144601250023224601990098FFF7A4FF07460098FEF7E4FD76
:2041C0001F49884219D0F1680F18B978A14207D1F16822460B1801990098FFF791FF2AE0B2
:2041E000FEF7A8FEB878A04203D27188201A814222DB0098FFF718FFD7E7FEF79FFD1049FD
:20420000884203D03188091AB94203DAFEF792FEFEF794FD0A4988420ED03188091AB94270
:204220000ADBF16822460B1801990098FFF768FFB088401CB08000252846FEBD200E0010D6
:20424000FFFF000070B500221546094E0CE0435D1B025A4000245300120400D57340641C8F
:204260001A46082CF7D36D1C8D42F0D390B270BD21100000F0B503880026094F0CE08C5DA2
:204280002402634000255C001B0400D57C406D1C2346082DF7D3761C9642F0D30380F0BDD6
:2042A0002110000010B506480078012806D105484178002902D0406802F014F810BD0000CE
:2042C000E40500106800001000228EB01146CFA001F0E8FFCF4D6860FDF72EFD0124694698
:2042E0000C724C728C81CC81CB4806900020888208221621FDF7B2FE012215210020FDF7E3
:20430000ADFEC64915208863002101220846FDF7EBFE01210846FDF72DFDC14E304634709D
:204320008030016DBF48FCF743FF01460120FEF737F801210846FEF755F86C70B5480021EB
:20434000C943406801F0ECFFA521B74800F06CFCB348B6A209A9001D01F086F80322B449FD
:2043600009A802F0BDFD0026AD4FBC1925468035287A00287ED090280BD1214688310122DA
:20438000A94800F035FC39460122D831A64800F02FFC287A60280BD1214688310122A24824
:2043A00000F026FC9E49202298319F4800F020FC287AB02826D19A4F796A386A0C91BF6A61
:2043C0009C49FDF70EF8FDF785F96946088099490C98FDF706F8FDF77DF96946488095491E
:2043E0003846FCF7FEFFFDF775F9694688802146883101228C4800F0FBFB062269468A4890
:2044000000F0F6FB287A864FA12822D18A49F86AFCF7E7FFFDF75EF9694608808649386B86
:20442000FCF7DFFFFDF756F9694648808249786BFCF7D7FFFDF74EF9694688802146883168
:204440000122794800F0D4FB06226946764800F0CFFB287AE0280BD12146883101227248E7
:2044600000F0C6FB6E49042250316F4800F0C0FB287A00E0B0E0F0280CD1002021460C90A1
:2044800088310122684800F0B3FB04220CA9664800F0AEFB287AD1280AD121468831012217
:2044A000614800F0A5FB1022391D5F4800F0A0FB287AC02813D1574901224888401C4880E4
:2044C0006946088000204880888021468831564800F08EFB06226946534800F089FB287AF6
:2044E000A02822D154497869FCF77BFFFDF7F2F8694608805049B869FCF773FFFDF7EAF80C
:20450000694648804C49F869FCF76BFFFDF7E2F869468880214688310122434800F068FB2B
:2045200006226946404800F063FB287AB12822D14249786CFCF755FFFDF7CCF869460880BB
:204540003E49B86CFCF74DFFFDF7C4F8694648803A49F86CFCF745FFFDF7BCF869468880CD
:20456000214688310122304800F042FB062269462D4800F03DFB287AD02829D12D4D0A982F
:204580002946FCF72EFFFDF7A5F8074629460998FCF727FFFDF79EF8054628490B98FCF7A9
:2045A00020FFFDF797F879426A4691836942D183E1214042C900401810842146883101225F
:2045C000194800F015FB062207A9174800F010FB761C102E00D2C7E6134800F035FB124824
:2045E00000F050FB694648810F48049002A8FDF7D3FB012216210020FDF76AFD0120FDF7C7
:20460000AFFB04490020087098E600006F64725F73656D00680000101C4006404081044085
:20462000E405001040420F001407001033323100E12E65420000C84200007A440000204150
:2046400010B5FDF7FFFB10BD70B50D46044615A1FCF70DFE16A12046FCF709FE002804D150
:204660006A88298814A0FEF7E1F9002615E000240CE070430019696880000858FDF743F83D
:2046800002460B4611A0FEF7D1F9641C6888A042EFDC10A0FEF7CAF9761C2888B042E6DC96
:2046A00070BD00006E6F686561646572000000006D61746C616200006D61747269783A281F
:2046C0002564782564290D0A0000000025382E34662000000D0A000070B50D461646044696
:2046E00011A1FCF7C4FD002809D012A12046FCF7BEFD002805D0214610A0FEF797F90024CF
:204700000BE031460EA0F8E701CDFCF7FCFF02460B460FA0FEF78AF9641CB442F4D30BA046
:20472000FEF784F970BD00006E6F686561646572000000006D61746C61620000257300008B
:20474000766563286C656E3A2564293A0D0A000025382E3466200000FFB58BB01346149F37
:204760000D463A4619460B9800F002FF0321284602F064FB354C07A9A0600B9800F002FCCE
:2047800004AA294607A800F0C7FC032104A802F06BFB7F25ED0529460698FCF7C9FD0021F5
:2047A000C943FCF799FE02F0A1FA2E027040009029460698FCF7BCFD0121FCF78DFE02F01B
:2047C00095FA014605987040FCF748FE019029460698FCF7ADFD0121FCF77EFE02F086FA3F
:2047E00001460498FCF73AFE0026039602902946A068FCF7EEFD400040081549E060884215
:2048000001DA25610BE01349884201DD266106E01149FCF7E6FD1149FCF78AFD20613846D8
:204820002168FCF7DEFD2169FCF7DBFD01462061684600F001FE68460B9900F05DFC0422A6
:2048400069460B9802F0C6FA0FB0F0BD480100100AD7233CCDCC4C3D0000C8C10000A03FC5
:20486000F8B50D460446032102F0FEFAFF21C905A06800260F02C8422AD27F21C905FCF74C
:2048800057FD711EFCF728FE02F030FA28607F21C905A068FCF74CFD0121FCF71DFE02F0A4
:2048A00025FA01466068FCF7D9FD784068607F21C905A068FCF73CFD0121FCF70DFE02F0CD
:2048C00015FA01462068FCF7C9FDEE60A8602BE001467F20C005FCF77CFD0121FCF7FCFDBB
:2048E00002F004FA01466068FCF7B8FD784028607F20C005A168FCF76CFD0021C943FCF7E8
:20490000EBFD02F0F3F9AE6068607F20C005A168FCF75FFD0121FCF7DFFD02F0E7F9014635
:204920002068FCF79BFDE860284600F039FBF8BD01490860704700004801001010B5054900
:2049400004460868002802D00968E0B28847204610BD00007800001086B000214BA001F0E3
:204960006DF84B4D6423A860022000900022494949A001F0FAFF02F03DF84848FFF7D8FFEE
:20498000474E32462C32F06D114618390292039100F0E1F93146603103220191029802F06A
:2049A000CAFA311D0298FFF75BFF0120002734462870803404A800230090DB430622FF2128
:2049C000A86801F04BF80498400757D5F06D029A039900F0C0F903220199029802F0ABFA56
:2049E0002F4AF06E3832114618390092059100F0B2F92B4903237031009A059802F088FA25
:204A0000274A03234432114605923831009802F07FFA244B244A2549059802F04BFA2348A5
:204A200000220321183002F06AFA1D480023204A0321B83002F0E9F9002806D11B48032239
:204A40001830029902F0C6F9A761184A1948174B114600900C331831301DFFF77DFE13480D
:204A600015498068FCF7BDFC1449FCF7F7FC616BFCF75EFC60636868401C6860049800078E
:204A800098D56868B0656F6094E70000657674005C0000106D6D00007431000000002041DF
:204AA000E40500100000404035FA8E3CF00600100AD7A33C0AD7A33BE12E654200004843BE
:204AC00030B5032187B0084600F0E2F8384C0321E065084600F0DCF8FF250135E066294670
:204AE0003448FFF7C1FA002000F0A2FE322080342065E120400260652FA003C80490059182
:204B00002046072204A9083001F0ADFA0020616DFDF748FF0820FF210290F531284A28487E
:204B200014240092019100230394264A26A1803801F0C4FD2248803801F018FE142001F070
:204B40009FFE01F01FFD0920FF230090AF3300222049019420A001F0F5FC01F007FE07200F
:204B6000FF21029091311E4A1D4800920191002303941C4A1CA1803801F0A0FD1848803895
:204B800001F0F4FD142001F07BFE01F0FBFC132000902B460022154901940CA001F0D2FCF9
:204BA00001F0E4FD01F0BCFD01F0F0FC07B030BDE40500100400001090A0B0C0D0F000008B
:204BC000E0010010C95500007261775F646174610000000059490000667573696F6E00004D
:204BE00054040010E138000061740000C942000070B504468378C07815460002FF261A18FE
:204C00000136B24201D9012070BD1A19801D10182A46FCF7F7FAA078290A4019A070E078E9
:204C20004018E070002070BD10B55A220270417000218170C17001714171FF210131801DC5
:204C4000FCF7F9FA002010BD18B50446002069460880022221466846FFF70CFB0222A11CFC
:204C60006846FFF707FBE178A07809024218A11D6846FFF7FFFA694608882071000A6071B2
:204C8000002018BD8178C0780002801D0818704770B50E46054670438000083001F05CF804
:204CA00004000AD0204608306060258066800021204600F016F8204670BD002070BD10B503
:204CC000044600F0D2F800217F20C00505E04A43521892006368491C985062888A42F6DC3D
:204CE00010BD10B5002203E094004368521C19510388448863439342F6DC10BD30B500238D
:204D000008E0448845685C436418A4002C599D0054515B1C04889C42F3DC002030BDF8B542
:204D200005460E46008802F05FF8074600240BE03A4621462846FFF7E1FF2988384600F05D
:204D4000E5F8A1007050641C6888A042F0DC384602F057F8F8BDF7B582B0164607460025D7
:204D60001BE00021A800009031500C4611E0684300197968800009580398A2008058FCF78D
:204D800030FB00997158FCF7D3FA01460098641C31507888A042EADC6D1C3888A842E0DC4F
:204DA00005B0F0BDF3B58BB0064600251AE00021AF006846C1510C4610E0684300197168D4
:204DC000800009580C98A2008058FCF70AFB6946C959FCF7ADFA6946C851641C7088A0424F
:204DE000EBDC6D1C3088A842E1DC82B269460C9801F0F0FF0DB0F0BD0188408848437047A0
:204E000010B5446840884843801880002350002010BD70B5002307E04C439D00E418A4005B
:204E20004668555935515B1C44889C42F4DC002070BDF8B505460E46008801F0D5FF07466C
:204E400000240BE03A4621462846FFF757FF2988384601F061FFA1007050641C6888A0426F
:204E6000F0DC384601F0CDFFF8BD10B500210A4603E08C004368491C1A5103884488634359
:204E80008B42F6DC10BD0000194A10B591100120FDF710FC0320FDF795FBFCF71BF91548B1
:204EA00064210068FCF784F91349801E88420CD81249486112480722C3691B021B0A4C04A8
:204EC0002343C361002088610A6101F00BFB01F0DBFA01F013FB01F0D7FB0A490A4801F0BF
:204EE000A3FA002000F078FD01F0E8FA002010BD006CDC0200000010FFFFFF0000E000E0B9
:204F000004ED00E0002000100010001070B506460D460846FCF7D7FB04462946304601F079
:204F200001FF2146FCF79AFA70BD000030B5144C4168226813468918083388420ED04D882C
:204F4000002D0BD16568A94208D0A5688D4200D1A0604D6845604968851ACD5081688918BA
:204F600081420BD04D88002D08D1A568854200D1A16044684C604068891AC15030BD000071
:204F80009C00001002680A6001224368D20753404B60836853408B60C0685040C8607047AC
:204FA0001FB50168009101214268C9074A40019282684A400292C2684A4003920422694644
:204FC00001F008FF1FBDF8B50C460546C968C068FCF707FA0090A168A868FCF702FA074681
:204FE00061686868FCF7FDF9064621682868FCF7F8F93146FCF79CF93946FCF799F900994A
:20500000FCF796F9F8BDFEB50C460546C1681646E068FCF7E6F90190A968A068FCF7E1F9F3
:20502000009069686068FCF7DCF9074629682068FCF7D7F93946FCF7CCF90099FCF7C9F9D1
:205040000199FCF7C6F93060A968E068FCF7C9F90190E968A068FCF7C4F907462968606826
:20506000FCF7BFF9009069682068FCF7BAF90099FCF75EF93946FCF7ACF90199FCF758F91E
:2050800070606968E068FCF7ACF901902968A068FCF7A7F90090E9686068FCF7A2F907464E
:2050A000A9682068FCF79DF93946FCF741F90099FCF73EF90199FCF78CF9B0602968E06864
:2050C000FCF78FF901906968A068FCF78AF90090A9686068FCF785F90746E9682068FCF782
:2050E00080F93946FCF775F90099FCF721F90199FCF71EF9F060FEBD1FB504466A46FFF73E
:2051000082FF04226946204601F064FE1FBD10B5042101F0A9FE10BDF0B5044687B0806847
:2051200000900D462068164601900099FCF759F90290E768606839460390FCF752F90299A5
:20514000FCF747F902900121A868FCF7C5F90299FCF747F9029039460198FCF742F9019070
:2051600000990398FCF73DF90199FCF7E1F8019001216868FCF7B0F90199FCF732F9394616
:2051800001900846FCF72DF90121FCF7A5F9009907460846FCF725F90121FCF79DF97F21D4
:2051A000C905FCF71AF93946FCF713F92968FCF718F90199FCF7BCF80299FCF7B9F83060F8
:2051C00060680290206803900299FCF70AF90746E0680090A06801900099FCF702F9394605
:2051E000FCF7A6F807460121A868FCF775F93946FCF7F7F8059000990846FCF7F2F8012162
:20520000FCF76AF9029907460846FCF7EAF80121FCF762F97F21C905FCF7DFF83946FCF713
:20522000D8F86968FCF7DDF8049000990398FCF7D8F8074601990298FCF7D3F83946FCF7C9
:20524000C8F8074601212868FCF746F93946FCF7C8F80499FCF76CF80599FCF769F8706075
:20526000A06800900146FCF7BCF80121FCF734F90190676839463846FCF7B3F80121FCF756
:205280002BF97F21C905FCF7A8F80199FCF7A1F8A968FCF7A6F80490206839460190FCF702
:2052A000A0F80390E068029001460098FCF799F80399FCF78EF8044601216868FCF70CF93D
:2052C0002146FCF78EF8044600990198FCF789F8009038460299FCF784F80099FCF728F83A
:2052E000074601212868FCF7F7F83946FCF779F82146FCF71DF80499FCF71AF8B06007B012
:20530000F0BD0000FFB585B015460F460646FFF75AFE044608984000000E22D004223946DE
:20532000684601F057FDFF20C005C4420DD33968000241400091796841400191B968414065
:205340000291F9684140444003913A487F27FF0584420DDD38460899FCF73BF80746089CAE
:2053600033E004223146284601F034FD09B0F0BD21460846FCF735F87F21C905FCF72DF82C
:2053800001F0B4FC07462146FEF7CEFA04907F203946C005FCF762F804467F20C0050899E8
:2053A000FCF717F80499FCF71CF801F0DDFB2146FCF717F8074604990898FCF712F801F09D
:2053C000D3FB2146FCF70DF8044620460099FCF708F8049038463168FCF703F80499FBF73C
:2053E000A7FF286020460199FBF7FBFF049038467168FBF7F6FF0499FBF79AFF686020466B
:205400000299FBF7EEFF04903846B168FBF7E9FF0499FBF78DFFA86020460399FBF7E1FF16
:2054200004463846F168FBF7DCFF2146FBF780FFE8609BE772F97F3F30B50B4609490546E0
:2054400017C989B003946C4607C404AA29466846FFF758FF042204A9284601F0BBFC09B065
:2054600030BD000030710000F7B504468AB0C06802900D46676801463846FBF7B2FF059095
:20548000A668246831462046FBF7ABFF069030460299FBF7A6FF089039462046FBF7A1FFAC
:2054A000079020460299FBF79CFF049031463846FBF797FF214603900846FBF792FF39466C
:2054C00001900846FBF78DFF314600900846FBF788FF029907460846FBF783FF064622A1E8
:2054E0000C98FBF7C4FE002805D020A10C98FBF7BEFE002835D100990198FBF76AFF39460A
:20550000FBF767FF3146FBF713FF044607990898FBF70EFF0121FBF7DFFF2146FEF704FAE3
:20552000286005990698FBF754FF0121FBF7D4FFFEF74AF9686000990198FBF7F9FE3946E1
:20554000FBF747FF3146FBF744FF044603990498FBF7EEFE0121FBF7BFFF2146FEF7E4F9FC
:20556000A8600DB0F0BD00005A59580033323100F0B506467F2085B0C00500900C4608683C
:2055800017461146FBF72DFF0025ED432946FBF7A3FF019039466068FBF723FF2946FBF794
:2055A0009BFF02903946A068FBF71BFF2946FBF793FF039069463046FFF79EFD3046FFF784
:2055C000A6FD05B0F0BD000088B0002178A000F035FA784C20607D20C00001F051F9034611
:2055E00002250022744975A0009501F0BEF901F001FA0A2001F044F903460022704971A0DA
:20560000009501F0B2F901F0F5F9042218210020FCF724FD042219210020FCF71FFD18221E
:2056200010210320FCF77AFF00221B210420FCF775FF08221A210420FCF770FF624900200B
:20564000FCF71EFF20460C30FEF726FB00280BD10320FEF74FFC0C20FEF772FC0020FEF777
:20566000BFFC0620FEF792FC58490020FCF798FE01210020FCF7B6FE03210846FFF708FB28
:2056800000210290FFF72DFB7F25ED052B46012200210298FFF7B4FB4D4B00220121029839
:2056A000FFF7AEFB02222B4611460298FFF7A8FB032364224749484801F021FA46480323A0
:2056C00014224649183001F01AFA454D002628462030F6430190404F0C38039007A80090D3
:2056E00033460622FF21206800F0B8F9079880071BD50198FEF794FB0398FEF70DFB684647
:20570000FEF766FB31460098FBF7E6FE3549FBF70FFE286503990298FFF744FB01990298A5
:20572000FFF740FB6068401C60600798C00615D52B492948383101F0F1F927480399183089
:2057400001F0ECF926492448B831183001F0D2F923492148C431183001F0C7F90798000742
:20576000BCD560686865002060607869C828B5DD04A9194801F0BEF90023032104A83A6875
:2057800001F043FB0028A9D1174B184A0321019801F03BFB0028A1D111490F487C3101F0A7
:2057A000A4F90F48C030417E491C417696E70000657674000C000010596D000074310000D7
:2057C000816D00007432000000127A0088130000000080BFCDCC4C3EC00600100AD7A33C16
:2057E000E40500100000B841333333BF3333333FF8B50A4C0D46064617460021A06801F06E
:20580000A5F900222B4631461046FCF75FFE3946A06801F09BF90020F8BD00000C0000103D
:205820000A4610B51F218902FBF7ECFC002010BDF8B504464C494DA0FEF72EFC4A4D503D05
:20584000286D401EC82801D2002C04D0642147A02965FEF7A0FC444945A0091DFEF71CFC62
:20586000E126686D7602811BB0420AD075DC4249401A06D0884204D031463DA06E65FEF7A6
:205880008AFC002C04D0314639A06E65FEF783FC35493AA048390D46FEF702FC20430CD08D
:2058A00037A00068009004226946284600F0DBFB1022294631A0FEF775FC2B4931A060395A
:2058C0000D46FEF7EDFB204309D000220321284601F015FB0C2229462AA0FEF763FC224D7D
:2058E000D03DE86D416829A0FEF7DAFB20430CD0E86DFFF7E4F9E86DFFF77EFA8004020C4E
:20590000E86D416821A0FEF74DFCE86E416821A0FEF7C6FB20430CD0E86EFFF7D0F9E86E6A
:20592000FFF76AFA8004020CE86E416819A0FEF739FC0D4919A070390D46FEF7B1FB20438A
:2059400009D000220321284601F0D9FA0C22294612A0FEF727FCF8BDFFE71248081890D01A
:20596000E121C90286E70000B40600104F4452004241554400000000C012000050544C0060
:20598000A0B0D00047595242000000004143434D495300004759524D49530000414343421F
:2059A0000000000000BAFAFF38B5802108436946084C08706068002243680121684698479C
:2059C0006068012283681146684698476946087838BD00008C0000101CB5E121490200200F
:2059E000FCF7A4FF002204211046FCF797FD002108220846FCF792FDFCF7F6FA1421042096
:205A0000FF230191009091330022034903A000F099FD00F0ABFE1CBDC14A0000696E6974B6
:205A20000000000010B5FBF755FB034A5188491C5180FBF753FB10BD0401001010B50C46CA
:205A40000146022000F054FB002806D0014644721431816141610021C16110BDFFB50546CB
:205A6000294881B017460E0048D000F059FE044600202063FBF72EFB0090F80704D0E969FD
:205A80003046884305D00EE0B8070CD5E869304209D0E8690A993040086078072AD5E8692B
:205AA000B043E86126E00498002829D04020E663075528466A7A2146143000F0E9F8049878
:205AC000002809DD20464C3004AA0021054600F033FF284600F08EFF0098FBF7FFFA00F03C
:205AE0006DFB206B002809D1FBF7F4FA00900A98E16B01600098FBF7F1FA206B05B0F0BD90
:205B00000120C0432063F5E7FFFFFFFFFEB50D0004460ED00026FBF7DDFA0190E0692843EA
:205B2000E06120461430009000F0F5F8002803D02CE00020C043FEBD656924E0284614389C
:205B40002A462C32134600211278C943D70705D0C26BE769BA4309D1002107E0920705D5E5
:205B6000C26BE7693A4001D0C263F5E72D68002909D11978490703D5E169C26B9143E1617E
:205B800000F0B1FD012600988542D7D10198FBF7A5FA002E01D000F011FB0020FEBD000039
:205BA00010B5FBF797FA084A5188491E09B25180002906DC00215180FBF790FA00F0FEFA1E
:205BC00010BDFBF78BFA10BD0401001070B5002823D0124D296888421FD3696888421CD22A
:205BE000044600210C3CC9430D4800F099FB00206080F52040012080A868844200D2AC6063
:205C000029686068611A401A2969081A28612046FFF78CF9024800F065FB70BD9C000010C5
:205C2000C00B0010FEE70000F0B50646121DD008C0004038094C074600229500521C445118
:205C4000102AFAD3016200214162816202463032C1624AC201210906F963F0BDEFBEADDEE8
:205C600010B5FBF737FA034A1178491C1170FBF735FA10BD9800001010B5FBF72BFA034AC1
:205C80001178491E1170FBF729FA10BD98000010F8B5054614460E46084600F07DFD37462E
:205CA0001437002C15D0012C17D120362C680CE021212046727D095D14388A4204D2394633
:205CC000143000F021F802E02468AC42F0D1AC4203D13946284600F017F80020F8BD02686D
:205CE000516002680A600160486070470268516002680A600160486070470268516002682B
:205D00000A600160486070474268116042684A604160086070470168814201D10120704754
:205D2000002070470168814201D1012070470020704706C808384A6006C808381160406008
:205D40000060704706C808384A6006C8083811604060006070470000F8B5002807D0C01CB6
:205D6000354E8508F068AD00854201D90020F8BD0C2D00D20C250021C943304800F0D0FAFD
:205D8000B0683168F2688646401A9446531B4CE00C186288002A47D16268121A0C3AAA42E6
:205DA00042D36268131A2A4618320C3B93422DD343190C33F527CA187F0117800027578053
:205DC000676857609060012063606080506862460C32904202D00A460832835030694019F8
:205DE0000C3030617269824200D27061F52040012080744512D1B0684288002A0ED072683E
:205E000090420BD040684018B060F5E7012060806068621A801A32698018E2E7074800F0CF
:205E200061FA20460C30F8BD60688342B0D8034800F058FA9AE700009C000010C00B001006
:205E400070B50D4601461646032000F051F9040015D0204666721430A0616061A8B220849F
:205E60008000FFF779FFE061002809D000206084A084E08420462830E062A062204670BDD1
:205E8000204600F059F9002070BDF7B582B00446002600F045FC0546FBF71CF90090608CC0
:205EA000049900270843002835D10098FBF716F9B01E05B0F0BD2F63049800284AD0204606
:205EC000627A29461430FFF7E3FE049800280CDD00F0E2FC064628464C3004AA002101904B
:205EE00000F02AFD019800F085FD0098FBF7F6F800F064F9286B0028DBD1FBF7EBF80090EF
:205F00000498002807DD00F0C7FC861B0498801B049000D50497608C0028CCD0E18CE069E4
:205F20008900415803980160E08C401C80B2E084218C884200D3E784608C401E608420469C
:205F40002830FFF7E8FE00280BD00098FBF7C6F80020AEE70098FBF7C1F80120C04328631B
:205F6000A7E7A06A143800F0BEFB0098FBF7B6F800F024F9ECE710B5002200F001F810BDDF
:205F8000F7B582B00446002600F0CAFB0546FBF7A1F80090608C218C0027884233D104986E
:205FA000002850D02FE02F63049800284BD02046627A29462830FFF76BFE049800280CDD04
:205FC00000F06AFC064628464C3004AA0021019000F0B2FC019800F00DFD0098FBF77EF8A4
:205FE00000F0ECF8286B00282BD1FBF773F800900498002807DD00F04FFC861B0498801B6E
:20600000049000D50497608C218C8842CBD0A28CE169039892008850A08C401C80B2A08423
:20602000218C884200D3A784608C401C608420461430FFF770FE00280BD00098FBF74EF8DE
:20604000002005B0F0BD0098FBF748F80220C043F7E76069143800F046FB0098FBF73EF8EB
:2060600000F0ACF8ECE710B50346102A1BD30C461C43A40717D10C681C604C685C608C68EB
:206080009C60CC68DC601031103A1033102AF2D202E010C9121F10C3042AFAD203E00C78A8
:2060A0001C70491C5B1C521EF9D210BD30B50346CCB2042A18D3810716D12502194625434E
:2060C0002B042B4305E00B604B608B60CB601031103A102AF7D201E008C1121F042AFBD2AE
:2060E0000B4601E01C705B1C521EFBD230BD0000F8B50F4606460F4900014518E868FFF7F7
:206100002BFE040014D026720020607208223946204600F075F9FAF7DDFF064621460C31BA
:20612000281DFFF7DCFD3046FAF7D8FF2046F8BD0020F8BDB400001070B50446FAF7CAFF30
:20614000054620460C30FFF7F4FD2846FAF7C6FF2046FFF73BFD70BD70B50546FAF7BAFF6C
:20616000044628460C30FFF7E4FD2046FAF7B6FF70BD000070B5134604460B4A0801851858
:2061800080200143217208221946204600F038F9FAF7A0FF064621460C31281DFFF79FFD21
:2061A0003046FAF79BFF70BDB4000010007A000601D50120704700207047000070B5FAF7D2
:2061C00089FF124C05466088002815D1A068FCF765FD401E0E4AC100515862681439914231
:2061E0000AD020700B4861600078002808D010461C301C31FAF775FF2846FAF76FFF70BD5B
:2062000010461C301C31FAF76CFFF5E704010010E00B00109800001070B50546FAF75AFFE5
:2062200002462846012120300175407D2C46C100084814340918486804604868A8614C609E
:2062400069610548A96B8368194381601046FAF745FF70BDE00B00100401001070B50546B3
:20626000FAF738FF2C460146143405CC083C426005CC083C1060646024603520405D074A2E
:20628000C00080180268824204D10548AB6B82689A4382600846FAF721FF70BDE00B001010
:2062A0000401001070B50C46014615460120FFF71FFF002805D00146143181614161848367
:2062C000457270BDF8B516460A461F4605460121FFF750FF2C461434AC616C61AE836F72C4
:2062E0000020F8BD70B504460025FAF7F3FE064620461430FFF70FFD00280BD0A08B401CD1
:20630000A0833046FAF7EAFE002D01D0FFF756FF002070BD6069143800F0E5F90125F0E795
:2063200073B50446FAF7D6FE0646A08B002805D0401EA0833046FAF7D1FE22E00198002838
:2063400021D000F0EDF90546002028632046627A29461430FFF79CFC0198002809DD2846E8
:206360004C3001AA0021044600F0E6FA204600F041FB3046FAF7B2FEFFF720FF286B002842
:2063800000D100207CBD3046FAF7A8FE0120C0437CBD0000F8B500F07FFA0646FFF742FBD4
:2063A000154F3D6823E068692C461449143C301A88421ED22D682046FDF7F5F9FFF7F0FB1F
:2063C000E169206A884700F067FA0646FFF72AFB607A810708D5C10706D04008400060722B
:2063E000204600F007FB02E0400840006072BD42D9D1FFF7D5FBF8BD24010010FFFFFF7F34
:2064000010B5002A08D003460C781C70491C5B1C002C05D0521EF7D110BD19705B1C00E09A
:206420000021521EF9D110BDC01C8008890810B58000890018291DD90A46183A824219D3E8
:20644000091A0D4C1839E160F52252012060028000230C31836041604380081860600280B9
:20646000012242804160816004A10648FFF72AFF2068A06010BD00009C0000106865617004
:2064800000000000C00B001010B50023094A0A4C53801846C10009194960401C09602028C6
:2064A000F8DB1F201070034853600C3093604060006010BD04010010E00B001010B5074C28
:2064C000A068FCF7EBFB401E0549C0000858143860601C30FAF73DFE10BD000004010010A9
:2064E000E00B0010044A0020C100891849600960401CF9D0704700001C0100101FB50C4A8C
:206500000020C100891849600960401CF9D009480A23042280216C460FC40023064A07A1DD
:20652000803800F0CBF80348803800F01FF91FBD24010010600D0010ED67000074696D6554
:2065400072000000FFB585B01D4600200E9F0F9E0599FFF7CDFD041E0DD02846FFF7FCFB4B
:2065600000280AD069460396A1C105A90EC92046FDF7CEF8204609B0F0BD2046FFF7DCFDC9
:206580000020F8E710B500F0D1F810BD70B50446FFF764FE20464C3000F0FDF904213420A9
:2065A0000155FAF797FD0546214614310348FFF79DFB2846FAF792FD002070BD10010010D4
:2065C00070B513480468FAF785FD05462046FFF745FE04213420015520464C3000F0DBF9FD
:2065E0002046FFF7E3FD012802D1A06F00280AD0214614310748FFF779FB2846FAF76EFD23
:20660000FFF7DCFD70BD2046FFF7A6FDF5E70000080100101001001000F002F8FCE700009C
:2066200070B525E0FAF756FD0546FCF7CBFC002823D0144801680C4605C90839426005C936
:20664000083910604960143C0960A16F002901D0204688472046FFF7A9FD01280DD0284672
:20666000FAF73CFDA06AFFF7B1FA2046FFF764FDFCF7A8FC0028D5D170BD2846FAF72EFD6C
:2066800070BD0000100100101FB5084820231F2280216C460FC40023054A06A1803800F01D
:2066A0000DF80248803800F061F81FBD400B0010196600007469646C65000000FFB585B0D9
:2066C0000FAC70CC0F460A4600210598FFF752FD0E986A4671C23946089B079A0598FDF73E
:2066E00017F809B0F0BD70B504462030007D022802D00020C04370BDFAF7ECFC0546204613
:206700001430FFF71FFB20464C3000F0D7F92846FAF7E4FC2046FFF77FFD002070BD00001F
:20672000014800687047000008010010F1B5FAF7D1FC05460C480468204600F02DF8204688
:206740004C306A460021064600F0F6F8304600F051F92846FAF7C2FCFFF730FD206B801CAB
:2067600000D120630020F8BD0801001010B5014620318A7D01234A759340022283630A7534
:20678000FFF7B1FF03480068002801D0FFF716FD002010BD0801001070B50446054620348A
:2067A000207D012802D00020C04370BDFAF792FC0646022020752846FFF750FD28464C30D4
:2067C00000F07CF93046FAF789FC002070BD10B504460120C043206320461430FFF7B2FA19
:2067E0002046FFF719FDFFF7E9FC10BD0B4D0C4800F0F4F80446401C09D000F04DF8201A09
:20680000A84201D2FFF7BEFEFFF7C4FDEFE7FFF787FFFFF7C1FFFFF7D1FCF5E7FFFFFF7F2F
:206820002401001070B5FAF755FC054612480068014620310E46097D012917D18269416996
:20684000914213D014300446FFF77CFA707D0B49C000401841680C6041686160446020608C
:206860002846FAF73BFCFFF7A9FC02E02846FAF735FC002070BD000008010010E00B001014
:2068800064214843034910B54018491CFAF790FC10BD0000E703000001480068704700007E
:2068A0009400001010B508480168491C0160FFF737FF816C491E816403D1416C8164FFF72F
:2068C000B1FF00F003F810BD9400001070B5FFF7E3FF0546FAF7FEFB06461FE01448154975
:2068E00004686069143C281A88421CD22046FCF75AFFE169206A8847FFF7CEFF0546607ADC
:20690000810708D5C10706D0400840006072204600F070F802E04008400060720448FFF7DE
:2069200001FA0028DAD03046FAF7D8FB70BD00001C010010FFFFFF7F002909D0012904D07A
:20694000022908D003290ED109E0406A10600AE01168416207E0417AFD22114002E0417A71
:2069600002221143417200207047FFB581B001461E46174604200A9DFFF7BAFB040008D0D6
:2069800033463A4600950299FCF7FAFE204605B0F0BD0020FBE770B50546FAF79BFB0446D8
:2069A0002846FCF700FF2046FAF798FB2846FFF7D3FB002070BDFFB581B00A461F46064628
:2069C00004210B9D0A9CFFF7D5FB23463A46009530460399FCF7D4FE05B0F0BD10B50446B8
:2069E000FFF7A0F9002802D00020C04310BD2068406910BDFEB50446FAF76CFB054620461A
:206A0000FCF7D1FE607A4008400060722846FAF765FBFFF741FF616A4018A062FAF75AFB20
:206A20000190607A400701D5214E01E0204E083E00226F4600960CE00568EB1AAC465B6949
:206A4000A56AAB4203D05B1B1A4DAB4208D360467850D30091009D1978586D68A842EBD1EF
:206A6000002A02D0C91908304860521CF1D010480C380168491C0160214614310098FFF724
:206A80003CF9607A0121084360720198FAF726FB607A400709D50848007D012805D00648E5
:206AA0002038FFF720FEFFF789FB0020FEBD000024010010FFFFFF7F000D001070B50446D8
:206AC000407AC0070ED0FAF705FB05462046FCF76AFE2846FAF702FB607A400840006072CA
:206AE000002070BD0020C04370BD10B54068FEF716F910BD10B54068FEF79BF910BD10B533
:206B000004460160002008340DC4206019461046143CFEF7BDF86060002010BD10B50A46AC
:206B200081680446481CA0606068FEF772F9E168A068FAF753FBA1606069401C606110BD52
:206B400001498860704700000C00001010B5002807D0012804D1CAB218210020FBF7B8FAF5
:206B600010BDCAB21921F8E7F0B502460446514B83B040006946984209D27321090688429C
:206B800002D20020C04300E00020009030E05000494B400898426BD248491046FAF721FC26
:206BA000FAF7DDFE0746FAF795FD8007800F009043493846FAF715FC019042493846FAF7FC
:206BC00010FC064640493846FAF70BFC05463F493846FAF706FC2146FAF7FFFB2946FAF768
:206BE000F8FB3146FAF7F5FB0199FAF7F2FB04462546009C002C3FDBE007354E2946084614
