:020000040000FA
:10800000081D002009830000DDA20000BB820000E3
:108010001583000017830000198300000000000092
:108020000000000000000000000000001B830000B2
:108030001D8300000000000043820000C1A8000072
:10804000238300009DA30000D1AB00002383000028
:108050002383000000000000399800002383000003
:1080600075AA00008DAA0000A5AA000023830000C5
:108070002383000023830000238300002383000068
:108080002383000023830000238300002383000058
:108090002383000023830000238300002383000048
:1080A0002383000023830000000000000000000084
:1080B0002383000023830000000000000000000074
:1080C00000000000000000000000000000000000B0
:1080D00000000000000000000000000000000000A0
:1080E0000000000000000000000000000000000090
:1080F0000000000000000000000000000000000080
:10810000000000000000000000000000000000006F
:10811000000000000000000000000000000000005F
:10812000000000000000000000000000000000004F
:10813000000000000000000000000000000000003F
:10814000000000000000000000000000000000002F
:10815000000000000000000000000000000000001F
:10816000000000000000000000000000000000000F
:1081700000000000000000000000000000000000FF
:1081800000000000000000000000000000000000EF
:1081900000000000000000000000000000000000DF
:1081A00000000000000000000000000000000000CF
:1081B00000000000000000000000000000000000BF
:1081C00000000000000000000000000000000000AF
:1081D000000000000000000000000000000000009F
:1081E000000000000000000000000000000000008F
:1081F000000000000000000000000000000000007F
:10820000DFF80CD001F00EF8004800477D0A0100AD
:10821000081D0020EFF3108072B6704780F31088BD
:108220007047334A1368012B04D04FF001031360E9
:10823000304A1060304A116030484FF08051016080
:108240007047EFF3108272B62948016891B14FF080
:10825000000101602748016829B1EFF3098121E994
:10826000F00F00680160244909680968B1E8F00F5F
:1082700081F3098882F310884EF0040E70471E497E
:1082800008601C494FF00000086019494FF00100D8
:1082900008601B484FF47F01D0F8002041EA02013A
:1082A000016016484FF08051016016480068006870
:1082B00080F3088861B662B670471EF0040F0CBFE9
:1082C000EFF30880EFF3098020E9F00F40F804EDA8
:1082D0001EF0040F0CBF80F3088880F3098800B5F6
:1082E00009F070FD5DF804EB4EF0040E70470000DD
:1082F000DC020020D4020020D802002004ED00E0BF
:1083000020ED00E008ED00E0064880470648004701
:10831000FEE7FEE7FEE7FEE7FEE7FEE7FEE7FEE735
:10832000FEE7FEE74DA90000018200002DE9F05FA5
:108330000546002092469B468846064681464024D4
:108340001BE0284641464746224600F0BEFC534605
:108350005A46C01A914110D311461846224600F0E1
:10836000A5FC2D1A67EB01084F462246012000218B
:1083700000F09CFC17EB00094E41201EA4F1010403
:10838000DFDC484631462A464346BDE8F09F40EAD6
:1083900001039B0703D009E008C9121F08C0042A83
:1083A000FAD203E011F8013B00F8013B521EF9D26A
:1083B0007047D2B201E000F8012B491EFBD2704792
:1083C0000022F6E710B513460A4604461946FFF7A1
:1083D000F0FF204610BDCAB2401E10F8011F8A42AD
:1083E00002D00029F9D100207047421C10F8011B6F
:1083F0000029FBD1801A704710B5002200E0521C02
:10840000835C8C5CA34201D1002BF8D1D8B2E1B2DD
:10841000401A10BD30B504460020034600E05B1C46
:10842000934203D2E05CCD5C401BF8D030BD30B548
:1084300005460020034600E05B1C934205D2EC5C3D
:10844000C85C201A01D1002CF6D130BD30B50346EE
:108450001D783DB10A4612F8014B1CB1AC42FAD16D
:108460005B1CF5E7181A30BD30B50546002008E062
:108470000A4602E0A34207D0521C1378002BF9D120
:10848000401C2C5C002CF3D130BD00000FB400B5B3
:108490008DB010A909900B9000914FF0FF300A9019
:1084A00000200C9005480690054807906A4609A8E8
:1084B0000F9900F04FFC0DB05DF814FB718D0000BA
:1084C0008F8D00002DE9FF5F1D464FF0FF3BD5E982
:1084D000014691465F464FF00008A9697F1C01984C
:1084E0008847296A824688470028F6D1BAF1FF3FBB
:1084F0000CD024F4C064002E19DD600614D5BAF146
:108500002B0F09D0BAF12D0F0ED103E0584604B05D
:10851000BDE8F09F44F48064A9697F1C01988847F6
:10852000761E8246002E02DDBAF1300F03D0B9F17B
:10853000000F26D032E0A969761E44F400747F1C37
:10854000019888478246002E05DDBAF1780F06D0E3
:10855000BAF1580F03D0B9F1000F10D01EE0B9F1F5
:10856000000F02D0B9F1100F18D1A969761E24F4BA
:1085700000747F1C019888478246102002E0082082
:1085800000E00A20814609E008FB0908A969761E77
:1085900044F400747F1C019888478246002E05DD54
:1085A0004946504600F0C1FB0028EDDAE969019820
:1085B0008847A00502D46FF00100A8E7E00725D1A5
:1085C000600613D5600502D5C8F1000000E0404602
:1085D00029680A1D2A600968220501D5087015E07E
:1085E000220701D5088011E008600FE02868011D0E
:1085F00029600068210502D580F8008006E0210787
:1086000002D5A0F8008001E0C0F8008038467EE77F
:108610002DE9FF5FD2E901A74FF000089169994663
:108620001446DDF838B0464601988847054659EAB1
:108630000B0005D009E0A169761C01988847054622
:10864000216A284688470028F5D1681C03D05FEAD4
:10865000CA7005D015E04FF0FF3004B0BDE8F09FC0
:108660002068011D2160D0F800800AE05FEACA702E
:1086700001D108F8015BA169761C7F1E019888472B
:108680000546002F1ADD681C18D0B9F1000F0DD077
:10869000E81705EBD060421120F01F0059F82210B6
:1086A0002A1A012090400142E0D107E0BBF1000FFF
:1086B000DCD1216A284688470028D7D0E169019893
:1086C0008847BBF1000F07D1002E05DD5FEACA70B5
:1086D00002D1002188F80010A068B84203DDBBF188
:1086E000000F03D017B16FF00100B6E73046B4E7D2
:1086F0002DE9F05F93460F4680460446002602F0BF
:10870000B1FBD0F80090824614F8015B2DB100F067
:10871000FFFA0068405DC007F6D12B2D02D02D2D49
:108720001AD0641E0021CAF800105A463946204665
:1087300000F03EFB014627B13868A04201D1C7F8DE
:108740000080DAF80000022809D0CAF8009070050D
:1087500005D54842BDE8F09F46F48066E2E708464A
:10876000F8E770B5064602F07DFB046805460A226C
:108770000021304600F06BFB2C6070BDF0B480EA45
:108780000102D40F4200B2EB410F02D2024608466A
:1087900011464A0042D0C30DDDB2C1F3C752AD1A33
:1087A000202D35DAC1F3160141F4000204B1524222
:1087B000C5F1200602FA06F12A411044B3EBD05F5E
:1087C00023D0C4B1012DA0EBC35009DCF0BC4FF0A5
:1087D000004202EAC352DBB200F5000000F078BBB1
:1087E000400000F1807000EBC350A0F1807040EABF
:1087F000D170490009E0490841EAC071A0EBC350BB
:1088000000F50000400800EBC350F0BC00F057BB7F
:108810006142012202EB4101001BF6E7F0BC704708
:1088200081F00041AAE780F00040A7E780EA01025A
:1088300010B502F00043400022D04A001FD0010EC4
:1088400001EB1261C0F35600C2F3560240F400007F
:1088500042F40002A0FB022000047F39140400D07F
:10886000401C50EA124001D44000491EC2B20C061E
:1088700004EBD010401C4008802A02D003E0002006
:1088800010BD20F00100002900DA0020184310BDBF
:1088900030B480EA010202F0004530F0004221F0DD
:1088A000004013D090B1C30DD40DC2F31601C0F334
:1088B0001600E41A41F4000140F400027D349142B4
:1088C00001D3641C00E04900002C02DA30BC002017
:1088D00070474FF400000023914201D3891A0343EB
:1088E00040084FEA4101F7D151B1914202D14FF016
:1088F000004105E002D24FF0010101E06FF00101FB
:1089000003EBC450284430BC00F0D9BA420005D073
:10891000C0F3C7525242914201DC0020704700EB85
:10892000C15070472DE9FE4F804681EA0300C00F19
:108930000C46009021F0004123F00045B8EB020006
:10894000A94105D24046214690461C460B460246A8
:1089500023F00040104347D0270DC7F30A00C3F3AC
:108960000A510290401A019040286BDAC3F31300B9
:1089700040F4801B0098924620B10023D2EB030AFA
:1089800063EB0B0B01985946C0F14002504600F0D2
:108990008DF906460D4650465946019A00F0A5F954
:1089A00010EB08006141002487EA115284EAE77362
:1089B0001A4340D0009A62B3019A012A4FEA075243
:1089C00015DC001B61EB02014FF0004202EA075286
:1089D000CDE90042001C41F5801132462B4600F0E3
:1089E000E3FA03B0BDE8F08F40462146F9E7001BEB
:1089F00061EB0201001C41F5801300185B41201857
:108A0000A2F5001747EB030140EAD570B6196D4196
:108A100011E06D084FEA360645EAC0754FEA075285
:108A2000001B61EB0201001C41F5801149084FEA6F
:108A300030000019514132462B4603B0BDE8F04FDB
:108A400000F0A3BA0098012240000023D0EB0202FC
:108A500063EBE073009821464FEAE074B8EB000046
:108A600061EB0401E9E783F000435BE781F000413B
:108A700058E72DE9FE4F81EA030404F0004421F099
:108A8000004100944FF0000B23F0004350EA010432
:108A90005ED052EA03045BD0C3F30A54C1F30A5513
:108AA0002C44A4F2F3340194A0FB0254C1F313014B
:108AB00041F48011C3F3130343F4801301FB024418
:108AC00000FB034E840A970A44EA815447EA83571D
:108AD000A4FB076802958D0A05FB07854FEA932CD6
:108AE00004FB0C542705029D4FEA065847EA163747
:108AF000B5EB08056EEB070C870E920E47EA81175F
:108B000042EA8312A7FB0201B6EB0B0164EB0004FF
:108B10002B0D43EA0C335E1844EB1C50DA465146E9
:108B2000E7FB0201C5F313044FEA0B3343EA145386
:108B30004FEA0432019C43EA0603A4F10C040294B8
:108B4000009CCDE900B400F02FFA03B0BDE8F08F2F
:108B500000200146F9E770B521F0004303430CD033
:108B6000C1F30A550024D5EB040564EB0403D617C2
:108B7000AD1AB34102DB0020014670BD201841EB65
:108B8000025170BDC10F80EAE0700844CA07962305
:108B9000002100F09DB996230022114600F098B9FB
:108BA00000F0004220F00040C10DC0F3160040F478
:108BB00000007F2901DA00207047962903DCC1F10B
:108BC0009601C84001E096398840002AF4D040421E
:108BD000704720F00040C10DC0F3160040F40000C3
:108BE0007F2901DA00207047962903DCC1F1960144
:108BF000C840704796398840704700F0004230F016
:108C000000400AD0C10D01F56071C0F3160042EAC0
:108C10000151C208400711437047002001467047C8
:108C200001F0004330B421F0004150EA010206D0C7
:108C30000A0DA2F56072C1F31301002A02DC30BCF8
:108C400000207047440F44EAC104C100E01830BC62
:108C500000EBC25000F033B9002801DBC0F1004046
:108C6000002901DBC1F1004181427047002801DB8E
:108C7000C0F10040002901DBC1F10041884270478A
:108C800030B50B46014600202022012409E021FADC
:108C900002F59D4205D303FA02F5491B04FA02F5D9
:108CA0002844151EA2F10102F1DC30BD202A04DBAC
:108CB000203A00FA02F1002070479140C2F12003EF
:108CC00020FA03F3194390407047202A04DB203A2E
:108CD00021FA02F00021704721FA02F3D040C2F1DC
:108CE00020029140084319467047202A06DBCB1723
:108CF000203A41FA02F043EAE07306E041FA02F357
:108D0000D040C2F12002914008431946704700004C
:108D1000004870472C50010010B50446FFF7F8FFDB
:108D20000068005D00F0010010BD3A2800D2303824
:108D300020F02002412A01D3A2F13700884201D35A
:108D40004FF0FF3070470000026811441378016053
:108D500018467047D16004495161044911620021ED
:108D60001161114600F070BA498D0000198D0000A4
:108D7000426842B1016811F8013B23B1521EC0E9BB
:108D80000012184670470121C160881E7047426872
:108D90005AB1C368016843B983688B4205D0491E44
:108DA000521CC0E90012002070474FF0FF3070479E
:108DB0002DE9F05F82460078002715468B460AF1C0
:108DC0000104B946302801D09DB113E014F8010B1D
:108DD0000127782803D0582801D045B10AE00DB109
:108DE000102D07D10027102514F8010B02E00825EB
:108DF00000E00A250026B0460EE005FB080005FB52
:108E000006F1012701EB10461FFA80F8B6F5803F06
:108E100000D3B94614F8010B2946FFF786FF002856
:108E2000EBDABBF1000F05D00FB1641E00E0544631
:108E3000CBF80040B9F1000F06D002F013F8022180
:108E40000160C81EBDE8F09F48EA0640FAE72DE938
:108E5000F04791460F4680460446002614F8015B11
:108E60002DB1FFF755FF0068405DC007F6D12B2DEF
:108E700002D02D2D18D0641E4A4639462046FFF7F1
:108E800097FF27B13968A14201D1C7F80080710569
:108E90004FF002040BD54042002803DD01F0E2FF51
:108EA0000460A007BDE8F08746F48066E4E7002888
:108EB000F8DA01F0D7FF04606FF00040F2E7002914
:108EC000A8BF7047401C490008BF20F00100704750
:108ED00010B4B0FA80FC00FA0CF050EA010404BFB0
:108EE00010BC704749B1CCF1200421FA04F411FA06
:108EF0000CF118BF012121430843A3EB0C01CB1D4A
:108F00004FEA00614FEA102042BF002010BC7047BA
:108F100000EBC35010440029A4BF10BC7047401C94
:108F2000490008BF20F0010010BC7047F0B40028D1
:108F300002DCF0BC00207047C0F3C751C0F316003C
:108F400040F40000CA0701D14000491E3F2202EB55
:108F50006105002211464FF4000626FA01F313447E
:108F6000D418844201D8001B1A464000491C172916
:108F7000F3DD5100814202D24FF0FF3100E00021C9
:108F800002EBC550F0BCFFF79ABF10B5141E73F189
:108F9000000408DA401C41F1000192185B411A43B9
:108FA00001D120F0010010BD2DE9F04D92469B4605
:108FB00011B1B1FA81F202E0B0FA80F220329046AB
:108FC000FFF774FE04460F4640EA0A0041EA0B012F
:108FD00053465A46084313D0114653EA010019D0AC
:108FE000C8F140025046FFF770FE05460E46504657
:108FF00059464246FFF75AFE084305D0012004E0D7
:1090000020463946BDE8F08D0020054346EAE0766B
:109010002C4337430A986305E40AA0EB08000022BA
:10902000FD0A44EA47540A3002D500200146E9E728
:10903000010510196941DDE9084500196941BDE8DC
:10904000F04DA2E72DE9F04D81EA030404F0004B56
:1090500021F0004514464FF0000A23F0004150EA89
:10906000050220D054EA01021DD0C5F30A5702467A
:10907000C5F31303C1F31300C1F30A5640F480157E
:1090800043F48013A7EB0608101BD64608F2FD3800
:1090900073EB050002D308F1010801E092185B416F
:1090A000B8F1000F03DA00200146BDE8F08D002082
:1090B0004FF48011064684460EE0171B73EB05073C
:1090C00005D3121B63EB050306434CEA010C490868
:1090D0004FEA300092185B4150EA0107EDD152EAA5
:1090E000030012D082EA040083EA0501084305D098
:1090F000101BAB4106D20122002306E000224FF0F4
:10910000004302E06FF0010253101AEB06004CEB33
:10911000085110EB0A0041EB0B01BDE8F04DFFF7E1
:1091200034BF2DE9F04D00231A461B1A8A4103DB98
:1091300000200146BDE8F08DC1F30A52C1F31301CE
:1091400041F480154FF0000BD10702D100186D419A
:10915000521E0027044640F2FF11384601EB620A16
:109160003E468046024600204FF48011FFF7ADFDD9
:10917000C2197141BB1846EB0100B4EB030C75EB4F
:10918000000C04D3E41A65EB000517460E462419BB
:1091900008F101006D4180463428E3DDF91946EB02
:1091A0000600091BA84103D24FF0FF32134601E02D
:1091B000002213461BEB070046EB0A51BDE8F04DB9
:1091C000FFF7E3BEC1F30A52C1F3130140F2FF33CC
:1091D00041F480119A4202DA00200146704740F2C1
:1091E00033439A42A2F2334202DC5242FFF76DBD92
:1091F000FFF75CBD30B5041E71F1000404DB4FF0D5
:109200000044404264EB0101141E73F1000405DBCD
:109210001C464FF00043524263EB0403994208BFDF
:10922000904230BD064C074D06E0E06840F0010377
:1092300094E8070098471034AC42F6D3FEF7E4FFF9
:10924000705A0100905A01002DE9F34F8BB04FF096
:10925000000801F10C000C464FF0010B46460DF1E1
:10926000080A01906269012101989047051E2DD0DE
:10927000252D2CD0216A8847C0B16269012101984F
:109280009047216A88470028F7D1411E62690198FA
:10929000904700E0761CA1690B988847216A8847AF
:1092A0000028F7D1E1690B988847DBE7A1690B98A3
:1092B00088470746A84201D1761CD3E7E1690B989D
:1092C00088477F1C02D1B8F1000F6FD046E100271C
:1092D00062693D463946019890472A2804D162695F
:1092E0000121019890470125DFF8849262690121EC
:1092F00001989047A0F130010A290AD24F45E5DCD8
:1093000007EB870100EB4107303FDFD445F0100544
:10931000ECE7E90601D46FF000476C280AD04C282E
:1093200014D0682815D06A280DD074281CD07A284B
:109330001AD01DE062690121019890476C2802D083
:1093400045F0040514E045F002050DE045F0200568
:109350000AE06269012101989047682802D045F02F
:10936000080505E045F40065626901210198904710
:10937000C4E9015765283DD019DC58287AD00CDCA7
:10938000452837D004DC252826D0412831D131E0CA
:1093900046282FD047282CD12CE05B2877D0612895
:1093A00028D063287CD0642823D15AE0D0E06F28ED
:1093B00048D008DC66281DD067281BD0692821D03A
:1093C0006E2816D127E0702845D0732868D07528FC
:1093D00047D078280DD14DE0A1690B988847054604
:1093E00025283FF469AFE1690B9888476D1C3FF46D
:1093F0006AAFB3E023466A466FF001000B99AFF302
:1094000000809EE045F040006060A80723464FF0D2
:10941000000236D43EE0E8077FF447AF2068011D24
:1094200021600068290501D506701BE7290701D5D1
:10943000068017E7A90703D5F117C0E9006111E716
:1094400006600FE745F040006060A80723464FF034
:10945000080216D41EE040F60E0125EA0100606005
:1094600016E045F040006060A80723464FF00A026E
:1094700007D40FE045F040006060A80708D52346F8
:1094800010226FF001000B99AFF3008059E007E064
:10949000234610226FF001000B99FFF713F850E0FC
:1094A0004FF000094F464B46632802D05B2806D098
:1094B00040E0E80601D40120A06001273AE062699B
:1094C0000121019890475E2805D14FF0010962699A
:1094D000494601989047216939B900210A46534607
:1094E00043F82120491C0829FADBB0B3216969B986
:1094F000C11700EBD16253110AEB830122F01F0266
:10950000821A01200B68904003430B6062690121BD
:10951000019890475D28E8D1B9F1000F09D00020EB
:10952000514651F82020D24341F82020401C082801
:10953000F7DB02AB224600976FF001000B99FFF7B3
:1095400067F800280CDA401C08D1BBF1000F05D0E9
:109550004FF0FF300DB0BDE8F08FFFE74046F9E770
:10956000E90701D108F1010806444FF0000B79E644
:10957000CCCCCC0C70B58C1810F8015B15F007033F
:1095800001D110F8013B2A1106D110F8012B03E09C
:1095900010F8016B01F8016B5B1EF9D12B0705D4A4
:1095A0000023521E0DD401F8013BFAE710F8013BED
:1095B000CB1A921C03E013F8015B01F8015B521E09
:1095C000F9D5A142D8D3002070BD000010B50868BD
:1095D00000221146401CFFF78BF80C4AA0F51661DB
:1095E000914211D80A4C0021C4E91601014609A094
:1095F0000BF07AF81C2204F1540109A007F04CF892
:109600000120E065002010BD012010BDA0060E0065
:1096100040030020424155443D25640D0A000000EE
:10962000735F696E746600000021012200B5900727
:1096300082600260054A00F059FA012804D0491CF2
:109640009142F8DB012000BD002000BDA086010092
:1096500001F058B910B5086800221146401CFFF708
:1096600047F8034900B10120C865002010BD000083
:10967000400300202DE9F0430D46032187B0084642
:1096800007F050FA07460321084607F04BFA3A4C18
:1096900006463846D4F8C81207F0B4F93046D4F874
:1096A000D81207F0AFF904F53371032288466846F3
:1096B0000BF09EF804F537710322894603A80BF0DE
:1096C00097F82EA1286809F0FDFD0025002847D055
:1096D00002F060FD204607F0FFF801212046E56515
:1096E00007F0B6FF3946D4F8C80207F08BF93146C7
:1096F000D4F8D80207F086F90322694640460BF0F9
:1097000077F8032203A948460BF072F8D4F8C80290
:1097100007F0ACF98200D4F8C802416819A006F03D
:10972000BBFF0C22414619A006F0B6FFD4F8D802C0
:1097300007F09CF98200D4F8D802416815A006F021
:10974000ABFF0C22494615A006F0A6FF384608F0EC
:10975000D3FA304608F0D0FA07B00020BDE8F08315
:1097600002F018FD044807F0B7F801210248E5654A
:1097700007F06EFFEAE70000400300203D414C4C3B
:10978000000000006163635F6D6973006163635F84
:10979000620000006779725F6D6973006779725FBC
:1097A00062000000094B0221196009490A68002A79
:1097B000FCD0064A121D106008680028FCD000206A
:1097C000186008680028FCD00020704704E50140BC
:1097D00000E40140704700002DE9F0430023DFF86A
:1097E0005080DFF850901EE0C41804F00305AC432D
:1097F000ED004FF0FF0CCE5C0CFA05FC2768AE4084
:1098000027EA0C073E4401254F46C9F80050D8F816
:109810000050002DFBD02660D8F80040002CFBD073
:1098200000243C605B1C9342DED30020BDE8F08343
:1098300000E4014004E501402DE9F04108F0C4FDD9
:1098400000240D4D0D4F264605EB8400D0F8001185
:10985000012909D1C0F80061385D03F057FB18B148
:10986000416809B100208847641C082CECDBBDE886
:10987000F04108F0C1BD0000006000409C000020E5
:1098800070B50C460546092A11D2DFE802F0051230
:109890000710141010101400FF2200E001222846C7
:1098A00000F0F6FF00222146284600F057F828462F
:1098B00070BD0022F3E7042A05D00022284600F0FC
:1098C0000DF80122EFE70122F8E7000002480068E6
:1098D000C84000F00100704710050050012088408A
:1098E0000AB1034901E00249091D08607047000000
:1098F0000805005030B5184A01244023082824D216
:10990000DFE800F0040B0D121416181F11B1C2F895
:1099100004431AE0C2F8084317E0022000E00420E4
:1099200089B1C2F8040310E00820F9E71020F7E736
:109930002020F5E711B1C2F8043306E0C2F808337D
:1099400003E08020ECE7C2F808034FF0E020C0F805
:109950000031002030BD0000006000400120884040
:10996000012A0BD0074A1060880000F1A040D0F80F
:10997000001721F00201C0F8001770470149091FC4
:10998000086070471C05005030B585B0086804AB0E
:109990006A4615A1FEF77AFD02280CD114A168468B
:1099A000FEF72AFD134C04F57A7538B112A168460A
:1099B000FEF722FD50B1012005B030BD0FA0049983
:1099C00008F072FD0498C4F8EC0306E012A00499B4
:1099D00008F06AFD0498C4F8F0030C22294613A08D
:1099E00006F05AFE0020E7E73D2533732C2564007E
:1099F000434E54004003002046525100646576698E
:109A00006365206D617820636E74207365742074C3
:109A10006F3A25640D0A0000726620667271207329
:109A2000657420746F3A25640D0A000072665F63E6
:109A30006667000070B50C460868FEF7D6FC0D4D51
:109A400088B1206800221146401CFEF751FE042810
:109A50000ED8C5F8E8030C2205F57A7106A006F0C9
:109A60001BFE002070BD06A0D5F8E8130AF03CFEEE
:109A7000012070BD4003002072665F6366670000CE
:109A800025640D0A0000000070B50C460868FEF75A
:109A9000ACFC0D4D88B1206800221146401CFEF739
:109AA00027FE10280ED8C5F8E8030C2205F57A71B8
:109AB00006A006F0F1FD002070BD06A0D5F8E81361
:109AC0000AF012FE012070BD4003002072665F6341
:109AD0006667000025640D0A0000000008B1002040
:109AE000704701480068704734030020024800684E
:109AF000C00700D0012070470C04004001480068F6
:109B000070470000000400404FF08051086E496E1D
:109B10004840704708B5054B6946187801F07EF853
:109B20000028F9D19DF8000008BD0000BC0100200C
:109B300070B50C460868FEF758FC0B4D70B12068F4
:109B400000221146401CFEF7D3FD2862142205F1C5
:109B5000200106A006F0A0FD002070BD05A0296A26
:109B60000AF0C2FDF8E7000040030020755F63665D
:109B70006700000025640D0A000000002DE9FC418B
:109B8000DB4D0C46DB4AD5E906010023FEF7CEFB90
:109B900006461746D8A12068FEF72EFC28B1D7A1AB
:109BA0002068FEF729FC002823D1D5A10420CDE9A7
:109BB000000100230122DD21D4A00AF095FDD9A0E7
:109BC0000AF092FDE0486A6AE0A150F82230E1A074
:109BD0000AF08AFDE3A1E4A02A6A0AF085FDE5A166
:109BE000E6A0AA680AF080FDE7A1E9A06A6D0AF084
:109BF0007BFDEAA12068FEF7FFFB002817D1E9A151
:109C0000EBA0D5F8B4230AF06FFDEDA1EEA0D5F8D6
:109C1000CC230AF069FDEFA1EBA0D5F8D0230AF020
:109C200063FDEFA1E8A0D5F8D4230AF05DFDEFA114
:109C30002068FEF7E1FB4FF47A78002840D1B0A20B
:109C4000ECA1EFA00AF050FDF0A2F3A1ECA00AF005
:109C50004BFDF4A1CEA02A680AF046FDF4A1C7A0EE
:109C6000AA680AF041FDB7FBF8F13C23B6FBF3F01C
:109C70004FF46167B6FBF7F203FB106007FB12625B
:109C8000B2FBF3F3B6FBF7F2CDE90001EAA1ECA0D9
:109C90000AF02AFDF0A1F4A0EA680AF025FD686840
:109CA00008B1F4A200E0F6A2F7A1D5A00AF01CFDCD
:109CB000A548F7A1083843780278F7A00AF014FD08
:109CC000F9A12068FEF798FB002830D1D5F80823C9
:109CD000F7A1AFA005F542750AF006FDF6A1ACA00C
:109CE000AA680AF001FDF6A1A9A06A680AF0FCFCC6
:109CF000F5A1A7A0EA6B0AF0F7FCF5A1F6A0EB6AC4
:109D00002A690AF0F1FCF8A1F9A0AB6A6A690AF0C5
:109D1000EBFCFCA1F0A06B6AAA690AF0E5FCD5E9AE
:109D20000723FAA1FBA0A5F542750AF0DDFCFDA111
:109D30002068FEF761FB40B906F0BBFD06F068FD48
:109D40004246FAA192A00AF0CFFCFAA12068FEF7E1
:109D500053FB00282ED195F8DA23F8A182A005F54F
:109D600076750AF0C1FCE868FEF747FF02460B462D
:109D7000F4A1F6A00AF0B8FC2A78F7A1F9A00AF03D
:109D8000B3FC6A78FAA178A00AF0AEFC6868FEF726
:109D900034FF02460B46F9A1ECA00AF0A5FCA86826
:109DA000A5F57675FEF729FF02460B46F5A1E7A05B
:109DB0000AF09AFCF7A12068FEF71EFB88B9F6A10D
:109DC00069A0D5F8E8230AF08FFCF5A166A0D5F8C4
:109DD000EC230AF089FCF6A163A0D5F8F0230AF081
:109DE00083FCF5A12068FEF707FB002845D15DA1A3
:109DF0005DA02A6A0AF078FC54A15BA06A6A0AF0A6
:109E000073FCE5A158A0D5F8E8230AF06DFCECA19D
:109E100055A0AA6D0AF068FCEBA153A0AA6A0AF04B
:109E200063FC296FEDA0B1FBF8F2E9A10AF05CFC3C
:109E3000EDA14DA06A6F0AF057FCE86AFEF7DDFE5F
:109E400002460B46EAA1EDA00AF04EFC286BFEF795
:109E5000D4FE02460B46EDA1E8A00AF045FCEDA1B8
:109E600041A0D5F838230AF03FFCEDA00AF03CFCF5
:109E7000F4A0D5F8F81202F037FFF5A12068FEF73C
:109E8000BBFA28B9042300220121F3A00AF02CFC1C
:109E9000F4A12068FEF7B0FA002828D1D5F8C8123E
:109EA000F2A005F5327502F01FFF0322F149E5A08B
:109EB00002F066FFF0A0296902F016FFED490322C7
:109EC0001031E0A002F05CFFEA4903223039ECA037
:109ED00002F056FFEDA0296A02F006FFE5490322D1
:109EE0002031D8A002F04CFF95F81121D2E1D6E143
:109EF0004003002040420F00000000003D4C0000E5
:109F00004D61722020392032303230000D0A48492C
:109F1000256447572025642E25642E25642025734B
:109F20000D0A000032303037202D203230313920F8
:109F3000436F70797269676874206279204869504C
:109F40004E55430D0A000000E80200204D4F4445E5
:109F50003A000000252D3136732564282573290D1C
:109F60000A00000049443A00252D31367325640D5E
:109F70000A00000053455249414C3A00252D313624
:109F800073253038580D0A004F44523A0000000043
:109F9000252D3136732564487A0D0A003D46555308
:109FA000494F4E00465553494F4E5F4652513A0075
:109FB000252D313673202564487A0D0A00000000F3
:109FC0005941575F54433A00252D3136732025649B
:109FD0000D0A000050495443485F54433A000000C2
:109FE000524F4C4C5F54433A000000003D435055E3
:109FF000000000006275696C642064617465000093
:10A00000252D31367325730D0A00000031343A34A2
:10A01000303A3033000000006275696C6420746966
:10A020006D650000636F726520636C6F636B000089
:10A0300073657269616C000074696D6500000000F1
:10A04000252D31367325643A25643A25647320251D
:10A05000646D7365630D0A007265736574206361D6
:10A060007573652000000000252D3136733078258A
:10A07000580D0A0065787465726E616C000000000E
:10A08000696E746572616C006F736320000000007C
:10A090006370752000000000252D31367325642E75
:10A0A000256425250D0A00003D53454E534F5200AF
:10A0B0006779722066727100616363206672710055
:10A0C0006D61672066727100707273206672710034
:10A0D0006779722020627700252D31367325645B05
:10A0E0002564487A5D0D0A00677972202072670046
:10A0F000252D31367325645B25644450535D0D0A6C
:10A1000000000000616363202062770061636320C8
:10A1100020726700252D31367325645B2564475D09
:10A120000D0A00003D535953000000006F73207466
:10A1300069636B003D4853490000000076616C691B
:10A14000643A00006669746572723A00252D3136F2
:10A150007325660D0A00000062696E5F7374617496
:10A1600075733A00252D313673256425250D0A00B7
:10A1700063616C5F636E743A00000000666C757812
:10A180003A000000696E636C696E6174696F6E3AC3
:10A19000000000003D524600475749443A00000085
:10A1A0004D415820534C5620434E543A0000000075
:10A1B0005458204652513A003D5553520000000079
:10A1C000424155443A0000004F545950453A00006E
:10A1D00043414E5F424155443A000000252D31363F
:10A1E0007325644B0D0A000043414E5F49443A0019
:10A1F000474C4D465F5448523A000000252D3136F9
:10A200007325302E34660D0A0000000047425F546B
:10A2100048523A00494D555F434F4F52443A00006F
:10A2200055534552205245464552454E43452046DA
:10A2300052414D45204F4620524F544154494F4EB4
:10A240003A0D0A006E6F6865616465720000000077
:10A250003D5645520000000025642E25642E2564DD
:10A260000D0A00003D43414C000000004143430DF6
:10A270000A0000000C0600204759520D0A00000099
:10A280005243204759520D0A000000004D41470D2E
:10A290000A00000003A1AFF230300AF025FA0020D6
:10A2A000BDE8FC8163616C5F636E740010B5086883
:10A2B00000221146401CFEF71BFA074930B1012865
:10A2C00004D0002081F8F403002010BD012281F8A1
:10A2D000F42381F8F503F7E74003002010B500F000
:10A2E00001F810BD70474907090E002806DA00F092
:10A2F0000F0000F1E02080F8141D704700F1E0200D
:10A3000080F800147047000010B50868002211465C
:10A31000401CFEF7EDF9B0F5FA7F08D805491C227C
:10A320004865543104A006F0B7F9002010BD0120A3
:10A3300010BD000040030020735F696E746600006A
:10A3400010B5044A04460146107800F0C5FC2046CA
:10A3500010BD0000BC010020044B0122824018689F
:10A3600009B1104300E09043186070473015004079
:10A3700006490868C00502D540F6381001E04FF4E0
:10A380001660096801F03F01084470470815004055
:10A3900001480068704700000415004070B5164C75
:10A3A000D4F83001154E002540B1C4F83051FFF704
:10A3B000EFFF01468122B06808F072FAD4F8340148
:10A3C00008B1C4F83451D4F80C0108B1C4F80C51E8
:10A3D0000B4800680A280AD106F0C6FD00F026F9ED
:10A3E000084800F007F90121084600F0E9F8F06894
:10A3F000BDE8704008F0F6BC001000408800002066
:10A4000050150040100A0020134900B5114808609B
:10A410000820091F0860802000F062F80E49022021
:10A420001C310860091D0D480860091D4FF6FF70BA
:10A4300008600B490020C1F800020A48016841F099
:10A4400001010160044904200C390860064901201B
:10A45000086000BDFF000401181500402110010034
:10A460000010004050160040FC1F004001490860E9
:10A47000704700000815004030B501244FF0E0227D
:10A480000223C2F80031154A072809D2DFE800F09C
:10A490000E0C04171A1F1500082015E0C2F804035B
:10A4A00030BDC2F8080330BD04200DE011B1C2F880
:10A4B000043330BDC2F8083330BD802004E04FF4CF
:10A4C000805001E04FF400500029EAD0E6E711B1D6
:10A4D000C2F8044330BDC2F8084330BD001000404C
:10A4E00004490A6822F0FF020A600A68C0B2024307
:10A4F0000A60704718150040064930B1012804D0A1
:10A50000022804D0032801D10420086070470320EA
:10A51000FBE700001015004001490860704700008B
:10A5200020150040254B10B51A1D082824D2DFE85D
:10A5300000F0040B131B242B333B186820F0FF00A2
:10A5400018601868084316E0186820F47F40186007
:10A55000186840EA01200EE0186820F47F001860B7
:10A56000186840EA014006E0186820F07F40186053
:10A57000186840EA0160186010BD106820F0FF0004
:10A5800010601068084316E0106820F47F401060E7
:10A59000106840EA01200EE0106820F47F0010608F
:10A5A000106840EA014006E0106820F07F4010602B
:10A5B000106840EA0160106010BD000024150040E2
:10A5C0000B4A38B101280FD1D2F8000269B140F02E
:10A5D000200007E0D2F8000211B140F0010001E0D4
:10A5E00020F00100C2F80002704720F02000F9E7D7
:10A5F0000010004003490860034901208860486159
:10A60000704700000415004000100040054A10602B
:10A6100004482838016004480021C0F80C110121C9
:10A62000816070472C150040001000400A48016806
:10A6300002290FD0016801290CD00068032809D035
:10A6400006480021C0F8001101214160D0F8001136
:10A650000029FBD07047000050150040001000405A
:10A66000104801680A291CD00168092919D001681D
:10A670000B2916D0026801230B49022A05D0026873
:10A68000012A02D00268032A03D1CB600268022AA1
:10A69000FCD10020C1F800010B60D1F800010028B6
:10A6A000FBD07047501500400010004000B589B045
:10A6B00008686B4608AA09A1FDF7E8FE022804D144
:10A6C000694608A0089A07F0EFFE08986946C0B2EC
:10A6D00007F0BCF809B0002000BD00003D25642C47
:10A6E0002573000073656E64202225732220746F29
:10A6F000206465766963655B25645D0D0A00000072
:10A7000070B5FFF735FE01460DA007F0CDFE114DE7
:10A7100011A0297907F0C8FE15A007F0C5FE002496
:10A720001A4E07E005EB84002146826818A007F066
:10A73000BBFE641CD6F8EC03A042F3D8282070BD01
:10A74000726164696F20667265713A25644D687A3A
:10A750000D0A0000D007002074782074696D652010
:10A76000746F6B656E20256420487A0D0A00000026
:10A77000726164696F20726F7574657220726563AF
:10A7800076206465763A0D0A000000004003002040
:10A790005B253032645D20256420487A0D0A000074
:10A7A00010B504A009F0A0FF72B600F053F9002024
:10A7B00010BD00004F4B0D0A00000000F8B50868FE
:10A7C0003D21FDF708FE224E05000CD0002421A0FB
:10A7D00009F08AFF6A4624A1681CFDF757FEC0B243
:10A7E000012815D021E01CA009F07EFF00243519B6
:10A7F00095F8600050B102F061FD014695F86020C7
:10A800001AA009F071FF641C102CF0D30020F8BDD1
:10A8100037199DF8000007F8600F02F04FFD014660
:10A820003A7812A009F060FF641C2C21681CFDF727
:10A83000D2FD050001D00F2CCCD93119002081F8B0
:10A84000600003491C2254310CA005F025FFDDE710
:10A85000400300206E6577207061636B657420692A
:10A8600074656D733A0D0A0025580000252D3130AE
:10A87000735B3078253032585D0D0A00735F696E66
:10A8800074660000014A516010607047AC010020FE
:10A89000880000F1A040D0F8001721F00C01C0F8AA
:10A8A000001742B1012A05D1D0F8001741F00C0180
:10A8B000C0F800177047D0F8001741F00401F7E71F
:10A8C00070B507F081FD09F023F809F01BF80B4B78
:10A8D0000B4A4FF47A741968B1FBF2F24FF0E021A1
:10A8E0004D698969691AB1FBF2F10022E0FB04129B
:10A8F000C3E90612BDE8704007F07EBD40030020AA
:10A9000040420F0000B54FF0E020016941F0040122
:10A9100001616FF07F4141610020FFF7DFF8064AD7
:10A920000449B0FBF2F04FF47A720860504348607B
:10A9300000BD0000A401002040420F000249014870
:10A94000086070470090D003340300204FF080511E
:10A95000D1F84422384BC2F342321A6000228B00F5
:10A96000C3F80C21C3F81021334B1B1F1A60334A64
:10A970001268334B1A60314A121D12681B1D1A608F
:10A980002E4A083212681B1D1A602C4A0C321268BB
:10A990001B1D1A60294A103212681B1D1A60274AB3
:10A9A000143212681B1D1A60244A18321368244A94
:10A9B00020321360214A1C321268214B24331A6062
:10A9C0001E4A203212681B1D1A601C4A243212686B
:10A9D0001B1D1A60194A283212681B1D1A60174A7B
:10A9E0002C3212681B1D1A60144A30321268144B44
:10A9F00040331A60114A343212681B1D1A600F4A24
:10AA0000383212681B1D1A600C4A3C3212681B1D3A
:10AA10001A600A4A403212681B1D1A60094BFB2259
:10AA20001A6009480168C90702D06FF0010101608E
:10AA300007490648086070473C05004004040010C0
:10AA400020C5004018F50040000400400090D003ED
:10AA500034030020BFF34F8F04480168044A01F417
:10AA6000E06111430160BFF34F8FFEE70CED00E0A2
:10AA70000400FA0503490020C1F84001024807F02C
:10AA80001CB8000000800040200B0020034900207B
:10AA9000C1F84001024807F010B8000000900040E3
:10AAA000800B002003490020C1F84001024807F054
:10AAB00004B8000000A00040E00B002030B50A4AB6
:10AAC0000123402552F8204005EB8105635152F8DF
:10AAD00020004FF4A86202EB810140580349096845
:10AAE000B0FBF1F030BD0000104A0100C0010020B1
:10AAF000F0B5114D0446032755F824000E46C0F862
:10AB00001075204600F038F855F824100020C1F8E0
:10AB1000040555F82400C0F8087555F82400D0F84D
:10AB20000022012303FA06F10A43C0F8002255F877
:10AB300024000360F0BD0000104A010010B501249C
:10AB4000103104FA01F30B4951F8201012B1C1F889
:10AB5000043301E0C1F808330649091F085600F024
:10AB60001F018C404009800000F1E020C0F8004146
:10AB700010BD0000104A010030B5084C02234FF40C
:10AB8000A86523605300064A05EB810152F8204076
:10AB9000635052F820000121C16030BDC001002087
:10ABA000104A0100024A012152F82000016070475A
:10ABB000104A0100024A012152F82000416070470A
:10ABC000104A010010B502F03BF8282010BD00002B
:10ABD00010B507F0F9FB0F4CD4F8100118B10121A2
:10ABE0000D4807F021FAD4F8200170B1D4F804031D
:10ABF000C0050AD50020C4F820010246014600F035
:10AC00009DF80421044807F00FFABDE8104007F052
:10AC1000F3BB000000200040500C0020074A52F80F
:10AC20002000D0F810213AB10022C0F810210448C9
:10AC3000407808701046704701207047C0490100F5
:10AC4000BC01002070B5184D0446082055F824209A
:10AC5000C2F80005204600F05BF855F82400D0F853
:10AC6000001241F02001C0F8001255F82410012014
:10AC7000C1F8380555F824200C49C2F8341555F8A8
:10AC80002410086055F824108860094D287840B1D8
:10AC900006480849401E04700748FFF7F3FD0020EE
:10ACA0002870002070BD0000C0490100BD010020D7
:10ACB000B4010020159B000041A30000054951F894
:10ACC0002000D0F8501119B1D0F82001002800D090
:10ACD00001207047C049010013B50C49012251F809
:10ACE0002030C3F8482551F8204001ABC4F8443562
:10ACF00051F820309A6051F82000D0F81C1100293A
:10AD0000FBD00021C0F81C111CBD0000C04901008F
:10AD100070B5094B00221C1F53F832508D4206D1EA
:10AD200003EBC20554F820606D68C6F82455521C28
:10AD3000092AF1D370BD0000C449010030B50F4BA2
:10AD400001241B5603F01F05AC405B099B0003F177
:10AD5000E023C3F80041094B1B1D19B101290BD198
:10AD6000102101E04FF4807153F8200012B1C0F8B7
:10AD7000041301E0C0F80813002030BDBC490100F5
:10AD800030B5094B002453F82050C5F8204153F842
:10AD90002040C4F8482553F82020C2F8441553F841
:10ADA00020000121816030BDC0490100034810B579
:10ADB000816803A009F098FC002010BD400300202A
:10ADC000307825580D0A00000FB4054B10B503A9C3
:10ADD000044A029800F0D0FD10BC5DF814FB00009E
:10ADE00035CE0000B80100200FB4084B10B504A9FF
:10ADF00002AA039800F0C0FD044602A9002001F059
:10AE0000C3F9204610BC5DF814FB000089C10000A6
:10AE10007CB5044600201D46164600290BD0491E6D
:10AE2000CDE90041044B6A462946304600F0A4FDB6
:10AE3000009A002111707CBD73C10000490050EAE6
:10AE4000C12018BF04204A0D18BF40F0010040F295
:10AE5000FF72B2EB515F08BF40F00200012808BF4B
:10AE60000520704700487047380300202DE9F04165
:10AE70004F1E00EBC7010446D1E9000115461E46EE
:10AE800037F006020DD02A463346FDF7F2FD7F1E4D
:10AE900004EBC703D3E90023FDF744FD37F00602B6
:10AEA000F1D1022F25D0042F13D0062F18BFBDE8F3
:10AEB000F0812A463346FDF7DCFDD4E90A23FDF78D
:10AEC00031FD2A463346FDF7D4FDD4E90823FDF7CA
:10AED00029FD2A463346FDF7CCFDD4E90623FDF7CC
:10AEE00021FD2A463346FDF7C4FDD4E90423FDF7CE
:10AEF00019FD2A463346FDF7BCFDD4E90223FDF7D0
:10AF000011FD2A463346FDF7B4FDD4E90023BDE820
:10AF1000F041FDF707BD0122FDF71DBEFDF702BDA3
:10AF20000022134610461146FEF78CB8024A002054
:10AF30001107FDF710BE000001FDFFFF002807D03C
:10AF40000E4910F0FF0F04D051FA80F00078401C39
:10AF5000704710F47F4F04D0C0F30720085C09301D
:10AF6000704710F47F0F04D0C0F30740085C113025
:10AF7000704701EB10600078193070471C4A0100DF
:10AF800002E008C8121F08C1002AFAD170477047B2
:10AF9000002001E001C1121F002AFBD17047000010
:10AFA0000149086070470000380300202DE9FF5F69
:10AFB00082B00021DDE90430020DDDF840B003432A
:10AFC00018D044F61050A2F2FF32424315141198E3
:10AFD00001281FD0A5EB0B00401C5FEA000A4FF0D0
:10AFE00000064E4FDFF83891B046504615D5CAF1ED
:10AFF000000413E0119801244AA3012801D16FEA4B
:10B000000B010298119AC0E90031C0E9024206B072
:10B01000BDE8F09FCBF10000DFE704460021404A85
:10B02000491842EB0450CDE9001012E0E00707D0C8
:10B0300032463B4640464946FDF71BFD8046894661
:10B0400032463B4610461946FDF713FD06460F46AD
:10B050006410002CEAD1DDE90401DDE90023BAF136
:10B06000000F06DAFDF705FD42464B46FDF701FDF0
:10B0700005E0FDF7E7FF42464B46FDF7E3FF0446D8
:10B080000E460022284BFEF7B5F803D84FF0FF30EC
:10B09000014607E00022254B20463146FDF742FCE1
:10B0A000FEF790F8102409E0002C0ADB0A220023A6
:10B0B000FDF73CF9039B30321A55641E50EA010239
:10B0C000F2D1641C039AC4F111031444119A012AA9
:10B0D00003D0012208430DD10AE0084304D0002028
:10B0E0004FF0110B119072E7A3EB0B056D1E0DE0F5
:10B0F0005B4504DD4FF0000205F1010504E003DAD1
:10B100004FF00002A5F10105002AECD00298119938
:10B11000C0E90231C0E9004579E7000000001440B1
:10B120000000F03F300000000000F0430000E03F6E
:10B1300003480168814201D0012070470020704718
:10B14000A0020020F0B597B005465022174902A88A
:10B15000FDF71DF916A42946204605F0C2FE074654
:10B160000146224614A007F09FF9384605F0D4FEA8
:10B170001BA007F099F902AE2C6811E0207AA17BA0
:10B18000A4F10C03132802D856F8200000E015980B
:10B19000CDE90001082239461AA007F085F9246894
:10B1A000AC42EBD117B00020F0BD0000684C0100AC
:10B1B0006465766963650000252D2A2E73202020A2
:10B1C000202020202020747970652020202020203D
:10B1D00020202072656620636F756E740A0000007F
:10B1E000202D2D2D2D2D2D2D2D2D2D2D2D2D2D2D9C
:10B1F0002D2D2D2D2D202D2D2D2D2D2D2D2D2D2D8C
:10B200000A000000252D2A2E2A7320252D323073A6
:10B2100020252D38640A00002DE9FC4106461EA4B5
:10B220000146204605F05DFE0746014622461CA069
:10B2300007F03AF9384605F06FFE22A007F034F91E
:10B24000346810E004F10800A4F10C05804607F012
:10B2500079F968B1E86900902B460822394621A0A7
:10B2600007F022F92468B442ECD10020BDE8FC814B
:10B27000404607F06EF9E969CDE900102B46082237
:10B2800039461DA007F010F9404608F029FE204875
:10B2900007F00AF9E6E700006576656E74000000C5
:10B2A000252D2A2E73202020202020736574202035
:10B2B000202073757370656E6420746872656164B4
:10B2C0000A00000020202D2D2D2D2D2D2D2D2D2D72
:10B2D000202D2D2D2D2D2D2D2D2D2D2D2D2D2D0ACE
:10B2E00000000000252D2A2E2A73202030782530DA
:10B2F000387820300A000000252D2A2E2A732020BD
:10B3000030782530387820253033643A000000004A
:10B3100080B600002DE9FE43064622A401462046E1
:10B3200005F0DFFD07460146224620A007F0BCF8E5
:10B33000384605F0F1FD26A007F0B6F8356817E0AD
:10B3400005F10800A5F10C04804607F0FBF8002881
:10B35000404612D007F0FDF8218C628CCDE9002127
:10B36000029023460822394620A007F09DF82D6858
:10B37000B542E5D10020BDE8FE8307F0EAF8218C54
:10B38000628CCDE9002102902346082239461DA097
:10B3900007F08AF8404608F0A3FD19A007F084F8EA
:10B3A000E5E700006D61696C626F7800252D2A2E3B
:10B3B0007320656E7472792073697A652073757372
:10B3C00070656E64207468726561640A0000000034
:10B3D000202D2D2D2D20202D2D2D2D202D2D2D2DD1
:10B3E0002D2D2D2D2D2D2D2D2D2D0A00252D2A2EE7
:10B3F0002A732025303464202025303464202564CD
:10B400000A000000252D2A2E2A73202530346420BE
:10B4100020253034642025643A0000002DE9FC41E9
:10B42000064620A40146204605F05BFD074601467E
:10B4300022461FA007F038F8384605F06DFD23A01E
:10B4400007F032F8346815E004F10800A4F10C05A7
:10B45000804607F077F80028404610D007F079F8CA
:10B46000A98CCDE900102B46082239461DA007F013
:10B470001BF82468B442E7D10020BDE8FC8107F046
:10B4800068F8A98CCDE900102B46082239461AA08D
:10B4900007F00AF8404608F023FD1C4807F004F8BE
:10B4A000E7E700006D736771756575650000000062
:10B4B000252D2A2E7320656E747279207375737032
:10B4C000656E64207468726561640A00202D2D2DFC
:10B4D0002D20202D2D2D2D2D2D2D2D2D2D2D2D2DB6
:10B4E0002D0A0000252D2A2E2A73202530346420B1
:10B4F0002025640A00000000252D2A2E2A7320250D
:10B50000303464202025643A0000000080B600003A
:10B510002DE9FF41064616A40146204605F0E1FC50
:10B5200080460146224614A006F0BEFF404605F0C4
:10B53000F3FC1AA006F0B8FF0827356812E0A5F161
:10B540000C0405F1080007F004F8E17F226A03907B
:10B550000097CDE9012123460822414617A006F0B5
:10B56000A3FF2D68B542EAD104B00020BDE8F08108
:10B570006D75746578000000252D2A2E732020201B
:10B580006F776E65722020686F6C642073757370BE
:10B59000656E64207468726561640A00202D2D2D2B
:10B5A0002D2D2D2D2D202D2D2D2D202D2D2D2D2DE5
:10B5B0002D2D2D2D2D2D2D2D2D0A0000252D2A2E42
:10B5C0002A7320252D382E2A732025303464202517
:10B5D000640A00002DE9FC41064620A401462046ED
:10B5E00005F07FFC0746014622461FA006F05CFFDF
:10B5F000384605F091FC23A006F056FF346815E0AC
:10B6000004F10800A4F10C05804606F09BFF002819
:10B61000404610D006F09DFFA98BCDE900102B46C7
:10B62000082239461DA006F03FFF2468B442E7D146
:10B630000020BDE8FC8106F08CFFA98BCDE900104D
:10B640002B460822394619A006F02EFF404608F086
:10B6500047FC0BA006F028FFE7E7000073656D616B
:10B6600070686F7265000000252D2A2E73207620E9
:10B67000202073757370656E6420746872656164F0
:10B680000A000000202D2D2D202D2D2D2D2D2D2DAE
:10B690002D2D2D2D2D2D2D0A00000000252D2A2EBB
:10B6A0002A7320253033642025640A00252D2A2E94
:10B6B0002A7320253033642025643A002DE9FC41AB
:10B6C000064628A40146204605F00BFC0746014625
:10B6D0002246264806F0E8FE384605F01DFC24A068
:10B6E00006F0E2FE356838E095F82900A5F10C0473
:10B6F00000902346082239462DA006F0D5FE94F886
:10B70000340000F00F00012805D0022805D030B128
:10B71000042806D008E029A004E02BA002E02DA018
:10B7200000E02FA006F0C0FEA06A014600E0401C29
:10B730000278232AFBD0E26A64231144081A584392
:10B74000B0FBF2F3D4F830C0A06CCDE9000CE06996
:10B75000091A26A006F0A8FE2D68B542C4D1002023
:10B76000BDE8FC81746872656164000010520100DC
:10B77000202D2D2D20202D2D2D2D2D2D2D202D2D2D
:10B780002D2D2D2D2D2D2D2D202D2D2D2D2D2D2DF6
:10B790002D2D2D20202D2D2D2D2D2D20202D2D2D0D
:10B7A0002D2D2D2D2D2D2D202D2D2D0A00000000AD
:10B7B000252D2A2E2A7320253364200020726561EE
:10B7C00064792020000000002073757370656E643A
:10B7D0000000000020696E69742020200000000035
:10B7E00020636C6F736520200000000020307825F6
:10B7F00030387820307825303878202020202530C7
:10B8000032642525202020307825303878202530D6
:10B8100033640A002DE9FC41064619A4014620467E
:10B8200005F05FFB07460146224617A006F03CFEE6
:10B83000384605F071FB1EA006F036FE346814E0B1
:10B84000A4F10C052B46D5E90901CDE90001082238
:10B85000394620A006F028FE687AC00701D023A050
:10B8600000E025A006F020FE2468B442E8D108F0EC
:10B8700049F8014624A006F017FE0020BDE8FC812F
:10B8800074696D6572000000252D2A2E73202070CA
:10B890006572696F64696320202074696D656F75D6
:10B8A0007420202020202020666C61670A000000A0
:10B8B000202D2D2D2D2D2D2D2D2D2D202D2D2D2DD2
:10B8C0002D2D2D2D2D2D202D2D2D2D2D2D2D2D2DB5
:10B8D0002D2D0A00252D2A2E2A7320307825303868
:10B8E0007820307825303878200000006163746952
:10B8F00076617465640A00006465616374697661E9
:10B900007465640A0000000063757272656E7420CD
:10B910007469636B3A3078253038780A000000008B
:10B9200010B53AB154881188026C136822469847C2
:10B93000002010BD4FF0FF3010BD70B51D46140043
:10B9400001D0042D01D0002070BD026C21889268C6
:10B9500090476080284670BD70B51C460AB1042C23
:10B9600001D0002070BD55881188026C53682A46AA
:10B970009847204670BD00002DE9FF4F95B09B46CB
:10B980008946064600250FE2252877D10024274660
:10B99000F84A0121059400E0044316F8013F203BDA
:10B9A00001FA03F01042F7D130782A2811D06FF055
:10B9B0002F033078A0F13002092A16D8059A44F0F6
:10B9C000020402EB820203EB42021044761C059053
:10B9D000EFE759F8042B0592002A03DA504244F4A9
:10B9E0000054059044F00204761C30782E2816D1BD
:10B9F00016F8010F44F004042A280DD06FF02F022E
:10BA00003078A0F13003092B09D807EB870302EB4C
:10BA10004303C718761CF3E759F8047B761C30788B
:10BA20006C280FD006DC4C2817D068280DD06A2867
:10BA300014D104E0742810D07A280FD10DE044F41A
:10BA400000140AE044F4801401E044F440147278D5
:10BA5000824202D104F58014761C761C3078662868
:10BA60000BD013DC582877D009DC002875D0452886
:10BA7000F6D04628F4D047281AD19DE118E0632873
:10BA800035D0642879D0652812D195E1702873D01B
:10BA900008DC6728F1D069286FD06E280DD06F2898
:10BAA00006D1B5E073282CD0752875D0782874D0CD
:10BAB0005A46179990476D1C75E1C4F3025002284D
:10BAC00009D003280DD0D9F8001004280DD00D603E
:10BAD00009F1040967E1D9F80010EA17C1E9005239
:10BAE000F6E7D9F800100D80F2E70D70F0E719F8CD
:10BAF000041B8DF8001000208DF80100EA4601209B
:10BB000003E059F804AB4FF0FF3061074FF000013C
:10BB100002D40DE008F101018846B9420FDA8045F0
:10BB2000F8DB1AF808100029F4D108E008F1010147
:10BB300088468142FADB1AF808100029F6D10598E8
:10BB40005B46A0EB080721463846179A00F094FAA6
:10BB5000284400EB080507E04DE029E10DE01AF864
:10BB6000010B5A4617999047B8F10108F7D25B4686
:10BB700021463846179A13E142E00A220092C4F3A4
:10BB800002524FF0000A022A08D059F804CB032AC7
:10BB90004FEAEC710AD00DE029E02AE009F1070133
:10BBA00021F00702F2E802C1914609E00FFA8CFC8D
:10BBB0004FEAEC71042A03D14FFA8CFC4FEAEC7186
:10BBC000002907DA0A460021DCF1000C61EB0201D2
:10BBD0002D2202E0220504D52B228DF8042001221B
:10BBE00003E0E20701D02022F7E7904659E00A215E
:10BBF00002E010220DE010214FF0000A00910BE04E
:10BC000010224FF0000A44F004040827009203E0D9
:10BC100008224FF0000A0092C4F30252022A05D013
:10BC200059F804CB0021032A08D009E009F10701E3
:10BC300021F00702F2E802C1914605E01FFA8CFCF0
:10BC4000042A01D10CF0FF0C4FF00008220728D580
:10BC5000702806D0009B83F0100353EA0A0305D036
:10BC60000EE040228DF80420012208E05CEA010287
:10BC700006D030228DF804208DF80500022290466F
:10BC8000009B83F0080353EA0A030AD15CEA01022D
:10BC900001D1620705D530228DF804204FF001084C
:10BCA0007F1E582804D034A003900EA802900DE007
:10BCB00036A0F9E753466046009AFCF737FB844606
:10BCC0000398825C0298401E029002705CEA0100B8
:10BCD000F0D1029806A9081A00F1200A600702D5DF
:10BCE00024F4803400E00127574502DDA7EB0A0069
:10BCF00000E0002000EB0A01009005984144401A42
:10BD00000590E00306D45B462146179A059800F09B
:10BD1000B3F90544002706E001A85A46C05D17990B
:10BD200090476D1C7F1C4745F6DBE0030CD55B4656
:10BD30002146179A059800F09FF9054404E0302049
:10BD40005A46179990476D1C0099481E009000298B
:10BD5000F5DC08E0029802995A460078491C0291E5
:10BD6000179990476D1CBAF10001AAF1010AF1DCA4
:10BD700065E10000092801003031323334353637AF
:10BD80003839616263646566000000003031323327
:10BD900034353637383941424344454600000000C7
:10BDA00000F058F90544761C307800287FF4ECAD9B
:10BDB00019B02846BDE8F08F620700D4062709F1C4
:10BDC000070222F0070CFCE80223E14603F00048DA
:10BDD0005FEA080C02D00FF2702C0DE05FEA045C01
:10BDE00002D50FF2682C07E05FEAC47C02D00FF2A4
:10BDF000602C01E0AFF2700C4FF0FF3823F00043ED
:10BE0000CDF850C065280CD006DC452809D046285E
:10BE10001DD047283DD13DE0662818D067287ED147
:10BE200038E00021112F01DB112000E0781CCDE962
:10BE3000000106A90EA8FFF7B9F8DDE90F010E9A77
:10BE400003910021009207F1010A04914DE04FF0A7
:10BE500000400097CDE9011006A90EA8FFF7A6F84B
:10BE6000DDE90F0203920E9B11990022DDF80CA070
:10BE70000093049211B9791C00EB010AB7EB0A0098
:10BE800004D4C0F1FF3007F1010A0490AAEB0700C7
:10BE9000019044E0012F00DA01270021112F01DD7C
:10BEA000112000E03846CDE9000106A90EA8FFF7F1
:10BEB0007DF8DDE90F010E9A0391002104910092B3
:10BEC000BA4621070CD40399514500DA8A46BAF1E3
:10BED000010F05DD009AAAF10101515C302908D05B
:10BEE000B84202DA10F1040F06DA0121CDE901109F
:10BEF00015E0AAF10101E9E7002805DC04990144F5
:10BF00000491AAEB000102E0411C514500DD8A4684
:10BF10000499401A401C01904FF000400290200705
:10BF200004D40198504501DBCDF8048000208DF841
:10BF30004F0002980DF14F07B0F1004F25D02B2094
:10BF40000E9002984FF0020800280CDA404202904E
:10BF50002D200E9007E00A210298FCF791FE303167
:10BF6000029007F8011DB8F10001A8F10108F2DC08
:10BF700002980028EFD1791E0E980870307800F0F2
:10BF8000200040F0450007F8020D12A8C01B00F188
:10BF900007081498007800B1012000EB0A0101980D
:10BFA00001EBE07105984144401A401E0590E00302
:10BFB00006D45B462146179A059800F05DF80544C3
:10BFC0001498007818B15A46179990476D1CE003F1
:10BFD00024D55B462146179A059800F04DF8054494
:10BFE0001CE00498002807DBDDE90301884203DD3B
:10BFF0000098405C179901E0179930205A46904705
:10C00000049805F10105401C04900198401E019020
:10C0100004D12E205A46179990476D1CBAF10001A1
:10C02000AAF1010ADDDC05E017F8010B5A46179961
:10C0300090476D1CB8F10001A8F10108F4DC5B46E3
:10C040002146179A0598ABE62D0000002B00000052
:10C05000200000002DE9F041044600251E46174649
:10C06000880404D405E039462020B0476D1C641EC6
:10C07000F9D52846BDE8F0812DE9F04104460025B8
:10C080001E469046C80301D5302700E020278804CB
:10C0900004D505E041463846B0476D1C641EF9D50D
:10C0A0002846BDE8F08100002DE9FC4119461746FD
:10C0B0000446DDE90832DDE90A65143040600060BD
:10C0C0002762E262C4E90913232118461C3406F0F2
:10C0D000FEFAD4E903014218D4E90101104B121F02
:10C0E00006F01CF82060A67666760020A562E06166
:10C0F000E56260612076E06520661C3C0090234686
:10C100000190084A194604F14C0007F098FC0648D3
:10C11000816809B1204688470020BDE8FC81000005
:10C120009535010029380100A802002010B5029CB5
:10C1300024F001044472C0E907120021C0E909316A
:10C1400000EBC1021432491C526012600129F7DB76
:10C1500010BD10B5002200EBC201521CF1E90534FC
:10C16000012A5C60D1E90034236049600960F2DB98
:10C1700010BD4A68002A06D00A68531C0B60107074
:10C180004868401E486070470A68531C0B60107076
:10C190007047000010B50549054803F05FFCBDE895
:10C1A00010400249024804F0AFB8000018490100ED
:10C1B000380700202DE9F04D8D4F21F0004A86B060
:10C1C00005460C46BA452ADBAAEB070028430AD0ED
:10C1D0008848824501DC1AD1CDB106B02846BDE8B9
:10C1E000F04DFEF798BE844A844B2846FCF741FC8C
:10C1F00007460E46824A834B28462146FCF739FC07
:10C2000006B03A463346BDE8F04DFCF78BBB012043
:10C21000FEF7C6FE06B0BDE8F04DFEF781BE7A48D7
:10C22000824542DABAF1795F0BDA2846FEF706FE5C
:10C23000042808BFFEF77AFE284606B02146BDE86E
:10C24000F08D2A460B461046FCF713FC8346024647
:10C250006E480E460B4606217844FEF707FE5A4606
:10C260003346FCF706FC804669488A465A46334600
:10C2700004217844FEF7FAFD5A463346FCF7F9FBF1
:10C2800000223B46FCF74EFB02460B464046514619
:10C29000FCF7D8FE2A462346FCF7EBFB06B02A46FD
:10C2A0002346BDE8F04DFCF73DBB284624F0004195
:10C2B00000223D463B46FCF7D9FB4FF0FF32FCF72E
:10C2C0004AFC0646024653480F460B460621784470
:10C2D000FEF7CCFD32463B46FCF7CBFBCDE9000137
:10C2E0004D4832463B4604217844FEF7BFFD3246B6
:10C2F0003B46FCF7BEFB00222B46FCF713FB8346B4
:10C3000002913046394607F017FE804643480D46F5
:10C31000504517DCDDE900015A46029BFCF792FE0E
:10C3200042462B46FCF7A5FB42462B46FCF7FAFAA1
:10C330000122FCF710FC304A304BFCF794FB304AEA
:10C34000304B4CE04FF0000A52460B464046FCF79B
:10C35000E9FACDE9031052462B4610461946FCF780
:10C3600088FB32463B46FCF781FBDDE90332FCF7F4
:10C3700069FE06460F46DDE900015A46029BFCF7BE
:10C3800061FE83460091012230463946FCF7E3FB0B
:10C39000194A1A4BFCF76AFB06460F460122404633
:10C3A0002946FCF7D8FB5A46009BFCF762FB324655
:10C3B0003B46FCF758FB06460F46012250462946ED
:10C3C000FCF7C9FB0E4DDFF858802A464346FCF7C0
:10C3D0004DFB32463B46FCF749FB2A464346FCF7F9
:10C3E00045FB002CD8BF81F0004106B0BDE8F08DC0
:10C3F0000000F03F0000F07F075C143326A6913C5C
:10C40000182D4454FB21F93F0000E03F5C8C0000F4
:10C41000728C0000E68B0000FC8B00003333EF3F92
:10C42000FB21E93F08B501236A46002105F0FEFB28
:10C43000034801226946006806F032FA002008BD70
:10C440000400002008B500234022012110A006F0BE
:10C4500060F9114C10212060201D00F0F5F90FA0AB
:10C4600005F002FB054640F2431105F069FB0D495A
:10C47000284605F006FC4FF0FF352B4601226946A1
:10C48000206806F08BF99DF8000000F0E7F9F4E76A
:10C490006D625F61740000000400002075617274B9
:10C4A0003000000025C400002DE9F84F04460D4679
:10C4B00021F0004000917349814211DC72498842A9
:10C4C00001DC06D12CB120462946BDE8F84FFEF725
:10C4D00022BD6E48002DCCBF6D496E49BDE8F88F76
:10C4E0006D49814211DD6D498142D8BF4FF0FF3661
:10C4F0006DDD20462946FEF7A1FC042808BFFEF7A3
:10C5000015FD20462946BDE8F88F6549654F25F0A1
:10C510000045814233DD6449814219DD00263246FF
:10C520004FF0804320462946FCF7FCF980468A46B6
:10C53000012220462946FCF70EFB00223B46FCF771
:10C5400092FA42465346FCF77DFD04460D463EE016
:10C5500001260022BA463B4620462946FCF7E2F96E
:10C5600080460F460022534620462946FCF77BFAB8
:10C5700042463B46FCF766FD04460D4627E04B4924
:10C5800081421BDDDFF828A1022600225346204607
:10C590002946FCF76EFA00223B46FCF7C3F98046B9
:10C5A0000F460022534620462946FCF75CFA4246D5
:10C5B0003B46FCF747FD04460D4608E003262246AD
:10C5C0002B4600203B49FCF73DFD04460D46224624
:10C5D0002B4610461946FCF74CFA8B46824602461B
:10C5E0000B46FCF746FA07460246334888460B4698
:10C5F00006217844FEF73AFC52465B46FCF739FACE
:10C6000082462E488B463A46434605217844FEF73B
:10C610002DFC3A464346FCF72CFA02460B46002E08
:10C62000504659460CDAFCF77DF922462B46FCF7BA
:10C6300020FA01B022462B46BDE8F04FFCF716BAAF
:10C64000FCF770F922462B46FCF713FA1C4A7A4491
:10C6500002EBC603D3E90023FCF705FA22462B467A
:10C66000FCF701FA174A7A4402EBC603D3E9002328
:10C67000FCF7FCF9009A002AB8BF81F00041BDE840
:10C68000F88F0000000010440000F07F182D445483
:10C69000FB21F93FFB21F9BF0000DC3F0000203EF9
:10C6A0000000F33F0000F03F0000E63F0080034041
:10C6B0000000F83F0000F0BF7A89000038890000D0
:10C6C000D68800009E8800002DE9F04D9446CCF1FC
:10C6D000000423F000464CEA0404524F46EAD474A6
:10C6E0009A46884621F00042BC4206D8454240EABC
:10C6F000050442EAD474BC4204D9BDE8F04D624658
:10C70000FEF70CBCAAF14055A5F17F6555EA0C0473
:10C710000BD0022404EAAA74434DDFF810E144EA86
:10C72000D87452EA000B04D00CE0BDE8F04DFFF7DE
:10C73000BBBE002C14BF012CBDE8F08D022C30D004
:10C74000032C32D056EA0C0B0AD0BE4220D1BA429A
:10C7500009D126F0804622F080423346114617E088
:10C7600000291ADB25E0DFF8C8B0FB44002C04BF29
:10C77000DBE90001BDE8F08D012C02BFDBE900011F
:10C7800081F00041BDE8F08D022C0AD0032C0CD0C2
:10C79000BA4212D1B8F1000F0BDA23482549BDE89F
:10C7A000F08D28462449BDE8F08D28467146BDE845
:10C7B000F08D1D482149BDE8F08D921B12153C2AD1
:10C7C000C4BF19481D490EDCBAF1000FBEBF12F1FB
:10C7D0003C0F0020014606DB6246FCF733FC21F0EB
:10C7E0000041FFF761FE002C08BFBDE8F08D012C71
:10C7F00004BF81F00041BDE8F08D114A114B022CBD
:10C8000007D0FCF730F92A46BDE8F04D0A4BFCF79B
:10C810002AB9FCF728F92A46BDE8F04D064BFCF78B
:10C8200025B900000000F07F182D4454FB2109C0F9
:10C8300032880000FB21F9BFFB210940FB21F93FB1
:10C84000075C143326A6A13C034AC2E9000100207C
:10C850009060D06070470000E81300202DE9F84395
:10C86000414E317869B14FF0000901290DD03F4A9E
:10C87000022915D003290ED10D281FD00A281DD05A
:10C880004AE0412807D1012016E0542805D086F857
:10C890000090C6F80490BDE8F88302203070F8E7F5
:10C8A0000D2808D00A2806D07168402903D05054BA
:10C8B000491C7160EFE703203070ECE79046726826
:10C8C0002A4F002408F80290403722E03D212748F3
:10C8D000FBF781FD30B13D212448FBF77CFDA0EB47
:10C8E000080500E07568386850F83400FBF77DFDF6
:10C8F000A84205D3386850F83400FBF776FD0546AA
:10C9000038682A46194950F83400FBF790FD30B1D9
:10C91000641C7868A042D9D886F80090BBE73868D4
:10C9200050F83400FBF761FD40440090B96809B14C
:10C93000002088470421386801EBC4014258694649
:10C940000120904710B1012805D101E008A000E0C6
:10C9500009A007F0C9FEF96809B100208847402105
:10C960000248FBF72DFDD7E704030020A8130020A1
:10C970004F4B0D0A000000004552520D0A00000006
:10C9800010B51BA005F090FD1C4C21781CA005F0F3
:10C990008BFD2078C00702D01FA005F085FD207810
:10C9A000800702D51FA005F07FFD2078400702D543
:10C9B0001FA005F079FD2078000702D520A005F022
:10C9C00073FD2078C00602D520A005F06DFD20780B
:10C9D000000607D509480F300168BDE810401DA0CA
:10C9E00005F062BDBDE810401EA005F05DBD000071
:10C9F000627573206661756C743A0A0029ED00E077
:10CA00005343425F434653525F424653523A307853
:10CA100025303258200000004942555345525220DB
:10CA20000000000050524543495345525220000037
:10CA3000494D505245434953455252200000000091
:10CA4000554E53544B4552522000000053544B4511
:10CA5000525220005343422D3E424641523A253025
:10CA600038580A000A00000010B503F0D1FE00207B
:10CA700010BD10B503F01DFF002010BD0020704751
:10CA8000F8B5214D00266868A8B905F00FF906F041
:10CA900039FF044608E06868401C6860009600980A
:10CAA000401C00906428FAD306F02CFF001B0A28D3
:10CAB000F1D305F009F9002406F024FF074606E04B
:10CAC000641C00960098401C00906428FAD306F07D
:10CAD00019FFC01B0A28F3D3686884420FD2011BD8
:10CAE00064225143B1FBF0F22A70B1FBF0F200FB7B
:10CAF000121164225143B1FBF0F06870F8BD6C6014
:10CB00002E706E70F8BD0000E0020020014806F0B3
:10CB1000CFBD000081CA0000F0B50388002641F2B5
:10CB200021070CE08C5D002583EA04235C001B04D4
:10CB300000D57C406D1C2346082DF7D3761C964209
:10CB4000F0D30380F0BD00000EB540F2064005F0C2
:10CB50001BFD04464FF4806005F016FD0022019095
:10CB600011462FA006F01CF92F4F38602FA004F0BB
:10CB70007BFF304E05001BD0032104F0E1FF2E495E
:10CB8000284605F07EF806F154020121284604F0FB
:10CB900065FF02208DF8080002AA0421284604F04F
:10CBA0005DFF706D20B900220221284604F056FF77
:10CBB0000120DFF888904FF0FF3B4FF0FF0806F1AF
:10CBC000600AF0655946386806F032F9A52120461A
:10CBD00000F019FCCDF80080019B16495046D9F8A9
:10CBE000002007F0E5F9054682B22046019900F0E1
:10CBF000EFFB204600F01CFC2846FBF7CCFF30651D
:10CC0000002CDFD0A078E17810EB0120DAD02046AC
:10CC100000F02CFC024621460020FEF7B1F8D1E7D7
:10CC20006F64725F73656D000000002074696D654C
:10CC30007231000040030020C5440100980000202C
:10CC400010B50020FEF73AF8002805D00348006828
:10CC5000BDE8104006F0C6B810BD0000000000207E
:10CC6000F8B50146012000904FF07E57084603F0CA
:10CC700083FF0646694600F0E9F80024758809E05C
:10CC800004FB0541706850F821103846FBF7CEFDD3
:10CC90000746641CA542F3DC0098FBF773FF394696
:10CCA000FBF7C4FD0446304605F026F82046F8BDE3
:10CCB0002DE9FC411D4616460F468046089C05F0AE
:10CCC00095FB48B1CDE9005433463A464146002031
:10CCD00007F0B6FCBDE8FC812B463246394640469B
:10CCE000009407F0E1FCF5E770B50D46044617A186
:10CCF000FBF782FB38B118A12046FBF77DFB20B182
:10CD00002046FEF761F800261BE06A88298814A0F7
:10CD1000FEF75AF8F7E700240CE006FB00406968CC
:10CD200051F82000FBF769FF02460B4611A0FEF701
:10CD30004BF8641C6888A042EFDC10A0FEF744F8B2
:10CD4000761C2888B042E6DC70BD00006E6F686516
:10CD500061646572000000006D61746C61620000C6
:10CD60006D61747269783A282564782564290D0A02
:10CD70000000000025382E34662000000D0A000057
:10CD800070B50D461646044613A1FBF735FB70B18E
:10CD9000022214A12046FBF74AFB40B112A1204613
:10CDA000FBF72AFB28B1214611A0FEF70DF800245D
:10CDB0000BE031460FA0F8E701CDFBF71EFF02465E
:10CDC0000B4610A0FEF700F8641CB442F4D3BDE893
:10CDD00070400BA0FDF7F8BF6E6F68656164657207
:10CDE000000000002F2B00006D61746C6162000078
:10CDF00025730000766563286C656E3A2564293AD0
:10CE00000D0A000025382E346620000010B50446B7
:10CE10000846C4E9001207F0F6FCA06000200146B5
:10CE200003E0A26842F82010401C22688242F8DC2D
:10CE3000002010BD10B504490446086810B1096807
:10CE4000E0B28847204610BDAC0100202DE9F0413A
:10CE5000054601200E46002408603DE06A886868A7
:10CE600004FB024150F8211011F0FF4F17D1611C53
:10CE70002B880FE001FB024750F8277017F0FF4F97
:10CE800007D02246284604F007FD30684042306053
:10CE9000E4E7491C8B42EDDC98B288421BD0671C4A
:10CEA00016E06B88696807FB034251F8222012F0F4
:10CEB000FF4F17D004FB034051F820101046FBF73A
:10CEC000E7FC03463A462146284604F079FC7F1CDD
:10CED0002888B842E5DC641C6888A042BEDC0020DB
:10CEE000BDE8F081401EA042F5D0F0E710B505F096
:10CEF0007DFA20B1034805F0D7FA002010BD0248A2
:10CF000010BD00007053010068140020064A002183
:10CF100012F83130834202D102EBC1007047491C44
:10CF20002029F5D300207047A40000200021012013
:10CF300005F06CFE0021012005F07AFE144C002162
:10CF40000846144AD4F8EC3305E002EB8005AD68DE
:10CF500005B1491C401C8342F7D8012000EB810039
:10CF60004FF4FA71B1FBF0F50121084605F060FEBF
:10CF7000284606F0B5FC06F0EBFA0021012005F08A
:10CF800057FE284606F0ACFC06F0E2FAD7E70000B0
:10CF900040030020D007002010B5124C2068800705
:10CFA00002D511A005F080FA2068400011D50D4887
:10CFB000C01E007808B1FFF7E3FC0A48001F0078A4
:10CFC00008B103F0FBFD0748801E008808B107F098
:10CFD000A7FB2068002804DABDE8104008A005F08F
:10CFE00063BA10BD2CED00E06661696C6564207663
:10CFF0006563746F722066657463680A00000000E0
:10D000006465627567206576656E740A00000000CD
:10D0100010B502A005F048FA002010BD48656C6C00
:10D020006F2052542D546872656164210A0000001B
:10D0300010B50446783000F0F5F8204603F04CFCBB
:10D04000204604F005FB204606F0CCFE04F559709E
:10D05000C4F88C030C38C4F890030C38C4F894035B
:10D06000206B00F03DF9E06ABDE8104000F03EB9E9
:10D070002DE9F04792460D4606460024DFF89881D8
:10D08000C4E02A5DA52A1DD023DC782A70D011DCEB
:10D09000612A6ED0712A6DD0722A6CD0752A6BD13C
:10D0A00098F80000474600EB40004200291906F1BD
:10D0B000B800A2E07A2A6ED0902A25D0A02A01D00A
:10D0C000A12A59D1281950F8011F71618088308335
:10D0D0004AE0D02A24D00EDCB02A19D0B12A17D0C9
:10D0E000C02A01D0C12A47D1281950F8011F316246
:10D0F0008088B08438E0D12A3FD0D92A36D0E02ABF
:10D1000044D0F02A38D13FE068783070A41C7DE02C
:10D11000281950F8011FC6F81A108088F08323E000
:10D120002F197878B97800EB012000B2FBF72AFDBF
:10D13000DFF8E8904946FBF7ABFBB062F878397945
:10D1400000EB012000B2FBF71DFD4946FBF7A0FBF9
:10D15000F0627879B97900EB012000B2FBF712FD9B
:10D160002F49FBF795FB3063E41D4FE011344DE090
:10D1700030E011E016E023E04BE029191022301DC9
:10D18000491CFBF704F9F1E7641D3FE02819D0F8CA
:10D1900001007063F8E727E02819241DC17888F89A
:10D1A000001033E098F8000029190201474606F103
:10D1B0003800491CFBF7EBF8387804EB001424E046
:10D1C00098F80000474600EB40004200291906F598
:10D1D000A47012E098F80000474600EB40004200BF
:10D1E000291906F1E80008E098F80000474600EB2E
:10D1F00040004200291906F58C70491CFBF7C7F85E
:10D20000387800EB400004EB4004641C5445FFF404
:10D2100038AFBDE8F0870000000300200000C842DE
:10D220000000204170B5044622484FF07E51002591
:10D23000C1602149016180F83C5080F83D500321D4
:10D24000084603F06FFCC4F850020321084604F5B9
:10D25000147403F067FC03212061084603F062FCAC
:10D2600003212062084603F05DFCE5642063216829
:10D27000A4F51474D9B1D4F86012C1B1D4F8701205
:10D28000A9B1A0B10B480321183003F003FD0948F0
:10D290000321243003F0FEFC06480321303003F064
:10D2A000F9FCD4F8800203F0C2FB002070BD01201D
:10D2B00070BD000068130020CDCC4C3F074A002110
:10D2C00012F83130834203D102EBC100406870474D
:10D2D000491C1729F4D3002070470000404B01007F
:10D2E0000149C860704700006813002001490861C7
:10D2F00070470000681300202DE9FC414FF4E13134
:10D300000020FDF79FFC25491C20086023491920B7
:10D310000831086003F062FD21A004F05FFEFFF712
:10D32000F5FBFCF757FA2049204802F0EDFF50B119
:10D330001FA005F0B9F81C491C4802F08FFB1A49E0
:10D340001A4802F0E1FF1F48FFF772FE1D48816D89
:10D350001DA004F001FF1CA004F054FB07F05AF9D3
:10D36000114D00241426503D04EB840705EB870083
:10D37000017CCDE90016001D90E80E0055F827004D
:10D3800006F0C2F806F012FA641C042CECD306F086
:10D39000E7F9BDE8FC4106F0DDB800000C250040CF
:10D3A00074696D657231000018490100380700206A
:10D3B0006C6673206D6F756E74206661696C656450
:10D3C0000D0A0000400300207561727430000000F7
:10D3D00070B5044615468078E27800EB0220B0F57F
:10D3E000806F01D9012070BD20442A46801DFAF7C4
:10D3F000CEFFA07850FA85F0A070E07800EB152001
:10D40000E070002070BD10B55A2200F8012B00F822
:10D41000011B002100F8011B00F8031B00F8021C8F
:10D4200000F8011C4FF48061FAF7CAFF002010BD1C
:10D4300018B504460020ADF80000022221466846D7
:10D44000FFF76AFB0222A11C6846FFF765FBA07884
:10D45000E17800EB0122A11D6846FFF75DFBBDF8F6
:10D4600000002071000A6071002018BD8178C0782A
:10D47000062202EB002008447047B0FBF1F201FBEA
:10D480001201401A70470844401EFFF7F6BF000023
:10D490002DE9F0410E4604460125A16D1AE0421C1B
:10D4A000E265226E521E2266626E430952F8232004
:10D4B00000F01F0305FA03F31A420BD1616D2B46EE
:10D4C0000844A16E096AB0FBF1F201FB1200306062
:10D4D000A26D29E0E06D8842E1D1206E98B3626DC3
:10D4E0000A44A16E0B6AB2FBF3F703FB17226265D5
:10D4F000C96ACA000146104602F002FFA06500207A
:10D50000E065A06EC16A606EFAF75AFF22461449C0
:10D51000104602F063FD0028BFD0BDE8F081401C3A
:10D52000E065206E401E2066E06D904209D0616E7D
:10D53000450900F01F0651F8251003FA06F52942A7
:10D54000EDD10020E9E7FFE7616DE06D421840F2A0
:10D55000D71104A0FDF738FC6FF01B00DDE70000D9
:10D560008DD500006C66735F6572726F723A2564C8
:10D570003A204E6F206D6F7265206672656520736C
:10D58000706163652025750A0000000010B5426DCA
:10D590008A1A816E096A0A44B2FBF1F301FB132176
:10D5A000826D8A420AD9406E4A0901F01F0450F880
:10D5B00022300121A1400B4340F82230002010BD51
:10D5C0002DE9FF4F85B01E46DDE91457DDE91298BD
:10D5D00000244FF0010A0DF1100B1EE008EB0402CD
:10D5E000CDE90092CDE902BA0DF1140C331B9CE891
:10D5F000070000F0BBF8002809D1285D9DF8101045
:10D60000884209D00006B0EB016F03D9012009B0B0
:10D61000BDE8F08F0220FAE7641CBC42DED3002094
:10D62000F5E710B5806E026A8A4203D9C268904756
:10D63000002801DDAFF3008010BD2DE9FF41054654
:10D6400008680C461E469046411C36D0811C34D0DA
:10D65000A96E0A6A90420ED28969A068FFF713FF8B
:10D6600000900746A86ED4E90012D0F808C0E3681D
:10D67000E047002801DDAFF3008017D1CEB14FF0B5
:10D68000FF31C8F80010D4E90012E068CDE90012BB
:10D69000CDE902073B4642464FF000012846FFF71E
:10D6A0008FFF002802DB04D06FF0530004B0BDE808
:10D6B000F0812146284600F0DDF80020F6E72DE94C
:10D6C000FF5F0746DDE90F50DDF838A08146119E67
:10D6D0009B460C461AF1010038D0B96EA819C969E9
:10D6E00088423FD932E0216851452DD16068A84277
:10D6F0002AD8BA6E926A8318AB4225D9281A111A11
:10D70000304602F0FDFD80466168E068691A084411
:10D7100042464946FAF73BFE60684544291AC1442F
:10D72000A6EB0806A06802F0E7FDA060B96E896A62
:10D73000884217D15B4621463846029AFFF77DFFA3
:10D7400080B104B0BDE8F09F491C01D0AFF3008068
:10D75000C4F800A0B86E81692846FFF78EFE6060AD
:10D760000020A060002EBED10020EAE72DE9FF4F87
:10D7700081B00746DDE90F40DDF838A08146119EF3
:10D78000154688461AF101006DD0B96EA019C96915
:10D7900088426BD96FF0530005B0BDE8F08F30467A
:10D7A000B8F1000F19D0D8F80020524515D1D8E9AA
:10D7B00001128B18A34210D9A1420BD8611A511A39
:10D7C00002F09EFD8346D8F80400D8F80C10201A09
:10D7D000014415E0091B02F093FD2A6852451BD154
:10D7E000D5E901128B18A34216D9A14211D8611AAA
:10D7F000511A02F085FD83466968E868611A0144A0
:10D800005A464846FAF7C3FDD9445C44A6EB0B06DA
:10D810002CE0091B02F074FDB86E016A514522D953
:10D82000C5F800A0B86E41692046FFF726FE686083
:10D83000B86E416904982044FFF725FEB96EC969A6
:10D8400002F05EFD6968401AB96E896A02F058FDFF
:10D85000A8600090B86ED5E90012D0F804C0EB685B
:10D86000E047002801DDAFF3008095D1002E96D16E
:10D87000304691E710B5806E0C46FF22816AE06861
:10D88000FAF797FD4FF0FF30206010BD10B5C0696A
:10D89000484300F51630FBF785FF002010BD10B59A
:10D8A000C06902F5163201FB0020029C194622468F
:10D8B000FBF792FF002010BD10B5C06902F51632CB
:10D8C00001FB0021029C1846224604F0DBFE0020EA
:10D8D00010BD00207047000070B500230B4D11E013
:10D8E000CC5C5B1C84EA000606F00F0655F8266047
:10D8F00086EA101080EA141404F00F0455F824404E
:10D9000084EA10109342EBD370BD0000784E010002
:10D9100041420840B0FA80F0C0F11F00704700009B
:10D920002DE9FF4F87B00646DDF858B04FF0040AE6
:10D930000DF1280904A93046FFF7AAFD00283DD1C2
:10D94000049902297FD3B06E006A88427BD33046A7
:10D95000FFF767FE78BB149878B1401E149014A9A5
:10D96000304600F0F7F801461498401C1490B26E4F
:10D97000D26982422ED0002424E0159804990160D7
:10D98000002169E001250A9905AF03958DE8920011
:10D99000031B00213046099AFFF7E8FE00280DD14D
:10D9A000049803958DE89100DDE9081201233046C3
:10D9B000FFF785FE28B110F1540F51D00BB0BDE830
:10D9C000F08F641C14988442DCD31598049901608C
:10D9D000149941E0481CFFF79BFF451C002435E0EB
:10D9E0000A9802F08BFE0A90049B4FEA84088DE8A7
:10D9F0000807DDE9081201233046FFF760FE0746FD
:10DA00000A9802F0A9F80A901FB117F1540F27D015
:10DA100010E0691E8C4210D08DE80107042300211C
:10DA20003046099AFFF7A2FE07460A9802F094F8DA
:10DA30000A9017B13846C1E705E0022803D3B16E5A
:10DA4000096A814201D2AFF30080641CAC42C7D3A3
:10DA5000159804990160A9000020CBF80010ADE7EB
:10DA60004FF40E6104A0049AFDF7AEF908984FF048
:10DA7000FF3101605EE700006C66735F646562758C
:10DA8000673A25643A2042616420626C6F636B20C0
:10DA900061742025780A00002DE9FF4F85B0824689
:10DAA000DDE914981298934660B1401E049004A9D1
:10DAB000504600F04FF8044613A9504600F04AF8CB
:10DAC000064632E04FF0FF31C9F80010002132E085
:10DAD0002046FFF71DFF0146A01BB0FA80F0C0F101
