:020000040000FA
:10100000801F0010B9100000DD360000C310000082
:1010100000000000000000000000000000000000D0
:101020008F9E939B000000006F000000C510000021
:101030000000000000000000C7100000C910000000
:10104000CB100000CB10000000000000C13C0000ED
:10105000CB100000CB10000000000000CB100000FF
:10106000CB100000CB100000F1350000CB100000C9
:10107000CB100000CB100000CB100000CB10000004
:10108000CB100000CB100000CB100000CB100000F4
:1010900065260000CB100000CB100000000000000F
:1010A000613700000348854601F0CEF8004800474C
:1010B0006D660000801F0010044880470448004708
:1010C000FEE7FEE7FEE7FEE7FEE7FEE7A53C0000E1
:1010D000A510000030B50B46014600202022012457
:1010E00009E00D46D5409D4205D31D469540491B5C
:1010F0002546954040191546521E002DF1DC30BDA5
:1011000070B500242546002801DA01244042002958
:1011100001DA01254942FFF7DDFFAC4200D0404231
:10112000002C00D0494270BD03460B439B0703D0FF
:1011300009E008C9121F08C0042AFAD203E00B789C
:101140000370401C491C521EF9D27047D2B201E014
:101150000270401C491EFBD270470022F6E710B512
:1011600013460A4604461946FFF7F0FF204610BD15
:10117000CAB2401E4178401C8A4202D00029F9D1EF
:1011800000207047421C0178401C0029FBD1801AC6
:10119000704710B5002200E0521C835C8C5CA342B7
:1011A00001D1002BF8D1D8B2E1B2401A10BD0346EC
:1011B0000A780270401C491C002AF9D11846704771
:1011C00030B505460020034600E05B1C934205D283
:1011D000EC5CC85C201A01D1002CF6D130BD0000B7
:1011E0000FB400B58DB009900B9010A900200091AC
:1011F000C0430A9000200C900648069006480790CD
:101200006A4609A80F9900F0D9FD0DB008BC04B0DA
:1012100018470000DD1D0000FD1D0000FFB5002780
:10122000FF4383B000205C6801909E681D46A96959
:101230007F1C049888470090296A88470028F6D1C7
:101240000098401C0CD0032040028443002E19DD7E
:10125000600614D500982B2809D02D280FD103E063
:101260000020C04307B0F0BD012080020443A969FB
:101270007F1C04988847761E0090002E02DD00989F
:10128000302803D00598002825D035E00120400201
:101290000443A969761E7F1C049888470090002E9D
:1012A00003DD782805D0582803D00598002810D0F1
:1012B00022E00598002801D010281DD1012040020D
:1012C0008443A969761E7F1C0498884700901020EB
:1012D00002E0082000E00A2005900DE0012149020B
:1012E0000C43059A0199761E514308180190A9698B
:1012F0007F1C049888470090002E05DD0599009812
:1013000000F047FD0028E9DAE96904988847A0055C
:1013100002D40120C043A5E7E00722D1600611D521
:101320006005019800D5404229680A1D2A600968B5
:10133000220501D5087014E0220701D5088010E0CD
:1013400008600EE02868011D29600068210502D5AB
:101350000199017005E02107019901D5018000E0A4
:10136000016038467EE7FFB5002083B000905068EA
:1013700001909169144600269768049888470546AD
:101380000C990698084305D009E0A169761C0498D9
:1013900088470546216A284688470028F5D1681CF9
:1013A00003D00198C00704D017E00020C04307B065
:1013B000F0BD2068011D2160006800900DE00198DB
:1013C000C00704D1009805700098401C0090A169E6
:1013D000761C7F1E049888470546002F1CDD681C7C
:1013E0001AD0069800280FD0E817C00E40194111F6
:1013F0008A0006994009511840012A1A09680120FB
:1014000090400142DBD107E00C980028D7D1216A37
:10141000284688470028D2D0E169049888470C986C
:10142000002807D1002E05DD0198C00702D10098E1
:1014300000210170A068B84204DD0C98002804D097
:10144000002F02D00120C043B1E73046AFE70000D3
:10145000FFB5087889B01546FF2805D0491C2D280E
:1014600004D00022002407E000240BE00122F9E769
:101470000A235C430419491C0878FF28F8D1002A84
:1014800000D06442002004902A7801462D2A01D021
:101490002B2A0FD16D1C2D2A02D00022049209E0C4
:1014A0000122FBE700260A2233466D1C00F026FCD1
:1014B000381871412F78FF2FF4D10C9AA218069298
:1014C00002460A4304D0FF23069A9133DA4205DA32
:1014D000002109980A4606C00DB0F0BD0024B74AA5
:1014E000B54D2646079200F06DFE029006980391D6
:1014F000002801DA474200E0074639050020AF4ADC
:10150000001C51410191009012E0F80707D02246DB
:101510002B463046079900F071FA0646079122469D
:101520002B461046194600F069FA04460D467F1016
:10153000002FEAD10698019B0028009A039902988F
:1015400006DA00F0C3FA3246079B00F0BFFA05E066
:1015500000F054FA3246079B00F050FA049A002A31
:1015600002D00122D2075140099A03C2B4E7FFB565
:1015700091B0002009900025ED432E209E685C6804
:101580001F460190B9696D1C129888470090396A0E
:1015900088470028F6D10098401C0AD00D20C001D1
:1015A0008443002E12DD00982B2809D02D280DD160
:1015B00003E00020C04315B0F0BD012080020443C9
:1015C000B9696D1C12988847761E009003A96005C2
:1015D00001D52D2000E02B206A461073491C0CA871
:1015E0000F9102900AE0B9696D1C1298884700902B
:1015F0000120400204431398761E0560002E02DD90
:1016000000983028EFD001990098884246D1802078
:10161000044308E00998401E099001204002044359
:101620001399681C0860B9696D1C761E129888476A
:1016300000903028EED031E00199884205D1200693
:1016400003D480200443761E1EE0009802F0C6FDFD
:10165000002826D001204002044307A90F98033137
:10166000761E88420BD200980F99303808700F9878
:10167000401C0F90200607D50998401E03E0200665
:1016800002D40998401C0990A00502D51399681C42
:101690000860B9696D1C129888470090002ECBDC59
:1016A00059E0002E57DD0098652801D0452852D119
:1016B000A00550D5032000028443B9696D1C761E35
:1016C000129888470090002E0CDD2B2804D02D287E
:1016D00008D1FF2001300443B9696D1C1298884776
:1016E000761E0090E00501D52D2100E02B21029807
:1016F00001700298401C0290019025E001204002F8
:1017000004430EA902980131761E88420ED2009839
:10171000029930380006000E087003D10299019832
:1017200081420AD90298401C029006E0E00501D5EA
:10173000234801E0224840420990B9696D1C129883
:101740008847009013980560002E04DD009802F091
:1017500045FD0028D2D1F969129888470F99FF20DA
:101760000870029903AA087000200A900B900CA937
:101770000AA8099BFFF76CFEA00502D40120C04314
:1017800019E72420044209D0E00713D138680B9AE6
:101790000A99031D3B60006806C00BE00B990A988C
:1017A00000F04BFA0146E00704D13868021D3A60A8
:1017B000006801602846FEE6000014400000F03F8B
:1017C000F1D8FFFFF7B582B00F460026029C02F069
:1017D00069FB0090006801902578641C002D05D0FD
:1017E00000F0CAFA0068405DC007F5D12B2D02D089
:1017F0002D2D1CD0641E0098002101603946204622
:10180000049A00F00DFB0146002F04D03868A04276
:1018100001D1029838600098006802280BD0009827
:10182000019A0260700506D5484205B0F0BD01205E
:1018300080020643DFE70846F7E7F8B502464A406C
:10184000D40F42004B0052085B089A4202D2024673
:10185000084611464A0023D0C30D4A00DDB2120EDD
:10186000AD1A202D35DA49020126490AF6058A19F2
:10187000002C00D0524220214F1B1146B9402A4172
:101880001018C20D9A4221D0002C17D0012D08DC6F
:10189000DA05801AD20F8019D207DBB200F01BFBE9
:1018A000F8BDDA05801A012340001B06C018801815
:1018B0005A428018CA0F1043490007E04908C2077E
:1018C0001143DA05801A80194008801800F0FBFAED
:1018D000F8BD61000122511A001BF7E70122D2076F
:1018E0005140AAE70122D2075040A6E7024670B550
:1018F0004A40D30FDB0740002DD04A002AD0010E0A
:10190000140E000212020919400A520A8418E50155
:1019100004465443000A120A2E045043A4194219E3
:10192000200CC543AA18120C0125AD03521C5219F4
:1019300012047F39240400D0521C104301D440000B
:10194000491EC2B20C06C0092018401C4008802A5B
:1019500002D003E0002070BD40084000002900DAFA
:101960000020184370BD70B502464A40D50F4000B4
:101970004A00ED0740085208002814D0002A12D06F
:10198000C40DD30D41020120C0055202490A520A7A
:10199000E41A091812187D34914201D3641C00E046
:1019A0004900002C01DA002070BD0023914201D3D0
:1019B000891A0343400849000028F7D100290AD0BA
:1019C000914202D10121C90705E0914201D20121D2
:1019D00001E00121C943E005C018401900F073FA85
:1019E00070BD420005D04200120E52428A4201DB15
:1019F00000207047C905081870470000F0B51FB4F3
:101A000088B00B990998002448400999C00F4900F3
:101A100049080991C0070B990090490049080B91AA
:101A200009990898A64608431CD00B990A980843C0
:101A300018D0099801244000420D4800410D099832
:101A400024050003000B204309900B980003000BB2
:101A500020430B9050181C49401800220190144656
:101A6000104605E0002001460DB0F0BD032801DA64
:101A7000034600E003239C46C11A0AAE0AE05F0059
:101A800008ADED5B4F00F75B7D430027AA187C4152
:101A9000491C5B1E6145F2DD410004AB5A52210432
:101AA000120C0A43240C401C0828DFDB019802902A
:101AB0000099704601910090059B049A0799069839
:101AC00000F07BFAD0E700000DFCFFFFF0B50C46FC
:101AD0005C4085B0E40FE40703944C0000266408E2
:101AE00059009446490802460296224321D0624694
:101AF0000A431ED06200570D4A000E032303550D02
:101B0000012402462C492405781B1B0B360B401878
:101B100023432643614600901C46501AB44103D328
:101B20000098401C009002E0921800985B41002849
:101B300003DA0020014605B0F0BD002001210905AF
:101B40000746864611E064461D46141BB54106D380
:101B50006546521BB341744607430C43A646CD0766
:101B600040084908284392185B4105460D43EAD1D5
:101B70001046184313D06046194650407140084340
:101B800006D06046101AB34106D20122002306E0B7
:101B900000220123DB0702E00122D2435310009808
:101BA00074460105381C6141029C039D001969417E
:101BB00000F0F6F9BFE70000FD030000C217C10FF7
:101BC000504010B54018CA079623002100F083F951
:101BD00010BD10B500229623114600F07CF910BD0F
:101BE000C20F410040020123400ADB05D207090E63
:101BF000C0187F2901DA00207047962903DC96235C
:101C0000591AC84001E096398840002AF4D0404271
:101C10007047C20FD207400040080BD0C10D072308
:101C2000DB01C91840020905400A1143C2084007F8
:101C300011437047002001467047CB0FDB07490076
:101C400010B5490802460A4307D00A0D07240903C4
:101C5000E401090B121B002A01DC002010BDC900A1
:101C6000440F0C43C100E018D205801800F02BF996
:101C700010BD00000122D207002800DB101A002945
:101C800000DB511A814270470122D207002800DB95
:101C9000101A002900DB511A88427047F0B51FB4B2
:101CA0000646002082B005464024019100901BE0CA
:101CB000019922460F46304600F0E8FA049A059B47
:101CC000801A994110D310461946224600F0CEFAE8
:101CD000361A8F410197224601200021009F00F013
:101CE000C5FA38184D4100902046641E0028DFDCFC
:101CF000019B00982946324607B0F0BDF0B51FB4ED
:101D000086B000200090019002900698069980B25B
:101D100004900798090C020400141143079000274F
:101D2000089D099806913E463C4603900398A9B247
:101D30000204000C039004982D0C15434843002125
:101D4000224600F093FAC719714110340E46402C18
:101D5000ECDB3846029A00F089FA009A019B801861
:101D60000090594102980191103002904028CCDB3C
:101D700000980BB0F0BD00000048704710740000E0
:101D800010B50446FFF7F8FF0068005DC007C00FFC
:101D900010BD3A2800D23038202302469A43412A07
:101DA00001D310463738884201D30020C043704722
:101DB00002681378511801601846704710B5D16059
:101DC000044951610449116200211161114600F07A
:101DD00081FA10BDB11D0000811D00004268002A7B
:101DE00008D001680B78491C002B03D0521E06C096
:101DF000184670470121C160881E70474268002A5A
:101E00000BD0C3680168002B07D183688B4204D0D4
:101E1000491E521C06C0002070470020C043704776
:101E2000F7B582B0029C00272078641C1546019704
:101E3000302802D0002D15D015E020780127641C31
:101E4000782804D0582802D0002D09D00BE0002DAE
:101E500001D0102D07D1002710252078641C02E046
:101E6000082500E00A250026009610E000990127C9
:101E700069430818020C294680B2714300908E18FD
:101E80003804864201D3012001902078641C294641
:101E9000FFF77FFF0028E9DA0398002805D0002F1C
:101EA00001D0641E00E0029C04600198002806D066
:101EB00001F0F8FF02210160C81E05B0F0BD0099D5
:101EC00030040843F9E7002904DA401C490001D135
:101ED00040084000704770B40024050C05D1102460
:101EE000000402D1002921D01124050E01D10002E5
:101EF0000834050F01D10001241D850F01D1800098
:101F0000A41C002801DB4000641C002908D0202507
:101F10002E1B0D46F540A14000D001212943084366
:101F200001061B1B000ADB1D02D5002070BC704798
:101F3000DB05181880180029F8DA401C4900F5D193
:101F400070BC40084000704770B5002801DC0020DC
:101F500070BD410040020126400AF605090E8019B5
:101F6000CA0701D14000491E4D10002211463F35DD
:101F70003346CB409B18D418844201D8001B1A4624
:101F80004000491C1729F3DD5100814202D2002193
:101F9000C94300E00021E8058018FFF794FF70BDF9
:101FA00010B5002B08DA0024401C614192185B41F7
:101FB0001A4301D14008400010BDF0B51FB482B0F3
:101FC00005460C0003D0084601F036FF02E001F0A0
:101FD00033FF2030024600902146284600F046F9A3
:101FE000049B059A04460F4618431143084314D036
:101FF000184610431BD0009840210A1A184605992C
:1020000000F044F905460E46009A0599049800F040
:102010002DF9084305D0012004E02046394607B0D9
:10202000F0BD0020C11705430E432C4337430099F0
:102030000E986305401A7905E40A00220C43FD0A54
:102040000A3002D500200146E9E70105101969416F
:102050000C9C0D9D00196941FFF7A2FFDFE700000E
:10206000F0B507460846584087B0C00F04904800B6
:102070000E46590040084908BC1A884105D2384626
:1020800031461E4617460B4602465800400810438C
:102090004CD0300D039040055900400D490D05907E
:1020A000401A0290402872DA18030121000B09053A
:1020B0000843019004980092002805D001995242EB
:1020C0000020884100920190029840210A1A01994B
:1020D000009800F0CBF805460C466B4607CB00F0A5
:1020E000E6F8C0197141039A0E0D0023D717564028
:1020F0001A467A40164344D0049A002A2DD0029AF8
:10210000012A039A15DC1205C01A914101263605F1
:10211000001C7141D20F059ED207009301920296D6
:102120002A462346FFF749FF07B0F0BD384631463F
:10213000FAE71605224A0F46B218C01AB741012124
:102140000905001C4F4100187F41114618187941BC
:10215000E20F10436D19644113E0E2076D08154367
:102160006408C2071443039A01261205C01A91415C
:102170003605001C7141CE07400830434908C0189D
:1021800051412A462346FFF70BFFCDE7FFE70498AE
:1021900001224000C117121A00238B4104983146D6
:1021A000C417381AA141EEE730B40124E4076340B4
:1021B00030BC55E730B40124E407614030BC4FE740
:1021C0000000E0FF0EB5054A02920022009213467D
:1021D0000192FFF7F2FE03B000BD000033040000DF
:1021E0004A0009030123090B1B0519430A4B10B5CB
:1021F000520D9A4202DA0020014610BD064B3433DC
:102200009A4203DC9A1A00F041F810BD034BD21831
:1022100000F02CF810BD0000FF030000CDFBFFFF15
:1022200010B5002904DB0124E40740428C4121461B
:10223000002B04DB1C460123DB075242A3419942D9
:1022400000D1904210BD0000064C0125064E05E06D
:10225000E36807CC2B430C3C98471034B442F7D3C7
:10226000FEF724FFA4750000C475000010B5202AF5
:1022700004DB0146203A9140002010BD914020230C
:102280009C1A0346E3401943904010BD10B5202A24
:1022900004DB0846203AD040002110BD0B46D34055
:1022A000D0402024A21A91400843194610BD10B511
:1022B000202A06DBCB170846203A1041C1170B43F2
:1022C00006E00B461341D0402024A21A9140084357
:1022D000194610BDF3B58DB000200A9001200B9077
:1022E000002608460C300C460990626901210998C5
:1022F0009047051E2ED0252D2DD0216A8847002815
:1023000018D06269012109989047216A88470028FE
:10231000F7D1411E62690998904700E0761CA169D7
:102320000D988847216A88470028F7D1E1690D9800
:102330008847DAE7A1690D9888470746A84201D186
:10234000761CD2E7E1690D9888477F1C02D10A9874
:10235000002877D049E1002762693D46394609984F
:1023600090472A280CD162690121099890470125DC
:1023700006E00A214F433F18303FEBD410200543BD
:102380006269012109989047014630390A2903D230
:102390009B498F42DEDCECE7E90600D4994F6C28BC
:1023A0000AD04C2810D0682824D06A282ED074284F
:1023B0000CD07A280AD00DE0626901210998904773
:1023C0006C2823D004211CE02020054362690121F0
:1023D00009989047A760656065284FD026DC58288B
:1023E00039D01ADC452849D012DC252834D04128C0
:1023F000B0D143E06269012109989047682802D072
:1024000008210D43E6E70120C002DEE70220DCE7F9
:10241000462833D047282CD130E05B2870D0612883
:102420002CD063286CD0642823D161E06F284FD072
:1024300009DC662822D0672820D0692826D06E289B
:1024400017D12EE0CDE070284DD073286FD07528BD
:102450004ED078280DD154E0A1690D9888470546E3
:10246000252800D16CE7E1690D9888476D1C00D1E3
:102470006DE7BAE00A224CE00A2252E0012023462E
:102480006A46C0430D99FFF772F8A3E02846402141
:1024900008436060A807234601D5002239E00022E6
:1024A0003FE0E80700D020E72068011D21600068B8
:1024B000290501D5067018E7290701D5068014E71C
:1024C000A90703D5F117066041600EE706600CE727
:1024D0002846402108436060A807234601D508220A
:1024E00017E008221DE0484928460840606016E0D1
:1024F0002846402108436060A8072346BCD5B9E7B9
:1025000015E02846402108436060A80707D5234608
:1025100010220120C0430D99C046C0465AE0234610
:1025200010220120C0430D99FEF778FE52E00021F1
:102530000C910B460091632802D05B2807D043E042
:10254000E80601D40120A060012000903CE062690F
:102550000121099890475E2805D101200C90014681
:102560006269099890472169002906D10B4601AAA2
:102570008F00491CD3510829FADB002835D0216986
:1025800000290ED1C117C90E09184A11930001AADA
:102590009A1849094901411A0120136888400343E8
:1025A000136062690121099890475D28E5D10C9874
:1025B000002808D0002001AB81005A58401CD243AB
:1025C0005A500828F8DB01AB01202246C0430D9980
:1025D000FEF7C9FE00280ADA401C06D10B98002835
:1025E00003D00020C0430FB0F0BD0A98FBE7E90715
:1025F00002D10A99491C0A91361800200B9074E602
:10260000CCCCCC0CFFFFFF7FF1F7FFFF70B58C182F
:102610000578401C6B075B0F01D10378401C2A1121
:1026200006D10278401C03E006780E70401C491C5D
:102630005B1EF9D12B0705D40023521E0DD40B705D
:10264000491CFAE70378401CCB1A921C03E01D7862
:102650000D70491C5B1C521EF9D5A142D8D3002035
:1026600070BD000010B508490220886107488168E4
:102670000907FCD5142000F0B3F8002216211046FB
:1026800000F07EFE10BD000040800050004006407B
:1026900006480168820511430160064804498160CB
:1026A00001680122114301607047000080800440EE
:1026B00000060010008000500101034808188168DE
:1026C000042211438160704700840050012282403F
:1026D0000548002901D0826000E002610120034921
:1026E00000050860704700004080005000E100E0F5
:1026F000F0B5284FBD6842880023002A49D0818860
:10270000C6880C467443521E86685443A4198689B1
:1027100071435143026989180278120152196546C2
:1027200015605460D3609160C188042900D10321F1
:10273000CAB28189042900D1032144880579641E25
:10274000A4056D08A409AD07AD0D103492072C4304
:10275000920C89071443090C0C4301780A010E49B5
:102760005218946044780122002C04D003781B0195
:1027700059180A6003E00478240161180B6001789D
:1027800013468A403A6200781A4682400148403037
:102790008262F0BD008000500084005010B501F04E
:1027A000B9F910BD08B50C490C4A49685161116965
:1027B0000523194311610021916107E0136900931A
:1027C000DB0702D0009BDB03F8D5491C8142F5D31F
:1027D00001208007006808BD8800001000E000E0CC
:1027E00008B501F0B5F9044801690091C90702D0A4
:1027F0000099C903F8D508BD00E000E010B50868ED
:1028000000221146401CFEF7DDFF0349002800D0DE
:1028100001200870002010BD9803001010B50120A1
:1028200004F064FA02F086FF002010BDF0B5002429
:1028300093B008940F4608682646FEA1FEF7A9FC4F
:10284000FE4D2946903180350E91002865D005A9AE
:1028500006A80091019004AB12AAF9A13868FEF70E
:10286000BFFC042871D00321062003F0C7FB0D90A4
:102870000421062003F0C2FB0C900321042003F086
:10288000BDFB0B900421032003F0B8FB0A90032149
:10289000322003F0B3FB7F27FF0509903B4602225D
:1028A00000210D9803F03DFEE94B022201210D9815
:1028B00003F037FE3B46012202210D9803F031FE62
:1028C000E34B012203210D9803F02BFE3B4600222F
:1028D00004210D9803F025FEDD4B002205210D9803
:1028E00003F01FFEDBA001F097FA28466C38E24F98
:1028F000079004F059FB079A0899099803F02BFEFA
:1029000008983221401CFEF7FBFB0891701C322115
:10291000FEF7F6FB0E0045D053E1E86803F098FBA4
:10292000D6A0E96802F0E0FFE86803F0F6FD800455
:10293000020CE8684168D3A002F056FF0022032190
:102940000E9804F09CFC23E0FFE71299032910DAAB
:1029500004AAE86803F0FFFDC8A0E96802F0C4FF1C
:10296000E86803F0DAFD8004020CE8684168C5A05D
:1029700011E0032913D1032204A90E9804F0B1FB3E
:10298000C2A001F049FA032204A9C4A002F0F4FF96
:102990000C22C5A00E9902F027FF02F0CBFE00200A
:1029A00013B0F0BD0FA9099803F0E5FD6946099839
:1029B00003F0B2FC7F20C00503900023BC4A032132
:1029C0000FA804F0D5FB0028A6D100983946400096
:1029D0004008FFF74FF922D20198394640004008DD
:1029E000FFF748F91BD27F21C9050298FEF776FF51
:1029F000400040083946FFF73DF910D2E0070ED1FC
:102A000001200443ABA001F007FA6A4600210C98AC
:102A100003F0A1FD0422694698A002F0ADFF0098E2
:102A2000394640004008FFF725F921D20198394680
:102A300040004008FFF71EF91AD285490298FEF7B8
:102A40004DFF400040083946FFF714F910D2A007A7
:102A50000ED4022004439CA001F0DEF96A46012155
:102A60000C9803F078FD0422694684A002F084FFEC
:102A70000098394640004008FFF7FCF822D202983F
:102A8000394640004008FFF7F5F81BD27F21C90501
:102A90000198FEF723FF400040083946FFF7EAF8A7
:102AA00010D260070ED4042004438CA001F0B4F9C6
:102AB0006A4602210C9803F04EFD042269466FA07D
:102AC00002F05AFF0098394640004008FFF7D2F85C
:102AD00021D20298394640004008FFF7CBF81AD2BD
:102AE0005B490198FEF7FAFE400040083946FFF7BF
:102AF000C1F810D220070ED4082004437CA001F0B6
:102B00008BF96A4603210C9803F025FD04226946DF
:102B10005AA002F031FF0198394640004008FFF703
:102B2000A9F822D20298394640004008FFF7A2F8DF
:102B30001BD27F21C9050098FEF7D0FE4000400857
:102B40003946FFF797F810D2E0060ED41020044360
:102B50006CA001F061F96A4604210C9803F0FBFCBB
:102B60000422694645A002F007FF0198394640005B
:102B70004008FFF77FF821D202983946400040080C
:102B8000FFF778F81AD232490098FEF7A7FE400006
:102B900040083946FFF76EF810D2A0060ED4202068
:102BA00004435DA001F038F96A4605210C9803F052
:102BB000D2FC0422694631A002F0DEFEE04380062A
:102BC00004D01E20FFF7EEFD079892E657A001F013
:102BD00023F90B9A0C990D9803F0D4F90A990B98E4
:102BE00003F0FAFC6A4600210A9803F054FA6A4698
:102BF0000021E86803F09EFC6A4601210A9803F070
:102C00004AFA6A460121E86803F094FC6A46022108
:102C10000A9803F040FA6A460221E86803F08AFC49
:102C200003210E9A0A9803F036FA03210E9804F055
:102C3000B8FA83E03D524553455400009803001014
:102C40003D25642C25662C25662C25660000000099
:102C5000000080BF666163746F72792063616C6984
:102C600062726174696F6E20666F72206163632E99
:102C70002E2E0D0A00000000CDCC4C3E6D61746C10
:102C8000616200004143434D495300006269617332
:102C90002073657420746F3A0D0A00006E6F6865CA
:102CA000616465720000000041434342000000007F
:102CB000A69BC43B5A2B20706F7374696F6E20679C
:102CC00065740D0A000000005A2D20706F7374693E
:102CD0006F6E206765740D0A00000000592B20708C
:102CE0006F7374696F6E206765740D0A00000000D1
:102CF000592D20706F7374696F6E206765740D0AAB
:102D000000000000582B20706F7374696F6E20678D
:102D100065740D0A00000000582D20706F737469EF
:102D20006F6E206765740D0A00000000616C6C20F6
:102D3000706F73206765740D0A0000001AA001F01F
:102D40006BF81FA001F068F82048E96802F0CCFD9C
:102D50001FA001F061F803221C480E9902F00CFE3E
:102D60001A480C220C300E9902F03EFDE86803F080
:102D7000D4FB8004020CE86841681448183802F05B
:102D800033FD02F0D7FC0C9803F081F9099803F0A9
:102D90007EF90D9803F07BF90B9803F078F90A9807
:102DA00003F075F9FBE500006163632063616C6209
:102DB00072696174696F6E20696E666F3A0D0A0000
:102DC0006D61747269783A0D0A0000009C2C000055
:102DD000626961733A0D0A0070B511A001F01CF828
:102DE000FF20F530FFF7DEFC1149032208467C3056
:102DF000054604F076F90321284604F0F5F90C4C59
:102E00007F216C34C905A069FEF768FDA0610C2222
:102E1000294608A002F0E8FC02F08CFC002070BDFE
:102E2000626567696E20464341320D0A000000006A
:102E3000AC0300104143434200000000F0B50D46D2
:102E400008688BB0B4A1FEF7A4F9B54C2146A031B7
:102E500080340291002804D0B24E3078002817D078
:102E60001BE0E06903F0F4F8AFA0E16902F03CFD7B
:102E7000E06903F052FB8004020CE0694168ACA0F9
:102E800002F0B2FC00220321029804F0F8F93AE1C2
:102E90000321084603F0B2F870600AA8009009AB5D
:102EA00003AAA5A12868FEF79BF9032809D1684663
:102EB000017B582914D0592912D05A2910D04229FF
:102EC0000ED005A906A80091019004AB08AA9DA107
:102ED0002868FEF785F904287ED001200BB0F0BDEC
:102EE0008F4D0A982A46F832FF35013501920028A5
:102EF00003D098A000F090FFDAE09AA000F08CFFD9
:102F00006868FEF75BFE07463946A06FFEF72BFDAB
:102F1000A0673946E06FFEF726FDE067394628686E
:102F2000FEF721FD28600998C8214843FEF746FEB8
:102F30003946FEF718FD07466846007B582814D12D
:102F400030780121084330700021019A706803F045
:102F5000F1FA88480322076087A0019902F00CFD6E
:102F60000322844987A002F007FD6846007B5928A8
:102F700014D130780221084330700121019A706821
:102F800003F0D8FA7B48032247607BA0019902F046
:102F9000F3FC032277497BA002F0EEFC6846007B3D
:102FA0005A2814D130780421084330700221019A44
:102FB000706803F0BFFA6F48032287606EA0019922
:102FC00002F0DAFC03226B496EA002F0D5FC6846E1
:102FD000007B42280FD100E072E0307808210843DE
:102FE000307003220199029804F07BF8032268A054
:102FF000029902F0C1FC3078C043000758D166A0A6
:1030000000F00AFF0321084602F0F8FF03210090B8
:10301000084602F0F3FF07460321084602F0EEFFE0
:103020005449079003F001F80021029A009803F038
:1030300081FA0121029A009803F07CFA0221029A97
:10304000009803F077FA0099706803F0B0FA3846F8
:10305000716803F031F83946E269079803F078F9AE
:10306000079803F014F8384603F011F8706803F07D
:103070000EF8009803F00BF82BA0E16902F034FC85
:10308000032229A0029902F077FCE06903F045FAD7
:103090008004020CE069416825A002F0A5FB0C2227
:1030A00041A0029902F0A0FB02F044FB0020307026
:1030B00000220321019804F0E2F80020686029E072
:1030C0000899032910DA04AAE06903F044FA16A06B
:1030D000E16902F009FCE06903F01FFA8004020CC8
:1030E000E069416812A011E0032913D1032204A969
:1030F000029803F0F6FF2EA000F08EFE032204A932
:103100002FA002F039FC0C2227A0029902F06CFBE0
:1031100002F010FB0020E1E63D524553455400000B
:10312000980300101C0000106D61746C6162000057
:103130004759524D495300003D25632C25642C25E9
:10314000640000003D25642C25662C25662C256630
:1031500000000000464347202563207374617274A9
:103160000D0A00004643472025632073746F700DDD
:103170000A000000340200106D65617375726564A9
:103180003A0D0A00746865726F793A0D0A00000002
:10319000626961730000000046434720636F6D70F1
:1031A0006C6574650D0A000047595242000000002A
:1031B000626961732073657420746F3A0D0A0000B0
:1031C0006E6F6865616465720000000010B510A044
:1031D00000F022FE124800220321044604F04FF8BA
:1031E0007D20C000FFF7DEFA0D4903224839204652
:1031F00003F077FF0C2221460AA002F0F5FA032221
:1032000021460AA002F0B8FB02F094FA002010BD9B
:10321000626567696E20464347320D0A0000000070
:103220003804001047595242000000006D61746C70
:1032300061620000F8B5840A104D322011C52C607F
:1032400072B60E490E4E14310F460C48083DB04779
:1032500062B6686900280ED1342011C509482C6077
:103260000068686072B639460448083DB04762B6E7
:103270006869002800D00120F8BD0000A0060010F9
:10328000F11FFF1FA00000104020704701208002A6
:103290007047000010B5002000F0C0F87D21C90083
:1032A000FDF718FF0149086010BD0000A0000010E4
:1032B000F8B50546800A114C0F4632216060216046
:1032C000A06072B60D490E4E14310C480091B04703
:1032D00062B6606900280FD13320A1C4402020606D
:1032E00008480068606072B604480C3C0099B0471A
:1032F00062B66069002800D00120F8BDA006001069
:10330000F11FFF1FA000001030B504461A480D46FB
:1033100001681A4B19430160130000F0A4FD09066F
:103320001A26240D2424240F240000222946204696
:1033300000F068F8022212E0012200E00022294693
:10334000204600F01DF801222946204600F05AF8D8
:1033500009E000222946204600F054F800222946C0
:10336000002000F027FB002030BD00222946204627
:1033700000F048F80122F2E780800440400010008D
:1033800001208840002A01D0024901E00149803132
:1033900008607047002200A070B5184C256801260F
:1033A000334683409D432560002904D001290AD07B
:1033B000022910D119E06168002A01D0194300E008
:1033C0009943616007E0002A02D02169194301E0B6
:1033D000216999432161FF2161621830C006C00E46
:1033E000864007480660002070BD6168002A02D050
:1033F00019436160E9E799436160E9E7004000A093
:1034000000E100E001208840002A01D0024901E0EB
:103410000149803108607047802300A0010003D07B
:10342000012800D000207047014800687047000064
:103430000000001008B56946002000F057FC002885
:10344000F9D16846007808BD7CB501202AA1034661
:10345000024601910090D8212AA000F0DDFC30A0A6
:1034600000F0DAFC374C38A13AA0E26E00F0D4FC50
:10347000254680353AA137A0AA6B00F0CDFC204646
:10348000C030427937A133A000F0C6FC37A131A08B
:10349000AA6C00F0C1FC37A000F0BEFC3BA000F01D
:1034A000BBFC3DA0E16802F01FFA3EA000F0B4FCB6
:1034B00021460322103138A002F05EFA3BA000F052
:1034C000ABFC32A000F0A8FC3EA0E16902F00CFACF
:1034D0003FA000F0A1FC2146032220312EA002F0E3
:1034E0004BFA3FA000F098FC2146032228392AA07D
:1034F00002F042FA00207CBD4E6F76203136203239
:10350000303138000D0A484925642025642E256491
:103510002E2564206275696C642025730D0A0000F5
:1035200032303037202D203230313820436F7079DF
:103530007269676874206279204869504E55430D5E
:103540000A0000001804001073616D706C655F66FE
:1035500072710000252D31367325640D0A000000BC
:103560004F44520072635F636E74000074696D654E
:10357000000000006163632063616C6272696174C2
:10358000696F6E20696E666F3A0D0A006D61747224
:1035900069783A0D0A0000006E6F686561646572B3
:1035A00000000000626961733A0D0A0067797220B9
:1035B00063616C6272696174696F6E20696E666FB7
:1035C0003A0D0A006E6F6865616465527200000012
:1035D00066632067797220626961733A0D0A0000A0
:1035E0007362652067797220626961733A0D0A001F
:1035F0003EB51A48C168C9072ED0C16801221143DF
:10360000C1600220694608706B4607CB03F0C2F820
:10361000134C14492068C96B401CFDF75BFD216009
:1036200000290AD110480078012806D104206946F3
:1036300008706B4607CB03F0ADF86068C821401CEA
:10364000FDF75EFD6160002906D10820694608701B
:103650006B4607CB03F09EF83EBD000000400040E3
:1036600080000010980400109803001070B5054603
:103670000B480C4601680215114301600020FFF75A
:10368000CDFE0849FDF726FD0749002308600749DC
:103690002A0152189360444348040443146070BDE7
:1036A0008080044040420F009C0000100040004019
:1036B000084B00010122C0180029816801D0114384
:1036C00001E0490849008160012003498002086047
:1036D000002070470040004000E100E010B500F01D
:1036E00001F810BD7047000010B5086800221146AF
:1036F000401CFEF767F8FF22411EF43291420ED8BB
:10370000084C0146A06308A002F067F802F012F826
:10371000C820A16BFDF7DEFCE063002010BD012096
:1037200010BD0000980400104F4452000948816BFE
:103730002022914381630848826B18218A43826367
:10374000426B8A43426305480168C022914301608D
:10375000704700000082044000400440C0C10040A7
:103760000EB50C49FF2048620B480078012810D1A3
:103770000A48806800070CD509480178002908D15B
:10378000012101700220694608706B4607CB03F0E7
:1037900001F80EBD004000A0980300100040064054
:1037A0007400001000B50146002000F0DFFA002090
:1037B00000BD0000BFF34F8F03490248C860BFF34C
:1037C0004F8FFEE70400FA0500ED00E0F8B5086849
:1037D0003D21FDF7CDFC05460024174F1AE06A464F
:1037E00016A1681CFDF7FCFCC0B201280DD13E19E2
:1037F0006846FF3600780136307202F04DFA014615
:10380000327A0FA000F008FB641C2C21681CFDF725
:10381000AFFC0546002D01D00F2CE0D93819FF3040
:10382000002101300172102209490AA001F0DCFFD9
:1038300001F080FF0020F8BD98030010255800001B
:1038400025735B3078253032585D0D0A000000008A
:10385000A004001050544C0070B50E460F490A6881
:103860000323DB021A430A6000210D4D840028590E
:1038700001600846FFF7D2FD3146FDF72BFC401EE4
:1038800000D50020295948620720295900060862FE
:10389000295905200860002070BD00008080044088
:1038A00084730000F8B51C468000114D2F58BD6888
:1038B000AE0709D5002B07D0002A02D01678521C7B
:1038C00000E0FF26FE615B1EED070CD0002C0AD045
:1038D000074D00292D586D6902D00D70491C01E07B
:1038E0006E463570641E1D462543DED10020F8BDAE
:1038F0008473000030B5244B1C6880252C431C6069
:10390000FF249440214D9140030000F0ACFA0805DB
:103910000C131A21282F360B2868A043286028682A
:103920000843286030BD6868A04368606868084341
:10393000686030BDA868A043A860A8680843A86074
:1039400030BDE868A043E860E8680843E86030BD3F
:103950002869A043286128690843286130BD686947
:10396000A043686168690843686130BDA869A043E5
:10397000A861A8690843A86130BDE869A043E8616F
:10398000E8690843E86130BD8080044000C0004021
:10399000014A5160106070479000001010B5044952
:1039A0000863002048630120486300F0E9F810BD77
:1039B0004080044010B5334803680124A404234325
:1039C000036000200B0000F04EFA180D0F121518BE
:1039D0001B4D1E2124272A2D3033364D393C3F42C2
:1039E00045484B4D28483DE0274818383AE02648DE
:1039F0002C3837E02448303834E02348343831E07C
:103A0000214838382EE0204808382BE01E480C3872
:103A100028E01D48103825E01B48243822E01A48C9
:103A200028381FE018483C381CE01748403819E097
:103A30001548001D16E014481C3813E0124844389D
:103A400010E0114834300DE00F4830300AE00E48E5
:103A50002C3007E00C48283004E00B48243001E00B
:103A6000094820300168182399430160002A06D0D4
:103A7000012A03D1016810221143016010BD0168C1
:103A80000822F9E78080044044400440F7B5054629
:103A90001B481446816B0023802291438163012DD2
:103AA00001D1FFF743FE17490D6000204860012057
:103AB0004860154D154E0146019A01204A43A24225
:103AC00016D1470067437F19B74211D2400842011F
:103AD000491E0C480A434038826001E05B1C00BF6D
:103AE000C168C907FAD00A48834207D80020FEBD42
:103AF00040000828E3D9491C2029DDD30120FEBD60
:103B00000082044040800440FFA0B3F6FF70C60965
:103B1000A086010010B50A48016904221143016121
:103B2000084941610020FFF779FC074C0749FDF780
:103B3000D1FA7D21C90020604843606010BD0000BB
:103B400000E000E0FFFFFF008800001040420F008F
:103B50000849094A096848430849904201D94A611D
:103B600000E048610020886108690522104308616F
:103B70007047000088000010FFFFFF0000E000E039
:103B800070B5364D0020696AC905090F0B0000F0B9
:103B90006AF91026090B0D0F11131517191B1D1F9C
:103BA000212325262E481AE02E4818E02E4816E03C
:103BB0002E4814E02E4812E02E4810E02E480EE069
:103BC0002E480CE02E480AE02E4808E02E4806E079
:103BD0002E4804E02E4802E02E4800E02E48696A94
:103BE000C906C90E491C4900FDF774FA1B4A403248
:103BF000116B2A4E89072A4C890F11D00023012905
:103C000004D002290ED003291AD10DE010688007D4
:103C1000800F05D0012803D0022810D003280FD12F
:103C200026600DE020600BE010688007800F0DD04B
:103C300001280BD0022802D0032801D106E023601E
:103C4000916B2068FDF746FA206070BDA8681349A3
:103C5000C006C00E401C4843E4E70000008004405A
:103C6000C027090090051000C05C1500F0B31A00D1
:103C7000200B2000009F2400E0322900C0C62D0048
:103C800050973100E06735007038390000093D0079
:103C90004016400080234300C0304600001BB700A0
:103CA0000000001004491F2008610348C038016863
:103CB000024A1143016070474081044080000400C3
:103CC00010B50849002000F011F8002809D1064875
:103CD000012101700349491E4978817007C802F02B
:103CE00059FD10BD1D000010400200108200054863
:103CF00080588268D20703D040690870002070475E
:103D0000012070477873000010B5124A044610680D
:103D100007239B0318431060012050610D4A0020C7
:103D200040325063FF201063204600F029F8FF2244
:103D300001320949A0000B585A600B58074A9A6093
:103D40000858074A026007490748FFF721FE00208C
:103D500010BD00008080044078730000FFFF000069
:103D60000500300035340000A5370000034A80000C
:103D7000105882685207FCD5C16170477873000003
:103D8000F8B5124E850070590C4601684908490083
:103D900001600020FFF742FB21010F46FDF79AF971
:103DA000441E0020FFF73AFB390A621C5143FDF71D
:103DB00091F90749FF380138486370590462705916
:103DC0000168012211430160F8BD00007873000012
:103DD000C08004400A4B810059580123002A06D0B4
:103DE000CB600849002804D0012806D103E00B610C
:103DF00003E0082000E01020086000207047000069
:103E00007873000000E100E072B6AA2148078160E3
:103E10005521816062B670470FB410B503A9044BF9
:103E2000044A029800F0E2F910BC08BC04B018473C
:103E3000F15B0000980000102021020C01D010213D
:103E40001046020A01D010460839020901D0104676
:103E5000091F820801D01046891E420801D0881E21
:103E60007047081A704730B47446641E2578641C85
:103E7000AB4200D21D46635D5B00E31830BC1847BF
:103E80004100080200D004200A0E01D00122104394
:103E9000090EFF2901D102210843012800D1052084
:103EA00070470000004870473002001010B5012133
:103EB000FDF797FD10BD10B5FDF7BFFC10BD10B5A7
:103EC00000210846FDF74FFD10BD5E2110B5C94326
:103ED0000807FDF786FD10BD02E008C8121F08C1E3
:103EE000002AFAD170477047002001E001C1121F7B
:103EF000002AFBD1704700000149086070470000AC
:103F00003002001010B581780446402910D8E078BE
:103F100010280DD80818801D40424008400040423B
:103F200081B2A01D891F01F0AFFCA188884201D099
:103F3000012010BD002010BD30B50F4900200F4DED
:103F40000B88CC6808E021180A88521908D0112A79
:103F500005D0222A04D0801C8342F4DC084830BDFE
:103F60008A78C9785118891D49424908490049424F
:103F700089B20818F0E70000000700103400FFFFC6
:103F8000FFFF0000F1B50024104E114F16E0F0685D
:103F900005192888F84210D1A91D0098FDF7F9F8F5
:103FA000002810D0A878E9784018801D40424008C9
:103FB0004000404280B2041900E0A41C3088A042B6
:103FC000E5DC0448F8BD2046F8BD000000070010FD
:103FD0001200FFFFFFFF0000F0B51FB486B0099884
:103FE000089A030D0021024314D05148514A181871
:103FF000504305141198012810981AD0281A401C13
:1040000000264D4F4D49009601910490002812DA88
:10401000444211E01198012449A3012801D11098CC
:10402000C1430698119A84600360C26041600BB07E
:10403000F0BD4042E4E70446210500203F4A001C51
:1040400051410391029012E0E00707D032463B460F
:1040500001990098FDF7D2FC0191009032463B4651
:1040600010461946FDF7CAFC06460F466410002CA0
:10407000EAD10498039B0028029A0999089806DA65
:10408000FDF7BCFC019B009AFDF7B8FC05E0FDF7CD
:104090001DFD019B009AFDF719FD04460E46002206
:1040A000284BFEF7BDF803D80020C043014607E0C7
:1040B0000022254B20463146FDF7D2FFFEF790F84F
:1040C000102409E0002C0ADB0A220023FDF7E6FD9C
:1040D000079B30321A55641E02460A43F2D1112260
:1040E000641C079B121B1C19119B012B03D001237D
:1040F00008430ED10AE0084304D01120109000209C
:10410000119077E71098151A6D1E0BE010988242F7
:1041100002DD00236D1C03E0824201DA00236D1EE4
:10412000002BEED0069811998260C16030C07EE706
:1041300001FCFFFF104D0000000014400000F03FA4
:10414000300000000000F0430000E03FF8B500241C
:10415000204F26462046B8800FE0F8681E49051912
:104160002888884204D12846FFF7CCFE00280CD0CE
:104170001948F96811380853A41C3988A142ECDCAD
:10418000154B3046113BFA681DE0A878E9784018D5
:10419000801D404240084000404282B2F868011948
:1041A0008019FCF7C1FFA878E9784018801D4042CB
:1041B00040084000404280B204198619B888401C6B
:1041C000C9E71352801C8142FBDC881B7880304693
:1041D000F8BD000000070010EEFF000030380A288C
:1041E00001D201207047002070470000FFB597B052
:1041F0000646002518E2252877D100242746FD49E8
:10420000049400E00443761C32780120203A904068
:104210000842F7D130782A280ED0022230780146A1
:104220003039092916D804990A23594330394018DE
:104230001443761C0490F1E7189802C80491189072
:10424000002904DA0120400304434842049002207C
:104250000443761C30782E2814D10420044370784F
:10426000761C2A2809D11898761C80C8189009E075
:104270000A214F43303FC719761C30780146303948
:104280000929F5D930786C2810D006DC4C281AD0D2
:1042900068280ED06A2817D104E0742813D07A2831
:1042A00012D110E00120400504430CE00121090572
:1042B00001E0032109050C437178814203D10120FB
:1042C00000052418761C761C3078119066280BD0D7
:1042D00013DC58287DD009DC00287BD04528F6D097
:1042E0004628F4D047281AD1A5E118E0632835D034
:1042F000642870D0652812D19DE170286CD008DC4C
:104300006728F1D069287BD06E280DD06F2806D1A0
:10431000BAE073282ED0752871D0782859D01A9A0F
:10432000199990476D1C7EE16002400F022809D068
:1043300003280DD00428189801680DD00D60001DC9
:10434000189070E11898EA1701680D604A60F6E766
:10435000189801680D80F2E70D70F0E718986A462A
:1043600001781172001D18900020507202A8009070
:10437000012005E0189802C8189000200091C04361
:1043800061070DD5002101E00199491C0191B94255
:1043900012DA8142F8DB009A515C0029F4D10BE07B
:1043A000002101E00199491C01918142FADB019A47
:1043B0000099895C0029F5D1019904981A9B471A44
:1043C00021463846199A00F097FA01994019451884
:1043D0000BE04FE02CE113E04EE0009800990078EC
:1043E000491C00911A9A199990470198401E019012
:1043F000401CF2D1214638461A9B199A10E137E049
:104400000A200021009001916002410F022907D08B
:10441000189A01CA1892C2179446032908D00AE0D4
:104420001898C01DC108C90005C91891944607E035
:1044300000B2C2179446042902D140B2C1178C467B
:1044400000226146944506DA0A4600214042914125
:104450008C462D2102E0210504D52B216A461173DB
:10446000012103E0E10701D02021F7E7029155E0A7
:104470000A200AE0102008E010200090002104200B
:1044800004430191082703E00820002101910090D6
:104490006002410F022907D0189A01CA189200221F
:1044A0009446032908D008E01898C01DC108C90027
:1044B00005C91891944603E080B2042900D1C0B226
:1044C00000210291210729D51199702906D0009A5F
:1044D0001021019B4A401A4305D00EE040216A4654
:1044E0001173012108E06146014306D030216A467C
:1044F00011731199517302210291009A0821019BB5
:104500004A401A430AD16146014301D1610705D5EA
:1045100030216A46117301217F1E02911199582999
:1045200004D035A10E910DA90D910DE037A1F9E749
:104530006146019B009AFDF7B1FB0E9B8C469B5C8C
:104540000D9A521E0D92137061460143F0D10D98E1
:1045500005A9081A20300190600703D50120000446
:10456000844300E001270198874201DD381A00E00A
:104570000020019900904118029809180498401AE7
:104580000490E00306D421461A9B199A049800F07F
:10459000B3F94519002706E003A81A9AC05D1999D6
:1045A00090476D1C7F1C02988742F5DBE0030CD519
:1045B00021461A9B199A049800F09EF9451904E0C7
:1045C0001A9A3020199990476D1C0099481E009046
:1045D0000029F5DC08E00D980D990078491C0D9133
:1045E0001A9A199990476D1C0199481E019000294B
:1045F000F1DC63E1092801003031323334353637DC
:10460000383961626364656600000000303132331E
:1046100034353637383941424344454600000000BE
:1046200000F05AF94519761C3078002800D0E2E5F0
:1046300028461BB0F0BD600700D406271898C01D9F
:10464000C108C90048680A680831C30FDB07189120
:10465000190001D09CA108E0210501D59BA104E02F
:10466000E10701D09AA100E09AA1430011985B08EC
:10467000109165280CD006DC452809D046281DD0AD
:10468000472841D141E0662818D067283CD13CE05A
:104690000021112F01DB112000E0781C0191009016
:1046A00008A911A8FFF798FC139905910021119A08
:1046B00015927F1C12980197009150E00120C007CD
:1046C00003900120019008A9009711A8FFF784FC2E
:1046D000139A149905920022119B00921298159337
:1046E000059A0192002901D0104602E0791C401879
:1046F0000190381A01D5019804E04042401E009014
:10470000781C0190C01B029043E0012F00DA0127C2
:104710000021112F01DD112000E0384601910090A9
:1047200008A911A8FFF758FC13990591119A0021C7
:10473000129815920091019721070CD40599B9425E
:1047400001DB019900E00191012904DD159A491E60
:10475000515C302906D0B84201DA011D05DA012189
:10476000029115E00199491EEDE7002805DC00994A
:10477000411800910199091A03E0019A411C9142E4
:1047800000DD01910099401A401C02900120C007F1
:104790000390200706D402990198814202DB002091
:1047A000C043029000206946C87707AF01210398F3
:1047B0000337C907884224D0022011902B20129081
:1047C000039800280CDA404203902D20129007E055
:1047D0000A210398FCF77EFC30317F1E039039706C
:1047E0001199481E11900029F2DC03980028EFD19E
:1047F000791E129808703078202108404530BF1E7D
:10480000387006A8C01BC01D0390109800780028BF
:1048100000D00120019941180298C0170918039887
:1048200009180498401A401E0490E00306D421465B
:104830001A9B199A049800F05FF8451910980078AF
:10484000002803D01A9A199990476D1CE00324D5CB
:1048500021461A9B199A049800F04EF845191CE05D
:104860000098002807DB00990598884203DD159819
:10487000405C199901E0199930201A9A90470098E4
:104880006D1C401C00900298401E0290002804D12C
:104890001A9A2E20199990476D1C0199481E019073
:1048A0000029DDDC05E038781A9A7F1C19999047B9
:1048B0006D1C0399481E03900029F4DC21461A9BC5
:1048C000199A0498ACE600002D0000002B000000AF
:1048D0002000000000000000F8B5044600251E4638
:1048E0001746880404D405E039462020B0476D1CE3
:1048F000641EF9D52846F8BDFFB50446002581B0F1
:104900001E46C80301D5302700E02027880404D5BF
:1049100005E038460399B0476D1C641EF9D528465A
:1049200005B0F0BD10B50A21014800F04BFC10BDE8
:1049300024000010F0B589B0A521C64801F0EEFAB8
:10494000C5A202A9C54802F0EFF80322C44902A893
:1049500002F086FC0026C14F3F1FBC19E51DF9354A
:10496000287A00287ED090280AD1294608310122D1
:10497000B84801F0B7FA0122BA49B64801F0B2FAD4
:10498000287A60280CD12146FF3109310122B14833
:1049900001F0A8FAB34920222C39AE4801F0A2FA5E
:1049A000287AB02823D1B049F86CFCF79FFFFDF7B7
:1049B00017F969460880AC49386DFCF797FFFDF799
:1049C0000FF969464880A849786DFCF78FFFFDF71D
:1049D00007F9694688802146FF31093101229D4847
:1049E00001F080FA062269469A4801F07BFA287A9B
:1049F000A02823D19D49386AFCF778FFFDF7F0F82D
:104A0000694608809949786AFCF770FFFDF7E8F875
:104A1000694648809549B86AFCF768FFFDF7E0F8F9
:104A2000694688802146FF3109310122894801F019
:104A300059FA06226946874801F054FA287AA128D3
:104A400025D18A49386AFCF751FFFDF7C9F8694654
:104A500008808649786AFCF749FFFDF7C1F8694686
:104A6000488000E0DAE08149B86AFCF73FFFFDF7D3
:104A7000B7F8694688802146FF310931012275481F
:104A800001F030FA06226946724801F02BFA287AC2
:104A9000A52826D17149764A1C31704801F0E0F80A
:104AA00003227249724802F0DBFB714F3868FDF750
:104AB00097F8694608807868FDF792F8694648805B
:104AC000B868FDF78DF8694688802146FF310931C5
:104AD0000122604801F006FA062269465D4801F0AD
:104AE00001FA5E4F287A3F1FE0280CD12146FF31A2
:104AF00009310122574801F0F5F93946042288317D
:104B0000544801F0EFF9287AF0280DD10020214611
:104B1000FF310790093101224E4801F0E3F90422E8
:104B200007A94C4801F0DEF9287AD1280BD121469B
:104B3000FF3109310122474801F0D4F91022391D13
:104B4000444801F0CFF9287AC02814D149490122FC
:104B50004888401C4880694608800020488088803A
:104B60002146FF3109313B4801F0BCF90622694674
:104B7000384801F0B7F9287AB12823D13A49F86CBE
:104B8000FCF7B4FEFDF72CF8694608803649386D0D
:104B9000FCF7ACFEFDF724F8694648803249786D91
:104BA000FCF7A4FEFDF71CF8694688802146FF311A
:104BB00009310122274801F095F906226946254866
:104BC00001F090F9287AD02824D12B4D039829465A
:104BD000FCF78CFEFDF704F86946888229460298A6
:104BE000FCF784FEFCF7FCFF6946C8821E49049866
:104BF000FCF77CFEFCF7F4FF694608832146FF3191
:104C000009310122134801F06DF9062205A9114866
:104C100001F068F9761C102E00D29CE60D4801F0D8
:104C20008DF90C4801F0A8F911490C314880094868
:104C300088600846FDF75CFD012216210020FEF782
:104C40009FFB0120FDF738FD0A490020087009B0DC
:104C5000F0BD00004C020010333231009C03001004
:104C6000E12E6542DC0400100000204100007A447F
:104C700054030010740000100000C84270B5FDF726
:104C800007FD15480124047044708480C4801349D2
:104C9000016100218181082216210020FEF734FBEA
:104CA000012215210020FEF72FFB0D4915208863F6
:104CB000002101220846FEF76FFB01210846FDF79F
:104CC00005FD084DC820A96BFCF704FAE863E81F4E
:104CD000F938047070BD0000600300101C400640ED
:104CE000408104409804001010B50124A407204618
:104CF00000F078FF204600F007FF054801F038F883
:104D00000349103908461C3000F004FF10BD0000B4
:104D1000AC030010F8B51D4801F02AF81B481C4BE5
:104D20001C4A1D49383002F085FA1B480022032135
:104D3000183002F0A4FA154E143EF41DF934356B08
:104D400020468038A562406FFCF738FFE0621348C8
:104D5000854206DC104821460322E039183002F073
:104D6000C0F90D4A0E480C4B114600900C33183117
:104D7000301D00F067FE0549032220310846C4308B
:104D800002F07FF96068401C6060F8BDAC03001061
:104D90000000404035FA8E3C740300100AD7233CD3
:104DA0000AD7A33B10B502F0A7F8154800F0A8FFFA
:104DB000C82000F085FFFF210131124800F076FC89
:104DC000002001F093FF01F0C7FCFFF78DFFFFF714
:104DD000A9FDFFF753FF0A48EC30016C0020FEF7F5
:104DE000CFFF012211460020FEF7F4FF0649002004
:104DF000FEF73CFC01210020FEF75AFC10BD00002C
:104E0000AC03001078000010881300000F4C01F074
:104E100097FC0028FBD001F0A7FC0178012911D0F4
:104E2000022909D004290AD00829F0D1A06C401C1D
:104E3000A064FEF7E9FFEAE7FFF76CFFE7E7FFF79B
:104E400079FDE4E7807800F0C3F9E0E7980400100A
:104E5000F8B504464721400049060D2241181206C4
:104E6000914253D83F21490688421BD960007F21D7
:104E70004008C905FCF736FD0021C943FCF7B1FD28
:104E8000074602F0C2F8002C04DA2F4D2D4EA90778
:104E9000484001E02D4E2E4D03218907FCF726FDE9
:104EA000044606E00026214635460846FCF71EFD6E
:104EB000074628493846FCF719FD2749FCF7BDFC91
:104EC0003946FCF713FD2549FCF7B7FC3946FCF7DA
:104ED0000DFD2349FCF7B1FC3946FCF707FD2149DC
:104EE000FCF7ABFC009039462046FCF7FFFC00992C
:104EF000FCF7FCFC074629462046FCF79EFC394699
:104F0000FCF79BFC3146FCF798FCF8BD39214906BB
:104F1000884208D22046FEF7B3FF042801D1FEF7ED
:104F2000D4FF2046F8BDFF210906884203D9204658
:104F3000FEF7BCFFF8BD0120FEF7DEFFFEF7BFFF66
:104F4000F8BD00000000C9BF22AAFDB90000C93F9A
:104F500022AAFD3924FE1C3DC78AD83C1E67383D75
:104F60001B93993DAFAA2A3EF0B50C4601461D227F
:104F70004B00D2069F18E52605463606620087B02C
:104F80002046B7427DD21D27FF06D719B74278D2F7
:104F90004F0043003E0E1A0EB21A1B2A07DD0029ED
:104FA00002DA754807B0F0BD744807B0F0BD1A26A4
:104FB000F24217DA002807DA002902DA704807B04F
:104FC000F0BD704807B0F0BD21462846FCF7CBFC89
:104FD0000446FEF755FF042801D1FEF776FF204670
:104FE00007B0F0BD9F4211D9002902DA664F674E23
:104FF00001E0674F674E23462C461D4601220346BB
:10500000D20708465440504019460BE0002807DA02
:10501000002902DA604F614E04E0614F614E01E009
:1050200000263746421A012352001B069A4230D20C
:1050300048405D490BD5BF20000603903846FCF779
:105040004DFC074659493046FCF748FC0AE03F2032
:10505000000603903846FCF7F0FB074653493046FC
:10506000FCF7EBFB064628460399FCF73FFC21467C
:10507000FCF7E3FB009021460398FCF737FC294638
:1050800000E03AE0FCF72EFC0099FCF76CFC0446CB
:1050900004E021462846FCF766FC04460146FCF77E
:1050A00025FC43490090FCF721FC4249FCF7C5FB75
:1050B0000099FCF71BFC4049FCF7BFFB0099FCF78B
:1050C00015FC3E49FCF7B9FB0099FCF70FFC3C4985
:1050D000FCF7B3FB054620460099FCF707FC294680
:1050E000FCF704FC3146FCF7A8FB2146FCF7A5FBC6
:1050F0003946FCF7A2FB07B0F0BDFF263606B342E7
:1051000001D8B24205D901462846FEF7D4FE07B0C1
:10511000F0BD2F4607437F000AD0B3420CD1B24204
:105120000AD101229207904391430D4604462FE78E
:10513000FF22D2051043F9E7B34208D0460006D05B
:105140005340F4D4002A08DB9F26F60507E0FF222F
:10515000D2051143E00FC0071AE75F26F605314676
:105160002846FCF7C3FB054631462046FCF7BEFB4C
:10517000044629460CE70000DB0FC9BFDB0FC93F1F
:10518000DB0F49C0DB0F49400000C9BF22AAFDB9AF
:105190000000C93F22AAFD39000049C022AA7DBAF9
:1051A0000000494022AA7D3A0060ED3EC30ACE3796
:1051B0002DAD65BD8FB8D53D0FB511BE61C84C3E54
:1051C000A8AAAABE014AD16090607047AC00001046
:1051D000F8B53B4E3278002A0DD0012A0FD0314667
:1051E000384B4968022A13D0032A0ED10D281BD050
:1051F0000A2819D043E0412807D1012040E0542873
:1052000004D00020307000207060F8BD0220F9E763
:105210000D2807D00A2805D0402903D05854491C2E
:105220007160F8BD03202BE00020264A044650544C
:1052300022E03D212348FBF79BFF002806D03D21BB
:105240002048FBF795FF1F49451A00E07568B068D4
:10525000E700C059FBF796FFA84204D3B068C059D5
:10526000FBF790FF0546B0682A46C0591549FBF781
:10527000A7FF002806D0641CF0688442D9D3002020
:105280003070F8BDB168E0000858FBF77BFF0D49AE
:1052900040180090B068694638184268012090476D
:1052A000002802D0012805D101E007A000E008A0F5
:1052B000FEF7B2FD40210348FBF74FFFDFE7000098
:1052C000AC000010C00600104F4B0D0A000000009B
:1052D0004552520D0A00000070B51E4E0546706022
:1052E0000024016820468847002001F0B7FD0F2800
:1052F00011D1B621142002F029F8E9680A20884764
:10530000022000F065F9002000F08CF90021132044
:1053100002F01CF801247068016801208847002011
:1053200001F09CFDFA280ED1032000F005F90820B9
:1053300000F028F903210F2002F008F800211320C3
:1053400002F004F8641C022C01D0012070BD002082
:1053500070BD0000A40000107CB52C4D04466868A8
:105360000168012088478220694608706868002229
:1053700043680121684698476868012283680621CE
:10538000684698476946088800B2FCF717FC6946EA
:105390002060488800B2FCF711FC6946606088888C
:1053A00000B2FCF70BFCA0606878032806D0052843
:1053B00007D0082808D00C280BD108E07125ED058E
:1053C00007E039252D0604E07325ED0501E01D25D4
:1053D0006D0669460020085EFCF7F0FB2946FCF7E5
:1053E00085FA206069460220085EFCF7E7FB294643
:1053F000FCF77CFA606069460420085EFCF7DEFB7F
:105400002946FCF773FAA06000207CBDA4000010C0
:1054100038B5124C0546606801680120884777203E
:10542000C0436946087060680022436801216846ED
:105430009847606801228368114668469847694624
:1054400000200856FCF7BAFB0021C943FCF7C9FA53
:105450000349FCF7F2F92860002038BDA4000010D1
:105460000000B8417CB5174D04466868016800200B
:1054700088478220694608706868002243680121D5
:1054800068469847686801228368062168469847FD
:105490006946088800B2FCF791FB6946206048889D
:1054A00000B2FCF78BFB69466060888800B2FCF7AD
:1054B00085FBA060E9782246684600F005F80020E8
:1054C0007CBD0000A400001070B5154606460B0018
:1054D000FEF7C9FC050C0A0806040D00114C06E095
:1054E000114C04E0114C02E0114C00E0114C002082
:1054F000305EFCF763FB2146FCF7F8F928600220D8
:10550000305EFCF75BFB2146FCF7F0F96860042095
:10551000305EFCF753FB2146FCF7E8F9A860002059
:1055200070BD000000007A3B0000FA3B00007A3CAE
:105530000000FA3C00007A3D10B5044610480470A3
:1055400040680168012088472300FEF78CFC0805AD
:1055500007090B0D0F11130B08210CE009210AE0BC
:105560000A2108E00B2106E00C2104E00D2102E0F5
:105570000E2100E00F21102001F0E8FE002010BDF8
:10558000A400001010B5044610484470406801683B
:10559000012088470F2001F061FC01090901032C5B
:1055A00006D0052C06D0082C0BD00C2C04D10AE018
:1055B000032000E0052001430F2001F0C7FE00207A
:1055C00010BD0820F7E70C20F5E70000A40000104C
:1055D00010B504461248847040680168002088476E
:1055E000102001F03BFCC108C9002300FEF73BFC82
:1055F000080905070E1016121409012000E0022008
:105600000143102001F0A2FE002010BD0320F7E7A7
:105610000420F5E70620F3E70720F1E70520EFE790
:10562000A400001010B504460F48C470406801681B
:10563000002088470F2001F011FCC108C900230099
:10564000FEF711FC05080F0D06040800042000E019
:10565000032001430F2001F079FE002010BD02203D
:10566000F7E70120F5E70000A400001010B50124C1
:10567000FEF788FC0749884209D00749CA68101814
:105680003322D24302808888401E8880002420462E
:1056900010BD0000FFFF00000007001010B5FEF76E
:1056A00055FD0148408810BD0007001070B5044644
:1056B0000E46084600F0FEFF074D0028E86009D0BE
:1056C000B1B2AC60298062689047FFF7E7FF68805D
:1056D000002070BD012070BD0007001010B500F063
:1056E00001F810BD08B56A4600F002F808BD0000D8
:1056F000F8B516460F460125FEF744FC0B498842D3
:1057000011D00B49C9680C182046FEF7FBFB002896
:1057100009D1E178A01D0918A2783846FBF704FDED
:10572000A078308000252846F8BD0000FFFF00006B
:1057300000070010024A1188D0689268126810476A
:1057400000070010FFB5074683B011206E46C04326
:1057500030801C461546B2703846FBF713FD401CDE
:10576000C0B26946C870002C2BD089780818801DFB
:10577000404240084000404281B22046FBF7EDFC29
:105780003946A01DFBF713FD6946C978A01D08180E
:105790002A460499FBF7C8FC69468878C9784018FE
:1057A000801D404240084000404281B2A01D891F38
:1057B00000F06AF869468880062231462046FBF7E9
:1057C000B3FC69468878C97807B04018801D40420C
:1057D00040084000404280B2F0BD13B5042201A948
:1057E00000F002F81CBD0000F7B5254E1446012557
:1057F0000023224601990098FFF7A4FF074600986E
:10580000FEF7C0FB1F49884219D0F1680F18B9781C
:10581000A14207D1F16822460B1801990098FFF7C1
:1058200091FF2AE0FEF792FCB878A04203D271887B
:10583000201A814222DB0098FFF718FFD7E7FEF716
:105840007BFB1049884203D03188091AB94203DA38
:10585000FEF77CFCFEF770FB0A4988420ED03188C7
:10586000091AB9420ADBF16822460B18019900981F
:10587000FFF768FFB088401CB08000252846FEBDB9
:1058800000070010FFFF000070B500221546094E0A
:105890000CE0435D1B025A4000245300120400D563
:1058A0007340641C1A46082CF7D36D1C8D42F0D34C
:1058B00090B270BD21100000F0B503880026094F9A
:1058C0000CE08C5D2402634000255C001B0400D5C5
:1058D0007C406D1C2346082DF7D3761C9642F0D3EE
:1058E0000380F0BD2110000070B50D46044615A1DF
:1058F000FBF74FFC16A12046FBF74BFC002804D118
:105900006A88298814A0FEF787FA002615E000248B
:105910000CE070430019696880000858FCF779F9B9
:1059200002460B4611A0FEF777FA641C6888A04275
:10593000EFDC10A0FEF770FA761C2888B042E6DC97
:1059400070BD00006E6F68656164657200000000E4
:105950006D61746C616200006D61747269783A28DF
:105960002564782564290D0A0000000025382E34AE
:10597000662000000D0A0000F8B50D4607461646E1
:105980001146284601F01AFC00901CA13846FBF78E
:1059900000FC002810D002221BA13846FBF710FCA7
:1059A000002809D019A13846FBF7F3FB002805D0E1
:1059B000394618A0FEF730FA00240BE0314616A055
:1059C000F8E701CDFCF725F902460B4616A0FEF7D5
:1059D00023FA641CB442F4D315A13846FBF7D9FB73
:1059E000002807D10098FCF714F902460B4612A0D4
:1059F000FEF712FA0BA0FEF70FFAF8BD6E6F68659E
:105A000061646572000000002F2B00006D61746CF2
:105A10006162000025730000766563286C656E3A4C
:105A20002564293A0D0A000025382E34662000002E
:105A30002F2B6E6F726D00007C6E3A25382E346607
:105A400000000000FFB59DB00E460321209801F034
:105A5000B5FB00247F270546FF050F94032231463E
:105A600009A81197109401F03CFB032109A801F04B
:105A7000BBFB19AA0FA91D9800F060FF03AA19A982
:105A800009A801F045FB1F4E032203A8316801F06D
:105A9000E7FB03230CAA03A91F9801F0DFFABD421C
:105AA00029DD15A91D9800F097FE6A4615A82099D2
:105AB00000F044FF0321684601F096FB022168468E
:105AC00001F07CFB12900298139414906A4612A97C
:105AD0001D9800F033FF06AA6946209801F018FBD4
:105AE000032206A8716801F0BBFB03230CAA06A9D8
:105AF0001F9801F0B3FA0CA9269A1D9801F098F8A6
:105B000021B0F0BD0C020010014908607047000090
:105B10000C020010F8B50D460446032101F064FBA9
:105B2000FF21C905A06800260F02C8422AD27F21A2
:105B3000C905FBF782FE711EFBF753FF01F065FA02
:105B400028607F21C905A068FBF777FE0121FBF7DC
:105B500048FF01F05AFA01466068FBF704FF7840FD
:105B600068607F21C905A068FBF767FE0121FBF78C
:105B700038FF01F04AFA01462068FBF7F4FEEE60B8
:105B8000A8602BE001467F20C005FBF7A7FE01219E
:105B9000FBF727FF01F039FA01466068FBF7E3FEE7
:105BA000784028607F20C005A168FBF797FE0021A0
:105BB000C943FBF716FF01F028FAAE6068607F204A
:105BC000C005A168FBF78AFE0121FBF70AFF01F07F
:105BD0001CFA01462068FBF7C6FEE860284600F084
:105BE00009FEF8BD0149086070470000140200106A
:105BF00010B5054904460868002802D00968E0B2DB
:105C00008847204610BD00009000001010B5002805
:105C100023D0124B0022001F196803E0814203D8F1
:105C20000A4649680029F9D1002A0AD01368841A63
:105C30009C4204D1006818181060104602E05060C1
:105C400000E01860002907D002680B1A934203D1C4
:105C50000B68D21802604968416010BD280200102C
:105C600030B587B0154602467F200023C0050C469C
:105C70000290009303A90193104600F0ADFD2A465F
:105C8000214603A800F05AFE03226946284601F087
:105C900012FB07B030BD0000084A00210C234B4323
:105CA000D35C834204D10C2041438818406870477C
:105CB000491C1A29F2D3002070470000BC000010D4
:105CC00070B5074C054632212060FBF719FA606079
:105CD00064212846FBF714FAA060002070BD000084
:105CE000F401001070B504461546806F00F0C4FB47
:105CF000214603227C31284601F0DDFA002070BDE8
:105D000070B504460321084600F078F90321A06726
:105D1000084600F073F9254680350321A86008463F
:105D200000F06CF900212966A861A16F002917D045
:105D3000A968002914D0002812D0204601230A2285
:105D40000849A83001F0ACF8002809D1064803231F
:105D5000026820460549C03001F0A2F8002800D0B2
:105D6000012070BD0AD7A33CF40100109A99993E16
:105D7000F0B5594E0546F06885B0401C3168FBF718
:105D8000BFF9F16030697168401CFBF7B9F9316106
:105D90007069B168401CFBF7B3F92846716101F0E6
:105DA00003F92A460C32294608460492FFF79AFF67
:105DB00028462030074601F005F92C4680342A4653
:105DC0002C32A0683946009200F056FB2946032287
:105DD0008C31009801F06FFA2A4629463832443156
:105DE000032317460391009801F052FA206E1428FD
:105DF0000CDD3A4B3A4A0321384601F0B9F9002844
:105E000004D100220321384601F039FA2846C03077
:105E10000099029001F057F83069002814D103214D
:105E2000049801F0CBF901902846A83001A9074653
:105E300001F049F829461C31384601F02CF8294672
:105E40001831384601F022F87069002811D128462F
:105E50005C30049001F0C4F82A46683229460323D6
:105E600017469C31049801F013FA3946A06900F0F6
:105E70002AFBF068002821D12946029850310E46AD
:105E8000074601F008F8002303213046226C01F098
:105E90006FF90026002809D1BF233F221B061206F6
:105EA0000321009801F064F900280DD026662846E9
:105EB000743001F097F8E16DE665A165E06D401C76
:105EC000E065002005B0F0BD3846039900F0DEFF24
:105ED000206E401C2066EAE7F4010010CDCCCCBE59
:105EE000CDCCCC3E70B504468378C0781546000210
:105EF000FF261A180136B24201D9012070BD1A19C5
:105F0000801D10182A46FBF70FF9A078290A4019BE
:105F1000A070E0784018E070002070BD10B55A22E3
:105F20000270417000218170C17001714171FF21C7
:105F30000131801DFBF711F9002010BD18B5044692
:105F4000002069460880022221466846FFF7B4FC1B
:105F50000222A11C6846FFF7AFFCE178A078090295
:105F60004218A11D6846FFF7A7FC69460888207102
:105F7000000A6071002018BD8178C0780002801D81
:105F800008187047F7B50C4682B00988608800F0A1
:105F900035F805466088014600F030F8064660880E
:105FA000014600F02BF800902188608800F026F868
:105FB00007462946204600F00FFB32462146284678
:105FC00000F0C6F93146009800F076F83A462946C6
:105FD000009800F0BDF93846049A029900F0B8F92B
:105FE000284600F054F8304600F051F8009800F0D0
:105FF0004EF8384600F04BF805B0F0BD70B50E46CF
:10600000054670438000083000F054FB04000AD0BD
:10601000204608306060258066800021204600F020
:1060200029F8204670BD002070BD30B50D460446ED
:1060300000F00EFB002207E0534390009B189B00EA
:1060400061682858C850521C63889342F4DC30BD04
:1060500010B5044600F0FCFA00217F20C00505E0E1
:106060004A43521892006368491C985062888A42D9
:10607000F6DC10BD10B5002203E094004368521C0A
:1060800019510388448863439342F6DC10BD10B570
:10609000FFF7BCFD10BD30B5002308E0448845681B
:1060A0005C436418A4002C599D0054515B1C048867
:1060B0009C42F3DC002030BDF0B591B04A680892F4
:1060C000426806920A880792468800230F934988FF
:1060D0008A426ED10088B042FBD18242F9D17F243E
:1060E0001146E40506980EE0079A521A01E008C02E
:1060F000521E002AFBD110C04A1E01E008C0521EE9
:10610000002AFBD1491E0029EED100270996FEE0A6
:10611000384670430899800044180B940699451836
:106120000A952068059000200090B0000E9001971D
:1061300038461DE001212068C905884205DB009929
:10614000FBF7A2FD0DD220680CE00121C9074840F1
:106150000099FBF799FD04D201212068C907484046
:1061600000E0009800900E9804190198401C0190DE
:1061700007998842DED300984000000E60D008984E
:1061800003900120029001240598E405A04201DA61
:10619000210248400099FBF76DFD42D00798039912
:1061A000C01B401E0190304678438000441801987F
:1061B00035E045E0029801217043800040190490C9
:1061C0002068C905884201DA090248400099FBF7B6
:1061D00051FD1ED1F01B09E0039A2168126804C426
:1061E000039A11600399091D401E03910028F3D101
:1061F000304609E00499049A09682B681360049AF0
:10620000121D049202C5401E0028F3D101200F90F8
:106210000EE00298401C02900198401E0190002858
:10622000C8D10F98012803D005984000000E07D070
:106230000B9C0A9D20680590F01B039004900AE0D7
:10624000012011B0F0BD20680599FBF78CFB01C45B
:106250000498401E04900028F5D1344605E02868D3
:106260000599FBF780FB01C5641E002CF7D10020C7
:10627000069D01900798089C02903FE00198B84263
:1062800005D10398800004190E9845192DE0206867
:1062900005900B980D900A980C90039804900EE0CE
:1062A000206800900D9802C80D900598FBF71EFB22
:1062B0000099FBF717FB01C40498401E04900028C6
:1062C000EED1304604960EE0286800900C9802C883
:1062D0000C900598FBF70AFB0099FBF703FB01C53F
:1062E0000498401E04900028EED1B80004190298CA
:1062F000401E02900198401C019002980028BDD1D8
:106300000898001D08900998401E7F1C0990099864
:10631000002800D0FCE694E7F8B505460E46008854
:1063200000F0E9FE074600240BE03A4621462846E5
:10633000FFF7B1FE2988384600F0F2F9A10070504D
:10634000641C6888A042F0DC384600F00DFFF8BD00
:10635000F7B582B00F4602980B884A8802994088A8
:106360000988984203D00092024628A00AE00498C7
:1063700003888B4202D14088904208D0049840881C
:10638000009031A0FDF748FD012005B0F0BD049854
:106390000026018004987988418031E000252BE0B7
:1063A0000499002270434968401980000A5014463D
:1063B0001DE079887A680191614349198900515833
:1063C000029A70435268001980001058FBF78EFA49
:1063D00004994A6801990092714349198900019111
:1063E0005158FBF72AFA019A0099641C88500298C8
:1063F0004088A042DDDC6D1C7888A842D0DC761C89
:1064000002980088B042C9DC0020BEE76D5F6D7560
:106410006C206572726F722C206F7574206D7573AD
:1064200074206265206D2A6E2078206E2A71206E9D
:106430006F772069732025642A25642078202564DD
:106440002A25640D0A0000006D5F6D756C20657271
:10645000726F722C206F7574206D75737420626575
:10646000202564782564206E6F7720697320256469
:106470007825640D0A000000F7B582B0164607467D
:1064800000251BE00021A800009031500C4611E0CF
:10649000684300197968800009580398A200805861
:1064A000FBF724FA00997158FBF7C7F901460098E9
:1064B000641C31507888A042EADC6D1C3888A84200
:1064C000E0DC05B0F0BDF3B58BB0064600251AE060
:1064D0000021AF006846C1510C4610E06843001926
:1064E0007168800009580C98A2008058FBF7FEF9EB
:1064F0006946C959FBF7A1F96946C851641C7088FF
:10650000A042EBDC6D1C3088A842E1DC82B2694617
:106510000C9800F0E6FD0DB0F0BD018840884843BE
:10652000704710B544684088484380188000235065
:10653000002010BD70B5002308E09C001559448868
:1065400046685C436418A40035515B1C04889C4277
:10655000F3DC002070BD70B5002307E04C439D00C4
:10656000E418A4004668555935515B1C44889C4288
:10657000F4DC002070BDF8B505460E46008800F03A
:10658000BAFD074600240BE03A4621462846FFF7AD
:1065900082FD2988384600F04EFDA1007050641C31
:1065A0006888A042F0DC384600F0DEFDF8BDF3B5A7
:1065B00081B00546002409E00298A60040686F6893
:1065C0008159B859FBF78AF9B851641C2888698841
:1065D0004843A042F0DCFEBDF8B542880B884C88E9
:1065E00005889A4201D1A54206D029460FA0009401
:1065F000FDF712FC0120F8BD002311E000220BE0A2
:106600005C43A4184568A4002D5904884E6854437F
:10661000E418A4003551521C44889442F0DC5B1C01
:1066200002889A42EADC0020F8BD00007472616EB4
:1066300073706F7365206572726F723A202564788B
:106640002564202A2025647825640D0A00000000B6
:1066500010B500210A4603E08C004368491C1A511A
:106660000388448863438B42F6DC10BD104A10B5A2
:1066700091100120FDF70AFA0320FDF78FF9FCF7CE
:106680008DF8002204211046FDF734F9002108227C
:106690000846FDF72FF9E12149020020FDF734FB00
:1066A000FCF7F8FDFEF77EFBFEF7B0FB002010BD07
:1066B000006CDC02F0B50B30C108C900144F002695
:1066C000144A0FE003688B420BD38B4205D95C1A46
:1066D0004318456830C3083B00E04368136002C0BC
:1066E00004E0021D10680028ECD13046002803D1D8
:1066F0003868002801D00020F0BD064A0648106026
:10670000064A121AD208D20044C001203860D7E7E6
:106710002C0200102802001084080010801C0010B9
:1067200070B506460D460846FBF753FA044629465F
:10673000304600F086FC2146FBF715F970BD0000DD
:106740000448018D408D814201D001207047002016
:106750007047000050080010024800214185018563
:10676000704700005008001070B5084C0025208DBF
:10677000618D884208D00C214143054A401C8D1888
:106780001E21FAF7A7FC2185284670BD500800108D
:1067900010070010F7B50E4C0546608D0E460746F3
:1067A0001E21401CFAF796FC208D814201D1002069
:1067B000FEBD0C20474307481E213A1802989060FE
:1067C00060C2608D401CFAF785FC61850120FEBD2A
:1067D000500800101007001002680A600122436888
:1067E000D20753404B60836853408B60C068504071
:1067F000C860704701214268C9074A404260826808
:106800004A408260C2684A40C2607047FEB50C468A
:106810000546C1681646E068FBF768F80190A9686C
:10682000A068FBF763F8009069686068FBF75EF8A2
:10683000074629682068FBF759F83946FBF74EF8F8
:106840000099FBF74BF80199FBF748F83060A9680D
:10685000E068FBF74BF80190E968A068FBF746F8A1
:10686000074629686068FBF741F80090696820686E
:10687000FBF73CF80099FAF7E0FF3946FBF72EF8F2
:106880000199FAF7DAFF70606968E068FBF72EF8A3
:1068900001902968A068FBF729F80090E968606812
:1068A000FBF724F80746A9682068FBF71FF839466C
:1068B000FAF7C3FF0099FAF7C0FF0199FBF70EF84A
:1068C000B0602968E068FBF711F801906968A0687A
:1068D000FBF70CF80090A9686068FBF707F807461B
:1068E000E9682068FBF702F83946FAF7F7FF0099E4
:1068F000FAF7A3FF0199FAF7A0FFF060FEBD1FB5FC
:1069000004466A46FFF782FF04226946204600F0EB
:10691000E8FB1FBD10B50446042100F04FFC0549FB
:1069200040180549884203D30421204600F05CFC4E
:1069300010BD00005C8F82C00BD70300F0B5044689
:1069400087B0806800900D46206816460190009937
:10695000FAF7CCFF0290E768606839460390FAF7CF
:10696000C5FF0299FAF7BAFF02900121A868FBF768
:1069700038F80299FAF7BAFF029039460198FAF707
:10698000B5FF019000990398FAF7B0FF0199FAF763
:1069900054FF019001216868FBF723F80199FAF789
:1069A000A5FF394601900846FAF7A0FF0121FBF741
:1069B00018F8009907460846FAF798FF0121FBF7F7
:1069C00010F87F21C905FAF78DFF3946FAF786FFDF
:1069D0002968FAF78BFF0199FAF72FFF0299FAF766
:1069E0002CFF306060680290206803900299FAF7EB
:1069F0007DFF0746E0680090A06801900099FAF7D3
:106A000075FF3946FAF719FF07460121A868FAF71A
:106A1000E8FF3946FAF76AFF059000990846FAF749
:106A200065FF0121FAF7DDFF029907460846FAF7EC
:106A30005DFF0121FAF7D5FF7F21C905FAF752FF63
:106A40003946FAF74BFF6968FAF750FF049000994E
:106A50000398FAF74BFF074601990298FAF746FFA9
:106A60003946FAF73BFF074601212868FAF7B9FFD4
:106A70003946FAF73BFF0499FAF7DFFE0599FAF772
:106A8000DCFE7060A06800900146FAF72FFF01213C
:106A9000FAF7A7FF0190676839463846FAF726FFEC
:106AA0000121FAF79EFF7F21C905FAF71BFF019923
:106AB000FAF714FFA968FAF719FF0490206839461D
:106AC0000190FAF713FF0390E068029001460098E6
:106AD000FAF70CFF0399FAF701FF044601216868F1
