:020000040800F2
:10800000F826002065810008BDB300086B820008D7
:10801000718100087381000875810008000000006C
:108020000000000000000000000000007781000850
:108030007981000800000000B7810008DDBE00085B
:108040007F8100087F8100087F8100087F81000810
:108050007F81000805B70008419D0008819D000848
:108060007F8100087F810008919D00087F810008C2
:108070007F8100087F8100088F9A0008959A000888
:108080009B9A0008A19A00087F8100081DC700087C
:108090007F810008019600087F810008A19D0008EB
:1080A0007F8100087F8100087F8100087F810008B0
:1080B00099C00008E5C000087F8100087F810008A2
:1080C0007F8100087F8100087F8100087F81000890
:1080D0007F81000809C700080FC7000815C70008FE
:1080E000519D00087F8100087F8100087F81000882
:1080F0007F8100087F8100087F8100087F81000860
:108100007F8100087F8100087F8100087F8100084F
:1081100085C300088BC300087F8100087F810008A9
:108120007F8100087F8100087F8100087F8100082F
:108130007F8100087F8100087F8100087F8100081F
:108140007F8100087F8100087F8100087F8100080F
:10815000DFF80CD001F040F8004800471D4001084E
:10816000F82600200648804706480047FEE7FEE75D
:10817000FEE7FEE7FEE7FEE7FEE7FEE7FEE7FEE7D7
:1081800025BF000851810008EFF3108072B67047D8
:1081900080F310887047434A1368012B04D04FF0D6
:1081A00001031360404A1060404A116040484FF09C
:1081B000805101607047EFF3108272B63948016850
:1081C00051B34FF0000101603748016891B1EFF3FE
:1081D00009811EF0100F08BF21ED108B21E9F00F6F
:1081E0004FF000041EF0100F08BF012441F8044DA9
:1081F000006801602D490968096808C9B1E8F00FF5
:10820000002B18BFB1EC108B81F309884EF0100ED3
:10821000002B18BF2EF0100E82F310884EF0040EC3
:10822000704722490860EFF3148222F0040282F3BF
:1082300014881D494FF0000008601A494FF00100F2
:1082400008601C484FF47F01D0F8002041EA020189
:10825000016017484FF080510160174800680068BE
:1082600080F3088861B662B670471EF0040F0CBF39
:10827000EFF30880EFF3098020E9F00F40F804EDF8
:1082800040F804ED1EF0040F0CBF80F3088880F363
:10829000098800B50FF0E2FB5DF804EB4EF0040E28
:1082A00070470000A40200209C020020A0020020D1
:1082B00004ED00E020ED00E008ED00E040EA0103FD
:1082C0009B0703D009E008C9121F08C0042AFAD28C
:1082D00003E011F8013B00F8013B521EF9D2704750
:1082E000D2B201E000F8012B491EFBD270470022F8
:1082F000F6E710B513460A4604461946FFF7F0FFA5
:10830000204610BDCAB2401E10F8011F8A4202D09A
:108310000029F9D100207047421C10F8011B0029E8
:10832000FBD1801A704710B5002200E0521C835C1C
:108330008C5CA34201D1002BF8D1D8B2E1B2401A33
:1083400010BD30B505460020034600E05B1C93429B
:1083500005D2EC5CC85C201A01D1002CF6D130BDEE
:108360000FB400B58DB010A909900B9000914FF09B
:10837000FF300A9000200C900548069005480790B1
:108380006A4609A80F9900F089FD0DB05DF814FB4D
:10839000B98E0008D78E00082DE9FF5F1D464FF00B
:1083A000FF3BD5E9014691465F464FF00008A969B9
:1083B0007F1C01988847296A824688470028F6D1A1
:1083C000BAF1FF3F0CD024F4C064002E19DD600622
:1083D00014D5BAF12B0F09D0BAF12D0F0ED103E04D
:1083E000584604B0BDE8F09F44F48064A9697F1C3E
:1083F00001988847761E8246002E02DDBAF1300FC2
:1084000003D0B9F1000F26D032E0A969761E44F4FA
:1084100000747F1C019888478246002E05DDBAF162
:10842000780F06D0BAF1580F03D0B9F1000F10D071
:108430001EE0B9F1000F02D0B9F1100F18D1A969EF
:10844000761E24F400747F1C019888478246102011
:1084500002E0082000E00A20814609E008FB090844
:10846000A969761E44F400747F1C019888478246EF
:10847000002E05DD4946504600F0FBFC0028EDDAF1
:10848000E96901988847A00502D46FF00100A8E7C8
:10849000E00725D1600613D5600502D5C8F10000BC
:1084A00000E0404629680A1D2A600968220501D5B6
:1084B000087015E0220701D5088011E008600FE080
:1084C0002868011D29600068210502D580F8008018
:1084D00006E0210702D5A0F8008001E0C0F8008086
:1084E00038467EE72DE9FF5FD2E901A74FF000088B
:1084F000916999461446DDF838B046460198884798
:10850000054659EA0B0005D009E0A169761C0198DF
:1085100088470546216A284688470028F5D1681C07
:1085200003D05FEACA7005D015E04FF0FF3004B009
:10853000BDE8F09F2068011D2160D0F800800AE0AE
:108540005FEACA7001D108F8015BA169761C7F1E41
:10855000019888470546002F1ADD681C18D0B9F12C
:10856000000F0DD0E81705EBD060421120F01F007E
:1085700059F822102A1A012090400142E0D107E068
:10858000BBF1000FDCD1216A284688470028D7D0EC
:10859000E16901988847BBF1000F07D1002E05DD86
:1085A0005FEACA7002D1002188F80010A068B842C2
:1085B00003DDBBF1000F03D017B16FF00100B6E788
:1085C0003046B4E72DE9FF4F087883B09946FF287D
:1085D00005D0491C2D2804D00024002008E00020EC
:1085E0000BE00124F9E700EB800003EB4000491C9D
:1085F0000B78FF2BF7D104B140420023029314788B
:1086000019461D462D2C01D02B2C04D1521C2D2C8B
:1086100013D000240294AA461478FF2C0FD00A2508
:10862000A3FB057801FB05814FF0000C03FB0C1147
:10863000521CE3194AEB0101EEE70124EAE7814409
:1086400053EA010002D019F5C87F06DA0398002129
:10865000C0E9001107B0BDE8F08F0025AE4E2F46EF
:10866000DFF8B882184600F092FDCDE90001B9F1BB
:10867000000002DAC9F1000400E004460023A74A22
:108680001AEB030B42EB045A12E0E00707D02A462C
:1086900033463846414600F025FA074688462A46C2
:1086A00033461046194600F01DFA05460E46641082
:1086B000002CEAD1DDE90001B9F1000F5A4653461A
:1086C00006DA00F081FA3A46434600F07DFA05E00A
:1086D00000F008FA3A46434600F004FA029A0AB15A
:1086E00081F00041039AC2E90001B3E72DE9FF4F91
:1086F0001F468DB0D7E901464FF0FF382E20454682
:108700004FF000090B90B9696D1C0E988847396AC3
:10871000824688470028F6D1BAF1FF3F0AD024F4F8
:10872000D064002E11DDBAF12B0F08D0BAF12D0F55
:108730000BD102E0404611B08DE744F48064B96982
:108740006D1C0E9888478246761E6946600501D5E5
:108750002D2000E02B208DF8000001F1010B0DF120
:10876000200809E0B9696D1C0E98884782460F9869
:1087700044F40074761E0560002E02DDBAF1300F5D
:10878000F0D00B998A453ED144F0800406E00F9961
:10879000681CA9F1010944F400740860B9696D1CF2
:1087A000761E0E98884782463028F0D02BE00B9931
:1087B0008A4505D1200603D444F08004761E18E0D3
:1087C000504606F04DF808B30DF11301761E44F43F
:1087D00000748B4508D2AAF130000BF8010B20067B
:1087E00007D5A9F1010003E0200602D409F1010038
:1087F0008146A00502D50F99681C0860B9696D1CF7
:108800000E9888478246002ED1DC53E0002E51DDC1
:10881000BAF1650F02D0BAF1450F4BD1A00549D589
:10882000B9696D1C24F44074761E0E988847824600
:10883000002E0CDD2B2804D0BAF12D0F07D144F403
:108840008074B9696D1C0E9888478246761EE005D3
:1088500001D52D2100E02B2108F8011BCDF82C803B
:1088600021E00DF12901761E44F4007488450CD2F4
:10887000AAF1300010F0FF0088F8000002D10B9937
:10888000884509D908F1010806E0E00501D524482A
:1088900001E042F20F708146B9696D1C0E9888475D
:1088A00082460F980560002E04DD504605F0D8FF83
:1088B0000028D6D1F9690E988847FF208BF8000070
:1088C00088F800000020069007904B466A4608A9E9
:1088D00006A8FFF777FEA00502D46FF001002AE793
:1088E00014F0240F0AD0E00714D1DDE9061238682D
:1088F000031D3B600068C0E900120BE0DDE90601E2
:1089000000F026FA0146E00704D13868021D3A60FB
:108910000068016028460EE7000014400000F03FA8
:10892000F1D8FFFF2DE9F05F93460F4680460446DD
:10893000002603F081FFD0F80090824614F8015B16
:108940002DB100F089FA0068405DC007F6D12B2DEB
:1089500002D02D2D1AD0641E0021CAF800105A46EC
:108960003946204600F0C8FA014627B13868A042CF
:1089700001D1C7F80080DAF80000022809D0CAF84F
:108980000090700505D54842BDE8F09F46F480662A
:10899000E2E70846F8E72DE9FE4F804681EA03004A
:1089A000C00F0C46009021F0004123F00045B8EBC9
:1089B0000200A94105D24046214690461C460B467E
:1089C000024623F00040104347D0270DC7F30A00AA
:1089D000C3F30A510290401A019040286BDAC3F3A6
:1089E000130040F4801B0098924620B10023D2EB84
:1089F000030A63EB0B0B01985946C0F14002504645
:108A000000F009FA06460D4650465946019A00F014
:108A100011FA10EB08006141002487EA115284EA40
:108A2000E7731A4340D0009A62B3019A012A4FEAD1
:108A3000075215DC001B61EB02014FF0004202EA15
:108A40000752CDE90042001C41F5801132462B4609
:108A500000F0E7FA03B0BDE8F08F40462146F9E7A1
:108A6000001B61EB0201001C41F5801300185B4103
:108A70002018A2F5001747EB030140EAD570B6199C
:108A80006D4111E06D084FEA360645EAC0754FEAC0
:108A90000752001B61EB0201001C41F580114908DF
:108AA0004FEA30000019514132462B4603B0BDE871
:108AB000F04F00F0A7BA0098012240000023D0EB4D
:108AC000020263EBE073009821464FEAE074B8EBD2
:108AD000000061EB0401E9E783F000435BE781F00C
:108AE000004158E72DE9FE4F81EA030404F00044F9
:108AF00021F0004100944FF0000B23F0004350EAB6
:108B000001045ED052EA03045BD0C3F30A54C1F3FC
:108B10000A552C44A4F2F3340194A0FB0254C1F38F
:108B2000130141F48011C3F3130343F4801301FBD9
:108B3000024400FB034E840A970A44EA815447EA40
:108B40008357A4FB076802958D0A05FB07854FEA4A
:108B5000932C04FB0C542705029D4FEA065847EA64
:108B60001637B5EB08056EEB070C870E920E47EA39
:108B7000811742EA8312A7FB0201B6EB0B0164EBFB
:108B800000042B0D43EA0C335E1844EB1C50DA460C
:108B90005146E7FB0201C5F313044FEA0B3343EAE6
:108BA00014534FEA0432019C43EA0603A4F10C0477
:108BB0000294009CCDE900B400F033FA03B0BDE8A4
:108BC000F08F00200146F9E72DE9F04D81EA03041A
:108BD00004F0004B21F0004514464FF0000A23F04A
:108BE000004150EA050220D054EA01021DD0C5F32D
:108BF0000A570246C5F31303C1F31300C1F30A5623
:108C000040F4801543F48013A7EB0608101BD646EA
:108C100008F2FD3873EB050002D308F1010801E00A
:108C200092185B41B8F1000F03DA00200146BDE85D
:108C3000F08D00204FF48011064684460EE0171B8D
:108C400073EB050705D3121B63EB050306434CEAE0
:108C5000010C49084FEA300092185B4150EA0107C5
:108C6000EDD152EA030012D082EA040083EA050142
:108C7000084305D0101BAB4106D20122002306E0B9
:108C800000224FF0004302E06FF0010253101AEB94
:108C900006004CEB085110EB0A0041EB0B01BDE85C
:108CA000F04D00F0AFB90EB5C10F80EAE070084496
:108CB000CA07002140F233438DE80E000A460B46F6
:108CC00000F0AFF903B000BD00F0004230F000400A
:108CD0000AD0C10D01F56071C0F3160042EA0151DE
:108CE000C20840071143704700200146704700004A
:108CF00030B5041E71F1000404DB4FF00044404223
:108D000064EB0101141E73F1000405DB1C464FF0F7
:108D10000043524263EB04038B4208BF824230BDE2
:108D200030B5041E71F1000404DB4FF000444042F2
:108D300064EB0101141E73F1000405DB1C464FF0C7
:108D40000043524263EB0403994208BF904230BD96
:108D500001F0004330B421F0004150EA010206D096
:108D60000A0DA2F56072C1F31301002A02DC30BCC7
:108D700000207047440F44EAC104C100E01830BC31
:108D800000EBC25000F007B930B50B460146002099
:108D90002022012409E021FA02F59D4205D303FABD
:108DA00002F5491B04FA02F52844151EA2F101023E
:108DB000F1DC30BD2DE9F05F0546002092469B4670
:108DC00088460646814640241BE0284641464746E1
:108DD000224600F013FA53465A46C01A914110D366
:108DE00011461846224600F016F82D1A67EB0108C6
:108DF0004F4622460120002100F00DF817EB000934
:108E00004E41201EA4F10104DFDC484631462A46CB
:108E10004346BDE8F09F202A04DB203A00FA02F125
:108E2000002070479140C2F1200320FA03F3194358
:108E300090407047202A06DBCB17203A41FA02F017
:108E400043EAE07306E041FA02F3D040C2F12002A7
:108E50009140084319467047004870471CC80108F4
:108E600010B50446FFF7F8FF0068005D00F0010050
:108E700010BD3A2800D2303820F02002412A01D318
:108E8000A2F13700884201D34FF0FF307047000055
:108E9000026811441378016018467047D160044994
:108EA00051610449116200211161114600F0B6B907
:108EB000918E0008618E0008426842B1016811F885
:108EC000013B23B1521EC0E9001218467047012130
:108ED000C160881E704742685AB1C368016843B9CF
:108EE00083688B4205D0491E521CC0E90012002045
:108EF00070474FF0FF3070472DE9F05F82460078F1
:108F0000002715468B460AF10104B946302801D0E6
:108F10009DB113E014F8010B0127782803D05828DD
:108F200001D045B10AE00DB1102D07D10027102561
:108F300014F8010B02E0082500E00A250026B046DF
:108F40000EE005FB080005FB06F1012701EB1046CA
:108F50001FFA80F8B6F5803F00D3B94614F8010B2C
:108F60002946FFF786FF0028EBDABBF1000F05D09A
:108F70000FB1641E00E05446CBF80040B9F1000F79
:108F800006D003F059FC02210160C81EBDE8F09F25
:108F900048EA0640FAE70029A8BF7047401C49008C
:108FA00008BF20F00100704710B4B0FA80FC00FA4E
:108FB0000CF050EA010404BF10BC704749B1CCF179
:108FC000200421FA04F411FA0CF118BF0121214305
:108FD0000843A3EB0C01CB1D4FEA00614FEA1020C0
:108FE00042BF002010BC704700EBC3501044002962
:108FF000A4BF10BC7047401C490008BF20F001000E
:1090000010BC704710B5141E73F1000408DA401C40
:1090100041F1000192185B411A4301D120F0010097
:1090200010BD2DE9F04D92469B4611B1B1FA81F287
:1090300002E0B0FA80F220329046FFF7ECFE0446E0
:109040000F4640EA0A0041EA0B0153465A460843DC
:1090500013D0114653EA010019D0C8F1400250461E
:1090600000F0CCF805460E46504659464246FFF7FA
:10907000D2FE084305D0012004E020463946BDE871
:10908000F08D0020054346EAE0762C4337430A98EA
:109090006305E40AA0EB08000022FD0A44EA4754F5
:1090A0000A3002D500200146E9E70105101969419F
:1090B000DDE9084500196941BDE8F04DA2E770B54A
:1090C00021F0004303430CD0C1F30A550024D5EB33
:1090D000040564EB0403D617AD1AB34102DB00208C
:1090E000014670BD201841EB025170BD2DE9F04DD5
:1090F00000231A461B1A8A4103DB00200146BDE803
:10910000F08DC1F30A52C1F3130141F480154FF001
:10911000000BD10702D100186D41521E00270446F2
:1091200040F2FF11384601EB620A3E468046024695
:1091300000204FF4801100F061F8C2197141BB1892
:1091400046EB0100B4EB030C75EB000C04D3E41AFE
:1091500065EB000517460E46241908F101006D4124
:1091600080463428E3DDF91946EB0600091BA841C7
:1091700003D24FF0FF32134601E0002213461BEBEF
:10918000070046EB0A51BDE8F04DFFF73BBF0EB5B7
:1091900040F2334202920022CDE900221346FFF74B
:1091A00040FF03B000BDC1F30A52C1F3130140F206
:1091B000FF3341F480119A4202DA002001467047E1
:1091C00040F233439A42A2F2334202DC524200F0B0
:1091D00015B8FFF720BE0000064C074D06E0E0681A
:1091E00040F0010394E8070098471034AC42F6D3EE
:1091F000FEF7B2FFD0C90108F0C90108202A04DB3C
:10920000203A21FA02F00021704721FA02F3D040FF
:10921000C2F1200291400843194670472DE9F34FEF
:109220008BB04FF0000801F10C000C464FF0010B21
:1092300046460DF1080A01906269012101989047A4
:10924000051E2DD0252D2CD0216A8847C0B162691A
:10925000012101989047216A88470028F7D1411ED3
:1092600062690198904700E0761CA1690B988847D5
:10927000216A88470028F7D1E1690B988847DBE726
:10928000A1690B9888470746A84201D1761CD3E70D
:10929000E1690B9888477F1C02D1B8F1000F6FD0AD
:1092A00046E1002762693D463946019890472A28E1
:1092B00004D162690121019890470125DFF8849269
:1092C0006269012101989047A0F130010A290AD270
:1092D0004F45E5DC07EB870100EB4107303FDFD46A
:1092E00045F01005ECE7E90601D46FF000476C2863
:1092F0000AD04C2814D0682815D06A280DD07428BC
:109300001CD07A281AD01DE062690121019890478B
:109310006C2802D045F0040514E045F002050DE08C
:1093200045F020050AE0626901210198904768280C
:1093300002D045F0080505E045F4006562690121A9
:1093400001989047C4E9015765283DD019DC582899
:109350007AD00CDC452837D004DC252826D04128DB
:1093600031D131E046282FD047282CD12CE05B2882
:1093700077D0612828D063287CD0642823D15AE094
:10938000D0E06F2848D008DC66281DD067281BD0A5
:10939000692821D06E2816D127E0702845D073287F
:1093A00068D0752847D078280DD14DE0A1690B9879
:1093B0008847054625283FF469AFE1690B9888473F
:1093C0006D1C3FF46AAFB3E023466A466FF00100BC
:1093D0000B99FFF78BF99EE045F040006060A8070D
:1093E00023464FF0000236D43EE0E8077FF447AF53
:1093F0002068011D21600068290501D506701BE762
:10940000290701D5068017E7A90703D5F117C0E999
:10941000006111E706600FE745F040006060A807B3
:1094200023464FF0080216D41EE040F60E0125EA4E
:109430000100606016E045F040006060A807234628
:109440004FF00A0207D40FE045F040006060A80723
:1094500008D5234610226FF001000B99AFF300806E
:1094600059E007E0234610226FF001000B99FEF748
:1094700093FF50E04FF000094F464B46632802D05F
:109480005B2806D040E0E80601D40120A060012757
:109490003AE062690121019890475E2805D14FF0BA
:1094A00001096269494601989047216939B900214B
:1094B0000A46534643F82120491C0829FADBB0B379
:1094C000216969B9C11700EBD16253110AEB83011D
:1094D00022F01F02821A01200B68904003430B60A8
:1094E00062690121019890475D28E8D1B9F1000F28
:1094F00009D00020514651F82020D24341F82020C5
:10950000401C0828F7DB02AB224600976FF00100F1
:109510000B99FEF7E7FF00280CDA401C08D1BBF1DD
:10952000000F05D04FF0FF300DB0BDE8F08FFFE722
:109530004046F9E7E90701D108F1010806444FF078
:10954000000B79E6CCCCCC0C70B58C1810F8015B14
:1095500015F0070301D110F8013B2A1106D110F8CC
:10956000012B03E010F8016B01F8016B5B1EF9D1D0
:109570002B0705D40023521E0DD401F8013BFAE756
:1095800010F8013BCB1A921C03E013F8015B01F8C1
:10959000015B521EF9D5A142D8D3002070BD000056
:1095A00010B5086800221146401CFFF7BBF90446BD
:1095B0000C49A0F51660884211D821460AA012F085
:1095C0007FF90C48416CA14207D000F120014464AE
:1095D0004FF4FE7208A012F053FB002010BD0120D2
:1095E00010BD0000A0060E00424155443D25640D0B
:1095F0000A0000002C120020726567730000000052
:10960000144810B5016888B0C90601D51021016061
:109610000168090701D5082101600068800716D09C
:1096200006A90DF10B00CDE90001012103AB05AA4C
:10963000084600F037F8084C0598ADF808000C22F1
:1096400002A920680FF04DFAA0680FF04BFD08B09A
:1096500010BD0000106400405403002030B4012805
:109660000CD10E4A136943F000731361136923F0A0
:1096700000731361D36943F00073D361084B53F84F
:109680002020146824F00204146053F8202013688A
:1096900043F04003136030BC00F0B6B80010024045
:1096A00098BF0108F0B52F4E4FF4D87505EB0115A2
:1096B00056F82040DDE905C754F805E064591EF06E
:1096C000040F48D0E408146056F8202052594FF493
:1096D000DA7402F002023A7056F8202004EB01140A
:1096E000125902F00F028CF8002056F820404FF477
:1096F000DC7202EB0112A4581C7056F82040A458EA
:10970000240A5C7056F82040A458240C9C7056F82B
:109710002040A258120EDA7056F820404FF4DE7244
:1097200002EB0112A4581C7156F82040A458240AD8
:109730005C7156F82040A458240C9C7156F82040C7
:10974000A258120EDA7156F8200031B1016941F0C9
:1097500020010161F0BD640DB5E7C16841F0200151
:10976000C160F0BD98BF0108F0B5264E00273C4609
:1097700056F82050D5F808C05FEA4C1C08D4AC68F5
:10978000240101D5012403E0AC68E40038D50224AB
:109790004FF4C07C0CEB041C55F80CE00EF0010EED
:1097A00045F80CE056F82050490545F80C1056F8DD
:1097B00020104FF4C27505EB04154B511178D2F807
:1097C00001304FF4C47541EA032156F8203005EB0F
:1097D000041559511179D2F805204FF4C67341EAA6
:1097E000022156F8202003EB0413D15056F8200034
:1097F00050F80C1041F0010140F80C103846F0BD53
:109800000820F0BD98BF01082DE9F05F83460C46A3
:10981000012001F065F9DFF878C00127002307F186
:10982000010800229918C91C01FB08F1B0FBF1F6F0
:10983000A64201D3311B00E0A11B8C4503DD8C4601
:10984000994692463D46521C082AEBDB5B1C102BC6
:10985000E7DB7F1CFF2FE1DD584607F081FF0D4954
:1098600051F82B00C2690C4B1A40C26151F82B0011
:10987000C26942EA094145EA0A52114341F00071C6
:10988000C161584608F0F0FA0120BDE8F09F0000E1
:109890008096980098BF010800FC80FFF0B52A4D23
:1098A0000124059F55F820608C40D6F800C24CF08A
:1098B000010CC6F800C255F82060D6F81CC22CEA8C
:1098C000040CC6F81CC255F82060D6F80CC24CEA4D
:1098D000040CC6F80CC255F820604FF4107C0CEB59
:1098E000C10C520546F80C205A0555F820304FF4AB
:1098F000117606EBC1015A5055F82010D1F8042218
:10990000A243C1F8042217B1012F06D00CE055F88C
:109910002010D1F81422A24304E055F82010D1F809
:1099200014222243C1F8142255F82010D1F81C2229
:109930002243C1F81C2255F82000D0F8001221F073
:109940000101C0F80012F0BD98BF010870B5184DB4
:109950001646044669B1012919D0022916D11320EF
:1099600001F042FD55F824004169EEB141F00101DA
:109970000BE0142001F038FD55F82400416916B1C0
:1099800041F0020101E021F00201416170BD1520AA
:1099900001F02AFD55F82400416916B141F010018B
:1099A000F3E721F01001F0E721F00101EDE70000FD
:1099B00098BF010830B40A46D0F8A010D0F8A440EF
:1099C0004FF0FF3351F8221024F81230C1F3074151
:1099D0000122431883F8B420D0F8B02030BC1047DF
:1099E0002DE9F04F9946DDE9094C4FF0FF3BDDF8DA
:1099F0002CA048E0ACEB02035BB20D78002B02DD3B
:109A000005FA03F503E0C3F1000325FA03F5EEB20E
:109A100002DDCCF1080301E0C2F10803DBB28342AE
:109A200000D903460CEB03074FF0FF0808FA07F5CF
:109A3000CCF1080C28FA0CF845EA080594F800C0A7
:109A4000AE430CEA050C1A444CEA060CD2B284F878
:109A500000C0072A07D90022B9F1000F01D05D46E6
:109A600000E00125294407F0FF0CBCF1070F08D9DD
:109A70004FF0000CBAF1000F01D05D4600E0012567
:109A80002C44C01AC0B20028B4D1BDE8F08F012028
:109A900011F070BE012011F031BE022011F02EBE77
:109AA000022011F067BE0000012809D002280DD164
:109AB000074850F8210001682AB141F0010104E093
:109AC00003484038F5E721F00101016070470000CC
:109AD000F0BF010802460020012A06D0022A03D165
:109AE000034850F821004068704701484038F8E7C3
:109AF000F0BF01080A494FF0FF32012808D00228C0
:109B000005D1486940F0020048610648026070478C
:109B1000486940F001004861034842607047000016
:109B200000100240040402400000024070B51546D7
:109B30000C4601280ED0022817D10C48005701F01E
:109B40005EFC0A48503050F82400016855B141F0DD
:109B5000020109E00548801D005701F050FC034850
:109B60001030F0E721F00201016070BDA0BF0108D4
:109B7000012806D0022803D1034850F82100426092
:109B8000704701484038F8E7F0BF0108012806D0C7
:109B9000022803D1034850F82100C26070470148F1
:109BA0004038F8E7F0BF010801280BD0022808D19F
:109BB000064850F82100016821F0800141EAC211F5
:109BC0000160704701484038F3E70000F0BF01082A
:109BD00010B50B46044609780022FFF765FF43F6EF
:109BE000D071012C28D0022C25D11C7815489A68F8
:109BF00050F82440A2601C781A6950F82440E260B2
:109C00001C785A8850F8244062601A7850F8220074
:109C100002688A4399880C0244EA81211C7B41EA4C
:109C2000C4119C795B7841EA841141EA0311114324
:109C300041F48051016010BD02481C7840389A6898
:109C4000D6E70000F0BF01080548016841F08071C7
:109C500001600448016841F00101016070470000A3
:109C6000FCED00E0001000E0411C0CD0074AB2F906
:109C70000010884201D1491E1180054A00EB4000C6
:109C8000002102F830104FF0FF3070474C030020E5
:109C90002422002002F02CB910B5086800221146D9
:109CA000401CFEF73FFE06490028086C04D040F037
:109CB00001000864002010BD20F00100F9E7000059
:109CC0002C12002030B51C484456012004F01F051A
:109CD00000FA05F56409A40004F1E024C4F8005179
:109CE000164C2568884005432560144914390C68D2
:109CF0000BB1044300E084430C6010490C394AB1B5
:109D00000C1D012A0DD0022A0AD10A688BB1024328
:109D10000A6007E00A680BB1024300E082430A6070
:109D200030BD13B12168014301E021688143216006
:109D300030BD82430A60F8E718C0010814040140EE
:109D40000248002100780AF0E3BD0000641A0020F8
:109D50002DE9F0410A24084E084F0125306805FA24
:109D600004F1084203D0385D21460AF0D1FD641C9D
:109D7000102CF3DBBDE8F08114040140641A0020CC
:109D80000248012140780AF0C3BD0000641A002097
:109D90000248042100790AF0BBBD0000641A0020CB
:109DA0002DE9F0410524084E084F0125306805FAD9
:109DB00004F1084203D0385D21460AF0A9FD641C75
:109DC0000A2CF3DBBDE8F08114040140641A002082
:109DD00008B50E4800220092016841F4803101600C
:109DE0004FF4004306E00099491C0091994201D9C3
:109DF000012008BD01688903F5D5009200BF0098D5
:109E0000401C0090FF28F9D9002008BD0010024036
:109E10002DE9F05F24200EF0DBFB04460C200EF051
:109E2000D7FB054624200EF0D3FB06460C200EF08F
:109E3000CFFB2649074624228B4620460EF053FDD1
:109E400022490C2224318A4628460EF04CFD1F4937
:109E500024223831894630460EF045FD1B490C223C
:109E60005C31884638460EF03EFD09F023F809F0D3
:109E70008DF82422214658460EF035FD0C22294645
:109E800050460EF030FD2422314648460EF02BFDA0
:109E90000C22394640460EF026FD4FF4FE720C4966
:109EA0000CA011F0EDFE20460DF026FD28460DF029
:109EB00023FD30460DF020FD38460DF01DFD00213C
:109EC000084601F021FC0020BDE8F09FA41300200B
:109ED0004C1200207265677300000000FEB51DA0E3
:109EE00011F0EEFC9FED1F0A0321684611F095FE6C
:109EF0000A200FF073FE1C4E00244FF44875032215
:109F00003146684611F075FD0A200FF067FE641CAB
:109F1000AC42F4DB1449F0EE080AD8399FED130A7D
:109F20000C46684611F054FE0321204611F026FE2F
:109F30000F48F7EE000A00F1200190ED690A4FF496
:109F4000FE7230EE600A80ED690A0AA011F098FEF8
:109F50000020FEBD626567696E20464341320D0AEE
:109F60000000000000000000A01400200AD7A33A5F
:109F70002C12002072656773000000002DE9F04F7D
:109F80002DED0C8B99B0002616AA0868FEA1FEF7ED
:109F9000E7F9032108460AF025F903210A9008464B
:109FA0000AF020F9DFF8E49311900021A9F8F212E9
:109FB00099ED21DAB7EE00CA89ED21CA0321062006
:109FC0000AF010F90F90042106200AF00BF90E9008
:109FD000032104200AF006F91490042103200AF05A
:109FE00001F9DFEDEBDA10900321B0EE6D0A0BA85A
:109FF00011F013FEB0EE6D0A032107A811F00DFE5B
:10A00000B7EE000A022200210F9809F0DCFFBFEE34
:10A01000000A022201210F9809F0D5FFB7EE000ACD
:10A02000012202210F9809F0CEFFBFEE000A0122A3
:10A0300003210F9809F0C7FFB7EE000A00220421A0
:10A040000F9809F0C0FFBFEE000A002205210F980B
:10A0500009F0B9FFCFA0169911F032FC002409F5E0
:10A0600020702546A04627461890B9F8F20201282C
:10A0700005D9032207A8189911F0BBFC7F1CB9F879
:10A08000F202032836D1280734D400EE107AC849EA
:10A0900007A8F8EE400A12918CEE200AF0EE080AAA
:10A0A00011F096FDDDE91102002110F06FFCDDE9F1
:10A0B0001102012110F06AFCDDE91102022110F009
:10A0C00065FC0322BBA0129906F030FE45F008059E
:10A0D0000FF076FE8246AD4800F5D471DFEDB7CAC9
:10A0E00017910C3900F5B870FFEE00AACB46159118
:10A0F000139003E00A200FF071FDB6E7BBF8F202FF
:10A100004FF00302012870D9A9490BA8A03111F022
:10A1100070FC05F0800008F10108304370D10FF0A9
:10A120004FFEA0EB0A0000EE100A0026B8EE400A2F
:10A1300080EE2CAA9FEDA2BBDFF88C929DED160A53
:10A14000A14907A8B8EEC00A80EE0A8A00EE107A8C
:10A15000F8EE400A8CEE200AF0EE080A11F038FD05
:10A1600009EB860090ED000AB0EEC00A10EE100A6E
:10A17000FEF7AAFD41EC190BF0EEC88A18EE900A22
:10A18000FEF7A2FD53EC192BFEF7A6FC53EC1B2B9C
:10A19000FEF7AEFD2AD21AEE100A4FF08041884237
:10A1A00024DD18EE900A884220DD18EE900A8749D7
:10A1B00088421BDA09EB8600854990ED000A38EEEB
:10A1C000400AB0EEC00A10EE100A884201DDB1EE7E
:10A1D000488A7D487C4A0C3800EB8600314680ED89
:10A1E000008A0A9810F0D2FB04E04CE0761CF6B22C
:10A1F000032EA3D32EB1012E07D0022E0AD10DE0DB
:10A200003DE045F0010573A002E045F0020575A0B0
:10A2100002F0C0FAE843000704D02FE045F004053F
:10A2200074A0F5E777A011F04BFB0321084609F075
:10A23000D9FF06460321084609F0D4FF624981464A
:10A240000C3906F0E3FC11990A9810F0C5FC304671
:10A250000A9909F0C3F831464846179A0AF0ECF813
:10A2600048460DF049FB30460DF046FB0A980DF0CC
:10A2700043FB11980DF040FB45F080050126B8F135
:10A28000640F1AD0B5E107A8189911F0B2FB7F1C32
:10A2900056B10026B0EE6D0A032107A811F0BDFCEF
:10A2A00000270FF08DFD8246B0EE6D0A03210BA84A
:10A2B00011F0B3FC4FF000089BE12006E2D49DEDC5
:10A2C0000B0A4FF000080321C0EE2C0A0BA8CDEDBD
:10A2D000000A9DED0C0AC0EE2C0ACDED010A9DEDA1
:10A2E0000D0AC0EE2C0AB0EE6D0ACDED020A11F097
:10A2F00094FC8DED03CA9DED000ADFF82491B0EEC9
:10A30000C00A10EE100A48451FDA9DED010AB0EEB2
:10A31000C00A10EE101A494517DA9DED020A30EE18
:10A320004C0AB0EEC00A10EE101A49450DDAE007EB
:10A330000BD144F001046A4600210E9810F03BFB5B
:10A340000422694637A006F0F1FC9DED000AB0EE4C
:10A35000C00A10EE100A484571DA9DED010AB0EE10
:10A36000C00A10EE101A494569DA9DED020A30EE76
:10A370006A0AB0EEC00A10EE101A49455FDAA0076B
:10A380005DD444F0020450E03D2564002C1200200E
:10A3900000000000626567696E2061636320616E82
:10A3A00064206779722063616C3A25640D0A0000AD
:10A3B00000140020626961733A0000000000C84286
:10A3C0000000000000000840341B0020000048434B
:10A3D0000000404047595220582020666F756E6437
:10A3E000210D0A0047595220592020666F756E646E
:10A3F000210D0A00475952205A2020666F756E645D
:10A40000210D0A00616C6C206779722064617461AF
:10A4100020636F6C6C65637465640D0A0000000056
:10A42000CDCC4C3E5A2B3A0009E06A4601210E98E9
:10A4300010F0C1FA042269468BA006F077FC9DED6E
:10A44000000AB0EEC00A10EE100A48451FDA9DED72
:10A45000020AB0EEC00A10EE101A494517DA9DED57
:10A46000010A30EE4C0AB0EEC00A10EE101A49454F
:10A470000DDA60070BD444F004046A4602210E98FA
:10A4800010F099FA0422694678A006F04FFC9DED81
:10A49000000AB0EEC00A10EE100A48451FDA9DED22
:10A4A000020AB0EEC00A10EE101A494517DA9DED07
:10A4B000010A30EE6A0AB0EEC00A10EE101A4945E1
:10A4C0000DDA20070BD444F008046A4603210E98E5
:10A4D00010F071FA0422694665A006F027FC9DED94
:10A4E000010A4846B0EEC00A10EE101A49451FDABC
:10A4F0009DED020AB0EEC00A10EE101A814217DA82
:10A500009DED000A30EE4C0AB0EEC00A10EE101AB3
:10A5100049450DDAE0060BD444F010046A460421E4
:10A520000E9810F048FA0422694652A006F0FEFB8D
:10A530009DED010A4846B0EEC00A10EE101A8142A5
:10A540001FDA9DED020AB0EEC00A10EE101A814229
:10A5500017DA9DED000A30EE6A0AB0EEC00A10EE7E
:10A56000101A49450DDAA0060BD444F020046A46BF
:10A5700005210E9810F01FFA042269463EA006F04D
:10A58000D5FBE043800634D13CA011F099F9DDE918
:10A590000E10149A09F087FB1099149811F020F806
:10A5A00004AA0021109807F099FE04AA002113982C
:10A5B00010F0ECF904AA0121109807F08FFE04AA0C
:10A5C0000121139810F0E2F904AA0221109807F073
:10A5D00085FE04AA0221139810F0D8F90321159AD8
:10A5E000109807F07BFE0321159811F098FA44F0BB
:10A5F00080040A200FF0F2FA20067FF57AAD2806D3
:10A60000FBD525A002F0C6F825A0139906F040FB63
:10A61000032223A0159906F089FB24A002F0BAF8C2
:10A620001FA0179906F034FB03221DA0129906F013
:10A630007DFB8BED21DA4FF4FE721E491EA011F056
:10A640001FFB0E980DF058F90F980DF055F914985E
:10A650000DF052F910980DF04FF919B00020BDEC33
:10A660000C8BBDE8F08F00005A2D3A00592B3A00B0
:10A67000592D3A00582B3A00582D3A00616C6C2045
:10A68000616363206461746120636F6C6C656374E3
:10A6900065640D0A000000006163630D0A0000009C
:10A6A0006E6F686561646572000000006779720D05
:10A6B0000A0000004C120020726567730000000061
:10A6C000FEB500259FED1A0A0321684611F0A5FA90
:10A6D00018A011F0F5F81B4F00244FF44876032220
:10A6E0003946684611F085F90A206D1C0FF076FA9C
:10A6F000641CB442F3DB00EE105AB7EE001A1149A5
:10A70000F8EEC00AAC390C46684681EE200AF0EE3D
:10A71000080A11F05DFA032221460BA006F006FBA1
:10A720004FF4FE720A490BA011F0AAFA0020FEBDF8
:10A7300000000000626567696E20464347320D0ADB
:10A7400000000000AC1400206D61746C61620000B8
:10A750004C12002072656773000000002DE9F04183
:10A760000F46086886B02AA10FF034F82A4C4FF43F
:10A77000FE7804F5037604F1200504F5F07478B151
:10A7800004A903A8CDE9000102AB05AA23A13868FA
:10A79000FDF7E6FD042819D0012006B0BDE8F081E0
:10A7A000204607F095FB214620A006F071FA9FEDA8
:10A7B000210A0321304611F030FA17489FED1E0A96
:10A7C000002180ED2A0AC0F8A4101AE00599032997
:10A7D00008DA02AA204610F0EEF8214613A006F08F
:10A7E00057FA0EE00DD14FF0030202A9304611F0E6
:10A7F0001BF912A011F064F8032202A913A006F0BD
:10A8000095FA4246294614A011F03AFA0020C4E70E
:10A810003D524553455400002C1200203D25642C28
:10A8200025662C25662C2566000000006D61746C81
:10A8300061620000000000000000C64262696173AE
:10A840002073657420746F3A0D0A00006E6F68659E
:10A8500061646572000000007265677300000000AB
:10A8600000B572B6094B196941F0020119615861CE
:10A87000186940F040001861D80307F063FC1969BB
:10A8800021F00201196162B600BD00000020024003
:10A890004FF40060704700000348416941F0100127
:10A8A000416100F003B80000001002400348024973
:10A8B0004160034941607047230167450020024021
:10A8C000AB89EFCD2DE9F04107464FF470441646B1
:10A8D0000D46204607F036FCA04600230A4C0FE048
:10A8E00072B6206940F001002061E85CF8544046EF
:10A8F00007F028FC216921F00101216162B65B1C8F
:10A90000B342EDD3BDE8F0810020024070B50546AA
:10A910002D4B14460E46062D0CD2DFE805F003073A
:10A9200014180B1C986940F0040002E0986940F08C
:10A93000080098610A2C44D2DFE804F0111F184384
:10A940002A4343432A3E986940F01000F1E7986992
:10A9500040F02000EDE7986940F08000E9E700232F
:10A960000122284601F026FA00221EE000230222DE
:10A97000284601F01FFA012205E0002302222846A2
:10A9800001F018FA00223146284600F029F818E0B4
:10A9900003230022284601F00DFA042C0AD00022DD
:10A9A0003146284600F01CF801223146284600F0C6
:10A9B0003DF806E00122F3E702230122284601F0D8
:10A9C000F9F9284670BD000000100240034A52F811
:10A9D00020008068C84000F00100704708C00108EE
:10A9E00001238B40034951F820000AB103617047ED
:10A9F0004361704708C001080A4A10B5936943F0E3
:10AA0000010393618A0721F003040749120F2144CF
:10AA10000F238C6893409C438C608B689040034369
:10AA20008B6010BD001002400000014030B512B133
:10AA30000024022301E0012400230D4A0F2552F8CF
:10AA400020008A00082909D34168203A954043EA4A
:10AA50008403A94393400B43436030BD0168954094
:10AA600043EA8403A94393400B43036030BD0000D5
:10AA700008C00108012A00D00022FFF7B1BF000082
:10AA800070B50C460868FDF747FC104DB8B120685A
:10AA900000221146401CFDF745FFFF2814D855F849
:10AAA000D01FC0B221F0FF010143296007494FF4D4
:10AAB000FE72203106A011F0E3F8002070BD95F879
:10AAC000D01005A010F0FCFE012070BD2C1200205B
:10AAD000726567730000000025640D0A0000000025
:10AAE00030B5224C012102226368C3F303135BB12A
:10AAF000082B04D0092B04D00A2B05D103E0022136
:10AB000002E0042100E008216368C3F3022333B1AB
:10AB1000042B09D0052B04D0062B05D103E001221C
:10AB200002E0042200E00822114B05281B681AD21B
:10AB3000DFE800F00B03080D0F00B3FBF1F0B0FBF2
:10AB4000F2F030BDB3FBF1F030BD184630BD09481E
:10AB500030BD206B800104D5606D800501D50648AD
:10AB600030BD064830BD002030BD0000001002405E
:10AB700000000020001BB700006CDC0200127A000D
:10AB80000249486A00224A627047000000100240F1
:10AB90000549054B0A68091D083309681B685940B7
:10ABA000C0E9002170470000E8F7FF1F08B5054B1A
:10ABB0006946187801F024FC0028F9D19DF80000BE
:10ABC00008BD00004000002070B50646D0F8FC002B
:10ABD000008818B30024351995F8B4000F2818D050
:10ABE00030680078A04214D095F8040140B9D6F836
:10ABF000F82012B1214630469047012085F8B40074
:10AC000095F804012146401E85F80401304609F0FC
:10AC100065FA641CE4B2402CDDD370BD36F9F40F44
:10AC2000FFF722F8308070BD70B50C460868FDF75C
:10AC300073FB0D4D90B1206800221146401CFDF7BA
:10AC400071FE296B814207D028634FF4FE7205F133
:10AC5000200106A011F014F8002070BD05A0296B9A
:10AC600010F02EFEF8E700002C12002072656773CA
:10AC70000000000025640D0A000000003EB50868D1
:10AC80006B4601AA4BA1FDF76BFB022876D19DED27
:10AC9000000AB5EEC00AF1EE10FA6FDB10EE100AF2
:10ACA000464988426ADC012445A101A80EF092FDC4
:10ACB000444D70B90098FEF707F841EC100B42A024
:10ACC00053EC102B10F0FCFD9DED000A002485EDE7
:10ACD000210A42A101A80EF07DFDB0B99DED000A48
:10ACE000D5F88000BDEEC00A20F00F0010EE101A5B
:10ACF00001F00F010843C5F88000394900F00F004A
:10AD0000095C38A010F0DCFD00243AA101A80EF087
:10AD100061FDC0B99DED000AD5F88000BDEEC00A06
:10AD200020F0F00010EE101A090740EA11601E2111
:10AD3000C5F8800001EAD0002949091D095A2EA052
:10AD400010F0BEFD002430A101A80EF043FD70B943
:10AD50000098FDF7B9FF41EC100B2CA053EC102B21
:10AD600010F0AEFD9DED000A002485ED220A2BA116
:10AD700001A80EF02FFD10B184B116E017E0009885
:10AD8000FDF7A2FF41EC100B25A053EC102B10F0A7
:10AD900097FD9DED000A002485ED230A09494FF433
:10ADA000FE72203123A010F06BFF20463EBD012033
:10ADB0003EBD00003D2533732C2566000000A040F9
:10ADC000424953002C120020677972206261697336
:10ADD000207468723A25660D0A000000415247004F
:10ADE000A80200204143435F52473A2564470D0AB9
:10ADF00000000000475247004759525F52473A252A
:10AE0000646470730D0A0000434F460074656D70F2
:10AE100020636F66203A25660D0A00004C4D4600FF
:10AE2000677972206C6D66207468723A25660D0A27
:10AE30000000000072656773000000007CB50C46DE
:10AE40000868A8A1FDF76FFAA74D28B1A7A120684F
:10AE5000FDF769FA002825D1A5A10420CDE900015C
:10AE6000002301226E21A5A010F02AFDAAA010F057
:10AE700027FDB248AA6EB2A150F82230B2A010F05D
:10AE80001FFDB5A1B5A02A6B10F01AFDD5E90A2364
:10AE9000B5A1B7A010F014FDA86CB8A1020CB9A020
:10AEA00010F00EFDBAA12068FDF73DFA002822D16E
:10AEB000B5F8EE22B8A1B3A010F002FDB8A1BBA076
:10AEC000D5F8E42210F0FCFC95F880009B4900F0D6
:10AED0000F000C390A5CB9A1BAA010F0F1FCD5F84A
:10AEE00080001E2101EAD000944908390A5AB8A10D
:10AEF000B9A010F0E5FCBCA12068FDF714FA70B908
:10AF00000EF05EFF6421B0FBF1F2B9A1BAA010F01F
:10AF1000D7FCBCA191A0D5F8E02210F0D1FCBBA1D8
:10AF20002068FDF700FA002836D1BA49BAA005F02A
:10AF3000AFFEB84903222C31B9A005F0F7FE032279
:10AF4000BA49BBA005F0F2FEB249BCA0383105F009
:10AF50009FFEB04903226431B1A005F0E7FEB3497A
:10AF600003220C39B7A005F0E1FEAA49B8A0703160
:10AF700005F08EFEA74903229C31A9A005F0D6FE5C
:10AF8000D5F88800FDF7A0FE41EC100BB2A153EC00
:10AF9000102BB3A010F094FCB4A12068FDF7C3F906
:10AFA000002841D16CA1B3A02A6B10F089FC64A1E8
:10AFB000B0A0AA6E10F084FC95F8D020B0A1ADA08E
:10AFC00010F07EFCB0A1ABA06A6C10F079FCB0A1CF
:10AFD000B2A0AA6D10F074FCB3A1B5A06A6D10F018
:10AFE0006FFCD5F88400FDF76FFE41EC100BB3A1A8
:10AFF00053EC102BB3A010F063FCD5F88C00FDF7D8
:10B0000063FE41EC100BB3A153EC102BADA010F07C
:10B0100057FCB5F8F022B2A196A010F051FC7D4982
:10B02000B2A02C3905F034FEB2A12068FDF77BF9FF
:10B0300098B915F8D02F92A18EA010F041FC288865
:10B04000ADA1C0F307228BA010F03AFC55F8D0094F
:10B05000ADA1020C87A010F033FCADA12068FDF774
:10B0600062F940B908F016FE08F0DEFD6422AAA1DC
:10B0700044A010F025FCAAA12068FDF754F900288F
:10B080002DD135F8A40FA8A1C0F3072279A010F0A4
:10B0900017FC6868FDF718FE41EC100BA4A153ECF7
:10B0A000102BA5A010F00CFC2A78A6A1A8A010F0E7
:10B0B00007FCA868FDF708FE41EC100BA7A153ECB4
:10B0C000102B9DA010F0FCFBE868FDF7FDFD41ECA6
:10B0D000100BA4A153EC102B97A010F0F1FB002053
:10B0E0007CBD0000000000002C1200203D4C000040
:10B0F0004465632031372032303230000D0A484930
:10B1000025642025642E25642E2564206275696CD3
:10B11000642025730D0A000032303130202D20329A
:10B1200030323020436F70797269676874206279B9
:10B13000204869504E55430D0A000000B40200201B
:10B140004D4F44453A000000252D313673256428C3
:10B150002573290D0A00000049443A00252D313697
:10B1600073307825580D0A00555549443A000000BF
:10B17000252D313673255825580D0A004F44523A73
:10B1800000000000252D3136732564487A0D0A0031
:10B190003D53454E534F52006779722066727100DD
:10B1A00073656E736F72207374730000252D3136D2
:10B1B000733078253038580D0A0000004143435F52
:10B1C00052473A00252D3136732564470D0A000099
:10B1D0004759525F52473A00252D31367325646432
:10B1E00070730D0A000000003D4350550000000040
:10B1F00074696D6500000000252D313673256420CB
:10B20000730D0A0070726F6420736E003D43414CF1
:10B21000000000009C1300204143430D0A00000081
:10B220006E6F68656164657200000000E8140020BC
:10B230005243204143430D0A000000004759520D7C
:10B240000A0000005243204759520D0A0000000036
:10B250004D41470D0A00000067797220636F660058
:10B26000252D313673252E34660D0A003D55535277
:10B2700000000000252D31367325640D0A00000002
:10B28000475749443A000000424155443A00000003
:10B2900043414E5F424155443A000000252D31366E
:10B2A0007325644B0D0A000043414E5F49443A0048
:10B2B000252D31367325580D0A00000047425F5492
:10B2C00048523A00252D31367325302E34660D0A4A
:10B2D000000000004C4D465F5448523A0000000008
:10B2E000494D555F434F4F52443A00005552465224
:10B2F0000D0A00003D5246004D41585F4E4F4445F7
:10B300005F53495A453A00004652513A0000000046
:10B310003D535953000000006F73207469636B0044
:10B320003D4853490000000076616C69643A0000B2
:10B330006669746572723A00252D31367325660D83
:10B340000A00000062696E5F7374617475733A007D
:10B35000252D313673256425250D0A00666C757818
:10B360003A000000696E636C696E6174696F6E3AD1
:10B370000000000010B5086800221146401CFDF7CF
:10B38000D1FA0446014607A010F09AFA08484FF493
:10B39000FE7200F12001846606A010F071FC00200E
:10B3A00010BD00004D4F44453D25640D0A000000CE
:10B3B0002C120020726567730000000010B500F0C9
:10B3C00001F810BD06488168090607D5816841F477
:10B3D000000181600349002000F02CBD704700008F
:10B3E00000100240000E270700F01F0201219140CB
:10B3F0004009800000F1E020C0F80011704700F023
:10B400001F02012191404009800000F1E020C0F8B6
:10B410000011704710B5086800221146401CFDF766
:10B4200081FAB0F57A7F11D8094A916CB0EB114FCF
:10B430000AD089B241EA0040906405494FF4FE7297
:10B44000203104A010F01CFC002010BD012010BD14
:10B450002C120020726567730000000010B50FF019
:10B460005FFB002010BD000038B50446B0F9AC0009
:10B47000A834FEF7F9FBA08054F8A809008850B161
:10B480006421484300230090044A1946204600F0F6
:10B490001FFCA4F8AC00002038BD0000A9B60008CD
:10B4A00010B5044609F052F9204609F013F90020BE
:10B4B00010BDD0F88C11097861B900210A4605E069
:10B4C000D0F8903143F82120491CC9B290F8893155
:10B4D0008B42F5D80020704730B401EBC10284687C
:10B4E00002254FF0FF3305EB4205635300238468C8
:10B4F000062505EB4202A35230BCC9B20EF0EEBFE6
:10B5000030B401EBC102846804254FF0FF3305EB32
:10B51000420563538368C9B213F8124024F0010452
:10B5200003F8124030BC0EF0D9BF00002DE9F843FB
:10B53000064640694FF4C0550489B0690789CCB10B
:10B54000DFF83C80BC4215D8D6F868316A462946F7
:10B5500030469847009941B90268C2F82C800268C9
:10B56000C2F83C800068C0F85C806D1C641CADB201
:10B57000A4B2E7E73046BDE8F843002103F0D8BFA6
:10B58000F9C000082DE9F047044640690027058905
:10B59000A069B0F8089035BBBDE8F087A16807EB5B
:10B5A000C706022000EB460831F90800FEF75CFBF5
:10B5B000A26822F80800A168042000EB460831F9CF
:10B5C0000800FEF751FBA2687F1CFFB222F80800BA
:10B5D000A1680020062201F81600A16802EB4602CD
:10B5E0006D1C8852ADB24D45D8D9D5E770B504462B
:10B5F00000202B4B9FED2B0A0BE06288616800FB5B
:10B60000020201EB82010A689A4201DA81ED000A26
:10B61000401C21888142F0DC00253DE061886068A3
:10B6200005FB015100EB810090ED000A10EE100ABD
:10B63000B0F1804F2FDDB0EE001AC1EE000A10EE1F
:10B64000900AFDF741FB41EC100B02F0D5FD51ECE7
:10B65000100BFDF77DFB00EE100A002018E0628859
:10B66000616805FB020201EB8201D1ED000A60EE88
:10B67000800AC1ED000A6288616800FB025201EB9A
:10B680008201401CD1ED000A60EE800AC1ED000A83
:10B6900021888142E3DC6D1C2088A842BEDC70BD9D
:10B6A0006F12833A6F12833A3EB50446D0F8A80071
:10B6B0000088A8B120686946007800F5E060ADF820
:10B6C000000001208DF8030000208DF8020094F89E
:10B6D0007C008DF80400D4F8640104F097FE3EBDB0
:10B6E00034F9AC0FFEF7C0FA20803EBD10B5044A15
:10B6F00004460146107800F0D9FE204610BD000037
:10B70000400000207047000010B504A010F0D8F8E9
:10B7100072B60CF09BF9002010BD00004F4B0D0AD3
:10B720000000000010B59FED040A0321034810F04B
:10B7300074FA002010BD000000000000C4140020B6
:10B74000F8B51446D0F868511E466A46A8470099D5
:10B7500039B90179A14204D900680C2101EB041127
:10B7600046500098F8BD00003EB5086802AB6A4636
:10B770001BA1FCF7F5FD1C4C022819D11BA1684642
:10B78000FCF7D1FD012538B90299D4F8E80205FA91
:10B7900001F10843C4F8E80215A16846FCF7C3FDAF
:10B7A00030B90299D4F8E8028D40A843C4F8E80201
:10B7B00094F8E80204F53A7400F001010DA010F0CD
:10B7C0007FF82078C0F340010DA010F079F82078C0
:10B7D000C0F380010DA010F073F800203EBD000002
:10B7E0003D2533732C2564002C1200205345540052
:10B7F000434C520054454D503A25640D0A00000058
:10B80000424941533A25640D0A000000475241560F
:10B810003A25640D0A00000070B504460068A2686D
:10B82000012190472069A8B10EF0CAFA05460CE044
:10B830000EF0C6FA411BE069814202D96FF00100A7
:10B8400070BD401C40080EF00BF921692068884744
:10B850000028EDD0204607F002F8002070BD00005F
:10B860002DE9FC41054640690E464088002833D04A
:10B87000C6EBC60101EB410105EB8104A96994F80F
:10B88000282049881044884226D86968134F51F807
:10B890003000806B90F800804FF0FF30A4F8740007
:10B8A000852084F82A0094F83200CDE90007238E21
:10B8B00094F8291028460EF0E3FEE762A26F2AB141
:10B8C000414628469047E06AB84205D1F1B2284681
:10B8D000BDE8FC410BF02EB9BDE8FC810000040579
:10B8E0001FB5C1EBC10101EB410100EB8104616BAC
:10B8F00009B9A16B61630391012103AACDE900217C
:10B90000029104F13C0394F83220218E03F008FFE9
:10B9100004B010BD70B5C1EBC10101EB410100EBFA
:10B9200081018C6BA018202801D9FF2070BD002058
:10B9300006E026181D5C0E44401C86F83C50C0B240
:10B940009042F6D3886B10448863002070BD0000DD
:10B950002DE9F047086886B03D21FCF7D3FC0500CF
:10B960002FA0DFF8CCA00FC88DE80F00E9464FF0FC
:10B97000010813D068780D2810D00A280ED068B1BD
:10B9800000273E462BA00FF09BFF04AA2EA1681CA7
:10B99000FCF7E6FCC0B2012814D024E026A00FF08A
:10B9A0008FFF00244E464546574605FA04F1B86C11
:10B9B000084203D0315D25A00FF082FF641C102CDB
:10B9C000F3DB29E000249DF8100019F804108142EF
:10B9D00005D108FA04F006431CA00FF071FF641CA7
:10B9E000102CF0D37F1C2C21681CFCF78BFC05006D
:10B9F00001D0102FC9DBDAF8480082B2B2420BD076
:10BA00006FF30F0030430A49CAF848004FF4FE7242
:10BA1000203111A010F034F906B00020BDE8F08705
:10BA20009190A0B0C0D0D1F06263000000D960B1A5
:10BA30002C1200206E6577207061636B657420693D
:10BA400074656D733A0D0A00255800005B30782547
:10BA50003032585D0D0A0000726567730000000007
:10BA60002DE9F0431C4E0546894656F8250085B061
:10BA70009846818841F003018180002401278DF8D8
:10BA800000208DF80170ADF80440ADF80240049438
:10BA90008DF80C7056F825008DF806400C30029099
:10BAA00069464846FEF794F88DF800808DF801400D
:10BAB000ADF80440ADF8024004948DF80C7056F8CF
:10BAC00025008DF806400C30029069464846FEF786
:10BAD0007FF805B0BDE8F08328C0010870B50446C2
:10BAE0001C48012C02D0022C19D10CE0C26842F48F
:10BAF0008052C260C26822F48052C260826942F4FD
:10BB0000805282610BE0026942F480420261026964
:10BB100022F480420261C26942F48042C2610E4D49
:10BB2000002055F82420108055F82420072010828A
:10BB3000204600F013F855F82400018841F45171B3
:10BB4000018055F82400818821F0040181800020C3
:10BB500070BD00000010024028C001082DE9F04728
:10BB600086B00D460646142225496846FCF7A6FB1A
:10BB7000DFF88C904FF00008A9F10C092F4659F816
:10BB80002600018821F0400101804446EA46012058
:10BB9000FEF7A6FF3AF81410B0FBF1F0854206D389
:10BBA000291AB94203D2471B00D50F46A046641C90
:10BBB0000A2CECD359F826100A8822F038020A80A1
:10BBC00059F826100B8808F0070243EAC2020A80DF
:10BBD00059F826108A8822F480728A8059F8261033
:10BBE0008B8808F0080243EA42128A8059F826003E
:10BBF000018841F04001018006B0BDE8F0870000F7
:10BC000034C0010830B50F4D55F820301C8824F0A1
:10BC100040041C8055F82040238811B143F00101F5
:10BC200001E023F0010112B141F0020101E021F035
:10BC30000201218055F82000018841F04001018077
:10BC400030BD000028C001082DE9F05F1F4D0446FB
:10BC50008B4655F82400DDE90B760188DDF8288055
:10BC60009A46914621F04001018000224146584603
:10BC7000FDF71AFF002239465846FDF715FF4A46E0
:10BC800041465846FDF782FF524639465846FDF771
:10BC90007DFF324641465846FDF76AFF3246394637
:10BCA0005846FDF765FF012241465846FDF7FCFE68
:10BCB000012239465846FDF7F7FE55F82400018861
:10BCC00041F040010180BDE8F09F000028C001085C
:10BCD0002DE9F05F8B46204982460025B1F900002E
:10BCE000984616461B4C401C05E00EB1227852B116
:10BCF0006D1C2DB21834854201DC102DF5DB4FF0A0
:10BD0000FF30BDE8F09F8946854201D1A9F80000C7
:10BD100006F094FA07464FF6FF714046884500D377
:10BD20000846D9F80410B94207D9C91B814204D981
:10BD30003918C9F804100EF025FE08EB0700C4E915
:10BD400003B0C4E901A60A9860610120207028466A
:10BD5000D7E70000242200204C030020014A516054
:10BD6000106070472C00002010B51049032808D13E
:10BD7000086B40F000700863486D40F4007048653F
:10BD800000204A6822F0030202434A604A6802F037
:10BD900003028242FAD1064C30B1012803D10320BC
:10BDA000FEF79EFE206010BD0420F9E7001002405F
:10BDB0000000002030B51D4CA56945F00105A561C6
:10BDC00006280CD2DFE800F003071E220B26A56927
:10BDD00045F0040502E0A56945F00805A561144D8C
:10BDE0000F2443EA820255F82000082916D343683D
:10BDF0008D00203DAC4089002039A3438A401A437E
:10BE0000426030BDA56945F01005E7E7A56945F03A
:10BE10002005E3E7A56945F08005DFE703688900B1
:10BE20008C40A3438A401A43026030BD0010024098
:10BE300008C0010870B506460D460020FFF794FFC4
:10BE4000204C606843F6F07188436060606840F49D
:10BE500010506060206820F08070206060681A498F
:10BE60000840606060684FF4003141EA06410843D1
:10BE7000606026B3FDF7ACFF00281FD10320FEF75A
:10BE80002FFE4008B5FBF0F06168104A52F8200020
:10BE9000014361600E48854203D3606840F0004072
:10BEA0006060206840F08070206020688001FCD5D0
:10BEB0000220FFF759FF07480560002070BD0420ED
:10BEC000DDE7000000100240FFFFC01FD0BE0108E8
:10BED00000A24A04000000200EF0EEBB10B50CF0EA
:10BEE000F9F90DF073FFBDE810400CF007BA00003F
:10BEF00000B54FF0E020042101616FF07F41416106
:10BF00000220FEF7EDFD064A0449B0FBF2F04FF4C3
:10BF10007A7208605043486000BD0000180000209D
:10BF200040420F000248016841F47001016070470F
:10BF300088ED00E0024951F82000406A7047000097
:10BF400050C0010870B5044636481546062C29D263
:10BF5000DFE804F02803101C4E5AC16841F4006168
:10BF6000C160C16821F40061C160816941F4006170
:10BF7000816117E0016941F001010161016921F06E
:10BF800001010161C16941F001010AE0016941F06B
:10BF900002010161016921F002010161C16941F001
:10BFA0000201C161204E4FF4806056F824100880D1
:10BFB0000120FEF795FD41001C48022C30D0052CD5
:10BFC0002ED01B4A0260B1FBF2F056F82410401E3E
:10BFD000088556F82400C56256F8241000204862EF
:10BFE00056F8241008822046BDE8704000F04AB898
:10BFF000016941F004010161016921F0040101615D
:10C00000C16941F00401CCE7016941F00801016117
:10C01000016921F008010161C16941F00801C0E72F
:10C02000044ACFE70010024050C001083C00002045
:10C03000A086010040420F000D4A10B512560123A0
:10C0400002F01F04A3405209920002F1E022C2F85C
:10C050000031074A0832002952F82000818902D0B5
:10C0600041F0010101E021F00101818110BD0000DA
:10C0700048C00108024A52F82000C162704700001F
:10C0800050C00108034951F82000018841F0010126
:10C090000180704750C0010838B54FF08040018AD8
:10C0A00021F0010101820EF023FB0D4C10200090C5
:10C0B00004226946A0680CF014FD20684FF4C87192
:10C0C000401CB0FBF1F201FB12002060002806D1F9
:10C0D0000820009004226946A0680CF002FD38BDDB
:10C0E000E80200200348018821F00101018000F0EE
:10C0F000FDB80000100400402DE9F041044690F81E
:10C10000820048B3022A03D0032A01D0052A23D192
:10C110006269A088127A00EBC200081AC0F3C70552
:10C12000A16805EBC506022000EB4607C85FFDF7D6
:10C130009BFDA168C853A168042000EB4607C85FB7
:10C14000FDF792FDA168C853A168002001F8160010
:10C1500029462046FFF7C0F90020BDE8F08110B560
:10C1600004F020FD072010BD41F20363C81A994274
:10C1700070D034DCB1F5905F74D017DC41F2050368
:10C18000A1EB0300994263D009DCB1F5805F59D07F
:10C190006FF48050081857D001284FD156E011286D
:10C1A0005AD012285AD0132848D159E041F20343FB
:10C1B000C81A99425ED009DCB1F5A05F54D06FF483
:10C1C000A050081852D0012838D151E0A0F5807055
:10C1D000FD3851D0012851D002282FD150E0B0F5C0
:10C1E000806F5FD015DCB0F5007F53D008DCA0F580
:10C1F0008070FD3848D0012848D002281ED147E081
:10C20000A0F54070FD3847D0012847D0022815D14D
:10C2100046E0B0F5206F4DD008DCA0F51060FD3889
:10C2200042D0012842D0022808D141E0A0F5206088
:10C23000013841D0FC2841D0FD2841D0244810606D
:10C240000020704700203CE001203AE0022038E066
:10C25000032036E016E005E0042032E0052030E05F
:10C2600006202EE007202CE008202AE0092028E004
:10C270000A2026E00B2024E00C2022E00D2020E004
:10C280000E201EE00F201CE010201AE0112018E004
:10C29000122016E0132014E0142012E0152010E004
:10C2A00016200EE017200CE018200AE0192008E004
:10C2B0001A2006E01B2004E01C2002E01D2000E004
:10C2C0001E2000211160034901EBC00070470000EF
:10C2D00000000206ECC201089F2803D1087808B1CB
:10C2E0000148704700207047300009062DE9F041F1
:10C2F0004FF6FF7405F0A2FF204D064620496868FE
:10C300008319002215E00878C0070FD00869984209
:10C310001DD84869C0B1B6FBF0F700FB1767C01B1A
:10C32000032708610F70A04200D20446521C12B2CB
:10C330001831B5F900008242E5DD20466C600EF050
:10C3400021FB00260E4C13E002200870EEE7C01A15
:10C350000861E8E72078810707D520F00200207007
:10C36000A26812B1E16860689047761C36B2183452
:10C37000B5F900008642EDDDBDE8F0814C030020F8
:10C380002422002004200FF071B905200FF06EB9AF
:10C390000C4B10B553F82020948924F40054948158
:10C3A000002953F820108A8A02D042F0400201E0AE
:10C3B00022F040028A8253F82000818941F4005122
:10C3C000818110BD6CC001080C4B10B553F82020C2
:10C3D000948924F400549481002953F820108A8A07
:10C3E00002D042F0800201E022F080028A8253F8FB
:10C3F0002000818941F40051818110BD6CC0010889
:10C40000054A52F820000288920603D580880870F9
:10C4100000207047012070476CC0010870B504000F
:10C420001ED01C48012C02D0022C19D10CE0C2688D
:10C4300042F48042C260C26822F48042C2608269D3
:10C4400042F4804282610BE0026942F400320261F0
:10C45000026922F400320261C26942F40032C26110
:10C46000204600F02FF80C4842F20C0150F824202E
:10C47000918150F8240001880180084D287838B156
:10C480000748084904700848FFF768FC0020287036
:10C49000002070BD001002406CC001083400002074
:10C4A00040000020ADAB0008EDB60008044A52F889
:10C4B0002030998052F8200001884906FCD5704749
:10C4C0006CC001082DE9F04104460D460120FEF73D
:10C4D00007FB1E4E56F824209189090400EBC00189
:10C4E00001EB001001D5690000E0A900B0FBF1F1FB
:10C4F0006425B1FBF5F0030118096FF018077843C4
:10C5000001EB800091890F044FF0320106D501EB59
:10C51000C000B0FBF5F000F0070005E001EB0010F3
:10C52000B0FBF5F000F00F009189184393894DF6A8
:10C53000F3752B40938156F82420108156F824007F
:10C5400082890A438281BDE8F08100006CC0010845
:10C5500030B5214B01241B5603F01F05AC405B098D
:10C560009B0003F1E023C3F800411B4B1B1D53F854
:10C570002040A58925F40055A58179B1012902D073
:10C58000022921D115E053F82010002A8A8902D00F
:10C5900042F0200217E022F0200214E053F82010AD
:10C5A000002A8A8902D042F040020CE022F04002C8
:10C5B00009E053F82010002A8A8902D042F01002C4
:10C5C00001E022F010028A8153F82000818941F4B1
:10C5D00000518181002030BD68C00108F0B50C46D3
:10C5E000086887B039A10DF0F5F83A4D4FF4FE77A1
:10C5F00005F1200605F5A275C0B13748011FCDE948
:10C6000005100A1F131FCDE903321038011F0A1F3E
:10C610000092CDE90110131F083A30A12068FBF702
:10C620009FFE092806D0012007B0F0BD284605F07E
:10C630004FFC3FE0274C0022114694ED530A284658
:10C6400007F0C1FC94ED540A01220021284607F0AE
:10C65000BAFC94ED550A02220021284607F0B3FCEB
:10C6600094ED560A00220121284607F0ACFC012275
:10C6700094ED570A1146284607F0A5FC94ED580A98
:10C6800002220121284607F09EFC94ED590A00225F
:10C690000221284607F097FC94ED5A0A0122022154
:10C6A000284607F090FC022294ED5B0A11462846CA
:10C6B00007F089FC294610A004F0EAFA3A46314610
:10C6C0000FA00FF0DDFA0020AEE700003D52455309
:10C6D000455400002C120020981300203D25662CA4
:10C6E00025662C25662C25662C25662C25662C2592
:10C6F000662C25662C2566006D61746C61620000F5
:10C70000726567730000000001200EF0AFBF0220C9
:10C710000EF0ACBF03200EF0A9BF00000A4801686C
:10C72000C90701D0012101600168C90502D54FF494
:10C73000807101600168C90302D54FF48031016046
:10C74000024880680CF0CEBC08640040540300200E
:10C750000A4945F255520A6004224A6040F27122A9
:10C7600050434FF47A72B0FBF2F088604AF6AA2088
:10C7700008604CF6CC400860704700000030004074
:10C7800002494AF6AA2008607047000000300040C5
:10C79000704700000FB4054B10B503A9044A029876
:10C7A00002F09CF910BC5DF814FB00006D2101083B
:10C7B000380000207CB5044600201D46164600299E
:10C7C0000BD0491ECDE90041044B6A46294630464C
:10C7D00002F084F9009A002111707CBD0DF8000868
:10C7E00003B401984100009850EAC12018BF04200A
:10C7F0004A0D18BF40F0010040F2FF72B2EB515FEA
:10C8000008BF40F00200012808BF052002B07047B1
:10C810004100080218BF04200A0E18BF40F00100B2
:10C820004FF07F4232EA010108BF40F002000128C8
:10C8300008BF0520704700000048704728120020FC
:10C8400010B510EE104A4FF01A402DED028B00EBA0
:10C850004400B0F1C85F4AD84FF0FC40B0EB440F41
:10C8600022D2B0EEC00AF7EE000A30EEC00AF6EEB1
:10C87000000A20EE208A18EE100A0EF031F900EEC0
:10C88000100A14F0004F1DBF9FED281ADFED280A93
:10C89000B1EE400A9FED271A08BFF0EE410AF8EE0C
:10C8A000001A20EE210A05E020EE008A9FED221AF0
:10C8B000DFED220ADFED221A9FED222A70EEC00A78
:10C8C00020EE080A08EE212ADFED1F1A48EE021AB0
:10C8D0009FED1E2A08EE212ADFED1D1A48EE021AEE
:10C8E000BDEC028B40EE610A30EE810A10BD4FF0C4
:10C8F000CC40B0EB440F82BF9FED160ABDEC028B1B
:10C9000010BD4FF07F40B0EB440F05D2BDEC028B61
:10C91000BDE8104001F088BD012001F075FEBDECBE
:10C92000028BBDE8104001F083BD000000004940CB
:10C9300022AA7D3A000000000000C93F22AAFD396A
:10C9400024FE1C3DC78AD83C1E67383D1B93993D89
:10C95000AFAA2A3EDB0FC93F70B5C1482DED020BCF
:10C960002DED0E8B82B0119D25F000449FEDBEDBB6
:10C970009FEDBFEB84423EDBA4F140511098A1F142
:10C980007F6108430FD0BC48844202DC28D1109854
:10C9900030B39DED100B02B0BDEC0E8B02B0BDE8C4
:10C9A000704001F0FDBC9DED100B53EC1D2B51ECC4
:10C9B000100BFCF797F89DED100B41EC180B53ECA6
:10C9C0001E2B51EC100BFCF78DF853EC182BFBF7DA
:10C9D000E2FF41EC100B02B0BDEC0E8B02B070BD5B
:10C9E000012001F011FE02B0BDEC0E8B02B0BDE8DB
:10C9F000704001F0E9BCA1489FEDA18B844256DA5A
:10CA00009DED100BB4F1795F0ADA51EC100BFFF7D2
:10CA1000E7FE042808BF01F0F7FC9DED100BDAE7F4
:10CA200053EC102B51EC100BFCF75CF841EC190B9C
:10CA300095480621B0EE490AF0EE690A784401F003
:10CA400018FC53EC192B51EC100BFCF74BF841EC94
:10CA50001A0B8E48B0EE490AF0EE690A04217844B8
:10CA600001F007FC53EC192B51EC100BFCF73AF8D2
:10CA700053EC182BFBF78FFF41EC100B51EC1A0B0A
:10CA800053EC102BFCF7A0F8CDE900019DED000B55
:10CA900053EC102B9DED100B51EC100BFCF722F812
:10CAA0009DED101B53EC112BFBF775FFD2E09DEDB4
:10CAB000100B51EC100B05F01FFA53EC182BFCF780
:10CAC0000EF89FED730BCDE9000153EC102B9DED9B
:10CAD000000B51EC100BFCF705F841EC190B6E48FC
:10CAE0000621B0EE490AF0EE690A784401F0C1FB74
:10CAF00053EC192B51EC100BFBF7F4FF41EC1B0B23
:10CB00006648B0EE490AF0EE690A0421784401F063
:10CB1000B0FB53EC192B51EC100BFBF7E3FF53EC7C
:10CB2000182BFBF738FF41EC1C0B51EC190B0DF0E7
:10CB3000A0FF41EC180B5A489FED5BABA04222DCF2
:10CB400053EC1C2B51EC1B0BFCF73EF8CDE900011C
:10CB50009DED000B51EC180B53EC102BFBF7C2FFB3
:10CB600053EC182BFBF717FF53EC1A2BFBF7BAFF0C
:10CB700053EC1D2BFBF7B0FF53EC1E2BFBF7AFFF65
:10CB800041EC100B5FE08DED008B002000909DEDDF
:10CB9000000B51EC180B53EC102BFBF7FCFE9DED3A
:10CBA000000B41EC1E0B53EC102B51EC100BFBF760
:10CBB00099FF53EC192BFBF792FF53EC1E2BFCF75C
:10CBC00003F841EC190B53EC1C2B51EC1B0BFBF73E
:10CBD000FBFF41EC1B0B53EC1A2B51EC190BFBF731
:10CBE00081FF53EC1D2BFBF77AFF41EC190B53EC43
:10CBF0001A2B51EC180BFBF775FF53EC1B2BFBF7B3
:10CC000071FF53EC192BFBF767FF9DED000B41EC17
:10CC1000180B53EC1A2B51EC100BFBF763FF9FED35
:10CC2000249B53EC192BFBF75AFF41EC100B51ECF2
:10CC3000180B53EC102BFBF74FFF53EC192BFBF7A2
:10CC40004EFF41EC100B002D3FF7C5AE51EC100B21
:10CC500081F0004141EC100BBDE600000000000037
:10CC60000000F03F00000000075C143326A6913C52
:10CC7000182D4454FB21F93F0000F07F0000E03FF5
:10CC8000000000000000F03FC0FB0000CEFB0000F1
:10CC9000000000000000E03F12FB000020FB00004D
:10CCA0003333EF3F000000000000000000000040B0
:10CCB000182D4454FB21E93F10B54FF00E402DEDE7
:10CCC000028BB0EE408A18EE104A00EB4400B0F13F
:10CCD000506F4AD84FF0FC40B0EB440F22D2B0EE78
:10CCE000C80AF7EE000A30EEC00AF6EE000A60EE5F
:10CCF000208A18EE900A0DF0F3FE01EE100A14F0EF
:10CD0000004F1DBFDFED2D0A9FED2D0AB1EE411A38
:10CD1000DFED2C0A08BF9FED2C0AF8EE001A21EE79
:10CD2000218A05E0DFED290A68EE088AB0EE600A84
:10CD30009FED271ADFED271A30EE080A48EE811A18
:10CD40009FED251A08EEA11ADFED241A48EE811A8C
:10CD50009FED231A08EEA11A68EE281ABDEC028B8B
:10CD600001EE810A30EE200A10BD4FF0E440B0EB36
:10CD7000440F0CD918EE100AFFF74AFD042808BF2B
:10CD800001F05EFBB0EE480ABDEC028B10BD4FF027
:10CD90007F40B0EB440F07D2B0EE480ABDEC028BE7
:10CDA000BDE8104001F040BB012001F02DFCBDECBE
:10CDB000028BBDE8104001F03BBB00000000C9BF82
:10CDC00022AAFDB90000C93F22AAFD3900000000D7
:10CDD00024FE1C3DC78AD83C1E67383D1B93993DF5
:10CDE000AFAA2A3E0000000070B59B482DED020B53
:10CDF0002DED068B079D25F00044A04218DC9748D6
:10CE0000844202DC0AD1069840B19DED060BBDECD0
:10CE1000068B02B0BDE8704001F0C2BA002DCCBF55
:10CE20009FED8F0B9FED900BBDEC068B02B070BD9C
:10CE30008F48A04215DD8F48A042D8BF4FF0FF3485
:10CE400058DD9DED060B51EC100BFFF7C9FC0428D3
:10CE500008BF01F0D9FA9DED060BBDEC068B02B0C0
:10CE600070BD9DED060B51EC100B05F045F8CDE9BA
:10CE7000060181489FED828BA0423CDD8248A042A2
:10CE80001FDD00249FED82AB9DED060B53EC1A2BAA
:10CE900051EC100BFBF77FFD9DED060B41EC190BE0
:10CEA00053EC1A2B51EC100BFBF71CFE53EC182B18
:10CEB000FBF712FE53EC192BFBF786FECDE90601BA
:10CEC00049E09DED060B012453EC182B51EC100B9F
:10CED000FBF761FD9DED060B41EC190B53EC182B94
:10CEE00051EC100BFBF7F8FD53EC192BFBF76CFE24
:10CEF000CDE906012FE06848A0421FDD02249FED26
:10CF0000689B9DED060B53EC192B51EC100BFBF7B6
:10CF1000E9FD53EC182BFBF73EFD9DED060B41ECB4
:10CF2000180B53EC192B51EC100BFBF7D5FD53EC00
:10CF3000182BFBF749FECDE906010CE09DED060B31
:10CF4000032453EC102B9FED580B51EC100BFBF707
:10CF50003BFECDE906019DED060B53EC102B51EC89
:10CF6000100BFBF7BFFD41EC180B53EC182BFBF734
:10CF7000B9FD41EC190B4E480621B0EE490AF0EE1E
:10CF8000690A784401F075F953EC182B51EC100B39
:10CF9000FBF7A8FD41EC180B4648B0EE490AF0EE4D
:10CFA000690A0521784401F064F953EC192B51EC1E
:10CFB000100BFBF797FD41EC100B51EC180B53ECE9
:10CFC000102B002C0EDAFBF7E6FC9DED061B53EC54
:10CFD000112BFBF787FD9DED061B53EC112BFBF787
:10CFE0007EFD35E0FBF7D7FC9DED061B53EC112BC6
:10CFF000FBF778FD41EC100B2F48784400EBC400A0
:10D0000090ED001B51EC100B53EC112BFBF764FD62
:10D010009DED061B53EC112BFBF75EFD41EC100B55
:10D020002648784400EBC40090ED001B51EC100B37
:10D0300053EC112BFBF753FD41EC100B002DA2BF5D
:10D04000BDEC068B02B070BD51EC100B81F00041BD
:10D0500041EC100B01E70000000010440000F07FDD
:10D06000182D4454FB21F93F182D4454FB21F9BFDE
:10D070000000DC3F0000203E0000F33F0000000005
:10D08000000000000000F03F0000E63F000000004C
:10D09000000000000000004000800340000000008D
:10D0A000000000000000F83F000000000000F0BF9A
:10D0B00032F70000E8F6000072F600002AF60000E1
:10D0C00070B56B4E2DED040B2DED028B82B0DDF8AB
:10D0D0001CC0DDE905235C422CF000411C4341EA01
:10D0E000D474049D22F00040B44205D86C422C4315
:10D0F00040EAD474B4420BD99DED061B9DED040BA0
:10D1000002B0BDEC028B04B0BDE8704001F052B932
:10D11000ACF14054A4F17F641C430BD0022404EA18
:10D12000AC7444EAD27405439FED538B9FED542BAE
:10D1300007D015E09DED040B51EC100B02F044FDFF
:10D1400042E0002C11BF012C9DED040B02B0BDECA0
:10D15000028B04BF04B070BD022C38D0032C3BD02E
:10D160000B439FED491B9FED4A0B0AD0B14218D1EA
:10D17000B04209D121F0804120F080400791059014
:10D180000FE0002A15DA10E0434B7B44002C08BF67
:10D1900093ED000B0DD0012C10D0022C17D0032CD6
:10D1A0001AD0B0421DD1002A03DAB0EE410AF0EEE7
:10D1B000610A02B0BDEC028B04B070BD93ED000BB0
:10D1C00051EC100B81F0004141EC100BF1E7B0EE97
:10D1D000480AF0EE680AECE7B0EE420AF0EE620AA6
:10D1E000E7E7401A00153C28C8BF8DED000B19DC9D
:10D1F000BCF1000FBEBF10F13C0F9FED290B8DED70
:10D20000000B0FDB9DED060B53EC102B9DED040B7B
:10D2100051EC100BFBF7D8FC04F06EFE02F0D4FCCE
:10D22000CDE90001002C08BF9DED000BC1D0012C01
:10D2300010D0022C9FED1C0B53EC102B9DED000B1E
:10D2400051EC100B0DD0FBF747FC53EC182BFBF700
:10D2500043FCB9E7019880F0004001909DED000B80
:10D26000A7E7FBF739FC53EC182BFBF738FCABE7CF
:10D270000000F07F00000000182D4454FB210940FD
:10D28000182D4454FB2109C0182D4454FB21F9BF2B
:10D29000182D4454FB21F93FE2F500000000000086
:10D2A0000000000000000000075C143326A6A13C2B
:10D2B00010EE101A08B5444A6846B2EB410F28D95F
:10D2C0004FF0E640B0EB410F94BF00204FF0FF302D
:10D2D00000900098002861DB60EE000A10F0010F5A
:10D2E00045D010F0020FDFED391A9FED391A00EE2C
:10D2F000E11ADFED381A40EE811A21EEA01AF0EEA5
:10D30000400A40EE010A08BFF1EE600AB0EE600A82
:10D3100008BD314B21F0004293423CD911F0004F3F
:10D32000DFED2E0A20EE201ADFED2D0A19BF31EEB7
:10D33000601A71EE200A31EE201A71EE600ABDEE1D
:10D34000E01A11EE100A9FED271A00F0030000EE1C
:10D35000C10A9FED251A009000EEC10A9FED231A25
:10D3600000EEC10A9FED221A00EEC10AB1E79FED5F
:10D37000211A9FED210A10F0020F00EE810A9FEDA5
:10D380001F1A00EE801AB7EE000A00EE810A18BFDD
:10D39000B1EE400A08BD01F05BF89AE710EE100A02
:10D3A0004000B0F17F4F3CBFB7EE000A08BD07D187
:10D3B0004FF0010001F028F9BDE8084001F038B84D
:10D3C000BDE8084001F030B8B61F927E336D4C398D
:10D3D000DA82083CA0AA2ABE490E494683F9223FB8
:10D3E0000000004B0000C93F00A0FD390020A2331F
:10D3F0001A61342CB93AB2BACA9F2A3DDDFFFFBE8A
:10D400002DED020B019820F0004001909DED000BE6
:10D4100002B07047000000002DE9F04D2DED040B27
:10D420002DED0E8B96B0DDE92550279CDDF890A000
:10D4300025F0004624F00048BAF1000F14BF012186
:10D44000002101EB4502FC4953184A1093422AD3AC
:10D45000002814BF0123002303EB44030B44F749C6
:10D460008B4220D358EA00019FEDF59B76D0DFF880
:10D47000D8B35D4503D1BAF1000F05D188E0BAF108
:10D48000000F08BF002100D0012101EB450111F57B
:10D49000001F08D8002814BF0121002101EB44011E
:10D4A00011F5001F0BD99DED261B9DED240B16B029
:10D4B000BDEC0E8B04B0BDE8F04D00F07BBF002743
:10D4C000002DBCBFE149884521DAE1498845A8BF64
:10D4D00002271CDAC3451ADCDE4901EB2851142966
:10D4E00008DDC1F1340220FA02F101FA02F28242AF
:10D4F0000DD108E058B9C1F1140228FA02F101FA7D
:10D5000002F2424503D101F00101C1F1020756EADE
:10D510000A0124D1002C22DA002D18BF022F01D0DD
:10D52000012F0AD0022001F06FF816B0BDEC0E8B6F
:10D5300004B0BDE8F04D00F01BBF022001F064F81C
:10D5400000F016FF51EC100B81F0004141EC100B84
:10D5500016B0BDEC0E8B04B0BDE8F08D18E09FED69
:10D56000BEAB9FEDBF8B002871D1B848804522D15A
:10D5700005F1804010F5801008BFBAF1000F07D008
:10D58000B3450ADC002CA8BF9DED260BE0DA0DE0C8
:10D59000B0EE490AF0EE690ADAE7002C06DA9DEDF2
:10D5A000260B51EC100B81F000416FE0AE4878443F
:10D5B00090ED000BCCE7D8454DD1002C48DA2EB1C8
:10D5C00086423AD1BAF1000F42D126E0BAF1000FFB
:10D5D00013D0022001F018F800F006FF8DED020BC9
:10D5E0009DED240B8DED000B10EE900A039961F375
:10D5F0001E0003909DED020BAAE78DED02AB9DEDA1
:10D60000240B1AEE901A10EE900A8DED000B61F3C8
:10D610001E0003909DED020B9AE78DED028B9DEDB0
:10D62000240B18EE901A10EE900A8DED000B61F3AA
:10D630001E0003909DED020B8AE709DA9DED240B95
:10D6400051EC190B53EC102BFBF7BEFA1EE020E057
:10D650009DED240B7CE786421BDAB4F1804F0DD0A0
:10D66000A4F10050B0F1FF5013D1002D11DB9DED5E
:10D67000240B51EC100B0DF0FCF907E09DED240B91
:10D6800053EC102B51EC100B00F0C2BC41EC100B12
:10D690005EE79DED240B51EC100B04F02DFCBAF16C
:10D6A000000FCDE90E0142D19FED710B46B3A6F1FB
:10D6B000E040B0F17F600CD05E4538D1002D00DA3B
:10D6C000A7B3022F0CBF01204FF0FF30FBF7EBFA9E
:10D6D000DCE7002D01DD002C0DDA002D01DD002C32
:10D6E0001FDB002D16DA002C14DB012F08BF9FED85
:10D6F000620B3FF42DAFB0EE4A0AF0EE6A0A27E75C
:10D70000022F18BF002D0CD0012F0AD1002DFFF6DB
:10D710001FAF06E0002DB8BF002C08DA012F3FF440
:10D7200017AFB0EE480AF0EE680A11E71BE00120DF
:10D7300000EBE57050EA070115D0791EB0EE498A7A
:10D74000F0EE698A084308BF9FED4D8B4E480025D7
:10D75000804570DD4D494E48884514DDB0420DDBF3
:10D76000002C19DB2FE0012000F04EFF16B0BDECBD
:10D770000E8B04B0BDE8F04D00F026BEB34502DCD0
:10D78000002C09DC1FE0864202DA002C1BDA03E0E1
:10D790005E452BDD002C16DD022000F035FF00F089
:10D7A00023FE8DED020B53EC1A2B51EC180BFBF7FB
:10D7B00099F9CDE900010399019861F31E000390E6
:10D7C0009DED020BC4E6022000F01EFF00F01CFEDF
:10D7D00010EE901A18EE900A8DED020B8DED008B75
:10D7E00061F31E0003909DED020BB1E69DED0E0B63
:10D7F00053EC192B51EC100BFBF76EF99FED260B38
:10D80000CDE9080153EC102B9DED080B51EC100BEA
:10D81000FBF768F99FED221B53EC112BFBF75FF927
:10D820009DED081B53EC112BFBF75CF99FED1E1BC4
:10D8300053EC112B3CE08CE0FFFF1F00FFFF0F00BB
:10D84000000000000000F03F0000F03F0000F07F0B
:10D850000000404301FCFFFF000000000000F07FDB
:10D860000000000000000000BEF100000000000009
:10D870000000000000000080000000000000F0FF39
:10D88000000000000000F0BF0000E0410000F04395
:10D89000FFFFEF3F00000000000000000000D03F4D
:10D8A000555555555555D53F000000000000E03F47
:10D8B000FBF715F99DED080B41EC1A0B53EC102BFF
:10D8C00051EC100BFBF70EF953EC1A2BFBF70AF98E
:10D8D00041EC1A0B9FEDFE0B53EC102B9DED080B4A
:10D8E00051EC100BFBF7FEF841EC1B0B9FEDFA0B14
:10D8F00051EC1A0B53EC102BFBF7F4F841EC1A0B1C
:10D900009FEDF70B53EC102B9DED080B51EC100B1A
:10D91000FBF7E8F853EC1A2BFBF7DEF841EC1A0B97
:10D9200051EC1B0B53EC1A2BFBF735F80690CDE9A5
:10D9300006519DED060B53EC1B2B51EC100BFBF726
:10D94000CBF853EC1A2BFBF7CAF841EC100B00F0A4
:10D95000A1B90020B6F5801F0EDA9FEDE30B53EC62
:10D96000102B9DED0E0B51EC100BFBF7BBF8CDE926
:10D970000E016FF034000E4600EB2650A0F2FF3788
:10D98000C6F31300DA4940F07F6646F040568842FD
:10D99000D8BF002408DDD7498142C8BF012403DC79
:10D9A0000024A6F580167F1CD348784400EBC40001
:10D9B0000F9690ED00CB9DED0E0B53EC1C2B51EC14
:10D9C000100BFBF789F89DED0E0B41EC1B0B53EC94
:10D9D0001C2B51EC100BFAF7DEFF41EC100B51EC55
:10D9E000190B53EC102BFBF7EFF841EC1D0B51EC2E
:10D9F0001B0B53EC1D2BFBF775F841EC1A0BBF48C2
:10DA00008DED10AB7844109590ED000B4FF0005069
:10DA100040EA660000EB84408DED080B00F5002025
:10DA200009909DED080B53EC1C2B51EC100BFBF7F0
:10DA300053F89DED0E1B53EC112BFBF750F841EC06
:10DA4000100B53EC102B9DED100B51EC100BFBF752
:10DA500049F89DED080B41EC1C0B53EC102B9DED90
:10DA6000100B51EC100BFBF73DF853EC1B2BFBF7A5
:10DA700036F853EC1C2BFBF72FF853EC1D2BFBF760
:10DA800031F841EC1C0B53EC1A2B51EC1A0BFBF741
:10DA900029F841EC1B0B9A480621B0EE4B0AF0EE38
:10DAA0006B0A784400F0E5FBB0EE401AF0EE601A25
:10DAB000B0EE41DAF0EE61DA53EC1B2B51EC1B0BAC
:10DAC000FBF710F853EC1D2BFBF70CF89DED100B3A
:10DAD00041EC1B0B53EC1A2B51EC100BFAF75BFFCC
