:020000040800F2
:10800000682700207D81000889B600088382000867
:10801000898100088B8100088D8100080000000024
:1080200000000000B6B6FE0F508100088F810008E6
:108030009181000800000000CF81000819C10008EC
:1080400097810008978100089781000897810008B0
:1080500097810008D1B90008599D0008999D000832
:108060009781000897810008A99D00089781000862
:108070009781000897810008A79A0008AD9A000828
:10808000B39A0008B99A00089781000859C90008F6
:10809000978100081996000897810008B99D00088B
:1080A0009781000897810008978100089781000850
:1080B000D5C2000821C300089781000897810008F5
:1080C0009781000897810008978100089781000830
:1080D0009781000845C900084BC9000851C900082C
:1080E000699D000897810008978100089781000822
:1080F0009781000897810008978100089781000800
:1081000097810008978100089781000897810008EF
:10811000C1C50008C7C500089781000897810008FD
:1081200097810008978100089781000897810008CF
:1081300097810008978100089781000897810008BF
:1081400097810008978100089781000897810008AF
:10815000A5A5EDFE00000000000000003C5101005C
:10816000CB0EBF5701000000DFF80CD001F040F843
:1081700000480047E9420108682700200648804778
:1081800006480047FEE7FEE7FEE7FEE7FEE7FEE7FC
:10819000FEE7FEE7FEE7FEE761C10008698100082F
:1081A000EFF3108072B6704780F310887047434A2F
:1081B0001368012B04D04FF001031360404A106094
:1081C000404A116040484FF0805101607047EFF322
:1081D000108272B63948016851B34FF00001016056
:1081E0003748016891B1EFF309811EF0100F08BF05
:1081F00021ED108B21E9F00F4FF000041EF0100F5D
:1082000008BF012441F8044D006801602D49096848
:10821000096808C9B1E8F00F002B18BFB1EC108B4A
:1082200081F309884EF0100E002B18BF2EF0100EAF
:1082300082F310884EF0040E704722490860EFF375
:10824000148222F0040282F314881D494FF00000CA
:1082500008601A494FF0010008601C484FF47F0184
:10826000D0F8002041EA0201016017484FF0805128
:10827000016017480068006880F3088861B662B63C
:1082800070471EF0040F0CBFEFF30880EFF3098076
:1082900020E9F00F40F804ED40F804ED1EF0040F63
:1082A0000CBF80F3088880F3098800B50FF07EFDCD
:1082B0005DF804EB4EF0040E70470000A8020020A9
:1082C000A0020020A402002004ED00E020ED00E068
:1082D00008ED00E040EA01039B0703D009E008C96C
:1082E000121F08C0042AFAD203E011F8013B00F87B
:1082F000013B521EF9D27047D2B201E000F8012BC7
:10830000491EFBD270470022F6E710B513460A4615
:1083100004461946FFF7F0FF204610BDCAB2401EC2
:1083200010F8011F8A4202D00029F9D100207047BD
:10833000421C10F8011B0029FBD1801A704710B5B0
:10834000002200E0521C835C8C5CA34201D1002B14
:10835000F8D1D8B2E1B2401A10BD30B505460020C0
:10836000034600E05B1C934205D2EC5CC85C201A1B
:1083700001D1002CF6D130BD0FB400B58DB010A9DD
:1083800009900B9000914FF0FF300A9000200C9064
:1083900005480690054807906A4609A80F9900F01D
:1083A00071FD0DB05DF814FBA18E0008BF8E0008B2
:1083B0002DE9FF5F1D464FF0FF3BD5E90146914691
:1083C0005F464FF00008A9697F1C01988847296A19
:1083D000824688470028F6D1BAF1FF3F0CD024F43A
:1083E000C064002E19DD600614D5BAF12B0F09D038
:1083F000BAF12D0F0ED103E0584604B0BDE8F09F4E
:1084000044F48064A9697F1C01988847761E8246DF
:10841000002E02DDBAF1300F03D0B9F1000F26D0E3
:1084200032E0A969761E44F400747F1C01988847E5
:108430008246002E05DDBAF1780F06D0BAF1580F4A
:1084400003D0B9F1000F10D01EE0B9F1000F02D037
:10845000B9F1100F18D1A969761E24F400747F1C9D
:10846000019888478246102002E0082000E00A2098
:10847000814609E008FB0908A969761E44F40074E6
:108480007F1C019888478246002E05DD49465046EC
:1084900000F0E3FC0028EDDAE96901988847A005BF
:1084A00002D46FF00100A8E7E00725D1600613D5DC
:1084B000600502D5C8F1000000E0404629680A1DA9
:1084C0002A600968220501D5087015E0220701D548
:1084D000088011E008600FE02868011D296000682D
:1084E000210502D580F8008006E0210702D5A0F81A
:1084F000008001E0C0F8008038467EE72DE9FF5F8C
:10850000D2E901A74FF00008916999461446DDF8B9
:1085100038B0464601988847054659EA0B0005D011
:1085200009E0A169761C019888470546216A28461A
:1085300088470028F5D1681C03D05FEACA7005D0CF
:1085400015E04FF0FF3004B0BDE8F09F2068011D3A
:108550002160D0F800800AE05FEACA7001D108F813
:10856000015BA169761C7F1E019888470546002F94
:108570001ADD681C18D0B9F1000F0DD0E81705EB13
:10858000D060421120F01F0059F822102A1A012051
:1085900090400142E0D107E0BBF1000FDCD1216A3D
:1085A000284688470028D7D0E16901988847BBF161
:1085B000000F07D1002E05DD5FEACA7002D100214D
:1085C00088F80010A068B84203DDBBF1000F03D0AB
:1085D00017B16FF00100B6E73046B4E72DE9FF4F61
:1085E000087883B09946FF2805D0491C2D2804D06F
:1085F0000024002008E000200BE00124F9E700EB54
:10860000800003EB4000491C0B78FF2BF7D104B12D
:10861000404200230293147819461D462D2C01D0A8
:108620002B2C04D1521C2D2C13D000240294AA46CA
:108630001478FF2C0FD00A25A3FB057801FB0581D8
:108640004FF0000C03FB0C11521CE3194AEB010123
:10865000EEE70124EAE7814453EA010002D019F56C
:10866000C87F06DA03980021C0E9001107B0BDE811
:10867000F08F0025AE4E2F46DFF8B882184600F086
:108680007AFDCDE90001B9F1000002DAC9F1000478
:1086900000E004460023A74A1AEB030B42EB045AFE
:1086A00012E0E00707D02A4633463846414600F03C
:1086B00025FA074688462A4633461046194600F0F2
:1086C0001DFA05460E466410002CEAD1DDE90001D2
:1086D000B9F1000F5A46534606DA00F081FA3A46DD
:1086E000434600F07DFA05E000F008FA3A464346BA
:1086F00000F004FA029A0AB181F00041039AC2E93B
:108700000001B3E72DE9FF4F1F468DB0D7E90146C1
:108710004FF0FF382E2045464FF000090B90B96905
:108720006D1C0E988847396A824688470028F6D122
:10873000BAF1FF3F0AD024F4D064002E11DDBAF163
:108740002B0F08D0BAF12D0F0BD102E0404611B02B
:108750008DE744F48064B9696D1C0E9888478246A1
:10876000761E6946600501D52D2000E02B208DF88E
:10877000000001F1010B0DF1200809E0B9696D1C41
:108780000E98884782460F9844F40074761E056060
:10879000002E02DDBAF1300FF0D00B998A453ED1A0
:1087A00044F0800406E00F99681CA9F1010944F423
:1087B00000740860B9696D1C761E0E988847824661
:1087C0003028F0D02BE00B998A4505D1200603D440
:1087D00044F08004761E18E0504606F0C9F808B34D
:1087E0000DF11301761E44F400748B4508D2AAF1F2
:1087F00030000BF8010B200607D5A9F1010003E0BA
:10880000200602D409F101008146A00502D50F9986
:10881000681C0860B9696D1C0E9888478246002E56
:10882000D1DC53E0002E51DDBAF1650F02D0BAF170
:10883000450F4BD1A00549D5B9696D1C24F440748E
:10884000761E0E9888478246002E0CDD2B2804D019
:10885000BAF12D0F07D144F48074B9696D1C0E98DC
:1088600088478246761EE00501D52D2100E02B21A8
:1088700008F8011BCDF82C8021E00DF12901761EAE
:1088800044F4007488450CD2AAF1300010F0FF00C7
:1088900088F8000002D10B99884509D908F1010830
:1088A00006E0E00501D5244801E042F20F70814660
:1088B000B9696D1C0E98884782460F980560002E96
:1088C00004DD504606F054F80028D6D1F9690E9818
:1088D0008847FF208BF8000088F8000000200690F1
:1088E00007904B466A4608A906A8FFF777FEA00541
:1088F00002D46FF001002AE714F0240F0AD0E00739
:1089000014D1DDE906123868031D3B600068C0E938
:1089100000120BE0DDE9060100F00EFA0146E00767
:1089200004D13868021D3A600068016028460EE7ED
:10893000000014400000F03FF1D8FFFF2DE9F05F88
:1089400093460F4680460446002604F093F8D0F87C
:108950000090824614F8015B2DB100F071FA0068B6
:10896000405DC007F6D12B2D02D02D2D1AD0641EEC
:108970000021CAF800105A463946204600F0B0FAE5
:10898000014627B13868A04201D1C7F80080DAF863
:108990000000022809D0CAF80090700505D54842A9
:1089A000BDE8F09F46F48066E2E70846F8E72DE967
:1089B000FE4F804681EA0300C00F0C46009021F074
:1089C000004123F00045B8EB0200A94105D2404622
:1089D000214690461C460B46024623F000401043B9
:1089E00047D0270DC7F30A00C3F30A510290401A7B
:1089F000019040286BDAC3F3130040F4801B009809
:108A0000924620B10023D2EB030A63EB0B0B0198D3
:108A10005946C0F14002504600F0F1F906460D46B5
:108A200050465946019A00F0F9F910EB08006141EF
:108A3000002487EA115284EAE7731A4340D0009A6F
:108A400062B3019A012A4FEA075215DC001B61EB61
:108A500002014FF0004202EA0752CDE90042001C39
:108A600041F5801132462B4600F0CFFA03B0BDE845
:108A7000F08F40462146F9E7001B61EB0201001C24
:108A800041F5801300185B412018A2F5001747EB51
:108A9000030140EAD570B6196D4111E06D084FEA47
:108AA000360645EAC0754FEA0752001B61EB02012A
:108AB000001C41F5801149084FEA3000001951416E
:108AC00032462B4603B0BDE8F04F00F08FBA009855
:108AD000012240000023D0EB020263EBE073009818
:108AE00021464FEAE074B8EB000061EB0401E9E7CE
:108AF00083F000435BE781F0004158E72DE9FE4F2A
:108B000081EA030404F0004421F0004100944FF096
:108B1000000B23F0004350EA01045ED052EA030444
:108B20005BD0C3F30A54C1F30A552C44A4F2F334C6
:108B30000194A0FB0254C1F3130141F48011C3F36B
:108B4000130343F4801301FB024400FB034E840A29
:108B5000970A44EA815447EA8357A4FB07680295C1
:108B60008D0A05FB07854FEA932C04FB0C5427055F
:108B7000029D4FEA065847EA1637B5EB08056EEB3B
:108B8000070C870E920E47EA811742EA8312A7FB71
:108B90000201B6EB0B0164EB00042B0D43EA0C332E
:108BA0005E1844EB1C50DA465146E7FB0201C5F360
:108BB00013044FEA0B3343EA14534FEA0432019C87
:108BC00043EA0603A4F10C040294009CCDE900B42E
:108BD00000F01BFA03B0BDE8F08F00200146F9E772
:108BE0002DE9F04D81EA030404F0004B21F000452B
:108BF00014464FF0000A23F0004150EA050220D04D
:108C000054EA01021DD0C5F30A570246C5F3130307
:108C1000C1F31300C1F30A5640F4801543F48013E6
:108C2000A7EB0608101BD64608F2FD3873EB0500CB
:108C300002D308F1010801E092185B41B8F1000F7E
:108C400003DA00200146BDE8F08D00204FF48011CA
:108C5000064684460EE0171B73EB050705D3121B6F
:108C600063EB050306434CEA010C49084FEA300068
:108C700092185B4150EA0107EDD152EA030012D08D
:108C800082EA040083EA0501084305D0101BAB41CA
:108C900006D20122002306E000224FF0004302E04A
:108CA0006FF0010253101AEB06004CEB085110EB69
:108CB0000A0041EB0B01BDE8F04D00F097B90EB58D
:108CC000C10F80EAE0700844CA07002140F2334334
:108CD0008DE80E000A460B4600F097F903B000BD80
:108CE00000F0004230F000400AD0C10D01F5607183
:108CF000C0F3160042EA0151C20840071143704711
:108D0000002001467047000030B5041E71F10004D8
:108D100004DB4FF00044404264EB0101141E73F188
:108D2000000405DB1C464FF00043524263EB040392
:108D30008B4208BF824230BD01F0004330B421F0C5
:108D4000004150EA010206D00A0DA2F56072C1F39B
:108D50001301002A02DC30BC00207047440F44EAB3
:108D6000C104C100E01830BC00EBC25000F007B9EC
:108D700030B50B46014600202022012409E021FAEB
:108D800002F59D4205D303FA02F5491B04FA02F5E8
:108D90002844151EA2F10102F1DC30BD2DE9F05F7F
:108DA0000546002092469B4688460646814640245A
:108DB0001BE0284641464746224600F02BFA534620
:108DC0005A46C01A914110D311461846224600F067
:108DD00016F82D1A67EB01084F46224601200021A4
:108DE00000F00DF817EB00094E41201EA4F101041C
:108DF000DFDC484631462A464346BDE8F09F202A3C
:108E000004DB203A00FA02F1002070479140C2F1E1
:108E1000200320FA03F3194390407047202A06DB11
:108E2000CB17203A41FA02F043EAE07306E041FA38
:108E300002F3D040C2F12002914008431946704726
:108E4000004870479CCA010810B50446FFF7F8FFB8
:108E50000068005D00F0010010BD3A2800D23038F3
:108E600020F02002412A01D3A2F13700884201D329
:108E70004FF0FF3070470000026811441378016022
:108E800018467047D16004495161044911620021BC
:108E90001161114600F0CEB9798E0008498E0008A4
:108EA000426842B1016811F8013B23B1521EC0E98A
:108EB0000012184670470121C160881E7047426841
:108EC0005AB1C368016843B983688B4205D0491E13
:108ED000521CC0E90012002070474FF0FF3070476D
:108EE0002DE9F05F82460078002715468B460AF18F
:108EF0000104B946302801D09DB113E014F8010BEC
:108F00000127782803D0582801D045B10AE00DB1D7
:108F1000102D07D10027102514F8010B02E00825B9
:108F200000E00A250026B0460EE005FB080005FB20
:108F300006F1012701EB10461FFA80F8B6F5803FD5
:108F400000D3B94614F8010B2946FFF786FF002825
:108F5000EBDABBF1000F05D00FB1641E00E0544600
:108F6000CBF80040B9F1000F06D003F083FD0221D9
:108F70000160C81EBDE8F09F48EA0640FAE70029F4
:108F8000A8BF7047401C490008BF20F0010070478F
:108F900010B4B0FA80FC00FA0CF050EA010404BFEF
:108FA00010BC704749B1CCF1200421FA04F411FA45
:108FB0000CF118BF012121430843A3EB0C01CB1D89
:108FC0004FEA00614FEA102042BF002010BC7047FA
:108FD00000EBC35010440029A4BF10BC7047401CD4
:108FE000490008BF20F0010010BC704710B5141EE6
:108FF00073F1000408DA401C41F1000192185B4152
:109000001A4301D120F0010010BD2DE9F04D924628
:109010009B4611B1B1FA81F202E0B0FA80F220323F
:109020009046FFF7ECFE04460F4640EA0A0041EA8C
:109030000B0153465A46084313D0114653EA010028
:1090400019D0C8F14002504600F0E4F805460E463B
:10905000504659464246FFF7D2FE084305D001204C
:1090600004E020463946BDE8F08D0020054346EA7D
:10907000E0762C4337430A986305E40AA0EB080026
:109080000022FD0A44EA47540A3002D50020014676
:10909000E9E7010510196941DDE908450019694151
:1090A000BDE8F04DA2E770B521F0004303430CD0BA
:1090B000C1F30A550024D5EB040564EB0403D6176D
:1090C000AD1AB34102DB0020014670BD201841EB10
:1090D000025170BD2DE9F04D00231A461B1A8A413A
:1090E00003DB00200146BDE8F08DC1F30A52C1F355
:1090F000130141F480154FF0000BD10702D1001885
:109100006D41521E0027044640F2FF11384601EB24
:10911000620A3E468046024600204FF4801100F06D
:1091200079F8C2197141BB1846EB0100B4EB030C8E
:1091300075EB000C04D3E41A65EB000517460E46E8
:10914000241908F101006D4180463428E3DDF91946
:1091500046EB0600091BA84103D24FF0FF3213462D
:1091600001E0002213461BEB070046EB0A51BDE865
:10917000F04DFFF73BBF0EB540F2334202920022A2
:10918000CDE900221346FFF740FF03B000BDC1F355
:109190000A52C1F3130140F2FF3341F480119A42A5
:1091A00002DA00200146704740F233439A42A2F2AD
:1091B000334202DC524200F02DB8FFF720BE00001F
:1091C00030B5041E71F1000404DB4FF0004440424E
:1091D00064EB0101141E73F1000405DB1C464FF023
:1091E0000043524263EB0403994208BF904230BDF2
:1091F000064C074D06E0E06840F0010394E80700E4
:1092000098471034AC42F6D3FEF7B2FF48CC0108C1
:1092100068CC0108202A04DB203A21FA02F0002160
:10922000704721FA02F3D040C2F120029140084376
:10923000194670472DE9F34F8BB04FF0000801F14C
:109240000C000C464FF0010B46460DF1080A019048
:109250006269012101989047051E2DD0252D2CD043
:10926000216A8847C0B16269012101989047216A4B
:1092700088470028F7D1411E62690198904700E0B5
:10928000761CA1690B988847216A88470028F7D186
:10929000E1690B988847DBE7A1690B988847074687
:1092A000A84201D1761CD3E7E1690B9888477F1C5F
:1092B00002D1B8F1000F6FD046E1002762693D4648
:1092C0003946019890472A2804D162690121019802
:1092D00090470125DFF88492626901210198904747
:1092E000A0F130010A290AD24F45E5DC07EB8701DE
:1092F00000EB4107303FDFD445F01005ECE7E9060D
:1093000001D46FF000476C280AD04C2814D068288C
:1093100015D06A280DD074281CD07A281AD01DE0E8
:1093200062690121019890476C2802D045F004053C
:1093300014E045F002050DE045F020050AE0626901
:10934000012101989047682802D045F0080505E002
:1093500045F400656269012101989047C4E901570D
:1093600065283DD019DC58287AD00CDC452837D048
:1093700004DC252826D0412831D131E046282FD0E1
:1093800047282CD12CE05B2877D0612828D063288F
:109390007CD0642823D15AE0D0E06F2848D008DC84
:1093A00066281DD067281BD0692821D06E2816D1C9
:1093B00027E0702845D0732868D0752847D07828D2
:1093C0000DD14DE0A1690B988847054625283FF44B
:1093D00069AFE1690B9888476D1C3FF46AAFB3E051
:1093E00023466A466FF001000B99FFF78BF99EE068
:1093F00045F040006060A80723464FF0000236D4D5
:109400003EE0E8077FF447AF2068011D2160006857
:10941000290501D506701BE7290701D5068017E746
:10942000A90703D5F117C0E9006111E706600FE74E
:1094300045F040006060A80723464FF0080216D4AC
:109440001EE040F60E0125EA0100606016E045F0DE
:1094500040006060A80723464FF00A0207D40FE0DF
:1094600045F040006060A80708D5234610226FF041
:1094700001000B99AFF3008059E007E0234610226A
:109480006FF001000B99FEF793FF50E04FF00009D9
:109490004F464B46632802D05B2806D040E0E806E2
:1094A00001D40120A06001273AE0626901210198FE
:1094B00090475E2805D14FF001096269494601983D
:1094C0009047216939B900210A46534643F82120C3
:1094D000491C0829FADBB0B3216969B9C11700EB4F
:1094E000D16253110AEB830122F01F02821A01207C
:1094F0000B68904003430B6062690121019890471B
:109500005D28E8D1B9F1000F09D00020514651F88B
:109510002020D24341F82020401C0828F7DB02AB72
:10952000224600976FF001000B99FEF7E7FF002835
:109530000CDA401C08D1BBF1000F05D04FF0FF3012
:109540000DB0BDE8F08FFFE74046F9E7E90701D12C
:1095500008F1010806444FF0000B79E6CCCCCC0CA6
:1095600070B58C1810F8015B15F0070301D110F8E5
:10957000013B2A1106D110F8012B03E010F8016B12
:1095800001F8016B5B1EF9D12B0705D40023521E95
:109590000DD401F8013BFAE710F8013BCB1A921CFD
:1095A00003E013F8015B01F8015B521EF9D5A142FB
:1095B000D8D3002070BD000010B508680022114605
:1095C000401CFFF7BBF904460C49A0F51660884221
:1095D00011D821460AA012F0A1FA0C48416CA14210
:1095E00007D000F1200144644FF4FE7208A012F08D
:1095F00075FC002010BD012010BD0000207B1E0066
:10960000424155443D25640D0A00000030120020FF
:109610007265677300000000144810B5016888B0D7
:10962000C90601D5102101600168090701D508218B
:1096300001600068800716D006A90DF10B00CDE986
:109640000001012103AB05AA084600F037F8084CD9
:109650000598ADF808000C2202A920680FF0E9FB7C
:10966000A0680FF0E7FE08B010BD000010640040D5
:109670005803002030B401280CD10E4A136943F07E
:1096800000731361136923F000731361D36943F00E
:109690000073D361084B53F82020146824F00204AF
:1096A000146053F82020136843F04003136030BC6B
:1096B00000F0B6B80010024014C20108F0B52F4EF9
:1096C0004FF4D87505EB011556F82040DDE905C7C4
:1096D00054F805E064591EF0040F48D0E408146003
:1096E00056F8202052594FF4DA7402F002023A7010
:1096F00056F8202004EB0114125902F00F028CF8E6
:10970000002056F820404FF4DC7202EB0112A458FE
:109710001C7056F82040A458240A5C7056F820406B
:10972000A458240C9C7056F82040A258120EDA70EF
:1097300056F820404FF4DE7202EB0112A4581C715F
:1097400056F82040A458240A5C7156F82040A458CA
:10975000240C9C7156F82040A258120EDA7156F86B
:10976000200031B1016941F020010161F0BD640DBB
:10977000B5E7C16841F02001C160F0BD14C2010825
:10978000F0B5264E00273C4656F82050D5F808C0C4
:109790005FEA4C1C08D4AC68240101D5012403E025
:1097A000AC68E40038D502244FF4C07C0CEB041CF8
:1097B00055F80CE00EF0010E45F80CE056F820507C
:1097C000490545F80C1056F820104FF4C27505EB0A
:1097D00004154B511178D2F801304FF4C47541EAA9
:1097E000032156F8203005EB041559511179D2F8B0
:1097F00005204FF4C67341EA022156F8202003EBFE
:109800000413D15056F8200050F80C1041F001011B
:1098100040F80C103846F0BD0820F0BD14C2010815
:109820002DE9F05F83460C46012001F0C5FADFF810
:1098300078C00127002307F1010800229918C91CEC
:1098400001FB08F1B0FBF1F6A64201D3311B00E0A9
:10985000A11B8C4503DD8C46994692463D46521C21
:10986000082AEBDB5B1C102BE7DB7F1CFF2FE1DD05
:10987000584608F04DF80D4951F82B00C2690C4BC1
:109880001A40C26151F82B00C26942EA094145EA17
:109890000A52114341F00071C161584608F0BCFB07
:1098A0000120BDE8F09F00008096980014C20108D6
:1098B00000FC80FFF0B52A4D0124059F55F820607B
:1098C0008C40D6F800C24CF0010CC6F800C255F826
:1098D0002060D6F81CC22CEA040CC6F81CC255F84D
:1098E0002060D6F80CC24CEA040CC6F80CC255F83D
:1098F00020604FF4107C0CEBC10C520546F80C2094
:109900005A0555F820304FF4117606EBC1015A5034
:1099100055F82010D1F80422A243C1F8042217B14F
:10992000012F06D00CE055F82010D1F81422A243E4
:1099300004E055F82010D1F814222243C1F8142273
:1099400055F82010D1F81C222243C1F81C2255F8EA
:109950002000D0F8001221F00101C0F80012F0BD83
:1099600014C2010870B5184D1646044669B10129A4
:1099700019D0022916D1132001F09CFE55F82400BD
:109980004169EEB141F001010BE0142001F092FEBB
:1099900055F82400416916B141F0020101E021F0BF
:1099A0000201416170BD152001F084FE55F82400CC
:1099B000416916B141F01001F3E721F01001F0E721
:1099C00021F00101EDE7000014C2010830B40A469D
:1099D000D0F8A010D0F8A4404FF0FF3351F8221077
:1099E00024F81230C1F307410122431883F8B42050
:1099F000D0F8B02030BC10472DE9F04F9946DDE992
:109A0000094C4FF0FF3BDDF82CA048E0ACEB020323
:109A10005BB20D78002B02DD05FA03F503E0C3F11C
:109A2000000325FA03F5EEB202DDCCF1080301E0F4
:109A3000C2F10803DBB2834200D903460CEB0307F3
:109A40004FF0FF0808FA07F5CCF1080C28FA0CF8DB
:109A500045EA080594F800C0AE430CEA050C1A4428
:109A60004CEA060CD2B284F800C0072A07D90022BB
:109A7000B9F1000F01D05D4600E00125294407F04F
:109A8000FF0CBCF1070F08D94FF0000CBAF1000F22
:109A900001D05D4600E001252C44C01AC0B2002868
:109AA000B4D1BDE8F08F012011F092BF012011F078
:109AB00053BF022011F050BF022011F089BF0000F7
:109AC000012809D002280DD1074850F8210001686B
:109AD0002AB141F0010104E003484038F5E721F0E4
:109AE00001010160704700006CC2010802460020BD
:109AF000012A06D0022A03D1034850F82100406809
:109B0000704701484038F8E76CC201080A494FF035
:109B1000FF32012808D0022805D1486940F0020030
:109B20004861064802607047486940F0010048619A
:109B300003484260704700000010024004040240E5
:109B40000000024070B515460C4601280ED00228D0
:109B500017D10C48005701F0B8FD0A48503050F8B2
:109B60002400016855B141F0020109E00548801D5B
:109B7000005701F0AAFD03481030F0E721F0020180
:109B8000016070BD1CC20108012806D0022803D163
:109B9000034850F821004260704701484038F8E718
:109BA0006CC20108012806D0022803D1034850F8EE
:109BB0002100C260704701484038F8E76CC20108D4
:109BC00001280BD0022808D1064850F8210001686E
:109BD00021F0800141EAC21101607047014840381C
:109BE000F3E700006CC2010810B50B460446097883
:109BF0000022FFF765FF43F6D071012C28D0022C1C
:109C000025D11C7815489A6850F82440A2601C7829
:109C10001A6950F82440E2601C785A8850F82440B1
:109C200062601A7850F8220002688A4399880C0210
:109C300044EA81211C7B41EAC4119C795B7841EAAA
:109C4000841141EA0311114341F48051016010BDB8
:109C500002481C7840389A68D6E700006CC20108B8
:109C60000548016841F0807101600448016841F0D5
:109C70000101016070470000FCED00E0001000E011
:109C8000411C0CD0074AB2F90010884201D1491E8C
:109C90001180054A00EB4000002102F830104FF01F
:109CA000FF307047500300209422002002F03EBA9B
:109CB00010B5086800221146401CFEF73FFE064919
:109CC0000028086C04D040F001000864002010BD9A
:109CD00020F00100F9E700003012002030B51C48E8
:109CE0004456012004F01F0500FA05F56409A4009C
:109CF00004F1E024C4F80051164C2568884005435F
:109D00002560144914390C680BB1044300E0844306
:109D10000C6010490C394AB10C1D012A0DD0022AE1
:109D20000AD10A688BB102430A6007E00A680BB1E6
:109D3000024300E082430A6030BD13B12168014351
:109D400001E021688143216030BD82430A60F8E769
:109D500094C20108140401400248002100780AF06E
:109D60003DBF00006C1A00202DE9F0410A24084E86
:109D7000084F0125306805FA04F1084203D0385D28
:109D800021460AF02BFF641C102CF3DBBDE8F081A8
:109D9000140401406C1A00200248012140780AF0A6
:109DA0001DBF00006C1A00200248042100790AF04F
:109DB00015BF00006C1A00202DE9F0410524084E63
:109DC000084F0125306805FA04F1084203D0385DD8
:109DD00021460AF003FF641C0A2CF3DBBDE8F08186
:109DE000140401406C1A002008B50E4800220092AD
:109DF000016841F4803101604FF4004306E00099AE
:109E0000491C0091994201D9012008BD01688903CC
:109E1000F5D5009200BF0098401C0090FF28F9D9AA
:109E2000002008BD001002402DE9F05F24200EF054
:109E300077FD04460C200EF073FD054624200EF03D
:109E40006FFD06460C200EF06BFD264907462422C6
:109E50008B4620460EF0EFFE22490C2224318A4622
:109E600028460EF0E8FE1F49242238318946304644
:109E70000EF0E1FE1B490C225C31884638460EF09C
:109E8000DAFE09F021F909F091F924222146584619
:109E90000EF0D1FE0C22294650460EF0CCFE2422B4
:109EA000314648460EF0C7FE0C22394640460EF0B9
:109EB000C2FE4FF4FE720C490CA012F00FF82046BF
:109EC0000DF0C2FE28460DF0BFFE30460DF0BCFE80
:109ED00038460DF0B9FE0021084601F07BFD002058
:109EE000BDE8F09FA8130020501200207265677330
:109EF000000000002DE9F0438BB00D4653A011F097
:109F00000DFE56A128680FF00DFE564C4FF4FE785A
:109F100004F1200604F5B87400284ED05248011F01
:109F2000CDE905100A1F131FCDE903321038011FB8
:109F30000A1F0092CDE90110131F083A4BA12868AF
:109F4000FEF71AFA474D09283BD09FED4F0A03212F
:109F500007A811F090FF0A200FF0E8FF002405F594
:109F60001D794FF448770322494607A811F06FFE88
:109F70000A200FF0DBFF641CBC42F4DBF0EE080AA1
:109F80009FED420A384907A8091D0C4611F04EFF03
:109F90000321204611F020FF95ED690AF7EE000A33
:109FA00030EE600A85ED690A4246314638A011F06C
:109FB00095FF0BB00020BDE8F083204608F060F864
:109FC0003EE0002295ED5E0A114620460AF061F956
:109FD00095ED5F0A0122002120460AF05AF995ED1D
:109FE000600A0222002120460AF053F995ED610A29
:109FF0000022012120460AF04CF9012295ED620A67
:10A00000114620460AF045F995ED630A0222012126
:10A0100020460AF03EF995ED640A0022022120460E
:10A020000AF037F995ED650A0122022120460AF06F
:10A0300030F9022295ED660A114620460AF029F908
:10A04000214615A006F03AFFAEE700006265676999
:10A050006E20464341320D0A000000003D52455338
:10A060004554000030120020C81300203D25662C06
:10A0700025662C25662C25662C25662C25662C2528
:10A08000662C25662C256600000000000AD7A33A3E
:10A0900072656773000000006D61746C616200009E
:10A0A0002DE9F04F2DED0C8B9BB0002616AA086809
:10A0B000FEA1FEF761F9032108460AF0F9F9032130
:10A0C0000A9008460AF0F4F9DFF8E49311900021B1
:10A0D000A9F8F612D9ED21CAB7EE00CA89ED21CA56
:10A0E000032106200AF0E4F90F90042106200AF06B
:10A0F000DFF90E90032104200AF0DAF9149004210C
:10A1000003200AF0D5F99FEDEBDA10900321B0EEB1
:10A110004D0A0BA811F0AFFEB0EE4D0A032107A8BF
:10A1200011F0A9FEB7EE000A022200210F980AF0F2
:10A13000B0F8BFEE000A022201210F980AF0A9F838
:10A14000B7EE000A012202210F980AF0A2F8BFEE32
:10A15000000A012203210F980AF09BF8B7EE000ACB
:10A16000002204210F980AF094F8BFEE000A0022A2
:10A1700005210F980AF08DF8CFA0169911F0CEFCAA
:10A18000002409F520702546A04627461890B9F806
:10A19000F602012805D9032207A8189911F057FDE6
:10A1A0007F1CB9F8F602032833D1280731D400EE1A
:10A1B000107AC84907A8F8EE400A12918CEE200ADE
:10A1C000F0EE080A11F032FEDDE91102002110F074
:10A1D000FDFCDDE91102012110F0F8FCDDE91102BE
:10A1E000022110F0F3FC0322BBA0129906F0B4FE8A
:10A1F000AF4845F0080500F5D47117910C3900F50A
:10A20000B870DFF8DCA2FFEE00AACB4615911390E0
:10A2100003E00A200FF08AFEB9E7032207A8189985
:10A2200011F015FDBBF8F6027F1C01280AD9A949D7
:10A230004FF000090322A0310BA811F008FD08F12E
:10A24000010008E04FF00109B0EE4D0A03210BA810
:10A2500011F011FE0020804626B1012E11D0022EF1
:10A260000ED113E00FF054FF1990B0EE4D0A032108
:10A2700007A811F000FE0027B9F1000F00D0012659
:10A28000D0E0B9F1000FFBD10226CBE0280677D44D
:10A290000FF03EFF1999401A00EE100AB8EE400A7E
:10A2A000DFED900AC0EE208A18EE900AFEF718FD46
:10A2B00041EC100B8CA053EC102B02F089FB002614
:10A2C0009FED8CBBDFF834929DED160A8B4907A8F1
:10A2D000B8EEC00A80EE288A00EE107AF8EE400A46
:10A2E0008CEE200AF0EE080A11F0A0FD09EB8600C2
:10A2F00090ED000AB0EEC00A10EE100AFEF7F0FC76
:10A3000041EC190BB0EEC8AA1AEE100AFEF7E8FCF1
:10A3100053EC192BFEF7ECFB53EC1B2BFEF7F4FC74
:10A3200038D218EE901A514534DD1AEE101A514504
:10A3300030DD1AEE100A724988422BDA09EB8600EA
:10A3400090ED000A38EE400AB0EEC00A10EE100A96
:10A35000504501DDB1EE488A6848684A0C3800EB88
:10A360008600314680ED008A0A9810F02FFC18EE26
:10A37000100AFEF7B5FC41EC100B53EC102B00E07B
:10A380004FE060A002F024FB03225C4961A006F0CC
:10A39000E3FD03E0761CF6B2032E95D326B1012E21
:10A3A00006D0022E09D10CE045F001055BA002E0C9
:10A3B00045F002055DA002F00BFBE843000704D066
:10A3C0002FE045F004055DA0F5E760A011F0A6FBC5
:10A3D000032108460AF06CF80646032108460AF0F5
:10A3E00067F8464981460C3906F026FD11990A980E
:10A3F00010F012FD30460A9909F056F931464846E8
:10A40000179A0AF07FF948460DF01EFC30460DF011
:10A410001BFC0A980DF018FC11980DF015FC45F086
:10A4200080050026B8F1460F3ED120063CD4DDED74
:10A430000B0A4FF000089FED4C0A03210BA880EE99
:10A44000801A8DED001ADDED0C0A80EE801A8DED7C
:10A45000011ADDED0D0A80EE801AB0EE4D0A8DED89
:10A46000021A11F008FD8DED03CA9DED000ADFF818
:10A47000FC90B0EEC00A10EE100A484515DA9DEDCA
:10A48000010AB0EEC00A10EE101A49457CDA9DEDC3
:10A49000020A30EE4C0AB0EEC00A10EE101A49451E
:10A4A00072DAE00770D163E06FE16DE03D25640092
:10A4B0003012002000000000626567696E20616351
:10A4C0006320616E64206779722063616C3A256451
:10A4D0000D0A000004140020626961733A00000054
:10A4E000000040400000C8426674696D653A256608
:10A4F0000D0A000000000000000008403C1B002086
:10A5000000004843746865726F793A2566200D0A29
:10A51000000000006163743A0000000047595220B7
:10A52000582020666F756E64210D0A00475952202D
:10A53000592020666F756E64210D0A00475952201C
:10A540005A2020666F756E64210D0A00616C6C20C4
:10A55000677972206461746120636F6C6C656374E9
:10A5600065640D0A0000000000008C42CDCC4C3E1A
:10A5700044F001046A4600210E9810F03CFB0422CE
:10A5800069469FA006F0E8FC9DED000AB0EEC00A07
:10A5900010EE100A48451FDA9DED010AB0EEC00A20
:10A5A00010EE101A494517DA9DED020A30EE6A0ADC
:10A5B000B0EEC00A10EE101A49450DDAA0070BD410
:10A5C00044F002046A4601210E9810F014FB0422A4
:10A5D00069468CA006F0C0FC9DED000AB0EEC00AF2
:10A5E00010EE100A48451FDA9DED020AB0EEC00ACF
:10A5F00010EE101A494517DA9DED010A30EE4C0AAB
:10A60000B0EEC00A10EE101A49450DDA60070BD4FF
:10A6100044F004046A4602210E9810F0ECFA042279
:10A62000694679A006F098FC9DED000AB0EEC00ADC
:10A6300010EE100A48451FDA9DED020AB0EEC00A7E
:10A6400010EE101A494517DA9DED010A30EE6A0A3C
:10A65000B0EEC00A10EE101A49450DDA20070BD4EF
:10A6600044F008046A4603210E9810F0C4FA04224C
:10A67000694666A006F070FC9DED010AB0EEC00AC6
:10A6800010EE100A48451FDA9DED020AB0EEC00A2E
:10A6900010EE101A494517DA9DED000A30EE4C0A0B
:10A6A000B0EEC00A10EE101A49450DDAE0060BD4E0
:10A6B00044F010046A4604210E9810F09CFA04221B
:10A6C000694653A006F048FC9DED010A4846B0EEED
:10A6D000C00A10EE101A81421FDA9DED020AB0EE98
:10A6E000C00A10EE101A814217DA9DED000A30EE12
:10A6F0006A0AB0EEC00A10EE101A49450DDAA0063B
:10A700000BD444F020046A4605210E9810F073FA29
:10A71000042269463FA006F01FFCE043800634D1C6
:10A720003DA011F0FBF9DDE90E10149A09F021FCAF
:10A730001099149811F082F804AA0021109807F0DB
:10A74000D3FE04AA0021139810F040FA04AA0121B4
:10A75000109807F0C9FE04AA0121139810F036FAE8
:10A7600004AA0221109807F0BFFE04AA0221139840
:10A7700010F02CFA0321159A109807F0B5FE03216A
:10A78000159811F0FAFA44F080040A200FF0CEFB7D
:10A7900020067FF53DAD2806FBD526A002F018F96E
:10A7A00026A0139906F08AFB032224A0159906F02F
:10A7B000D3FB25A002F00CF920A0179906F07EFB30
:10A7C00003221EA0129906F0C7FBCBED21CA4FF45D
:10A7D000FE721F491FA011F081FB0E980DF034FA94
:10A7E0000F980DF031FA14980DF02EFA10980DF024
:10A7F0002BFA1BB00020BDEC0C8BBDE8F08F0000E5
:10A800005A2B3A005A2D3A00592B3A00592D3A004A
:10A81000582B3A00582D3A00616C6C20616363201C
:10A820006461746120636F6C6C65637465640D0AA8
:10A83000000000006163630D0A0000006E6F686530
:10A8400061646572000000006779720D0A00000003
:10A850005012002072656773000000002DE9F0437C
:10A860000C4608688BB0002552A10FF05BF9534FDE
:10A870004FF4FE7807F1200607F5D47700284FD073
:10A880004F48011FCDE905100A1F131FCDE9033200
:10A890001038011F0A1F0092CDE90110131F083A5A
:10A8A00048A12068FDF768FD09283DD09FED4C0ABE
:10A8B000032107A811F0DFFA4AA011F02FF9DFF801
:10A8C0000091002409F1B0094FF44877032249466A
:10A8D00007A811F0BCF90A206D1C0FF027FB641CBF
:10A8E000BC42F3DB00EE105AB7EE001A3449F8EE22
:10A8F000C00A091D0C4607A881EE200AF0EE080ADE
:10A9000011F094FA032221463AA006F025FB4246B4
:10A9100031463AA011F0E2FA0BB00020BDE8F08316
:10A92000384607F0ADFB3FE0244C0022114694ED81
:10A930006C0A384609F0ADFC94ED6D0A0122002145
:10A94000384609F0A6FC94ED6E0A02220021384632
:10A9500009F09FFC94ED6F0A00220121384609F0AE
:10A9600098FC012294ED700A1146384609F091FCDA
:10A9700094ED710A02220121384609F08AFC94ED17
:10A98000720A00220221384609F083FC94ED730A12
:10A9900001220221384609F07CFC022294ED740A5F
:10A9A0001146384609F075FC394612A006F086FAC1
:10A9B000ADE700003D5245534554000030120020E1
:10A9C000001400203D25662C25662C25662C256666
:10A9D0002C25662C25662C25662C25662C256600E4
:10A9E00000000000626567696E20464347320D0A29
:10A9F000000000006D61746C616200007265677335
:10AA0000000000002DE9F0410F46086886B02AA139
:10AA10000FF088F82A4C4FF4FE7804F5037604F121
:10AA2000200504F5F07478B104A903A8CDE900016C
:10AA300002AB05AA23A13868FDF79EFC042819D0B3
:10AA4000012006B0BDE8F081204607F019FB214641
:10AA500020A006F033FA9FED210A0321304611F0C1
:10AA60000AFA17489FED1E0A002180ED2A0AC0F855
:10AA7000A4101AE00599032908DA02AA204610F06A
:10AA8000BAF8214613A006F019FA0EE00DD14FF0E6
:10AA9000030202A9304611F0F5F812A011F03EF8B9
:10AAA000032202A913A006F057FA4246294614A031
:10AAB00011F014FA0020C4E73D52455345540000FC
:10AAC000301200203D25642C25662C25662C256639
:10AAD000000000006D61746C616200000000000005
:10AAE0000000C642626961732073657420746F3A16
:10AAF0000D0A00006E6F68656164657200000000F9
:10AB0000726567730000000000B572B6094B1969E1
:10AB100041F0020119615861186940F04000186164
:10AB2000D80307F015FC196921F00201196162B61A
:10AB300000BD00000020024001480068704700008E
:10AB40003C0000200C4800B5416941F01001416112
:10AB500000F018F809480A49008880B2A0F5807012
:10AB6000C53805D0012803D04FF400620A6000BD4B
:10AB70004FF48060086000BD00100240002004E037
:10AB80003C0000200348024941600349416070478E
:10AB90002301674500200240AB89EFCD2DE9F0414C
:10ABA00007464FF4704416460D46204607F0D0FB8A
:10ABB000A04600230A4C0FE072B6206940F0010065
:10ABC0002061E85CF854404607F0C2FB216921F09F
:10ABD0000101216162B65B1CB342EDD3BDE8F08197
:10ABE0000020024070B505462D4B14460E46062D3A
:10ABF0000CD2DFE805F0030714180B1C986940F02D
:10AC0000040002E0986940F0080098610A2C44D2E0
:10AC1000DFE804F0111F18432A4343432A3E986992
:10AC200040F01000F1E7986940F02000EDE79869E6
:10AC300040F08000E9E700230122284601F0D8F91E
:10AC400000221EE000230222284601F0D1F9012251
:10AC500005E000230222284601F0CAF9002231460D
:10AC6000284600F029F818E003230022284601F0C6
:10AC7000BFF9042C0AD000223146284600F01CF807
:10AC800001223146284600F03DF806E00122F3E7B4
:10AC900002230122284601F0ABF9284670BD0000CE
:10ACA00000100240034A52F820008068C84000F0BB
:10ACB0000100704784C2010801238B40034951F809
:10ACC00020000AB1036170474361704784C20108E4
:10ACD0000A4A10B5936943F0010393618A0721F092
:10ACE00003040749120F21440F238C6893409C43AF
:10ACF0008C608B68904003438B6010BD0010024055
:10AD00000000014030B512B10024022301E001240B
:10AD100000230D4A0F2552F820008A00082909D384
:10AD20004168203A954043EA8403A94393400B438A
:10AD3000436030BD0168954043EA8403A9439340D2
:10AD40000B43036030BD000084C20108012A00D01B
:10AD50000022FFF7B1BF000070B50C460868FDF790
:10AD6000E7FA104DB8B1206800221146401CFDF7EB
:10AD7000E5FDFF2814D855F8D01FC0B221F0FF011F
:10AD80000143296007494FF4FE72203106A011F0FB
:10AD9000A5F8002070BD95F8D01005A010F0BEFEFB
:10ADA000012070BD30120020726567730000000042
:10ADB00025640D0A0000000030B5224C012102225A
:10ADC0006368C3F303135BB1082B04D0092B04D0D1
:10ADD0000A2B05D103E0022102E0042100E0082152
:10ADE0006368C3F3022333B1042B09D0052B04D0CD
:10ADF000062B05D103E0012202E0042200E0082234
:10AE0000114B05281B681AD2DFE800F00B03080D70
:10AE10000F00B3FBF1F0B0FBF2F030BDB3FBF1F08B
:10AE200030BD184630BD094830BD206B800104D5C7
:10AE3000606D800501D5064830BD064830BD002054
:10AE400030BD00000010024000000020001BB700D1
:10AE5000006CDC0200127A000249486A00224A6251
:10AE600070470000001002400549054B0A68091DA3
:10AE7000083309681B685940C0E900217047000089
:10AE8000E8F7FF1F08B5054B6946187801F0D6FBB7
:10AE90000028F9D19DF8000008BD00004400002002
:10AEA00070B50646D0F8FC00008818B300243519A8
:10AEB00095F8B4000F2818D030680078A04214D05C
:10AEC00095F8040140B9D6F8F82012B12146304671
:10AED0009047012085F8B40095F804012146401EF2
:10AEE00085F80401304609F05FFA641CE4B2402C96
:10AEF000DDD370BD36F9F40FFEF7C2FE308070BDB1
:10AF000070B50C460868FDF713FA0D4D90B1206836
:10AF100000221146401CFDF711FD296B814207D02C
:10AF200028634FF4FE7205F1200106A010F0D6FF51
:10AF3000002070BD05A0296B10F0F0FDF8E70000BF
:10AF400030120020726567730000000025640D0A4E
:10AF5000000000003EB508686B4601AA4BA1FDF752
:10AF60000BFA022876D19DED000AB5EEC00AF1EE8B
:10AF700010FA6FDB10EE100A464988426ADC0124A1
:10AF800045A101A80EF0CEFD444D70B90098FDF723
:10AF9000A7FE41EC100B42A053EC102B10F0BEFDAD
:10AFA0009DED000A002485ED210A42A101A80EF0C2
:10AFB000B9FDB0B99DED000AD5F88000BDEEC00A1C
:10AFC00020F00F0010EE101A01F00F010843C5F831
:10AFD0008000394900F00F00095C38A010F09EFD98
:10AFE00000243AA101A80EF09DFDC0B99DED000A14
:10AFF000D5F88000BDEEC00A20F0F00010EE101A67
:10B00000090740EA11601E21C5F8800001EAD0005E
:10B010002949091D095A2EA010F080FD002430A1F5
:10B0200001A80EF07FFD70B90098FDF759FE41ECC4
:10B03000100B2CA053EC102B10F070FD9DED000AAE
:10B04000002485ED220A2BA101A80EF06BFD10B1A2
:10B0500084B116E017E00098FDF742FE41EC100BBA
:10B0600025A053EC102B10F059FD9DED000A002493
:10B0700085ED230A09494FF4FE72203123A010F018
:10B080002DFF20463EBD01203EBD00003D2533730F
:10B090002C2566000000A0404249530030120020D9
:10B0A0006779722062616973207468723A25660D4F
:10B0B0000A00000041524700AC0200204143435FB8
:10B0C00052473A2564470D0A0000000047524700E6
:10B0D0004759525F52473A25646470730D0A000065
:10B0E000434F460074656D7020636F66203A256695
:10B0F0000D0A00004C4D4600677972206C6D662089
:10B100007468723A25660D0A000000007265677364
:10B11000000000007CB50C460868A8A1FDF70FF9F7
:10B12000A74D28B1A7A12068FDF709F9002825D16E
:10B13000A5A10520CDE90001002301226E21A5A0D3
:10B1400010F0ECFCAAA010F0E9FCB248AA6EB2A183
:10B1500050F82230B2A010F0E1FCB5A1B5A02A6BE6
:10B1600010F0DCFCD5E90A23B5A1B7A010F0D6FC9D
:10B17000A86CB8A1020CB9A010F0D0FCBAA120684C
:10B18000FDF7DDF8002822D1B5F8F222B8A1B3A06E
:10B1900010F0C4FCB8A1BBA0D5F8E82210F0BEFCAA
:10B1A00095F880009B4900F00F000C390A5CB9A1AA
:10B1B000BAA010F0B3FCD5F880001E2101EAD0003F
:10B1C000944908390A5AB8A1B9A010F0A7FCBCA14B
:10B1D0002068FDF7B4F870B90EF09AFF6421B0FB57
:10B1E000F1F2B9A1BAA010F099FCBCA191A0D5F8D8
:10B1F000E42210F093FCBBA12068FDF7A0F8002822
:10B2000036D1BA49BAA005F059FEB84903222C310B
:10B21000B9A005F0A1FE0322BA49BBA005F09CFE2F
:10B22000B249BCA0383105F049FEB049032264316F
:10B23000B1A005F091FEB34903220C39B7A005F087
:10B240008BFEAA49B8A0703105F038FEA749032249
:10B250009C31A9A005F080FED5F88800FDF740FDDF
:10B2600041EC100BB2A153EC102BB3A010F056FC24
:10B27000B4A12068FDF763F8002841D16CA1B3A008
:10B280002A6B10F04BFC64A1B0A0AA6E10F046FC33
:10B2900095F8D020B0A1ADA010F040FCB0A1ABA0BB
:10B2A0006A6C10F03BFCB0A1A8A0AA6D10F036FCAF
:10B2B000B0A1B2A06A6D10F031FCD5F88400FDF7A2
:10B2C0000FFD41EC100BB0A153EC102BB0A010F00F
:10B2D00025FCD5F88C00FDF703FD41EC100BB0A167
:10B2E00053EC102BAAA010F019FCB5F8F422AFA172
:10B2F00096A010F013FC7D49AFA02C3905F0DEFDBF
:10B30000AFA12068FDF71BF898B915F8D02F92A1CE
:10B310008EA010F003FC2888AAA1C0F307228BA0FE
:10B3200010F0FCFB55F8D009AAA1020C87A010F080
:10B33000F5FBAAA12068FDF702F840B908F010FE5D
:10B3400008F0D8FD6422A7A144A010F0E7FBA7A154
:10B350002068FCF7F4FF00282DD135F8A40FA5A133
:10B36000C0F3072279A010F0D9FB6868FDF7B8FC9C
:10B3700041EC100BA1A153EC102BA2A010F0CEFBBE
:10B380002A78A3A1A5A010F0C9FBA868FDF7A8FC26
:10B3900041EC100BA4A153EC102B9AA010F0BEFBB3
:10B3A000E868FDF79DFC41EC100BA1A153EC102BBC
:10B3B00094A010F0B3FB00207CBD00000000000052
:10B3C000301200203D4C00004A616E2031302032A6
:10B3D000303231000D0A484925642025642E256449
:10B3E0002E2564206275696C642025730D0A0000A7
:10B3F00032303130202D203230323020436F70799E
:10B400007269676874206279204869504E55430D0F
:10B410000A000000B80200204D4F44453A000000E9
:10B42000252D3136732564282573290D0A00000067
:10B4300049443A00252D313673307825580D0A00DD
:10B44000555549443A000000252D313673255825BD
:10B45000580D0A004F44523A00000000252D3136A5
:10B46000732564487A0D0A003D53454E534F5200F0
:10B47000677972206672710073656E736F722073E4
:10B4800074730000252D3136733078253038580D0F
:10B490000A0000004143435F52473A00252D3136F0
:10B4A000732564470D0A00004759525F52473A001E
:10B4B000252D31367325646470730D0A0000000079
:10B4C0003D4350550000000074696D6500000000A8
:10B4D000252D313673256420730D0A0070726F6458
:10B4E00020736E003D43414C00000000A01300207B
:10B4F0004143430D0A0000006E6F68656164657228
:10B5000000000000EC1400205243204143430D0A88
:10B51000000000004759520D0A0000005243204726
:10B5200059520D0A000000004D41470D0A0000006D
:10B5300067797220636F6600252D313673252E34AE
:10B54000660D0A003D55535200000000252D31368E
:10B550007325640D0A000000475749443A00000073
:10B56000424155443A00000043414E5F4241554438
:10B570003A00000043414E5F49443A00252D3136E0
:10B580007325580D0A00000047425F5448523A00A4
:10B59000252D31367325302E34660D0A000000004B
:10B5A0004C4D465F5448523A00000000494D555FEB
:10B5B000434F4F52443A0000555246520D0A000084
:10B5C0003D5246004D41585F4E4F44455F53495AE6
:10B5D000453A00004652513A000000003D5359538D
:10B5E000000000006F73207469636B003D4853498D
:10B5F0000000000076616C69643A00006669746559
:10B6000072723A00252D31367325660D0A0000004E
:10B6100062696E5F7374617475733A00252D3136FB
:10B6200073256425250D0A00666C75783A000000C4
:10B63000696E636C696E6174696F6E3A0000000038
:10B6400010B5086800221146401CFDF777F9044642
:10B65000014607A010F062FA08484FF4FE7200F1AC
:10B660002001846606A010F039FC002010BD000007
:10B670004D4F44453D25640D0A0000003012002066
:10B68000726567730000000010B500F001F810BD8E
:10B6900006488168090607D5816841F40001816088
:10B6A0000349002000F0E4BC704700000010024095
:10B6B000000E270700F01F02012191404009800081
:10B6C00000F1E020C0F80011704700F01F020121D6
:10B6D00091404009800000F1E020C0F8001170475F
:10B6E00010B5086800221146401CFDF727F9B0F597
:10B6F0007A7F11D8094A916CB0EB114F0AD089B208
:10B7000041EA0040906405494FF4FE72203104A0E4
:10B7100010F0E4FB002010BD012010BD301200200D
:10B72000726567730000000010B50FF019FB002070
:10B7300010BD000038B50446B0F9AC00A834FEF7DF
:10B740009FFAA08054F8A809008850B164214843AA
:10B7500000230090044A1946204600F0D7FBA4F8C5
:10B76000AC00002038BD000075B9000810B50446D3
:10B7700009F052F9204609F013F9002010BDD0F865
:10B780008C11097861B900210A4605E0D0F89031A2
:10B7900043F82120491CC9B290F889318B42F5D871
:10B7A0000020704730B401EBC102846802254FF0DD
:10B7B000FF3305EB4205635300238468062505EB40
:10B7C0004202A35230BCC9B20EF0A8BF30B401EBA4
:10B7D000C102846804254FF0FF3305EB4205635333
:10B7E0008368C9B213F8124024F0010403F8124030
:10B7F00030BC0EF093BF00002DE9F84306464069C7
:10B800004FF4C0550489B0690789CCB1DFF83C809A
:10B81000BC4215D8D6F868316A4629463046984762
:10B82000009941B90268C2F82C800268C2F83C80D5
:10B830000068C0F85C806D1C641CADB2A4B2E7E780
:10B840003046BDE8F843002103F0FABE35C30008D6
:10B850002DE9F0470446406900270589A069B0F842
:10B86000089035BBBDE8F087A16807EBC70602204A
:10B8700000EB460831F90800FEF702FAA26822F848
:10B880000800A168042000EB460831F90800FEF723
:10B89000F7F9A2687F1CFFB222F80800A168002017
:10B8A000062201F81600A16802EB46026D1C8852C0
:10B8B000ADB24D45D8D9D5E770B5044600202B4B25
:10B8C0009FED2B0A0BE06288616800FB020201EB2E
:10B8D00082010A689A4201DA81ED000A401C21883F
:10B8E0008142F0DC00253DE06188606805FB015184
:10B8F00000EB810090ED000A10EE100AB0F1804FCD
:10B900002FDDB0EE001AC1EE000A10EE900AFDF72E
:10B91000E7F941EC100B02F0F7FC51EC100BFDF7CE
:10B920000BFA00EE100A002018E06288616805FB3F
:10B93000020201EB8201D1ED000A60EE800AC1ED46
:10B94000000A6288616800FB025201EB8201401C20
:10B95000D1ED000A60EE800AC1ED000A2188814223
:10B96000E3DC6D1C2088A842BEDC70BD6F12833AF8
:10B970006F12833A3EB50446D0F8A8000088A8B1FB
:10B9800020686946007800F5E060ADF8000001200D
:10B990008DF8030000208DF8020094F87C008DF8EB
:10B9A0000400D4F8640104F0F9FD3EBD34F9AC0F95
:10B9B000FEF766F920803EBD10B5044A04460146F4
:10B9C000107800F091FE204610BD000044000020D9
:10B9D0007047000010B504A010F0A0F872B60CF08B
:10B9E000DDF9002010BD00004F4B0D0A00000000E3
:10B9F00010B59FED040A0321034810F03CFA002023
:10BA000010BD000000000000C8140020F8B5144666
:10BA1000D0F868511E466A46A847009939B901799D
:10BA2000A14204D900680C2101EB04114650009892
:10BA3000F8BD000010B54FF4FE72034903A010F0EA
:10BA40004DFA002010BD000050120020726567738F
:10BA50000000000070B504460068A268012190470C
:10BA60002069A8B10EF054FB05460CE00EF050FB27
:10BA7000411BE069814202D96FF0010070BD401C9A
:10BA800040080EF095F92169206888470028EDD01C
:10BA9000204606F0EAFF002070BD00002DE9FC41C1
:10BAA000054640690E464088002833D0C6EBC601E3
:10BAB00001EB410105EB8104A96994F8282049882C
:10BAC0001044884226D86968134F51F83000806BC3
:10BAD00090F800804FF0FF30A4F87400852084F8BF
:10BAE0002A0094F83200CDE90007238E94F829103B
:10BAF00028460EF0E5FEE762A26F2AB141462846CD
:10BB00009047E06AB84205D1F1B22846BDE8FC4151
:10BB10000BF0A4B9BDE8FC81000004051FB5C1EB22
:10BB2000C10101EB410100EB8104616B09B9A16B1B
:10BB300061630391012103AACDE90021029104F17F
:10BB40003C0394F83220218E03F072FE04B010BD45
:10BB500070B5C1EBC10101EB410100EB81018C6BC0
:10BB6000A018202801D9FF2070BD002006E026186B
:10BB70001D5C0E44401C86F83C50C0B29042F6D387
:10BB8000886B10448863002070BD00002DE9F047E9
:10BB9000086886B03D21FCF7C1FB05002FA0DFF847
:10BBA000CCA00FC88DE80F00E9464FF0010813D074
:10BBB00068780D2810D00A280ED068B100273E46BC
:10BBC0002BA00FF0ABFF04AA2EA1681CFCF7D4FB3E
:10BBD000C0B2012814D024E026A00FF09FFF00245B
:10BBE0004E464546574605FA04F1B86C084203D064
:10BBF000315D25A00FF092FF641C102CF3DB29E0CF
:10BC000000249DF8100019F80410814205D108FAAB
:10BC100004F006431CA00FF081FF641C102CF0D32D
:10BC20007F1C2C21681CFCF779FB050001D0102F2C
:10BC3000C9DBDAF8480082B2B2420BD06FF30F00D2
:10BC400030430A49CAF848004FF4FE72203111A06F
:10BC500010F044F906B00020BDE8F0879190A0B044
:10BC6000C0D0D1F06263000000D960B13012002072
:10BC70006E6577207061636B6574206974656D73A0
:10BC80003A0D0A00255800005B3078253032585DA7
:10BC90000D0A000072656773000000002DE9F04393
:10BCA0001C4E0546894656F8250085B09846818881
:10BCB00041F003018180002401278DF800208DF8D8
:10BCC0000170ADF80440ADF8024004948DF80C709A
:10BCD00056F825008DF806400C300290694648461B
:10BCE000FDF782FF8DF800808DF80140ADF804402B
:10BCF000ADF8024004948DF80C7056F825008DF8CC
:10BD000006400C30029069464846FDF76DFF05B0CD
:10BD1000BDE8F083A4C2010870B504461C48012C9C
:10BD200002D0022C19D10CE0C26842F48052C260E9
:10BD3000C26822F48052C260826942F480528261F9
:10BD40000BE0026942F480420261026922F48042FF
:10BD50000261C26942F48042C2610E4D002055F872
:10BD60002420108055F8242007201082204600F05F
:10BD700013F855F82400018841F45171018055F8F9
:10BD80002400818821F004018180002070BD000022
:10BD900000100240A4C201082DE9F04786B00D460C
:10BDA0000646142225496846FCF794FADFF88C9081
:10BDB0004FF00008A9F10C092F4659F82600018818
:10BDC00021F0400101804446EA460120FEF7F4FFDD
:10BDD0003AF81410B0FBF1F0854206D3291AB942A3
:10BDE00003D2471B00D50F46A046641C0A2CECD397
:10BDF00059F826100A8822F038020A8059F82610CD
:10BE00000B8808F0070243EAC2020A8059F826109C
:10BE10008A8822F480728A8059F826108B8808F06C
:10BE2000080243EA42128A8059F82600018841F04C
:10BE30004001018006B0BDE8F0870000B0C20108F3
:10BE400030B50F4D55F820301C8824F040041C807C
:10BE500055F82040238811B143F0010101E023F09F
:10BE6000010112B141F0020101E021F00201218043
:10BE700055F82000018841F04001018030BD0000EC
:10BE8000A4C201082DE9F05F1F4D04468B4655F80A
:10BE90002400DDE90B760188DDF828809A4691467A
:10BEA00021F040010180002241465846FDF708FE7E
:10BEB000002239465846FDF703FE4A464146584699
:10BEC000FDF770FE524639465846FDF76BFE324686
:10BED00041465846FDF758FE324639465846FDF76A
:10BEE00053FE012241465846FDF7EAFD012239463C
:10BEF0005846FDF7E5FD55F82400018841F0400162
:10BF00000180BDE8F09F0000A4C201082DE9F05FA8
:10BF10008B46204982460025B1F900009846164616
:10BF20001B4C401C05E00EB1227852B16D1C2DB2A5
:10BF30001834854201DC102DF5DB4FF0FF30BDE8F1
:10BF4000F09F8946854201D1A9F8000006F07CFAED
:10BF500007464FF6FF714046884500D30846D9F89A
:10BF60000410B94207D9C91B814204D93918C9F84C
:10BF700004100EF027FE08EB0700C4E903B0C4E983
:10BF800001A60A986061012020702846D7E70000CA
:10BF90009422002050030020014A51601060704735
:10BFA0002C00002010B51049032808D1086B40F080
:10BFB00000700863486D40F40070486500204A68CE
:10BFC00022F0030202434A604A6802F003028242FE
:10BFD000FAD1064C30B1012803D10320FEF7ECFE64
:10BFE000206010BD0420F9E700100240000000208E
:10BFF00030B51D4CA56945F00105A56106280CD298
:10C00000DFE800F003071E220B26A56945F00405B2
:10C0100002E0A56945F00805A561144D0F2443EA27
:10C02000820255F82000082916D343688D00203D70
:10C03000AC4089002039A3438A401A43426030BD96
:10C04000A56945F01005E7E7A56945F02005E3E798
:10C05000A56945F08005DFE7036889008C40A343AC
:10C060008A401A43026030BD0010024084C20108B9
:10C0700070B506460D460020FFF794FF204C60681F
:10C0800043F6F07188436060606840F4105060606F
:10C09000206820F08070206060681A490840606065
:10C0A00060684FF4003141EA06410843606026B3FE
:10C0B000FDF79AFE00281FD10320FEF77DFE400801
:10C0C000B5FBF0F06168104A52F82000014361604E
:10C0D0000E48854203D3606840F0004060602068ED
:10C0E00040F08070206020688001FCD50220FFF7BE
:10C0F00059FF07480560002070BD0420DDE70000FF
:10C1000000100240FFFFC01F4CC1010800A24A04FA
:10C11000000000200EF0F0BB10B50CF083FA0DF01B
:10C12000FDFFBDE810400CF091BA000000B54FF0E3
:10C13000E020042101616FF07F4141610220FEF7A0
:10C140003BFE064A0449B0FBF2F04FF47A720860F5
:10C150005043486000BD00001800002040420F001E
:10C160000248016841F470010160704788ED00E009
:10C17000024951F82000406A70470000CCC2010813
:10C1800070B5044636481546062C29D2DFE804F07F
:10C190002803101C4E5AC16841F40061C160C16897
:10C1A00021F40061C160816941F40061816117E09F
:10C1B000016941F001010161016921F001010161A1
:10C1C000C16941F001010AE0016941F00201016128
:10C1D000016921F002010161C16941F00201C161FF
:10C1E000204E4FF4806056F8241008800120FEF79E
:10C1F000E3FD41001C48022C30D0052C2ED01B4AF8
:10C200000260B1FBF2F056F82410401E088556F883
:10C210002400C56256F824100020486256F8241005
:10C2200008822046BDE8704000F04AB8016941F03C
:10C2300004010161016921F004010161C16941F05A
:10C240000401CCE7016941F008010161016921F0B5
:10C2500008010161C16941F00801C0E7044ACFE764
:10C2600000100240CCC2010840000020A08601005E
:10C2700040420F000D4A10B51256012302F01F0470
:10C28000A3405209920002F1E022C2F80031074AAD
:10C290000832002952F82000818902D041F00101C2
:10C2A00001E021F00101818110BD0000C4C201083C
:10C2B000024A52F82000C16270470000CCC2010857
:10C2C000034951F82000018841F0010101807047C5
:10C2D000CCC2010838B54FF08040018A21F001013D
:10C2E00001820EF025FB0D4C1020009004226946BF
:10C2F000A0680CF09EFD20684FF4C871401CB0FB94
:10C30000F1F201FB12002060002806D10820009005
:10C3100004226946A0680CF08CFD38BDEC020020B8
:10C320000348018821F00101018000F0FDB8000000
:10C33000100400402DE9F041044690F8820048B313
:10C34000022A03D0032A01D0052A23D16269A088DA
:10C35000127A00EBC200081AC0F3C705A16805EB0A
:10C36000C506022000EB4607C85FFDF789FCA168FF
:10C37000C853A168042000EB4607C85FFDF780FCA6
:10C38000A168C853A168002001F81600294620467C
:10C39000FFF708FA0020BDE8F08110B504F018FDA1
:10C3A000072010BD41F20363C81A994270D034DCF3
:10C3B000B1F5905F74D017DC41F20503A1EB0300E7
:10C3C000994263D009DCB1F5805F59D06FF4805099
:10C3D000081857D001284FD156E011285AD01228FA
:10C3E0005AD0132848D159E041F20343C81A994260
:10C3F0005ED009DCB1F5A05F54D06FF4A0500818EE
:10C4000052D0012838D151E0A0F58070FD3851D0CC
:10C41000012851D002282FD150E0B0F5806F5FD0B5
:10C4200015DCB0F5007F53D008DCA0F58070FD3836
:10C4300048D0012848D002281ED147E0A0F540701E
:10C44000FD3847D0012847D0022815D146E0B0F585
:10C45000206F4DD008DCA0F51060FD3842D00128D7
:10C4600042D0022808D141E0A0F52060013841D037
:10C47000FC2841D0FD2841D024481060002070479E
:10C4800000203CE001203AE0022038E0032036E0C2
:10C4900016E005E0042032E0052030E006202EE022
:10C4A00007202CE008202AE0092028E00A2026E0C6
:10C4B0000B2024E00C2022E00D2020E00E201EE0C6
:10C4C0000F201CE010201AE0112018E0122016E0C6
:10C4D000132014E0142012E0152010E016200EE0C6
:10C4E00017200CE018200AE0192008E01A2006E0C6
:10C4F0001B2004E01C2002E01D2000E01E20002183
:10C500001160034901EBC000704700000000020603
:10C510006CC501089F2803D1087808B1014870470D
:10C5200000207047300009062DE9F0414FF6FF74F6
:10C5300005F08AFF204D06462049686883190022CD
:10C5400015E00878C0070FD0086998421DD84869DF
:10C55000C0B1B6FBF0F700FB1767C01B03270861EB
:10C560000F70A04200D20446521C12B21831B5F925
:10C5700000008242E5DD20466C600EF023FB0026C1
:10C580000E4C13E002200870EEE7C01A0861E8E7DD
:10C590002078810707D520F002002070A26812B130
:10C5A000E16860689047761C36B21834B5F900002F
:10C5B0008642EDDDBDE8F08150030020942200208A
:10C5C00004200FF081B905200FF07EB90C4B10B597
:10C5D00053F82020948924F400549481002953F8BE
:10C5E00020108A8A02D042F0400201E022F040028C
:10C5F0008A8253F82000818941F40051818110BD65
:10C60000E8C201080C4B10B553F82020948924F49B
:10C6100000549481002953F820108A8A02D042F0F5
:10C62000800201E022F080028A8253F82000818992
:10C6300041F40051818110BDE8C20108054A52F859
:10C6400020000288920603D5808808700020704779
:10C6500001207047E8C2010870B504001ED01C48D4
:10C66000012C02D0022C19D10CE0C26842F48042A5
:10C67000C260C26822F48042C260826942F4804291
:10C6800082610BE0026942F400320261026922F425
:10C6900000320261C26942F40032C261204600F0F9
:10C6A0002FF80C4842F20C0150F82420918150F8E8
:10C6B000240001880180084D287838B107480849CE
:10C6C00004700848FFF768FC00202870002070BD47
:10C6D00000100240E8C2010834000020440000209D
:10C6E00085AE0008B9B90008044A52F82030998094
:10C6F00052F8200001884906FCD57047E8C20108BD
:10C700002DE9F04104460D460120FEF755FB1E4E73
:10C7100056F824209189090400EBC00101EB0010B8
:10C7200001D5690000E0A900B0FBF1F16425B1FB7F
:10C73000F5F0030118096FF01807784301EB80004A
:10C7400091890F044FF0320106D501EBC000B0FB18
:10C75000F5F000F0070005E001EB0010B0FBF5F08C
:10C7600000F00F009189184393894DF6F3752B4023
:10C77000938156F82420108156F8240082890A43B8
:10C780008281BDE8F0810000E8C2010830B5214B8C
:10C7900001241B5603F01F05AC405B099B0003F10D
:10C7A000E023C3F800411B4B1B1D53F82040A58913
:10C7B00025F40055A58179B1012902D0022921D1A2
:10C7C00015E053F82010002A8A8902D042F0200296
:10C7D00017E022F0200214E053F82010002A8A8982
:10C7E00002D042F040020CE022F0400209E053F88F
:10C7F0002010002A8A8902D042F0100201E022F0C3
:10C8000010028A8153F82000818941F4005181810E
:10C81000002030BDE4C20108F0B50C46086887B0BE
:10C8200039A10DF07FF93A4D4FF4FE7705F120065E
:10C8300005F5A275C0B13748011FCDE905100A1FE3
:10C84000131FCDE903321038011F0A1F0092CDE9F2
:10C850000110131F083A30A12068FBF78DFD09284D
:10C8600006D0012007B0F0BD284605F009FC3FE0E6
:10C87000274C0022114694ED530A284607F009FD83
:10C8800094ED540A01220021284607F002FD94EDA0
:10C89000550A02220021284607F0FBFC94ED560AB7
:10C8A00000220121284607F0F4FC012294ED570AEA
:10C8B0001146284607F0EDFC94ED580A02220121AA
:10C8C000284607F0E6FC94ED590A0022022128468A
:10C8D00007F0DFFC94ED5A0A01220221284607F0F6
:10C8E000D8FC022294ED5B0A1146284607F0D1FCE1
:10C8F000294610A004F0E2FA3A4631460FA00FF0A4
:10C90000EDFA0020AEE700003D52455345540000CB
:10C91000301200209C1300203D25662C25662C2516
:10C92000662C25662C25662C25662C25662C25660E
:10C930002C2566006D61746C61620000726567731E
:10C940000000000001200EF0BFBF02200EF0BCBFAF
:10C9500003200EF0B9BF00000A480168C90701D0E2
:10C96000012101600168C90502D54FF480710160A1
:10C970000168C90302D54FF4803101600248806824
:10C980000CF058BD08640040580300200A4945F2E5
:10C9900055520A6004224A6040F2712250434FF41B
:10C9A0007A72B0FBF2F088604AF6AA2008604CF672
:10C9B000CC400860704700000030004002494AF651
:10C9C000AA20086070470000003000407047000057
:10C9D0000FB4054B10B503A9044A029802F006F9FA
:10C9E00010BC5DF814FB000079230108380000201A
:10C9F0007CB5044600201D46164600290BD0491E72
:10CA0000CDE90041044B6A462946304602F0EEF873
:10CA1000009A002111707CBD1DF9000803B4019833
:10CA20004100009850EAC12018BF04204A0D18BFE9
:10CA300040F0010040F2FF72B2EB515F08BF40F0DE
:10CA40000200012808BF052002B07047410008021B
:10CA500018BF04200A0E18BF40F001004FF07F42BB
:10CA600032EA010108BF40F00200012808BF05209A
:10CA700070470000004870472C12002010B510EEDF
:10CA8000104A4FF01A402DED028B00EB4400B0F13C
:10CA9000C85F4AD84FF0FC40B0EB440F22D2B0EE52
:10CAA000C00AF7EE000A30EEC00AF6EE000A20EEE9
:10CAB000208A18EE100A0EF033F900EE100A14F076
:10CAC000004F1DBF9FED281ADFED280AB1EE400A86
:10CAD0009FED271A08BFF0EE410AF8EE001A20EE8B
:10CAE000210A05E020EE008A9FED221ADFED220ADE
:10CAF000DFED221A9FED222A70EEC00A20EE080A0E
:10CB000008EE212ADFED1F1A48EE021A9FED1E2AB9
:10CB100008EE212ADFED1D1A48EE021ABDEC028B49
:10CB200040EE610A30EE810A10BD4FF0CC40B0EB10
:10CB3000440F82BF9FED160ABDEC028B10BD4FF073
:10CB40007F40B0EB440F05D2BDEC028BBDE8104036
:10CB500001F0F2BC012001F0DFFDBDEC028BBDE86D
:10CB6000104001F0EDBC00000000494022AA7D3ACF
:10CB7000000000000000C93F22AAFD3924FE1C3D30
:10CB8000C78AD83C1E67383D1B93993DAFAA2A3E01
:10CB9000DB0FC93F0000000070B5C1482DED020B4E
:10CBA0002DED0E8B82B0119D25F000449FEDBEDB74
:10CBB0009FEDBFEB84423EDBA4F140511098A1F100
:10CBC0007F6108430FD0BC48844202DC28D1109812
:10CBD00030B39DED100B02B0BDEC0E8B02B0BDE882
:10CBE000704001F065BC9DED100B53EC1D2B51EC1A
:10CBF000100BFBF783FF9DED100B41EC180B53EC72
:10CC00001E2B51EC100BFBF779FF53EC182BFBF7A5
:10CC1000CEFE41EC100B02B0BDEC0E8B02B070BD2D
:10CC2000012001F079FD02B0BDEC0E8B02B0BDE831
:10CC3000704001F051BCA1489FEDA18B844256DAAF
:10CC40009DED100BB4F1795F0ADA51EC100BFFF790
:10CC5000E5FE042808BF01F05FFC9DED100BDAE74C
:10CC600053EC102B51EC100BFBF748FF41EC190B68
:10CC700095480621B0EE490AF0EE690A784401F0C1
:10CC800080FB53EC192B51EC100BFBF737FF41ECF9
:10CC90001A0B8E48B0EE490AF0EE690A0421784476
:10CCA00001F06FFB53EC192B51EC100BFBF726FF37
:10CCB00053EC182BFBF77BFE41EC100B51EC1A0BDD
:10CCC00053EC102BFBF78CFFCDE900019DED000B21
:10CCD00053EC102B9DED100B51EC100BFBF70EFFDE
:10CCE0009DED101B53EC112BFBF761FED2E09DED87
:10CCF000100B51EC100B05F0D7F953EC182BFBF788
:10CD0000FAFE9FED730BCDE9000153EC102B9DED66
:10CD1000000B51EC100BFBF7F1FE41EC190B6E48C8
:10CD20000621B0EE490AF0EE690A784401F029FBC9
:10CD300053EC192B51EC100BFBF7E0FE41EC1B0BF5
:10CD40006648B0EE490AF0EE690A0421784401F021
:10CD500018FB53EC192B51EC100BFBF7CFFE53ECE7
:10CD6000182BFBF724FE41EC1C0B51EC190B0DF0BA
:10CD7000A0FF41EC180B5A489FED5BABA04222DCB0
:10CD800053EC1C2B51EC1B0BFBF72AFFCDE90001E8
:10CD90009DED000B51EC180B53EC102BFBF7AEFE86
:10CDA00053EC182BFBF703FE53EC1A2BFBF7A6FEF4
:10CDB00053EC1D2BFBF79CFE53EC1E2BFBF79BFE4D
:10CDC00041EC100B5FE08DED008B002000909DED9D
:10CDD000000B51EC180B53EC102BFBF7E8FD9DED0D
:10CDE000000B41EC1E0B53EC102B51EC100BFBF71E
:10CDF00085FE53EC192BFBF77EFE53EC1E2BFBF745
:10CE0000EFFE41EC190B53EC1C2B51EC1B0BFBF709
:10CE1000E7FE41EC1B0B53EC1A2B51EC190BFBF703
:10CE20006DFE53EC1D2BFBF766FE41EC190B53EC2A
:10CE30001A2B51EC180BFBF761FE53EC1B2BFBF785
:10CE40005DFE53EC192BFBF753FE9DED000B41ECFF
:10CE5000180B53EC1A2B51EC100BFBF74FFE9FED08
:10CE6000249B53EC192BFBF746FE41EC100B51ECC5
:10CE7000180B53EC102BFBF73BFE53EC192BFBF775
:10CE80003AFE41EC100B002D3FF7C5AE51EC100BF4
:10CE900081F0004141EC100BBDE6000000000000F5
:10CEA0000000F03F00000000075C143326A6913C10
:10CEB000182D4454FB21F93F0000F07F0000E03FB3
:10CEC000000000000000F03F00FC00000EFC00002D
:10CED000000000000000E03F52FB000060FB00008B
:10CEE0003333EF3F0000000000000000000000406E
:10CEF000182D4454FB21E93F70B59B482DED020BE2
:10CF00002DED068B079D25F00044A04218DC9748C4
:10CF1000844202DC0AD1069840B19DED060BBDECBF
:10CF2000068B02B0BDE8704001F0C2BA002DCCBF44
:10CF30009FED8F0B9FED900BBDEC068B02B070BD8B
:10CF40008F48A04215DD8F48A042D8BF4FF0FF3474
:10CF500058DD9DED060B51EC100BFFF75FFD04282B
:10CF600008BF01F0D9FA9DED060BBDEC068B02B0AF
:10CF700070BD9DED060B51EC100B05F095F8CDE959
:10CF8000060181489FED828BA0423CDD8248A04291
:10CF90001FDD00249FED82AB9DED060B53EC1A2B99
:10CFA00051EC100BFBF703FD9DED060B41EC190B4B
:10CFB00053EC1A2B51EC100BFBF7A0FD53EC182B84
:10CFC000FBF796FD53EC192BFBF70AFECDE90601A2
:10CFD00049E09DED060B012453EC182B51EC100B8E
:10CFE000FBF7E5FC9DED060B41EC190B53EC182B00
:10CFF00051EC100BFBF77CFD53EC192BFBF7F0FD0C
:10D00000CDE906012FE06848A0421FDD02249FED14
:10D01000689B9DED060B53EC192B51EC100BFBF7A5
:10D020006DFD53EC182BFBF7C2FC9DED060B41EC9C
:10D03000180B53EC192B51EC100BFBF759FD53EC6B
:10D04000182BFBF7CDFDCDE906010CE09DED060B9D
:10D05000032453EC102B9FED580B51EC100BFBF7F6
:10D06000BFFDCDE906019DED060B53EC102B51ECF5
:10D07000100BFBF743FD41EC180B53EC182BFBF79F
:10D080003DFD41EC190B4E480621B0EE490AF0EE89
:10D09000690A784401F075F953EC182B51EC100B28
:10D0A000FBF72CFD41EC180B4648B0EE490AF0EEB8
:10D0B000690A0521784401F064F953EC192B51EC0D
:10D0C000100BFBF71BFD41EC100B51EC180B53EC54
:10D0D000102B002C0EDAFBF76AFC9DED061B53ECBF
:10D0E000112BFBF70BFD9DED061B53EC112BFBF7F2
:10D0F00002FD35E0FBF75BFC9DED061B53EC112BAD
:10D10000FBF7FCFC41EC100B2F48784400EBC4000B
:10D1100090ED001B51EC100B53EC112BFBF7E8FCCE
:10D120009DED061B53EC112BFBF7E2FC41EC100BC1
:10D130002648784400EBC40090ED001B51EC100B26
:10D1400053EC112BFBF7D7FC41EC100B002DA2BFC9
:10D15000BDEC068B02B070BD51EC100B81F00041AC
:10D1600041EC100B01E70000000010440000F07FCC
:10D17000182D4454FB21F93F182D4454FB21F9BFCD
:10D180000000DC3F0000203E0000F33F00000000F4
:10D19000000000000000F03F0000E63F000000003B
:10D1A000000000000000004000800340000000007C
:10D1B000000000000000F83F000000000000F0BF89
:10D1C000A2F8000058F80000E2F700009AF700000B
:10D1D00070B56B4E2DED040B2DED028B82B0DDF89A
:10D1E0001CC0DDE905235C422CF000411C4341EAF0
:10D1F000D474049D22F00040B44205D86C422C4304
:10D2000040EAD474B4420BD99DED061B9DED040B8E
:10D2100002B0BDEC028B04B0BDE8704001F052B921
:10D22000ACF14054A4F17F641C430BD0022404EA07
:10D23000AC7444EAD27405439FED538B9FED542B9D
:10D2400007D015E09DED040B51EC100B02F040FDF2
:10D2500042E0002C11BF012C9DED040B02B0BDEC8F
:10D26000028B04BF04B070BD022C38D0032C3BD01D
:10D270000B439FED491B9FED4A0B0AD0B14218D1D9
:10D28000B04209D121F0804120F080400791059003
:10D290000FE0002A15DA10E0434B7B44002C08BF56
:10D2A00093ED000B0DD0012C10D0022C17D0032CC5
:10D2B0001AD0B0421DD1002A03DAB0EE410AF0EED6
:10D2C000610A02B0BDEC028B04B070BD93ED000B9F
:10D2D00051EC100B81F0004141EC100BF1E7B0EE86
:10D2E000480AF0EE680AECE7B0EE420AF0EE620A95
:10D2F000E7E7401A00153C28C8BF8DED000B19DC8C
:10D30000BCF1000FBEBF10F13C0F9FED290B8DED5E
:10D31000000B0FDB9DED060B53EC102B9DED040B6A
:10D3200051EC100BFBF75CFC04F0BEFE02F0D0FCED
:10D33000CDE90001002C08BF9DED000BC1D0012CF0
:10D3400010D0022C9FED1C0B53EC102B9DED000B0D
:10D3500051EC100B0DD0FBF7CBFB53EC182BFBF76C
:10D36000C7FBB9E7019880F0004001909DED000BEC
:10D37000A7E7FBF7BDFB53EC182BFBF7BCFBABE7B8
:10D380000000F07F00000000182D4454FB210940EC
:10D39000182D4454FB2109C0182D4454FB21F9BF1A
:10D3A000182D4454FB21F93F52F700000000000003
:10D3B0000000000000000000075C143326A6A13C1A
:10D3C00010EE101A08B5444A6846B2EB410F28D94E
:10D3D0004FF0E640B0EB410F94BF00204FF0FF301C
:10D3E00000900098002861DB60EE000A10F0010F49
:10D3F00045D010F0020FDFED391A9FED391A00EE1B
:10D40000E11ADFED381A40EE811A21EEA01AF0EE93
:10D41000400A40EE010A08BFF1EE600AB0EE600A71
:10D4200008BD314B21F0004293423CD911F0004F2E
:10D43000DFED2E0A20EE201ADFED2D0A19BF31EEA6
:10D44000601A71EE200A31EE201A71EE600ABDEE0C
:10D45000E01A11EE100A9FED271A00F0030000EE0B
:10D46000C10A9FED251A009000EEC10A9FED231A14
:10D4700000EEC10A9FED221A00EEC10AB1E79FED4E
:10D48000211A9FED210A10F0020F00EE810A9FED94
:10D490001F1A00EE801AB7EE000A00EE810A18BFCC
:10D4A000B1EE400A08BD01F05BF89AE710EE100AF1
:10D4B0004000B0F17F4F3CBFB7EE000A08BD07D176
:10D4C0004FF0010001F028F9BDE8084001F038B83C
:10D4D000BDE8084001F030B8B61F927E336D4C397C
:10D4E000DA82083CA0AA2ABE490E494683F9223FA7
:10D4F0000000004B0000C93F00A0FD390020A2330E
:10D500001A61342CB93AB2BACA9F2A3DDDFFFFBE78
:10D510002DED020B019820F0004001909DED000BD5
:10D5200002B07047000000002DE9F04D2DED040B16
:10D530002DED0E8B96B0DDE92550279CDDF890A0EF
:10D5400025F0004624F00048BAF1000F14BF012175
:10D55000002101EB4502FC4953184A1093422AD39B
:10D56000002814BF0123002303EB44030B44F749B5
:10D570008B4220D358EA00019FEDF59B76D0DFF86F
:10D58000D8B35D4503D1BAF1000F05D188E0BAF1F7
:10D59000000F08BF002100D0012101EB450111F56A
:10D5A000001F08D8002814BF0121002101EB44010D
:10D5B00011F5001F0BD99DED261B9DED240B16B018
:10D5C000BDEC0E8B04B0BDE8F04D00F07BBF002732
:10D5D000002DBCBFE149884521DAE1498845A8BF53
:10D5E00002271CDAC3451ADCDE4901EB2851142955
:10D5F00008DDC1F1340220FA02F101FA02F282429E
:10D600000DD108E058B9C1F1140228FA02F101FA6B
:10D6100002F2424503D101F00101C1F1020756EACD
:10D620000A0124D1002C22DA002D18BF022F01D0CC
:10D63000012F0AD0022001F06FF816B0BDEC0E8B5E
:10D6400004B0BDE8F04D00F01BBF022001F064F80B
:10D6500000F016FF51EC100B81F0004141EC100B73
:10D6600016B0BDEC0E8B04B0BDE8F08D18E09FED58
:10D67000BEAB9FEDBF8B002871D1B848804522D149
:10D6800005F1804010F5801008BFBAF1000F07D0F7
:10D69000B3450ADC002CA8BF9DED260BE0DA0DE0B7
:10D6A000B0EE490AF0EE690ADAE7002C06DA9DEDE1
:10D6B000260B51EC100B81F000416FE0AE4878442E
:10D6C00090ED000BCCE7D8454DD1002C48DA2EB1B7
:10D6D00086423AD1BAF1000F42D126E0BAF1000FEA
:10D6E00013D0022001F018F800F006FF8DED020BB8
:10D6F0009DED240B8DED000B10EE900A039961F364
:10D700001E0003909DED020BAAE78DED02AB9DED8F
:10D71000240B1AEE901A10EE900A8DED000B61F3B7
:10D720001E0003909DED020B9AE78DED028B9DED9F
:10D73000240B18EE901A10EE900A8DED000B61F399
:10D740001E0003909DED020B8AE709DA9DED240B84
:10D7500051EC190B53EC102BFBF742FA1EE020E0C2
:10D760009DED240B7CE786421BDAB4F1804F0DD08F
:10D77000A4F10050B0F1FF5013D1002D11DB9DED4D
:10D78000240B51EC100B0DF094FA07E09DED240BE7
:10D7900053EC102B51EC100B00F0C2BC41EC100B01
:10D7A0005EE79DED240B51EC100B04F07DFCBAF10B
:10D7B000000FCDE90E0142D19FED710B46B3A6F1EA
:10D7C000E040B0F17F600CD05E4538D1002D00DA2A
:10D7D000A7B3022F0CBF01204FF0FF30FBF76FFA09
:10D7E000DCE7002D01DD002C0DDA002D01DD002C21
:10D7F0001FDB002D16DA002C14DB012F08BF9FED74
:10D80000620B3FF42DAFB0EE4A0AF0EE6A0A27E74A
:10D81000022F18BF002D0CD0012F0AD1002DFFF6CA
:10D820001FAF06E0002DB8BF002C08DA012F3FF42F
:10D8300017AFB0EE480AF0EE680A11E71BE00120CE
:10D8400000EBE57050EA070115D0791EB0EE498A69
:10D85000F0EE698A084308BF9FED4D8B4E480025C6
:10D86000804570DD4D494E48884514DDB0420DDBE2
:10D87000002C19DB2FE0012000F04EFF16B0BDECAC
:10D880000E8B04B0BDE8F04D00F026BEB34502DCBF
:10D89000002C09DC1FE0864202DA002C1BDA03E0D0
:10D8A0005E452BDD002C16DD022000F035FF00F078
:10D8B00023FE8DED020B53EC1A2B51EC180BFBF7EA
:10D8C0001DF9CDE900010399019861F31E00039051
:10D8D0009DED020BC4E6022000F01EFF00F01CFECE
:10D8E00010EE901A18EE900A8DED020B8DED008B64
:10D8F00061F31E0003909DED020BB1E69DED0E0B52
:10D9000053EC192B51EC100BFBF7F2F89FED260BA3
:10D91000CDE9080153EC102B9DED080B51EC100BD9
:10D92000FBF7ECF89FED221B53EC112BFBF7E3F810
:10D930009DED081B53EC112BFBF7E0F89FED1E1B30
:10D9400053EC112B3CE08CE0FFFF1F00FFFF0F00AA
:10D95000000000000000F03F0000F03F0000F07FFA
:10D960000000404301FCFFFF000000000000F07FCA
:10D9700000000000000000002EF300000000000086
:10D980000000000000000080000000000000F0FF28
:10D99000000000000000F0BF0000E0410000F04384
:10D9A000FFFFEF3F00000000000000000000D03F3C
:10D9B000555555555555D53F000000000000E03F36
:10D9C000FBF799F89DED080B41EC1A0B53EC102B6B
:10D9D00051EC100BFBF792F853EC1A2BFBF78EF877
:10D9E00041EC1A0B9FEDFE0B53EC102B9DED080B39
:10D9F00051EC100BFBF782F841EC1B0B9FEDFA0B7F
:10DA000051EC1A0B53EC102BFBF778F841EC1A0B86
:10DA10009FEDF70B53EC102B9DED080B51EC100B09
:10DA2000FBF76CF853EC1A2BFBF762F841EC1A0B7E
:10DA300051EC1B0B53EC1A2BFAF7B9FF0690CDE90A
:10DA400006519DED060B53EC1B2B51EC100BFBF715
:10DA50004FF853EC1A2BFBF74EF841EC100B00F08B
:10DA6000A1B90020B6F5801F0EDA9FEDE30B53EC51
:10DA7000102B9DED0E0B51EC100BFBF73FF8CDE991
:10DA80000E016FF034000E4600EB2650A0F2FF3777
:10DA9000C6F31300DA4940F07F6646F040568842EC
:10DAA000D8BF002408DDD7498142C8BF012403DC68
:10DAB0000024A6F580167F1CD348784400EBC400F0
:10DAC0000F9690ED00CB9DED0E0B53EC1C2B51EC03
:10DAD000100BFBF70DF89DED0E0B41EC1B0B53ECFF
