:020000040800F2
:10000000581E002065010008B11500086B020008A9
:10001000710100087301000875010008000000006C
:100020000000000000000000000000007701000850
:100030007901000800000000B7010008AD1D0008AC
:100040007F0100087F0100087F0100087F01000890
:100050007F010008D11C0008C51200080513000824
:100060007F0100087F010008151300087F010008C8
:100070009D100008A3100008A9100008AF10000888
:10008000B5100008BB1000087F0100086F220008AF
:10009000712200087F0100087F0100082513000875
:1000A0007F0100087F0100087F0100087F01000830
:1000B0007F0100087F0100087F0100087F01000820
:1000C0007F0100087F0100087F0100087F01000810
:1000D0007F010008192100081F21000825210008C0
:1000E000D51200087F0100086D2200087F0100087A
:1000F0007F0100087F0100087F0100087F010008E0
:100100007F0100087F0100087F0100087F010008CF
:10011000051E00080D1E00087F0100087F01000871
:100120007F0100087F010008C1100008C710000807
:100130007F0100087F0100087F0100087F0100089F
:100140007F0100087F0100087F0100087F0100088F
:10015000DFF80CD000F08EFD00480047AD5C0008D1
:10016000581E00200648804706480047FEE7FEE785
:10017000FEE7FEE7FEE7FEE7FEE7FEE7FEE7FEE757
:10018000F51D000851010008EFF3108072B67047AA
:1001900080F310887047434A1368012B04D04FF056
:1001A00001031360404A1060404A116040484FF01C
:1001B000805101607047EFF3108272B639480168D0
:1001C00051B34FF0000101603748016891B1EFF37E
:1001D00009811EF0100F08BF21ED108B21E9F00FEF
:1001E0004FF000041EF0100F08BF012441F8044D29
:1001F000006801602D490968096808C9B1E8F00F75
:10020000002B18BFB1EC108B81F309884EF0100E53
:10021000002B18BF2EF0100E82F310884EF0040E43
:10022000704722490860EFF3148222F0040282F33F
:1002300014881D494FF0000008601A494FF0010072
:1002400008601C484FF47F01D0F8002041EA020109
:10025000016017484FF0805101601748006800683E
:1002600080F3088861B662B670471EF0040F0CBFB9
:10027000EFF30880EFF3098020E9F00F40F804ED78
:1002800040F804ED1EF0040F0CBF80F3088880F3E3
:10029000098800B506F046FF5DF804EB4EF0040E49
:1002A00070470000A8030020A0030020A403002042
:1002B00004ED00E020ED00E008ED00E040EA01037D
:1002C0009B0703D009E008C9121F08C0042AFAD20C
:1002D00003E011F8013B00F8013B521EF9D27047D0
:1002E000D2B201E000F8012B491EFBD27047002278
:1002F000F6E710B513460A4604461946FFF7F0FF25
:10030000204610BD421E12F8013F002BFBD111F810
:10031000013B02F8013B002BF9D1704710B50446B0
:1003200004E00B7800F8013B03B1491C521EF8D2DF
:10033000204610BD421C10F8011B0029FBD1801A79
:10034000704710B5002200E0521C835C8C5CA34215
:1003500001D1002BF8D1D8B2E1B2401A10BD03464A
:1003600011F8012B00F8012B002AF9D1184670472B
:1003700030B505460020034600E05B1C934205D2E1
:10038000EC5CC85C201A01D1002CF6D130BD000015
:100390000FB400B58DB010A909900B9000914FF0EB
:1003A000FF300A9000200C90054806900548079001
:1003B0006A4609A80F9900F001FA0DB05DF814FB28
:1003C000D9070008F70700082DE9FF5F1D464FF029
:1003D000FF3BD5E9014691465F464FF00008A96909
:1003E0007F1C01988847296A824688470028F6D1F1
:1003F000BAF1FF3F0CD024F4C064002E19DD600672
:1004000014D5BAF12B0F09D0BAF12D0F0ED103E09C
:10041000584604B0BDE8F09F44F48064A9697F1C8D
:1004200001988847761E8246002E02DDBAF1300F11
:1004300003D0B9F1000F26D032E0A969761E44F44A
:1004400000747F1C019888478246002E05DDBAF1B2
:10045000780F06D0BAF1580F03D0B9F1000F10D0C1
:100460001EE0B9F1000F02D0B9F1100F18D1A9693F
:10047000761E24F400747F1C019888478246102061
:1004800002E0082000E00A20814609E008FB090894
:10049000A969761E44F400747F1C0198884782463F
:1004A000002E05DD4946504600F073F90028EDDACC
:1004B000E96901988847A00502D46FF00100A8E718
:1004C000E00725D1600613D5600502D5C8F100000C
:1004D00000E0404629680A1D2A600968220501D506
:1004E000087015E0220701D5088011E008600FE0D0
:1004F0002868011D29600068210502D580F8008068
:1005000006E0210702D5A0F8008001E0C0F80080D5
:1005100038467EE72DE9F05F93460F468046044655
:10052000002601F0FFFED0F80090824614F8015B2F
:100530002DB100F021F90068405DC007F6D12B2DE8
:1005400002D02D2D1AD0641E0021CAF800105A4680
:100550003946204600F060F9014627B13868A042CC
:1005600001D1C7F80080DAF80000022809D0CAF8E3
:100570000090700505D54842BDE8F09F46F48066BE
:10058000E2E70846F8E770B5064601F0CBFE0468DE
:1005900005460A220021304600F08DF92C6070BD1E
:1005A0002DE9F04D81EA030404F0004B21F00045F1
:1005B00014464FF0000A23F0004150EA050220D013
:1005C00054EA01021DD0C5F30A570246C5F31303CE
:1005D000C1F31300C1F30A5640F4801543F48013AD
:1005E000A7EB0608101BD64608F2FD3873EB050092
:1005F00002D308F1010801E092185B41B8F1000F45
:1006000003DA00200146BDE8F08D00204FF4801190
:10061000064684460EE0171B73EB050705D3121B35
:1006200063EB050306434CEA010C49084FEA30002E
:1006300092185B4150EA0107EDD152EA030012D053
:1006400082EA040083EA0501084305D0101BAB4190
:1006500006D20122002306E000224FF0004302E010
:100660006FF0010253101AEB06004CEB085110EB2F
:100670000A0041EB0B01BDE8F04D00F054B90EB596
:1006800040F2334102910021CDE900110A460B46A8
:1006900000F058F903B000BDC1F30A5210B5C1F320
:1006A000130140F2FF3341F480119A4201DA002035
:1006B00010BD40F233439A42A2F2334203DC52426D
:1006C00000F04AF810BD904010BD30B50B46014611
:1006D00000202022012409E021FA02F59D4205D3E1
:1006E00003FA02F5491B04FA02F52844151EA2F18B
:1006F0000102F1DC30BD2DE9F05F05460020924695
:100700009B4688460646814640241BE028464146D3
:100710004746224600F020F853465A46C01A9141F7
:1007200010D311461846224600F0B6FA2D1A67EB90
:1007300001084F4622460120002100F0ADFA17EBD8
:1007400000094E41201EA4F10104DFDC4846314679
:100750002A464346BDE8F09F202A04DB203A21FACE
:1007600002F00021704721FA02F3D040C2F12002CA
:1007700091400843194670470048704748A7000851
:1007800010B50446FFF7F8FF0068005D00F00100B7
:1007900010BD3A2800D2303820F02002412A01D37F
:1007A000A2F13700884201D34FF0FF3070470000BC
:1007B000026811441378016018467047D1600449FB
:1007C00051610449116200211161114600F086BA9D
:1007D000B107000881070008426842B1016811F8BA
:1007E000013B23B1521EC0E9001218467047012197
:1007F000C160881E704742685AB1C368016843B936
:1008000083688B4205D0491E521CC0E900120020AB
:1008100070474FF0FF3070472DE9F05F8246007857
:10082000002715468B460AF10104B946302801D04D
:100830009DB113E014F8010B0127782803D0582844
:1008400001D045B10AE00DB1102D07D100271025C8
:1008500014F8010B02E0082500E00A250026B04646
:100860000EE005FB080005FB06F1012701EB104631
:100870001FFA80F8B6F5803F00D3B94614F8010B93
:100880002946FFF786FF0028EBDABBF1000F05D001
:100890000FB1641E00E05446CBF80040B9F1000FE0
:1008A00006D001F03FFD02210160C81EBDE8F09FA7
:1008B00048EA0640FAE72DE9F04791460F468046A0
:1008C0000446002614F8015B2DB1FFF755FF0068C0
:1008D000405DC007F6D12B2D02D02D2D18D0641EFF
:1008E0004A4639462046FFF797FF27B13968A142AB
:1008F00001D1C7F8008071054FF002040BD54042CA
:10090000002803DD01F00EFD0460A007BDE8F087BC
:1009100046F48066E4E70028F8DA01F003FD04609D
:100920006FF00040F2E710B5141E73F1000408DA0E
:10093000401C41F1000192185B411A4301D120F0A3
:10094000010010BD2DE9F04D92469B4611B1B1FA60
:1009500081F202E0B0FA80F22032904600F09CF979
:1009600004460F4640EA0A0041EA0B0153465A4644
:10097000084313D0114653EA010019D0C8F14002D0
:100980005046FFF7E9FE05460E4650465946424698
:1009900000F082F9084305D0012004E020463946E2
:1009A000BDE8F08D0020054346EAE0762C4337434E
:1009B0000A986305E40AA0EB08000022FD0A44EA55
:1009C00047540A3002D500200146E9E70105101915
:1009D0006941DDE9084500196941BDE8F04DA2E72C
:1009E0002DE9FE4F804681EA0300C00F0C460090BF
:1009F00021F0004123F00045B8EB0200A94105D2E7
:100A00004046214690461C460B46024623F00040D5
:100A1000104347D0270DC7F30A00C3F30A510290D1
:100A2000401A019040286BDAC3F3130040F4801B96
:100A30000098924620B10023D2EB030A63EB0B0B24
:100A400001985946C0F14002504600F025F906468B
:100A50000D4650465946019A00F02DF910EB08005A
:100A60006141002487EA115284EAE7731A4340D0B7
:100A7000009A62B3019A012A4FEA075215DC001B63
:100A800061EB02014FF0004202EA0752CDE9004259
:100A9000001C41F5801132462B46FFF753FF03B08F
:100AA000BDE8F08F40462146F9E7001B61EB0201EB
:100AB000001C41F5801300185B412018A2F50017B7
:100AC00047EB030140EAD570B6196D4111E06D089E
:100AD0004FEA360645EAC0754FEA0752001B61EB44
:100AE0000201001C41F5801149084FEA300000194D
:100AF000514132462B4603B0BDE8F04FFFF713BF1C
:100B00000098012240000023D0EB020263EBE07367
:100B1000009821464FEAE074B8EB000061EB040155
:100B2000E9E783F000435BE781F0004158E72DE9F6
:100B3000FE4F81EA030404F0004421F000410094D8
:100B40004FF0000B23F0004350EA01045ED052EA5C
:100B500003045BD0C3F30A54C1F30A552C44A4F236
:100B6000F3340194A0FB0254C1F3130141F480114A
:100B7000C3F3130343F4801301FB024400FB034E51
:100B8000840A970A44EA815447EA8357A4FB07681A
:100B900002958D0A05FB07854FEA932C04FB0C5444
:100BA0002705029D4FEA065847EA1637B5EB0805B8
:100BB0006EEB070C870E920E47EA811742EA83120A
:100BC000A7FB0201B6EB0B0164EB00042B0D43EA1B
:100BD0000C335E1844EB1C50DA465146E7FB020129
:100BE000C5F313044FEA0B3343EA14534FEA0432BC
:100BF000019C43EA0603A4F10C040294009CCDE995
:100C000000B4FFF79FFE03B0BDE8F08F002001465F
:100C1000F9E7C1F30A52C1F3130140F2FF3341F483
:100C200080119A4202DA00200146704740F23343B5
:100C30009A42A2F2334202DC5242FFF78DBD00F02D
:100C40002BB8000030B5041E71F1000404DB4FF036
:100C50000044404264EB0101141E73F1000405DB03
:100C60001C464FF00043524263EB0403994208BF15
:100C7000904230BD064C074D06E0E06840F00103AD
:100C800094E8070098471034AC42F6D3FFF764FAB3
:100C900054B1000874B10008202A04DB203A00FA9D
:100CA00002F1002070479140C2F1200320FA03F3C3
:100CB000194390407047202A06DBCB17203A41FAAF
:100CC00002F043EAE07306E041FA02F3D040C2F1D9
:100CD0002002914008431946704700002DE9F34F68
:100CE0008BB04FF0000801F10C000C464FF0010BE7
:100CF00046460DF1080A019062690121019890476A
:100D0000051E2DD0252D2CD0216A8847C0B16269DF
:100D1000012101989047216A88470028F7D1411E98
:100D200062690198904700E0761CA1690B9888479A
:100D3000216A88470028F7D1E1690B988847DBE7EB
:100D4000A1690B9888470746A84201D1761CD3E7D2
:100D5000E1690B9888477F1C02D1B8F1000F6FD072
:100D600046E1002762693D463946019890472A28A6
:100D700004D162690121019890470125DFF884922E
:100D80006269012101989047A0F130010A290AD235
:100D90004F45E5DC07EB870100EB4107303FDFD42F
:100DA00045F01005ECE7E90601D46FF000476C2828
:100DB0000AD04C2814D0682815D06A280DD0742881
:100DC0001CD07A281AD01DE0626901210198904751
:100DD0006C2802D045F0040514E045F002050DE052
:100DE00045F020050AE062690121019890476828D2
:100DF00002D045F0080505E045F40065626901216F
:100E000001989047C4E9015765283DD019DC58285E
:100E10007AD00CDC452837D004DC252826D04128A0
:100E200031D131E046282FD047282CD12CE05B2847
:100E300077D0612828D063287CD0642823D15AE059
:100E4000D0E06F2848D008DC66281DD067281BD06A
:100E5000692821D06E2816D127E0702845D0732844
:100E600068D0752847D078280DD14DE0A1690B983E
:100E70008847054625283FF469AFE1690B98884704
:100E80006D1C3FF46AAFB3E023466A466FF0010081
:100E90000B99AFF300809EE045F040006060A8072A
:100EA00023464FF0000236D43EE0E8077FF447AF18
:100EB0002068011D21600068290501D506701BE727
:100EC000290701D5068017E7A90703D5F117C0E95F
:100ED000006111E706600FE745F040006060A80779
:100EE00023464FF0080216D41EE040F60E0125EA14
:100EF0000100606016E045F040006060A8072346EE
:100F00004FF00A0207D40FE045F040006060A807E8
:100F100008D5234610226FF001000B99AFF3008033
:100F200059E007E0234610226FF001000B99FFF70C
:100F30004BFA50E04FF000094F464B46632802D071
:100F40005B2806D040E0E80601D40120A06001271C
:100F50003AE062690121019890475E2805D14FF07F
:100F600001096269494601989047216939B9002110
:100F70000A46534643F82120491C0829FADBB0B33E
:100F8000216969B9C11700EBD16253110AEB8301E2
:100F900022F01F02821A01200B68904003430B606D
:100FA00062690121019890475D28E8D1B9F1000FED
:100FB00009D00020514651F82020D24341F820208A
:100FC000401C0828F7DB02AB224600976FF00100B7
:100FD0000B99AFF3008000280CDA401C08D1BBF15C
:100FE000000F05D04FF0FF300DB0BDE8F08FFFE7E8
:100FF0004046F9E7E90701D108F1010806444FF03E
:10100000000B79E6CCCCCC0C70B58C1810F8015BD9
:1010100015F0070301D110F8013B2A1106D110F891
:10102000012B03E010F8016B01F8016B5B1EF9D195
:101030002B0705D40023521E0DD401F8013BFAE71B
:1010400010F8013BCB1A921C03E013F8015B01F886
:10105000015B521EF9D5A142D8D3002070BD00001B
:101060000C484FF4FA51826942F4800282610A4AC4
:1010700041F636701060101D0160074941F64A7054
:101080000831086004480838016841F00301016034
:1010900070470000001002400C580140032008F087
:1010A00065BA032008F02ABA012008F05FBA0120CF
:1010B00008F024BA022008F021BA022008F056BA3B
:1010C000042008F01BBA042008F050BA012809D007
:1010D00002280DD1074850F8210001682AB141F0DB
:1010E000010104E003484038F5E721F00101016007
:1010F000704700006CA2000802460020012A06D0BA
:10110000022A03D1034850F8210040687047014883
:101110004038F8E76CA200080A494FF0FF32012876
:1011200008D0022805D1486940F00200486106480D
:1011300002607047486940F001004861034842601E
:10114000704700000010024004040240000002400A
:1011500070B515460C4601280ED0022817D10C4850
:10116000005700F02AFA0A48503050F8240001686D
:1011700055B141F0020109E00548801D005700F01B
:101180001CFA03481030F0E721F00201016070BD45
:101190001CA20008012806D0022803D1034850F8F9
:1011A00021004260704701484038F8E76CA200080F
:1011B000012806D0022803D1034850F82100C2605C
:1011C000704701484038F8E76CA2000810B50B469C
:1011D000044609780022FFF779FF43F6D071012C0D
:1011E00028D0022C25D11C7815489A6850F8244044
:1011F000A2601C781A6950F82440E2601C785A8872
:1012000050F8244062601A7850F8220002688A433D
:1012100099880C0244EA81211C7B41EAC4119C7923
:101220005B7841EA841141EA0311114341F4805192
:10123000016010BD02481C7840389A68D6E700006B
:101240006CA2000800F0BCBD30B51C48445601201B
:1012500004F01F0500FA05F56409A40004F1E02478
:10126000C4F80051164C2568884005432560144990
:1012700014390C680BB1044300E084430C6010493E
:101280000C394AB10C1D012A0DD0022A0AD10A6874
:101290008BB102430A6007E00A680BB1024300E029
:1012A00082430A6030BD13B12168014301E0216827
:1012B0008143216030BD82430A60F8E794A20008B0
:1012C0001404014002480021007804F061BF0000CE
:1012D000691600202DE9F0410A24084E084F012527
:1012E000306805FA04F1084203D0385D214604F065
:1012F0004FFF641C102CF3DBBDE8F08114040140A7
:101300006916002002480121407804F041BF000026
:101310006916002002480421007904F039BF00005A
:10132000691600202DE9F0410524084E084F0125DB
:10133000306805FA04F1084203D0385D214604F014
:1013400027FF641C0A2CF3DBBDE8F0811404014084
:10135000691600200348416941F01001416100F025
:1013600003B80000001002400348024941600349ED
:10137000416070472301674500200240AB89EFCDF3
:1013800070B505462D4B14460E46062D0CD2DFE8EF
:1013900005F0030714180B1C986940F0040002E0E4
:1013A000986940F0080098610A2C44D2DFE804F004
:1013B000111F18432A4343432A3E986940F0100006
:1013C000F1E7986940F02000EDE7986940F080006F
:1013D000E9E700230122284600F0A8FC00221EE0D5
:1013E00000230222284600F0A1FC012205E0002390
:1013F0000222284600F09AFC00223146284600F0DE
:1014000029F818E003230022284600F08FFC042C62
:101410000AD000223146284600F01CF8012231464D
:10142000284600F03DF806E00122F3E702230122FE
:10143000284600F07BFC284670BD000000100240EA
:10144000034A52F820008068C84000F0010070474D
:1014500084A2000801238B40034951F820000AB1FF
:10146000036170474361704784A200080A4A10B5BF
:10147000936943F0010393618A0721F0030407494C
:10148000120F21440F238C6893409C438C608B681F
:10149000904003438B6010BD0010024000000140EB
:1014A00030B512B10024022301E0012400230D4ACB
:1014B0000F2552F820008A00082909D34168203AF4
:1014C000954043EA8403A94393400B43436030BDF6
:1014D0000168954043EA8403A94393400B430360AA
:1014E00030BD000084A20008012A00D00022FFF7CE
:1014F000B1BF000030B5224C012102226368C3F362
:1015000003135BB1082B04D0092B04D00A2B05D19F
:1015100003E0022102E0042100E008216368C3F334
:10152000022333B1042B09D0052B04D0062B05D19F
:1015300003E0012202E0042200E00822114B05280A
:101540001B681AD2DFE800F00B03080D0F00B3FB95
:10155000F1F0B0FBF2F030BDB3FBF1F030BD184656
:1015600030BD094830BD206B800104D5606D800519
:1015700001D5064830BD064830BD002030BD000012
:101580000010024000000020001BB700006CDC02CD
:1015900000127A0008B5054B6946187800F09EFCE9
:1015A0000028F9D19DF8000008BD00008C00002043
:1015B00010B500F001F810BD704700F01F020121C6
:1015C00091404009800000F1E020C0F80011704710
:1015D00000F01F02012191404009800000F1E0204D
:1015E000C0F80011704700000549086810F8082D80
:1015F00010F8043F1A4400F8042C086070470000FB
:10160000F80100200349086870E902231A4404C065
:1016100008607047F80100200549086830F8082D77
:1016200030F8043F1A4420F8042C0860704700008A
:10163000F80100200549086810F8082D10F8043F4B
:101640001A4000F8042C086070470000F8010020E0
:101650000349086870E902231A4004C00860704713
:10166000F80100200549086830F8082D30F8043FDB
:101670001A4020F8042C086070470000F801002090
:101680000348006810F8041DC9430170704700004A
:10169000F80100200348006850F8041DC9430160A8
:1016A00070470000F80100200348006830F8041D6E
:1016B000C943018070470000F801002070B57A4AE4
:1016C0009CB07A4D10680CAB10F8011B10602A68B2
:1016D0000020121F2A6008E00E1A03EB860652F85B
:1016E000044946F8044C401C2A608842F4D314682C
:1016F00011297DD2DFE801F0090B0E12171C232CF3
:1017000036404D5C6C7D90A5BB00002000E00C983D
:10171000A047C3E0DDE90C01A047BFE00CAB93E8B4
:101720000700A047BAE00CAE96E80F00A047B5E06E
:1017300010980CAE009096E80F00A047AEE0DDE9EF
:1017400010010CAECDE9000196E80F00A047A5E01E
:1017500010AB0CAE93E807008DE8070096E80F0089
:10176000A0479BE010AE96E80F008DE80F000CAE8E
:1017700096E80F00A04791E011AE96E80F0001AE89
:1017800086E80F0010980CAE009096E80F00A04776
:1017900084E012AE96E80F0002AE86E80F00DDE9A5
:1017A00010010CAECDE9000196E80F00A04775E0EE
:1017B00013AE96E80F0003AE86E80F0010AB0CAE38
:1017C00093E807008DE8070096E80F00A04765E062
:1017D00014AE96E80F0004AE86E80F0010AE96E84F
:1017E0000F008DE80F000CAE96E80F00A04755E003
:1017F00053E015AE96E80F0005AE86E80F0011AE77
:1018000096E80F0001AE86E80F0010980CAE00902D
:1018100096E80F00A04741E016AE96E80F0006AE2E
:1018200086E80F0012AE96E80F0002AE86E80F00C1
:10183000DDE910010CAECDE9000196E80F00A047EC
:101840002CE017AE96E80F0007AE86E80F0013AE47
:1018500096E80F0003AE86E80F0010AB0CAE93E8DD
:1018600007008DE8070096E80F00A04716E018AEC5
:1018700096E80F0008AE86E80F0014AE96E80F0059
:1018800004AE86E80F0010AE96E80F008DE80F005A
:101890000CAE96E80F00A04700E00020296801C1C7
:1018A00029601CB070BD0000FC010020F801002080
:1018B0000549086810F8082D10F8043FB2FBF3F250
:1018C00000F8042C08607047F801002004490868FB
:1018D00070E9022392FBF3F204C008607047000035
:1018E000F80100200549086830F9082D30F9043F57
:1018F00092FBF3F220F8042C08607047F8010020F6
:101900000549064A08680378106800F8043B10602F
:101910000868401C08607047FC010020F8010020A6
:1019200006490868C278036862F31F63044A1068B6
:1019300008C010600868001D08607047FC010020A6
:10194000F801002007490868C278006862F31F6048
:10195000054A0378106800F8043B10600868001D11
:1019600008607047FC010020F8010020034800686F
:1019700050F8041D0978017070470000F80100203C
:1019800007490868C278006862F31F60054A036867
:10199000106808C010600868001D086070470000EB
:1019A000FC010020F80100200348006850F8041DE5
:1019B0000968016070470000F801002007490868C5
:1019C000C278006862F31F60054A0388106820F837
:1019D000043B10600868001D08607047FC0100208F
:1019E000F80100200348006850F8041D09880180B0
:1019F00070470000F80100200549064A086803887E
:101A0000106820F8043B10600868801C086070476C
:101A1000FC010020F8010020074B10B5186810F8F1
:101A2000081D10F8042FB1FBF2F402FB141100F8AA
:101A3000041C186010BD0000F8010020054B10B513
:101A4000186870E9021291FBF2F402FB141102C053
:101A5000186010BDF8010020074B10B5186830F968
:101A6000081D30F9042F91FBF2F402FB141120F849
:101A7000041C186010BD0000F8010020054908682A
:101A800010F8082D10F8043F12FB03F200F8042CA4
:101A900008607047F80100200349086870E90223D4
:101AA0005A4304C008607047F801002005490868DF
:101AB00030F8082D30F8043F12FB03F220F8042C14
:101AC00008607047F8010020704700000549086869
:101AD00010F8082D10F8043F1A4300F8042C086091
:101AE00070470000F80100200349086870E90223EC
:101AF0001A4304C008607047F801002005490868CF
:101B000030F8082D30F8043F1A4320F8042C086000
:101B100070470000F801002002480168091F0160B9
:101B200070470000F80100200549086810F8082DEA
:101B300010F8043F9A4000F8042C08607047000039
:101B4000F80100200549086850F8082D10F8043FF6
:101B50009A4040F8042C086070470000F80100200B
:101B60000549086830F8082D10F8043F9A4020F81D
:101B7000042C086070470000F8010020054908683F
:101B800010F8082D10F8043FDA4000F8042C086023
:101B900070470000F80100200549086850F8082D3A
:101BA00010F8043F1A4140F8042C08607047000008
:101BB000F80100200549086830F9082D10F8043FA5
:101BC0001A4120F8042C086070470000F80100203A
:101BD0000549086810F8042C50F8080C02700868D1
:101BE000001F086070470000F801002004490868E1
:101BF000083805C802600868001F086070470000C8
:101C0000F80100200549086830F8042C50F8080C49
:101C100002800868001F086070470000F80100207B
:101C20000549086810F8082D10F8043FD21A00F88A
:101C3000042C086070470000F80100200349086880
:101C400070E90223D21A04C008607047F80100202E
:101C50000549086830F8082D30F8043FD21A20F8FA
:101C6000042C086070470000F8010020054908684E
:101C700010F8082D10F8043F5A4000F8042C0860B2
:101C800070470000F80100200349086870E902234A
:101C90005A4004C008607047F801002005490868F0
:101CA00030F8082D30F8043F5A4020F8042C086022
:101CB00070470000F801002010B5044A04460146B0
:101CC000107800F091F9204610BD00008C00002033
:101CD00070470000014A5160106070477C0000208E
:101CE00010B51049032808D1086B40F00070086354
:101CF000486D40F40070486500204A6822F00302F5
:101D000002434A604A6802F003028242FAD1064C5A
:101D100030B1012803D10320FFF7ECFB206010BD98
:101D20000420F9E7001002400000002030B51D4CEF
:101D3000A56945F00105A56106280CD2DFE800F091
:101D400003071E220B26A56945F0040502E0A569DC
:101D500045F00805A561144D0F2443EA820255F8A9
:101D60002000082916D343688D00203DAC4089002F
:101D70002039A3438A401A43426030BDA56945F02B
:101D80001005E7E7A56945F02005E3E7A56945F0FB
:101D90008005DFE7036889008C40A3438A401A432B
:101DA000026030BD0010024084A2000810B505F0AA
:101DB0001BFC06F0F9FDBDE8104005F02DBC00004D
:101DC00000B54FF0E020042101616FF07F414161D7
:101DD0000220FFF78FFB064A0449B0FBF2F04FF4F4
:101DE0007A7208605043486000BD0000680000201F
:101DF00040420F000248016841F4700101607047E1
:101E000088ED00E0042007F00FBB000010B505F0DE
:101E1000EBFB06480088800603D50121044805F045
:101E200093FABDE8104005F0F7BB000000500040F9
:101E3000C81800200C4B10B553F82020948924F4C6
:101E400000549481002953F820108A8A02D042F06D
:101E5000080201E022F008028A8253F820008189FA
:101E600041F40051818110BDACA200080C4B10B5AB
:101E700053F82020948924F400549481002953F8C5
:101E800020108A8A02D042F0400201E022F0400293
:101E90008A8253F82000818941F40051818110BD6C
:101EA000ACA200080C4B10B553F82020948924F400
:101EB00000549481002953F820108A8A02D042F0FD
:101EC000800201E022F080028A8253F8200081899A
:101ED00041F40051818110BDACA20008054A52F8BE
:101EE00020000288920603D5808808700020704781
:101EF00001207047ACA20008034951F82000808AF5
:101F0000C0F3C00070470000ACA2000870B50446E2
:101F10002F48062C29D2DFE804F02803101C424E7B
:101F2000C26842F48042C260C26822F48042C26049
:101F3000826942F48042826117E0026942F4003211
:101F40000261026922F400320261C26942F4003285
:101F50000AE0026942F480220261026922F48022CE
:101F60000261C26942F48022C261204600F048F852
:101F7000184842F20C0150F82420918150F82400B6
:101F800001880180144D287838B114481449047030
:101F90001448FFF79FFE00202870002070BD0269E2
:101FA00042F400220261026922F400220261C26945
:101FB00042F40022D8E7026942F480120261026909
:101FC00022F480120261C26942F48012CCE7000060
:101FD00000100240ACA20008840000208C00002009
:101FE00095150008B91C0008044A52F82030998061
:101FF00052F8200001884906FCD57047ACA20008C1
:102000002DE9F04104460D460120FFF773FA1E4EFC
:1020100056F824209189090400EBC00101EB00105F
:1020200001D5690000E0A900B0FBF1F16425B1FB26
:10203000F5F0030118096FF01807784301EB8000F1
:1020400091890F044FF0320106D501EBC000B0FBBF
:10205000F5F000F0070005E001EB0010B0FBF5F033
:1020600000F00F009189184393894DF6F3752B40CA
:10207000938156F82420108156F8240082890A435F
:102080008281BDE8F0810000ACA2000830B5214B90
:1020900001241B5603F01F05AC405B099B0003F1B4
:1020A000E023C3F800411B4B083353F82040A589B7
:1020B00025F40055A58179B1012902D0022921D149
:1020C00015E053F82010002A8A8902D042F020023D
:1020D00017E022F0200214E053F82010002A8A8929
:1020E00002D042F040020CE022F0400209E053F836
:1020F0002010002A8A8902D042F0100201E022F06A
:1021000010028A8153F82000818941F400518181B5
:10211000002030BDA4A20008012007F085B90220EC
:1021200007F082B9032007F07FB9000010B5142032
:10213000FFF74EFA2A20FFF74BFA1248416821F0C8
:102140000C614160416841F480014160C16941F422
:102150000001C161016B41F080710163416D41F487
:1021600080714165006BC101074801D5074900E056
:102170000749016000F010F806494FF42640086056
:1021800010BD000000100240B403002000780040A1
:1021900000600040405C00402DE9F047304A0020DC
:1021A0001060101F4FF0800CC0F800C02D4EDFF8FB
:1021B000B88000204FF040094FF4044748F68F7A6A
:1021C00048F28005116809EBC01489B201EBC00325
:1021D00031681B1D41F8134014680CEBC013A4B206
:1021E00004EBC00441F8143013689BB203EBC00346
:1021F0009B1D41F8137008EB8001D1F8003C03EA05
:102200000A0303432B43C1F8003C401C0828D9DBD8
:1022100013485038016848F68F13194041F4007193
:102220000160016848F6BF73194081F0300129430D
:102230000160016848F68F63194029430160116805
:10224000326889B2891D42F8117001684BF68F72AD
:10225000114081F4405129430160BDE8F08700003E
:10226000505C0040B40300200050004070477047AD
:1022700070B5134D2C68600507D5286820F4806080
:102280002860FFF789FF07F071FEE00503D5286895
:1022900020F480702860A00403D5286820F4005042
:1022A0002860A00505D5286820F40070286007F094
:1022B00051FE200403D5BDE8704007F0A1BC70BDFD
:1022C000445C00400A4945F255520A6004224A60C3
:1022D00040F2712250434FF47A72B0FBF2F0886002
:1022E0004AF6AA2008604CF6CC400860704700000F
:1022F0000030004002494AF6AA20086070470000FA
:10230000003000400FB4054B10B503A9044A0298F1
:1023100000F042FE10BC5DF814FB0000C55600083A
:102320008800002000487047D0040020002807D013
:102330000E4910F0FF0F04D051FA80F00078401CD5
:10234000704710F47F4F04D0C0F30720085C0930B9
:10235000704710F47F0F04D0C0F30740085C1130C1
:10236000704701EB1060007819307047C4A2000874
:1023700002E008C8121F08C1002AFAD1704770474E
:10238000002001E001C1121F002AFBD170470000AC
:102390002DE9FF5F82B00021DDE90430020DDDF898
:1023A00040B0034318D044F61050A2F2FF3242432B
:1023B0001514119801281FD0A5EB0B00401C5FEAF3
:1023C000000A4FF000064E4FDFF83891B0465046F5
:1023D00015D5CAF1000413E0119801244AA301287D
:1023E00001D16FEA0B010298119AC0E90031C0E9EE
:1023F000024206B0BDE8F09FCBF10000DFE70446E3
:102400000021404A491842EB0450CDE9001012E087
:10241000E00707D032463B4640464946FEF787FB79
:102420008046894632463B4610461946FEF77FFBFA
:1024300006460F466410002CEAD1DDE90401DDE90F
:102440000023BAF1000F06DAFEF771FB42464B4655
:10245000FEF76DFB05E0FEF7A3F842464B46FEF79C
:102460009FF804460E460022284BFEF7EBFB03D8EC
:102470004FF0FF30014607E00022254B2046314651
:10248000FEF7AEFAFEF7C5FB102409E0002C0ADBCC
:102490000A220023FEF72FF9039B30321A55641EDF
:1024A00050EA0102F2D1641C039AC4F111031444EE
:1024B000119A012A03D0012208430DD10AE00843F2
:1024C00004D000204FF0110B119072E7A3EB0B0525
:1024D0006D1E0DE05B4504DD4FF0000205F10105C6
:1024E00004E003DA4FF00002A5F10105002AECD068
:1024F00002981199C0E90231C0E9004579E700006E
:10250000000014400000F03F300000000000F043E5
:102510000000E03F30B5054631A097B00068159047
:102520002878802840D16888010A082955D2DFE838
:1025300001F05404071A5454150711A929A00FE0FB
:1025400011A92DA003F0D8F868880721B1EB102F4E
:1025500001D113984170139840881AE011A92DA059
:1025600003F0CAF817E0C0B26C460A2833D2DFE89D
:1025700000F005081E202923261E2C2F022215A953
:1025800001E00C2229A1204601F016FE9DF8000072
:102590001394ADF85000E988BDF85020139891428B
:1025A00000D3114601F03CFB17B0002030BD0C22D7
:1025B00006E0082221A1E6E70E2223A1E3E70E228E
:1025C00025A1E0E7182228A1DDE712222DA1DAE7F4
:1025D000162231A1D7E70E22D4E700201390D8E7C6
:1025E000090400006465766963655F6465736372FE
:1025F0006970746F72000000636F6E666967757250
:102600006174696F6E5F64657363726970746F7211
:10261000000000007175616C69666965725F6465D0
:102620007363726970746F720000000048004900A3
:1026300050004E0055004300000000003000300004
:1026400030003100000000004300440043002D0032
:1026500043004900460000004800490032003100B4
:1026600030003800000000004800490044002D0000
:102670004B004500590042004F0041005200440009
:10268000000000004800490044002D004D004F00AC
:102690005500530045000000480049004400320046
:1026A0002D0043005500530054004F004D00000022
:1026B00003480168814201D0012070470020704723
:1026C0006C010020F0B597B005465022174902A8CA
:1026D000FDF7F4FD16A42946204603F0FBFC07464F
:1026E0000146224614A004F0D9FF384603F00EFD3F
:1026F0001BA004F0D3FF02AE2C6811E0207AA17B6E
:10270000A4F10C03132802D856F8200000E0159815
:10271000CDE90001082239461AA004F0BFFF246861
:10272000AC42EBD117B00020F0BD0000E8A30008D8
:102730006465766963650000252D2A2E73202020AC
:102740002020202020207479706520202020202047
:1027500020202072656620636F756E740A00000089
:10276000202D2D2D2D2D2D2D2D2D2D2D2D2D2D2DA6
:102770002D2D2D2D2D202D2D2D2D2D2D2D2D2D2D96
:102780000A000000252D2A2E2A7320252D323073B1
:1027900020252D38640A00002DE9FC4106461EA4C0
:1027A0000146204603F096FC0746014622461CA03F
:1027B00004F074FF384603F0A9FC22A004F06EFF79
:1027C000346810E004F10800A4F10C05804604F020
:1027D000BAFF68B1E86900902B460822394621A06B
:1027E00004F05CFF2468B442ECD10020BDE8FC8119
:1027F000404604F0B6FFE969CDE900102B460822F7
:1028000039461DA004F04AFF404606F031FB20483F
:1028100004F044FFE6E700006576656E7400000092
:10282000252D2A2E7320202020202073657420203F
:10283000202073757370656E6420746872656164BE
:102840000A00000020202D2D2D2D2D2D2D2D2D2D7C
:10285000202D2D2D2D2D2D2D2D2D2D2D2D2D2D0AD8
:1028600000000000252D2A2E2A73202030782530E4
:10287000387820300A000000252D2A2E2A732020C7
:1028800030782530387820253033643A0000000055
:10289000002C00082DE9FE43064622A401462046EE
:1028A00003F018FC07460146224620A004F0F6FE7D
:1028B000384603F02BFC26A004F0F0FE356817E044
:1028C00005F10800A5F10C04804604F03CFF002847
:1028D000404612D004F045FF218C628CCDE90021E6
:1028E000029023460822394620A004F0D7FE2D6826
:1028F000B542E5D10020BDE8FE8304F032FF218C13
:10290000628CCDE9002102902346082239461DA0A1
:1029100004F0C4FE404606F0ABFA19A004F0BEFE77
:10292000E5E700006D61696C626F7800252D2A2E45
:102930007320656E7472792073697A65207375737C
:1029400070656E64207468726561640A000000003E
:10295000202D2D2D2D20202D2D2D2D202D2D2D2DDB
:102960002D2D2D2D2D2D2D2D2D2D0A00252D2A2EF1
:102970002A732025303464202025303464202564D7
:102980000A000000252D2A2E2A73202530346420C9
:1029900020253034642025643A0000002DE9FC41F4
:1029A000064620A40146204603F094FB0746014654
:1029B00022461FA004F072FE384603F0A7FB23A0B6
:1029C00004F06CFE346815E004F10800A4F10C0575
:1029D000804604F0B8FE0028404610D004F0C1FE46
:1029E000A98CCDE900102B46082239461DA004F021
:1029F00055FE2468B442E7D10020BDE8FC8104F014
:102A0000B0FEA98CCDE900102B46082239461AA049
:102A100004F044FE404606F02BFA1C4804F03EFE4B
:102A2000E7E700006D73677175657565000000006C
:102A3000252D2A2E7320656E74727920737573703C
:102A4000656E64207468726561640A00202D2D2D06
:102A50002D20202D2D2D2D2D2D2D2D2D2D2D2D2DC0
:102A60002D0A0000252D2A2E2A73202530346420BB
:102A70002025640A00000000252D2A2E2A73202517
:102A8000303464202025643A00000000002C000847
:102A90002DE9FF41064616A40146204603F01AFB25
:102AA00080460146224614A004F0F8FD404603F09B
:102AB0002DFB1AA004F0F2FD0827356812E0A5F1FD
:102AC0000C0405F1080004F04CFEE17F226A03903B
:102AD0000097CDE9012123460822414617A004F0C2
:102AE000DDFD2D68B542EAD104B00020BDE8F081DB
:102AF0006D75746578000000252D2A2E7320202026
:102B00006F776E65722020686F6C642073757370C8
:102B1000656E64207468726561640A00202D2D2D35
:102B20002D2D2D2D2D202D2D2D2D202D2D2D2D2DEF
:102B30002D2D2D2D2D2D2D2D2D0A0000252D2A2E4C
:102B40002A7320252D382E2A732025303464202521
:102B5000640A00002DE9FC41064620A401462046F7
:102B600003F0B8FA0746014622461FA004F096FD7E
:102B7000384603F0CBFA23A004F090FD346815E04A
:102B800004F10800A4F10C05804604F0DCFD0028E7
:102B9000404610D004F0E5FDA98BCDE900102B468E
:102BA000082239461DA004F079FD2468B442E7D11B
:102BB0000020BDE8FC8104F0D4FDA98BCDE9001014
:102BC0002B460822394619A004F068FD404606F05D
:102BD0004FF90BA004F062FDE7E7000073656D613B
:102BE00070686F7265000000252D2A2E73207620F4
:102BF000202073757370656E6420746872656164FB
:102C00000A000000202D2D2D202D2D2D2D2D2D2DB8
:102C10002D2D2D2D2D2D2D0A00000000252D2A2EC5
:102C20002A7320253033642025640A00252D2A2E9E
:102C30002A7320253033642025643A002DE9FC41B5
:102C4000064628A40146204603F044FA07460146FA
:102C50002246264804F022FD384603F057FA24A005
:102C600004F01CFD356838E095F82900A5F10C0446
:102C700000902346082239462DA004F00FFD94F859
:102C8000340000F00F00012805D0022805D030B133
:102C9000042806D008E029A004E02BA002E02DA023
:102CA00000E02FA004F0FAFCA06A014600E0401CFE
:102CB0000278232AFBD0E26A64231144081A58439D
:102CC000B0FBF2F3D4F830C0A06CCDE9000CE069A1
:102CD000091A26A004F0E2FC2D68B542C4D10020F8
:102CE000BDE8FC81746872656164000058A7000843
:102CF000202D2D2D20202D2D2D2D2D2D2D202D2D38
:102D00002D2D2D2D2D2D2D2D202D2D2D2D2D2D2D00
:102D10002D2D2D20202D2D2D2D2D2D20202D2D2D17
:102D20002D2D2D2D2D2D2D202D2D2D0A00000000B7
:102D3000252D2A2E2A7320253364200020726561F8
:102D400064792020000000002073757370656E6444
:102D50000000000020696E6974202020000000003F
:102D600020636C6F73652020000000002030782500
:102D700030387820307825303878202020202530D1
:102D800032642525202020307825303878202530E1
:102D900033640A002DE9FC41064619A40146204689
:102DA00003F098F907460146224617A004F076FC86
:102DB000384603F0ABF91EA004F070FC346814E050
:102DC000A4F10C052B46D5E90901CDE90001082243
:102DD000394620A004F062FC687AC00701D023A025
:102DE00000E025A004F05AFC2468B442E8D105F0C4
:102DF000D5FD014624A004F051FC0020BDE8FC8173
:102E000074696D6572000000252D2A2E73202070D4
:102E10006572696F64696320202074696D656F75E0
:102E20007420202020202020666C61670A000000AA
:102E3000202D2D2D2D2D2D2D2D2D2D202D2D2D2DDC
:102E40002D2D2D2D2D2D202D2D2D2D2D2D2D2D2DBF
:102E50002D2D0A00252D2A2E2A7320307825303872
:102E6000782030782530387820000000616374695C
:102E700076617465640A00006465616374697661F3
:102E80007465640A0000000063757272656E7420D8
:102E90007469636B3A3078253038780A0000000096
:102EA0002DE9F74F88B089460746002500E06D1CE4
:102EB000785D202803D0092801D04D45F7D34FF085
:102EC000FF3B7DB31A48A8460026AD1DDFF864A07D
:102ED000046810E0062218A12068FDF749FA48B9F5
:102EE000206842463946801DFDF742FA10B9206835
:102EF000405DC0B10C34DAF800008442EAD38EB1F0
:102F000020216846FDF7F3F96A464946384603F042
:102F100079F838B16946B0470A99086000200BB0CB
:102F2000BDE8F08F01E0A668E9E75846F7E7000042
:102F30000C020020100200205F5F636D645F0000E0
:102F400010B53AB154881188026C1368224698472C
:102F5000002010BD4FF0FF3010BD70B51D461400AD
:102F600001D0042D01D0002070BD026C2188926830
:102F700090476080284670BD70B51C460AB1042C8D
:102F800001D0002070BD55881188026C53682A4614
:102F90009847204670BD00002DE9FF4F95B09B4635
:102FA0008946064600250FE2252877D100242746CA
:102FB000F84A0121059400E0044316F8013F203B44
:102FC00001FA03F01042F7D130782A2811D06FF0BF
:102FD0002F033078A0F13002092A16D8059A44F060
:102FE000020402EB820203EB42021044761C0590BD
:102FF000EFE759F8042B0592002A03DA504244F413
:103000000054059044F00204761C30782E2816D126
:1030100016F8010F44F004042A280DD06FF02F0297
:103020003078A0F13003092B09D807EB870302EBB6
:103030004303C718761CF3E759F8047B761C3078F5
:103040006C280FD006DC4C2817D068280DD06A28D1
:1030500014D104E0742810D07A280FD10DE044F484
:1030600000140AE044F4801401E044F4401472783F
:10307000824202D104F58014761C761C30786628D2
:103080000BD013DC582877D009DC002875D04528F0
:10309000F6D04628F4D047281AD19DE118E06328DD
:1030A00035D0642879D0652812D195E1702873D085
:1030B00008DC6728F1D069286FD06E280DD06F2802
:1030C00006D1B5E073282CD0752875D0782874D037
:1030D0005A46179990476D1C75E1C4F302500228B7
:1030E00009D003280DD0D9F8001004280DD00D60A8
:1030F00009F1040967E1D9F80010EA17C1E90052A3
:10310000F6E7D9F800100D80F2E70D70F0E719F836
:10311000041B8DF8001000208DF80100EA46012004
:1031200003E059F804AB4FF0FF3061074FF00001A6
:1031300002D40DE008F101018846B9420FDA80455A
:10314000F8DB1AF808100029F4D108E008F10101B1
:1031500088468142FADB1AF808100029F6D1059852
:103160005B46A0EB080721463846179A00F094FA10
:10317000284400EB080507E04DE029E10DE01AF8CE
:10318000010B5A4617999047B8F10108F7D25B46F0
:1031900021463846179A13E142E00A220092C4F30E
:1031A00002524FF0000A022A08D059F804CB032A31
:1031B0004FEAEC710AD00DE029E02AE009F107019D
:1031C00021F00702F2E802C1914609E00FFA8CFCF7
:1031D0004FEAEC71042A03D14FFA8CFC4FEAEC71F0
:1031E000002907DA0A460021DCF1000C61EB02013C
:1031F0002D2202E0220504D52B228DF80420012285
:1032000003E0E20701D02022F7E7904659E00A21C7
:1032100002E010220DE010214FF0000A00910BE0B7
:1032200010224FF0000A44F004040827009203E043
:1032300008224FF0000A0092C4F30252022A05D07D
:1032400059F804CB0021032A08D009E009F107014D
:1032500021F00702F2E802C1914605E01FFA8CFC5A
:10326000042A01D10CF0FF0C4FF00008220728D5EA
:10327000702806D0009B83F0100353EA0A0305D0A0
:103280000EE040228DF80420012208E05CEA0102F1
:1032900006D030228DF804208DF8050002229046D9
:1032A000009B83F0080353EA0A030AD15CEA010297
:1032B00001D1620705D530228DF804204FF00108B6
:1032C0007F1E582804D034A003900EA802900DE071
:1032D00036A0F9E753466046009AFDF70CFA84469B
:1032E0000398825C0298401E029002705CEA010022
:1032F000F0D1029806A9081A00F1200A600702D549
:1033000024F4803400E00127574502DDA7EB0A00D2
:1033100000E0002000EB0A01009005984144401AAB
:103320000590E00306D45B462146179A059800F005
:10333000B3F90544002706E001A85A46C05D179975
:1033400090476D1C7F1C4745F6DBE0030CD55B46C0
:103350002146179A059800F09FF9054404E03020B3
:103360005A46179990476D1C0099481E00900029F5
:10337000F5DC08E0029802995A460078491C02914F
:10338000179990476D1CBAF10001AAF1010AF1DC0E
:1033900065E1000009280100303132333435363719
:1033A0003839616263646566000000003031323391
:1033B0003435363738394142434445460000000031
:1033C00000F058F90544761C307800287FF4ECAD05
:1033D00019B02846BDE8F08F620700D4062709F12E
:1033E000070222F0070CFCE80223E14603F0004844
:1033F0005FEA080C02D00FF2702C0DE05FEA045C6B
:1034000002D50FF2682C07E05FEAC47C02D00FF20D
:10341000602C01E0AFF2700C4FF0FF3823F0004356
:10342000CDF850C065280CD006DC452809D04628C8
:103430001DD047283DD13DE0662818D067287ED1B1
:1034400038E00021112F01DB112000E0781CCDE9CC
:10345000000106A90EA8FEF79BFFDDE90F010E9AF9
:1034600003910021009207F1010A04914DE04FF011
:1034700000400097CDE9011006A90EA8FEF788FFCD
:10348000DDE90F0203920E9B11990022DDF80CA0DA
:103490000093049211B9791C00EB010AB7EB0A0002
:1034A00004D4C0F1FF3007F1010A0490AAEB070031
:1034B000019044E0012F00DA01270021112F01DDE6
:1034C000112000E03846CDE9000106A90EA8FEF75C
:1034D0005FFFDDE90F010E9A039100210491009234
:1034E000BA4621070CD40399514500DA8A46BAF14D
:1034F000010F05DD009AAAF10101515C302908D0C5
:10350000B84202DA10F1040F06DA0121CDE9011008
:1035100015E0AAF10101E9E7002805DC049901445E
:103520000491AAEB000102E0411C514500DD8A46EE
:103530000499401A401C01904FF00040029020076F
:1035400004D40198504501DBCDF8048000208DF8AB
:103550004F0002980DF14F07B0F1004F25D02B20FE
:103560000E9002984FF0020800280CDA40420290B8
:103570002D200E9007E00A210298FDF7A6F83031C1
:10358000029007F8011DB8F10001A8F10108F2DC72
:1035900002980028EFD1791E0E980870307800F05C
:1035A000200040F0450007F8020D12A8C01B00F1F2
:1035B00007081498007800B1012000EB0A01019877
:1035C00001EBE07105984144401A401E0590E0036C
:1035D00006D45B462146179A059800F05DF805442D
:1035E0001498007818B15A46179990476D1CE0035B
:1035F00024D55B462146179A059800F04DF80544FE
:103600001CE00498002807DBDDE90301884203DDA4
:103610000098405C179901E0179930205A4690476E
:10362000049805F10105401C04900198401E01908A
:1036300004D12E205A46179990476D1CBAF100010B
:10364000AAF1010ADDDC05E017F8010B5A461799CB
:1036500090476D1CB8F10001A8F10108F4DC5B464D
:103660002146179A0598ABE62D0000002B000000BC
:10367000200000002DE9F041044600251E461746B3
:10368000880404D405E039462020B0476D1C641E30
:10369000F9D52846BDE8F0812DE9F0410446002522
:1036A0001E469046C80301D5302700E02027880435
:1036B00004D505E041463846B0476D1C641EF9D577
:1036C0002846BDE8F08100002DE9FC411946174667
:1036D0000446DDE90832DDE90A6514304060006027
:1036E0002762E262C4E90913232118461C3404F05E
:1036F0000DF9D4E903014218D4E90101104B121F5E
:1037000003F0E2FE2060A67666760020A562E06106
:10371000E56260612076E06520661C3C00902346EF
:103720000190084A194604F14C0005F0BDF906481D
:10373000816809B1204688470020BDE8FC8100006F
:103740001D860008C18800087401002010B5029C85
:1037500024F001044472C0E907120021C0E90931D4
:1037600000EBC1021432491C526012600129F7DBE0
:1037700010BD10B5002200EBC201521CF1E9053466
:10378000012A5C60D1E90034236049600960F2DB02
:1037900010BD00002DE9F04116460F460446FCF727
:1037A000F3FC80462E49A06C08420FD1E06C002546
:1037B000016801291DD001210160206C0B463246B1
:1037C000D0F810C039462046E04714E02046E56CAA
:1037D00003F0CCFB864200D30646E888A16C821930
:1037E000C1F38F218A4212D22968324601443846F9
:1037F0001CE06FF006054046FCF7CAFC2DB12846D8
:1038000004F038FD0020BDE8F0813046FBE70A1ADD
:1038100029680144384604F03DF8E988A06C8A190B
:10382000C0F38F20121A3844401A296804F032F885
:10383000E06C816811B10EB100218160C2889119DC
:1038400089B2C180A26CC2F38F22914204D3B1FB32
:10385000F2F302FB1311C1804046FCF799FCD4E758
:1038600000FCFF032DE9F0438146214F00EB4906A0
:1038700007EB860585B0687A00244FF001088DF8C3
:1038800000008DF80180ADF80440ADF802400494CA
:103890008DF80C8057F826008DF80640001D029028
:1038A000287A6946FDF792FCA87A8DF800008DF819
:1038B00001404FF48070ADF8020009EB490101EBC3
:1038C000C9000C49ADF8044001EB40104C300490A5
:1038D0008DF80C8057F826008DF80640001D0290E8
:1038E000287A6946FDF772FC05B0BDE8F083000058
:1038F00024000020D40400202DE9FF410146007877
:103900002D4E10F01F02706804D0012A3FD0022A09
:103910004DD13FE04A78A2B3052A08D0062A02D04A
:10392000092A44D109E00846FEF7F4FD3FE0897812
:1039300001F07F0180F85C1037E069461FA001F0BC
:10394000DBFE029F00253C46B0460CE0607805286F
:1039500006D1D8F80400006D816809B12046884777
:10396000A8193444C5B27888A84202D92678002E16
:10397000ECD106F00DFBD8F80400012180F86910A5
:1039800015E0FFE702210C4800F04AF90FE0016F53
:1039900088470CE04978012907D1B0F8561090F813
:1039A0005820006DC3681046984706F0F1FA04B03D
:1039B0000020BDE8F0810000AC030020636F6E665C
:1039C000696775726174696F6E5F6465736372694C
:1039D00070746F720000000030B5C46B85B00D4686
:1039E0000120FDF799FB01221046E168FDF7B0FBCD
:1039F0002968A069FEF78AFA0121A069FEF752FA48
:103A0000207B8DF80000002001218DF80110ADF819
:103A10000400ADF8020004908DF80C1021688DF8B8
:103A20000600091D029169460120FDF7CFFB05B094
:103A3000002030BD30B5C46B85B0054603290CD0DD
:103A4000102904D011293ED10022A06901E0A0690B
:103A500001220121FEF71AFB35E0B2F5007F32D1D9
:103A6000E86C00686061A96C8A0A217C8DF80010FE
:103A7000002104908DF801100120ADF80410ADF87C
:103A800002208DF80C0020688DF80610001D0290B1
:103A900069460120FDF79AFBA86C0121C0F38F2035
:103AA0006060A069FEF7E2F9012210462169FDF786
:103AB0004FFB01220221A069FEF7E8FA012210461D
:103AC0002169FDF703FB05B0002030BD70B5C46B64
:103AD00016460D46022B13D100220120E168FDF7A6
:103AE000F5FA2A460120E168FDF762FB3246012023
:103AF000E168FDF74FFB01221046E168FDF7E6FAA9
:103B0000304670BDC06B00680188890601D5808889
:103B100070474FF0FF30704770B51D460846049E51
:103B200001F006FE040009D0C4E90156A1786078CE
:103B3000FDF79CFCA178024A60785054002070BDCB
:103B40006916002010B5084601F0F2FD08B1002109
:103B50004160002010BD10B51446084601F0E8FD94
:103B6000817840780CB1012300E000230022FDF7AA
:103B70006BFB002010BD70B51546084601F0D8FD5E
:103B800004002AD0052D28D2DFE805F003070B1426
:103B90002000A178607804221BE0A17860780022E0
:103BA00017E0A17860780222FDF7EAFBA17860783F
:103BB000012207E0A17860780122FDF7E1FBA178FE
:103BC00060780022BDE87040FDF78EBCA178607877
:103BD0000922BDE87040FDF7D3BB70BD202908D293
:103BE000C81701EB107020F00F02891A0011FDF7C1
:103BF00027BC00207047202909D2C81701EB10709C
:103C000020F00F03C91AD2B20011FDF723BC704790
:103C100010B5C06B8069FEF7E7F9012010BD000008
:103C2000094A5268C2E90001106E40F001001066B6
:103C3000880603D1402901D3012000E0002082F84A
:103C4000680006F0D1B80000AC03002004484068CA
:103C5000B0F85A10816400F10801C1647047000097
:103C6000AC03002010B51BA003F018FD1C4C2178FC
:103C70001CA003F013FD2078C00702D01FA003F0A2
:103C80000DFD2078800702D51FA003F007FD2078E6
:103C9000400702D51FA003F001FD2078000702D5E0
:103CA00020A003F0FBFC2078C00602D520A003F082
:103CB000F5FC2078000607D509480F300168BDE8FB
:103CC00010401DA003F0EABCBDE810401EA003F0A8
:103CD000E5BC0000627573206661756C743A0A0079
:103CE00029ED00E05343425F434653525F4246533F
:103CF000523A30782530325820000000494255535E
:103D0000455252200000000050524543495345524D
:103D100052200000494D50524543495345525220CC
:103D200000000000554E53544B45525220000000F5
:103D300053544B45525220005343422D3E4246417C
:103D4000523A253038580A000A000000094910B5D7
:103D5000074A0A60084A4A60084A0A61084A8A60B3
:103D6000084ACA6006F0E6F8BDE81040FEF7DEB982
:103D7000094200082C1A00207D420008518E0008DC
:103D8000ED9C00080542000810B501F033FE00204C
:103D900010BD10B501F077FF002010BD0020704766
:103DA000002070470E4B10B50146187D00EB400215
:103DB00002EBC00003EB800090F87E20132A09D0AC
:103DC0001E2A0BD10968C0F880101A69187D526844
:103DD000904703E010226B30FCF770FA002010BD12
:103DE000401A00202DE9FF4707464E4B4E4C00205D
:103DF00000EB800203EB420215798D4205D1156874
:103E000065605568A5601289A281401C0328EFD324
:103E1000694646A001F070FC02984FF0000A564631
:103E200080F804A080F805A080F806A0A188018190
:103E3000E1884181694642A001F05EFC029D0920B3
:103E40000221287069706880607A28714FF001093A
:103E500085F80590AE718020E8713220287205F156
:103E6000090800264CE02F4917221E31084602910E
:103E7000ADF80C208670A019807A40F08003CB72D8
:103E8000887440460299FCF719FABDF80C0069885D
:103E9000804408446880422024F8150F4FF4807055
:103EA0006080C4F80490C4F808A04020E06020615D
:103EB0002A4B6361C4F8189040F23F12E2617F22FE
:103EC0002262274A6262274AA262E0622063514668
:103ED000616325A0A1630268E2638088A4F84000C2
:103EE00006EB460000EBC600153C04EB8000761C98
:103EF00040F8581F4160C160816001744174817451
:103F00002879B042AFDC1A48F8671A4838671A486F
:103F1000F8661A48B8671A4878671A48C7F88000E0
:103F2000BDE8FF87B8030020401A00206465766969
:103F300063655F64657363726970746F720000001B
:103F4000636F6E66696775726174696F6E5F6465D1
:103F50007363726970746F7200000000001BB70019
:103F6000FEFF07100F00071F33002E003000000077
:103F7000D53F0008B13F0008A13D0008893F000877
:103F8000A53D0008C13F0008064A10B51269401E51
:103F9000012905D0116909B1C0B28847002010BDC0
:103FA000D168F8E7401A0020401CC0B205F096BF67
:103FB000002070470149086170470000401A002046
:103FC000034800694069002800D00047704700009E
:103FD000401A002070B5434D0446B0F85800697A85
:103FE000B0FBF1F201FB1200C0B2287500EB4001FA
:103FF00001EBC00005EB800094F8552080F87E208E
:104000002B7D102A03EB430000EBC30005EB80007F
:104010004BD00BDC102A2ED2DFE802F02D2D2D25FF
:10402000312D2D2D372D2D2D2D2D2D57192A22D007
:1040300006DC122A1FD0132A1DD0142A1BD131E00E
:104040001D2A1FD01E2A16D0FF2A14D1B4F85600FC
:1040500000F6F500B0F5804F0DD12248012108305F
:10406000FFF7DEFD07E0B4F85610A0F87C102A69CF
:10407000287D12689047B4F85A0058B330E0022106
:104080007C30EDE704218030EAE7002180F87F10E2
:10409000287D00EB400101EBC00005EB8000012111
:1040A0007F30DDE710216B30DAE700F15801286935
:1040B000826818469047287D00EB400101EBC00064
:1040C00005EB800013215830CAE70648B5F81510F3
:1040D0001530C5E794F85400000601D405F058FFE8
:1040E000002070BD401A0020401CC0B205F00CBF7B
:1040F00010B5044804A14378027805A0FEF702F940
:10410000002010BD14000020637075200000000026
:10411000252D31367325642E256425250D0A0000D2
:10412000F8B5214D00266868A8B902F06FFF04F0C9
:1041300035FC044608E06868401C686000960098FA
:10414000401C00906428FAD304F028FC001B0A28C5
:10415000F1D302F069FF002404F020FC074606E0DA
:10416000641C00960098401C00906428FAD304F068
:1041700015FCC01B0A28F3D3686884420FD2011BC8
:1041800064225143B1FBF0F22A70B1FBF0F200FB64
:10419000121164225143B1FBF0F06870F8BD6C60FD
:1041A0002E706E70F8BD000014000020014804F06D
:1041B000C3BA00002141000803234370931C00F898
:1041C000023BFCF77BB8000010B50D4C6068C16C79
:1041D000002005F083FE01466068C26C0A44C26498
:1041E000826C511A816409D1426F1AB1B0F85A1029
:1041F00008309047BDE8104005F0CABE10BD000071
:10420000AC0300200020704730B5194D2A6800F03B
:104210007F0492B202EBC400164A801D2D68136819
:1042200033F81000C0F30900421C5208ADB205EB90
:10423000C40505F1040533F81550ADB203EB450391
:1042400005D033F8045B21F8025B521EF9D10A490C
:1042500001EB8401D1F8002C4BF68F731A4082F4E5
:10426000405248F280031A43C1F8002C30BD0000D0
:10427000505C0040B403002000500040F0B51A4FDD
:10428000531C5B083C6800F07F061848A4B204EB9E
:10429000C605046834F81550ADB204EB450409D0E6
:1042A00011F8015B5B1E11F801CB45EA0C2524F8DF
:1042B000045BF5D13968006889B201EBC601891C3D
:1042C00040F811200A4800EB8600D0F8001C48F6A0
:1042D000BF73194081F0300148F280031943C0F8E0
:1042E000001C1046F0BD0000505C0040B4030020EC
:1042F00000500040026812B18A4204D94A6001604D
:10430000704728B1024650688842FAD900B1486027
:104310005160704730B500684A6801F1080488426E
:1043200021D003E043688B4203D018460028F9D11E
:1043300019E0C0B1036800F108051D448D4212D197
:1043400052B10D682C44944206D111682B441031AF
:1043500019440160516804E00A681A440832026096
:104360004968416030BD002AFCD0086803199342B7
:10437000F8D113681844083008605068486030BDB0
:1043800002688A420BD14A68026000204860704788
:104390005068884202D14868506070470246002A3F
:1043A000F6D170472DE9F05F040075D0206908B19F
:1043B000FFF7F8FF22780021012025232626272752
:1043C0002825DFF8E4864FF0220A4FF02D0B4FF03E
:1043D00029094FF02E0E1C2A7AD2DFE802F0790E5E
:1043E0009BA2A2A2A2B4C4D2F0FEEDECEBEAE9E8F3
:1043F000E7E679E5E4E3E2E1A1E0A178480716D534
:10440000D8F80400242100F8011BA168097A00F8FB
:10441000011BA1680989090A00F8011BA1688968C4
:10442000090C00F8021BA1688968090E15E38807CA
:10443000A06837D5002873D0027AD21E0C2A6FD21A
:10444000DFE802F00606221B1B2222222222222261
:1044500009071BD4D8F8041001F8013BC8F8041070
:10446000027B01F8012B8289120A01F8012BC26834
:10447000120C01F8022BC06848E0090706D4D8F8EE
:10448000041001F8016BE9E7090706D5D8F8041014
:10449000242201F8012BE1E7FCE2D8F8041001F82E
:1044A000017BDBE70028C6D0427CD21E0C2AC6D294
:1044B000DFE802F006061B14141B1B1B1B1B1B1B37
:1044C000090706D5D8F80410242201F8012B12E0C0
:1044D000E7E2D8F8041001F8013B0CE00907F1D439
:1044E000D8F8041001F8016B05E00907EAD4D8F800
:1044F000041001F8017B1430C8F8041001F8010B16
:10450000020A01F8012B020C01F8022B000E01F83F
:10451000010C51E2D8F8040000F801AB21791FE04A
:10452000B2E1D8F80400242100F8011B217900F839
:10453000011BA188090A00F8011B6168090C00F839
:10454000021B616871E76178012904D0022913D048
:104550000329FCD09AE2D8F8041001F8010B2BE2F1
:1045600000F8011B90E26078012804D0022804D0F2
:10457000032804D08AE2042190E205218EE206217C
:104580008CE26078012804D0022804D0032804D0EB
:104590007CE20D2182E20E2180E20F217EE254E2D4
:1045A0005EE2D8E171E108E1B3E088E077E068E03D
:1045B00059E04AE03BE02CE01DE00EE0FFE76078C8
:1045C000012804D0022804D0032804D05EE2072189
:1045D00064E2082162E2092160E26078012804D0E7
:1045E000022804D0032804D050E20A2156E20B210D
:1045F00054E20C2152E26078012804D0022804D051
:10460000032804D042E2102148E2112146E212219F
:1046100044E26078012804D0022804D0032804D0A2
:1046200034E213213AE2142138E2152136E26078AF
:10463000012804D0022804D0032804D026E2162141
:104640002CE217212AE2182128E26078012804D000
:10465000022804D0032804D018E219211EE21A21EE
:104660001CE21B211AE26078012804D0022804D041
:10467000032804D00AE21C2110E21D210EE21E21B3
:104680000CE26078012804D0022804D0032804D06A
:10469000FCE11F2102E2202100E22121FEE120694C
:1046A0000021002892D0C06801E0C068491C0028A1
:1046B000FBD1D8F804002C2200F8012B50E7206928
:1046C00010B10178012903D00178192912D0DDE158
:1046D000407812E0032815D0032000F01BFAD5E142
:1046E000D8F8040000F8015BC7E1D8F8040000F82E
:1046F000019BC7E1407800F00F000128F0D00228AC
:10470000F3D0E7E7D8F804002A2100F8011B2F2195
:1047100026E72269002A91D092F800C0BCF1010F6F
:104720008CD1D2F808C06278012A04D0022A16D0AF
:10473000032A91D129E0D8F804100CF1140C4FEAA7
:104740001C220B7081F801C08A704FEA1C42CA70AB
:104750004FEA1C620A7181F805A0887153E0D8F80D
:1047600004200CF1140C4FEA1C23167082F801C0CF
:1047700093704FEA1C43D3704FEA1C6313712323D9
:1047800053719071D171022058E0D8F804200CF1D7
:10479000140C4FEA1C23177082F801C093704FEA83
:1047A0001C43D3704FEA1C6313712423537190711F
:1047B000D1711172517203205EE02269002A63D028
:1047C00092F800C0BCF1010F5ED1D2F808C0627847
:1047D000012A04D0022A1CD0032A55D135E0D8F88A
:1047E00004100CF1140C4FEA1C220B7081F801C06C
:1047F0008A704FEA1C42CA704FEA1C620A7181F843
:1048000005A088710420C8710D722F2048720A31EA
:10481000D2E0D8F804200CF1140C4FEA1C231670D7
:1048200082F801C093704FEA1C43D3704FEA1C63B7
:104830001371232353719071D1710520107282F886
:1048400009902F2090720B321CE0D8F804200CF154
:10485000140C4FEA1C23177082F801C093704FEAC2
:104860001C43D3704FEA1C6313712423537190715E
:10487000D17111725172062090722A20D0722F20AD
:1048800010730D32C8F8042000E12269F2B392F8E7
:1048900000C0BCF1010F39D194F801C09268BCF19D
:1048A000010F06D0BCF1020F1BD0BCF1030F2DD1BC
:1048B00033E0D8F80410143224260E70170A4A7018
:1048C0008F70160CCE704FEA126C81F804C04B71D9
:1048D0008A71CF710E7281F809C081F80AA0C8727E
:1048E00065E0D8F80430143224251D70170A5A7078
:1048F0009F70150CDD704FEA126C83F804C05E7176
:104900009A71DF711D7283F809C000E056E023221E
:104910009A72D872197302206AE0D8F804301432FF
:104920004FF0240983F80090160A5A709E70150CF7
:10493000DD704FEA126C83F804C05F719A71DE710A
:104940001D7283F809C083F80A90D87219735973DD
:104950009973032070E0226982B392F800C0BCF121
:10496000010F2BD194F801C09268BCF1010F06D061
:10497000BCF1020F23D0BCF1030F1FD13FE0D8F8E8
:104980000410143224260E70170A4A708F70160C09
:10499000CE704FEA126C81F804C04B718A71CF71EE
:1049A0000E7281F809C081F80AA0C8720420087349
:1049B0004D732B2088730F31C8F8041066E0D8F8C7
:1049C0000430143224251D70170A5A709F70150C7C
:1049D000DD704FEA126C83F804C05E719A71DF716A
:1049E0001D7283F809C023229A72D87219730520A8
:1049F000587383F80E902B20D873103322E0D8F828
:104A0000043014324FF0240983F80090160A5A70CB
:104A10009E70150CDD704FEA126C83F804C05F7154
:104A20009A71DE711D7283F809C083F80A90D872FA
:104A30001973597399730620D8732A2018742B2080
:104A400058741233C8F8043020E0D8F8040000F895
:104A5000011B00F8011B00F8021B00F8011C13E009
:104A6000A078000712D46078012804D0022807D06B
:104A700003280BD111E0D8F8040000F801BB03E0D3
:104A8000D8F8040000F801EBC8F80400E06808B1A9
:104A9000FFF788FC0020BDE8F09F2F21D8F8040024
:104AA0005EE5082019E60000A00100202DE9F04194
:104AB0000446002100F027FD80210D48FBF717FC7C
:104AC0000C480D4D002606602860094868605CB1FE
:104AD0002B272046E468C660FFF764FC24B16868B1
:104AE00000F8017B6860F4E70020BDE8F081000079
:104AF000E8140020E8130020A001002001480078FD
:104B000070470000A801002001490020087070478C
:104B1000A80100200149087000207047A80100206A
:104B2000014951F820007047AC01002010B500F099
:104B300073F900F0E1F8FFF7E7FF002010BD000077
:104B4000104810B5416891F82110890703D40E4927
:104B50000020087014E0016829B14FF480720A48FF
:104B6000FBF7DCFB0CE001F047FA08B107A100E01D
:104B700008A10548FBF7F3FB08A10348FBF7C2FBBC
:104B8000014810BD04020020681500206D736820E4
:104B90000000000066696E73682000003E0000009F
:104BA0002DE9F0412A4FC01C20F0030606F108054C
:104BB0003C6800E064681CB12068A842FAD926E08D
:104BC000DFF890807C6819E00021424604F1080378
:104BD00001EB410002EBC00090F811C0BCF1000FE6
:104BE00002D04069984202D0491C0829F0DB2046D7
:104BF0006468082902D1083000F02EF8002CE3D1B7
:104C00003C6800E0646804B32068A842FAD32168D5
:104C1000A019891B083940F8081F266061684160A7
:104C2000606021460A48FFF7ABFB0020606008483F
:104C30002146001DFFF75EFB04F1080031460446E3
:104C4000FBF755FB2046BDE8F0810020FBE70000A4
:104C5000E80100202813002010B50838044601465A
:104C60000748FFF78DFB06482146001FFFF742FB70
:104C700021460348BDE81040001FFFF74BBB000072
:104C8000EC01002010B580210648FBF730FB0649F7
:104C900004487822086002600022426010464A60A0
:104CA00010BD000068110020E801002010B500F0E0
:104CB000B3F800F021F800F095FCFFF725FFFFF7AF
:104CC000E1FF002010BD00000A4A002101EB810332
:104CD00012F8233013B1491C1029F7DB102906D034
:104CE00001EB810102F8210002EB810070470020F6
:104CF00070470000E811002010B54FF4A071024881
:104D0000FBF7F5FA002010BDE811002010B50446AD
:104D10000220FFF7D9FF08B1047110BD0620FFF78C
:104D2000F9FE002010BD70B50646002500F094FC89
:104D300004000CD001260120FFF7C6FF050014D0A7
:104D4000012E17D0022E15D0042E14D112E03046B9
:104D500000F014FA040001D00226ECE7304600F01F
:104D60007DF9040009D00426E5E70620FFF7D2FE0E
:104D7000002070BDAC60AE7002E00D20FFF7CAFEEF
:104D8000284670BD10B504460320FFF79DFF08B10B
:104D9000446010BD0620FFF7BDFE002010BD10B519
:104DA00004460420FFF790FF08B1446010BD0620C0
:104DB000FFF7B0FE002010BD10B504460620FFF737
:104DC00083FF08B1446010BD0620FFF7A3FE00205A
:104DD00010BD70B505460520FFF776FF040016D01C
:104DE0002846FBF7A7FA401CFFF7DAFE606028466A
:104DF000FBF7A0FA024629466068FBF78FFA2846BF
:104E0000FBF798FA616800220A54204670BD06201C
:104E1000FFF780FE002070BD10B59C21FBF767FAFC
:104E2000002010BD70B5044602C0002500F056FBFE
:104E3000201D00F05CFB01263CE01F2816D0142842
:104E400020D015281ED016281CD017281AD01828B4
:104E500018D0192816D06671D4F8980070B1204681
:104E600001F005FBE86050B305461CE06671D4F81C
:104E7000980018B1204601F0FAFA0BE0204601F044
:104E8000F6FA0DE06671D4F898000028204605D0A7
:104E900001F0CEFCE8600028E6D104E001F0C8FC97
:104EA0000546C4F89800D4F89800002806D0201DC4
:104EB00000F01DFB212801D02028BED170BD201D8F
:104EC00000F015FBEFE7000070B5044623480D46DF
:104ED000406890F82100C00702D021A002F0DEFB5C
:104EE00029462046FFF79EFFFFF708FE58B1FFF75F
:104EF00005FEFFF715FE01461AA002F0CFFBFFF7F3
:104F0000FDFD28B125E0D4F89800FFF7CFFDF6E7C6
:104F100000F0BEFB00F09CF8C0B221385D280ED234
:104F200000F096F8054600F093F8064600F090F879
:104F3000C1B22B4632460CA002F0B0FB09E000F0F3
:104F400087F8054600F084F801462A460BA002F0D7
:104F5000A5FB2046BDE87040FFF7E8BD0402002035
:104F60000A00000025730A0009272563272C202545
:104F7000642C203078253038780A00000925642C0C
:104F8000203078253038780A00000000034810B53A
:104F9000406802F015FF002010BD00000402002050
:104FA00070B5054601F001FF04002BD0194D68686B
:104FB000D0F83C01A0422BD040F24311204601F032
:104FC0001FFF002824D16868D0F83C0138B101F0F7
:104FD000D4FE68680021D0F83C0101F0B2FF686897
:104FE0007821C030FBF783F96868002180F8381118
:104FF00080F83911C0F83C412046BDE870400649B0
:1050000001F09FBF2946BDE8704004A002F046BBF6
:1050100070BD0000040200208D4F000866696E73A9
:10502000683A2063616E206E6F742066696E64203A
:105030006465766963653A2025730A000349496807
:1050400011F8212F60F341020A707047040200201A
:105050000148006870470000E813002070B505465D
:105060001048114E046805E029462068FBF769F9ED
:1050700030B10C3430688442F6D30C4804680BE03D
:10508000204670BD2846FBF755F902462946606860
:10509000FBF76EF920B12468002CF3D1002070BD1D
:1050A000201D70BD0C02002010020020F401002021
:1050B000024A106002480160704700000C020020A4
:1050C000100200207CB518491848FFF7F1FF184975
:1050D000184800F049F84FF4A071012001F090FC4D
:1050E000154D6860D0B10A211420CDE900014FF4BC
:1050F00080630022114912A003F04AFA04460023FB
:105100001A4611A1686802F049FE0120FFF796FFD8
:1051100014B1204603F096FB00207CBD0CA002F0E9
:10512000BDFA4FF0FF307CBD54B10008BCAF0008A1
:1051300084B1000874B1000804020020D1510008B5
:10514000747368656C6C000073687278000000000E
:105150006E6F206D656D6F727920666F7220736857
:10516000656C6C0A00000000024A10600248016091
:1051700070470000140200201802002070B5054698
:105180001048114E046805E029462068FBF7D9F85D
:1051900030B1103430688442F6D30C4804680BE018
:1051A000204670BD2846FBF7C5F8024629466068D0
:1051B000FBF7DEF820B12468002CF3D1002070BD8D
:1051C000201D70BD1402002018020020F0010020F4
:1051D000DFF8E08208B5D8F8040010F8211F41F08C
:1051E000010100F8031BFFF761FDD8F80400D0F8B7
:1051F0003C0120B901F078FC08B1FFF7D1FEFFF7C0
:105200009FFC02F04BFA4FF0FF3900254C46464612
:1052100003E02146706802F0F9FD706801236A46D8
:10522000D0F83C01214601F061FE0128F1D19DF842
:1052300000401B2C07D0706890F82010012907D07F
:1052400002290ED017E07168012081F82000DDE707
:105250005B2C02D080F820500DE0022180F8201055
:10526000D4E780F82050412CD0D0422CCED0442C12
:1052700039D0432C43D0002CC8D0FF2CC6D0092CE9
:105280004FD07F2C7AD0082C78D00D2C72D00A2CDD
:10529000FCD090F83811782901D380F8385190F873
:1052A000393190F838118B427ED2CA1A00F1C00110
:1052B000C1301944184402F012FB706890F839119B
:1052C000C0300C54706890F82110C90706D090F8CF
:1052D0003911C030014478A002F0E0F97068374617
:1052E00090F83941C2E090F8390100288ED073A0BF
:1052F00002F0D4F9706890F83911491E0EE090F868
:10530000391190F83821914280D2C030095C6CA0EC
:1053100002F0C4F9706890F83911491C80F839110D
:1053200074E7002403E065A002F0B8F9641C70681B
:1053300090F83901A042F6DC746862A0C03402F033
:10534000ADF900F059FE0128204614D000F09AFB78
:10535000FFF7F6FB014622465BA002F09FF970685A
:10536000C030FAF7E7FF716881F8380181F8390138
:105370004CE703E040E000F06DFDE9E790F83921EB
:10538000002ACDD090F83811521E491EC9B2D3B2AE
:1053900080F8381180F83931994224D9CA1A00F1BD
:1053A000C1011944C03000E066E0184402F097FAE9
:1053B000706890F83811C0300D54706890F8391149
:1053C000C030014442A002F069F9706890F8394198
:1053D00003E03AA002F062F9641C706890F83801AA
:1053E000A0429DDBF5E73CA002F058F9706890F808
:1053F0003811C0300D5409E700F0FEFD01280FD030
:1054000070683B2190F83821C0301154706890F8D2
:105410003811A9B100F1C0012430FFF755FD16E0A5
:105420007068344690F82100C00702D025A002F031
:1054300035F9606890F83811C03000F069FD06E079
:1054400090F82100C00702D01EA002F027F9FFF754
:1054500077FB02F023F970687821C030FAF747FF34
:10546000706822E015A002F019F9641C786890F8C1
:105470003801A042F6DC0AE0C0300C54706890F8A5
:105480002100C00703D021460DA002F007F9706883
:1054900090F83811491CC9B280F8381190F83921B8
:1054A000521C80F839217829A5D380F8385180F82A
:1054B0003951ABE60402002025730000080000000B
:1054C000256300000A00000025732573000000001A
:1054D00008257320200800000820080070B50C463D
:1054E00005469421FAF703FFC5F8904070BD10B54A
:1054F0000446407810B10020607002E0204603F0BE
:105500007FFE207A10BD70B504000D4632D02078A1
:10551000132808D0152806D0162804D01A2802D03F
:10552000192803D006E00821206904E015B1002104
:10553000206900E02069FFF7E6FF0021E068FFF73F
:10554000E2FFA078042801D02843A070206910B1A0
:10555000407860700EE020780122032101280BD0F2
:10556000022834D0032836D0042834D0052832D07D
:10557000062830D0002070BDA0784FF00003C60789
:105580004FF002050FD0A0680028F3D0407C0F2810
:1055900023D2DFE800F0221A201C1C201E1E20202F
:1055A0002020202020008007E4D5A0680028E1D03A
:1055B000007A0F2811D2DFE800F010080E0A0A0E58
:1055C0000C0C0E0E0E0E0E0E0E006370D2E7627003
:1055D000D0E76570CEE76170CCE70320FFF79AFA59
:1055E000C8E7000010B5C0210248FAF780FE00208D
:1055F00010BD0000281300202DE9F0474FF0FF38C0
:10560000144E894682464546002404EB440006EBCE
:10561000C000074610225146FAF7AAFEB8B1787CBE
:1056200010B9681C00D12546641C082CEDDB681CF1
:105630000DD005EB450006EBC00004461022514694
:10564000FAF76CFE84F811902846BDE8F0874046D2
:10565000FBE700002813002070B50C4D064600241F
:1056600004EB440005EBC00010223146FAF780FE3F
:1056700010B1641C082CF3DB082C04D004EB4400AC
:1056800005EBC00070BD002070BD00002813002095
:1056900070B50948094C00F58075094EC4E901054B
:1056A00005E010F8011BA06056F821008047A068B3
:1056B000411B8029F5D370BDE8130020F4010020C0
:1056C00038A4000810B504490446086810B10968F8
:1056D000E0B28847204610BD7C00002070B5451C14
:1056E0000C46E8B203F058FFA060E8B203F060FF98
:1056F000E060002070BD00002DE9F0410B4E0D462A
:105700000746002406EB041041683846FAF719FEF4
:1057100028B1641C0D2CF5D30120BDE8F08106EB07
:1057200004100FC885E80F000020F6E700040020F1
:10573000084A002101EB410312F82330834204D1CF
:1057400001EB410002EB80007047491C2029F1D396
:10575000002070471C02002010B5124C2068800702
:1057600002D511A001F09AFF2068400011D50D4824
:10577000C01E007808B1FEF775FA0A48001F0078CD
:1057800008B100F0FBFA0748801E008808B104F059
:10579000CFF92068002804DABDE8104008A001F025
:1057A0007DBF10BD2CED00E06661696C65642076FC
:1057B0006563746F722066657463680A0000000098
:1057C0006465627567206576656E740A0000000086
:1057D00010B502A001F062FF002010BD48656C6C9E
:1057E0006F2052542D546872656164210A000000D4
:1057F00010B5401CC0B203F081FF002010BD0000B6
:105800007CB50323022209210020FCF78FFA002334
:1058100002220A211846FCF789FA022203231146C4
:105820000020FCF783FA0023022203211846FCF72C
:105830007DFA032302220A210120FCF777FA0023D4
:1058400002220B210120FCF771FA022203230A2114
:105850001046FCF76BFA022200230B211046FCF7DE
:1058600065FA4FF4E13421460520FCF74FFB022294
:1058700003230C211046FCF759FA0222002311469B
:105880000320FCF753FAFEF791FC12A001F056FD3D
:10589000214611A001F036FE0FA001F02BF904F013
:1058A000B3F8FFF70FFC00240D4D012605EB0410A3
:1058B0000022017BCDE900160BC802F069FE02F060
:1058C000C1FF641C022CF1D302F096FFBDE87C40BE
:1058D00002F084BE70696E0075617274350000005C
:1058E000E4A1000870B51EA001F0D8FE2148224DA9
:1058F00004680BE0022221A12068FAF739FD20B1EB
:10590000D4E900121EA001F0C9FE0C3428688442BC
:10591000F0D31F48046804E01EA0616801F0BEFED9
:105920002468002CF8D11DA001F0B8FE2048214DBC
:10593000046805E0D4E9001211A001F0AFFE1034B4
:1059400028688442F6D31C48046804E011A061680A
:1059500001F0A4FE2468002CF8D1002070BD0000E6
:105960002D2D46756E6374696F6E204C6973743AA1
:105970000A0000000C020020100200205F5F0000FF
:10598000252D313673202D2D2025730A00000000AF
:10599000F40100205B6C5D2025730A002D2D5661FB
:1059A000726961626C65204C6973743A0A00000088
:1059B0001402002018020020F001002010B5082079
:1059C00002F03AF8BDE81040001DFCF77BBE10B5B0
:1059D000032002F031F8BDE81040001DFCF7DCBEEA
:1059E00010B5042002F028F8BDE81040001DFCF7B7
:1059F00051BF000010B5074C07A0616901F04EFED1
:105A00000AA0A16901F04AFEE169BDE810400CA0BE
:105A100001F044BEA8000020746F74616C206D65B5
:105A20006D6F72793A2025640A0000007573656411
:105A3000206D656D6F7279203A2025640A000000A0
:105A40006D6178696D756D20616C6C6F63617465F3
:105A500064206D656D6F72793A2025640A0000003C
:105A600010B5052001F0E8FFBDE81040001DFCF76F
:105A700095BF10B5022001F0DFFFBDE81040001D0A
:105A8000FDF706B82DE9F04707464FF000086248D9
:105A9000C14645464646DFF884A1046829E060A077
:105AA000216803F02AFA18B33846216803F025FA72
:105AB000F0B9B8F1000F09D15AA001F0EFFD387824
:105AC00020B126683046FAF735FC054608F101009A
:105AD0001FFA80F8387830B13046216803F000FAB8
