:020000040800F2
:101000005813002065110008D94100082F1200086C
:10101000711100087311000875110008000000002C
:101020000000000000000000000000007711000830
:101030007911000800000000B7110008FD48000801
:101040007F1100087F1100087F1100087F11000840
:101050007F1100081D430008F92A0008392B0008F9
:101060007F1100087F110008492B00087F1100083C
:101070007F1100087F110008752800087B280008F0
:1010800081280008872800087F1100087F110008C8
:101090007F1100087F1100087F110008592B0008FC
:1010A0007F1100087F1100087F1100087F110008E0
:1010B0007F1100087F1100087F1100087F110008D0
:1010C0007F1100087F1100087F1100087F110008C0
:1010D0007F110008CD4B0008D34B0008D94B000806
:1010E000092B00087F1100087F1100087F110008FC
:1010F0007F1100087F1100087F1100087F11000890
:101100007F1100087F1100087F1100087F1100087F
:1011100073490008794900087F1100087F11000811
:101120007F1100087F1100087F1100087F1100085F
:101130007F1100087F1100087F1100087F1100084F
:101140007F1100087F1100087F1100087F1100083F
:10115000DFF80CD001F04CF900480047118E000870
:10116000581300200648804706480047FEE7FEE780
:10117000FEE7FEE7FEE7FEE7FEE7FEE7FEE7FEE747
:101180004549000851110008EFF3108072B670470E
:1011900080F310887047334A1368012B04D04FF056
:1011A00001031360304A1060304A116030484FF03C
:1011B000805101607047EFF3108272B629480168D0
:1011C00091B14FF0000101602748016829B1EFF3A8
:1011D000098121E9F00F0068016024490968096864
:1011E000B1E8F00F81F3098882F310884EF0040E05
:1011F00070471E4908601C494FF0000008601949FB
:101200004FF0010008601B484FF47F01D0F8002028
:1012100041EA0201016016484FF080510160164812
:101220000068006880F3088861B662B670471EF0F7
:10123000040F0CBFEFF30880EFF3098020E9F00FF3
:1012400040F804ED1EF0040F0CBF80F3088880F313
:10125000098800B509F0B0FC5DF804EB4EF0040E0F
:1012600070470000A0020020980200209C0200208D
:1012700004ED00E020ED00E008ED00E040EA0103AD
:101280009B0703D009E008C9121F08C0042AFAD23C
:1012900003E011F8013B00F8013B521EF9D2704700
:1012A000D2B201E000F8012B491EFBD270470022A8
:1012B000F6E710B513460A4604461946FFF7F0FF55
:1012C000204610BDCAB2401E10F8011F8A4202D04B
:1012D0000029F9D100207047421C10F8011B002999
:1012E000FBD1801A704710B5002200E0521C835CCD
:1012F0008C5CA34201D1002BF8D1D8B2E1B2401AE4
:1013000010BD30B505460020034600E05B1C93424B
:1013100005D2EC5CC85C201A01D1002CF6D130BD9E
:101320000FB400B58DB010A909900B9000914FF04B
:10133000FF300A9000200C90054806900548079061
:101340006A4609A80F9900F0AFFE0DB05DF814FBD6
:10135000C5200008E32000082DE9FF5F1D464FF07F
:10136000FF3BD5E9014691465F464FF00008A96969
:101370007F1C01988847296A824688470028F6D151
:10138000BAF1FF3F0CD024F4C064002E19DD6006D2
:1013900014D5BAF12B0F09D0BAF12D0F0ED103E0FD
:1013A000584604B0BDE8F09F44F48064A9697F1CEE
:1013B00001988847761E8246002E02DDBAF1300F72
:1013C00003D0B9F1000F26D032E0A969761E44F4AB
:1013D00000747F1C019888478246002E05DDBAF113
:1013E000780F06D0BAF1580F03D0B9F1000F10D022
:1013F0001EE0B9F1000F02D0B9F1100F18D1A969A0
:10140000761E24F400747F1C0198884782461020C1
:1014100002E0082000E00A20814609E008FB0908F4
:10142000A969761E44F400747F1C0198884782469F
:10143000002E05DD4946504600F021FE0028EDDA79
:10144000E96901988847A00502D46FF00100A8E778
:10145000E00725D1600613D5600502D5C8F100006C
:1014600000E0404629680A1D2A600968220501D566
:10147000087015E0220701D5088011E008600FE030
:101480002868011D29600068210502D580F80080C8
:1014900006E0210702D5A0F8008001E0C0F8008036
:1014A00038467EE72DE9FF5FD2E901A74FF000083B
:1014B000916999461446DDF838B046460198884748
:1014C000054659EA0B0005D009E0A169761C019890
:1014D00088470546216A284688470028F5D1681CB8
:1014E00003D05FEACA7005D015E04FF0FF3004B0BA
:1014F000BDE8F09F2068011D2160D0F800800AE05F
:101500005FEACA7001D108F8015BA169761C7F1EF1
:10151000019888470546002F1ADD681C18D0B9F1DC
:10152000000F0DD0E81705EBD060421120F01F002E
:1015300059F822102A1A012090400142E0D107E018
:10154000BBF1000FDCD1216A284688470028D7D09C
:10155000E16901988847BBF1000F07D1002E05DD36
:101560005FEACA7002D1002188F80010A068B84272
:1015700003DDBBF1000F03D017B16FF00100B6E738
:101580003046B4E72DE9FF4F087883B09946FF282D
:1015900005D0491C2D2804D00024002008E000209C
:1015A0000BE00124F9E700EB800003EB4000491C4D
:1015B0000B78FF2BF7D104B140420023029314783B
:1015C00019461D462D2C01D02B2C04D1521C2D2C3C
:1015D00013D000240294AA461478FF2C0FD00A25B9
:1015E000A3FB057801FB05814FF0000C03FB0C11F8
:1015F000521CE3194AEB0101EEE70124EAE78144BA
:1016000053EA010002D019F5C87F06DA03980021D9
:10161000C0E9001107B0BDE8F08F0025AE4E2F469F
:10162000DFF8B882184600F0BFFECDE90001B9F13D
:10163000000002DAC9F1000400E004460023A74AD2
:101640001AEB030B42EB045A12E0E00707D02A46DC
:1016500033463846414600F0F9FA074688462A469E
:1016600033461046194600F0F1FA05460E4664105E
:10167000002CEAD1DDE90001B9F1000F5A465346CA
:1016800006DA00F055FB3A46434600F051FB05E010
:1016900000F0DCFA3A46434600F0D8FA029A0AB162
:1016A00081F00041039AC2E90001B3E72DE9FF4F41
:1016B0001F468DB0D7E901464FF0FF382E20454632
:1016C0004FF000090B90B9696D1C0E988847396A74
:1016D000824688470028F6D1BAF1FF3F0AD024F4A9
:1016E000D064002E11DDBAF12B0F08D0BAF12D0F06
:1016F0000BD102E0404611B08DE744F48064B96933
:101700006D1C0E9888478246761E6946600501D595
:101710002D2000E02B208DF8000001F1010B0DF1D0
:10172000200809E0B9696D1C0E98884782460F9819
:1017300044F40074761E0560002E02DDBAF1300F0D
:10174000F0D00B998A453ED144F0800406E00F9911
:10175000681CA9F1010944F400740860B9696D1CA2
:10176000761E0E98884782463028F0D02BE00B99E1
:101770008A4505D1200603D444F08004761E18E083
:10178000504603F0CBFC08B30DF11301761E44F470
:1017900000748B4508D2AAF130000BF8010B20062B
:1017A00007D5A9F1010003E0200602D409F10100E8
:1017B0008146A00502D50F99681C0860B9696D1CA7
:1017C0000E9888478246002ED1DC53E0002E51DD72
:1017D000BAF1650F02D0BAF1450F4BD1A00549D53A
:1017E000B9696D1C24F44074761E0E9888478246B1
:1017F000002E0CDD2B2804D0BAF12D0F07D144F4B4
:101800008074B9696D1C0E9888478246761EE00583
:1018100001D52D2100E02B2108F8011BCDF82C80EB
:1018200021E00DF12901761E44F4007488450CD2A4
:10183000AAF1300010F0FF0088F8000002D10B99E7
:10184000884509D908F1010806E0E00501D52448DA
:1018500001E042F20F708146B9696D1C0E9888470D
:1018600082460F980560002E04DD504603F056FCBA
:101870000028D6D1F9690E988847FF208BF8000020
:1018800088F800000020069007904B466A4608A999
:1018900006A8FFF777FEA00502D46FF001002AE743
:1018A00014F0240F0AD0E00714D1DDE906123868DD
:1018B000031D3B600068C0E900120BE0DDE9060192
:1018C00000F038FB0146E00704D13868021D3A6099
:1018D0000068016028460EE7000014400000F03F59
:1018E000F1D8FFFF2DE9F05F93460F46804604468E
:1018F000002603F0E3F9D0F80090824614F8015B6B
:101900002DB100F0AFFB0068405DC007F6D12B2D74
:1019100002D02D2D1AD0641E0021CAF800105A469C
:101920003946204600F0EEFB014627B13868A04258
:1019300001D1C7F80080DAF80000022809D0CAF8FF
:101940000090700505D54842BDE8F09F46F48066DA
:10195000E2E70846F8E7F0B480EA0102D40F42005B
:10196000B2EB410F02D20246084611464A0042D06D
:10197000C30DDDB2C1F3C752AD1A202D35DAC1F364
:10198000160141F4000204B15242C5F1200602FAE8
:1019900006F12A411044B3EBD05F23D0C4B1012D2E
:1019A000A0EBC35009DCF0BC4FF0004202EAC35286
:1019B000DBB200F5000000F0FDBB400000F18070DC
:1019C00000EBC350A0F1807040EAD170490009E0FB
:1019D000490841EAC071A0EBC35000F5000040087F
:1019E00000EBC350F0BC00F0DCBB6142012202EB13
:1019F0004101001BF6E7F0BC704781F00041AAE707
:101A000080F00040A7E780EA010210B502F0004331
:101A1000400022D04A001FD0010E01EB1261C0F33A
:101A20005600C2F3560240F4000042F40002A0FB4C
:101A3000022000047F39140400D0401C50EA1240F8
:101A400001D44000491EC2B20C0604EBD010401C69
:101A50004008802A02D003E0002010BD20F00100E1
:101A6000002900DA0020184310BD30B480EA0102DA
:101A700002F0004530F0004221F0004013D090B158
:101A8000C30DD40DC2F31601C0F31600E41A41F4DD
:101A9000000140F400027D34914201D3641C00E057
:101AA0004900002C02DA30BC002070474FF40000DF
:101AB0000023914201D3891A034340084FEA4101B0
:101AC000F7D151B1914202D14FF0004105E002D26D
:101AD0004FF0010101E06FF0010103EBC450284415
:101AE00030BC00F05EBB420005D0C0F3C75252428A
:101AF000914201DC0020704700EBC15070472DE996
:101B0000FE4F804681EA0300C00F0C46009021F092
:101B1000004123F00045B8EB0200A94105D2404640
:101B2000214690461C460B46024623F000401043D7
:101B300047D0270DC7F30A00C3F30A510290401A99
:101B4000019040286BDAC3F3130040F4801B009827
:101B5000924620B10023D2EB030A63EB0B0B0198F2
:101B60005946C0F14002504600F05BFA06460D4669
:101B700050465946019A00F063FA10EB08006141A3
:101B8000002487EA115284EAE7731A4340D0009A8E
:101B900062B3019A012A4FEA075215DC001B61EB80
:101BA00002014FF0004202EA0752CDE90042001C58
:101BB00041F5801132462B4600F057FB03B0BDE8DB
:101BC000F08F40462146F9E7001B61EB0201001C43
:101BD00041F5801300185B412018A2F5001747EB70
:101BE000030140EAD570B6196D4111E06D084FEA66
:101BF000360645EAC0754FEA0752001B61EB020149
:101C0000001C41F5801149084FEA3000001951418C
:101C100032462B4603B0BDE8F04F00F017BB0098EA
:101C2000012240000023D0EB020263EBE073009836
:101C300021464FEAE074B8EB000061EB0401E9E7EC
:101C400083F000435BE781F0004158E72DE9FE4F48
:101C500081EA030404F0004421F0004100944FF0B5
:101C6000000B23F0004350EA01045ED052EA030463
:101C70005BD0C3F30A54C1F30A552C44A4F2F334E5
:101C80000194A0FB0254C1F3130141F48011C3F38A
:101C9000130343F4801301FB024400FB034E840A48
:101CA000970A44EA815447EA8357A4FB07680295E0
:101CB0008D0A05FB07854FEA932C04FB0C5427057E
:101CC000029D4FEA065847EA1637B5EB08056EEB5A
:101CD000070C870E920E47EA811742EA8312A7FB90
:101CE0000201B6EB0B0164EB00042B0D43EA0C334D
:101CF0005E1844EB1C50DA465146E7FB0201C5F37F
:101D000013044FEA0B3343EA14534FEA0432019CA5
:101D100043EA0603A4F10C040294009CCDE900B44C
:101D200000F0A3FA03B0BDE8F08F00200146F9E708
:101D30002DE9F04D81EA030404F0004B21F0004549
:101D400014464FF0000A23F0004150EA050220D06B
:101D500054EA01021DD0C5F30A570246C5F3130326
:101D6000C1F31300C1F30A5640F4801543F4801305
:101D7000A7EB0608101BD64608F2FD3873EB0500EA
:101D800002D308F1010801E092185B41B8F1000F9D
:101D900003DA00200146BDE8F08D00204FF48011E9
:101DA000064684460EE0171B73EB050705D3121B8E
:101DB00063EB050306434CEA010C49084FEA300087
:101DC00092185B4150EA0107EDD152EA030012D0AC
:101DD00082EA040083EA0501084305D0101BAB41E9
:101DE00006D20122002306E000224FF0004302E069
:101DF0006FF0010253101AEB06004CEB085110EB88
:101E00000A0041EB0B01BDE8F04D00F01FBA70B5C0
:101E100021F0004303430CD0C1F30A550024D5EB55
:101E2000040564EB0403D617AD1AB34102DB0020AE
:101E3000014670BD201841EB025170BDC10F80EA10
:101E4000E0700844CA079623002100F0B3B9962336
:101E50000022114600F0AEB90EB5C10F80EAE07065
:101E60000844CA07002140F233438DE80E000A46B9
:101E70000B4600F0FAF903B000BD00F0004220F07C
:101E80000040C10DC0F3160040F400007F2901DAC4
:101E900000207047962903DCC1F19601C84001E09B
:101EA00096398840002AF4D04042704700F0004242
:101EB00030F000400AD0C10D01F56071C0F316008A
:101EC00042EA0151C2084007114370470020014611
:101ED0007047000030B5041E71F1000404DB4FF0C0
:101EE0000044404264EB0101141E73F1000405DB61
:101EF0001C464FF00043524263EB04038B4208BF81
:101F0000824230BD30B5041E71F1000404DB4FF095
:101F10000044404264EB0101141E73F1000405DB30
:101F20001C464FF00043524263EB0403994208BF42
:101F3000904230BD01F0004330B421F0004150EA3E
:101F4000010206D00A0DA2F56072C1F31301002A46
:101F500002DC30BC00207047440F44EAC104C100D9
:101F6000E01830BC00EBC25000F01BB9002801DBC8
:101F7000C0F10040002901DBC1F1004181427047FE
:101F8000002801DBC0F10040002901DBC1F1004164
:101F90008842704730B50B460146002020220124BC
:101FA00009E021FA02F59D4205D303FA02F5491B27
:101FB00004FA02F52844151EA2F10102F1DC30BD3D
:101FC0002DE9F05F0546002092469B46884606466E
:101FD000814640241BE0284641464746224600F001
:101FE00019FA53465A46C01A914110D31146184661
:101FF000224600F016F82D1A67EB01084F462246DC
:102000000120002100F00DF817EB00094E41201EC1
:10201000A4F10104DFDC484631462A464346BDE8C8
:10202000F09F202A04DB203A00FA02F100207047DA
:102030009140C2F1200320FA03F319439040704706
:10204000202A06DBCB17203A41FA02F043EAE0737C
:1020500006E041FA02F3D040C2F120029140084369
:10206000194670470048704764EB000810B50446F5
:10207000FFF7F8FF0068005D00F0010010BD3A288E
:1020800000D2303820F02002412A01D3A2F13700DB
:10209000884201D34FF0FF307047000002681144BE
:1020A0001378016018467047D160044951610449B2
:1020B000116200211161114600F0BCB99D20000899
:1020C0006D200008426842B1016811F8013B23B15C
:1020D000521EC0E90012184670470121C160881ED7
:1020E000704742685AB1C368016843B983688B423C
:1020F00005D0491E521CC0E90012002070474FF065
:10210000FF3070472DE9F05F8246007800271546C2
:102110008B460AF10104B946302801D09DB113E085
:1021200014F8010B0127782803D0582801D045B1B5
:102130000AE00DB1102D07D10027102514F8010B6E
:1021400002E0082500E00A250026B0460EE005FB67
:10215000080005FB06F1012701EB10461FFA80F885
:10216000B6F5803F00D3B94614F8010B2946FFF7B6
:1021700086FF0028EBDABBF1000F05D00FB1641E1B
:1021800000E05446CBF80040B9F1000F06D002F051
:1021900095FD02210160C81EBDE8F09F48EA064097
:1021A000FAE70029A8BF7047401C490008BF20F08B
:1021B0000100704710B4B0FA80FC00FA0CF050EA4D
:1021C000010404BF10BC704749B1CCF1200421FACE
:1021D00004F411FA0CF118BF012121430843A3EBC9
:1021E0000C01CB1D4FEA00614FEA102042BF0020D6
:1021F00010BC704700EBC35010440029A4BF10BCB2
:102200007047401C490008BF20F0010010BC704717
:1022100010B541000CD0C0F3C751962908DC7E29C7
:1022200009DC06DB410204D000F0004040F07E50A3
:1022300010BD002010BDC1F19604C4F1200100FAC8
:1022400001F1E040FFF7ADFFA04010BD10B5141E36
:1022500073F1000408DA401C41F1000192185B415F
:102260001A4301D120F0010010BD2DE9F04D924636
:102270009B4611B1B1FA81F202E0B0FA80F220324D
:102280009046FFF7CEFE04460F4640EA0A0041EAB8
:102290000B0153465A46084313D0114653EA010036
:1022A00019D0C8F14002504600F0B4F805460E4679
:1022B000504659464246FFF7B4FE084305D0012078
:1022C00004E020463946BDE8F08D0020054346EA8B
:1022D000E0762C4337430A986305E40AA0EB080034
:1022E0000022FD0A44EA47540A3002D50020014684
:1022F000E9E7010510196941DDE90845001969415F
:10230000BDE8F04DA2E72DE9F04D00231A461B1A57
:102310008A4103DB00200146BDE8F08DC1F30A527B
:10232000C1F3130141F480154FF0000BD10702D126
:1023300000186D41521E0027044640F2FF11384636
:1023400001EB620A3E468046024600204FF48011AF
:1023500000F060F8C2197141BB1846EB0100B4EB04
:10236000030C75EB000C04D3E41A65EB000517466B
:102370000E46241908F101006D4180463428E3DD42
:10238000F91946EB0600091BA84103D24FF0FF32B2
:10239000134601E0002213461BEB070046EB0A51EF
:1023A000BDE8F04DFFF752BF0EB540F23342029246
:1023B0000022CDE900221346FFF757FF03B000BD0E
:1023C000C1F30A52C1F3130140F2FF3341F480110B
:1023D0009A4202DA00200146704740F233439A42A3
:1023E000A2F2334202DC524200F014B8FFF719BEE9
:1023F000064C074D06E0E06840F0010394E8070052
:1024000098471034AC42F6D3FEF7A6FEF4EC000871
:1024100014ED0008202A04DB203A21FA02F0002102
:10242000704721FA02F3D040C2F1200291400843E4
:10243000194670472DE9F34F8BB04FF0000801F1BA
:102440000C000C464FF0010B46460DF1080A0190B6
:102450006269012101989047051E2DD0252D2CD0B1
:10246000216A8847C0B16269012101989047216AB9
:1024700088470028F7D1411E62690198904700E023
:10248000761CA1690B988847216A88470028F7D1F4
:10249000E1690B988847DBE7A1690B9888470746F5
:1024A000A84201D1761CD3E7E1690B9888477F1CCD
:1024B00002D1B8F1000F6FD046E1002762693D46B6
:1024C0003946019890472A2804D162690121019870
:1024D00090470125DFF884926269012101989047B5
:1024E000A0F130010A290AD24F45E5DC07EB87014C
:1024F00000EB4107303FDFD445F01005ECE7E9067B
:1025000001D46FF000476C280AD04C2814D06828FA
:1025100015D06A280DD074281CD07A281AD01DE056
:1025200062690121019890476C2802D045F00405AA
:1025300014E045F002050DE045F020050AE062696F
:10254000012101989047682802D045F0080505E070
:1025500045F400656269012101989047C4E901577B
:1025600065283DD019DC58287AD00CDC452837D0B6
:1025700004DC252826D0412831D131E046282FD04F
:1025800047282CD12CE05B2877D0612828D06328FD
:102590007CD0642823D15AE0D0E06F2848D008DCF2
:1025A00066281DD067281BD0692821D06E2816D137
:1025B00027E0702845D0732868D0752847D0782840
:1025C0000DD14DE0A1690B988847054625283FF4B9
:1025D00069AFE1690B9888476D1C3FF46AAFB3E0BF
:1025E00023466A466FF001000B99FFF75FF89EE003
:1025F00045F040006060A80723464FF0000236D443
:102600003EE0E8077FF447AF2068011D21600068C5
:10261000290501D506701BE7290701D5068017E7B4
:10262000A90703D5F117C0E9006111E706600FE7BC
:1026300045F040006060A80723464FF0080216D41A
:102640001EE040F60E0125EA0100606016E045F04C
:1026500040006060A80723464FF00A0207D40FE04D
:1026600045F040006060A80708D5234610226FF0AF
:1026700001000B99AFF3008059E007E023461022D8
:102680006FF001000B99FEF767FE50E04FF0000974
:102690004F464B46632802D05B2806D040E0E80650
:1026A00001D40120A06001273AE06269012101986C
:1026B00090475E2805D14FF00109626949460198AB
:1026C0009047216939B900210A46534643F8212031
:1026D000491C0829FADBB0B3216969B9C11700EBBD
:1026E000D16253110AEB830122F01F02821A0120EA
:1026F0000B68904003430B60626901210198904789
:102700005D28E8D1B9F1000F09D00020514651F8F9
:102710002020D24341F82020401C0828F7DB02ABE0
:10272000224600976FF001000B99FEF7BBFE0028D0
:102730000CDA401C08D1BBF1000F05D04FF0FF3080
:102740000DB0BDE8F08FFFE74046F9E7E90701D19A
:1027500008F1010806444FF0000B79E6CCCCCC0C14
:10276000F0B4002802DCF0BC00207047C0F3C75171
:10277000C0F3160040F40000CA0701D14000491E12
:102780003F2202EB6105002211464FF4000626FAB3
:1027900001F31344D418844201D8001B1A464000A8
:1027A000491C1729F3DD5100814202D24FF0FF315D
:1027B00000E0002102EBC550F0BCFFF7F2BC70B5A1
:1027C0008C1810F8015B15F0070301D110F8013BDC
:1027D0002A1106D110F8012B03E010F8016B01F863
:1027E000016B5B1EF9D12B0705D40023521E0DD4BB
:1027F00001F8013BFAE710F8013BCB1A921C03E009
:1028000013F8015B01F8015B521EF9D5A142D8D340
:10281000002070BD10B5086800221146401CFFF76B
:1028200061F804460C49A0F51660884211D821468B
:102830000AA00BF047FB0C48416CA14207D000F105
:10284000200144644FF4FE7208A00BF019FD002033
:1028500010BD012010BD0000A0060E0042415544ED
:102860003D25640D0A0000003C030020726567737B
:102870000000000001200BF07FBA01200BF040BAED
:1028800002200BF03DBA02200BF076BA012809D0E5
:1028900002280DD1074850F8210001682AB141F003
:1028A000010104E003484038F5E721F0010101602F
:1028B00070470000A4E5000802460020012A06D067
:1028C000022A03D1034850F82100406870470148AC
:1028D0004038F8E7A4E500080A494FF0FF32012824
:1028E00008D0022805D1486940F002004861064836
:1028F00002607047486940F0010048610348426047
:102900007047000000100240040402400000024032
:1029100070B515460C4601280ED0022817D10C4878
:10292000005701F06FFC0A48503050F8240001684D
:1029300055B141F0020109E00548801D005701F042
:1029400061FC03481030F0E721F00201016070BD26
:1029500054E50008012806D0022803D1034850F8A6
:1029600021004260704701484038F8E7A4E50008BC
:10297000012806D0022803D1034850F82100C26084
:10298000704701484038F8E7A4E5000801280BD05B
:10299000022808D1064850F82100016821F0800182
:1029A00041EAC2110160704701484038F3E7000076
:1029B000A4E5000810B50B46044609780022FFF78D
:1029C00065FF43F6D071012C28D0022C25D11C784C
:1029D00015489A6850F82440A2601C781A6950F88B
:1029E0002440E2601C785A8850F8244062601A78CB
:1029F00050F8220002688A4399880C0244EA812137
:102A00001C7B41EAC4119C795B7841EA841141EA5C
:102A10000311114341F48051016010BD02481C783C
:102A200040389A68D6E70000A4E500080548016828
:102A300041F0807101600448016841F001010160CA
:102A400070470000FCED00E0001000E001F060BF06
:102A500010B5086800221146401CFEF743FF0649E6
:102A60000028086C04D040F001000864002010BD6C
:102A700020F00100F9E700003C03002030B51C48BD
:102A80004456012004F01F0500FA05F56409A4006E
:102A900004F1E024C4F80051164C25688840054331
:102AA0002560144914390C680BB1044300E08443D9
:102AB0000C6010490C394AB10C1D012A0DD0022AB4
:102AC0000AD10A688BB102430A6007E00A680BB1B9
:102AD000024300E082430A6030BD13B12168014324
:102AE00001E021688143216030BD82430A60F8E73C
:102AF000CCE500081404014002480021007806F0EB
:102B00006BBD0000740B00202DE9F0410A24084E33
:102B1000084F0125306805FA04F1084203D0385DFA
:102B2000214606F059FD641C102CF3DBBDE8F08152
:102B300014040140740B002002480121407806F083
:102B40004BBD0000740B002002480421007906F000
:102B500043BD0000740B00202DE9F0410524084E10
:102B6000084F0125306805FA04F1084203D0385DAA
:102B7000214606F031FD641C0A2CF3DBBDE8F08130
:102B800014040140740B002008B50E480022009286
:102B9000016841F4803101604FF4004306E0009980
:102BA000491C0091994201D9012008BD016889039F
:102BB000F5D5009200BF0098401C0090FF28F9D97D
:102BC000002008BD001002402DE9F05F242008F02D
:102BD000D5FB04460C2008F0D1FB0546242008F064
:102BE000CDFB06460C2008F0C9FB264907462422E7
:102BF0008B46204608F04DFD22490C2224318A469E
:102C0000284608F046FD1F492422383189463046BF
:102C100008F03FFD1B490C225C318846384608F01D
:102C200038FD05F0C1FB05F00BFC24222146584677
:102C300008F02FFD0C222946504608F02AFD2422D8
:102C40003146484608F025FD0C223946404608F03A
:102C500020FD4FF4FE720C490CA00BF011FB204636
:102C600007F000FF284607F0FDFE304607F0FAFEA9
:102C7000384607F0F7FE0021084601F051FB00201E
:102C8000BDE8F09FB40400205C0300207265677308
:102C9000000000002DE9F04F0E460024086897B0B0
:102CA0002546FEA109F0CAFBFE4A002802F1200BCE
:102CB00002F5CE7902F5B87292467DD006A805A934
:102CC000CDE9001004AB15AAF7A13068FEF728FB88
:102CD000042872D00321062006F058F9139004212D
:102CE000062006F053F912900321042006F04EF955
:102CF00011900421032006F049F9109000220321CD
:102D000007A80BF08CFA002203210AA80BF087FA1F
:102D10004FF07E573B4602220021139806F051F8EF
:102D2000E54E022233460121139806F04AF83B464D
:102D300001220221139806F044F8334601220321B0
:102D4000139806F03EF83B4600220421139806F043
:102D500038F8334600220521139806F032F8D7A040
:102D60000BF0B0F8DFF83C8308F51D7014900322D7
:102D700007A814990BF03FF9D8F8740208F51D76EE
:102D80000146FEF740FE0A99FEF7E5FD0A907068DD
:102D90000146FEF738FE0B99FEF7DDFD0B90B0689B
:102DA0000146FEF730FE0C99FEF7D5FD0C9064202D
:102DB0006D1C95FBF0F101E005E011E000FB115501
:102DC000002D2FD004E2104604F0CAFF5146C4A0E3
:102DD00004F088FB0022032148460BF020FA1AE099
:102DE0001599032908DA04AA50460AF0D9F9514680
:102DF000BBA004F077FB0EE00DD14FF0030204A955
:102E000048460BF013F9B8A00BF05CF8032204A9B4
:102E1000B9A004F0B3FB4FF4FE725946B9A00BF011
:102E20002FFA2DE2B94E07983146FEF71EFE0090AC
:102E300031460898FEF719FE019031460998FEF7D1
:102E400014FE029007990846FEF7DDFD3146FEF7B5
:102E50000CFE0A99FEF7D4FD0D9008990846FEF77E
:102E6000D2FD3146FEF701FE0B99FEF7C9FD0E902B
:102E700009990846FEF7C7FD3146FEF7F6FD0C99A5
:102E8000FEF7BEFD0F900322A1490DA80BF0B4F987
:102E90000D98FFF70BF80AF08DFAFFF74BF80D903D
:102EA0000E98FFF703F80AF085FAFFF743F80E9043
:102EB0000F98FEF7FBFF0AF07DFAFFF73BF80F9043
:102EC0000022032107A80BF0AAF9002203210AA877
:102ED0000BF0A5F900238F4A03210DA803970BF0EF
:102EE00005F900287DD18C4B8C4A03218C480BF0CE
:102EF000FDF80028F6D100988A4E20F000403146B7
:102F0000FFF734F821D20198314620F00040FFF756
:102F10002DF81AD239460298FEF76FFD20F00040D6
:102F20003146FFF723F810D2E0070ED144F0010438
:102F30007DA00AF0C7FF6A46002112980AF030F916
:102F40000422694666A004F019FB0098314620F07F
:102F50000040FFF70BF821D20198314620F00040E5
:102F6000FFF704F81AD254490298FEF746FD20F004
:102F700000403146FEF7FAFF10D2A0070ED444F00D
:102F800002046DA00AF09EFF6A46012112980AF021
:102F900007F90422694652A004F0F0FA009831467D
:102FA00020F00040FEF7E2FF23D20298314620F0E5
:102FB0000040FEF7DBFF1CD239460198FEF71DFDED
:102FC00020F000403146FEF7D1FF12D2600710D446
:102FD00044F004045CA00AF075FF6A4602211298CE
:102FE00000E0F5E00AF0DCF8042269463CA004F0B9
:102FF000C5FA0098314620F00040FEF7B7FF21D215
:103000000298314620F00040FEF7B0FF1AD22A495C
:103010000198FEF7F2FC20F000403146FEF7A6FFD3
:1030200010D220070ED444F008044BA00AF04AFF47
:103030006A46032112980AF0B3F80422694628A0D0
:1030400004F09CFA0198314620F00040FEF78EFF14
:1030500021D20298314620F00040FEF787FF1AD2B5
:1030600039460098FEF7C9FC20F000403146FEF7D3
:103070007DFF10D2E0060ED444F010043AA00AF00E
:1030800021FF6A46042112980AF08AF80422694650
:1030900013A004F073FA01986EE000003D5245530E
:1030A000455400003C0300203D25642C25662C255A
:1030B000662C256600000000000080BF6661637416
:1030C0006F72792063616C6962726174696F6E20DE
:1030D000666F72206163632E2E2E0D0A00000000C1
:1030E0006D61746C61620000626961732073657464
:1030F00020746F3A0D0A00006E6F68656164657236
:103100000000000072656773000000000000C84204
:10311000B57E253C0AD7233C0000A0C00000A0409B
:10312000BC050020CDCC4C3E5A2B20706F737469C7
:103130006F6E0D0A000000005A2D20706F737469C5
:103140006F6E0D0A00000000592B20706F737469B8
:103150006F6E0D0A00000000592D20706F737469A6
:103160006F6E0D0A00000000582B20706F73746999
:103170006F6E0D0A0000000020F000403146FEF79F
:10318000F5FE22D20298314620F00040FEF7EEFE16
:103190001BD23D490098FEF730FC20F0004031463C
:1031A000FEF7E4FE11D2A0060FD444F0200437A0AD
:1031B0000AF088FE6A460521129809F0F1FF042200
:1031C0006946AFF2E40004F0D9F9E043800603D089
:1031D0000A2009F037FBCAE52FA00AF073FEDDE9EB
:1031E0001210119A05F06BFCDDE910100AF0FEFCDC
:1031F0006A460021109804F035FE6A4600215046C8
:1032000009F0BDFF6A460121109804F02BFE6A46C2
:103210000121504609F0B3FF6A460221109804F0DC
:1032200021FE6A460221504609F0A9FF4A460321C1
:10323000109804F017FE032148460AF073FF1DA002
:103240000AF040FE5146AFF2501004F04BF9032251
:103250004946AFF25C1004F091F94FF4FE72594602
:10326000AFF260100BF00CF8129807F0FBFB13980C
:1032700007F0F8FB119807F0F5FB109807F0F2FB48
:1032800017B00020BDE8F08F000080BF582D2070DF
:103290006F730D0A00000000616C6C20706F73206A
:1032A0006461746120636F6C6C65637465640D0A9E
:1032B000000000006163632063616C627269617485
:1032C000696F6E206D61743A0D0A0000FEB51CA096
:1032D0000AF0F8FD0022032168460AF0A0FF0A2048
:1032E00009F0B0FA1A4E00244FF448750322314613
:1032F00068460AF080FE0A2009F0A4FA641CAC4279
:10330000F4DB1349134BD839134A0C4668460AF0CC
:103310005AFF032120460AF02DFF104C4FF07E513A
:10332000D4F8A401FEF769FBC4F8A4014FF4FE72BF
:1033300004F120010AA00AF0A3FF0020FEBD000056
:10334000626567696E20464341320D0A0000000045
:10335000B0050020000040400AD7A33A3C030020FB
:10336000726567730000000070B50C460546FFF7F4
:1033700091FC4FF4FA5009F065FA2146284600F016
:1033800003F8002070BD00002DE9F04F00260D4627
:10339000086893B03446B046CEA1FDF7A4FFCF49EC
:1033A00001F120020A9201F5EA7201F5D471CDE92A
:1033B0000821B0B107A806A9CDE9001005AB0DAAF8
:1033C000C7A12868FDF7ACFF042817D00CAAC8A134
:1033D0002868FDF7A5FF012832D0012013B0BDE811
:1033E000F08F084604F0BCFCC2A0099904F07AF8FA
:1033F0000022032108980AF012FF1AE00D99032910
:1034000008DA05AA099809F0CBFEBAA0099904F0D8
:1034100069F80EE00DD14FF0030205A908980AF0F3
:1034200005FEB6A00AF04EFD032205A9B7A004F0E0
:10343000A5F84FF4FE72B8A00A990AF021FF45E101
:103440000321084605F0A2FD03210190084605F07E
:103450009DFD00900022032102A80AF0E0FEB0A02A
:103460000C990AF02FFD9D48DFF8CCB250F8841F6C
:1034700010914FF07E5101600021A0F86E12AD480E
:103480000F9002A803220F990AF0B5FD934D08F1A1
:103490000108B5F8F20270B920077DD4002E7BD167
:1034A0000126A6A00AF00EFD0022032102A80AF0C0
:1034B000B6FE4FF00008B5F8F202052829D1200722
:1034C0002DD4A2A00AF0FEFC4046FEF7B7FC014650
:1034D0004FF07E50FEF7C9FA02469F4B02A80899AA
:1034E0000AF071FE0021089A009809F048FE0121B7
:1034F000089A009809F043FE0221089A009809F002
:103500003EFE032295A0089904F038F8012644F005
:103510000804B5F8F20201283ED920073CD5012E57
:1035200001D096B188E00020A5F8F20221468DA0D6
:103530000AF0C8FC0022032102A80AF070FE4FF036
:10354000000809F071FA0B9076E009F06DFA0B991A
:10355000081A0B90FEF772FC8949FEF786FA119063
:1035600088A00AF0AFFC00254FF07E574046FEF7DA
:1035700065FC01463846FEF778FA0E900C98FEF787
:103580005DFC1199FEF771FA0746734B6A4902A870
:103590000E9A0AF018FE00E053E05BF8250020F0D8
:1035A0000040FEF783FC81468A4627F00040FEF784
:1035B0007DFC4A465346FEF743FB0022744BFEF760
:1035C00089FC23D25BF825103846FEF716FA20F066
:1035D00000406149FEF7D4FC01D287F0004756480D
:1035E000554A0C38294640F82570019809F0C7FD66
:1035F0000322514967A003F0C1FF3846FEF756FC8D
:1036000002460B4666A00AF05DFC02E06D1C032D2D
:10361000B4DB25B1012D06D0022D0DD107E044F019
:10362000010462A006E044F0020463A002E044F05A
:10363000040464A00AF046FCE043000705D0EEB3A2
:1036400000260A2009F0FEF81BE70321084605F0D2
:103650009DFC04460321084605F098FC36490546C2
:103660000C3903F003FFDDE9001009F0EAFE204603
:10367000019904F0D5FF21462846099A05F0B8FDC6
:10368000284607F0EFF9204607F0ECF9019807F01B
:10369000E9F9009807F0E6F910491098C1F884009C
:1036A0001AA0099903F01EFF032218A0089903F03D
:1036B00065FF4FF4FE7218A00A9900E008E00AF0D6
:1036C000DFFD0022032102A80AF0A9FD002085E603
:1036D0000126B6E73D524553455400003C03002007
:1036E0003D25642C25662C25662C256600000000EF
:1036F0003D2564006D61746C6162000062696173F4
:103700002073657420746F3A0D0A00006E6F68654F
:10371000616465720000000072656773000000005C
:1037200073746172742046434725642E2E2E0D0A51
:1037300000000000BC050020FC0B002062696173E2
:103740002073746172740D0A000000006269617375
:103750002073746F700D0A0000004040626961734D
:1037600020000000617869732C2073746172742CDE
:1037700020666C61673A307825580D0A0000000019
:1037800000004843732C2073746F700D0A00000012
:103790000000084061637475616C0D0A0000000050
:1037A000746865726F793A25660D0A0058202066A4
:1037B0006F756E64210D0A00592020666F756E6466
:1037C000210D0A005A2020666F756E64210D0A00D3
:1037D000FEB500252A46032168460AF020FD18A000
:1037E0000AF070FB1A4F00244FF448760322394642
:1037F00068460AF000FC0A206D1C09F023F8641CDE
:10380000B442F3DB2846FEF719FB01464FF07E5029
:10381000FEF72BF90E490246AC390E4B0C466846B2
:103820000AF0D1FC032221460BA003F0A7FE4FF4BF
:10383000FE720B490BA00AF023FD0020FEBD000024
:10384000626567696E20464347320D0A000000003A
:10385000BC050020000040406D61746C6162000096
:103860005C030020726567730000000000B572B64B
:10387000094B196941F0020119615861186940F05A
:1038800040001861D80304F07DFA196921F00201A3
:10389000196162B600BD0000002002404FF4806054
:1038A000704700000348416941F01001416100F098
:1038B00003B8000000100240034802494160034978
:1038C000416070472301674500200240AB89EFCD7E
:1038D0002DE9F04107464FF4704416460D46204648
:1038E00004F050FAA04600230A4C0FE072B620699B
:1038F00040F001002061E85CF854404604F042FAD0
:10390000216921F00101216162B65B1CB342EDD354
:10391000BDE8F0810020024070B505462D4B1446ED
:103920000E46062D0CD2DFE805F0030714180B1C19
:10393000986940F0040002E0986940F0080098613E
:103940000A2C44D2DFE804F0111F18432A434343F2
:103950002A3E986940F01000F1E7986940F0200095
:10396000EDE7986940F08000E9E70023012228464E
:1039700000F032FF00221EE000230222284600F061
:103980002BFF012205E000230222284600F024FF3D
:1039900000223146284600F029F818E003230022CF
:1039A000284600F019FF042C0AD000223146284690
:1039B00000F01CF801223146284600F03DF806E0F0
:1039C0000122F3E702230122284600F005FF2846E2
:1039D00070BD000000100240034A52F820008068C9
:1039E000C84000F001007047BCE5000801238B408F
:1039F000034951F820000AB10361704743617047E1
:103A0000BCE500080A4A10B5936943F001039361CD
:103A10008A0721F003040749120F21440F238C6801
:103A200093409C438C608B68904003438B6010BD37
:103A3000001002400000014030B512B10024022302
:103A400001E0012400230D4A0F2552F820008A00CE
:103A5000082909D34168203A954043EA8403A943E1
:103A600093400B43436030BD0168954043EA8403B3
:103A7000A94393400B43036030BD0000BCE5000840
:103A8000012A00D00022FFF7B1BF00003EB5086850
:103A90006B4601AA26A1FDF743FC022846D10098F7
:103AA00010F1FF4F42D2244988423FDC012423A178
:103AB00001A808F0C3FC224D58B90098FEF7F6F9AA
:103AC00002460B461FA00AF0FDF900980024C5F835
:103AD000840021A101A808F0B1FC58B90098FEF7B4
:103AE000E5F902460B461DA00AF0ECF90098002407
:103AF000C5F888001DA101A808F0A0FC08B164B1B8
:103B000012E00098FEF7D2F902460B4618A00AF020
:103B1000D9F900980024C5F88C0009494FF4FE72C9
:103B2000203118A00AF0ACFB20463EBD01203EBD6E
:103B30003D2533732C2566000000A0404249530008
:103B40003C03002067797220626169732074687297
:103B50003A25660D0A000000434F460074656D70FB
:103B600020636F66203A25660D0A00004C4D460022
:103B7000677972206C6D66207468723A25660D0A4A
:103B800000000000726567730000000030B5224C31
:103B9000012102226368C3F303135BB1082B04D035
:103BA000092B04D00A2B05D103E0022102E00421F5
:103BB00000E008216368C3F3022333B1042B09D06A
:103BC000052B04D0062B05D103E0012202E00422DC
:103BD00000E00822114B05281B681AD2DFE800F02C
:103BE0000B03080D0F00B3FBF1F0B0FBF2F030BD9A
:103BF000B3FBF1F030BD184630BD094830BD206B35
:103C0000800104D5606D800501D5064830BD0648A9
:103C100030BD002030BD0000001002400000002038
:103C2000001BB700006CDC0200127A000249486AEF
:103C300000224A6270470000001002400549054B0F
:103C40000A68091D083309681B685940C0E900214A
:103C500070470000E8F7FF1F08B5054B6946187864
:103C600000F0C6FE0028F9D19DF8000008BD000054
:103C70003C00002070B50C460868FDF72DFB0D4D8B
:103C800090B1206800221146401CFDF72BFE296BE5
:103C9000814207D028634FF4FE7205F1200106A08F
:103CA0000AF0EEFA002070BD05A0296B0AF00AF9AF
:103CB000F8E700003C030020726567730000000015
:103CC00025640D0A000000007CB50C4608689BA125
:103CD000FDF709FB9A4D28B19AA12068FDF703FB77
:103CE000002825D198A10420CDE90001002301225C
:103CF000E22198A00AF0E6F89DA00AF0E3F8A548B2
:103D0000AA6EA5A150F82230A5A00AF0DBF8A8A160
:103D1000A8A02A6B0AF0D6F8D5E90A23A8A1AAA080
:103D20000AF0D0F8A86CABA1020CACA00AF0CAF85B
:103D3000ADA12068FDF7D7FA58B9B5F8EE22ACA1CD
:103D4000A6A00AF0BFF8ACA1AEA0D5F8E4220AF014
:103D5000B9F8B0A12068FDF7C6FA00281CD17AA2F4
:103D6000AEA1B1A00AF0AEF8B2A2B5A1AEA00AF021
:103D7000A9F8B6A18FA06A6B0AF0A4F808F054FE67
:103D800000EB8002B4A1B6A00AF09CF8B8A189A00B
:103D9000D5F8E0220AF096F8B7A12068FDF7A3FA5B
:103DA000002834D1B649B7A003F09CFBB4490322E4
:103DB0002C31B6A003F0E2FB0322B749B7A003F011
:103DC000DDFBAF49B8A0383103F08CFBAC490322CE
:103DD0006431AEA003F0D2FBAF4903220C39B4A08A
:103DE00003F0CCFBA649B5A0703103F07BFBA449DE
:103DF00003229C31A5A003F0C1FBD5F88800FEF793
:103E000055F802460B46AFA1B0A00AF05BF8B2A18C
:103E10002068FDF768FA002838D165A1B0A02A6BA8
:103E20000AF050F85CA1AEA0AA6E0AF04BF895F823
:103E3000D020AEA1AAA00AF045F8AEA1A8A06A6C55
:103E40000AF040F8ADA1B0A0AA6D0AF03BF8B1A10C
:103E5000B2A06A6D0AF036F8D5F88400FEF726F8AD
:103E600002460B46B0A1B2A00AF02CF8D5F88C009F
:103E7000FEF71CF802460B46B1A1ADA00AF022F8ED
:103E8000B5F8F022B1A196A00AF01CF8B2A1206802
:103E9000FDF729FAA0B915F8D02F94A190A00AF047
:103EA00011F82888ADA1C0F307228DA00AF00AF806
:103EB00055F8D009ADA1C0F3074289A00AF002F875
:103EC000ACA12068FDF70FFA40B904F0EFFD04F053
:103ED000B7FDC822A9A141A009F0F4FFA9A120685B
:103EE000FDF701FA002827D135F8A40FA7A1C0F3E8
:103EF00007227BA009F0E6FF6868FDF7D7FF0246BE
:103F00000B46A4A1A5A009F0DDFF2A78A6A1A9A0CF
:103F100009F0D8FFA868FDF7C9FF02460B46A8A123
:103F20009EA009F0CFFFE868FDF7C0FF02460B46F0
:103F3000A5A19AA009F0C6FF00207CBD00000000EA
:103F40003C0300203D4C00004E6F76203132203281
:103F5000303230000D0A484925642025642E25643E
:103F60002E2564206275696C642025730D0A00009B
:103F700032303130202D203230323020436F707992
:103F80007269676874206279204869504E55430D04
:103F90000A000000A40200204D4F44453A000000F2
:103FA000252D3136732564282573290D0A0000005C
:103FB00049443A00252D313673307825580D0A00D2
:103FC000555549443A000000252D313673255825B2
:103FD000580D0A004F44523A00000000252D31369A
:103FE000732564487A0D0A003D53454E534F5200E5
:103FF000677972206672710073656E736F722073D9
:1040000074730000252D3136733078253038580D03
:104010000A0000003D435055000000006275696CC5
:104020006420646174650000252D31367325730D9D
:104030000A00000031353A32313A303200000000D7
:104040006275696C642074696D6500006370752029
:10405000696E666F0000000074696D650000000005
:10406000252D3136732564206D7365630D0A0000BC
:1040700070726F6420736E003D43414C000000007D
:10408000AC0400204143430D0A0000006E6F6865D8
:104090006164657200000000F80500205243204171
:1040A00043430D0A000000004759520D0A0000006A
:1040B0005243204759520D0A000000004D41470D60
:1040C0000A00000067797220636F6600252D313683
:1040D00073252E34660D0A003D5553520000000032
:1040E000252D31367325640D0A00000047574944D9
:1040F0003A000000424155443A00000043414E5FFF
:10410000424155443A000000252D31367325644B59
:104110000D0A000043414E5F49443A00252D3136D7
:104120007325580D0A00000047425F5448523A0078
:10413000252D31367325302E34660D0A000000001F
:104140004C4D465F5448523A00000000494D555FBF
:10415000434F4F52443A00003D5246004D415820D3
:10416000534C5620434E543A000000005458204609
:1041700052513A003D535953000000006F732074B0
:1041800069636B003D4853490000000076616C692B
:10419000643A00006669746572723A00252D313602
:1041A0007325660D0A00000062696E5F73746174A6
:1041B00075733A00252D313673256425250D0A00C7
:1041C000666C75783A000000696E636C696E6174A4
:1041D000696F6E3A0000000010B500F001F810BDE4
:1041E00006488168090607D5816841F400018160AD
:1041F0000349002000F030BB70470000001002406F
:10420000000E270700F01F020121914040098000A5
:1042100000F1E020C0F800117047000010B50868F8
:1042200000221146401CFDF75DFBB0F5C87F11D898
:10423000094A916CB0EB114F0AD089B241EA0040B3
:10424000906405494FF4FE72203104A00AF018F87A
:10425000002010BD012010BD3C0300207265677373
:10426000000000002DE9F04704460020244B0AE03E
:104270006288616800FB020251F822509D4201DA17
:1042800041F82230401C21888142F1DC00254FF0AA
:10429000804A30E06188606805FB015150F82110C8
:1042A0005046814226DDFDF7E0FBFDF7FFFD09F0FA
:1042B00081F8FDF73FFE8146002618E061886068BE
:1042C00005FB0167804650F827004946FDF79BFB38
:1042D00048F827006188606806FB0157804650F85F
:1042E00027004946FDF78FFB48F82700761C2088F9
:1042F000B042E3DC6D1C2088A842CBDCBDE8F0872F
:104300006F12833A10B5044A04460146107800F053
:10431000C5FB204610BD00003C0000207047000097
:1043200010B504A009F0CEFD72B600F00DFB002020
:1043300010BD00004F4B0D0A0000000010B5002218
:104340000321024809F06BFF002010BDD4050020B6
:104350003EB5086802AB6A461BA1FCF7E1FF1C4CA6
:10436000022819D11BA16846FCF7BDFF012538B909
:104370000299D4F8E80205FA01F10843C4F8E8020A
:1043800015A16846FCF7AFFF30B90299D4F8E802EE
:104390008D40A843C4F8E80294F8E80204F53A74A2
:1043A00000F001010DA009F08DFD2078C0F340015F
:1043B0000DA009F087FD2078C0F380010DA009F061
:1043C00081FD00203EBD00003D2533732C25640097
:1043D0003C03002053455400434C520054454D507B
:1043E0003A25640D0A000000424941533A25640D04
:1043F0000A000000475241563A25640D0A000000A9
:104400002DE9F047086886B03D21FCF75BFF050009
:104410002FA0DFF8CCA00FC88DE80F00E9464FF0C1
:10442000010813D068780D2810D00A280ED068B182
:1044300000273E462BA009F045FD04AA2EA1681CCA
:10444000FCF76EFFC0B2012814D024E026A009F0CA
:1044500039FD00244E464546574605FA04F1B86C2E
:10446000084203D0315D25A009F02CFD641C102CFE
:10447000F3DB29E000249DF8100019F804108142B4
:1044800005D108FA04F006431CA009F01BFD641CCA
:10449000102CF0D37F1C2C21681CFCF713FF0500A7
:1044A00001D0102FC9DBDAF8480082B2B2420BD03B
:1044B0006FF30F0030430A49CAF848004FF4FE7208
:1044C000203111A009F0DCFE06B00020BDE8F08725
:1044D0009190A0B0C0D0D1F06200000000D960B1CE
:1044E0003C0300206E6577207061636B6574206902
:1044F00074656D733A0D0A00255800005B3078250D
:104500003032585D0D0A00007265677300000000CC
:104510002DE9F0431C4E0546894656F8250085B026
:104520009846818841F003018180002401278DF89D
:1045300000208DF80170ADF80440ADF802400494FD
:104540008DF80C7056F825008DF806400C3002905E
:1045500069464846FEF72EFA8DF800808DF8014036
:10456000ADF80440ADF8024004948DF80C7056F894
:1045700025008DF806400C30029069464846FEF74B
:1045800019FA05B0BDE8F083DCE5000870B5044613
:104590001C48012C02D0022C19D10CE0C26842F454
:1045A0008052C260C26822F48052C260826942F4C2
:1045B000805282610BE0026942F48042026102692A
:1045C00022F480420261C26942F48042C2610E4D0F
:1045D000002055F82420108055F824200720108250
:1045E000204600F013F855F82400018841F4517179
:1045F000018055F82400818821F004018180002089
:1046000070BD000000100240DCE500082DE9F04715
:1046100086B00D460646142225496846FCF72EFE54
:10462000DFF88C904FF00008A9F10C092F4659F8DB
:104630002600018821F0400101804446EA4601201D
:10464000FFF7A4FA3AF81410B0FBF1F0854206D354
:10465000291AB94203D2471B00D50F46A046641C55
:104660000A2CECD359F826100A8822F038020A8066
:1046700059F826100B8808F0070243EAC2020A80A4
:1046800059F826108A8822F480728A8059F82610F8
:104690008B8808F0080243EA42128A8059F8260003
:1046A000018841F04001018006B0BDE8F0870000BC
:1046B000E8E5000830B50F4D55F820301C8824F08F
:1046C00040041C8055F82040238811B143F00101BB
:1046D00001E023F0010112B141F0020101E021F0FB
:1046E0000201218055F82000018841F0400101803D
:1046F00030BD0000DCE500082DE9F05F1F4D0446E9
:104700008B4655F82400DDE90B760188DDF828801A
:104710009A46914621F040010180002241465846C8
:10472000FEF7B4F8002239465846FEF7AFF84A467D
:1047300041465846FEF71CF9524639465846FEF7A0
:1047400017F9324641465846FEF704F932463946D3
:104750005846FEF7FFF8012241465846FEF796F804
:10476000012239465846FEF791F855F82400018891
:1047700041F040010180BDE8F09F0000DCE5000849
:10478000014A5160106070472C00002010B510499C
:10479000032808D1086B40F000700863486D40F4AE
:1047A0000070486500204A6822F0030202434A6014
:1047B0004A6802F003028242FAD1064C30B1012865
:1047C00003D10320FFF7E2F9206010BD0420F9E7D0
:1047D000001002400000002030B51D4CA56945F0D6
:1047E0000105A56106280CD2DFE800F003071E22B0
:1047F0000B26A56945F0040502E0A56945F008050A
:10480000A561144D0F2443EA820255F820000829BF
:1048100016D343688D00203DAC4089002039A34366
:104820008A401A43426030BDA56945F01005E7E7AC
:10483000A56945F02005E3E7A56945F08005DFE7B8
:10484000036889008C40A3438A401A43026030BD4C
:1048500000100240BCE5000870B506460D46002079
:10486000FFF794FF204C606843F6F0718843606066
:10487000606840F410506060206820F08070206014
:1048800060681A490840606060684FF4003141EA8E
:1048900006410843606026B3FEF776F900281FD171
:1048A0000320FFF773F94008B5FBF0F06168104A88
:1048B00052F82000014361600E48854203D36068CE
:1048C00040F000406060206840F080702060206808
:1048D0008001FCD50220FFF759FF07480560002042
:1048E00070BD0420DDE7000000100240FFFFC01F84
:1048F0008CE4000800A24A040000002010B506F075
:1049000067FC08F097F8BDE8104006F075BC0000A1
:1049100000B54FF0E020042101616FF07F4141615B
:104920000220FFF733F9064A0449B0FBF2F04FF4D6
:104930007A7208605043486000BD000018000020F3
:1049400040420F0070470000BFF34F8F04480168DA
:10495000044A01F4E06111430160BFF34F8FFEE7A9
:104960000CED00E00400FA0510B502F051FD07203F
:1049700010BD042009F07CB9052009F079B90000C8
:104980000C4B10B553F82020948924F400549481E2
:10499000002953F820108A8A02D042F0400201E038
:1049A00022F040028A8253F82000818941F40051AC
:1049B000818110BD00E600080C4B10B553F8202093
:1049C000948924F400549481002953F820108A8A91
:1049D00002D042F0800201E022F080028A8253F885
:1049E0002000818941F40051818110BD00E600085A
:1049F000054A52F820000288920603D58088087084
:104A0000002070470120704700E6000870B50400E0
:104A10001ED01C48012C02D0022C19D10CE0C26817
:104A200042F48042C260C26822F48042C26082695D
:104A300042F4804282610BE0026942F4003202617A
:104A4000026922F400320261C26942F40032C2619A
:104A5000204600F02FF80C4842F20C0150F82420B8
:104A6000918150F8240001880180084D287838B1E0
:104A70000748084904700848FFF782FE00202870A4
:104A8000002070BD0010024000E600083400002045
:104A90003C000020593C000805430008044A52F835
:104AA0002030998052F8200001884906FCD57047D3
:104AB00000E600082DE9F04104460D460120FFF70D
:104AC00065F81E4E56F824209189090400EBC001B8
:104AD00001EB001001D5690000E0A900B0FBF1F185
:104AE0006425B1FBF5F0030118096FF0180778434E
:104AF00001EB800091890F044FF0320106D501EBE4
:104B0000C000B0FBF5F000F0070005E001EB00107D
:104B1000B0FBF5F000F00F009189184393894DF632
:104B2000F3752B40938156F82420108156F8240009
:104B300082890A438281BDE8F081000000E6000816
:104B400030B5214B01241B5603F01F05AC405B0917
:104B50009B0003F1E023C3F800411B4B1B1D53F8DE
:104B60002040A58925F40055A58179B1012902D0FD
:104B7000022921D115E053F82010002A8A8902D099
:104B800042F0200217E022F0200214E053F8201037
:104B9000002A8A8902D042F040020CE022F0400252
:104BA00009E053F82010002A8A8902D042F010024E
:104BB00001E022F010028A8153F82000818941F43B
:104BC00000518181002030BDFCE50008012009F082
:104BD0004FB8022009F04CB8032009F049B8000092
:104BE0000A4945F255520A6004224A6040F2712295
:104BF00050434FF47A72B0FBF2F088604AF6AA2074
:104C000008604CF6CC40086070470000003000405F
:104C100002494AF6AA2008607047000000300040B0
:104C20000FB4054B10B503A9044A029800F0A6FB87
:104C300010BC5DF814FB0000AD7D000838000020BA
:104C40007CB5044600201D46164600290BD0491E9F
:104C5000CDE90041044B6A462946304600F08EFB00
:104C6000009A002111707CBD015D0008490050EAE6
:104C7000C12018BF04204A0D18BF40F0010040F2C7
:104C8000FF72B2EB515F08BF40F00200012808BF7D
:104C9000052070474100080218BF04200A0E18BF03
:104CA00040F001004FF07F4232EA010108BF40F0BE
:104CB0000200012808BF0520704700000048704727
:104CC000380300202DE9F0414F1E00EBC7010446D8
:104CD000D1E9000115461E4637F006020DD02A46DE
:104CE0003346FCF7B3FF7F1E04EBC703D3E9002371
:104CF000FCF705FF37F00602F1D1022F25D0042F73
:104D000013D0062F18BFBDE8F0812A463346FCF7C2
:104D10009DFFD4E90A23FCF7F2FE2A463346FCF74E
:104D200095FFD4E90823FCF7EAFE2A463346FCF750
:104D30008DFFD4E90623FCF7E2FE2A463346FCF752
:104D400085FFD4E90423FCF7DAFE2A463346FCF754
:104D50007DFFD4E90223FCF7D2FE2A463346FCF756
:104D600075FFD4E90023BDE8F041FCF7C8BE01227D
:104D7000FDF74DB8FCF7C3BE00221346104611469E
:104D8000FCF7D6BF024A00201107FDF740B800002B
:104D900001FDFFFF0121FCF7A6BE00210846FCF73C
:104DA00064BE6FF05E010807FCF79DBE2DE9F04D73
:104DB0000D4614464FF07F41B1EB440F9EBF4FF0BC
:104DC000FF312960BDE8F08D4FF0004040EA04213A
:104DD000C4F3C750783810F01F024A4B4FEA601CEA
:104DE000C2F120067B44C4F3C750A0F178004FEA1B
:104DF000601003EB800053F82C3008BFD0E901C6E7
:104E000012D0D0F804C093402CFA06F73B438768D1
:104E10000CFA02FC27FA06F8C06807FA02F2F04022
:104E20004CEA080C42EA0006A3FB0132ACFB01C0CD
:104E3000A6FB016101EB0C068E4234BF4FF0010C62
:104E40004FF0000CC1186144BCF1000F02D0814248
:104E500002D903E0814201D2012000E00020104489
:104E600000F120024FEA92188006CA0C40EA423054
:104E70004F03C5F80080FCF7E1FF82463846FCF797
:104E8000E6FF6FF01201FCF72EFE07463046FCF7F6
:104E9000DEFF6FF02501FCF726FE834639465046BB
:104EA000FCF759FD5946FCF756FD00F500666FF317
:104EB0000B0651463046FCF7A0FD3946FCF79DFD38
:104EC0005946FCF79DFD1049FCF79DFD07460F492B
:104ED0003046FCF798FD3946FCF73DFD07460C4986
:104EE0003046FCF790FD3946FCF735FD14F0004FD5
:104EF00008BFBDE8F08DC8F1805180F00040296006
:104F0000BDE8F08DD89C0000DB0FC92F22AAFD2937
:104F10000000C92F002807D00E4910F0FF0F04D061
:104F200051FA80F00078401C704710F47F4F04D095
:104F3000C0F30720085C0930704710F47F0F04D0DD
:104F4000C0F30740085C1130704701EB1060007837
:104F50001930704710E6000802E008C8121F08C1A7
:104F6000002AFAD170477047002001E001C1121FEA
:104F7000002AFBD17047000001490860704700001B
:104F8000380300202DE9FF5F82B00021DDE9043005
:104F9000020DDDF840B0034318D044F61050A2F2E1
:104FA000FF3242431514119801281FD0A5EB0B00C6
:104FB000401C5FEA000A4FF000064E4FDFF83891C0
:104FC000B046504615D5CAF1000413E011980124EB
:104FD0004AA3012801D16FEA0B010298119AC0E996
:104FE0000031C0E9024206B0BDE8F09FCBF10000FD
:104FF000DFE704460021404A491842EB0450CDE95E
:10500000001012E0E00707D032463B4640464946D2
:10501000FCF71CFE8046894632463B461046194640
:10502000FCF714FE06460F466410002CEAD1DDE9B9
:105030000401DDE90023BAF1000F06DAFCF706FEF1
:1050400042464B46FCF702FE05E0FCF771FE424685
:105050004B46FCF76DFE04460E460022284BFCF73B
:1050600051FF03D84FF0FF30014607E00022254BE7
:1050700020463146FCF743FDFDF7A2F9102409E074
:10508000002C0ADB0A220023FCF79AFF039B303234
:105090001A55641E50EA0102F2D1641C039AC4F14D
:1050A00011031444119A012A03D0012208430DD19F
:1050B0000AE0084304D000204FF0110B119072E772
:1050C000A3EB0B056D1E0DE05B4504DD4FF0000208
:1050D00005F1010504E003DA4FF00002A5F1010536
:1050E000002AECD002981199C0E90231C0E90045CC
:1050F00079E70000000014400000F03F300000009D
:105100000000F0430000E03F03480168814201D005
:105110000120704700207047F400002030380A2832
:1051200001D2012070470020704700002DE9FC41AA
:10513000064628A40146204604F095F90746014694
:105140002246264806F0ACF8384604F0A7F924A019
:1051500006F0A6F8356838E095F82900A5F10C04AA
:1051600000902346082239462DA006F099F894F8BD
:10517000340000F00F00012805D0022805D030B11E
:10518000042806D008E029A004E02BA002E02DA00E
:1051900000E02FA006F084F8A06A014600E0401C61
:1051A0000278232AFBD0E26A64231144081A584388
:1051B000B0FBF2F3D4F830C0A06CCDE9000CE0698C
:1051C000091A26A006F06CF82D68B542C4D100205B
:1051D000BDE8FC81746872656164000004EC00083D
:1051E000202D2D2D20202D2D2D2D2D2D2D202D2D23
:1051F0002D2D2D2D2D2D2D2D202D2D2D2D2D2D2DEC
:105200002D2D2D20202D2D2D2D2D2D20202D2D2D02
:105210002D2D2D2D2D2D2D202D2D2D0A00000000A2
:10522000252D2A2E2A7320253364200020726561E3
:1052300064792020000000002073757370656E642F
:105240000000000020696E6974202020000000002A
:1052500020636C6F736520200000000020307825EB
:1052600030387820307825303878202020202530BC
:1052700032642525202020307825303878202530CC
:1052800033640A0070B50C46054616464969206825
:1052900008F0ACFCE268E968206803F0A9FF6268E6
:1052A0006169E06803F0A4FFA169606800F0E4FDB3
:1052B000D4E9011003F0B4F9D4E90421E86803F05B
:1052C00097FF226AA168206903F092FF626AE96988
:1052D000206804F01DF82068616A0288304608F0F2
:1052E000BBFF3146A26A206A04F012F8E868A16A9E
:1052F0000288E86908F07FFED4E90720216803F0FE
:1053000077FFE06904F098F8E06900F0CDFD6A6984
:10531000E968E06903F06CFF6969E868BDE870401E
:1053200003F017BD10B53AB154881188026C1368A8
:1053300022469847002010BD4FF0FF3010BD70B5D9
:105340001D46140001D0042D01D0002070BD026C58
:105350002188926890476080284670BD70B51C46D1
:105360000AB1042C01D0002070BD55881188026C50
:1053700053682A469847204670BD00002DE9FF4F2C
:1053800095B09B468946064600250FE2252877D131
:1053900000242746F84A0121059400E0044316F84A
:1053A000013F203B01FA03F01042F7D130782A2860
:1053B00011D06FF02F033078A0F13002092A16D8EF
:1053C000059A44F0020402EB820203EB420210440D
:1053D000761C0590EFE759F8042B0592002A03DAB2
:1053E000504244F40054059044F00204761C307896
:1053F0002E2816D116F8010F44F004042A280DD0E7
:105400006FF02F023078A0F13003092B09D807EB99
:10541000870302EB4303C718761CF3E759F8047BB4
:10542000761C30786C280FD006DC4C2817D0682802
:105430000DD06A2814D104E0742810D07A280FD136
:105440000DE044F400140AE044F4801401E044F454
:1054500040147278824202D104F58014761C761CC6
:10546000307866280BD013DC582877D009DC002868
:1054700075D04528F6D04628F4D047281AD19DE1AA
:1054800018E0632835D0642879D0652812D195E1D9
:10549000702873D008DC6728F1D069286FD06E2897
:1054A0000DD06F2806D1B5E073282CD0752875D0A3
:1054B000782874D05A46179990476D1C75E1C4F34B
:1054C0000250022809D003280DD0D9F80010042872
:1054D0000DD00D6009F1040967E1D9F80010EA1751
:1054E000C1E90052F6E7D9F800100D80F2E70D701F
:1054F000F0E719F8041B8DF8001000208DF801006A
:10550000EA46012003E059F804AB4FF0FF30610791
:105510004FF0000102D40DE008F101018846B942C4
:105520000FDA8045F8DB1AF808100029F4D108E0FA
:1055300008F1010188468142FADB1AF808100029B7
:10554000F6D105985B46A0EB080721463846179A26
:1055500000F094FA284400EB080507E04DE029E14B
:105560000DE01AF8010B5A4617999047B8F1010857
:10557000F7D25B4621463846179A13E142E00A22E9
:105580000092C4F302524FF0000A022A08D059F8E0
:1055900004CB032A4FEAEC710AD00DE029E02AE09F
:1055A00009F1070121F00702F2E802C1914609E082
:1055B0000FFA8CFC4FEAEC71042A03D14FFA8CFCF1
:1055C0004FEAEC71002907DA0A460021DCF1000CF1
:1055D00061EB02012D2202E0220504D52B228DF879
:1055E0000420012203E0E20701D02022F7E79046E1
:1055F00059E00A2102E010220DE010214FF0000ACC
:1056000000910BE010224FF0000A44F00404082738
:10561000009203E008224FF0000A0092C4F3025205
:10562000022A05D059F804CB0021032A08D009E04A
:1056300009F1070121F00702F2E802C1914605E0F5
:105640001FFA8CFC042A01D10CF0FF0C4FF000086B
:10565000220728D5702806D0009B83F0100353EA58
:105660000A0305D00EE040228DF80420012208E054
:105670005CEA010206D030228DF804208DF8050086
:1056800002229046009B83F0080353EA0A030AD1E2
:105690005CEA010201D1620705D530228DF80420B1
:1056A0004FF001087F1E582804D034A003900EA8A4
:1056B00002900DE036A0F9E753466046009AFCF7E9
:1056C0007FFC84460398825C0298401E0290027020
:1056D0005CEA0100F0D1029806A9081A00F1200A3C
:1056E000600702D524F4803400E00127574502DD2D
:1056F000A7EB0A0000E0002000EB0A0100900598EB
:105700004144401A0590E00306D45B462146179AAF
:10571000059800F0B3F90544002706E001A85A46B1
:10572000C05D179990476D1C7F1C4745F6DBE00371
:105730000CD55B462146179A059800F09FF9054461
:1057400004E030205A46179990476D1C0099481E76
:1057500000900029F5DC08E0029802995A4600788A
:10576000491C0291179990476D1CBAF10001AAF1EA
:10577000010AF1DC65E10000092801003031323313
:10578000343536373839616263646566000000007D
:105790003031323334353637383941424344454667
:1057A0000000000000F058F90544761C307800280D
:1057B0007FF4ECAD19B02846BDE8F08F620700D445
:1057C000062709F1070222F0070CFCE80223E14654
:1057D00003F000485FEA080C02D00FF2702C0DE0D5
:1057E0005FEA045C02D50FF2682C07E05FEAC47C34
:1057F00002D00FF2602C01E0AFF2700C4FF0FF38D6
:1058000023F00043CDF850C065280CD006DC4528B5
:1058100009D046281DD047283DD13DE0662818D044
:1058200067287ED138E00021112F01DB112000E034
:10583000781CCDE9000106A90EA8FFF7A3FBDDE95E
:105840000F010E9A03910021009207F1010A0491C1
:105850004DE04FF000400097CDE9011006A90EA8D9
:10586000FFF790FBDDE90F0203920E9B11990022D6
:10587000DDF80CA00093049211B9791C00EB010A29
:10588000B7EB0A0004D4C0F1FF3007F1010A04901D
:10589000AAEB0700019044E0012F00DA0127002164
:1058A000112F01DD112000E03846CDE9000106A9E5
:1058B0000EA8FFF767FBDDE90F010E9A03910021A7
:1058C00004910092BA4621070CD40399514500DA9D
:1058D0008A46BAF1010F05DD009AAAF10101515C77
:1058E000302908D0B84202DA10F1040F06DA01219B
:1058F000CDE9011015E0AAF10101E9E7002805DC76
:10590000049901440491AAEB000102E0411C5145B5
:1059100000DD8A460499401A401C01904FF0004077
:105920000290200704D40198504501DBCDF8048093
:1059300000208DF84F0002980DF14F07B0F1004F95
:1059400025D02B200E9002984FF0020800280CDA88
:10595000404202902D200E9007E00A210298FCF7A9
:1059600019FB3031029007F8011DB8F10001A8F1D0
:105970000108F2DC02980028EFD1791E0E98087019
:10598000307800F0200040F0450007F8020D12A822
:10599000C01B00F107081498007800B1012000EB4B
:1059A0000A01019801EBE07105984144401A401E3C
:1059B0000590E00306D45B462146179A059800F04F
:1059C0005DF805441498007818B15A461799904725
:1059D0006D1CE00324D55B462146179A059800F01C
:1059E0004DF805441CE00498002807DBDDE90301BD
:1059F000884203DD0098405C179901E01799302038
:105A00005A469047049805F10105401C04900198FE
:105A1000401E019004D12E205A46179990476D1CC4
:105A2000BAF10001AAF1010ADDDC05E017F8010B6B
:105A30005A46179990476D1CB8F10001A8F101086A
:105A4000F4DC5B462146179A0598ABE62D00000072
:105A50002B000000200000002DE9F0410446002545
:105A60001E461746880404D405E039462020B04776
:105A70006D1C641EF9D52846BDE8F0812DE9F04182
:105A8000044600251E469046C80301D5302700E095
:105A90002027880404D505E041463846B0476D1CF0
:105AA000641EF9D52846BDE8F081012908D00229F5
:105AB0000AD003290ED1428801885242028008E0B0
:105AC00001884288028003E00188494201804188C0
:105AD00049424180704700002DE9FC4119460446C7
:105AE000DDE90837DDE90A65143040600060C4E98B
:105AF0000821C4E90A373A46232118461C3405F028
:105B0000EDFDD4E903014218D4E901010D4B121F48
:105B100005F0E4FA2060A67666760020A562E061D2
:105B2000E56260612076E06520661C3C00902346BB
:105B30000190054A194604F14C0007F006F80020D0
:105B4000BDE8FC810DC700084BC9000810B5029CD8
:105B500024F001044472C0E907120021C0E90931B0
:105B600000EBC1021432491C526012600129F7DBBC
:105B700010BD10B5002200EBC201521CF1E9053442
:105B8000012A5C60D1E90034236049600960F2DBDE
:105B900010BD000070B506460C46C82006F032FF66
:105BA000214D6A68E968891A884202D2012028706A
:105BB00002E02878002836D0A521204602F00AFF0E
:105BC0001A48A21D1949B0F8480080B201F078FACD
:105BD00082B2A11D204602F0E2FE204602F004FF40
:105BE000002C20D0A078E17810EB01201BD0002001
:105BF0002870308B012140F4006030830E2005F0C6
:105C0000E7FF06F011FF6860204602F00BFF034635
:105C100022460021304604F09EFEBDE8704000217F
:105C20000E2005F0D5BF70BD000300203C0300200E
:105C30002DE9F04116460F460446FBF7A5FA8046CB
:105C40002E49A06C08420FD1E06C002501680129A3
:105C50001DD001210160206C0B463246D0F810C0E7
:105C600039462046E04714E02046E56C04F085FE06
:105C7000864200D30646E888A16C8219C1F38F21C1
:105C80008A4212D229683246014438461CE06FF03D
:105C900006054046FBF77CFA2DB1284606F096FA39
:105CA0000020BDE8F0813046FBE70A1A296801446C
:105CB000384605F0EEFCE988A06C8A19C0F38F2005
:105CC000121A3844401A296805F0E3FCE06C816838
:105CD00011B10EB100218160C288911989B2C180D1
:105CE000A26CC2F38F22914204D3B1FBF2F302FB08
:105CF0001311C1804046FBF74BFAD4E700FCFF03C9
:105D00004A68002A06D00A68531C0B601070486865
:105D1000401E4860704700207047C06E002106F0AA
:105D200033BB1146C06E002206F02EBB0020704728
:105D3000002106F029BB1146002206F025BB000019
:105D4000044890F84000C00703D00348806805F07D
:105D5000FCBF70473C030020000300202DE9F04108
:105D600004464FF01A4000EB4400B0F1C85F2046F3
:105D700055D84FF0FC41B1EB440F1CD224F0004049
:105D80004FF07E51FBF73CFE4FF0FF31FBF7ABFECF
:105D9000054607F035FB14F0004F1DBF2C4F2D4E6C
:105DA00080F00040002708BF3E464FF04041FBF71F
:105DB0002AFE044605E0284F284E0146FBF723FE45
:105DC000054627492846FBF71EFE2649FBF7C3FD7B
:105DD0002946FBF718FE2449FBF7BDFD2946FBF7D2
:105DE00012FE2249FBF7B7FD2946FBF70CFE2049BE
:105DF000FBF7B1FD804629462046FBF704FE4146ED
:105E0000FBF701FE054631462046FBF7F9FD294622
:105E1000FBF7F3FD3946BDE8F041FBF79CBD4FF0C1
:105E2000CC41B1EB440F84BF1248BDE8F0814FF084
:105E30007F41B1EB440F03D2BDE8F041FEF7AABFAA
:105E40000120FFF799F8BDE8F041FEF7A6BF00007A
:105E50000000494022AA7D3A0000C93F22AAFD392C
:105E600024FE1C3DC78AD83C1E67383D1B93993DD4
:105E7000AFAA2A3EDB0FC93F2DE9F0410F46054688
:105E800000240AE078686E6850F8241056F8240060
:105E9000FBF761FD46F82400641C688829884843A4
:105EA000A042EFDCBDE8F0812DE9F0410646002478
:105EB0004FF07E580AE004FB00477568414655F8EC
:105EC0002700FBF748FD45F82700641C7088A042B6
:105ED000F1DCBDE8F0812DE9F0410E4605460321D5
:105EE0001446084603F052F80746012C0CD0002255
:105EF000314607F0CFFD2946384602F007FE384606
:105F0000BDE8F04104F0AEBD0122F1E72DE9F0411A
:105F10000E46804603218AB01C461546084603F00B
:105F200035F8074609A808A9CDE90210CDE90056C1
:105F300007AB06AA049405A9384601F0D5FB4146F3
:105F4000384602F0E3FD384604F08CFD0AB0BDE8A7
:105F5000F08100002DE9F04D8D4F21F0004A86B010
:105F600005460C46BA452ADBAAEB070028430AD0AF
:105F70008848824501DC1AD1CDB106B02846BDE87B
:105F8000F04DFEF7F4BE844A844B2846FBF75EFED4
:105F900007460E46824A834B28462146FBF756FEAB
:105FA00006B03A463346BDE8F04DFBF7A8BD0120E8
:105FB000FEF7E2FF06B0BDE8F04DFEF7DDBE7A4821
:105FC000824542DABAF1795F0BDA2846FEF74EFED7
:105FD000042808BFFEF7D6FE284606B02146BDE8D5
:105FE000F08D2A460B461046FBF730FE83460246EC
:105FF0006E480E460B4606217844FEF763FE5A466D
:106000003346FBF723FE804669488A465A463346A4
:1060100004217844FEF756FE5A463346FBF716FE37
:1060200000223B46FBF76BFD02460B4640465146BD
:10603000FBF77EFE2A462346FBF708FE06B02A46FB
:106040002346BDE8F04DFBF75ABD284624F0004139
:1060500000223D463B46FBF7F6FD4FF0FF32FBF7D3
:10606000D6FE0646024653480F460B4606217844A4
:10607000FEF728FE32463B46FBF7E8FDCDE900017E
:106080004D4832463B4604217844FEF71BFE32461B
:106090003B46FBF7DBFD00222B46FBF730FD83463A
:1060A00002913046394607F085F9804643480D464F
:1060B000504517DCDDE900015A46029BFBF738FE2C
:1060C00042462B46FBF7C2FD42462B46FBF717FD27
:1060D0000122FBF79CFE304A304BFBF7B1FD304A02
:1060E000304B4CE04FF0000A52460B464046FBF75F
:1060F00006FDCDE9031052462B4610461946FBF724
:10610000A5FD32463B46FBF79EFDDDE90332FBF77A
:106110000FFE06460F46DDE900015A46029BFBF7DB
:1061200007FE83460091012230463946FBF76FFE99
:10613000194A1A4BFBF787FD06460F4601224046D7
:106140002946FBF764FE5A46009BFBF77FFD32466B
:106150003B46FBF775FD06460F4601225046294691
:10616000FBF755FE0E4DDFF858802A464346FBF7F5
:106170006AFD32463B46FBF766FD2A464346FBF77F
:1061800062FD002CD8BF81F0004106B0BDE8F08D63
:106190000000F03F0000F07F075C143326A6913C1E
:1061A000182D4454FB21F93F0000E03FD489000042
:1061B000EA8900005E890000748900003333EF3FF4
:1061C000FB21E93F2DE9F04104464FF00E4000EB82
:1061D0004400B0F1506F204655D84FF0FC41B1EB70
:1061E000440F1CD224F000404FF07E51FBF708FC16
:1061F0004FF0FF31FBF777FC054607F001F914F08B
:10620000004F1DBF2F4F304E80F000402F4F08BF72
:106210002F4E4FF04041FBF7F6FB044605E0002708
:106220003E460146FBF7EFFB05462A492846FBF7A9
:10623000EAFB2949FBF78FFB2946FBF7E4FB2749DB
:10624000FBF789FB2946FBF7DEFB2549FBF783FBC0
:106250002946FBF7D8FB2349FBF77DFB80462946FF
:106260002046FBF7D0FB4146FBF7CDFB0546314608
:106270002046FBF770FB2946FBF76DFB3946BDE86E
:10628000F041FBF768BB4FF0E441B1EB440F08D994
:10629000FEF700FD042808BFFEF783FD2046BDE899
:1062A000F0814FF07F41B1EB440F03D2BDE8F041E4
:1062B000FEF770BD0120FEF75FFEBDE8F041FEF77E
:1062C0006CBD00000000C9BF22AAFDB90000C93F93
:1062D00022AAFD3924FE1C3DC78AD83C1E67383DE2
:1062E0001B93993DAFAA2A3E30B5044685B00D46B2
:1062F0000120FCF7F1FA01221046216EFCF708FBA1
:106300002968E06EFEF782FB0121E06EFEF754FB88
:1063100094F860008DF80000002101208DF8010044
:10632000ADF80410ADF8021004918DF80C00606D0A
:106330008DF80610001D029069460120FCF73AFB1B
:1063400005B0002030BD10B586B0044603290CD03E
:10635000102904D011293FD1C06E002201E0C06E87
:1063600001220121FEF7ECFB36E0B2F5007F33D1CC
:10637000E06C0068A066A16C8A0A94F864108DF83D
:106380000010002104908DF801100120ADF80410D8
:10639000ADF802208DF80C00606D8DF80610001D20
:1063A000029069460120FCF705FBA06C0121C0F3B7
:1063B0008F20A065E06EFEF7E3FA01221046616EC1
:1063C000FCF7A6FA01220221E06EFEF7B9FB0122DA
:1063D0001046616EFCF75AFA06B0002010BD70B589
:1063E00016460D460446022B13D100220120216ED1
:1063F000FCF74CFA2A460120216EFCF7B9FA324626
:106400000120216EFCF7A6FA01221046216EFCF74E
:106410003DFA304670BD406D0188890601D58088FF
:1064200070474FF0FF30704770B51D460846049E18
:1064300001F070FD040009D0C4E90156A17860782C
:10644000FDF7E0FAA178024A60785054002070BD50
:10645000740B002010B5084601F05CFD08B1002166
:106460004160002010BD10B51446084601F052FDF1
:10647000817840780CB1012300E000230022FCF772
:10648000FDFA002010BD70B51546084601F042FD2A
:1064900004002AD0052D28D2DFE805F003070B14ED
:1064A0002000A178607804221BE0A17860780022A7
:1064B00017E0A17860780222FDF72EFAA1786078C3
:1064C000012207E0A17860780122FDF725FAA17882
:1064D00060780022BDE87040FDF7D2BAA1786078FC
:1064E0000922BDE87040FDF717BA70BD202908D217
:1064F000C81701EB107020F00F02891A0011FDF788
:106500006BBA00207047202909D2C81701EB107020
:1065100020F00F03C91AD2B20011FDF767BA704715
:1065200010B5C06EFEF7BAFA012010BD0349096824
:10653000002901D000F0EEB97047000014000020DF
:106540002DE9F84F04460D4621F0004000917349B3
:10655000814211DC7249884201DC06D12CB120460F
:106560002946BDE8F84FFEF702BC6E48002DCCBFAF
:106570006D496E49BDE8F88F6D49814211DD6D4965
:106580008142D8BF4FF0FF366DDD20462946FEF729
:106590006DFB042808BFFEF7F5FB20462946BDE841
:1065A000F88F6549654F25F00045814233DD644928
:1065B000814219DD002632464FF0804320462946AD
:1065C000FBF79DFA80468A46012220462946FBF7C2
:1065D0001EFC00223B46FBF733FB42465346FBF7CB
:1065E000A7FB04460D463EE001260022BA463B4684
:1065F00020462946FBF783FA80460F460022534681
:1066000020462946FBF71CFB42463B46FBF790FB26
:1066100004460D4627E04B4981421BDDDFF828A1E7
:1066200002260022534620462946FBF70FFB002294
:106630003B46FBF764FA80460F460022534620464D
:106640002946FBF7FDFA42463B46FBF771FB044641
:106650000D4608E0032622462B4600203B49FBF767
:1066600067FB04460D4622462B4610461946FBF7AB
:10667000EDFA8B46824602460B46FBF7E7FA0746E1
:106680000246334888460B4606217844FEF71AFB3B
:1066900052465B46FBF7DAFA82462E488B463A466C
:1066A000434605217844FEF70DFB3A464346FBF787
:1066B000CDFA02460B46002E504659460CDAFBF73F
:1066C0001EFA22462B46FBF7C1FA01B022462B46A2
:1066D000BDE8F04FFBF7B7BAFBF711FA22462B469D
:1066E000FBF7B4FA1C4A7A4402EBC603D3E9002351
:1066F000FBF7A6FA22462B46FBF7A2FA174A7A4482
:1067000002EBC603D3E90023FBF79DFA009A002AA7
:10671000B8BF81F00041BDE8F88F000000001044D0
:106720000000F07F182D4454FB21F93FFB21F9BFF5
:106730000000DC3F0000203E0000F33F0000F03F7F
:106740000000E63F008003400000F83F0000F0BF7B
:10675000FA830000B8830000568300001E83000007
:106760002DE9F04D9446CCF1000423F000464CEAAC
:106770000404524F46EAD4749A46884621F00042F7
:10678000BC4206D8454240EA050442EAD474BC4201
:1067900004D9BDE8F04D6246FEF7ECBAAAF14055C7
:1067A000A5F17F6555EA0C040BD0022404EAAA7413
:1067B000434DDFF810E144EAD87452EA000B04D0EC
:1067C0000CE0BDE8F04DFFF7BBBE002C14BF012C60
:1067D000BDE8F08D022C30D0032C32D056EA0C0BE1
:1067E0000AD0BE4220D1BA4209D126F0804622F01A
:1067F00080423346114617E000291ADB25E0DFF816
:10680000C8B0FB44002C04BFDBE90001BDE8F08DFB
:10681000012C02BFDBE9000181F00041BDE8F08DF1
:10682000022C0AD0032C0CD0BA4212D1B8F1000FBE
:106830000BDA23482549BDE8F08D28462449BDE8F8
:10684000F08D28467146BDE8F08D1D482149BDE810
:10685000F08D921B12153C2AC4BF19481D490EDC4D
:10686000BAF1000FBEBF12F13C0F0020014606DB5B
:106870006246FBF75DFA21F00041FFF761FE002C54
:1068800008BFBDE8F08D012C04BF81F00041BDE8D8
:10689000F08D114A114B022C07D0FBF7D1F92A4693
:1068A000BDE8F04D0A4BFBF7CBB9FBF7C9F92A4617
:1068B000BDE8F04D064BFBF7C6B900000000F07FC5
:1068C000182D4454FB2109C0B2820000FB21F9BFFE
:1068D000FB210940FB21F93F075C143326A6A13CAC
:1068E00010B5044611682022044805F0CBFD044889
:1068F0002146006804F056FE002010BD340600203A
:1069000014000020024AC2E9000100209060704794
:10691000F40F00202DE9F8433A4E317869B14FF079
:10692000000901290DD0384A022915D003290ED1BA
:106930000D281FD00A281DD04AE0412807D1012088
:1069400016E0542805D086F80090C6F80490BDE8FB
:10695000F88302203070F8E70D2808D00A2806D006
:106960007168402903D05054491C7160EFE703203F
:106970003070ECE790467268234F002408F80290CC
:10698000403722E03D212048FAF79CFC30B13D2100
:106990001D48FAF797FCA0EB080500E07568386819
:1069A00050F83400FAF798FCA84205D3386850F83C
:1069B0003400FAF791FC054638682A46124950F827
:1069C0003400FAF79EFC30B1641C7868A042D9D834
:1069D00086F80090BBE7386850F83400FAF77CFC82
:1069E00040440090BB683BB10421386801EBC4010E
:1069F0006A4640580121984740210348FAF757FC5E
:106A0000E6E7000020030020B40F00200149886061
:106A100070470000F40F00202DE9F04F4FF0000800
:106A20008BB0C3464246032106A807F0F8FB0022BC
:106A30000321684607F0F3FB0022032103A807F0B7
:106A4000EEFB904F8E4E002407F5EA7A4FF0FF33AD
:106A5000042209A9B06804F0A8FE0998C006F5D57B
:106A6000894AA2F14C018946A1F10C0003F0C2F958
:106A7000854A4946703A1546A2F1B40002F048FC36
:106A800003225146284607F0E7FB0322294606A8C1
:106A900007F0B1FAD7F8645229462846FAF7B3FF4F
:106AA0004146FAF758FF804629465846FAF753FF01
:106AB00083467548B038054601F056FB72490322FB
:106AC0007C39684607F097FA6F4A0123403A022161
:106AD000706803F00FFF284601F054FC6A49032256
