:020000040000FA
:1000000048060010D5000000D1020000DF0000000B
:1000100000000000000000000000000000000000E0
:10002000939D939B0000000064000000E10000002D
:100030000000000000000000E30000007104000068
:10004000E7000000E700000000000000E7000000FB
:10005000E7000000E700000000000000E7000000EB
:10006000E7000000E7000000E7000000E7000000F4
:10007000E7000000E7000000E7000000E7000000E4
:10008000E7000000E7000000E7000000E7000000D4
:10009000E7000000E7000000E700000000000000AB
:1000A000E7000000E7000000E7000000E7000000B4
:1000B000E7000000E7000000E7000000E7000000A4
:1000C0000348854600F04EF8004800476D0C0000DC
:1000D000480600100448804704480047FEE7FEE752
:1000E000FEE7FEE7FEE7FEE74D060000C100000068
:1000F00030B50B46014600202022012409E00D46C0
:10010000D5409D4205D31D469540491B2546954047
:1001100040191546521E002DF1DC30BD03460B433D
:100120009B0703D009E008C9121F08C0042AFAD2AD
:1001300003E00B780370401C491C521EF9D2704733
:10014000D2B201E00270401C491EFBD2704700226F
:10015000F6E710B513460A4604461946FFF7F0FFC6
:10016000204610BD064C0125064E05E0E36807CC8D
:100170002B430C3C98471034B442F7D3FFF7A4FF4D
:10018000540E0000740E000010B500F08BF910BD85
:10019000F8B5840A104D322011C52C6072B60E4994
:1001A0000E4E14310F460C48083DB04762B66869E0
:1001B00000280ED1342011C509482C600068686001
:1001C00072B639460448083DB04762B668690028EF
:1001D00000D00120F8BD0000BC020010F11FFF1F7D
:1001E0001C00001040207047012080027047000072
:1001F00010B5002000F036F87D21C900FFF778FF28
:100200000149086010BD00001C000010F8B505464B
:10021000800A114C0F46322160602160A06072B6E6
:100220000D490E4E14310C480091B04762B660691A
:1002300000280FD13320A1C4402020600848006866
:10024000606072B604480C3C0099B04762B66069C1
:10025000002800D00120F8BDBC020010F11FFF1FD4
:100260001C000010010003D0012800D000207047BE
:1002700001480068704700000000001008B569469A
:10028000002000F0F1F90028F9D16846007808BD97
:1002900010B5064C3A2021462060054A143120460C
:1002A0009047E169A069484010BD0000BC02001001
:1002B000F11FFF1F10B506C881F3088881F3098874
:1002C000024908388860904700BF10BD00ED00E08B
:1002D00010B500F001F810BD704700B501460020D0
:1002E00000F002FA002000BD014A51601060704722
:1002F0001400001070470000000000007073694E89
:100300000948816B2022914381630848826B182140
:100310008A438263426B8A43426305480168C02274
:100320009143016070470000008204400040044097
:10033000C0C1004030B5244B1C6880252C431C6094
:10034000FF249440214D9140030000F01BFA080562
:100350000C131A21282F360B2868A0432860286820
:100360000843286030BD6868A04368606868084337
:10037000686030BDA868A043A860A8680843A8606A
:1003800030BDE868A043E860E8680843E86030BD35
:100390002869A043286128690843286130BD68693D
:1003A000A043686168690843686130BDA869A043DB
:1003B000A861A8690843A86130BDE869A043E86165
:1003C000E8690843E86130BD8080044000C0004017
:1003D00010B504490863002048630120486300F019
:1003E000A3F810BD40800440F7B505461B481446ED
:1003F000816B0023802291438163012D01D1FFF79E
:100400007FFF17490D600020486001204860154DAE
:10041000154E0146019A01204A43A24216D14700D7
:1004200067437F19B74211D240084201491E0C4868
:100430000A434038826001E05B1C00BFC168C90705
:10044000FAD00A48834207D80020FEBD40000828A1
:10045000E3D9491C2029DDD30120FEBD00820440E0
:1004600040800440FFA0B3F6FF70C609A0860100DB
:1004700010B50A4C606803280CDD094A1078002882
:1004800008D100F097FA002804D001201074002051
:1004900000F026F86068401C606010BD0400001089
:1004A0008C00001010B50A48016904221143016153
:1004B000084941610020FFF7D5FE074C0749FFF7C7
:1004C00017FE7D21C90020604843606010BD000018
:1004D00000E000E0FFFFFF000C00001040420F00B2
:1004E000044902220028086901D0104300E090432B
:1004F0000861704700E000E00849094A096848437C
:100500000849904201D94A6100E0486100208861B1
:100510000869052210430861704700000C000010B4
:10052000FFFFFF0000E000E070B5364D0020696A73
:10053000C905090F0B0000F025F91026090B0D0F56
:1005400011131517191B1D1F212325262E481AE0EC
:100550002E4818E02E4816E02E4814E02E4812E0EF
:100560002E4810E02E480EE02E480CE02E480AE0FF
:100570002E4808E02E4806E02E4804E02E4802E00F
:100580002E4800E02E48696AC906C90E491C490078
:10059000FFF7AEFD1B4A4032116B2A4E89072A4CE9
:1005A000890F11D00023012904D002290ED003297C
:1005B0001AD10DE010688007800F05D0012803D004
:1005C000022810D003280FD126600DE020600BE038
:1005D00010688007800F0DD001280BD0022802D0B0
:1005E000032801D106E02360916B2068FFF780FDAE
:1005F000206070BDA8681349C006C00E401C484367
:10060000E4E7000000800440C027090090051000C6
:10061000C05C1500F0B31A00200B2000009F2400DE
:10062000E0322900C0C62D0050973100E067350048
:100630007038390000093D00401640008023430017
:10064000C0304600001BB7000000001004491F2006
:1006500008610348C0380168024A114301607047CD
:100660004081044080000400820005488058826870
:10067000D20703D0406908700020704701207047FE
:10068000480E000010B5124A0446106807239B0369
:1006900018431060012050610D4A00204032506321
:1006A000FF201063204600F029F8FF22013209499B
:1006B000A0000B585A600B58074A9A600858074A1E
:1006C000026007490748FFF70FFE002010BD000039
:1006D00080800440480E0000FFFF0000050030004D
:1006E0007D020000DB020000034A8000105882688F
:1006F0005207FCD5C1617047480E0000F8B5124E94
:10070000850070590C4601684908490001600020C5
:10071000FFF7A8FD21010F46FFF7EAFC441E002069
:10072000FFF7A0FD390A621C5143FFF7E1FC0749BE
:10073000FF3801384863705904627059016801221A
:1007400011430160F8BD0000480E0000C080044065
:100750000A4B810059580123002A06D0CB60084972
:10076000002804D0012806D103E00B6103E0082033
:1007700000E010200860002070470000480E0000D4
:1007800000E100E030B47446641E2578641CAB427E
:1007900000D21D46635D5B00E31830BC184702E0E1
:1007A00008C8121F08C1002AFAD17047002001E0D2
:1007B00001C1121F002AFBD1704770B50D460446D7
:1007C00004E021780020641CFFF78EFF28466D1E90
:1007D000F7D270BDF0B503880026094F0CE08C5DA0
:1007E0002402634000255C001B0400D57C406D1C86
:1007F0002346082DF7D3761C9642F0D30380F0BD34
:1008000021100000F7B582B006460446FFF7EAFC67
:100810000746002539460498FFF76AFC00910190CD
:100820000DE00398A11B09183A460E48FFF776FC25
:100830000C492046FFF7EAFCE41901986D1CA84218
:10084000EFD8009900290AD00A460398A11B09187D
:100850000448FFF763FC03492046FFF7D7FC05B0C7
:10086000F0BD00004000001030B595B00546811D78
:10087000002404226846FFF751FC6846C0782946E8
:1008800082000A310AA8FFF749FC0AA801904148F2
:1008900000F09EF802213F48FFF78FFF684600787E
:1008A0003D49022850D004286BD00025072823D0CA
:1008B0000B2864D10B220021384800F0ACF83748EF
:1008C00000F0CDF901463548FFF777FF3448142290
:1008D000129513951399491C13918142FADB1299D1
:1008E000491C12919142F4D3BFF34F8F2E492D48EA
:1008F000C860BFF34F8FFEE70198029500680B2890
:100900000ED006DC012809D0042812D005280AD10F
:1009100015E0102810D0402805D113E0234800E04E
:1009200080200224039002AA21461C4800F0A2F86D
:100930001EE00120C003F4E7FFF7AAFCF1E7FFF790
:1009400053FCEEE71A48ECE7019804684C604068F5
:100950008860051905E02046FFF71AFCFFF744FC04
:100960000419A542F7D8022200210C4800F053F8E0
:100970000A4800F074F901460848FFF71EFF15B059
:1009800030BD019A12684A6001984068CA60886068
:100990000422E9E7040000108C000010B6010010EA
:1009A000102700000400FA0500ED00E00004014BF0
:1009B00016020000012109034868401A03498842D1
:1009C00001D3002070470120704700000170000033
:1009D0005A210170A1214170704770B50D4614462F
:1009E0000646A42100F00DF904222946304600F005
:1009F000ECF86C60002407E06868A100411804224C
:100A0000304600F0E2F8641CE878A042F4DC30469E
:100A100000F007F970BD7FB5A0236D462B70002351
:100A20006B700224EC70AB700392029102AA6946CB
:100A3000FFF7D3FF002004B070BD78B504465A26F6
:100A4000069D05982670A7266670A370E270217136
:100A500050216171A071E57100206946088008226B
:100A600021466846FFF7B6FE694608882072000AEC
:100A7000607278BD1CB5A7236C4623700023637099
:100A8000A370E1706946FFF7A8FF00201CBDFEB50A
:100A90000446012001900026684606802568227BD6
:100AA000AF1D06201300FFF76DFE07050B2C2F3A34
:100AB0003D3F7E005A2977D101202073297073E0D1
:100AC0006970A13902220B00FFF75CFE0713136E59
:100AD0000505070F6E00227366E0A168002901D0AA
:100AE00028468847002001905DE0AE70EE70666099
:100AF00013E02673A168002901D02846884700200A
:100B0000FEBDA970032008E0E970A878090240182A
:100B1000FF210131884246D80420207344E0297126
:100B20000520FAE76971E2E76068421C62603954A7
:100B30006878A42801D0A52827D1E978A8780902E7
:100B400040186168884220D869460E8002222946F2
:100B50006846FFF73FFE0222A91C6846FFF73AFEEF
:100B6000394668466268FFF735FE697928790902D7
:100B7000401869460988884206D1A168002901D039
:100B8000284688470020019026736878A7280BD153
:100B90006068082808D30820A870EE70A1680029B2
:100BA00001D02846884726730198FEBD10B5002164
:100BB000416001730068002805D0FF210731FFF76D
:100BC000C6FA002010BD012010BD70B50446837820
:100BD000C07815460002FF261A180136B24201D924
:100BE000012070BD1A19801D10182A46FFF796FAC9
:100BF000A078290A4019A070E0784018E070002021
:100C000070BD10B55A220270417000218170C17010
:100C100001714171FF210131801DFFF798FA002019
:100C200010BD18B5044600206946088002222146FE
:100C30006846FFF7CFFD0222A11C6846FFF7CAFDF8
:100C4000E178A07809024218A11D6846FFF7C2FDAD
:100C5000694608882071000A6071002018BD8178FB
:100C6000C0780002801D0818704700000EB5474A82
:100C700000209110FFF7B8FB0320FFF7A9FBFFF757
:100C800083FAE12149020020FFF7FCFC0022042145
:100C90001046FFF74FFB002108220846FFF74AFBEA
:100CA00000F08CF83A4C0025214624312570084686
:100CB00025741038016037498160FFF777FF2046BF
:100CC00000950023022201210C380195FFF7B5FEA3
:100CD0003148FFF77DFEFFF78BFA3048FFF70CFC39
:100CE0000120FFF7FDFB00F05DF8002835D000F093
:100CF0006DF80121217080684178A42907D0A529C9
:100D000008D0A62929D122480A210C3823E0FFF770
:100D1000ABFD22E0C278817812028D18E368811D54
:100D20002A461846FFF76EFDE06802214019E06090
:100D30001948FFF742FDA16860684018E1688842E1
:100D40000BD8042200211648FFF765FE1448FFF770
:100D500086FF01461248FFF730FD207C012808D1AC
:100D6000002201211046FFF7F3FC01200003FFF7EA
:100D7000A1FA02A90020FFF777FC0028B3D168464A
:100D8000017A03481430FFF782FEACE7006CDC0206
:100D90008C0000103D0E000006000010A08601002F
:100DA000B60100100448018D408D814201D0012020
:100DB00070470020704700001C040010024800210A
:100DC00041850185704700001C04001070B5084C77
:100DD0000025208D618D884208D00C214143054AB1
:100DE000401C8D181E21FFF783F92185284670BD10
:100DF0001C040010DC020010F7B50E4C0546608D97
:100E00000E4607461E21401CFFF772F9208D8142D5
:100E100001D10020FEBD0C20474307481E213A188F
:100E20000298906060C2608D401CFFF761F9618597
:100E30000120FEBD1C040010DC02001010B50246AB
:100E4000FFF7DAFF10BD00000040064000800640BA
:100E500000C00640740E00000000001020000000DA
:100E60009E070000940E00002000001028060000DD
:100E7000AC07000000366E0100000000000000001A
:100E80000000000000000000000000000000000062
:040E9000E02E000050
:04000005000000C136
:00000001FF
